{
  "_format": "hh-sol-artifact-1",
  "contractName": "KYCNFT",
  "sourceName": "contracts/KYCNFT.sol",
  "abi": [
    {
      "inputs": [],
      "stateMutability": "nonpayable",
      "type": "constructor"
    },
    {
      "anonymous": false,
      "inputs": [
        {
          "indexed": true,
          "internalType": "address",
          "name": "owner",
          "type": "address"
        },
        {
          "indexed": true,
          "internalType": "address",
          "name": "approved",
          "type": "address"
        },
        {
          "indexed": true,
          "internalType": "uint256",
          "name": "tokenId",
          "type": "uint256"
        }
      ],
      "name": "Approval",
      "type": "event"
    },
    {
      "anonymous": false,
      "inputs": [
        {
          "indexed": true,
          "internalType": "address",
          "name": "owner",
          "type": "address"
        },
        {
          "indexed": true,
          "internalType": "address",
          "name": "operator",
          "type": "address"
        },
        {
          "indexed": false,
          "internalType": "bool",
          "name": "approved",
          "type": "bool"
        }
      ],
      "name": "ApprovalForAll",
      "type": "event"
    },
    {
      "anonymous": false,
      "inputs": [
        {
          "indexed": true,
          "internalType": "address",
          "name": "previousOwner",
          "type": "address"
        },
        {
          "indexed": true,
          "internalType": "address",
          "name": "newOwner",
          "type": "address"
        }
      ],
      "name": "OwnershipTransferred",
      "type": "event"
    },
    {
      "anonymous": false,
      "inputs": [
        {
          "indexed": true,
          "internalType": "address",
          "name": "from",
          "type": "address"
        },
        {
          "indexed": true,
          "internalType": "address",
          "name": "to",
          "type": "address"
        },
        {
          "indexed": true,
          "internalType": "uint256",
          "name": "tokenId",
          "type": "uint256"
        }
      ],
      "name": "Transfer",
      "type": "event"
    },
    {
      "inputs": [
        {
          "internalType": "uint256",
          "name": "",
          "type": "uint256"
        }
      ],
      "name": "NFTID_To_ExpirationTime",
      "outputs": [
        {
          "internalType": "uint256",
          "name": "",
          "type": "uint256"
        }
      ],
      "stateMutability": "view",
      "type": "function"
    },
    {
      "inputs": [
        {
          "internalType": "address",
          "name": "to",
          "type": "address"
        },
        {
          "internalType": "uint256",
          "name": "tokenId",
          "type": "uint256"
        }
      ],
      "name": "approve",
      "outputs": [],
      "stateMutability": "nonpayable",
      "type": "function"
    },
    {
      "inputs": [
        {
          "internalType": "address",
          "name": "player",
          "type": "address"
        },
        {
          "internalType": "string",
          "name": "tokenURI",
          "type": "string"
        }
      ],
      "name": "awardItem",
      "outputs": [
        {
          "internalType": "uint256",
          "name": "",
          "type": "uint256"
        }
      ],
      "stateMutability": "nonpayable",
      "type": "function"
    },
    {
      "inputs": [
        {
          "internalType": "address",
          "name": "owner",
          "type": "address"
        }
      ],
      "name": "balanceOf",
      "outputs": [
        {
          "internalType": "uint256",
          "name": "",
          "type": "uint256"
        }
      ],
      "stateMutability": "view",
      "type": "function"
    },
    {
      "inputs": [
        {
          "internalType": "uint256",
          "name": "tokenId",
          "type": "uint256"
        }
      ],
      "name": "expirationTimeOfNFTId",
      "outputs": [
        {
          "internalType": "uint256",
          "name": "",
          "type": "uint256"
        }
      ],
      "stateMutability": "view",
      "type": "function"
    },
    {
      "inputs": [
        {
          "internalType": "uint256",
          "name": "tokenId",
          "type": "uint256"
        }
      ],
      "name": "getApproved",
      "outputs": [
        {
          "internalType": "address",
          "name": "",
          "type": "address"
        }
      ],
      "stateMutability": "view",
      "type": "function"
    },
    {
      "inputs": [
        {
          "internalType": "address",
          "name": "owner",
          "type": "address"
        },
        {
          "internalType": "address",
          "name": "operator",
          "type": "address"
        }
      ],
      "name": "isApprovedForAll",
      "outputs": [
        {
          "internalType": "bool",
          "name": "",
          "type": "bool"
        }
      ],
      "stateMutability": "view",
      "type": "function"
    },
    {
      "inputs": [],
      "name": "kycManager",
      "outputs": [
        {
          "internalType": "address",
          "name": "",
          "type": "address"
        }
      ],
      "stateMutability": "view",
      "type": "function"
    },
    {
      "inputs": [],
      "name": "last_completed_migration",
      "outputs": [
        {
          "internalType": "uint256",
          "name": "",
          "type": "uint256"
        }
      ],
      "stateMutability": "view",
      "type": "function"
    },
    {
      "inputs": [],
      "name": "name",
      "outputs": [
        {
          "internalType": "string",
          "name": "",
          "type": "string"
        }
      ],
      "stateMutability": "view",
      "type": "function"
    },
    {
      "inputs": [],
      "name": "owner",
      "outputs": [
        {
          "internalType": "address",
          "name": "",
          "type": "address"
        }
      ],
      "stateMutability": "view",
      "type": "function"
    },
    {
      "inputs": [
        {
          "internalType": "uint256",
          "name": "tokenId",
          "type": "uint256"
        }
      ],
      "name": "ownerOf",
      "outputs": [
        {
          "internalType": "address",
          "name": "",
          "type": "address"
        }
      ],
      "stateMutability": "view",
      "type": "function"
    },
    {
      "inputs": [],
      "name": "renounceOwnership",
      "outputs": [],
      "stateMutability": "nonpayable",
      "type": "function"
    },
    {
      "inputs": [
        {
          "internalType": "address",
          "name": "from",
          "type": "address"
        },
        {
          "internalType": "address",
          "name": "to",
          "type": "address"
        },
        {
          "internalType": "uint256",
          "name": "tokenId",
          "type": "uint256"
        }
      ],
      "name": "safeTransferFrom",
      "outputs": [],
      "stateMutability": "nonpayable",
      "type": "function"
    },
    {
      "inputs": [
        {
          "internalType": "address",
          "name": "from",
          "type": "address"
        },
        {
          "internalType": "address",
          "name": "to",
          "type": "address"
        },
        {
          "internalType": "uint256",
          "name": "tokenId",
          "type": "uint256"
        },
        {
          "internalType": "bytes",
          "name": "data",
          "type": "bytes"
        }
      ],
      "name": "safeTransferFrom",
      "outputs": [],
      "stateMutability": "nonpayable",
      "type": "function"
    },
    {
      "inputs": [
        {
          "internalType": "address",
          "name": "operator",
          "type": "address"
        },
        {
          "internalType": "bool",
          "name": "approved",
          "type": "bool"
        }
      ],
      "name": "setApprovalForAll",
      "outputs": [],
      "stateMutability": "nonpayable",
      "type": "function"
    },
    {
      "inputs": [
        {
          "internalType": "address",
          "name": "_kycManagerAddr",
          "type": "address"
        }
      ],
      "name": "setKYManagerContractAddress",
      "outputs": [],
      "stateMutability": "nonpayable",
      "type": "function"
    },
    {
      "inputs": [
        {
          "internalType": "bytes4",
          "name": "interfaceId",
          "type": "bytes4"
        }
      ],
      "name": "supportsInterface",
      "outputs": [
        {
          "internalType": "bool",
          "name": "",
          "type": "bool"
        }
      ],
      "stateMutability": "view",
      "type": "function"
    },
    {
      "inputs": [],
      "name": "symbol",
      "outputs": [
        {
          "internalType": "string",
          "name": "",
          "type": "string"
        }
      ],
      "stateMutability": "view",
      "type": "function"
    },
    {
      "inputs": [
        {
          "internalType": "uint256",
          "name": "tokenId",
          "type": "uint256"
        }
      ],
      "name": "tokenURI",
      "outputs": [
        {
          "internalType": "string",
          "name": "",
          "type": "string"
        }
      ],
      "stateMutability": "view",
      "type": "function"
    },
    {
      "inputs": [
        {
          "internalType": "address",
          "name": "from",
          "type": "address"
        },
        {
          "internalType": "address",
          "name": "to",
          "type": "address"
        },
        {
          "internalType": "uint256",
          "name": "tokenId",
          "type": "uint256"
        }
      ],
      "name": "transferFrom",
      "outputs": [],
      "stateMutability": "nonpayable",
      "type": "function"
    },
    {
      "inputs": [
        {
          "internalType": "address",
          "name": "newOwner",
          "type": "address"
        }
      ],
      "name": "transferOwnership",
      "outputs": [],
      "stateMutability": "nonpayable",
      "type": "function"
    },
    {
      "inputs": [
        {
          "internalType": "uint256",
          "name": "tokenId",
          "type": "uint256"
        },
        {
          "internalType": "uint256",
          "name": "timestamp",
          "type": "uint256"
        }
      ],
      "name": "updateExpirationTime",
      "outputs": [],
      "stateMutability": "nonpayable",
      "type": "function"
    }
  ],
  "bytecode": "0x60806040523480156200001157600080fd5b506040518060400160405280600681526020017f4b59434e465400000000000000000000000000000000000000000000000000008152506040518060400160405280600681526020017f4b59434e46540000000000000000000000000000000000000000000000000000815250816000908051906020019062000096929190620001a6565b508060019080519060200190620000af929190620001a6565b505050620000d2620000c6620000d860201b60201c565b620000e060201b60201c565b620002bb565b600033905090565b6000600760009054906101000a900473ffffffffffffffffffffffffffffffffffffffff16905081600760006101000a81548173ffffffffffffffffffffffffffffffffffffffff021916908373ffffffffffffffffffffffffffffffffffffffff1602179055508173ffffffffffffffffffffffffffffffffffffffff168173ffffffffffffffffffffffffffffffffffffffff167f8be0079c531659141344cd1fd0a4f28419497f9722a3daafe3b4186f6b6457e060405160405180910390a35050565b828054620001b49062000256565b90600052602060002090601f016020900481019282620001d8576000855562000224565b82601f10620001f357805160ff191683800117855562000224565b8280016001018555821562000224579182015b828111156200022357825182559160200191906001019062000206565b5b50905062000233919062000237565b5090565b5b808211156200025257600081600090555060010162000238565b5090565b600060028204905060018216806200026f57607f821691505b602082108114156200028657620002856200028c565b5b50919050565b7f4e487b7100000000000000000000000000000000000000000000000000000000600052602260045260246000fd5b612ebf80620002cb6000396000f3fe608060405234801561001057600080fd5b506004361061014d5760003560e01c8063715018a6116100c3578063b88d4fde1161007c578063b88d4fde1461039e578063c87b56dd146103ba578063cf378343146103ea578063e1b2e9791461041a578063e985e9c514610436578063f2fde38b146104665761014d565b8063715018a6146102ee5780637afea44f146102f85780638da5cb5b1461031657806395d89b4114610334578063a22cb46514610352578063b76902481461036e5761014d565b806342842e0e1161011557806342842e0e14610208578063445df0ac146102245780634843f148146102425780636352211e146102725780636cd3b261146102a257806370a08231146102be5761014d565b806301ffc9a71461015257806306fdde0314610182578063081812fc146101a0578063095ea7b3146101d057806323b872dd146101ec575b600080fd5b61016c600480360381019061016791906120a0565b610482565b604051610179919061249c565b60405180910390f35b61018a610564565b60405161019791906124b7565b60405180910390f35b6101ba60048036038101906101b591906120f2565b6105f6565b6040516101c79190612435565b60405180910390f35b6101ea60048036038101906101e59190612064565b61063c565b005b61020660048036038101906102019190611f0a565b610754565b005b610222600480360381019061021d9190611f0a565b6107b4565b005b61022c6107d4565b6040516102399190612699565b60405180910390f35b61025c600480360381019061025791906120f2565b6107da565b6040516102699190612699565b60405180910390f35b61028c600480360381019061028791906120f2565b6107f7565b6040516102999190612435565b60405180910390f35b6102bc60048036038101906102b79190611ea5565b6108a9565b005b6102d860048036038101906102d39190611ea5565b6108f5565b6040516102e59190612699565b60405180910390f35b6102f66109ad565b005b6103006109c1565b60405161030d9190612435565b60405180910390f35b61031e6109e7565b60405161032b9190612435565b60405180910390f35b61033c610a11565b60405161034991906124b7565b60405180910390f35b61036c60048036038101906103679190611fd4565b610aa3565b005b610388600480360381019061038391906120f2565b610ab9565b6040516103959190612699565b60405180910390f35b6103b860048036038101906103b39190611f59565b610ad1565b005b6103d460048036038101906103cf91906120f2565b610b33565b6040516103e191906124b7565b60405180910390f35b61040460048036038101906103ff9190612010565b610c46565b6040516104119190612699565b60405180910390f35b610434600480360381019061042f919061211b565b610cd8565b005b610450600480360381019061044b9190611ece565b610d64565b60405161045d919061249c565b60405180910390f35b610480600480360381019061047b9190611ea5565b610df8565b005b60007f80ac58cd000000000000000000000000000000000000000000000000000000007bffffffffffffffffffffffffffffffffffffffffffffffffffffffff1916827bffffffffffffffffffffffffffffffffffffffffffffffffffffffff1916148061054d57507f5b5e139f000000000000000000000000000000000000000000000000000000007bffffffffffffffffffffffffffffffffffffffffffffffffffffffff1916827bffffffffffffffffffffffffffffffffffffffffffffffffffffffff1916145b8061055d575061055c82610e7c565b5b9050919050565b606060008054610573906128ef565b80601f016020809104026020016040519081016040528092919081815260200182805461059f906128ef565b80156105ec5780601f106105c1576101008083540402835291602001916105ec565b820191906000526020600020905b8154815290600101906020018083116105cf57829003601f168201915b5050505050905090565b600061060182610ee6565b6004600083815260200190815260200160002060009054906101000a900473ffffffffffffffffffffffffffffffffffffffff169050919050565b6000610647826107f7565b90508073ffffffffffffffffffffffffffffffffffffffff168373ffffffffffffffffffffffffffffffffffffffff1614156106b8576040517f08c379a00000000000000000000000000000000000000000000000000000000081526004016106af90612659565b60405180910390fd5b8073ffffffffffffffffffffffffffffffffffffffff166106d7610f31565b73ffffffffffffffffffffffffffffffffffffffff161480610706575061070581610700610f31565b610d64565b5b610745576040517f08c379a000000000000000000000000000000000000000000000000000000000815260040161073c906125d9565b60405180910390fd5b61074f8383610f39565b505050565b61076561075f610f31565b82610ff2565b6107a4576040517f08c379a000000000000000000000000000000000000000000000000000000000815260040161079b90612679565b60405180910390fd5b6107af838383611087565b505050565b6107cf83838360405180602001604052806000815250610ad1565b505050565b60095481565b6000600a6000838152602001908152602001600020549050919050565b6000806002600084815260200190815260200160002060009054906101000a900473ffffffffffffffffffffffffffffffffffffffff169050600073ffffffffffffffffffffffffffffffffffffffff168173ffffffffffffffffffffffffffffffffffffffff1614156108a0576040517f08c379a000000000000000000000000000000000000000000000000000000000815260040161089790612639565b60405180910390fd5b80915050919050565b6108b16112ee565b80600860006101000a81548173ffffffffffffffffffffffffffffffffffffffff021916908373ffffffffffffffffffffffffffffffffffffffff16021790555050565b60008073ffffffffffffffffffffffffffffffffffffffff168273ffffffffffffffffffffffffffffffffffffffff161415610966576040517f08c379a000000000000000000000000000000000000000000000000000000000815260040161095d90612599565b60405180910390fd5b600360008373ffffffffffffffffffffffffffffffffffffffff1673ffffffffffffffffffffffffffffffffffffffff168152602001908152602001600020549050919050565b6109b56112ee565b6109bf600061136c565b565b600860009054906101000a900473ffffffffffffffffffffffffffffffffffffffff1681565b6000600760009054906101000a900473ffffffffffffffffffffffffffffffffffffffff16905090565b606060018054610a20906128ef565b80601f0160208091040260200160405190810160405280929190818152602001828054610a4c906128ef565b8015610a995780601f10610a6e57610100808354040283529160200191610a99565b820191906000526020600020905b815481529060010190602001808311610a7c57829003601f168201915b5050505050905090565b610ab5610aae610f31565b8383611432565b5050565b600a6020528060005260406000206000915090505481565b610ae2610adc610f31565b83610ff2565b610b21576040517f08c379a0000000000000000000000000000000000000000000000000000000008152600401610b1890612679565b60405180910390fd5b610b2d8484848461159f565b50505050565b6060610b3e82610ee6565b6000600660008481526020019081526020016000208054610b5e906128ef565b80601f0160208091040260200160405190810160405280929190818152602001828054610b8a906128ef565b8015610bd75780601f10610bac57610100808354040283529160200191610bd7565b820191906000526020600020905b815481529060010190602001808311610bba57829003601f168201915b505050505090506000610be86115fb565b9050600081511415610bfe578192505050610c41565b600082511115610c33578082604051602001610c1b929190612411565b60405160208183030381529060405292505050610c41565b610c3c84611612565b925050505b919050565b6000600860009054906101000a900473ffffffffffffffffffffffffffffffffffffffff1673ffffffffffffffffffffffffffffffffffffffff163373ffffffffffffffffffffffffffffffffffffffff1614610ca257600080fd5b610cac600b61167a565b6000610cb8600b611690565b9050610cc4848261169e565b610cce8184611878565b8091505092915050565b600860009054906101000a900473ffffffffffffffffffffffffffffffffffffffff1673ffffffffffffffffffffffffffffffffffffffff163373ffffffffffffffffffffffffffffffffffffffff1614610d3257600080fd5b610d3c600b611690565b821115610d4857600080fd5b80600a6000848152602001908152602001600020819055505050565b6000600560008473ffffffffffffffffffffffffffffffffffffffff1673ffffffffffffffffffffffffffffffffffffffff16815260200190815260200160002060008373ffffffffffffffffffffffffffffffffffffffff1673ffffffffffffffffffffffffffffffffffffffff16815260200190815260200160002060009054906101000a900460ff16905092915050565b610e006112ee565b600073ffffffffffffffffffffffffffffffffffffffff168173ffffffffffffffffffffffffffffffffffffffff161415610e70576040517f08c379a0000000000000000000000000000000000000000000000000000000008152600401610e67906124f9565b60405180910390fd5b610e798161136c565b50565b60007f01ffc9a7000000000000000000000000000000000000000000000000000000007bffffffffffffffffffffffffffffffffffffffffffffffffffffffff1916827bffffffffffffffffffffffffffffffffffffffffffffffffffffffff1916149050919050565b610eef816118ec565b610f2e576040517f08c379a0000000000000000000000000000000000000000000000000000000008152600401610f2590612639565b60405180910390fd5b50565b600033905090565b816004600083815260200190815260200160002060006101000a81548173ffffffffffffffffffffffffffffffffffffffff021916908373ffffffffffffffffffffffffffffffffffffffff160217905550808273ffffffffffffffffffffffffffffffffffffffff16610fac836107f7565b73ffffffffffffffffffffffffffffffffffffffff167f8c5be1e5ebec7d5bd14f71427d1e84f3dd0314c0f7b2291e5b200ac8c7c3b92560405160405180910390a45050565b600080610ffe836107f7565b90508073ffffffffffffffffffffffffffffffffffffffff168473ffffffffffffffffffffffffffffffffffffffff161480611040575061103f8185610d64565b5b8061107e57508373ffffffffffffffffffffffffffffffffffffffff16611066846105f6565b73ffffffffffffffffffffffffffffffffffffffff16145b91505092915050565b8273ffffffffffffffffffffffffffffffffffffffff166110a7826107f7565b73ffffffffffffffffffffffffffffffffffffffff16146110fd576040517f08c379a00000000000000000000000000000000000000000000000000000000081526004016110f490612519565b60405180910390fd5b600073ffffffffffffffffffffffffffffffffffffffff168273ffffffffffffffffffffffffffffffffffffffff16141561116d576040517f08c379a000000000000000000000000000000000000000000000000000000000815260040161116490612559565b60405180910390fd5b611178838383611958565b611183600082610f39565b6001600360008573ffffffffffffffffffffffffffffffffffffffff1673ffffffffffffffffffffffffffffffffffffffff16815260200190815260200160002060008282546111d39190612805565b925050819055506001600360008473ffffffffffffffffffffffffffffffffffffffff1673ffffffffffffffffffffffffffffffffffffffff168152602001908152602001600020600082825461122a919061277e565b92505081905550816002600083815260200190815260200160002060006101000a81548173ffffffffffffffffffffffffffffffffffffffff021916908373ffffffffffffffffffffffffffffffffffffffff160217905550808273ffffffffffffffffffffffffffffffffffffffff168473ffffffffffffffffffffffffffffffffffffffff167fddf252ad1be2c89b69c2b068fc378daa952ba7f163c4a11628f55a4df523b3ef60405160405180910390a46112e983838361195d565b505050565b6112f6610f31565b73ffffffffffffffffffffffffffffffffffffffff166113146109e7565b73ffffffffffffffffffffffffffffffffffffffff161461136a576040517f08c379a000000000000000000000000000000000000000000000000000000000815260040161136190612619565b60405180910390fd5b565b6000600760009054906101000a900473ffffffffffffffffffffffffffffffffffffffff16905081600760006101000a81548173ffffffffffffffffffffffffffffffffffffffff021916908373ffffffffffffffffffffffffffffffffffffffff1602179055508173ffffffffffffffffffffffffffffffffffffffff168173ffffffffffffffffffffffffffffffffffffffff167f8be0079c531659141344cd1fd0a4f28419497f9722a3daafe3b4186f6b6457e060405160405180910390a35050565b8173ffffffffffffffffffffffffffffffffffffffff168373ffffffffffffffffffffffffffffffffffffffff1614156114a1576040517f08c379a000000000000000000000000000000000000000000000000000000000815260040161149890612579565b60405180910390fd5b80600560008573ffffffffffffffffffffffffffffffffffffffff1673ffffffffffffffffffffffffffffffffffffffff16815260200190815260200160002060008473ffffffffffffffffffffffffffffffffffffffff1673ffffffffffffffffffffffffffffffffffffffff16815260200190815260200160002060006101000a81548160ff0219169083151502179055508173ffffffffffffffffffffffffffffffffffffffff168373ffffffffffffffffffffffffffffffffffffffff167f17307eab39ab6107e8899845ad3d59bd9653f200f220920489ca2b5937696c3183604051611592919061249c565b60405180910390a3505050565b6115aa848484611087565b6115b684848484611962565b6115f5576040517f08c379a00000000000000000000000000000000000000000000000000000000081526004016115ec906124d9565b60405180910390fd5b50505050565b606060405180602001604052806000815250905090565b606061161d82610ee6565b60006116276115fb565b905060008151116116475760405180602001604052806000815250611672565b8061165184611af9565b604051602001611662929190612411565b6040516020818303038152906040525b915050919050565b6001816000016000828254019250508190555050565b600081600001549050919050565b600073ffffffffffffffffffffffffffffffffffffffff168273ffffffffffffffffffffffffffffffffffffffff16141561170e576040517f08c379a0000000000000000000000000000000000000000000000000000000008152600401611705906125f9565b60405180910390fd5b611717816118ec565b15611757576040517f08c379a000000000000000000000000000000000000000000000000000000000815260040161174e90612539565b60405180910390fd5b61176360008383611958565b6001600360008473ffffffffffffffffffffffffffffffffffffffff1673ffffffffffffffffffffffffffffffffffffffff16815260200190815260200160002060008282546117b3919061277e565b92505081905550816002600083815260200190815260200160002060006101000a81548173ffffffffffffffffffffffffffffffffffffffff021916908373ffffffffffffffffffffffffffffffffffffffff160217905550808273ffffffffffffffffffffffffffffffffffffffff16600073ffffffffffffffffffffffffffffffffffffffff167fddf252ad1be2c89b69c2b068fc378daa952ba7f163c4a11628f55a4df523b3ef60405160405180910390a46118746000838361195d565b5050565b611881826118ec565b6118c0576040517f08c379a00000000000000000000000000000000000000000000000000000000081526004016118b7906125b9565b60405180910390fd5b806006600084815260200190815260200160002090805190602001906118e7929190611cc9565b505050565b60008073ffffffffffffffffffffffffffffffffffffffff166002600084815260200190815260200160002060009054906101000a900473ffffffffffffffffffffffffffffffffffffffff1673ffffffffffffffffffffffffffffffffffffffff1614159050919050565b505050565b505050565b60006119838473ffffffffffffffffffffffffffffffffffffffff16611ca6565b15611aec578373ffffffffffffffffffffffffffffffffffffffff1663150b7a026119ac610f31565b8786866040518563ffffffff1660e01b81526004016119ce9493929190612450565b602060405180830381600087803b1580156119e857600080fd5b505af1925050508015611a1957506040513d601f19601f82011682018060405250810190611a1691906120c9565b60015b611a9c573d8060008114611a49576040519150601f19603f3d011682016040523d82523d6000602084013e611a4e565b606091505b50600081511415611a94576040517f08c379a0000000000000000000000000000000000000000000000000000000008152600401611a8b906124d9565b60405180910390fd5b805181602001fd5b63150b7a0260e01b7bffffffffffffffffffffffffffffffffffffffffffffffffffffffff1916817bffffffffffffffffffffffffffffffffffffffffffffffffffffffff191614915050611af1565b600190505b949350505050565b60606000821415611b41576040518060400160405280600181526020017f30000000000000000000000000000000000000000000000000000000000000008152509050611ca1565b600082905060005b60008214611b73578080611b5c90612952565b915050600a82611b6c91906127d4565b9150611b49565b60008167ffffffffffffffff811115611bb5577f4e487b7100000000000000000000000000000000000000000000000000000000600052604160045260246000fd5b6040519080825280601f01601f191660200182016040528015611be75781602001600182028036833780820191505090505b5090505b60008514611c9a57600182611c009190612805565b9150600a85611c0f919061299b565b6030611c1b919061277e565b60f81b818381518110611c57577f4e487b7100000000000000000000000000000000000000000000000000000000600052603260045260246000fd5b60200101907effffffffffffffffffffffffffffffffffffffffffffffffffffffffffffff1916908160001a905350600a85611c9391906127d4565b9450611beb565b8093505050505b919050565b6000808273ffffffffffffffffffffffffffffffffffffffff163b119050919050565b828054611cd5906128ef565b90600052602060002090601f016020900481019282611cf75760008555611d3e565b82601f10611d1057805160ff1916838001178555611d3e565b82800160010185558215611d3e579182015b82811115611d3d578251825591602001919060010190611d22565b5b509050611d4b9190611d4f565b5090565b5b80821115611d68576000816000905550600101611d50565b5090565b6000611d7f611d7a846126d9565b6126b4565b905082815260208101848484011115611d9757600080fd5b611da28482856128ad565b509392505050565b6000611dbd611db88461270a565b6126b4565b905082815260208101848484011115611dd557600080fd5b611de08482856128ad565b509392505050565b600081359050611df781612e2d565b92915050565b600081359050611e0c81612e44565b92915050565b600081359050611e2181612e5b565b92915050565b600081519050611e3681612e5b565b92915050565b600082601f830112611e4d57600080fd5b8135611e5d848260208601611d6c565b91505092915050565b600082601f830112611e7757600080fd5b8135611e87848260208601611daa565b91505092915050565b600081359050611e9f81612e72565b92915050565b600060208284031215611eb757600080fd5b6000611ec584828501611de8565b91505092915050565b60008060408385031215611ee157600080fd5b6000611eef85828601611de8565b9250506020611f0085828601611de8565b9150509250929050565b600080600060608486031215611f1f57600080fd5b6000611f2d86828701611de8565b9350506020611f3e86828701611de8565b9250506040611f4f86828701611e90565b9150509250925092565b60008060008060808587031215611f6f57600080fd5b6000611f7d87828801611de8565b9450506020611f8e87828801611de8565b9350506040611f9f87828801611e90565b925050606085013567ffffffffffffffff811115611fbc57600080fd5b611fc887828801611e3c565b91505092959194509250565b60008060408385031215611fe757600080fd5b6000611ff585828601611de8565b925050602061200685828601611dfd565b9150509250929050565b6000806040838503121561202357600080fd5b600061203185828601611de8565b925050602083013567ffffffffffffffff81111561204e57600080fd5b61205a85828601611e66565b9150509250929050565b6000806040838503121561207757600080fd5b600061208585828601611de8565b925050602061209685828601611e90565b9150509250929050565b6000602082840312156120b257600080fd5b60006120c084828501611e12565b91505092915050565b6000602082840312156120db57600080fd5b60006120e984828501611e27565b91505092915050565b60006020828403121561210457600080fd5b600061211284828501611e90565b91505092915050565b6000806040838503121561212e57600080fd5b600061213c85828601611e90565b925050602061214d85828601611e90565b9150509250929050565b61216081612839565b82525050565b61216f8161284b565b82525050565b60006121808261273b565b61218a8185612751565b935061219a8185602086016128bc565b6121a381612a88565b840191505092915050565b60006121b982612746565b6121c38185612762565b93506121d38185602086016128bc565b6121dc81612a88565b840191505092915050565b60006121f282612746565b6121fc8185612773565b935061220c8185602086016128bc565b80840191505092915050565b6000612225603283612762565b915061223082612a99565b604082019050919050565b6000612248602683612762565b915061225382612ae8565b604082019050919050565b600061226b602583612762565b915061227682612b37565b604082019050919050565b600061228e601c83612762565b915061229982612b86565b602082019050919050565b60006122b1602483612762565b91506122bc82612baf565b604082019050919050565b60006122d4601983612762565b91506122df82612bfe565b602082019050919050565b60006122f7602983612762565b915061230282612c27565b604082019050919050565b600061231a602e83612762565b915061232582612c76565b604082019050919050565b600061233d603e83612762565b915061234882612cc5565b604082019050919050565b6000612360602083612762565b915061236b82612d14565b602082019050919050565b6000612383602083612762565b915061238e82612d3d565b602082019050919050565b60006123a6601883612762565b91506123b182612d66565b602082019050919050565b60006123c9602183612762565b91506123d482612d8f565b604082019050919050565b60006123ec602e83612762565b91506123f782612dde565b604082019050919050565b61240b816128a3565b82525050565b600061241d82856121e7565b915061242982846121e7565b91508190509392505050565b600060208201905061244a6000830184612157565b92915050565b60006080820190506124656000830187612157565b6124726020830186612157565b61247f6040830185612402565b81810360608301526124918184612175565b905095945050505050565b60006020820190506124b16000830184612166565b92915050565b600060208201905081810360008301526124d181846121ae565b905092915050565b600060208201905081810360008301526124f281612218565b9050919050565b600060208201905081810360008301526125128161223b565b9050919050565b600060208201905081810360008301526125328161225e565b9050919050565b6000602082019050818103600083015261255281612281565b9050919050565b60006020820190508181036000830152612572816122a4565b9050919050565b60006020820190508181036000830152612592816122c7565b9050919050565b600060208201905081810360008301526125b2816122ea565b9050919050565b600060208201905081810360008301526125d28161230d565b9050919050565b600060208201905081810360008301526125f281612330565b9050919050565b6000602082019050818103600083015261261281612353565b9050919050565b6000602082019050818103600083015261263281612376565b9050919050565b6000602082019050818103600083015261265281612399565b9050919050565b60006020820190508181036000830152612672816123bc565b9050919050565b60006020820190508181036000830152612692816123df565b9050919050565b60006020820190506126ae6000830184612402565b92915050565b60006126be6126cf565b90506126ca8282612921565b919050565b6000604051905090565b600067ffffffffffffffff8211156126f4576126f3612a59565b5b6126fd82612a88565b9050602081019050919050565b600067ffffffffffffffff82111561272557612724612a59565b5b61272e82612a88565b9050602081019050919050565b600081519050919050565b600081519050919050565b600082825260208201905092915050565b600082825260208201905092915050565b600081905092915050565b6000612789826128a3565b9150612794836128a3565b9250827fffffffffffffffffffffffffffffffffffffffffffffffffffffffffffffffff038211156127c9576127c86129cc565b5b828201905092915050565b60006127df826128a3565b91506127ea836128a3565b9250826127fa576127f96129fb565b5b828204905092915050565b6000612810826128a3565b915061281b836128a3565b92508282101561282e5761282d6129cc565b5b828203905092915050565b600061284482612883565b9050919050565b60008115159050919050565b60007fffffffff0000000000000000000000000000000000000000000000000000000082169050919050565b600073ffffffffffffffffffffffffffffffffffffffff82169050919050565b6000819050919050565b82818337600083830152505050565b60005b838110156128da5780820151818401526020810190506128bf565b838111156128e9576000848401525b50505050565b6000600282049050600182168061290757607f821691505b6020821081141561291b5761291a612a2a565b5b50919050565b61292a82612a88565b810181811067ffffffffffffffff8211171561294957612948612a59565b5b80604052505050565b600061295d826128a3565b91507fffffffffffffffffffffffffffffffffffffffffffffffffffffffffffffffff8214156129905761298f6129cc565b5b600182019050919050565b60006129a6826128a3565b91506129b1836128a3565b9250826129c1576129c06129fb565b5b828206905092915050565b7f4e487b7100000000000000000000000000000000000000000000000000000000600052601160045260246000fd5b7f4e487b7100000000000000000000000000000000000000000000000000000000600052601260045260246000fd5b7f4e487b7100000000000000000000000000000000000000000000000000000000600052602260045260246000fd5b7f4e487b7100000000000000000000000000000000000000000000000000000000600052604160045260246000fd5b6000601f19601f8301169050919050565b7f4552433732313a207472616e7366657220746f206e6f6e20455243373231526560008201527f63656976657220696d706c656d656e7465720000000000000000000000000000602082015250565b7f4f776e61626c653a206e6577206f776e657220697320746865207a65726f206160008201527f6464726573730000000000000000000000000000000000000000000000000000602082015250565b7f4552433732313a207472616e736665722066726f6d20696e636f72726563742060008201527f6f776e6572000000000000000000000000000000000000000000000000000000602082015250565b7f4552433732313a20746f6b656e20616c7265616479206d696e74656400000000600082015250565b7f4552433732313a207472616e7366657220746f20746865207a65726f2061646460008201527f7265737300000000000000000000000000000000000000000000000000000000602082015250565b7f4552433732313a20617070726f766520746f2063616c6c657200000000000000600082015250565b7f4552433732313a2061646472657373207a65726f206973206e6f74206120766160008201527f6c6964206f776e65720000000000000000000000000000000000000000000000602082015250565b7f45524337323155524953746f726167653a2055524920736574206f66206e6f6e60008201527f6578697374656e7420746f6b656e000000000000000000000000000000000000602082015250565b7f4552433732313a20617070726f76652063616c6c6572206973206e6f7420746f60008201527f6b656e206f776e6572206e6f7220617070726f76656420666f7220616c6c0000602082015250565b7f4552433732313a206d696e7420746f20746865207a65726f2061646472657373600082015250565b7f4f776e61626c653a2063616c6c6572206973206e6f7420746865206f776e6572600082015250565b7f4552433732313a20696e76616c696420746f6b656e2049440000000000000000600082015250565b7f4552433732313a20617070726f76616c20746f2063757272656e74206f776e6560008201527f7200000000000000000000000000000000000000000000000000000000000000602082015250565b7f4552433732313a2063616c6c6572206973206e6f7420746f6b656e206f776e6560008201527f72206e6f7220617070726f766564000000000000000000000000000000000000602082015250565b612e3681612839565b8114612e4157600080fd5b50565b612e4d8161284b565b8114612e5857600080fd5b50565b612e6481612857565b8114612e6f57600080fd5b50565b612e7b816128a3565b8114612e8657600080fd5b5056fea2646970667358221220bcf3d19dcc21c6da73201074e98b9c5c26f2095144557c2e0da69b02e55c470364736f6c63430008040033",
  "linkReferences": {},
  "deployedLinkReferences": {}
}