{
  "_format": "hh-sol-artifact-1",
  "contractName": "KYCNFT",
  "sourceName": "contracts/KYCNFT.sol",
  "abi": [
    {
      "inputs": [],
      "stateMutability": "nonpayable",
      "type": "constructor"
    },
    {
      "anonymous": false,
      "inputs": [
        {
          "indexed": true,
          "internalType": "address",
          "name": "owner",
          "type": "address"
        },
        {
          "indexed": true,
          "internalType": "address",
          "name": "approved",
          "type": "address"
        },
        {
          "indexed": true,
          "internalType": "uint256",
          "name": "tokenId",
          "type": "uint256"
        }
      ],
      "name": "Approval",
      "type": "event"
    },
    {
      "anonymous": false,
      "inputs": [
        {
          "indexed": true,
          "internalType": "address",
          "name": "owner",
          "type": "address"
        },
        {
          "indexed": true,
          "internalType": "address",
          "name": "operator",
          "type": "address"
        },
        {
          "indexed": false,
          "internalType": "bool",
          "name": "approved",
          "type": "bool"
        }
      ],
      "name": "ApprovalForAll",
      "type": "event"
    },
    {
      "anonymous": false,
      "inputs": [
        {
          "indexed": true,
          "internalType": "address",
          "name": "previousOwner",
          "type": "address"
        },
        {
          "indexed": true,
          "internalType": "address",
          "name": "newOwner",
          "type": "address"
        }
      ],
      "name": "OwnershipTransferred",
      "type": "event"
    },
    {
      "anonymous": false,
      "inputs": [
        {
          "indexed": true,
          "internalType": "address",
          "name": "from",
          "type": "address"
        },
        {
          "indexed": true,
          "internalType": "address",
          "name": "to",
          "type": "address"
        },
        {
          "indexed": true,
          "internalType": "uint256",
          "name": "tokenId",
          "type": "uint256"
        }
      ],
      "name": "Transfer",
      "type": "event"
    },
    {
      "inputs": [
        {
          "internalType": "uint256",
          "name": "",
          "type": "uint256"
        }
      ],
      "name": "NFTID_To_ExpirationTime",
      "outputs": [
        {
          "internalType": "uint256",
          "name": "",
          "type": "uint256"
        }
      ],
      "stateMutability": "view",
      "type": "function"
    },
    {
      "inputs": [
        {
          "internalType": "address",
          "name": "to",
          "type": "address"
        },
        {
          "internalType": "uint256",
          "name": "tokenId",
          "type": "uint256"
        }
      ],
      "name": "approve",
      "outputs": [],
      "stateMutability": "nonpayable",
      "type": "function"
    },
    {
      "inputs": [
        {
          "internalType": "address",
          "name": "player",
          "type": "address"
        },
        {
          "internalType": "string",
          "name": "tokenURI",
          "type": "string"
        }
      ],
      "name": "awardItem",
      "outputs": [
        {
          "internalType": "uint256",
          "name": "",
          "type": "uint256"
        }
      ],
      "stateMutability": "nonpayable",
      "type": "function"
    },
    {
      "inputs": [
        {
          "internalType": "address",
          "name": "owner",
          "type": "address"
        }
      ],
      "name": "balanceOf",
      "outputs": [
        {
          "internalType": "uint256",
          "name": "",
          "type": "uint256"
        }
      ],
      "stateMutability": "view",
      "type": "function"
    },
    {
      "inputs": [
        {
          "internalType": "uint256",
          "name": "tokenId",
          "type": "uint256"
        }
      ],
      "name": "expirationTimeOfNFTId",
      "outputs": [
        {
          "internalType": "uint256",
          "name": "",
          "type": "uint256"
        }
      ],
      "stateMutability": "view",
      "type": "function"
    },
    {
      "inputs": [
        {
          "internalType": "uint256",
          "name": "tokenId",
          "type": "uint256"
        }
      ],
      "name": "getApproved",
      "outputs": [
        {
          "internalType": "address",
          "name": "",
          "type": "address"
        }
      ],
      "stateMutability": "view",
      "type": "function"
    },
    {
      "inputs": [
        {
          "internalType": "address",
          "name": "owner",
          "type": "address"
        },
        {
          "internalType": "address",
          "name": "operator",
          "type": "address"
        }
      ],
      "name": "isApprovedForAll",
      "outputs": [
        {
          "internalType": "bool",
          "name": "",
          "type": "bool"
        }
      ],
      "stateMutability": "view",
      "type": "function"
    },
    {
      "inputs": [],
      "name": "kycManager",
      "outputs": [
        {
          "internalType": "address",
          "name": "",
          "type": "address"
        }
      ],
      "stateMutability": "view",
      "type": "function"
    },
    {
      "inputs": [],
      "name": "last_completed_migration",
      "outputs": [
        {
          "internalType": "uint256",
          "name": "",
          "type": "uint256"
        }
      ],
      "stateMutability": "view",
      "type": "function"
    },
    {
      "inputs": [],
      "name": "name",
      "outputs": [
        {
          "internalType": "string",
          "name": "",
          "type": "string"
        }
      ],
      "stateMutability": "view",
      "type": "function"
    },
    {
      "inputs": [],
      "name": "owner",
      "outputs": [
        {
          "internalType": "address",
          "name": "",
          "type": "address"
        }
      ],
      "stateMutability": "view",
      "type": "function"
    },
    {
      "inputs": [
        {
          "internalType": "uint256",
          "name": "tokenId",
          "type": "uint256"
        }
      ],
      "name": "ownerOf",
      "outputs": [
        {
          "internalType": "address",
          "name": "",
          "type": "address"
        }
      ],
      "stateMutability": "view",
      "type": "function"
    },
    {
      "inputs": [],
      "name": "renounceOwnership",
      "outputs": [],
      "stateMutability": "nonpayable",
      "type": "function"
    },
    {
      "inputs": [
        {
          "internalType": "address",
          "name": "from",
          "type": "address"
        },
        {
          "internalType": "address",
          "name": "to",
          "type": "address"
        },
        {
          "internalType": "uint256",
          "name": "tokenId",
          "type": "uint256"
        }
      ],
      "name": "safeTransferFrom",
      "outputs": [],
      "stateMutability": "nonpayable",
      "type": "function"
    },
    {
      "inputs": [
        {
          "internalType": "address",
          "name": "from",
          "type": "address"
        },
        {
          "internalType": "address",
          "name": "to",
          "type": "address"
        },
        {
          "internalType": "uint256",
          "name": "tokenId",
          "type": "uint256"
        },
        {
          "internalType": "bytes",
          "name": "_data",
          "type": "bytes"
        }
      ],
      "name": "safeTransferFrom",
      "outputs": [],
      "stateMutability": "nonpayable",
      "type": "function"
    },
    {
      "inputs": [
        {
          "internalType": "address",
          "name": "operator",
          "type": "address"
        },
        {
          "internalType": "bool",
          "name": "approved",
          "type": "bool"
        }
      ],
      "name": "setApprovalForAll",
      "outputs": [],
      "stateMutability": "nonpayable",
      "type": "function"
    },
    {
      "inputs": [
        {
          "internalType": "address",
          "name": "_kycManagerAddr",
          "type": "address"
        }
      ],
      "name": "setKYManagerContractAddress",
      "outputs": [],
      "stateMutability": "nonpayable",
      "type": "function"
    },
    {
      "inputs": [
        {
          "internalType": "bytes4",
          "name": "interfaceId",
          "type": "bytes4"
        }
      ],
      "name": "supportsInterface",
      "outputs": [
        {
          "internalType": "bool",
          "name": "",
          "type": "bool"
        }
      ],
      "stateMutability": "view",
      "type": "function"
    },
    {
      "inputs": [],
      "name": "symbol",
      "outputs": [
        {
          "internalType": "string",
          "name": "",
          "type": "string"
        }
      ],
      "stateMutability": "view",
      "type": "function"
    },
    {
      "inputs": [
        {
          "internalType": "uint256",
          "name": "tokenId",
          "type": "uint256"
        }
      ],
      "name": "tokenURI",
      "outputs": [
        {
          "internalType": "string",
          "name": "",
          "type": "string"
        }
      ],
      "stateMutability": "view",
      "type": "function"
    },
    {
      "inputs": [
        {
          "internalType": "address",
          "name": "from",
          "type": "address"
        },
        {
          "internalType": "address",
          "name": "to",
          "type": "address"
        },
        {
          "internalType": "uint256",
          "name": "tokenId",
          "type": "uint256"
        }
      ],
      "name": "transferFrom",
      "outputs": [],
      "stateMutability": "nonpayable",
      "type": "function"
    },
    {
      "inputs": [
        {
          "internalType": "address",
          "name": "newOwner",
          "type": "address"
        }
      ],
      "name": "transferOwnership",
      "outputs": [],
      "stateMutability": "nonpayable",
      "type": "function"
    },
    {
      "inputs": [
        {
          "internalType": "uint256",
          "name": "tokenId",
          "type": "uint256"
        },
        {
          "internalType": "uint256",
          "name": "timestamp",
          "type": "uint256"
        }
      ],
      "name": "updateExpirationTime",
      "outputs": [],
      "stateMutability": "nonpayable",
      "type": "function"
    }
  ],
  "bytecode": "0x60806040523480156200001157600080fd5b506040518060400160405280600681526020017f4b59434e465400000000000000000000000000000000000000000000000000008152506040518060400160405280600681526020017f4b59434e46540000000000000000000000000000000000000000000000000000815250816000908051906020019062000096929190620001a6565b508060019080519060200190620000af929190620001a6565b505050620000d2620000c6620000d860201b60201c565b620000e060201b60201c565b620002bb565b600033905090565b6000600760009054906101000a900473ffffffffffffffffffffffffffffffffffffffff16905081600760006101000a81548173ffffffffffffffffffffffffffffffffffffffff021916908373ffffffffffffffffffffffffffffffffffffffff1602179055508173ffffffffffffffffffffffffffffffffffffffff168173ffffffffffffffffffffffffffffffffffffffff167f8be0079c531659141344cd1fd0a4f28419497f9722a3daafe3b4186f6b6457e060405160405180910390a35050565b828054620001b49062000256565b90600052602060002090601f016020900481019282620001d8576000855562000224565b82601f10620001f357805160ff191683800117855562000224565b8280016001018555821562000224579182015b828111156200022357825182559160200191906001019062000206565b5b50905062000233919062000237565b5090565b5b808211156200025257600081600090555060010162000238565b5090565b600060028204905060018216806200026f57607f821691505b602082108114156200028657620002856200028c565b5b50919050565b7f4e487b7100000000000000000000000000000000000000000000000000000000600052602260045260246000fd5b61329880620002cb6000396000f3fe608060405234801561001057600080fd5b506004361061014d5760003560e01c8063715018a6116100c3578063b88d4fde1161007c578063b88d4fde1461039e578063c87b56dd146103ba578063cf378343146103ea578063e1b2e9791461041a578063e985e9c514610436578063f2fde38b146104665761014d565b8063715018a6146102ee5780637afea44f146102f85780638da5cb5b1461031657806395d89b4114610334578063a22cb46514610352578063b76902481461036e5761014d565b806342842e0e1161011557806342842e0e14610208578063445df0ac146102245780634843f148146102425780636352211e146102725780636cd3b261146102a257806370a08231146102be5761014d565b806301ffc9a71461015257806306fdde0314610182578063081812fc146101a0578063095ea7b3146101d057806323b872dd146101ec575b600080fd5b61016c6004803603810190610167919061220b565b610482565b6040516101799190612693565b60405180910390f35b61018a610564565b60405161019791906126ae565b60405180910390f35b6101ba60048036038101906101b5919061225d565b6105f6565b6040516101c7919061262c565b60405180910390f35b6101ea60048036038101906101e591906121cf565b61067b565b005b61020660048036038101906102019190612075565b610793565b005b610222600480360381019061021d9190612075565b6107f3565b005b61022c610813565b6040516102399190612910565b60405180910390f35b61025c6004803603810190610257919061225d565b610819565b6040516102699190612910565b60405180910390f35b61028c6004803603810190610287919061225d565b610836565b604051610299919061262c565b60405180910390f35b6102bc60048036038101906102b79190612010565b6108e8565b005b6102d860048036038101906102d39190612010565b6109a8565b6040516102e59190612910565b60405180910390f35b6102f6610a60565b005b610300610ae8565b60405161030d919061262c565b60405180910390f35b61031e610b0e565b60405161032b919061262c565b60405180910390f35b61033c610b38565b60405161034991906126ae565b60405180910390f35b61036c6004803603810190610367919061213f565b610bca565b005b6103886004803603810190610383919061225d565b610d4b565b6040516103959190612910565b60405180910390f35b6103b860048036038101906103b391906120c4565b610d63565b005b6103d460048036038101906103cf919061225d565b610dc5565b6040516103e191906126ae565b60405180910390f35b61040460048036038101906103ff919061217b565b610f17565b6040516104119190612910565b60405180910390f35b610434600480360381019061042f9190612286565b610fa9565b005b610450600480360381019061044b9190612039565b611035565b60405161045d9190612693565b60405180910390f35b610480600480360381019061047b9190612010565b6110c9565b005b60007f80ac58cd000000000000000000000000000000000000000000000000000000007bffffffffffffffffffffffffffffffffffffffffffffffffffffffff1916827bffffffffffffffffffffffffffffffffffffffffffffffffffffffff1916148061054d57507f5b5e139f000000000000000000000000000000000000000000000000000000007bffffffffffffffffffffffffffffffffffffffffffffffffffffffff1916827bffffffffffffffffffffffffffffffffffffffffffffffffffffffff1916145b8061055d575061055c826111c1565b5b9050919050565b60606000805461057390612b66565b80601f016020809104026020016040519081016040528092919081815260200182805461059f90612b66565b80156105ec5780601f106105c1576101008083540402835291602001916105ec565b820191906000526020600020905b8154815290600101906020018083116105cf57829003601f168201915b5050505050905090565b60006106018261122b565b610640576040517f08c379a000000000000000000000000000000000000000000000000000000000815260040161063790612850565b60405180910390fd5b6004600083815260200190815260200160002060009054906101000a900473ffffffffffffffffffffffffffffffffffffffff169050919050565b600061068682610836565b90508073ffffffffffffffffffffffffffffffffffffffff168373ffffffffffffffffffffffffffffffffffffffff1614156106f7576040517f08c379a00000000000000000000000000000000000000000000000000000000081526004016106ee906128d0565b60405180910390fd5b8073ffffffffffffffffffffffffffffffffffffffff16610716611297565b73ffffffffffffffffffffffffffffffffffffffff16148061074557506107448161073f611297565b611035565b5b610784576040517f08c379a000000000000000000000000000000000000000000000000000000000815260040161077b90612790565b60405180910390fd5b61078e838361129f565b505050565b6107a461079e611297565b82611358565b6107e3576040517f08c379a00000000000000000000000000000000000000000000000000000000081526004016107da906128f0565b60405180910390fd5b6107ee838383611436565b505050565b61080e83838360405180602001604052806000815250610d63565b505050565b60095481565b6000600a6000838152602001908152602001600020549050919050565b6000806002600084815260200190815260200160002060009054906101000a900473ffffffffffffffffffffffffffffffffffffffff169050600073ffffffffffffffffffffffffffffffffffffffff168173ffffffffffffffffffffffffffffffffffffffff1614156108df576040517f08c379a00000000000000000000000000000000000000000000000000000000081526004016108d6906127d0565b60405180910390fd5b80915050919050565b6108f0611297565b73ffffffffffffffffffffffffffffffffffffffff1661090e610b0e565b73ffffffffffffffffffffffffffffffffffffffff1614610964576040517f08c379a000000000000000000000000000000000000000000000000000000000815260040161095b90612870565b60405180910390fd5b80600860006101000a81548173ffffffffffffffffffffffffffffffffffffffff021916908373ffffffffffffffffffffffffffffffffffffffff16021790555050565b60008073ffffffffffffffffffffffffffffffffffffffff168273ffffffffffffffffffffffffffffffffffffffff161415610a19576040517f08c379a0000000000000000000000000000000000000000000000000000000008152600401610a10906127b0565b60405180910390fd5b600360008373ffffffffffffffffffffffffffffffffffffffff1673ffffffffffffffffffffffffffffffffffffffff168152602001908152602001600020549050919050565b610a68611297565b73ffffffffffffffffffffffffffffffffffffffff16610a86610b0e565b73ffffffffffffffffffffffffffffffffffffffff1614610adc576040517f08c379a0000000000000000000000000000000000000000000000000000000008152600401610ad390612870565b60405180910390fd5b610ae66000611692565b565b600860009054906101000a900473ffffffffffffffffffffffffffffffffffffffff1681565b6000600760009054906101000a900473ffffffffffffffffffffffffffffffffffffffff16905090565b606060018054610b4790612b66565b80601f0160208091040260200160405190810160405280929190818152602001828054610b7390612b66565b8015610bc05780601f10610b9557610100808354040283529160200191610bc0565b820191906000526020600020905b815481529060010190602001808311610ba357829003601f168201915b5050505050905090565b610bd2611297565b73ffffffffffffffffffffffffffffffffffffffff168273ffffffffffffffffffffffffffffffffffffffff161415610c40576040517f08c379a0000000000000000000000000000000000000000000000000000000008152600401610c3790612750565b60405180910390fd5b8060056000610c4d611297565b73ffffffffffffffffffffffffffffffffffffffff1673ffffffffffffffffffffffffffffffffffffffff16815260200190815260200160002060008473ffffffffffffffffffffffffffffffffffffffff1673ffffffffffffffffffffffffffffffffffffffff16815260200190815260200160002060006101000a81548160ff0219169083151502179055508173ffffffffffffffffffffffffffffffffffffffff16610cfa611297565b73ffffffffffffffffffffffffffffffffffffffff167f17307eab39ab6107e8899845ad3d59bd9653f200f220920489ca2b5937696c3183604051610d3f9190612693565b60405180910390a35050565b600a6020528060005260406000206000915090505481565b610d74610d6e611297565b83611358565b610db3576040517f08c379a0000000000000000000000000000000000000000000000000000000008152600401610daa906128f0565b60405180910390fd5b610dbf84848484611758565b50505050565b6060610dd08261122b565b610e0f576040517f08c379a0000000000000000000000000000000000000000000000000000000008152600401610e0690612830565b60405180910390fd5b6000600660008481526020019081526020016000208054610e2f90612b66565b80601f0160208091040260200160405190810160405280929190818152602001828054610e5b90612b66565b8015610ea85780601f10610e7d57610100808354040283529160200191610ea8565b820191906000526020600020905b815481529060010190602001808311610e8b57829003601f168201915b505050505090506000610eb96117b4565b9050600081511415610ecf578192505050610f12565b600082511115610f04578082604051602001610eec929190612608565b60405160208183030381529060405292505050610f12565b610f0d846117cb565b925050505b919050565b6000600860009054906101000a900473ffffffffffffffffffffffffffffffffffffffff1673ffffffffffffffffffffffffffffffffffffffff163373ffffffffffffffffffffffffffffffffffffffff1614610f7357600080fd5b610f7d600b611872565b6000610f89600b611888565b9050610f958482611896565b610f9f8184611a64565b8091505092915050565b600860009054906101000a900473ffffffffffffffffffffffffffffffffffffffff1673ffffffffffffffffffffffffffffffffffffffff163373ffffffffffffffffffffffffffffffffffffffff161461100357600080fd5b61100d600b611888565b82111561101957600080fd5b80600a6000848152602001908152602001600020819055505050565b6000600560008473ffffffffffffffffffffffffffffffffffffffff1673ffffffffffffffffffffffffffffffffffffffff16815260200190815260200160002060008373ffffffffffffffffffffffffffffffffffffffff1673ffffffffffffffffffffffffffffffffffffffff16815260200190815260200160002060009054906101000a900460ff16905092915050565b6110d1611297565b73ffffffffffffffffffffffffffffffffffffffff166110ef610b0e565b73ffffffffffffffffffffffffffffffffffffffff1614611145576040517f08c379a000000000000000000000000000000000000000000000000000000000815260040161113c90612870565b60405180910390fd5b600073ffffffffffffffffffffffffffffffffffffffff168173ffffffffffffffffffffffffffffffffffffffff1614156111b5576040517f08c379a00000000000000000000000000000000000000000000000000000000081526004016111ac906126f0565b60405180910390fd5b6111be81611692565b50565b60007f01ffc9a7000000000000000000000000000000000000000000000000000000007bffffffffffffffffffffffffffffffffffffffffffffffffffffffff1916827bffffffffffffffffffffffffffffffffffffffffffffffffffffffff1916149050919050565b60008073ffffffffffffffffffffffffffffffffffffffff166002600084815260200190815260200160002060009054906101000a900473ffffffffffffffffffffffffffffffffffffffff1673ffffffffffffffffffffffffffffffffffffffff1614159050919050565b600033905090565b816004600083815260200190815260200160002060006101000a81548173ffffffffffffffffffffffffffffffffffffffff021916908373ffffffffffffffffffffffffffffffffffffffff160217905550808273ffffffffffffffffffffffffffffffffffffffff1661131283610836565b73ffffffffffffffffffffffffffffffffffffffff167f8c5be1e5ebec7d5bd14f71427d1e84f3dd0314c0f7b2291e5b200ac8c7c3b92560405160405180910390a45050565b60006113638261122b565b6113a2576040517f08c379a000000000000000000000000000000000000000000000000000000000815260040161139990612770565b60405180910390fd5b60006113ad83610836565b90508073ffffffffffffffffffffffffffffffffffffffff168473ffffffffffffffffffffffffffffffffffffffff16148061141c57508373ffffffffffffffffffffffffffffffffffffffff16611404846105f6565b73ffffffffffffffffffffffffffffffffffffffff16145b8061142d575061142c8185611035565b5b91505092915050565b8273ffffffffffffffffffffffffffffffffffffffff1661145682610836565b73ffffffffffffffffffffffffffffffffffffffff16146114ac576040517f08c379a00000000000000000000000000000000000000000000000000000000081526004016114a390612890565b60405180910390fd5b600073ffffffffffffffffffffffffffffffffffffffff168273ffffffffffffffffffffffffffffffffffffffff16141561151c576040517f08c379a000000000000000000000000000000000000000000000000000000000815260040161151390612730565b60405180910390fd5b611527838383611ad8565b61153260008261129f565b6001600360008573ffffffffffffffffffffffffffffffffffffffff1673ffffffffffffffffffffffffffffffffffffffff16815260200190815260200160002060008282546115829190612a7c565b925050819055506001600360008473ffffffffffffffffffffffffffffffffffffffff1673ffffffffffffffffffffffffffffffffffffffff16815260200190815260200160002060008282546115d991906129f5565b92505081905550816002600083815260200190815260200160002060006101000a81548173ffffffffffffffffffffffffffffffffffffffff021916908373ffffffffffffffffffffffffffffffffffffffff160217905550808273ffffffffffffffffffffffffffffffffffffffff168473ffffffffffffffffffffffffffffffffffffffff167fddf252ad1be2c89b69c2b068fc378daa952ba7f163c4a11628f55a4df523b3ef60405160405180910390a4505050565b6000600760009054906101000a900473ffffffffffffffffffffffffffffffffffffffff16905081600760006101000a81548173ffffffffffffffffffffffffffffffffffffffff021916908373ffffffffffffffffffffffffffffffffffffffff1602179055508173ffffffffffffffffffffffffffffffffffffffff168173ffffffffffffffffffffffffffffffffffffffff167f8be0079c531659141344cd1fd0a4f28419497f9722a3daafe3b4186f6b6457e060405160405180910390a35050565b611763848484611436565b61176f84848484611add565b6117ae576040517f08c379a00000000000000000000000000000000000000000000000000000000081526004016117a5906126d0565b60405180910390fd5b50505050565b606060405180602001604052806000815250905090565b60606117d68261122b565b611815576040517f08c379a000000000000000000000000000000000000000000000000000000000815260040161180c906128b0565b60405180910390fd5b600061181f6117b4565b9050600081511161183f576040518060200160405280600081525061186a565b8061184984611c74565b60405160200161185a929190612608565b6040516020818303038152906040525b915050919050565b6001816000016000828254019250508190555050565b600081600001549050919050565b600073ffffffffffffffffffffffffffffffffffffffff168273ffffffffffffffffffffffffffffffffffffffff161415611906576040517f08c379a00000000000000000000000000000000000000000000000000000000081526004016118fd90612810565b60405180910390fd5b61190f8161122b565b1561194f576040517f08c379a000000000000000000000000000000000000000000000000000000000815260040161194690612710565b60405180910390fd5b61195b60008383611ad8565b6001600360008473ffffffffffffffffffffffffffffffffffffffff1673ffffffffffffffffffffffffffffffffffffffff16815260200190815260200160002060008282546119ab91906129f5565b92505081905550816002600083815260200190815260200160002060006101000a81548173ffffffffffffffffffffffffffffffffffffffff021916908373ffffffffffffffffffffffffffffffffffffffff160217905550808273ffffffffffffffffffffffffffffffffffffffff16600073ffffffffffffffffffffffffffffffffffffffff167fddf252ad1be2c89b69c2b068fc378daa952ba7f163c4a11628f55a4df523b3ef60405160405180910390a45050565b611a6d8261122b565b611aac576040517f08c379a0000000000000000000000000000000000000000000000000000000008152600401611aa3906127f0565b60405180910390fd5b80600660008481526020019081526020016000209080519060200190611ad3929190611e34565b505050565b505050565b6000611afe8473ffffffffffffffffffffffffffffffffffffffff16611e21565b15611c67578373ffffffffffffffffffffffffffffffffffffffff1663150b7a02611b27611297565b8786866040518563ffffffff1660e01b8152600401611b499493929190612647565b602060405180830381600087803b158015611b6357600080fd5b505af1925050508015611b9457506040513d601f19601f82011682018060405250810190611b919190612234565b60015b611c17573d8060008114611bc4576040519150601f19603f3d011682016040523d82523d6000602084013e611bc9565b606091505b50600081511415611c0f576040517f08c379a0000000000000000000000000000000000000000000000000000000008152600401611c06906126d0565b60405180910390fd5b805181602001fd5b63150b7a0260e01b7bffffffffffffffffffffffffffffffffffffffffffffffffffffffff1916817bffffffffffffffffffffffffffffffffffffffffffffffffffffffff191614915050611c6c565b600190505b949350505050565b60606000821415611cbc576040518060400160405280600181526020017f30000000000000000000000000000000000000000000000000000000000000008152509050611e1c565b600082905060005b60008214611cee578080611cd790612bc9565b915050600a82611ce79190612a4b565b9150611cc4565b60008167ffffffffffffffff811115611d30577f4e487b7100000000000000000000000000000000000000000000000000000000600052604160045260246000fd5b6040519080825280601f01601f191660200182016040528015611d625781602001600182028036833780820191505090505b5090505b60008514611e1557600182611d7b9190612a7c565b9150600a85611d8a9190612c12565b6030611d9691906129f5565b60f81b818381518110611dd2577f4e487b7100000000000000000000000000000000000000000000000000000000600052603260045260246000fd5b60200101907effffffffffffffffffffffffffffffffffffffffffffffffffffffffffffff1916908160001a905350600a85611e0e9190612a4b565b9450611d66565b8093505050505b919050565b600080823b905060008111915050919050565b828054611e4090612b66565b90600052602060002090601f016020900481019282611e625760008555611ea9565b82601f10611e7b57805160ff1916838001178555611ea9565b82800160010185558215611ea9579182015b82811115611ea8578251825591602001919060010190611e8d565b5b509050611eb69190611eba565b5090565b5b80821115611ed3576000816000905550600101611ebb565b5090565b6000611eea611ee584612950565b61292b565b905082815260208101848484011115611f0257600080fd5b611f0d848285612b24565b509392505050565b6000611f28611f2384612981565b61292b565b905082815260208101848484011115611f4057600080fd5b611f4b848285612b24565b509392505050565b600081359050611f6281613206565b92915050565b600081359050611f778161321d565b92915050565b600081359050611f8c81613234565b92915050565b600081519050611fa181613234565b92915050565b600082601f830112611fb857600080fd5b8135611fc8848260208601611ed7565b91505092915050565b600082601f830112611fe257600080fd5b8135611ff2848260208601611f15565b91505092915050565b60008135905061200a8161324b565b92915050565b60006020828403121561202257600080fd5b600061203084828501611f53565b91505092915050565b6000806040838503121561204c57600080fd5b600061205a85828601611f53565b925050602061206b85828601611f53565b9150509250929050565b60008060006060848603121561208a57600080fd5b600061209886828701611f53565b93505060206120a986828701611f53565b92505060406120ba86828701611ffb565b9150509250925092565b600080600080608085870312156120da57600080fd5b60006120e887828801611f53565b94505060206120f987828801611f53565b935050604061210a87828801611ffb565b925050606085013567ffffffffffffffff81111561212757600080fd5b61213387828801611fa7565b91505092959194509250565b6000806040838503121561215257600080fd5b600061216085828601611f53565b925050602061217185828601611f68565b9150509250929050565b6000806040838503121561218e57600080fd5b600061219c85828601611f53565b925050602083013567ffffffffffffffff8111156121b957600080fd5b6121c585828601611fd1565b9150509250929050565b600080604083850312156121e257600080fd5b60006121f085828601611f53565b925050602061220185828601611ffb565b9150509250929050565b60006020828403121561221d57600080fd5b600061222b84828501611f7d565b91505092915050565b60006020828403121561224657600080fd5b600061225484828501611f92565b91505092915050565b60006020828403121561226f57600080fd5b600061227d84828501611ffb565b91505092915050565b6000806040838503121561229957600080fd5b60006122a785828601611ffb565b92505060206122b885828601611ffb565b9150509250929050565b6122cb81612ab0565b82525050565b6122da81612ac2565b82525050565b60006122eb826129b2565b6122f581856129c8565b9350612305818560208601612b33565b61230e81612cff565b840191505092915050565b6000612324826129bd565b61232e81856129d9565b935061233e818560208601612b33565b61234781612cff565b840191505092915050565b600061235d826129bd565b61236781856129ea565b9350612377818560208601612b33565b80840191505092915050565b60006123906032836129d9565b915061239b82612d10565b604082019050919050565b60006123b36026836129d9565b91506123be82612d5f565b604082019050919050565b60006123d6601c836129d9565b91506123e182612dae565b602082019050919050565b60006123f96024836129d9565b915061240482612dd7565b604082019050919050565b600061241c6019836129d9565b915061242782612e26565b602082019050919050565b600061243f602c836129d9565b915061244a82612e4f565b604082019050919050565b60006124626038836129d9565b915061246d82612e9e565b604082019050919050565b6000612485602a836129d9565b915061249082612eed565b604082019050919050565b60006124a86029836129d9565b91506124b382612f3c565b604082019050919050565b60006124cb602e836129d9565b91506124d682612f8b565b604082019050919050565b60006124ee6020836129d9565b91506124f982612fda565b602082019050919050565b60006125116031836129d9565b915061251c82613003565b604082019050919050565b6000612534602c836129d9565b915061253f82613052565b604082019050919050565b60006125576020836129d9565b9150612562826130a1565b602082019050919050565b600061257a6029836129d9565b9150612585826130ca565b604082019050919050565b600061259d602f836129d9565b91506125a882613119565b604082019050919050565b60006125c06021836129d9565b91506125cb82613168565b604082019050919050565b60006125e36031836129d9565b91506125ee826131b7565b604082019050919050565b61260281612b1a565b82525050565b60006126148285612352565b91506126208284612352565b91508190509392505050565b600060208201905061264160008301846122c2565b92915050565b600060808201905061265c60008301876122c2565b61266960208301866122c2565b61267660408301856125f9565b818103606083015261268881846122e0565b905095945050505050565b60006020820190506126a860008301846122d1565b92915050565b600060208201905081810360008301526126c88184612319565b905092915050565b600060208201905081810360008301526126e981612383565b9050919050565b60006020820190508181036000830152612709816123a6565b9050919050565b60006020820190508181036000830152612729816123c9565b9050919050565b60006020820190508181036000830152612749816123ec565b9050919050565b600060208201905081810360008301526127698161240f565b9050919050565b6000602082019050818103600083015261278981612432565b9050919050565b600060208201905081810360008301526127a981612455565b9050919050565b600060208201905081810360008301526127c981612478565b9050919050565b600060208201905081810360008301526127e98161249b565b9050919050565b60006020820190508181036000830152612809816124be565b9050919050565b60006020820190508181036000830152612829816124e1565b9050919050565b6000602082019050818103600083015261284981612504565b9050919050565b6000602082019050818103600083015261286981612527565b9050919050565b600060208201905081810360008301526128898161254a565b9050919050565b600060208201905081810360008301526128a98161256d565b9050919050565b600060208201905081810360008301526128c981612590565b9050919050565b600060208201905081810360008301526128e9816125b3565b9050919050565b60006020820190508181036000830152612909816125d6565b9050919050565b600060208201905061292560008301846125f9565b92915050565b6000612935612946565b90506129418282612b98565b919050565b6000604051905090565b600067ffffffffffffffff82111561296b5761296a612cd0565b5b61297482612cff565b9050602081019050919050565b600067ffffffffffffffff82111561299c5761299b612cd0565b5b6129a582612cff565b9050602081019050919050565b600081519050919050565b600081519050919050565b600082825260208201905092915050565b600082825260208201905092915050565b600081905092915050565b6000612a0082612b1a565b9150612a0b83612b1a565b9250827fffffffffffffffffffffffffffffffffffffffffffffffffffffffffffffffff03821115612a4057612a3f612c43565b5b828201905092915050565b6000612a5682612b1a565b9150612a6183612b1a565b925082612a7157612a70612c72565b5b828204905092915050565b6000612a8782612b1a565b9150612a9283612b1a565b925082821015612aa557612aa4612c43565b5b828203905092915050565b6000612abb82612afa565b9050919050565b60008115159050919050565b60007fffffffff0000000000000000000000000000000000000000000000000000000082169050919050565b600073ffffffffffffffffffffffffffffffffffffffff82169050919050565b6000819050919050565b82818337600083830152505050565b60005b83811015612b51578082015181840152602081019050612b36565b83811115612b60576000848401525b50505050565b60006002820490506001821680612b7e57607f821691505b60208210811415612b9257612b91612ca1565b5b50919050565b612ba182612cff565b810181811067ffffffffffffffff82111715612bc057612bbf612cd0565b5b80604052505050565b6000612bd482612b1a565b91507fffffffffffffffffffffffffffffffffffffffffffffffffffffffffffffffff821415612c0757612c06612c43565b5b600182019050919050565b6000612c1d82612b1a565b9150612c2883612b1a565b925082612c3857612c37612c72565b5b828206905092915050565b7f4e487b7100000000000000000000000000000000000000000000000000000000600052601160045260246000fd5b7f4e487b7100000000000000000000000000000000000000000000000000000000600052601260045260246000fd5b7f4e487b7100000000000000000000000000000000000000000000000000000000600052602260045260246000fd5b7f4e487b7100000000000000000000000000000000000000000000000000000000600052604160045260246000fd5b6000601f19601f8301169050919050565b7f4552433732313a207472616e7366657220746f206e6f6e20455243373231526560008201527f63656976657220696d706c656d656e7465720000000000000000000000000000602082015250565b7f4f776e61626c653a206e6577206f776e657220697320746865207a65726f206160008201527f6464726573730000000000000000000000000000000000000000000000000000602082015250565b7f4552433732313a20746f6b656e20616c7265616479206d696e74656400000000600082015250565b7f4552433732313a207472616e7366657220746f20746865207a65726f2061646460008201527f7265737300000000000000000000000000000000000000000000000000000000602082015250565b7f4552433732313a20617070726f766520746f2063616c6c657200000000000000600082015250565b7f4552433732313a206f70657261746f7220717565727920666f72206e6f6e657860008201527f697374656e7420746f6b656e0000000000000000000000000000000000000000602082015250565b7f4552433732313a20617070726f76652063616c6c6572206973206e6f74206f7760008201527f6e6572206e6f7220617070726f76656420666f7220616c6c0000000000000000602082015250565b7f4552433732313a2062616c616e636520717565727920666f7220746865207a6560008201527f726f206164647265737300000000000000000000000000000000000000000000602082015250565b7f4552433732313a206f776e657220717565727920666f72206e6f6e657869737460008201527f656e7420746f6b656e0000000000000000000000000000000000000000000000602082015250565b7f45524337323155524953746f726167653a2055524920736574206f66206e6f6e60008201527f6578697374656e7420746f6b656e000000000000000000000000000000000000602082015250565b7f4552433732313a206d696e7420746f20746865207a65726f2061646472657373600082015250565b7f45524337323155524953746f726167653a2055524920717565727920666f722060008201527f6e6f6e6578697374656e7420746f6b656e000000000000000000000000000000602082015250565b7f4552433732313a20617070726f76656420717565727920666f72206e6f6e657860008201527f697374656e7420746f6b656e0000000000000000000000000000000000000000602082015250565b7f4f776e61626c653a2063616c6c6572206973206e6f7420746865206f776e6572600082015250565b7f4552433732313a207472616e73666572206f6620746f6b656e2074686174206960008201527f73206e6f74206f776e0000000000000000000000000000000000000000000000602082015250565b7f4552433732314d657461646174613a2055524920717565727920666f72206e6f60008201527f6e6578697374656e7420746f6b656e0000000000000000000000000000000000602082015250565b7f4552433732313a20617070726f76616c20746f2063757272656e74206f776e6560008201527f7200000000000000000000000000000000000000000000000000000000000000602082015250565b7f4552433732313a207472616e736665722063616c6c6572206973206e6f74206f60008201527f776e6572206e6f7220617070726f766564000000000000000000000000000000602082015250565b61320f81612ab0565b811461321a57600080fd5b50565b61322681612ac2565b811461323157600080fd5b50565b61323d81612ace565b811461324857600080fd5b50565b61325481612b1a565b811461325f57600080fd5b5056fea264697066735822122050bb6f4fac13bc4264b8368f267351924b50fb8fc99ed1832f467fc03662a33464736f6c63430008030033",
  "linkReferences": {},
  "deployedLinkReferences": {}
}