{
  "_format": "hh-sol-artifact-1",
  "contractName": "KYCManagerV1",
  "sourceName": "contracts/KYCManager.sol",
  "abi": [
    {
      "anonymous": false,
      "inputs": [
        {
          "indexed": true,
          "internalType": "address",
          "name": "previousOwner",
          "type": "address"
        },
        {
          "indexed": true,
          "internalType": "address",
          "name": "newOwner",
          "type": "address"
        }
      ],
      "name": "OwnershipTransferred",
      "type": "event"
    },
    {
      "stateMutability": "payable",
      "type": "fallback"
    },
    {
      "inputs": [
        {
          "internalType": "address",
          "name": "managerAddr",
          "type": "address"
        }
      ],
      "name": "NFTIdOfManager",
      "outputs": [
        {
          "internalType": "uint256",
          "name": "",
          "type": "uint256"
        }
      ],
      "stateMutability": "view",
      "type": "function"
    },
    {
      "inputs": [
        {
          "internalType": "uint256",
          "name": "NFTid",
          "type": "uint256"
        }
      ],
      "name": "availableOfNFTId",
      "outputs": [
        {
          "internalType": "bool",
          "name": "",
          "type": "bool"
        }
      ],
      "stateMutability": "view",
      "type": "function"
    },
    {
      "inputs": [
        {
          "internalType": "string",
          "name": "tokenUrl",
          "type": "string"
        },
        {
          "internalType": "address",
          "name": "manager",
          "type": "address"
        },
        {
          "internalType": "uint256",
          "name": "expirationTime",
          "type": "uint256"
        }
      ],
      "name": "createKYCNFT",
      "outputs": [],
      "stateMutability": "nonpayable",
      "type": "function"
    },
    {
      "inputs": [
        {
          "internalType": "uint256",
          "name": "NFTid",
          "type": "uint256"
        },
        {
          "internalType": "address",
          "name": "manager",
          "type": "address"
        }
      ],
      "name": "initManagerAddr",
      "outputs": [],
      "stateMutability": "nonpayable",
      "type": "function"
    },
    {
      "inputs": [
        {
          "internalType": "uint256",
          "name": "NFTid",
          "type": "uint256"
        }
      ],
      "name": "managerOfNFTId",
      "outputs": [
        {
          "internalType": "address",
          "name": "",
          "type": "address"
        }
      ],
      "stateMutability": "view",
      "type": "function"
    },
    {
      "inputs": [
        {
          "internalType": "address",
          "name": "newManager",
          "type": "address"
        }
      ],
      "name": "modifyManagerAddr",
      "outputs": [],
      "stateMutability": "nonpayable",
      "type": "function"
    },
    {
      "inputs": [],
      "name": "owner",
      "outputs": [
        {
          "internalType": "address",
          "name": "",
          "type": "address"
        }
      ],
      "stateMutability": "view",
      "type": "function"
    },
    {
      "inputs": [],
      "name": "renounceOwnership",
      "outputs": [],
      "stateMutability": "nonpayable",
      "type": "function"
    },
    {
      "inputs": [
        {
          "internalType": "address",
          "name": "_kycnftContractAddr",
          "type": "address"
        }
      ],
      "name": "setKYCNFTContractAddress",
      "outputs": [],
      "stateMutability": "nonpayable",
      "type": "function"
    },
    {
      "inputs": [
        {
          "internalType": "uint256",
          "name": "NFTid",
          "type": "uint256"
        },
        {
          "internalType": "bool",
          "name": "_available",
          "type": "bool"
        }
      ],
      "name": "setNFTAvailableOfNFTId",
      "outputs": [],
      "stateMutability": "nonpayable",
      "type": "function"
    },
    {
      "inputs": [
        {
          "internalType": "address",
          "name": "newOwner",
          "type": "address"
        }
      ],
      "name": "transferOwnership",
      "outputs": [],
      "stateMutability": "nonpayable",
      "type": "function"
    },
    {
      "inputs": [
        {
          "internalType": "bytes",
          "name": "_accumulator",
          "type": "bytes"
        },
        {
          "internalType": "bytes",
          "name": "_n",
          "type": "bytes"
        },
        {
          "internalType": "uint256",
          "name": "_g",
          "type": "uint256"
        }
      ],
      "name": "updateAccumulator",
      "outputs": [],
      "stateMutability": "nonpayable",
      "type": "function"
    },
    {
      "inputs": [
        {
          "internalType": "bytes",
          "name": "_n",
          "type": "bytes"
        },
        {
          "internalType": "uint256",
          "name": "_g",
          "type": "uint256"
        }
      ],
      "name": "updateAccumulatorPublicKey",
      "outputs": [],
      "stateMutability": "nonpayable",
      "type": "function"
    },
    {
      "inputs": [
        {
          "internalType": "bytes",
          "name": "_accumulator",
          "type": "bytes"
        }
      ],
      "name": "updateAccumulatorValue",
      "outputs": [],
      "stateMutability": "nonpayable",
      "type": "function"
    },
    {
      "inputs": [
        {
          "internalType": "address",
          "name": "managerAddr",
          "type": "address"
        }
      ],
      "name": "userDataOfManager",
      "outputs": [
        {
          "components": [
            {
              "internalType": "uint256",
              "name": "NFTid",
              "type": "uint256"
            },
            {
              "internalType": "bytes",
              "name": "accumulator",
              "type": "bytes"
            },
            {
              "internalType": "bytes",
              "name": "n",
              "type": "bytes"
            },
            {
              "internalType": "uint256",
              "name": "g",
              "type": "uint256"
            }
          ],
          "internalType": "struct KYCManagerV1.UserData",
          "name": "",
          "type": "tuple"
        }
      ],
      "stateMutability": "view",
      "type": "function"
    },
    {
      "inputs": [
        {
          "internalType": "uint256",
          "name": "NFTid",
          "type": "uint256"
        }
      ],
      "name": "userDataOfNFTId",
      "outputs": [
        {
          "components": [
            {
              "internalType": "uint256",
              "name": "NFTid",
              "type": "uint256"
            },
            {
              "internalType": "bytes",
              "name": "accumulator",
              "type": "bytes"
            },
            {
              "internalType": "bytes",
              "name": "n",
              "type": "bytes"
            },
            {
              "internalType": "uint256",
              "name": "g",
              "type": "uint256"
            }
          ],
          "internalType": "struct KYCManagerV1.UserData",
          "name": "",
          "type": "tuple"
        }
      ],
      "stateMutability": "view",
      "type": "function"
    },
    {
      "stateMutability": "payable",
      "type": "receive"
    }
  ],
  "bytecode": "0x608060405234801561001057600080fd5b5061002d61002261003260201b60201c565b61003a60201b60201c565b6100fe565b600033905090565b60008060009054906101000a900473ffffffffffffffffffffffffffffffffffffffff169050816000806101000a81548173ffffffffffffffffffffffffffffffffffffffff021916908373ffffffffffffffffffffffffffffffffffffffff1602179055508173ffffffffffffffffffffffffffffffffffffffff168173ffffffffffffffffffffffffffffffffffffffff167f8be0079c531659141344cd1fd0a4f28419497f9722a3daafe3b4186f6b6457e060405160405180910390a35050565b611b838061010d6000396000f3fe6080604052600436106100f75760003560e01c80638da5cb5b1161008a578063b2b72bc411610059578063b2b72bc414610332578063d1933ddd1461036f578063f2fde38b14610398578063fbc2cf13146103c157610101565b80638da5cb5b14610264578063917b8fd01461028f578063ad575035146102cc578063b16b25061461030957610101565b80633960a892116100c65780633960a892146101be5780634b3cef44146101e7578063715018a614610224578063717b9b6c1461023b57610101565b806307b8dedb146101065780630e197dc91461012f5780631e6dd4911461016c5780631ff4bdf31461019557610101565b3661010157600080fd5b600080fd5b34801561011257600080fd5b5061012d600480360381019061012891906113c6565b6103ea565b005b34801561013b57600080fd5b5061015660048036038101906101519190611541565b61044a565b60405161016391906117b4565b60405180910390f35b34801561017857600080fd5b50610193600480360381019061018e9190611486565b610474565b005b3480156101a157600080fd5b506101bc60048036038101906101b7919061139d565b6104de565b005b3480156101ca57600080fd5b506101e560048036038101906101e09190611593565b61074f565b005b3480156101f357600080fd5b5061020e60048036038101906102099190611541565b6107f4565b60405161021b9190611769565b60405180910390f35b34801561023057600080fd5b50610239610836565b005b34801561024757600080fd5b50610262600480360381019061025d91906115cf565b61084a565b005b34801561027057600080fd5b50610279610881565b6040516102869190611769565b60405180910390f35b34801561029b57600080fd5b506102b660048036038101906102b19190611541565b6108aa565b6040516102c3919061180f565b60405180910390f35b3480156102d857600080fd5b506102f360048036038101906102ee919061139d565b610a7a565b604051610300919061180f565b60405180910390f35b34801561031557600080fd5b50610330600480360381019061032b9190611407565b610c11565b005b34801561033e57600080fd5b506103596004803603810190610354919061139d565b610c95565b6040516103669190611831565b60405180910390f35b34801561037b57600080fd5b50610396600480360381019061039191906114da565b610e29565b005b3480156103a457600080fd5b506103bf60048036038101906103ba919061139d565b610f94565b005b3480156103cd57600080fd5b506103e860048036038101906103e3919061139d565b611018565b005b6000600360003373ffffffffffffffffffffffffffffffffffffffff1673ffffffffffffffffffffffffffffffffffffffff1681526020019081526020016000209050818160010190805190602001906104459291906111ae565b505050565b60006004600083815260200190815260200160002060009054906101000a900460ff169050919050565b6000600360003373ffffffffffffffffffffffffffffffffffffffff1673ffffffffffffffffffffffffffffffffffffffff1681526020019081526020016000209050828160020190805190602001906104cf9291906111ae565b50818160030181905550505050565b6000600360003373ffffffffffffffffffffffffffffffffffffffff1673ffffffffffffffffffffffffffffffffffffffff16815260200190815260200160002060405180608001604052908160008201548152602001600182018054610544906119be565b80601f0160208091040260200160405190810160405280929190818152602001828054610570906119be565b80156105bd5780601f10610592576101008083540402835291602001916105bd565b820191906000526020600020905b8154815290600101906020018083116105a057829003601f168201915b505050505081526020016002820180546105d6906119be565b80601f0160208091040260200160405190810160405280929190818152602001828054610602906119be565b801561064f5780601f106106245761010080835404028352916020019161064f565b820191906000526020600020905b81548152906001019060200180831161063257829003601f168201915b50505050508152602001600382015481525050905080600360008473ffffffffffffffffffffffffffffffffffffffff1673ffffffffffffffffffffffffffffffffffffffff1681526020019081526020016000206000820151816000015560208201518160010190805190602001906106ca9291906111ae565b5060408201518160020190805190602001906106e79291906111ae565b506060820151816003015590505081600260008360000151815260200190815260200160002060006101000a81548173ffffffffffffffffffffffffffffffffffffffff021916908373ffffffffffffffffffffffffffffffffffffffff1602179055505050565b610757611064565b806002600084815260200190815260200160002060006101000a81548173ffffffffffffffffffffffffffffffffffffffff021916908373ffffffffffffffffffffffffffffffffffffffff16021790555081600360008373ffffffffffffffffffffffffffffffffffffffff1673ffffffffffffffffffffffffffffffffffffffff168152602001908152602001600020600001819055505050565b6000806002600084815260200190815260200160002060009054906101000a900473ffffffffffffffffffffffffffffffffffffffff16905080915050919050565b61083e611064565b61084860006110e2565b565b610852611064565b806004600084815260200190815260200160002060006101000a81548160ff0219169083151502179055505050565b60008060009054906101000a900473ffffffffffffffffffffffffffffffffffffffff16905090565b6108b2611234565b60006002600084815260200190815260200160002060009054906101000a900473ffffffffffffffffffffffffffffffffffffffff1690506000600360008373ffffffffffffffffffffffffffffffffffffffff1673ffffffffffffffffffffffffffffffffffffffff16815260200190815260200160002060405180608001604052908160008201548152602001600182018054610950906119be565b80601f016020809104026020016040519081016040528092919081815260200182805461097c906119be565b80156109c95780601f1061099e576101008083540402835291602001916109c9565b820191906000526020600020905b8154815290600101906020018083116109ac57829003601f168201915b505050505081526020016002820180546109e2906119be565b80601f0160208091040260200160405190810160405280929190818152602001828054610a0e906119be565b8015610a5b5780601f10610a3057610100808354040283529160200191610a5b565b820191906000526020600020905b815481529060010190602001808311610a3e57829003601f168201915b5050505050815260200160038201548152505090508092505050919050565b610a82611234565b6000600360008473ffffffffffffffffffffffffffffffffffffffff1673ffffffffffffffffffffffffffffffffffffffff16815260200190815260200160002060405180608001604052908160008201548152602001600182018054610ae8906119be565b80601f0160208091040260200160405190810160405280929190818152602001828054610b14906119be565b8015610b615780601f10610b3657610100808354040283529160200191610b61565b820191906000526020600020905b815481529060010190602001808311610b4457829003601f168201915b50505050508152602001600282018054610b7a906119be565b80601f0160208091040260200160405190810160405280929190818152602001828054610ba6906119be565b8015610bf35780601f10610bc857610100808354040283529160200191610bf3565b820191906000526020600020905b815481529060010190602001808311610bd657829003601f168201915b50505050508152602001600382015481525050905080915050919050565b6000600360003373ffffffffffffffffffffffffffffffffffffffff1673ffffffffffffffffffffffffffffffffffffffff168152602001908152602001600020905083816001019080519060200190610c6c9291906111ae565b5082816002019080519060200190610c859291906111ae565b5081816003018190555050505050565b600080600360008473ffffffffffffffffffffffffffffffffffffffff1673ffffffffffffffffffffffffffffffffffffffff16815260200190815260200160002060405180608001604052908160008201548152602001600182018054610cfc906119be565b80601f0160208091040260200160405190810160405280929190818152602001828054610d28906119be565b8015610d755780601f10610d4a57610100808354040283529160200191610d75565b820191906000526020600020905b815481529060010190602001808311610d5857829003601f168201915b50505050508152602001600282018054610d8e906119be565b80601f0160208091040260200160405190810160405280929190818152602001828054610dba906119be565b8015610e075780601f10610ddc57610100808354040283529160200191610e07565b820191906000526020600020905b815481529060010190602001808311610dea57829003601f168201915b5050505050815260200160038201548152505090508060000151915050919050565b610e31611064565b60003090506000600160009054906101000a900473ffffffffffffffffffffffffffffffffffffffff1673ffffffffffffffffffffffffffffffffffffffff1663cf37834383876040518363ffffffff1660e01b8152600401610e95929190611784565b602060405180830381600087803b158015610eaf57600080fd5b505af1158015610ec3573d6000803e3d6000fd5b505050506040513d601f19601f82011682018060405250810190610ee7919061156a565b9050600160009054906101000a900473ffffffffffffffffffffffffffffffffffffffff1673ffffffffffffffffffffffffffffffffffffffff1663e1b2e97982856040518363ffffffff1660e01b8152600401610f4692919061184c565b600060405180830381600087803b158015610f6057600080fd5b505af1158015610f74573d6000803e3d6000fd5b50505050610f8381600161084a565b610f8d818561074f565b5050505050565b610f9c611064565b600073ffffffffffffffffffffffffffffffffffffffff168173ffffffffffffffffffffffffffffffffffffffff16141561100c576040517f08c379a0000000000000000000000000000000000000000000000000000000008152600401611003906117cf565b60405180910390fd5b611015816110e2565b50565b611020611064565b80600160006101000a81548173ffffffffffffffffffffffffffffffffffffffff021916908373ffffffffffffffffffffffffffffffffffffffff16021790555050565b61106c6111a6565b73ffffffffffffffffffffffffffffffffffffffff1661108a610881565b73ffffffffffffffffffffffffffffffffffffffff16146110e0576040517f08c379a00000000000000000000000000000000000000000000000000000000081526004016110d7906117ef565b60405180910390fd5b565b60008060009054906101000a900473ffffffffffffffffffffffffffffffffffffffff169050816000806101000a81548173ffffffffffffffffffffffffffffffffffffffff021916908373ffffffffffffffffffffffffffffffffffffffff1602179055508173ffffffffffffffffffffffffffffffffffffffff168173ffffffffffffffffffffffffffffffffffffffff167f8be0079c531659141344cd1fd0a4f28419497f9722a3daafe3b4186f6b6457e060405160405180910390a35050565b600033905090565b8280546111ba906119be565b90600052602060002090601f0160209004810192826111dc5760008555611223565b82601f106111f557805160ff1916838001178555611223565b82800160010185558215611223579182015b82811115611222578251825591602001919060010190611207565b5b509050611230919061125c565b5090565b6040518060800160405280600081526020016060815260200160608152602001600081525090565b5b8082111561127557600081600090555060010161125d565b5090565b600061128c6112878461189a565b611875565b9050828152602081018484840111156112a457600080fd5b6112af84828561197c565b509392505050565b60006112ca6112c5846118cb565b611875565b9050828152602081018484840111156112e257600080fd5b6112ed84828561197c565b509392505050565b60008135905061130481611b08565b92915050565b60008135905061131981611b1f565b92915050565b600082601f83011261133057600080fd5b8135611340848260208601611279565b91505092915050565b600082601f83011261135a57600080fd5b813561136a8482602086016112b7565b91505092915050565b60008135905061138281611b36565b92915050565b60008151905061139781611b36565b92915050565b6000602082840312156113af57600080fd5b60006113bd848285016112f5565b91505092915050565b6000602082840312156113d857600080fd5b600082013567ffffffffffffffff8111156113f257600080fd5b6113fe8482850161131f565b91505092915050565b60008060006060848603121561141c57600080fd5b600084013567ffffffffffffffff81111561143657600080fd5b6114428682870161131f565b935050602084013567ffffffffffffffff81111561145f57600080fd5b61146b8682870161131f565b925050604061147c86828701611373565b9150509250925092565b6000806040838503121561149957600080fd5b600083013567ffffffffffffffff8111156114b357600080fd5b6114bf8582860161131f565b92505060206114d085828601611373565b9150509250929050565b6000806000606084860312156114ef57600080fd5b600084013567ffffffffffffffff81111561150957600080fd5b61151586828701611349565b9350506020611526868287016112f5565b925050604061153786828701611373565b9150509250925092565b60006020828403121561155357600080fd5b600061156184828501611373565b91505092915050565b60006020828403121561157c57600080fd5b600061158a84828501611388565b91505092915050565b600080604083850312156115a657600080fd5b60006115b485828601611373565b92505060206115c5858286016112f5565b9150509250929050565b600080604083850312156115e257600080fd5b60006115f085828601611373565b92505060206116018582860161130a565b9150509250929050565b61161481611934565b82525050565b61162381611946565b82525050565b6000611634826118fc565b61163e8185611912565b935061164e81856020860161198b565b61165781611a7f565b840191505092915050565b600061166d82611907565b6116778185611923565b935061168781856020860161198b565b61169081611a7f565b840191505092915050565b60006116a8602683611923565b91506116b382611a90565b604082019050919050565b60006116cb602083611923565b91506116d682611adf565b602082019050919050565b60006080830160008301516116f9600086018261174b565b50602083015184820360208601526117118282611629565b9150506040830151848203604086015261172b8282611629565b9150506060830151611740606086018261174b565b508091505092915050565b61175481611972565b82525050565b61176381611972565b82525050565b600060208201905061177e600083018461160b565b92915050565b6000604082019050611799600083018561160b565b81810360208301526117ab8184611662565b90509392505050565b60006020820190506117c9600083018461161a565b92915050565b600060208201905081810360008301526117e88161169b565b9050919050565b60006020820190508181036000830152611808816116be565b9050919050565b6000602082019050818103600083015261182981846116e1565b905092915050565b6000602082019050611846600083018461175a565b92915050565b6000604082019050611861600083018561175a565b61186e602083018461175a565b9392505050565b600061187f611890565b905061188b82826119f0565b919050565b6000604051905090565b600067ffffffffffffffff8211156118b5576118b4611a50565b5b6118be82611a7f565b9050602081019050919050565b600067ffffffffffffffff8211156118e6576118e5611a50565b5b6118ef82611a7f565b9050602081019050919050565b600081519050919050565b600081519050919050565b600082825260208201905092915050565b600082825260208201905092915050565b600061193f82611952565b9050919050565b60008115159050919050565b600073ffffffffffffffffffffffffffffffffffffffff82169050919050565b6000819050919050565b82818337600083830152505050565b60005b838110156119a957808201518184015260208101905061198e565b838111156119b8576000848401525b50505050565b600060028204905060018216806119d657607f821691505b602082108114156119ea576119e9611a21565b5b50919050565b6119f982611a7f565b810181811067ffffffffffffffff82111715611a1857611a17611a50565b5b80604052505050565b7f4e487b7100000000000000000000000000000000000000000000000000000000600052602260045260246000fd5b7f4e487b7100000000000000000000000000000000000000000000000000000000600052604160045260246000fd5b6000601f19601f8301169050919050565b7f4f776e61626c653a206e6577206f776e657220697320746865207a65726f206160008201527f6464726573730000000000000000000000000000000000000000000000000000602082015250565b7f4f776e61626c653a2063616c6c6572206973206e6f7420746865206f776e6572600082015250565b611b1181611934565b8114611b1c57600080fd5b50565b611b2881611946565b8114611b3357600080fd5b50565b611b3f81611972565b8114611b4a57600080fd5b5056fea2646970667358221220ff7b03b453f1b89f6131d77d1c45fb4ec26e04cc2a37e7b59eea43601702eefd64736f6c63430008040033",
  "linkReferences": {},
  "deployedLinkReferences": {}
}