{
	"contracts/KYCManager.sol": {
		"KYCManager": {
			"abi": [
				{
					"anonymous": false,
					"inputs": [
						{
							"indexed": true,
							"internalType": "address",
							"name": "previousOwner",
							"type": "address"
						},
						{
							"indexed": true,
							"internalType": "address",
							"name": "newOwner",
							"type": "address"
						}
					],
					"name": "OwnershipTransferred",
					"type": "event"
				},
				{
					"stateMutability": "payable",
					"type": "fallback"
				},
				{
					"inputs": [
						{
							"internalType": "address",
							"name": "managerAddr",
							"type": "address"
						}
					],
					"name": "NFTIdOfManager",
					"outputs": [
						{
							"internalType": "uint256",
							"name": "",
							"type": "uint256"
						}
					],
					"stateMutability": "view",
					"type": "function"
				},
				{
					"inputs": [
						{
							"internalType": "uint256",
							"name": "NFTid",
							"type": "uint256"
						}
					],
					"name": "availableOfNFTId",
					"outputs": [
						{
							"internalType": "bool",
							"name": "",
							"type": "bool"
						}
					],
					"stateMutability": "view",
					"type": "function"
				},
				{
					"inputs": [
						{
							"internalType": "string",
							"name": "tokenUrl",
							"type": "string"
						},
						{
							"internalType": "address",
							"name": "manager",
							"type": "address"
						},
						{
							"internalType": "uint256",
							"name": "expirationTime",
							"type": "uint256"
						}
					],
					"name": "createKYCNFT",
					"outputs": [],
					"stateMutability": "nonpayable",
					"type": "function"
				},
				{
					"inputs": [
						{
							"internalType": "uint256",
							"name": "NFTid",
							"type": "uint256"
						},
						{
							"internalType": "address",
							"name": "manager",
							"type": "address"
						}
					],
					"name": "initManagerAddr",
					"outputs": [],
					"stateMutability": "nonpayable",
					"type": "function"
				},
				{
					"inputs": [
						{
							"internalType": "uint256",
							"name": "NFTid",
							"type": "uint256"
						}
					],
					"name": "managerOfNFTId",
					"outputs": [
						{
							"internalType": "address",
							"name": "",
							"type": "address"
						}
					],
					"stateMutability": "view",
					"type": "function"
				},
				{
					"inputs": [
						{
							"internalType": "address",
							"name": "newManager",
							"type": "address"
						}
					],
					"name": "modifyManagerAddr",
					"outputs": [],
					"stateMutability": "nonpayable",
					"type": "function"
				},
				{
					"inputs": [],
					"name": "owner",
					"outputs": [
						{
							"internalType": "address",
							"name": "",
							"type": "address"
						}
					],
					"stateMutability": "view",
					"type": "function"
				},
				{
					"inputs": [],
					"name": "renounceOwnership",
					"outputs": [],
					"stateMutability": "nonpayable",
					"type": "function"
				},
				{
					"inputs": [
						{
							"internalType": "address",
							"name": "_kycnftContractAddr",
							"type": "address"
						}
					],
					"name": "setKYCNFTContractAddress",
					"outputs": [],
					"stateMutability": "nonpayable",
					"type": "function"
				},
				{
					"inputs": [
						{
							"internalType": "uint256",
							"name": "NFTid",
							"type": "uint256"
						},
						{
							"internalType": "bool",
							"name": "_available",
							"type": "bool"
						}
					],
					"name": "setNFTAvailableOfNFTId",
					"outputs": [],
					"stateMutability": "nonpayable",
					"type": "function"
				},
				{
					"inputs": [
						{
							"internalType": "address",
							"name": "newOwner",
							"type": "address"
						}
					],
					"name": "transferOwnership",
					"outputs": [],
					"stateMutability": "nonpayable",
					"type": "function"
				},
				{
					"inputs": [
						{
							"internalType": "string",
							"name": "_accumulator",
							"type": "string"
						},
						{
							"internalType": "string",
							"name": "_n",
							"type": "string"
						},
						{
							"internalType": "uint256",
							"name": "_g",
							"type": "uint256"
						}
					],
					"name": "updateAccumulator",
					"outputs": [],
					"stateMutability": "nonpayable",
					"type": "function"
				},
				{
					"inputs": [
						{
							"internalType": "string",
							"name": "_n",
							"type": "string"
						},
						{
							"internalType": "uint256",
							"name": "_g",
							"type": "uint256"
						}
					],
					"name": "updateAccumulatorPublicKey",
					"outputs": [],
					"stateMutability": "nonpayable",
					"type": "function"
				},
				{
					"inputs": [
						{
							"internalType": "string",
							"name": "_accumulator",
							"type": "string"
						}
					],
					"name": "updateAccumulatorValue",
					"outputs": [],
					"stateMutability": "nonpayable",
					"type": "function"
				},
				{
					"inputs": [
						{
							"internalType": "address",
							"name": "managerAddr",
							"type": "address"
						}
					],
					"name": "userDataOfManager",
					"outputs": [
						{
							"components": [
								{
									"internalType": "uint256",
									"name": "NFTid",
									"type": "uint256"
								},
								{
									"internalType": "string",
									"name": "accumulator",
									"type": "string"
								},
								{
									"internalType": "string",
									"name": "n",
									"type": "string"
								},
								{
									"internalType": "uint256",
									"name": "g",
									"type": "uint256"
								}
							],
							"internalType": "struct KYCManager.UserData",
							"name": "",
							"type": "tuple"
						}
					],
					"stateMutability": "view",
					"type": "function"
				},
				{
					"inputs": [
						{
							"internalType": "uint256",
							"name": "NFTid",
							"type": "uint256"
						}
					],
					"name": "userDataOfNFTId",
					"outputs": [
						{
							"components": [
								{
									"internalType": "uint256",
									"name": "NFTid",
									"type": "uint256"
								},
								{
									"internalType": "string",
									"name": "accumulator",
									"type": "string"
								},
								{
									"internalType": "string",
									"name": "n",
									"type": "string"
								},
								{
									"internalType": "uint256",
									"name": "g",
									"type": "uint256"
								}
							],
							"internalType": "struct KYCManager.UserData",
							"name": "",
							"type": "tuple"
						}
					],
					"stateMutability": "view",
					"type": "function"
				},
				{
					"inputs": [
						{
							"internalType": "bytes32",
							"name": "root",
							"type": "bytes32"
						},
						{
							"internalType": "bytes32",
							"name": "leaf",
							"type": "bytes32"
						},
						{
							"internalType": "bytes32[]",
							"name": "proof",
							"type": "bytes32[]"
						},
						{
							"internalType": "uint256[]",
							"name": "positions",
							"type": "uint256[]"
						}
					],
					"name": "verify",
					"outputs": [
						{
							"internalType": "bool",
							"name": "",
							"type": "bool"
						}
					],
					"stateMutability": "pure",
					"type": "function"
				},
				{
					"inputs": [
						{
							"internalType": "bytes32",
							"name": "root",
							"type": "bytes32"
						},
						{
							"internalType": "bytes32",
							"name": "leaf",
							"type": "bytes32"
						},
						{
							"internalType": "bytes32[]",
							"name": "proof",
							"type": "bytes32[]"
						},
						{
							"internalType": "uint256[]",
							"name": "positions",
							"type": "uint256[]"
						}
					],
					"name": "verifyTest",
					"outputs": [
						{
							"internalType": "bool",
							"name": "",
							"type": "bool"
						}
					],
					"stateMutability": "pure",
					"type": "function"
				},
				{
					"stateMutability": "payable",
					"type": "receive"
				}
			],
			"devdoc": {
				"kind": "dev",
				"methods": {
					"owner()": {
						"details": "Returns the address of the current owner."
					},
					"renounceOwnership()": {
						"details": "Leaves the contract without owner. It will not be possible to call `onlyOwner` functions anymore. Can only be called by the current owner. NOTE: Renouncing ownership will leave the contract without an owner, thereby removing any functionality that is only available to the owner."
					},
					"transferOwnership(address)": {
						"details": "Transfers ownership of the contract to a new account (`newOwner`). Can only be called by the current owner."
					}
				},
				"version": 1
			},
			"evm": {
				"assembly": "    /* \"contracts/KYCManager.sol\":405:4734  contract KYCManager is Ownable {... */\n  mstore(0x40, 0x80)\n  callvalue\n  dup1\n  iszero\n  tag_1\n  jumpi\n  0x00\n  dup1\n  revert\ntag_1:\n  pop\n    /* \"@openzeppelin/contracts/access/Ownable.sol\":921:953  _transferOwnership(_msgSender()) */\n  tag_4\n    /* \"@openzeppelin/contracts/access/Ownable.sol\":940:952  _msgSender() */\n  tag_5\n    /* \"@openzeppelin/contracts/access/Ownable.sol\":940:950  _msgSender */\n  shl(0x20, tag_6)\n    /* \"@openzeppelin/contracts/access/Ownable.sol\":940:952  _msgSender() */\n  0x20\n  shr\n  jump\t// in\ntag_5:\n    /* \"@openzeppelin/contracts/access/Ownable.sol\":921:939  _transferOwnership */\n  shl(0x20, tag_7)\n    /* \"@openzeppelin/contracts/access/Ownable.sol\":921:953  _transferOwnership(_msgSender()) */\n  0x20\n  shr\n  jump\t// in\ntag_4:\n    /* \"contracts/KYCManager.sol\":405:4734  contract KYCManager is Ownable {... */\n  jump(tag_8)\n    /* \"@openzeppelin/contracts/utils/Context.sol\":640:736  function _msgSender() internal view virtual returns (address) {... */\ntag_6:\n    /* \"@openzeppelin/contracts/utils/Context.sol\":693:700  address */\n  0x00\n    /* \"@openzeppelin/contracts/utils/Context.sol\":719:729  msg.sender */\n  caller\n    /* \"@openzeppelin/contracts/utils/Context.sol\":712:729  return msg.sender */\n  swap1\n  pop\n    /* \"@openzeppelin/contracts/utils/Context.sol\":640:736  function _msgSender() internal view virtual returns (address) {... */\n  swap1\n  jump\t// out\n    /* \"@openzeppelin/contracts/access/Ownable.sol\":2270:2457  function _transferOwnership(address newOwner) internal virtual {... */\ntag_7:\n    /* \"@openzeppelin/contracts/access/Ownable.sol\":2343:2359  address oldOwner */\n  0x00\n    /* \"@openzeppelin/contracts/access/Ownable.sol\":2362:2368  _owner */\n  dup1\n  0x00\n  swap1\n  sload\n  swap1\n  0x0100\n  exp\n  swap1\n  div\n  0xffffffffffffffffffffffffffffffffffffffff\n  and\n    /* \"@openzeppelin/contracts/access/Ownable.sol\":2343:2368  address oldOwner = _owner */\n  swap1\n  pop\n    /* \"@openzeppelin/contracts/access/Ownable.sol\":2387:2395  newOwner */\n  dup2\n    /* \"@openzeppelin/contracts/access/Ownable.sol\":2378:2384  _owner */\n  0x00\n  dup1\n    /* \"@openzeppelin/contracts/access/Ownable.sol\":2378:2395  _owner = newOwner */\n  0x0100\n  exp\n  dup2\n  sload\n  dup2\n  0xffffffffffffffffffffffffffffffffffffffff\n  mul\n  not\n  and\n  swap1\n  dup4\n  0xffffffffffffffffffffffffffffffffffffffff\n  and\n  mul\n  or\n  swap1\n  sstore\n  pop\n    /* \"@openzeppelin/contracts/access/Ownable.sol\":2441:2449  newOwner */\n  dup2\n    /* \"@openzeppelin/contracts/access/Ownable.sol\":2410:2450  OwnershipTransferred(oldOwner, newOwner) */\n  0xffffffffffffffffffffffffffffffffffffffff\n  and\n    /* \"@openzeppelin/contracts/access/Ownable.sol\":2431:2439  oldOwner */\n  dup2\n    /* \"@openzeppelin/contracts/access/Ownable.sol\":2410:2450  OwnershipTransferred(oldOwner, newOwner) */\n  0xffffffffffffffffffffffffffffffffffffffff\n  and\n  0x8be0079c531659141344cd1fd0a4f28419497f9722a3daafe3b4186f6b6457e0\n  mload(0x40)\n  mload(0x40)\n  dup1\n  swap2\n  sub\n  swap1\n  log3\n    /* \"@openzeppelin/contracts/access/Ownable.sol\":2333:2457  {... */\n  pop\n    /* \"@openzeppelin/contracts/access/Ownable.sol\":2270:2457  function _transferOwnership(address newOwner) internal virtual {... */\n  pop\n  jump\t// out\n    /* \"contracts/KYCManager.sol\":405:4734  contract KYCManager is Ownable {... */\ntag_8:\n  dataSize(sub_0)\n  dup1\n  dataOffset(sub_0)\n  0x00\n  codecopy\n  0x00\n  return\nstop\n\nsub_0: assembly {\n        /* \"contracts/KYCManager.sol\":405:4734  contract KYCManager is Ownable {... */\n      mstore(0x40, 0x80)\n      jumpi(tag_1, lt(calldatasize, 0x04))\n      shr(0xe0, calldataload(0x00))\n      dup1\n      0x9bb6dcc8\n      gt\n      tag_21\n      jumpi\n      dup1\n      0xd1933ddd\n      gt\n      tag_22\n      jumpi\n      dup1\n      0xd1933ddd\n      eq\n      tag_16\n      jumpi\n      dup1\n      0xd6f70eb3\n      eq\n      tag_17\n      jumpi\n      dup1\n      0xf2fde38b\n      eq\n      tag_18\n      jumpi\n      dup1\n      0xfa0e9e41\n      eq\n      tag_19\n      jumpi\n      dup1\n      0xfbc2cf13\n      eq\n      tag_20\n      jumpi\n      jump(tag_2)\n    tag_22:\n      dup1\n      0x9bb6dcc8\n      eq\n      tag_12\n      jumpi\n      dup1\n      0xad575035\n      eq\n      tag_13\n      jumpi\n      dup1\n      0xb2b72bc4\n      eq\n      tag_14\n      jumpi\n      dup1\n      0xbafdee14\n      eq\n      tag_15\n      jumpi\n      jump(tag_2)\n    tag_21:\n      dup1\n      0x715018a6\n      gt\n      tag_23\n      jumpi\n      dup1\n      0x715018a6\n      eq\n      tag_7\n      jumpi\n      dup1\n      0x717b9b6c\n      eq\n      tag_8\n      jumpi\n      dup1\n      0x8da5cb5b\n      eq\n      tag_9\n      jumpi\n      dup1\n      0x917b8fd0\n      eq\n      tag_10\n      jumpi\n      dup1\n      0x9382b5ec\n      eq\n      tag_11\n      jumpi\n      jump(tag_2)\n    tag_23:\n      dup1\n      0x0e197dc9\n      eq\n      tag_3\n      jumpi\n      dup1\n      0x1ff4bdf3\n      eq\n      tag_4\n      jumpi\n      dup1\n      0x3960a892\n      eq\n      tag_5\n      jumpi\n      dup1\n      0x4b3cef44\n      eq\n      tag_6\n      jumpi\n      jump(tag_2)\n    tag_1:\n      jumpi(tag_2, calldatasize)\n        /* \"contracts/KYCManager.sol\":4719:4727  revert() */\n      0x00\n      dup1\n      revert\n        /* \"contracts/KYCManager.sol\":405:4734  contract KYCManager is Ownable {... */\n    tag_2:\n        /* \"contracts/KYCManager.sol\":4670:4678  revert() */\n      0x00\n      dup1\n      revert\n        /* \"contracts/KYCManager.sol\":3081:3187  function availableOfNFTId(uint NFTid) public view returns(bool){... */\n    tag_3:\n      callvalue\n      dup1\n      iszero\n      tag_28\n      jumpi\n      0x00\n      dup1\n      revert\n    tag_28:\n      pop\n      tag_29\n      0x04\n      dup1\n      calldatasize\n      sub\n      dup2\n      add\n      swap1\n      tag_30\n      swap2\n      swap1\n      tag_31\n      jump\t// in\n    tag_30:\n      tag_32\n      jump\t// in\n    tag_29:\n      mload(0x40)\n      tag_33\n      swap2\n      swap1\n      tag_34\n      jump\t// in\n    tag_33:\n      mload(0x40)\n      dup1\n      swap2\n      sub\n      swap1\n      return\n        /* \"contracts/KYCManager.sol\":1644:1859  function modifyManagerAddr(address newManager) public{... */\n    tag_4:\n      callvalue\n      dup1\n      iszero\n      tag_35\n      jumpi\n      0x00\n      dup1\n      revert\n    tag_35:\n      pop\n      tag_36\n      0x04\n      dup1\n      calldatasize\n      sub\n      dup2\n      add\n      swap1\n      tag_37\n      swap2\n      swap1\n      tag_38\n      jump\t// in\n    tag_37:\n      tag_39\n      jump\t// in\n    tag_36:\n      stop\n        /* \"contracts/KYCManager.sol\":1477:1636  function initManagerAddr(uint NFTid, address manager) public onlyOwner {... */\n    tag_5:\n      callvalue\n      dup1\n      iszero\n      tag_40\n      jumpi\n      0x00\n      dup1\n      revert\n    tag_40:\n      pop\n      tag_41\n      0x04\n      dup1\n      calldatasize\n      sub\n      dup2\n      add\n      swap1\n      tag_42\n      swap2\n      swap1\n      tag_43\n      jump\t// in\n    tag_42:\n      tag_44\n      jump\t// in\n    tag_41:\n      stop\n        /* \"contracts/KYCManager.sol\":2556:2689  function managerOfNFTId(uint NFTid) public view returns(address) {... */\n    tag_6:\n      callvalue\n      dup1\n      iszero\n      tag_45\n      jumpi\n      0x00\n      dup1\n      revert\n    tag_45:\n      pop\n      tag_46\n      0x04\n      dup1\n      calldatasize\n      sub\n      dup2\n      add\n      swap1\n      tag_47\n      swap2\n      swap1\n      tag_31\n      jump\t// in\n    tag_47:\n      tag_48\n      jump\t// in\n    tag_46:\n      mload(0x40)\n      tag_49\n      swap2\n      swap1\n      tag_50\n      jump\t// in\n    tag_49:\n      mload(0x40)\n      dup1\n      swap2\n      sub\n      swap1\n      return\n        /* \"@openzeppelin/contracts/access/Ownable.sol\":1668:1769  function renounceOwnership() public virtual onlyOwner {... */\n    tag_7:\n      callvalue\n      dup1\n      iszero\n      tag_51\n      jumpi\n      0x00\n      dup1\n      revert\n    tag_51:\n      pop\n      tag_52\n      tag_53\n      jump\t// in\n    tag_52:\n      stop\n        /* \"contracts/KYCManager.sol\":1313:1438  function setNFTAvailableOfNFTId(uint NFTid, bool _available)  public onlyOwner{... */\n    tag_8:\n      callvalue\n      dup1\n      iszero\n      tag_54\n      jumpi\n      0x00\n      dup1\n      revert\n    tag_54:\n      pop\n      tag_55\n      0x04\n      dup1\n      calldatasize\n      sub\n      dup2\n      add\n      swap1\n      tag_56\n      swap2\n      swap1\n      tag_57\n      jump\t// in\n    tag_56:\n      tag_58\n      jump\t// in\n    tag_55:\n      stop\n        /* \"@openzeppelin/contracts/access/Ownable.sol\":1036:1121  function owner() public view virtual returns (address) {... */\n    tag_9:\n      callvalue\n      dup1\n      iszero\n      tag_59\n      jumpi\n      0x00\n      dup1\n      revert\n    tag_59:\n      pop\n      tag_60\n      tag_61\n      jump\t// in\n    tag_60:\n      mload(0x40)\n      tag_62\n      swap2\n      swap1\n      tag_50\n      jump\t// in\n    tag_62:\n      mload(0x40)\n      dup1\n      swap2\n      sub\n      swap1\n      return\n        /* \"contracts/KYCManager.sol\":2693:2896  function userDataOfNFTId(uint NFTid) public view returns(UserData memory){... */\n    tag_10:\n      callvalue\n      dup1\n      iszero\n      tag_63\n      jumpi\n      0x00\n      dup1\n      revert\n    tag_63:\n      pop\n      tag_64\n      0x04\n      dup1\n      calldatasize\n      sub\n      dup2\n      add\n      swap1\n      tag_65\n      swap2\n      swap1\n      tag_31\n      jump\t// in\n    tag_65:\n      tag_66\n      jump\t// in\n    tag_64:\n      mload(0x40)\n      tag_67\n      swap2\n      swap1\n      tag_68\n      jump\t// in\n    tag_67:\n      mload(0x40)\n      dup1\n      swap2\n      sub\n      swap1\n      return\n        /* \"contracts/KYCManager.sol\":3945:4632  function verifyTest(... */\n    tag_11:\n      callvalue\n      dup1\n      iszero\n      tag_69\n      jumpi\n      0x00\n      dup1\n      revert\n    tag_69:\n      pop\n      tag_70\n      0x04\n      dup1\n      calldatasize\n      sub\n      dup2\n      add\n      swap1\n      tag_71\n      swap2\n      swap1\n      tag_72\n      jump\t// in\n    tag_71:\n      tag_73\n      jump\t// in\n    tag_70:\n      mload(0x40)\n      tag_74\n      swap2\n      swap1\n      tag_34\n      jump\t// in\n    tag_74:\n      mload(0x40)\n      dup1\n      swap2\n      sub\n      swap1\n      return\n        /* \"contracts/KYCManager.sol\":3396:3939  function verify(... */\n    tag_12:\n      callvalue\n      dup1\n      iszero\n      tag_75\n      jumpi\n      0x00\n      dup1\n      revert\n    tag_75:\n      pop\n      tag_76\n      0x04\n      dup1\n      calldatasize\n      sub\n      dup2\n      add\n      swap1\n      tag_77\n      swap2\n      swap1\n      tag_72\n      jump\t// in\n    tag_77:\n      tag_78\n      jump\t// in\n    tag_76:\n      mload(0x40)\n      tag_79\n      swap2\n      swap1\n      tag_34\n      jump\t// in\n    tag_79:\n      mload(0x40)\n      dup1\n      swap2\n      sub\n      swap1\n      return\n        /* \"contracts/KYCManager.sol\":2900:3077  function userDataOfManager(address managerAddr) public view returns(UserData memory){... */\n    tag_13:\n      callvalue\n      dup1\n      iszero\n      tag_80\n      jumpi\n      0x00\n      dup1\n      revert\n    tag_80:\n      pop\n      tag_81\n      0x04\n      dup1\n      calldatasize\n      sub\n      dup2\n      add\n      swap1\n      tag_82\n      swap2\n      swap1\n      tag_38\n      jump\t// in\n    tag_82:\n      tag_83\n      jump\t// in\n    tag_81:\n      mload(0x40)\n      tag_84\n      swap2\n      swap1\n      tag_68\n      jump\t// in\n    tag_84:\n      mload(0x40)\n      dup1\n      swap2\n      sub\n      swap1\n      return\n        /* \"contracts/KYCManager.sol\":3191:3360  function NFTIdOfManager(address managerAddr) public view returns(uint){... */\n    tag_14:\n      callvalue\n      dup1\n      iszero\n      tag_85\n      jumpi\n      0x00\n      dup1\n      revert\n    tag_85:\n      pop\n      tag_86\n      0x04\n      dup1\n      calldatasize\n      sub\n      dup2\n      add\n      swap1\n      tag_87\n      swap2\n      swap1\n      tag_38\n      jump\t// in\n    tag_87:\n      tag_88\n      jump\t// in\n    tag_86:\n      mload(0x40)\n      tag_89\n      swap2\n      swap1\n      tag_90\n      jump\t// in\n    tag_89:\n      mload(0x40)\n      dup1\n      swap2\n      sub\n      swap1\n      return\n        /* \"contracts/KYCManager.sol\":1896:2147  function updateAccumulator(string memory _accumulator, string memory _n, uint256 _g) public {... */\n    tag_15:\n      callvalue\n      dup1\n      iszero\n      tag_91\n      jumpi\n      0x00\n      dup1\n      revert\n    tag_91:\n      pop\n      tag_92\n      0x04\n      dup1\n      calldatasize\n      sub\n      dup2\n      add\n      swap1\n      tag_93\n      swap2\n      swap1\n      tag_94\n      jump\t// in\n    tag_93:\n      tag_95\n      jump\t// in\n    tag_92:\n      stop\n        /* \"contracts/KYCManager.sol\":902:1307  function createKYCNFT(string memory tokenUrl, address manager, uint expirationTime) public onlyOwner{... */\n    tag_16:\n      callvalue\n      dup1\n      iszero\n      tag_96\n      jumpi\n      0x00\n      dup1\n      revert\n    tag_96:\n      pop\n      tag_97\n      0x04\n      dup1\n      calldatasize\n      sub\n      dup2\n      add\n      swap1\n      tag_98\n      swap2\n      swap1\n      tag_99\n      jump\t// in\n    tag_98:\n      tag_100\n      jump\t// in\n    tag_97:\n      stop\n        /* \"contracts/KYCManager.sol\":2341:2521  function updateAccumulatorValue(string memory _accumulator) public {... */\n    tag_17:\n      callvalue\n      dup1\n      iszero\n      tag_101\n      jumpi\n      0x00\n      dup1\n      revert\n    tag_101:\n      pop\n      tag_102\n      0x04\n      dup1\n      calldatasize\n      sub\n      dup2\n      add\n      swap1\n      tag_103\n      swap2\n      swap1\n      tag_104\n      jump\t// in\n    tag_103:\n      tag_105\n      jump\t// in\n    tag_102:\n      stop\n        /* \"@openzeppelin/contracts/access/Ownable.sol\":1918:2116  function transferOwnership(address newOwner) public virtual onlyOwner {... */\n    tag_18:\n      callvalue\n      dup1\n      iszero\n      tag_106\n      jumpi\n      0x00\n      dup1\n      revert\n    tag_106:\n      pop\n      tag_107\n      0x04\n      dup1\n      calldatasize\n      sub\n      dup2\n      add\n      swap1\n      tag_108\n      swap2\n      swap1\n      tag_38\n      jump\t// in\n    tag_108:\n      tag_109\n      jump\t// in\n    tag_107:\n      stop\n        /* \"contracts/KYCManager.sol\":2151:2337  function updateAccumulatorPublicKey(string memory _n, uint _g) public {... */\n    tag_19:\n      callvalue\n      dup1\n      iszero\n      tag_110\n      jumpi\n      0x00\n      dup1\n      revert\n    tag_110:\n      pop\n      tag_111\n      0x04\n      dup1\n      calldatasize\n      sub\n      dup2\n      add\n      swap1\n      tag_112\n      swap2\n      swap1\n      tag_113\n      jump\t// in\n    tag_112:\n      tag_114\n      jump\t// in\n    tag_111:\n      stop\n        /* \"contracts/KYCManager.sol\":752:896  function setKYCNFTContractAddress(address _kycnftContractAddr) public onlyOwner {... */\n    tag_20:\n      callvalue\n      dup1\n      iszero\n      tag_115\n      jumpi\n      0x00\n      dup1\n      revert\n    tag_115:\n      pop\n      tag_116\n      0x04\n      dup1\n      calldatasize\n      sub\n      dup2\n      add\n      swap1\n      tag_117\n      swap2\n      swap1\n      tag_38\n      jump\t// in\n    tag_117:\n      tag_118\n      jump\t// in\n    tag_116:\n      stop\n        /* \"contracts/KYCManager.sol\":3081:3187  function availableOfNFTId(uint NFTid) public view returns(bool){... */\n    tag_32:\n        /* \"contracts/KYCManager.sol\":3139:3143  bool */\n      0x00\n        /* \"contracts/KYCManager.sol\":3159:3175  NFTIdToAvailable */\n      0x04\n        /* \"contracts/KYCManager.sol\":3159:3182  NFTIdToAvailable[NFTid] */\n      0x00\n        /* \"contracts/KYCManager.sol\":3176:3181  NFTid */\n      dup4\n        /* \"contracts/KYCManager.sol\":3159:3182  NFTIdToAvailable[NFTid] */\n      dup2\n      mstore\n      0x20\n      add\n      swap1\n      dup2\n      mstore\n      0x20\n      add\n      0x00\n      keccak256\n      0x00\n      swap1\n      sload\n      swap1\n      0x0100\n      exp\n      swap1\n      div\n      0xff\n      and\n        /* \"contracts/KYCManager.sol\":3152:3182  return NFTIdToAvailable[NFTid] */\n      swap1\n      pop\n        /* \"contracts/KYCManager.sol\":3081:3187  function availableOfNFTId(uint NFTid) public view returns(bool){... */\n      swap2\n      swap1\n      pop\n      jump\t// out\n        /* \"contracts/KYCManager.sol\":1644:1859  function modifyManagerAddr(address newManager) public{... */\n    tag_39:\n        /* \"contracts/KYCManager.sol\":1703:1727  UserData memory userdata */\n      0x00\n        /* \"contracts/KYCManager.sol\":1730:1747  ManagerToUserData */\n      0x03\n        /* \"contracts/KYCManager.sol\":1730:1759  ManagerToUserData[msg.sender] */\n      0x00\n        /* \"contracts/KYCManager.sol\":1748:1758  msg.sender */\n      caller\n        /* \"contracts/KYCManager.sol\":1730:1759  ManagerToUserData[msg.sender] */\n      0xffffffffffffffffffffffffffffffffffffffff\n      and\n      0xffffffffffffffffffffffffffffffffffffffff\n      and\n      dup2\n      mstore\n      0x20\n      add\n      swap1\n      dup2\n      mstore\n      0x20\n      add\n      0x00\n      keccak256\n        /* \"contracts/KYCManager.sol\":1703:1759  UserData memory userdata = ManagerToUserData[msg.sender] */\n      mload(0x40)\n      dup1\n      0x80\n      add\n      0x40\n      mstore\n      swap1\n      dup2\n      0x00\n      dup3\n      add\n      sload\n      dup2\n      mstore\n      0x20\n      add\n      0x01\n      dup3\n      add\n      dup1\n      sload\n      tag_121\n      swap1\n      tag_122\n      jump\t// in\n    tag_121:\n      dup1\n      0x1f\n      add\n      0x20\n      dup1\n      swap2\n      div\n      mul\n      0x20\n      add\n      mload(0x40)\n      swap1\n      dup2\n      add\n      0x40\n      mstore\n      dup1\n      swap3\n      swap2\n      swap1\n      dup2\n      dup2\n      mstore\n      0x20\n      add\n      dup3\n      dup1\n      sload\n      tag_123\n      swap1\n      tag_122\n      jump\t// in\n    tag_123:\n      dup1\n      iszero\n      tag_124\n      jumpi\n      dup1\n      0x1f\n      lt\n      tag_125\n      jumpi\n      0x0100\n      dup1\n      dup4\n      sload\n      div\n      mul\n      dup4\n      mstore\n      swap2\n      0x20\n      add\n      swap2\n      jump(tag_124)\n    tag_125:\n      dup3\n      add\n      swap2\n      swap1\n      0x00\n      mstore\n      keccak256(0x00, 0x20)\n      swap1\n    tag_126:\n      dup2\n      sload\n      dup2\n      mstore\n      swap1\n      0x01\n      add\n      swap1\n      0x20\n      add\n      dup1\n      dup4\n      gt\n      tag_126\n      jumpi\n      dup3\n      swap1\n      sub\n      0x1f\n      and\n      dup3\n      add\n      swap2\n    tag_124:\n      pop\n      pop\n      pop\n      pop\n      pop\n      dup2\n      mstore\n      0x20\n      add\n      0x02\n      dup3\n      add\n      dup1\n      sload\n      tag_127\n      swap1\n      tag_122\n      jump\t// in\n    tag_127:\n      dup1\n      0x1f\n      add\n      0x20\n      dup1\n      swap2\n      div\n      mul\n      0x20\n      add\n      mload(0x40)\n      swap1\n      dup2\n      add\n      0x40\n      mstore\n      dup1\n      swap3\n      swap2\n      swap1\n      dup2\n      dup2\n      mstore\n      0x20\n      add\n      dup3\n      dup1\n      sload\n      tag_128\n      swap1\n      tag_122\n      jump\t// in\n    tag_128:\n      dup1\n      iszero\n      tag_129\n      jumpi\n      dup1\n      0x1f\n      lt\n      tag_130\n      jumpi\n      0x0100\n      dup1\n      dup4\n      sload\n      div\n      mul\n      dup4\n      mstore\n      swap2\n      0x20\n      add\n      swap2\n      jump(tag_129)\n    tag_130:\n      dup3\n      add\n      swap2\n      swap1\n      0x00\n      mstore\n      keccak256(0x00, 0x20)\n      swap1\n    tag_131:\n      dup2\n      sload\n      dup2\n      mstore\n      swap1\n      0x01\n      add\n      swap1\n      0x20\n      add\n      dup1\n      dup4\n      gt\n      tag_131\n      jumpi\n      dup3\n      swap1\n      sub\n      0x1f\n      and\n      dup3\n      add\n      swap2\n    tag_129:\n      pop\n      pop\n      pop\n      pop\n      pop\n      dup2\n      mstore\n      0x20\n      add\n      0x03\n      dup3\n      add\n      sload\n      dup2\n      mstore\n      pop\n      pop\n      swap1\n      pop\n        /* \"contracts/KYCManager.sol\":1797:1805  userdata */\n      dup1\n        /* \"contracts/KYCManager.sol\":1765:1782  ManagerToUserData */\n      0x03\n        /* \"contracts/KYCManager.sol\":1765:1794  ManagerToUserData[newManager] */\n      0x00\n        /* \"contracts/KYCManager.sol\":1783:1793  newManager */\n      dup5\n        /* \"contracts/KYCManager.sol\":1765:1794  ManagerToUserData[newManager] */\n      0xffffffffffffffffffffffffffffffffffffffff\n      and\n      0xffffffffffffffffffffffffffffffffffffffff\n      and\n      dup2\n      mstore\n      0x20\n      add\n      swap1\n      dup2\n      mstore\n      0x20\n      add\n      0x00\n      keccak256\n        /* \"contracts/KYCManager.sol\":1765:1805  ManagerToUserData[newManager] = userdata */\n      0x00\n      dup3\n      add\n      mload\n      dup2\n      0x00\n      add\n      sstore\n      0x20\n      dup3\n      add\n      mload\n      dup2\n      0x01\n      add\n      swap1\n      dup1\n      mload\n      swap1\n      0x20\n      add\n      swap1\n      tag_132\n      swap3\n      swap2\n      swap1\n      tag_133\n      jump\t// in\n    tag_132:\n      pop\n      0x40\n      dup3\n      add\n      mload\n      dup2\n      0x02\n      add\n      swap1\n      dup1\n      mload\n      swap1\n      0x20\n      add\n      swap1\n      tag_134\n      swap3\n      swap2\n      swap1\n      tag_133\n      jump\t// in\n    tag_134:\n      pop\n      0x60\n      dup3\n      add\n      mload\n      dup2\n      0x03\n      add\n      sstore\n      swap1\n      pop\n      pop\n        /* \"contracts/KYCManager.sol\":1844:1854  newManager */\n      dup2\n        /* \"contracts/KYCManager.sol\":1811:1825  NFTIdToManager */\n      0x02\n        /* \"contracts/KYCManager.sol\":1811:1841  NFTIdToManager[userdata.NFTid] */\n      0x00\n        /* \"contracts/KYCManager.sol\":1826:1834  userdata */\n      dup4\n        /* \"contracts/KYCManager.sol\":1826:1840  userdata.NFTid */\n      0x00\n      add\n      mload\n        /* \"contracts/KYCManager.sol\":1811:1841  NFTIdToManager[userdata.NFTid] */\n      dup2\n      mstore\n      0x20\n      add\n      swap1\n      dup2\n      mstore\n      0x20\n      add\n      0x00\n      keccak256\n      0x00\n        /* \"contracts/KYCManager.sol\":1811:1854  NFTIdToManager[userdata.NFTid] = newManager */\n      0x0100\n      exp\n      dup2\n      sload\n      dup2\n      0xffffffffffffffffffffffffffffffffffffffff\n      mul\n      not\n      and\n      swap1\n      dup4\n      0xffffffffffffffffffffffffffffffffffffffff\n      and\n      mul\n      or\n      swap1\n      sstore\n      pop\n        /* \"contracts/KYCManager.sol\":1697:1859  {... */\n      pop\n        /* \"contracts/KYCManager.sol\":1644:1859  function modifyManagerAddr(address newManager) public{... */\n      pop\n      jump\t// out\n        /* \"contracts/KYCManager.sol\":1477:1636  function initManagerAddr(uint NFTid, address manager) public onlyOwner {... */\n    tag_44:\n        /* \"@openzeppelin/contracts/access/Ownable.sol\":1259:1271  _msgSender() */\n      tag_136\n        /* \"@openzeppelin/contracts/access/Ownable.sol\":1259:1269  _msgSender */\n      tag_137\n        /* \"@openzeppelin/contracts/access/Ownable.sol\":1259:1271  _msgSender() */\n      jump\t// in\n    tag_136:\n        /* \"@openzeppelin/contracts/access/Ownable.sol\":1248:1271  owner() == _msgSender() */\n      0xffffffffffffffffffffffffffffffffffffffff\n      and\n        /* \"@openzeppelin/contracts/access/Ownable.sol\":1248:1255  owner() */\n      tag_138\n        /* \"@openzeppelin/contracts/access/Ownable.sol\":1248:1253  owner */\n      tag_61\n        /* \"@openzeppelin/contracts/access/Ownable.sol\":1248:1255  owner() */\n      jump\t// in\n    tag_138:\n        /* \"@openzeppelin/contracts/access/Ownable.sol\":1248:1271  owner() == _msgSender() */\n      0xffffffffffffffffffffffffffffffffffffffff\n      and\n      eq\n        /* \"@openzeppelin/contracts/access/Ownable.sol\":1240:1308  require(owner() == _msgSender(), \"Ownable: caller is not the owner\") */\n      tag_139\n      jumpi\n      mload(0x40)\n      0x08c379a000000000000000000000000000000000000000000000000000000000\n      dup2\n      mstore\n      0x04\n      add\n      tag_140\n      swap1\n      tag_141\n      jump\t// in\n    tag_140:\n      mload(0x40)\n      dup1\n      swap2\n      sub\n      swap1\n      revert\n    tag_139:\n        /* \"contracts/KYCManager.sol\":1578:1585  manager */\n      dup1\n        /* \"contracts/KYCManager.sol\":1554:1568  NFTIdToManager */\n      0x02\n        /* \"contracts/KYCManager.sol\":1554:1575  NFTIdToManager[NFTid] */\n      0x00\n        /* \"contracts/KYCManager.sol\":1569:1574  NFTid */\n      dup5\n        /* \"contracts/KYCManager.sol\":1554:1575  NFTIdToManager[NFTid] */\n      dup2\n      mstore\n      0x20\n      add\n      swap1\n      dup2\n      mstore\n      0x20\n      add\n      0x00\n      keccak256\n      0x00\n        /* \"contracts/KYCManager.sol\":1554:1585  NFTIdToManager[NFTid] = manager */\n      0x0100\n      exp\n      dup2\n      sload\n      dup2\n      0xffffffffffffffffffffffffffffffffffffffff\n      mul\n      not\n      and\n      swap1\n      dup4\n      0xffffffffffffffffffffffffffffffffffffffff\n      and\n      mul\n      or\n      swap1\n      sstore\n      pop\n        /* \"contracts/KYCManager.sol\":1626:1631  NFTid */\n      dup2\n        /* \"contracts/KYCManager.sol\":1591:1608  ManagerToUserData */\n      0x03\n        /* \"contracts/KYCManager.sol\":1591:1617  ManagerToUserData[manager] */\n      0x00\n        /* \"contracts/KYCManager.sol\":1609:1616  manager */\n      dup4\n        /* \"contracts/KYCManager.sol\":1591:1617  ManagerToUserData[manager] */\n      0xffffffffffffffffffffffffffffffffffffffff\n      and\n      0xffffffffffffffffffffffffffffffffffffffff\n      and\n      dup2\n      mstore\n      0x20\n      add\n      swap1\n      dup2\n      mstore\n      0x20\n      add\n      0x00\n      keccak256\n        /* \"contracts/KYCManager.sol\":1591:1623  ManagerToUserData[manager].NFTid */\n      0x00\n      add\n        /* \"contracts/KYCManager.sol\":1591:1631  ManagerToUserData[manager].NFTid = NFTid */\n      dup2\n      swap1\n      sstore\n      pop\n        /* \"contracts/KYCManager.sol\":1477:1636  function initManagerAddr(uint NFTid, address manager) public onlyOwner {... */\n      pop\n      pop\n      jump\t// out\n        /* \"contracts/KYCManager.sol\":2556:2689  function managerOfNFTId(uint NFTid) public view returns(address) {... */\n    tag_48:\n        /* \"contracts/KYCManager.sol\":2612:2619  address */\n      0x00\n        /* \"contracts/KYCManager.sol\":2629:2641  address addr */\n      dup1\n        /* \"contracts/KYCManager.sol\":2644:2658  NFTIdToManager */\n      0x02\n        /* \"contracts/KYCManager.sol\":2644:2665  NFTIdToManager[NFTid] */\n      0x00\n        /* \"contracts/KYCManager.sol\":2659:2664  NFTid */\n      dup5\n        /* \"contracts/KYCManager.sol\":2644:2665  NFTIdToManager[NFTid] */\n      dup2\n      mstore\n      0x20\n      add\n      swap1\n      dup2\n      mstore\n      0x20\n      add\n      0x00\n      keccak256\n      0x00\n      swap1\n      sload\n      swap1\n      0x0100\n      exp\n      swap1\n      div\n      0xffffffffffffffffffffffffffffffffffffffff\n      and\n        /* \"contracts/KYCManager.sol\":2629:2665  address addr = NFTIdToManager[NFTid] */\n      swap1\n      pop\n        /* \"contracts/KYCManager.sol\":2680:2684  addr */\n      dup1\n        /* \"contracts/KYCManager.sol\":2673:2684  return addr */\n      swap2\n      pop\n      pop\n        /* \"contracts/KYCManager.sol\":2556:2689  function managerOfNFTId(uint NFTid) public view returns(address) {... */\n      swap2\n      swap1\n      pop\n      jump\t// out\n        /* \"@openzeppelin/contracts/access/Ownable.sol\":1668:1769  function renounceOwnership() public virtual onlyOwner {... */\n    tag_53:\n        /* \"@openzeppelin/contracts/access/Ownable.sol\":1259:1271  _msgSender() */\n      tag_145\n        /* \"@openzeppelin/contracts/access/Ownable.sol\":1259:1269  _msgSender */\n      tag_137\n        /* \"@openzeppelin/contracts/access/Ownable.sol\":1259:1271  _msgSender() */\n      jump\t// in\n    tag_145:\n        /* \"@openzeppelin/contracts/access/Ownable.sol\":1248:1271  owner() == _msgSender() */\n      0xffffffffffffffffffffffffffffffffffffffff\n      and\n        /* \"@openzeppelin/contracts/access/Ownable.sol\":1248:1255  owner() */\n      tag_146\n        /* \"@openzeppelin/contracts/access/Ownable.sol\":1248:1253  owner */\n      tag_61\n        /* \"@openzeppelin/contracts/access/Ownable.sol\":1248:1255  owner() */\n      jump\t// in\n    tag_146:\n        /* \"@openzeppelin/contracts/access/Ownable.sol\":1248:1271  owner() == _msgSender() */\n      0xffffffffffffffffffffffffffffffffffffffff\n      and\n      eq\n        /* \"@openzeppelin/contracts/access/Ownable.sol\":1240:1308  require(owner() == _msgSender(), \"Ownable: caller is not the owner\") */\n      tag_147\n      jumpi\n      mload(0x40)\n      0x08c379a000000000000000000000000000000000000000000000000000000000\n      dup2\n      mstore\n      0x04\n      add\n      tag_148\n      swap1\n      tag_141\n      jump\t// in\n    tag_148:\n      mload(0x40)\n      dup1\n      swap2\n      sub\n      swap1\n      revert\n    tag_147:\n        /* \"@openzeppelin/contracts/access/Ownable.sol\":1732:1762  _transferOwnership(address(0)) */\n      tag_150\n        /* \"@openzeppelin/contracts/access/Ownable.sol\":1759:1760  0 */\n      0x00\n        /* \"@openzeppelin/contracts/access/Ownable.sol\":1732:1750  _transferOwnership */\n      tag_151\n        /* \"@openzeppelin/contracts/access/Ownable.sol\":1732:1762  _transferOwnership(address(0)) */\n      jump\t// in\n    tag_150:\n        /* \"@openzeppelin/contracts/access/Ownable.sol\":1668:1769  function renounceOwnership() public virtual onlyOwner {... */\n      jump\t// out\n        /* \"contracts/KYCManager.sol\":1313:1438  function setNFTAvailableOfNFTId(uint NFTid, bool _available)  public onlyOwner{... */\n    tag_58:\n        /* \"@openzeppelin/contracts/access/Ownable.sol\":1259:1271  _msgSender() */\n      tag_153\n        /* \"@openzeppelin/contracts/access/Ownable.sol\":1259:1269  _msgSender */\n      tag_137\n        /* \"@openzeppelin/contracts/access/Ownable.sol\":1259:1271  _msgSender() */\n      jump\t// in\n    tag_153:\n        /* \"@openzeppelin/contracts/access/Ownable.sol\":1248:1271  owner() == _msgSender() */\n      0xffffffffffffffffffffffffffffffffffffffff\n      and\n        /* \"@openzeppelin/contracts/access/Ownable.sol\":1248:1255  owner() */\n      tag_154\n        /* \"@openzeppelin/contracts/access/Ownable.sol\":1248:1253  owner */\n      tag_61\n        /* \"@openzeppelin/contracts/access/Ownable.sol\":1248:1255  owner() */\n      jump\t// in\n    tag_154:\n        /* \"@openzeppelin/contracts/access/Ownable.sol\":1248:1271  owner() == _msgSender() */\n      0xffffffffffffffffffffffffffffffffffffffff\n      and\n      eq\n        /* \"@openzeppelin/contracts/access/Ownable.sol\":1240:1308  require(owner() == _msgSender(), \"Ownable: caller is not the owner\") */\n      tag_155\n      jumpi\n      mload(0x40)\n      0x08c379a000000000000000000000000000000000000000000000000000000000\n      dup2\n      mstore\n      0x04\n      add\n      tag_156\n      swap1\n      tag_141\n      jump\t// in\n    tag_156:\n      mload(0x40)\n      dup1\n      swap2\n      sub\n      swap1\n      revert\n    tag_155:\n        /* \"contracts/KYCManager.sol\":1423:1433  _available */\n      dup1\n        /* \"contracts/KYCManager.sol\":1397:1413  NFTIdToAvailable */\n      0x04\n        /* \"contracts/KYCManager.sol\":1397:1420  NFTIdToAvailable[NFTid] */\n      0x00\n        /* \"contracts/KYCManager.sol\":1414:1419  NFTid */\n      dup5\n        /* \"contracts/KYCManager.sol\":1397:1420  NFTIdToAvailable[NFTid] */\n      dup2\n      mstore\n      0x20\n      add\n      swap1\n      dup2\n      mstore\n      0x20\n      add\n      0x00\n      keccak256\n      0x00\n        /* \"contracts/KYCManager.sol\":1397:1433  NFTIdToAvailable[NFTid] = _available */\n      0x0100\n      exp\n      dup2\n      sload\n      dup2\n      0xff\n      mul\n      not\n      and\n      swap1\n      dup4\n      iszero\n      iszero\n      mul\n      or\n      swap1\n      sstore\n      pop\n        /* \"contracts/KYCManager.sol\":1313:1438  function setNFTAvailableOfNFTId(uint NFTid, bool _available)  public onlyOwner{... */\n      pop\n      pop\n      jump\t// out\n        /* \"@openzeppelin/contracts/access/Ownable.sol\":1036:1121  function owner() public view virtual returns (address) {... */\n    tag_61:\n        /* \"@openzeppelin/contracts/access/Ownable.sol\":1082:1089  address */\n      0x00\n        /* \"@openzeppelin/contracts/access/Ownable.sol\":1108:1114  _owner */\n      dup1\n      0x00\n      swap1\n      sload\n      swap1\n      0x0100\n      exp\n      swap1\n      div\n      0xffffffffffffffffffffffffffffffffffffffff\n      and\n        /* \"@openzeppelin/contracts/access/Ownable.sol\":1101:1114  return _owner */\n      swap1\n      pop\n        /* \"@openzeppelin/contracts/access/Ownable.sol\":1036:1121  function owner() public view virtual returns (address) {... */\n      swap1\n      jump\t// out\n        /* \"contracts/KYCManager.sol\":2693:2896  function userDataOfNFTId(uint NFTid) public view returns(UserData memory){... */\n    tag_66:\n        /* \"contracts/KYCManager.sol\":2750:2765  UserData memory */\n      tag_159\n      tag_160\n      jump\t// in\n    tag_159:\n        /* \"contracts/KYCManager.sol\":2774:2786  address addr */\n      0x00\n        /* \"contracts/KYCManager.sol\":2789:2803  NFTIdToManager */\n      0x02\n        /* \"contracts/KYCManager.sol\":2789:2810  NFTIdToManager[NFTid] */\n      0x00\n        /* \"contracts/KYCManager.sol\":2804:2809  NFTid */\n      dup5\n        /* \"contracts/KYCManager.sol\":2789:2810  NFTIdToManager[NFTid] */\n      dup2\n      mstore\n      0x20\n      add\n      swap1\n      dup2\n      mstore\n      0x20\n      add\n      0x00\n      keccak256\n      0x00\n      swap1\n      sload\n      swap1\n      0x0100\n      exp\n      swap1\n      div\n      0xffffffffffffffffffffffffffffffffffffffff\n      and\n        /* \"contracts/KYCManager.sol\":2774:2810  address addr = NFTIdToManager[NFTid] */\n      swap1\n      pop\n        /* \"contracts/KYCManager.sol\":2818:2842  UserData memory userdata */\n      0x00\n        /* \"contracts/KYCManager.sol\":2845:2862  ManagerToUserData */\n      0x03\n        /* \"contracts/KYCManager.sol\":2845:2868  ManagerToUserData[addr] */\n      0x00\n        /* \"contracts/KYCManager.sol\":2863:2867  addr */\n      dup4\n        /* \"contracts/KYCManager.sol\":2845:2868  ManagerToUserData[addr] */\n      0xffffffffffffffffffffffffffffffffffffffff\n      and\n      0xffffffffffffffffffffffffffffffffffffffff\n      and\n      dup2\n      mstore\n      0x20\n      add\n      swap1\n      dup2\n      mstore\n      0x20\n      add\n      0x00\n      keccak256\n        /* \"contracts/KYCManager.sol\":2818:2868  UserData memory userdata = ManagerToUserData[addr] */\n      mload(0x40)\n      dup1\n      0x80\n      add\n      0x40\n      mstore\n      swap1\n      dup2\n      0x00\n      dup3\n      add\n      sload\n      dup2\n      mstore\n      0x20\n      add\n      0x01\n      dup3\n      add\n      dup1\n      sload\n      tag_162\n      swap1\n      tag_122\n      jump\t// in\n    tag_162:\n      dup1\n      0x1f\n      add\n      0x20\n      dup1\n      swap2\n      div\n      mul\n      0x20\n      add\n      mload(0x40)\n      swap1\n      dup2\n      add\n      0x40\n      mstore\n      dup1\n      swap3\n      swap2\n      swap1\n      dup2\n      dup2\n      mstore\n      0x20\n      add\n      dup3\n      dup1\n      sload\n      tag_163\n      swap1\n      tag_122\n      jump\t// in\n    tag_163:\n      dup1\n      iszero\n      tag_164\n      jumpi\n      dup1\n      0x1f\n      lt\n      tag_165\n      jumpi\n      0x0100\n      dup1\n      dup4\n      sload\n      div\n      mul\n      dup4\n      mstore\n      swap2\n      0x20\n      add\n      swap2\n      jump(tag_164)\n    tag_165:\n      dup3\n      add\n      swap2\n      swap1\n      0x00\n      mstore\n      keccak256(0x00, 0x20)\n      swap1\n    tag_166:\n      dup2\n      sload\n      dup2\n      mstore\n      swap1\n      0x01\n      add\n      swap1\n      0x20\n      add\n      dup1\n      dup4\n      gt\n      tag_166\n      jumpi\n      dup3\n      swap1\n      sub\n      0x1f\n      and\n      dup3\n      add\n      swap2\n    tag_164:\n      pop\n      pop\n      pop\n      pop\n      pop\n      dup2\n      mstore\n      0x20\n      add\n      0x02\n      dup3\n      add\n      dup1\n      sload\n      tag_167\n      swap1\n      tag_122\n      jump\t// in\n    tag_167:\n      dup1\n      0x1f\n      add\n      0x20\n      dup1\n      swap2\n      div\n      mul\n      0x20\n      add\n      mload(0x40)\n      swap1\n      dup2\n      add\n      0x40\n      mstore\n      dup1\n      swap3\n      swap2\n      swap1\n      dup2\n      dup2\n      mstore\n      0x20\n      add\n      dup3\n      dup1\n      sload\n      tag_168\n      swap1\n      tag_122\n      jump\t// in\n    tag_168:\n      dup1\n      iszero\n      tag_169\n      jumpi\n      dup1\n      0x1f\n      lt\n      tag_170\n      jumpi\n      0x0100\n      dup1\n      dup4\n      sload\n      div\n      mul\n      dup4\n      mstore\n      swap2\n      0x20\n      add\n      swap2\n      jump(tag_169)\n    tag_170:\n      dup3\n      add\n      swap2\n      swap1\n      0x00\n      mstore\n      keccak256(0x00, 0x20)\n      swap1\n    tag_171:\n      dup2\n      sload\n      dup2\n      mstore\n      swap1\n      0x01\n      add\n      swap1\n      0x20\n      add\n      dup1\n      dup4\n      gt\n      tag_171\n      jumpi\n      dup3\n      swap1\n      sub\n      0x1f\n      and\n      dup3\n      add\n      swap2\n    tag_169:\n      pop\n      pop\n      pop\n      pop\n      pop\n      dup2\n      mstore\n      0x20\n      add\n      0x03\n      dup3\n      add\n      sload\n      dup2\n      mstore\n      pop\n      pop\n      swap1\n      pop\n        /* \"contracts/KYCManager.sol\":2883:2891  userdata */\n      dup1\n        /* \"contracts/KYCManager.sol\":2876:2891  return userdata */\n      swap3\n      pop\n      pop\n      pop\n        /* \"contracts/KYCManager.sol\":2693:2896  function userDataOfNFTId(uint NFTid) public view returns(UserData memory){... */\n      swap2\n      swap1\n      pop\n      jump\t// out\n        /* \"contracts/KYCManager.sol\":3945:4632  function verifyTest(... */\n    tag_73:\n        /* \"contracts/KYCManager.sol\":4102:4106  bool */\n      0x00\n        /* \"contracts/KYCManager.sol\":4116:4136  bytes32 computedHash */\n      dup1\n        /* \"contracts/KYCManager.sol\":4139:4143  leaf */\n      dup7\n        /* \"contracts/KYCManager.sol\":4116:4143  bytes32 computedHash = leaf */\n      swap1\n      pop\n        /* \"contracts/KYCManager.sol\":4149:4184  bytes32  [] memory  allcomputedHash */\n      0x00\n        /* \"contracts/KYCManager.sol\":4215:4216  1 */\n      0x01\n        /* \"contracts/KYCManager.sol\":4202:4207  proof */\n      dup8\n      dup8\n        /* \"contracts/KYCManager.sol\":4202:4214  proof.length */\n      swap1\n      pop\n        /* \"contracts/KYCManager.sol\":4202:4216  proof.length+1 */\n      tag_173\n      swap2\n      swap1\n      tag_174\n      jump\t// in\n    tag_173:\n        /* \"contracts/KYCManager.sol\":4188:4217  new bytes32[](proof.length+1) */\n      0xffffffffffffffff\n      dup2\n      gt\n      iszero\n      tag_175\n      jumpi\n      tag_176\n      tag_177\n      jump\t// in\n    tag_176:\n    tag_175:\n      mload(0x40)\n      swap1\n      dup1\n      dup3\n      mstore\n      dup1\n      0x20\n      mul\n      0x20\n      add\n      dup3\n      add\n      0x40\n      mstore\n      dup1\n      iszero\n      tag_178\n      jumpi\n      dup2\n      0x20\n      add\n      0x20\n      dup3\n      mul\n      dup1\n      calldatasize\n      dup4\n      calldatacopy\n      dup1\n      dup3\n      add\n      swap2\n      pop\n      pop\n      swap1\n      pop\n    tag_178:\n      pop\n        /* \"contracts/KYCManager.sol\":4149:4217  bytes32  [] memory  allcomputedHash =  new bytes32[](proof.length+1) */\n      swap1\n      pop\n        /* \"contracts/KYCManager.sol\":4223:4238  allcomputedHash */\n      dup1\n        /* \"contracts/KYCManager.sol\":4239:4240  0 */\n      0x00\n        /* \"contracts/KYCManager.sol\":4223:4241  allcomputedHash[0] */\n      dup2\n      mload\n      dup2\n      lt\n      tag_179\n      jumpi\n      tag_180\n      tag_181\n      jump\t// in\n    tag_180:\n    tag_179:\n      0x20\n      mul\n      0x20\n      add\n      add\n      mload\n      pop\n        /* \"contracts/KYCManager.sol\":4252:4261  uint256 i */\n      0x00\n        /* \"contracts/KYCManager.sol\":4247:4594  for (uint256 i = 0; i < proof.length; i++) {... */\n    tag_182:\n        /* \"contracts/KYCManager.sol\":4271:4276  proof */\n      dup8\n      dup8\n        /* \"contracts/KYCManager.sol\":4271:4283  proof.length */\n      swap1\n      pop\n        /* \"contracts/KYCManager.sol\":4267:4268  i */\n      dup2\n        /* \"contracts/KYCManager.sol\":4267:4283  i < proof.length */\n      lt\n        /* \"contracts/KYCManager.sol\":4247:4594  for (uint256 i = 0; i < proof.length; i++) {... */\n      iszero\n      tag_183\n      jumpi\n        /* \"contracts/KYCManager.sol\":4298:4318  bytes32 proofElement */\n      0x00\n        /* \"contracts/KYCManager.sol\":4321:4326  proof */\n      dup9\n      dup9\n        /* \"contracts/KYCManager.sol\":4327:4328  i */\n      dup4\n        /* \"contracts/KYCManager.sol\":4321:4329  proof[i] */\n      dup2\n      dup2\n      lt\n      tag_185\n      jumpi\n      tag_186\n      tag_181\n      jump\t// in\n    tag_186:\n    tag_185:\n      swap1\n      pop\n      0x20\n      mul\n      add\n      calldataload\n        /* \"contracts/KYCManager.sol\":4298:4329  bytes32 proofElement = proof[i] */\n      swap1\n      pop\n        /* \"contracts/KYCManager.sol\":4358:4359  1 */\n      0x01\n        /* \"contracts/KYCManager.sol\":4342:4351  positions */\n      dup8\n      dup8\n        /* \"contracts/KYCManager.sol\":4352:4353  i */\n      dup5\n        /* \"contracts/KYCManager.sol\":4342:4354  positions[i] */\n      dup2\n      dup2\n      lt\n      tag_187\n      jumpi\n      tag_188\n      tag_181\n      jump\t// in\n    tag_188:\n    tag_187:\n      swap1\n      pop\n      0x20\n      mul\n      add\n      calldataload\n        /* \"contracts/KYCManager.sol\":4342:4359  positions[i] == 1 */\n      eq\n        /* \"contracts/KYCManager.sol\":4338:4588  if (positions[i] == 1) {... */\n      iszero\n      tag_189\n      jumpi\n        /* \"contracts/KYCManager.sol\":4413:4425  computedHash */\n      dup4\n        /* \"contracts/KYCManager.sol\":4427:4439  proofElement */\n      dup2\n        /* \"contracts/KYCManager.sol\":4396:4440  abi.encodePacked(computedHash, proofElement) */\n      add(0x20, mload(0x40))\n      tag_190\n      swap3\n      swap2\n      swap1\n      tag_191\n      jump\t// in\n    tag_190:\n      mload(0x40)\n      0x20\n      dup2\n      dup4\n      sub\n      sub\n      dup2\n      mstore\n      swap1\n      0x40\n      mstore\n        /* \"contracts/KYCManager.sol\":4386:4441  keccak256(abi.encodePacked(computedHash, proofElement)) */\n      dup1\n      mload\n      swap1\n      0x20\n      add\n      keccak256\n        /* \"contracts/KYCManager.sol\":4371:4441  computedHash = keccak256(abi.encodePacked(computedHash, proofElement)) */\n      swap4\n      pop\n        /* \"contracts/KYCManager.sol\":4472:4484  computedHash */\n      dup4\n        /* \"contracts/KYCManager.sol\":4451:4466  allcomputedHash */\n      dup4\n        /* \"contracts/KYCManager.sol\":4467:4468  i */\n      dup4\n        /* \"contracts/KYCManager.sol\":4451:4469  allcomputedHash[i] */\n      dup2\n      mload\n      dup2\n      lt\n      tag_192\n      jumpi\n      tag_193\n      tag_181\n      jump\t// in\n    tag_193:\n    tag_192:\n      0x20\n      mul\n      0x20\n      add\n      add\n        /* \"contracts/KYCManager.sol\":4451:4484  allcomputedHash[i] = computedHash */\n      dup2\n      dup2\n      mstore\n      pop\n      pop\n        /* \"contracts/KYCManager.sol\":4338:4588  if (positions[i] == 1) {... */\n      jump(tag_194)\n    tag_189:\n        /* \"contracts/KYCManager.sol\":4551:4563  proofElement */\n      dup1\n        /* \"contracts/KYCManager.sol\":4565:4577  computedHash */\n      dup5\n        /* \"contracts/KYCManager.sol\":4534:4578  abi.encodePacked(proofElement, computedHash) */\n      add(0x20, mload(0x40))\n      tag_195\n      swap3\n      swap2\n      swap1\n      tag_191\n      jump\t// in\n    tag_195:\n      mload(0x40)\n      0x20\n      dup2\n      dup4\n      sub\n      sub\n      dup2\n      mstore\n      swap1\n      0x40\n      mstore\n        /* \"contracts/KYCManager.sol\":4524:4579  keccak256(abi.encodePacked(proofElement, computedHash)) */\n      dup1\n      mload\n      swap1\n      0x20\n      add\n      keccak256\n        /* \"contracts/KYCManager.sol\":4509:4579  computedHash = keccak256(abi.encodePacked(proofElement, computedHash)) */\n      swap4\n      pop\n        /* \"contracts/KYCManager.sol\":4338:4588  if (positions[i] == 1) {... */\n    tag_194:\n        /* \"contracts/KYCManager.sol\":4290:4594  {... */\n      pop\n        /* \"contracts/KYCManager.sol\":4285:4288  i++ */\n      dup1\n      dup1\n      tag_196\n      swap1\n      tag_197\n      jump\t// in\n    tag_196:\n      swap2\n      pop\n      pop\n        /* \"contracts/KYCManager.sol\":4247:4594  for (uint256 i = 0; i < proof.length; i++) {... */\n      jump(tag_182)\n    tag_183:\n      pop\n        /* \"contracts/KYCManager.sol\":4623:4627  root */\n      dup9\n        /* \"contracts/KYCManager.sol\":4607:4619  computedHash */\n      dup3\n        /* \"contracts/KYCManager.sol\":4607:4627  computedHash == root */\n      eq\n        /* \"contracts/KYCManager.sol\":4600:4627  return computedHash == root */\n      swap3\n      pop\n      pop\n      pop\n        /* \"contracts/KYCManager.sol\":3945:4632  function verifyTest(... */\n      swap7\n      swap6\n      pop\n      pop\n      pop\n      pop\n      pop\n      pop\n      jump\t// out\n        /* \"contracts/KYCManager.sol\":3396:3939  function verify(... */\n    tag_78:\n        /* \"contracts/KYCManager.sol\":3549:3553  bool */\n      0x00\n        /* \"contracts/KYCManager.sol\":3563:3583  bytes32 computedHash */\n      dup1\n        /* \"contracts/KYCManager.sol\":3586:3590  leaf */\n      dup7\n        /* \"contracts/KYCManager.sol\":3563:3590  bytes32 computedHash = leaf */\n      swap1\n      pop\n        /* \"contracts/KYCManager.sol\":3602:3611  uint256 i */\n      0x00\n        /* \"contracts/KYCManager.sol\":3597:3901  for (uint256 i = 0; i < proof.length; i++) {... */\n    tag_199:\n        /* \"contracts/KYCManager.sol\":3621:3626  proof */\n      dup7\n      dup7\n        /* \"contracts/KYCManager.sol\":3621:3633  proof.length */\n      swap1\n      pop\n        /* \"contracts/KYCManager.sol\":3617:3618  i */\n      dup2\n        /* \"contracts/KYCManager.sol\":3617:3633  i < proof.length */\n      lt\n        /* \"contracts/KYCManager.sol\":3597:3901  for (uint256 i = 0; i < proof.length; i++) {... */\n      iszero\n      tag_200\n      jumpi\n        /* \"contracts/KYCManager.sol\":3648:3668  bytes32 proofElement */\n      0x00\n        /* \"contracts/KYCManager.sol\":3671:3676  proof */\n      dup8\n      dup8\n        /* \"contracts/KYCManager.sol\":3677:3678  i */\n      dup4\n        /* \"contracts/KYCManager.sol\":3671:3679  proof[i] */\n      dup2\n      dup2\n      lt\n      tag_202\n      jumpi\n      tag_203\n      tag_181\n      jump\t// in\n    tag_203:\n    tag_202:\n      swap1\n      pop\n      0x20\n      mul\n      add\n      calldataload\n        /* \"contracts/KYCManager.sol\":3648:3679  bytes32 proofElement = proof[i] */\n      swap1\n      pop\n        /* \"contracts/KYCManager.sol\":3708:3709  1 */\n      0x01\n        /* \"contracts/KYCManager.sol\":3692:3701  positions */\n      dup7\n      dup7\n        /* \"contracts/KYCManager.sol\":3702:3703  i */\n      dup5\n        /* \"contracts/KYCManager.sol\":3692:3704  positions[i] */\n      dup2\n      dup2\n      lt\n      tag_204\n      jumpi\n      tag_205\n      tag_181\n      jump\t// in\n    tag_205:\n    tag_204:\n      swap1\n      pop\n      0x20\n      mul\n      add\n      calldataload\n        /* \"contracts/KYCManager.sol\":3692:3709  positions[i] == 1 */\n      eq\n        /* \"contracts/KYCManager.sol\":3688:3895  if (positions[i] == 1) {... */\n      iszero\n      tag_206\n      jumpi\n        /* \"contracts/KYCManager.sol\":3763:3775  computedHash */\n      dup3\n        /* \"contracts/KYCManager.sol\":3777:3789  proofElement */\n      dup2\n        /* \"contracts/KYCManager.sol\":3746:3790  abi.encodePacked(computedHash, proofElement) */\n      add(0x20, mload(0x40))\n      tag_207\n      swap3\n      swap2\n      swap1\n      tag_191\n      jump\t// in\n    tag_207:\n      mload(0x40)\n      0x20\n      dup2\n      dup4\n      sub\n      sub\n      dup2\n      mstore\n      swap1\n      0x40\n      mstore\n        /* \"contracts/KYCManager.sol\":3736:3791  keccak256(abi.encodePacked(computedHash, proofElement)) */\n      dup1\n      mload\n      swap1\n      0x20\n      add\n      keccak256\n        /* \"contracts/KYCManager.sol\":3721:3791  computedHash = keccak256(abi.encodePacked(computedHash, proofElement)) */\n      swap3\n      pop\n        /* \"contracts/KYCManager.sol\":3688:3895  if (positions[i] == 1) {... */\n      jump(tag_208)\n    tag_206:\n        /* \"contracts/KYCManager.sol\":3858:3870  proofElement */\n      dup1\n        /* \"contracts/KYCManager.sol\":3872:3884  computedHash */\n      dup4\n        /* \"contracts/KYCManager.sol\":3841:3885  abi.encodePacked(proofElement, computedHash) */\n      add(0x20, mload(0x40))\n      tag_209\n      swap3\n      swap2\n      swap1\n      tag_191\n      jump\t// in\n    tag_209:\n      mload(0x40)\n      0x20\n      dup2\n      dup4\n      sub\n      sub\n      dup2\n      mstore\n      swap1\n      0x40\n      mstore\n        /* \"contracts/KYCManager.sol\":3831:3886  keccak256(abi.encodePacked(proofElement, computedHash)) */\n      dup1\n      mload\n      swap1\n      0x20\n      add\n      keccak256\n        /* \"contracts/KYCManager.sol\":3816:3886  computedHash = keccak256(abi.encodePacked(proofElement, computedHash)) */\n      swap3\n      pop\n        /* \"contracts/KYCManager.sol\":3688:3895  if (positions[i] == 1) {... */\n    tag_208:\n        /* \"contracts/KYCManager.sol\":3640:3901  {... */\n      pop\n        /* \"contracts/KYCManager.sol\":3635:3638  i++ */\n      dup1\n      dup1\n      tag_210\n      swap1\n      tag_197\n      jump\t// in\n    tag_210:\n      swap2\n      pop\n      pop\n        /* \"contracts/KYCManager.sol\":3597:3901  for (uint256 i = 0; i < proof.length; i++) {... */\n      jump(tag_199)\n    tag_200:\n      pop\n        /* \"contracts/KYCManager.sol\":3930:3934  root */\n      dup8\n        /* \"contracts/KYCManager.sol\":3914:3926  computedHash */\n      dup2\n        /* \"contracts/KYCManager.sol\":3914:3934  computedHash == root */\n      eq\n        /* \"contracts/KYCManager.sol\":3907:3934  return computedHash == root */\n      swap2\n      pop\n      pop\n        /* \"contracts/KYCManager.sol\":3396:3939  function verify(... */\n      swap7\n      swap6\n      pop\n      pop\n      pop\n      pop\n      pop\n      pop\n      jump\t// out\n        /* \"contracts/KYCManager.sol\":2900:3077  function userDataOfManager(address managerAddr) public view returns(UserData memory){... */\n    tag_83:\n        /* \"contracts/KYCManager.sol\":2968:2983  UserData memory */\n      tag_211\n      tag_160\n      jump\t// in\n    tag_211:\n        /* \"contracts/KYCManager.sol\":2992:3016  UserData memory userdata */\n      0x00\n        /* \"contracts/KYCManager.sol\":3019:3036  ManagerToUserData */\n      0x03\n        /* \"contracts/KYCManager.sol\":3019:3049  ManagerToUserData[managerAddr] */\n      0x00\n        /* \"contracts/KYCManager.sol\":3037:3048  managerAddr */\n      dup5\n        /* \"contracts/KYCManager.sol\":3019:3049  ManagerToUserData[managerAddr] */\n      0xffffffffffffffffffffffffffffffffffffffff\n      and\n      0xffffffffffffffffffffffffffffffffffffffff\n      and\n      dup2\n      mstore\n      0x20\n      add\n      swap1\n      dup2\n      mstore\n      0x20\n      add\n      0x00\n      keccak256\n        /* \"contracts/KYCManager.sol\":2992:3049  UserData memory userdata = ManagerToUserData[managerAddr] */\n      mload(0x40)\n      dup1\n      0x80\n      add\n      0x40\n      mstore\n      swap1\n      dup2\n      0x00\n      dup3\n      add\n      sload\n      dup2\n      mstore\n      0x20\n      add\n      0x01\n      dup3\n      add\n      dup1\n      sload\n      tag_213\n      swap1\n      tag_122\n      jump\t// in\n    tag_213:\n      dup1\n      0x1f\n      add\n      0x20\n      dup1\n      swap2\n      div\n      mul\n      0x20\n      add\n      mload(0x40)\n      swap1\n      dup2\n      add\n      0x40\n      mstore\n      dup1\n      swap3\n      swap2\n      swap1\n      dup2\n      dup2\n      mstore\n      0x20\n      add\n      dup3\n      dup1\n      sload\n      tag_214\n      swap1\n      tag_122\n      jump\t// in\n    tag_214:\n      dup1\n      iszero\n      tag_215\n      jumpi\n      dup1\n      0x1f\n      lt\n      tag_216\n      jumpi\n      0x0100\n      dup1\n      dup4\n      sload\n      div\n      mul\n      dup4\n      mstore\n      swap2\n      0x20\n      add\n      swap2\n      jump(tag_215)\n    tag_216:\n      dup3\n      add\n      swap2\n      swap1\n      0x00\n      mstore\n      keccak256(0x00, 0x20)\n      swap1\n    tag_217:\n      dup2\n      sload\n      dup2\n      mstore\n      swap1\n      0x01\n      add\n      swap1\n      0x20\n      add\n      dup1\n      dup4\n      gt\n      tag_217\n      jumpi\n      dup3\n      swap1\n      sub\n      0x1f\n      and\n      dup3\n      add\n      swap2\n    tag_215:\n      pop\n      pop\n      pop\n      pop\n      pop\n      dup2\n      mstore\n      0x20\n      add\n      0x02\n      dup3\n      add\n      dup1\n      sload\n      tag_218\n      swap1\n      tag_122\n      jump\t// in\n    tag_218:\n      dup1\n      0x1f\n      add\n      0x20\n      dup1\n      swap2\n      div\n      mul\n      0x20\n      add\n      mload(0x40)\n      swap1\n      dup2\n      add\n      0x40\n      mstore\n      dup1\n      swap3\n      swap2\n      swap1\n      dup2\n      dup2\n      mstore\n      0x20\n      add\n      dup3\n      dup1\n      sload\n      tag_219\n      swap1\n      tag_122\n      jump\t// in\n    tag_219:\n      dup1\n      iszero\n      tag_220\n      jumpi\n      dup1\n      0x1f\n      lt\n      tag_221\n      jumpi\n      0x0100\n      dup1\n      dup4\n      sload\n      div\n      mul\n      dup4\n      mstore\n      swap2\n      0x20\n      add\n      swap2\n      jump(tag_220)\n    tag_221:\n      dup3\n      add\n      swap2\n      swap1\n      0x00\n      mstore\n      keccak256(0x00, 0x20)\n      swap1\n    tag_222:\n      dup2\n      sload\n      dup2\n      mstore\n      swap1\n      0x01\n      add\n      swap1\n      0x20\n      add\n      dup1\n      dup4\n      gt\n      tag_222\n      jumpi\n      dup3\n      swap1\n      sub\n      0x1f\n      and\n      dup3\n      add\n      swap2\n    tag_220:\n      pop\n      pop\n      pop\n      pop\n      pop\n      dup2\n      mstore\n      0x20\n      add\n      0x03\n      dup3\n      add\n      sload\n      dup2\n      mstore\n      pop\n      pop\n      swap1\n      pop\n        /* \"contracts/KYCManager.sol\":3064:3072  userdata */\n      dup1\n        /* \"contracts/KYCManager.sol\":3057:3072  return userdata */\n      swap2\n      pop\n      pop\n        /* \"contracts/KYCManager.sol\":2900:3077  function userDataOfManager(address managerAddr) public view returns(UserData memory){... */\n      swap2\n      swap1\n      pop\n      jump\t// out\n        /* \"contracts/KYCManager.sol\":3191:3360  function NFTIdOfManager(address managerAddr) public view returns(uint){... */\n    tag_88:\n        /* \"contracts/KYCManager.sol\":3256:3260  uint */\n      0x00\n        /* \"contracts/KYCManager.sol\":3269:3293  UserData memory userdata */\n      dup1\n        /* \"contracts/KYCManager.sol\":3296:3313  ManagerToUserData */\n      0x03\n        /* \"contracts/KYCManager.sol\":3296:3326  ManagerToUserData[managerAddr] */\n      0x00\n        /* \"contracts/KYCManager.sol\":3314:3325  managerAddr */\n      dup5\n        /* \"contracts/KYCManager.sol\":3296:3326  ManagerToUserData[managerAddr] */\n      0xffffffffffffffffffffffffffffffffffffffff\n      and\n      0xffffffffffffffffffffffffffffffffffffffff\n      and\n      dup2\n      mstore\n      0x20\n      add\n      swap1\n      dup2\n      mstore\n      0x20\n      add\n      0x00\n      keccak256\n        /* \"contracts/KYCManager.sol\":3269:3326  UserData memory userdata = ManagerToUserData[managerAddr] */\n      mload(0x40)\n      dup1\n      0x80\n      add\n      0x40\n      mstore\n      swap1\n      dup2\n      0x00\n      dup3\n      add\n      sload\n      dup2\n      mstore\n      0x20\n      add\n      0x01\n      dup3\n      add\n      dup1\n      sload\n      tag_224\n      swap1\n      tag_122\n      jump\t// in\n    tag_224:\n      dup1\n      0x1f\n      add\n      0x20\n      dup1\n      swap2\n      div\n      mul\n      0x20\n      add\n      mload(0x40)\n      swap1\n      dup2\n      add\n      0x40\n      mstore\n      dup1\n      swap3\n      swap2\n      swap1\n      dup2\n      dup2\n      mstore\n      0x20\n      add\n      dup3\n      dup1\n      sload\n      tag_225\n      swap1\n      tag_122\n      jump\t// in\n    tag_225:\n      dup1\n      iszero\n      tag_226\n      jumpi\n      dup1\n      0x1f\n      lt\n      tag_227\n      jumpi\n      0x0100\n      dup1\n      dup4\n      sload\n      div\n      mul\n      dup4\n      mstore\n      swap2\n      0x20\n      add\n      swap2\n      jump(tag_226)\n    tag_227:\n      dup3\n      add\n      swap2\n      swap1\n      0x00\n      mstore\n      keccak256(0x00, 0x20)\n      swap1\n    tag_228:\n      dup2\n      sload\n      dup2\n      mstore\n      swap1\n      0x01\n      add\n      swap1\n      0x20\n      add\n      dup1\n      dup4\n      gt\n      tag_228\n      jumpi\n      dup3\n      swap1\n      sub\n      0x1f\n      and\n      dup3\n      add\n      swap2\n    tag_226:\n      pop\n      pop\n      pop\n      pop\n      pop\n      dup2\n      mstore\n      0x20\n      add\n      0x02\n      dup3\n      add\n      dup1\n      sload\n      tag_229\n      swap1\n      tag_122\n      jump\t// in\n    tag_229:\n      dup1\n      0x1f\n      add\n      0x20\n      dup1\n      swap2\n      div\n      mul\n      0x20\n      add\n      mload(0x40)\n      swap1\n      dup2\n      add\n      0x40\n      mstore\n      dup1\n      swap3\n      swap2\n      swap1\n      dup2\n      dup2\n      mstore\n      0x20\n      add\n      dup3\n      dup1\n      sload\n      tag_230\n      swap1\n      tag_122\n      jump\t// in\n    tag_230:\n      dup1\n      iszero\n      tag_231\n      jumpi\n      dup1\n      0x1f\n      lt\n      tag_232\n      jumpi\n      0x0100\n      dup1\n      dup4\n      sload\n      div\n      mul\n      dup4\n      mstore\n      swap2\n      0x20\n      add\n      swap2\n      jump(tag_231)\n    tag_232:\n      dup3\n      add\n      swap2\n      swap1\n      0x00\n      mstore\n      keccak256(0x00, 0x20)\n      swap1\n    tag_233:\n      dup2\n      sload\n      dup2\n      mstore\n      swap1\n      0x01\n      add\n      swap1\n      0x20\n      add\n      dup1\n      dup4\n      gt\n      tag_233\n      jumpi\n      dup3\n      swap1\n      sub\n      0x1f\n      and\n      dup3\n      add\n      swap2\n    tag_231:\n      pop\n      pop\n      pop\n      pop\n      pop\n      dup2\n      mstore\n      0x20\n      add\n      0x03\n      dup3\n      add\n      sload\n      dup2\n      mstore\n      pop\n      pop\n      swap1\n      pop\n        /* \"contracts/KYCManager.sol\":3341:3349  userdata */\n      dup1\n        /* \"contracts/KYCManager.sol\":3341:3355  userdata.NFTid */\n      0x00\n      add\n      mload\n        /* \"contracts/KYCManager.sol\":3334:3355  return userdata.NFTid */\n      swap2\n      pop\n      pop\n        /* \"contracts/KYCManager.sol\":3191:3360  function NFTIdOfManager(address managerAddr) public view returns(uint){... */\n      swap2\n      swap1\n      pop\n      jump\t// out\n        /* \"contracts/KYCManager.sol\":1896:2147  function updateAccumulator(string memory _accumulator, string memory _n, uint256 _g) public {... */\n    tag_95:\n        /* \"contracts/KYCManager.sol\":1996:2021  UserData storage userdata */\n      0x00\n        /* \"contracts/KYCManager.sol\":2024:2041  ManagerToUserData */\n      0x03\n        /* \"contracts/KYCManager.sol\":2024:2053  ManagerToUserData[msg.sender] */\n      0x00\n        /* \"contracts/KYCManager.sol\":2042:2052  msg.sender */\n      caller\n        /* \"contracts/KYCManager.sol\":2024:2053  ManagerToUserData[msg.sender] */\n      0xffffffffffffffffffffffffffffffffffffffff\n      and\n      0xffffffffffffffffffffffffffffffffffffffff\n      and\n      dup2\n      mstore\n      0x20\n      add\n      swap1\n      dup2\n      mstore\n      0x20\n      add\n      0x00\n      keccak256\n        /* \"contracts/KYCManager.sol\":1996:2053  UserData storage userdata = ManagerToUserData[msg.sender] */\n      swap1\n      pop\n        /* \"contracts/KYCManager.sol\":2084:2096  _accumulator */\n      dup4\n        /* \"contracts/KYCManager.sol\":2061:2069  userdata */\n      dup2\n        /* \"contracts/KYCManager.sol\":2061:2081  userdata.accumulator */\n      0x01\n      add\n        /* \"contracts/KYCManager.sol\":2061:2096  userdata.accumulator = _accumulator */\n      swap1\n      dup1\n      mload\n      swap1\n      0x20\n      add\n      swap1\n      tag_235\n      swap3\n      swap2\n      swap1\n      tag_133\n      jump\t// in\n    tag_235:\n      pop\n        /* \"contracts/KYCManager.sol\":2117:2119  _n */\n      dup3\n        /* \"contracts/KYCManager.sol\":2104:2112  userdata */\n      dup2\n        /* \"contracts/KYCManager.sol\":2104:2114  userdata.n */\n      0x02\n      add\n        /* \"contracts/KYCManager.sol\":2104:2119  userdata.n = _n */\n      swap1\n      dup1\n      mload\n      swap1\n      0x20\n      add\n      swap1\n      tag_236\n      swap3\n      swap2\n      swap1\n      tag_133\n      jump\t// in\n    tag_236:\n      pop\n        /* \"contracts/KYCManager.sol\":2140:2142  _g */\n      dup2\n        /* \"contracts/KYCManager.sol\":2127:2135  userdata */\n      dup2\n        /* \"contracts/KYCManager.sol\":2127:2137  userdata.g */\n      0x03\n      add\n        /* \"contracts/KYCManager.sol\":2127:2142  userdata.g = _g */\n      dup2\n      swap1\n      sstore\n      pop\n        /* \"contracts/KYCManager.sol\":1988:2147  {... */\n      pop\n        /* \"contracts/KYCManager.sol\":1896:2147  function updateAccumulator(string memory _accumulator, string memory _n, uint256 _g) public {... */\n      pop\n      pop\n      pop\n      jump\t// out\n        /* \"contracts/KYCManager.sol\":902:1307  function createKYCNFT(string memory tokenUrl, address manager, uint expirationTime) public onlyOwner{... */\n    tag_100:\n        /* \"@openzeppelin/contracts/access/Ownable.sol\":1259:1271  _msgSender() */\n      tag_238\n        /* \"@openzeppelin/contracts/access/Ownable.sol\":1259:1269  _msgSender */\n      tag_137\n        /* \"@openzeppelin/contracts/access/Ownable.sol\":1259:1271  _msgSender() */\n      jump\t// in\n    tag_238:\n        /* \"@openzeppelin/contracts/access/Ownable.sol\":1248:1271  owner() == _msgSender() */\n      0xffffffffffffffffffffffffffffffffffffffff\n      and\n        /* \"@openzeppelin/contracts/access/Ownable.sol\":1248:1255  owner() */\n      tag_239\n        /* \"@openzeppelin/contracts/access/Ownable.sol\":1248:1253  owner */\n      tag_61\n        /* \"@openzeppelin/contracts/access/Ownable.sol\":1248:1255  owner() */\n      jump\t// in\n    tag_239:\n        /* \"@openzeppelin/contracts/access/Ownable.sol\":1248:1271  owner() == _msgSender() */\n      0xffffffffffffffffffffffffffffffffffffffff\n      and\n      eq\n        /* \"@openzeppelin/contracts/access/Ownable.sol\":1240:1308  require(owner() == _msgSender(), \"Ownable: caller is not the owner\") */\n      tag_240\n      jumpi\n      mload(0x40)\n      0x08c379a000000000000000000000000000000000000000000000000000000000\n      dup2\n      mstore\n      0x04\n      add\n      tag_241\n      swap1\n      tag_141\n      jump\t// in\n    tag_241:\n      mload(0x40)\n      dup1\n      swap2\n      sub\n      swap1\n      revert\n    tag_240:\n        /* \"contracts/KYCManager.sol\":1050:1071  address kycnftmanager */\n      0x00\n        /* \"contracts/KYCManager.sol\":1084:1088  this */\n      address\n        /* \"contracts/KYCManager.sol\":1050:1089  address kycnftmanager = (address)(this) */\n      swap1\n      pop\n        /* \"contracts/KYCManager.sol\":1095:1108  uint256 NFTid */\n      0x00\n        /* \"contracts/KYCManager.sol\":1111:1125  kycNFTContract */\n      0x01\n      0x00\n      swap1\n      sload\n      swap1\n      0x0100\n      exp\n      swap1\n      div\n      0xffffffffffffffffffffffffffffffffffffffff\n      and\n        /* \"contracts/KYCManager.sol\":1111:1135  kycNFTContract.awardItem */\n      0xffffffffffffffffffffffffffffffffffffffff\n      and\n      0xcf378343\n        /* \"contracts/KYCManager.sol\":1136:1149  kycnftmanager */\n      dup4\n        /* \"contracts/KYCManager.sol\":1151:1159  tokenUrl */\n      dup8\n        /* \"contracts/KYCManager.sol\":1111:1160  kycNFTContract.awardItem(kycnftmanager, tokenUrl) */\n      mload(0x40)\n      dup4\n      0xffffffff\n      and\n      0xe0\n      shl\n      dup2\n      mstore\n      0x04\n      add\n      tag_243\n      swap3\n      swap2\n      swap1\n      tag_244\n      jump\t// in\n    tag_243:\n      0x20\n      mload(0x40)\n      dup1\n      dup4\n      sub\n      dup2\n      0x00\n      dup8\n      dup1\n      extcodesize\n      iszero\n      dup1\n      iszero\n      tag_245\n      jumpi\n      0x00\n      dup1\n      revert\n    tag_245:\n      pop\n      gas\n      call\n      iszero\n      dup1\n      iszero\n      tag_247\n      jumpi\n      returndatasize\n      0x00\n      dup1\n      returndatacopy\n      revert(0x00, returndatasize)\n    tag_247:\n      pop\n      pop\n      pop\n      pop\n      mload(0x40)\n      returndatasize\n      not(0x1f)\n      0x1f\n      dup3\n      add\n      and\n      dup3\n      add\n      dup1\n      0x40\n      mstore\n      pop\n      dup2\n      add\n      swap1\n      tag_248\n      swap2\n      swap1\n      tag_249\n      jump\t// in\n    tag_248:\n        /* \"contracts/KYCManager.sol\":1095:1160  uint256 NFTid = kycNFTContract.awardItem(kycnftmanager, tokenUrl) */\n      swap1\n      pop\n        /* \"contracts/KYCManager.sol\":1166:1180  kycNFTContract */\n      0x01\n      0x00\n      swap1\n      sload\n      swap1\n      0x0100\n      exp\n      swap1\n      div\n      0xffffffffffffffffffffffffffffffffffffffff\n      and\n        /* \"contracts/KYCManager.sol\":1166:1201  kycNFTContract.updateExpirationTime */\n      0xffffffffffffffffffffffffffffffffffffffff\n      and\n      0xe1b2e979\n        /* \"contracts/KYCManager.sol\":1202:1207  NFTid */\n      dup3\n        /* \"contracts/KYCManager.sol\":1209:1223  expirationTime */\n      dup6\n        /* \"contracts/KYCManager.sol\":1166:1224  kycNFTContract.updateExpirationTime(NFTid, expirationTime) */\n      mload(0x40)\n      dup4\n      0xffffffff\n      and\n      0xe0\n      shl\n      dup2\n      mstore\n      0x04\n      add\n      tag_250\n      swap3\n      swap2\n      swap1\n      tag_251\n      jump\t// in\n    tag_250:\n      0x00\n      mload(0x40)\n      dup1\n      dup4\n      sub\n      dup2\n      0x00\n      dup8\n      dup1\n      extcodesize\n      iszero\n      dup1\n      iszero\n      tag_252\n      jumpi\n      0x00\n      dup1\n      revert\n    tag_252:\n      pop\n      gas\n      call\n      iszero\n      dup1\n      iszero\n      tag_254\n      jumpi\n      returndatasize\n      0x00\n      dup1\n      returndatacopy\n      revert(0x00, returndatasize)\n    tag_254:\n      pop\n      pop\n      pop\n      pop\n        /* \"contracts/KYCManager.sol\":1230:1265  setNFTAvailableOfNFTId(NFTid, true) */\n      tag_255\n        /* \"contracts/KYCManager.sol\":1253:1258  NFTid */\n      dup2\n        /* \"contracts/KYCManager.sol\":1260:1264  true */\n      0x01\n        /* \"contracts/KYCManager.sol\":1230:1252  setNFTAvailableOfNFTId */\n      tag_58\n        /* \"contracts/KYCManager.sol\":1230:1265  setNFTAvailableOfNFTId(NFTid, true) */\n      jump\t// in\n    tag_255:\n        /* \"contracts/KYCManager.sol\":1271:1302  initManagerAddr(NFTid, manager) */\n      tag_256\n        /* \"contracts/KYCManager.sol\":1287:1292  NFTid */\n      dup2\n        /* \"contracts/KYCManager.sol\":1294:1301  manager */\n      dup6\n        /* \"contracts/KYCManager.sol\":1271:1286  initManagerAddr */\n      tag_44\n        /* \"contracts/KYCManager.sol\":1271:1302  initManagerAddr(NFTid, manager) */\n      jump\t// in\n    tag_256:\n        /* \"contracts/KYCManager.sol\":1002:1307  {... */\n      pop\n      pop\n        /* \"contracts/KYCManager.sol\":902:1307  function createKYCNFT(string memory tokenUrl, address manager, uint expirationTime) public onlyOwner{... */\n      pop\n      pop\n      pop\n      jump\t// out\n        /* \"contracts/KYCManager.sol\":2341:2521  function updateAccumulatorValue(string memory _accumulator) public {... */\n    tag_105:\n        /* \"contracts/KYCManager.sol\":2416:2441  UserData storage userdata */\n      0x00\n        /* \"contracts/KYCManager.sol\":2444:2461  ManagerToUserData */\n      0x03\n        /* \"contracts/KYCManager.sol\":2444:2473  ManagerToUserData[msg.sender] */\n      0x00\n        /* \"contracts/KYCManager.sol\":2462:2472  msg.sender */\n      caller\n        /* \"contracts/KYCManager.sol\":2444:2473  ManagerToUserData[msg.sender] */\n      0xffffffffffffffffffffffffffffffffffffffff\n      and\n      0xffffffffffffffffffffffffffffffffffffffff\n      and\n      dup2\n      mstore\n      0x20\n      add\n      swap1\n      dup2\n      mstore\n      0x20\n      add\n      0x00\n      keccak256\n        /* \"contracts/KYCManager.sol\":2416:2473  UserData storage userdata = ManagerToUserData[msg.sender] */\n      swap1\n      pop\n        /* \"contracts/KYCManager.sol\":2504:2516  _accumulator */\n      dup2\n        /* \"contracts/KYCManager.sol\":2481:2489  userdata */\n      dup2\n        /* \"contracts/KYCManager.sol\":2481:2501  userdata.accumulator */\n      0x01\n      add\n        /* \"contracts/KYCManager.sol\":2481:2516  userdata.accumulator = _accumulator */\n      swap1\n      dup1\n      mload\n      swap1\n      0x20\n      add\n      swap1\n      tag_258\n      swap3\n      swap2\n      swap1\n      tag_133\n      jump\t// in\n    tag_258:\n      pop\n        /* \"contracts/KYCManager.sol\":2408:2521  {... */\n      pop\n        /* \"contracts/KYCManager.sol\":2341:2521  function updateAccumulatorValue(string memory _accumulator) public {... */\n      pop\n      jump\t// out\n        /* \"@openzeppelin/contracts/access/Ownable.sol\":1918:2116  function transferOwnership(address newOwner) public virtual onlyOwner {... */\n    tag_109:\n        /* \"@openzeppelin/contracts/access/Ownable.sol\":1259:1271  _msgSender() */\n      tag_260\n        /* \"@openzeppelin/contracts/access/Ownable.sol\":1259:1269  _msgSender */\n      tag_137\n        /* \"@openzeppelin/contracts/access/Ownable.sol\":1259:1271  _msgSender() */\n      jump\t// in\n    tag_260:\n        /* \"@openzeppelin/contracts/access/Ownable.sol\":1248:1271  owner() == _msgSender() */\n      0xffffffffffffffffffffffffffffffffffffffff\n      and\n        /* \"@openzeppelin/contracts/access/Ownable.sol\":1248:1255  owner() */\n      tag_261\n        /* \"@openzeppelin/contracts/access/Ownable.sol\":1248:1253  owner */\n      tag_61\n        /* \"@openzeppelin/contracts/access/Ownable.sol\":1248:1255  owner() */\n      jump\t// in\n    tag_261:\n        /* \"@openzeppelin/contracts/access/Ownable.sol\":1248:1271  owner() == _msgSender() */\n      0xffffffffffffffffffffffffffffffffffffffff\n      and\n      eq\n        /* \"@openzeppelin/contracts/access/Ownable.sol\":1240:1308  require(owner() == _msgSender(), \"Ownable: caller is not the owner\") */\n      tag_262\n      jumpi\n      mload(0x40)\n      0x08c379a000000000000000000000000000000000000000000000000000000000\n      dup2\n      mstore\n      0x04\n      add\n      tag_263\n      swap1\n      tag_141\n      jump\t// in\n    tag_263:\n      mload(0x40)\n      dup1\n      swap2\n      sub\n      swap1\n      revert\n    tag_262:\n        /* \"@openzeppelin/contracts/access/Ownable.sol\":2026:2027  0 */\n      0x00\n        /* \"@openzeppelin/contracts/access/Ownable.sol\":2006:2028  newOwner != address(0) */\n      0xffffffffffffffffffffffffffffffffffffffff\n      and\n        /* \"@openzeppelin/contracts/access/Ownable.sol\":2006:2014  newOwner */\n      dup2\n        /* \"@openzeppelin/contracts/access/Ownable.sol\":2006:2028  newOwner != address(0) */\n      0xffffffffffffffffffffffffffffffffffffffff\n      and\n      eq\n      iszero\n        /* \"@openzeppelin/contracts/access/Ownable.sol\":1998:2071  require(newOwner != address(0), \"Ownable: new owner is the zero address\") */\n      tag_265\n      jumpi\n      mload(0x40)\n      0x08c379a000000000000000000000000000000000000000000000000000000000\n      dup2\n      mstore\n      0x04\n      add\n      tag_266\n      swap1\n      tag_267\n      jump\t// in\n    tag_266:\n      mload(0x40)\n      dup1\n      swap2\n      sub\n      swap1\n      revert\n    tag_265:\n        /* \"@openzeppelin/contracts/access/Ownable.sol\":2081:2109  _transferOwnership(newOwner) */\n      tag_268\n        /* \"@openzeppelin/contracts/access/Ownable.sol\":2100:2108  newOwner */\n      dup2\n        /* \"@openzeppelin/contracts/access/Ownable.sol\":2081:2099  _transferOwnership */\n      tag_151\n        /* \"@openzeppelin/contracts/access/Ownable.sol\":2081:2109  _transferOwnership(newOwner) */\n      jump\t// in\n    tag_268:\n        /* \"@openzeppelin/contracts/access/Ownable.sol\":1918:2116  function transferOwnership(address newOwner) public virtual onlyOwner {... */\n      pop\n      jump\t// out\n        /* \"contracts/KYCManager.sol\":2151:2337  function updateAccumulatorPublicKey(string memory _n, uint _g) public {... */\n    tag_114:\n        /* \"contracts/KYCManager.sol\":2229:2254  UserData storage userdata */\n      0x00\n        /* \"contracts/KYCManager.sol\":2257:2274  ManagerToUserData */\n      0x03\n        /* \"contracts/KYCManager.sol\":2257:2286  ManagerToUserData[msg.sender] */\n      0x00\n        /* \"contracts/KYCManager.sol\":2275:2285  msg.sender */\n      caller\n        /* \"contracts/KYCManager.sol\":2257:2286  ManagerToUserData[msg.sender] */\n      0xffffffffffffffffffffffffffffffffffffffff\n      and\n      0xffffffffffffffffffffffffffffffffffffffff\n      and\n      dup2\n      mstore\n      0x20\n      add\n      swap1\n      dup2\n      mstore\n      0x20\n      add\n      0x00\n      keccak256\n        /* \"contracts/KYCManager.sol\":2229:2286  UserData storage userdata = ManagerToUserData[msg.sender] */\n      swap1\n      pop\n        /* \"contracts/KYCManager.sol\":2307:2309  _n */\n      dup3\n        /* \"contracts/KYCManager.sol\":2294:2302  userdata */\n      dup2\n        /* \"contracts/KYCManager.sol\":2294:2304  userdata.n */\n      0x02\n      add\n        /* \"contracts/KYCManager.sol\":2294:2309  userdata.n = _n */\n      swap1\n      dup1\n      mload\n      swap1\n      0x20\n      add\n      swap1\n      tag_270\n      swap3\n      swap2\n      swap1\n      tag_133\n      jump\t// in\n    tag_270:\n      pop\n        /* \"contracts/KYCManager.sol\":2330:2332  _g */\n      dup2\n        /* \"contracts/KYCManager.sol\":2317:2325  userdata */\n      dup2\n        /* \"contracts/KYCManager.sol\":2317:2327  userdata.g */\n      0x03\n      add\n        /* \"contracts/KYCManager.sol\":2317:2332  userdata.g = _g */\n      dup2\n      swap1\n      sstore\n      pop\n        /* \"contracts/KYCManager.sol\":2221:2337  {... */\n      pop\n        /* \"contracts/KYCManager.sol\":2151:2337  function updateAccumulatorPublicKey(string memory _n, uint _g) public {... */\n      pop\n      pop\n      jump\t// out\n        /* \"contracts/KYCManager.sol\":752:896  function setKYCNFTContractAddress(address _kycnftContractAddr) public onlyOwner {... */\n    tag_118:\n        /* \"@openzeppelin/contracts/access/Ownable.sol\":1259:1271  _msgSender() */\n      tag_272\n        /* \"@openzeppelin/contracts/access/Ownable.sol\":1259:1269  _msgSender */\n      tag_137\n        /* \"@openzeppelin/contracts/access/Ownable.sol\":1259:1271  _msgSender() */\n      jump\t// in\n    tag_272:\n        /* \"@openzeppelin/contracts/access/Ownable.sol\":1248:1271  owner() == _msgSender() */\n      0xffffffffffffffffffffffffffffffffffffffff\n      and\n        /* \"@openzeppelin/contracts/access/Ownable.sol\":1248:1255  owner() */\n      tag_273\n        /* \"@openzeppelin/contracts/access/Ownable.sol\":1248:1253  owner */\n      tag_61\n        /* \"@openzeppelin/contracts/access/Ownable.sol\":1248:1255  owner() */\n      jump\t// in\n    tag_273:\n        /* \"@openzeppelin/contracts/access/Ownable.sol\":1248:1271  owner() == _msgSender() */\n      0xffffffffffffffffffffffffffffffffffffffff\n      and\n      eq\n        /* \"@openzeppelin/contracts/access/Ownable.sol\":1240:1308  require(owner() == _msgSender(), \"Ownable: caller is not the owner\") */\n      tag_274\n      jumpi\n      mload(0x40)\n      0x08c379a000000000000000000000000000000000000000000000000000000000\n      dup2\n      mstore\n      0x04\n      add\n      tag_275\n      swap1\n      tag_141\n      jump\t// in\n    tag_275:\n      mload(0x40)\n      dup1\n      swap2\n      sub\n      swap1\n      revert\n    tag_274:\n        /* \"contracts/KYCManager.sol\":871:890  _kycnftContractAddr */\n      dup1\n        /* \"contracts/KYCManager.sol\":838:852  kycNFTContract */\n      0x01\n      0x00\n        /* \"contracts/KYCManager.sol\":838:891  kycNFTContract = KYCNFTInterface(_kycnftContractAddr) */\n      0x0100\n      exp\n      dup2\n      sload\n      dup2\n      0xffffffffffffffffffffffffffffffffffffffff\n      mul\n      not\n      and\n      swap1\n      dup4\n      0xffffffffffffffffffffffffffffffffffffffff\n      and\n      mul\n      or\n      swap1\n      sstore\n      pop\n        /* \"contracts/KYCManager.sol\":752:896  function setKYCNFTContractAddress(address _kycnftContractAddr) public onlyOwner {... */\n      pop\n      jump\t// out\n        /* \"@openzeppelin/contracts/utils/Context.sol\":640:736  function _msgSender() internal view virtual returns (address) {... */\n    tag_137:\n        /* \"@openzeppelin/contracts/utils/Context.sol\":693:700  address */\n      0x00\n        /* \"@openzeppelin/contracts/utils/Context.sol\":719:729  msg.sender */\n      caller\n        /* \"@openzeppelin/contracts/utils/Context.sol\":712:729  return msg.sender */\n      swap1\n      pop\n        /* \"@openzeppelin/contracts/utils/Context.sol\":640:736  function _msgSender() internal view virtual returns (address) {... */\n      swap1\n      jump\t// out\n        /* \"@openzeppelin/contracts/access/Ownable.sol\":2270:2457  function _transferOwnership(address newOwner) internal virtual {... */\n    tag_151:\n        /* \"@openzeppelin/contracts/access/Ownable.sol\":2343:2359  address oldOwner */\n      0x00\n        /* \"@openzeppelin/contracts/access/Ownable.sol\":2362:2368  _owner */\n      dup1\n      0x00\n      swap1\n      sload\n      swap1\n      0x0100\n      exp\n      swap1\n      div\n      0xffffffffffffffffffffffffffffffffffffffff\n      and\n        /* \"@openzeppelin/contracts/access/Ownable.sol\":2343:2368  address oldOwner = _owner */\n      swap1\n      pop\n        /* \"@openzeppelin/contracts/access/Ownable.sol\":2387:2395  newOwner */\n      dup2\n        /* \"@openzeppelin/contracts/access/Ownable.sol\":2378:2384  _owner */\n      0x00\n      dup1\n        /* \"@openzeppelin/contracts/access/Ownable.sol\":2378:2395  _owner = newOwner */\n      0x0100\n      exp\n      dup2\n      sload\n      dup2\n      0xffffffffffffffffffffffffffffffffffffffff\n      mul\n      not\n      and\n      swap1\n      dup4\n      0xffffffffffffffffffffffffffffffffffffffff\n      and\n      mul\n      or\n      swap1\n      sstore\n      pop\n        /* \"@openzeppelin/contracts/access/Ownable.sol\":2441:2449  newOwner */\n      dup2\n        /* \"@openzeppelin/contracts/access/Ownable.sol\":2410:2450  OwnershipTransferred(oldOwner, newOwner) */\n      0xffffffffffffffffffffffffffffffffffffffff\n      and\n        /* \"@openzeppelin/contracts/access/Ownable.sol\":2431:2439  oldOwner */\n      dup2\n        /* \"@openzeppelin/contracts/access/Ownable.sol\":2410:2450  OwnershipTransferred(oldOwner, newOwner) */\n      0xffffffffffffffffffffffffffffffffffffffff\n      and\n      0x8be0079c531659141344cd1fd0a4f28419497f9722a3daafe3b4186f6b6457e0\n      mload(0x40)\n      mload(0x40)\n      dup1\n      swap2\n      sub\n      swap1\n      log3\n        /* \"@openzeppelin/contracts/access/Ownable.sol\":2333:2457  {... */\n      pop\n        /* \"@openzeppelin/contracts/access/Ownable.sol\":2270:2457  function _transferOwnership(address newOwner) internal virtual {... */\n      pop\n      jump\t// out\n    tag_133:\n      dup3\n      dup1\n      sload\n      tag_279\n      swap1\n      tag_122\n      jump\t// in\n    tag_279:\n      swap1\n      0x00\n      mstore\n      keccak256(0x00, 0x20)\n      swap1\n      0x1f\n      add\n      0x20\n      swap1\n      div\n      dup2\n      add\n      swap3\n      dup3\n      tag_281\n      jumpi\n      0x00\n      dup6\n      sstore\n      jump(tag_280)\n    tag_281:\n      dup3\n      0x1f\n      lt\n      tag_282\n      jumpi\n      dup1\n      mload\n      not(0xff)\n      and\n      dup4\n      dup1\n      add\n      or\n      dup6\n      sstore\n      jump(tag_280)\n    tag_282:\n      dup3\n      dup1\n      add\n      0x01\n      add\n      dup6\n      sstore\n      dup3\n      iszero\n      tag_280\n      jumpi\n      swap2\n      dup3\n      add\n    tag_283:\n      dup3\n      dup2\n      gt\n      iszero\n      tag_284\n      jumpi\n      dup3\n      mload\n      dup3\n      sstore\n      swap2\n      0x20\n      add\n      swap2\n      swap1\n      0x01\n      add\n      swap1\n      jump(tag_283)\n    tag_284:\n    tag_280:\n      pop\n      swap1\n      pop\n      tag_285\n      swap2\n      swap1\n      tag_286\n      jump\t// in\n    tag_285:\n      pop\n      swap1\n      jump\t// out\n    tag_160:\n      mload(0x40)\n      dup1\n      0x80\n      add\n      0x40\n      mstore\n      dup1\n      0x00\n      dup2\n      mstore\n      0x20\n      add\n      0x60\n      dup2\n      mstore\n      0x20\n      add\n      0x60\n      dup2\n      mstore\n      0x20\n      add\n      0x00\n      dup2\n      mstore\n      pop\n      swap1\n      jump\t// out\n    tag_286:\n    tag_287:\n      dup1\n      dup3\n      gt\n      iszero\n      tag_288\n      jumpi\n      0x00\n      dup2\n      0x00\n      swap1\n      sstore\n      pop\n      0x01\n      add\n      jump(tag_287)\n    tag_288:\n      pop\n      swap1\n      jump\t// out\n        /* \"#utility.yul\":7:419   */\n    tag_290:\n        /* \"#utility.yul\":85:90   */\n      0x00\n        /* \"#utility.yul\":110:176   */\n      tag_292\n        /* \"#utility.yul\":126:175   */\n      tag_293\n        /* \"#utility.yul\":168:174   */\n      dup5\n        /* \"#utility.yul\":126:175   */\n      tag_294\n      jump\t// in\n    tag_293:\n        /* \"#utility.yul\":110:176   */\n      tag_295\n      jump\t// in\n    tag_292:\n        /* \"#utility.yul\":101:176   */\n      swap1\n      pop\n        /* \"#utility.yul\":199:205   */\n      dup3\n        /* \"#utility.yul\":192:197   */\n      dup2\n        /* \"#utility.yul\":185:206   */\n      mstore\n        /* \"#utility.yul\":237:241   */\n      0x20\n        /* \"#utility.yul\":230:235   */\n      dup2\n        /* \"#utility.yul\":226:242   */\n      add\n        /* \"#utility.yul\":275:278   */\n      dup5\n        /* \"#utility.yul\":266:272   */\n      dup5\n        /* \"#utility.yul\":261:264   */\n      dup5\n        /* \"#utility.yul\":257:273   */\n      add\n        /* \"#utility.yul\":254:279   */\n      gt\n        /* \"#utility.yul\":251:363   */\n      iszero\n      tag_296\n      jumpi\n        /* \"#utility.yul\":282:361   */\n      tag_297\n      tag_298\n      jump\t// in\n    tag_297:\n        /* \"#utility.yul\":251:363   */\n    tag_296:\n        /* \"#utility.yul\":372:413   */\n      tag_299\n        /* \"#utility.yul\":406:412   */\n      dup5\n        /* \"#utility.yul\":401:404   */\n      dup3\n        /* \"#utility.yul\":396:399   */\n      dup6\n        /* \"#utility.yul\":372:413   */\n      tag_300\n      jump\t// in\n    tag_299:\n        /* \"#utility.yul\":91:419   */\n      pop\n        /* \"#utility.yul\":7:419   */\n      swap4\n      swap3\n      pop\n      pop\n      pop\n      jump\t// out\n        /* \"#utility.yul\":425:564   */\n    tag_301:\n        /* \"#utility.yul\":471:476   */\n      0x00\n        /* \"#utility.yul\":509:515   */\n      dup2\n        /* \"#utility.yul\":496:516   */\n      calldataload\n        /* \"#utility.yul\":487:516   */\n      swap1\n      pop\n        /* \"#utility.yul\":525:558   */\n      tag_303\n        /* \"#utility.yul\":552:557   */\n      dup2\n        /* \"#utility.yul\":525:558   */\n      tag_304\n      jump\t// in\n    tag_303:\n        /* \"#utility.yul\":425:564   */\n      swap3\n      swap2\n      pop\n      pop\n      jump\t// out\n        /* \"#utility.yul\":587:1155   */\n    tag_305:\n        /* \"#utility.yul\":660:668   */\n      0x00\n        /* \"#utility.yul\":670:676   */\n      dup1\n        /* \"#utility.yul\":720:723   */\n      dup4\n        /* \"#utility.yul\":713:717   */\n      0x1f\n        /* \"#utility.yul\":705:711   */\n      dup5\n        /* \"#utility.yul\":701:718   */\n      add\n        /* \"#utility.yul\":697:724   */\n      slt\n        /* \"#utility.yul\":687:809   */\n      tag_307\n      jumpi\n        /* \"#utility.yul\":728:807   */\n      tag_308\n      tag_309\n      jump\t// in\n    tag_308:\n        /* \"#utility.yul\":687:809   */\n    tag_307:\n        /* \"#utility.yul\":841:847   */\n      dup3\n        /* \"#utility.yul\":828:848   */\n      calldataload\n        /* \"#utility.yul\":818:848   */\n      swap1\n      pop\n        /* \"#utility.yul\":871:889   */\n      0xffffffffffffffff\n        /* \"#utility.yul\":863:869   */\n      dup2\n        /* \"#utility.yul\":860:890   */\n      gt\n        /* \"#utility.yul\":857:974   */\n      iszero\n      tag_310\n      jumpi\n        /* \"#utility.yul\":893:972   */\n      tag_311\n      tag_312\n      jump\t// in\n    tag_311:\n        /* \"#utility.yul\":857:974   */\n    tag_310:\n        /* \"#utility.yul\":1007:1011   */\n      0x20\n        /* \"#utility.yul\":999:1005   */\n      dup4\n        /* \"#utility.yul\":995:1012   */\n      add\n        /* \"#utility.yul\":983:1012   */\n      swap2\n      pop\n        /* \"#utility.yul\":1061:1064   */\n      dup4\n        /* \"#utility.yul\":1053:1057   */\n      0x20\n        /* \"#utility.yul\":1045:1051   */\n      dup3\n        /* \"#utility.yul\":1041:1058   */\n      mul\n        /* \"#utility.yul\":1031:1039   */\n      dup4\n        /* \"#utility.yul\":1027:1059   */\n      add\n        /* \"#utility.yul\":1024:1065   */\n      gt\n        /* \"#utility.yul\":1021:1149   */\n      iszero\n      tag_313\n      jumpi\n        /* \"#utility.yul\":1068:1147   */\n      tag_314\n      tag_315\n      jump\t// in\n    tag_314:\n        /* \"#utility.yul\":1021:1149   */\n    tag_313:\n        /* \"#utility.yul\":587:1155   */\n      swap3\n      pop\n      swap3\n      swap1\n      pop\n      jump\t// out\n        /* \"#utility.yul\":1178:1746   */\n    tag_316:\n        /* \"#utility.yul\":1251:1259   */\n      0x00\n        /* \"#utility.yul\":1261:1267   */\n      dup1\n        /* \"#utility.yul\":1311:1314   */\n      dup4\n        /* \"#utility.yul\":1304:1308   */\n      0x1f\n        /* \"#utility.yul\":1296:1302   */\n      dup5\n        /* \"#utility.yul\":1292:1309   */\n      add\n        /* \"#utility.yul\":1288:1315   */\n      slt\n        /* \"#utility.yul\":1278:1400   */\n      tag_318\n      jumpi\n        /* \"#utility.yul\":1319:1398   */\n      tag_319\n      tag_309\n      jump\t// in\n    tag_319:\n        /* \"#utility.yul\":1278:1400   */\n    tag_318:\n        /* \"#utility.yul\":1432:1438   */\n      dup3\n        /* \"#utility.yul\":1419:1439   */\n      calldataload\n        /* \"#utility.yul\":1409:1439   */\n      swap1\n      pop\n        /* \"#utility.yul\":1462:1480   */\n      0xffffffffffffffff\n        /* \"#utility.yul\":1454:1460   */\n      dup2\n        /* \"#utility.yul\":1451:1481   */\n      gt\n        /* \"#utility.yul\":1448:1565   */\n      iszero\n      tag_320\n      jumpi\n        /* \"#utility.yul\":1484:1563   */\n      tag_321\n      tag_312\n      jump\t// in\n    tag_321:\n        /* \"#utility.yul\":1448:1565   */\n    tag_320:\n        /* \"#utility.yul\":1598:1602   */\n      0x20\n        /* \"#utility.yul\":1590:1596   */\n      dup4\n        /* \"#utility.yul\":1586:1603   */\n      add\n        /* \"#utility.yul\":1574:1603   */\n      swap2\n      pop\n        /* \"#utility.yul\":1652:1655   */\n      dup4\n        /* \"#utility.yul\":1644:1648   */\n      0x20\n        /* \"#utility.yul\":1636:1642   */\n      dup3\n        /* \"#utility.yul\":1632:1649   */\n      mul\n        /* \"#utility.yul\":1622:1630   */\n      dup4\n        /* \"#utility.yul\":1618:1650   */\n      add\n        /* \"#utility.yul\":1615:1656   */\n      gt\n        /* \"#utility.yul\":1612:1740   */\n      iszero\n      tag_322\n      jumpi\n        /* \"#utility.yul\":1659:1738   */\n      tag_323\n      tag_315\n      jump\t// in\n    tag_323:\n        /* \"#utility.yul\":1612:1740   */\n    tag_322:\n        /* \"#utility.yul\":1178:1746   */\n      swap3\n      pop\n      swap3\n      swap1\n      pop\n      jump\t// out\n        /* \"#utility.yul\":1752:1885   */\n    tag_324:\n        /* \"#utility.yul\":1795:1800   */\n      0x00\n        /* \"#utility.yul\":1833:1839   */\n      dup2\n        /* \"#utility.yul\":1820:1840   */\n      calldataload\n        /* \"#utility.yul\":1811:1840   */\n      swap1\n      pop\n        /* \"#utility.yul\":1849:1879   */\n      tag_326\n        /* \"#utility.yul\":1873:1878   */\n      dup2\n        /* \"#utility.yul\":1849:1879   */\n      tag_327\n      jump\t// in\n    tag_326:\n        /* \"#utility.yul\":1752:1885   */\n      swap3\n      swap2\n      pop\n      pop\n      jump\t// out\n        /* \"#utility.yul\":1891:2030   */\n    tag_328:\n        /* \"#utility.yul\":1937:1942   */\n      0x00\n        /* \"#utility.yul\":1975:1981   */\n      dup2\n        /* \"#utility.yul\":1962:1982   */\n      calldataload\n        /* \"#utility.yul\":1953:1982   */\n      swap1\n      pop\n        /* \"#utility.yul\":1991:2024   */\n      tag_330\n        /* \"#utility.yul\":2018:2023   */\n      dup2\n        /* \"#utility.yul\":1991:2024   */\n      tag_331\n      jump\t// in\n    tag_330:\n        /* \"#utility.yul\":1891:2030   */\n      swap3\n      swap2\n      pop\n      pop\n      jump\t// out\n        /* \"#utility.yul\":2050:2390   */\n    tag_332:\n        /* \"#utility.yul\":2106:2111   */\n      0x00\n        /* \"#utility.yul\":2155:2158   */\n      dup3\n        /* \"#utility.yul\":2148:2152   */\n      0x1f\n        /* \"#utility.yul\":2140:2146   */\n      dup4\n        /* \"#utility.yul\":2136:2153   */\n      add\n        /* \"#utility.yul\":2132:2159   */\n      slt\n        /* \"#utility.yul\":2122:2244   */\n      tag_334\n      jumpi\n        /* \"#utility.yul\":2163:2242   */\n      tag_335\n      tag_309\n      jump\t// in\n    tag_335:\n        /* \"#utility.yul\":2122:2244   */\n    tag_334:\n        /* \"#utility.yul\":2280:2286   */\n      dup2\n        /* \"#utility.yul\":2267:2287   */\n      calldataload\n        /* \"#utility.yul\":2305:2384   */\n      tag_336\n        /* \"#utility.yul\":2380:2383   */\n      dup5\n        /* \"#utility.yul\":2372:2378   */\n      dup3\n        /* \"#utility.yul\":2365:2369   */\n      0x20\n        /* \"#utility.yul\":2357:2363   */\n      dup7\n        /* \"#utility.yul\":2353:2370   */\n      add\n        /* \"#utility.yul\":2305:2384   */\n      tag_290\n      jump\t// in\n    tag_336:\n        /* \"#utility.yul\":2296:2384   */\n      swap2\n      pop\n        /* \"#utility.yul\":2112:2390   */\n      pop\n        /* \"#utility.yul\":2050:2390   */\n      swap3\n      swap2\n      pop\n      pop\n      jump\t// out\n        /* \"#utility.yul\":2396:2535   */\n    tag_337:\n        /* \"#utility.yul\":2442:2447   */\n      0x00\n        /* \"#utility.yul\":2480:2486   */\n      dup2\n        /* \"#utility.yul\":2467:2487   */\n      calldataload\n        /* \"#utility.yul\":2458:2487   */\n      swap1\n      pop\n        /* \"#utility.yul\":2496:2529   */\n      tag_339\n        /* \"#utility.yul\":2523:2528   */\n      dup2\n        /* \"#utility.yul\":2496:2529   */\n      tag_340\n      jump\t// in\n    tag_339:\n        /* \"#utility.yul\":2396:2535   */\n      swap3\n      swap2\n      pop\n      pop\n      jump\t// out\n        /* \"#utility.yul\":2541:2684   */\n    tag_341:\n        /* \"#utility.yul\":2598:2603   */\n      0x00\n        /* \"#utility.yul\":2629:2635   */\n      dup2\n        /* \"#utility.yul\":2623:2636   */\n      mload\n        /* \"#utility.yul\":2614:2636   */\n      swap1\n      pop\n        /* \"#utility.yul\":2645:2678   */\n      tag_343\n        /* \"#utility.yul\":2672:2677   */\n      dup2\n        /* \"#utility.yul\":2645:2678   */\n      tag_340\n      jump\t// in\n    tag_343:\n        /* \"#utility.yul\":2541:2684   */\n      swap3\n      swap2\n      pop\n      pop\n      jump\t// out\n        /* \"#utility.yul\":2690:3019   */\n    tag_38:\n        /* \"#utility.yul\":2749:2755   */\n      0x00\n        /* \"#utility.yul\":2798:2800   */\n      0x20\n        /* \"#utility.yul\":2786:2795   */\n      dup3\n        /* \"#utility.yul\":2777:2784   */\n      dup5\n        /* \"#utility.yul\":2773:2796   */\n      sub\n        /* \"#utility.yul\":2769:2801   */\n      slt\n        /* \"#utility.yul\":2766:2885   */\n      iszero\n      tag_345\n      jumpi\n        /* \"#utility.yul\":2804:2883   */\n      tag_346\n      tag_347\n      jump\t// in\n    tag_346:\n        /* \"#utility.yul\":2766:2885   */\n    tag_345:\n        /* \"#utility.yul\":2924:2925   */\n      0x00\n        /* \"#utility.yul\":2949:3002   */\n      tag_348\n        /* \"#utility.yul\":2994:3001   */\n      dup5\n        /* \"#utility.yul\":2985:2991   */\n      dup3\n        /* \"#utility.yul\":2974:2983   */\n      dup6\n        /* \"#utility.yul\":2970:2992   */\n      add\n        /* \"#utility.yul\":2949:3002   */\n      tag_301\n      jump\t// in\n    tag_348:\n        /* \"#utility.yul\":2939:3002   */\n      swap2\n      pop\n        /* \"#utility.yul\":2895:3012   */\n      pop\n        /* \"#utility.yul\":2690:3019   */\n      swap3\n      swap2\n      pop\n      pop\n      jump\t// out\n        /* \"#utility.yul\":3025:4250   */\n    tag_72:\n        /* \"#utility.yul\":3165:3171   */\n      0x00\n        /* \"#utility.yul\":3173:3179   */\n      dup1\n        /* \"#utility.yul\":3181:3187   */\n      0x00\n        /* \"#utility.yul\":3189:3195   */\n      dup1\n        /* \"#utility.yul\":3197:3203   */\n      0x00\n        /* \"#utility.yul\":3205:3211   */\n      dup1\n        /* \"#utility.yul\":3254:3257   */\n      0x80\n        /* \"#utility.yul\":3242:3251   */\n      dup8\n        /* \"#utility.yul\":3233:3240   */\n      dup10\n        /* \"#utility.yul\":3229:3252   */\n      sub\n        /* \"#utility.yul\":3225:3258   */\n      slt\n        /* \"#utility.yul\":3222:3342   */\n      iszero\n      tag_350\n      jumpi\n        /* \"#utility.yul\":3261:3340   */\n      tag_351\n      tag_347\n      jump\t// in\n    tag_351:\n        /* \"#utility.yul\":3222:3342   */\n    tag_350:\n        /* \"#utility.yul\":3381:3382   */\n      0x00\n        /* \"#utility.yul\":3406:3459   */\n      tag_352\n        /* \"#utility.yul\":3451:3458   */\n      dup10\n        /* \"#utility.yul\":3442:3448   */\n      dup3\n        /* \"#utility.yul\":3431:3440   */\n      dup11\n        /* \"#utility.yul\":3427:3449   */\n      add\n        /* \"#utility.yul\":3406:3459   */\n      tag_328\n      jump\t// in\n    tag_352:\n        /* \"#utility.yul\":3396:3459   */\n      swap7\n      pop\n        /* \"#utility.yul\":3352:3469   */\n      pop\n        /* \"#utility.yul\":3508:3510   */\n      0x20\n        /* \"#utility.yul\":3534:3587   */\n      tag_353\n        /* \"#utility.yul\":3579:3586   */\n      dup10\n        /* \"#utility.yul\":3570:3576   */\n      dup3\n        /* \"#utility.yul\":3559:3568   */\n      dup11\n        /* \"#utility.yul\":3555:3577   */\n      add\n        /* \"#utility.yul\":3534:3587   */\n      tag_328\n      jump\t// in\n    tag_353:\n        /* \"#utility.yul\":3524:3587   */\n      swap6\n      pop\n        /* \"#utility.yul\":3479:3597   */\n      pop\n        /* \"#utility.yul\":3664:3666   */\n      0x40\n        /* \"#utility.yul\":3653:3662   */\n      dup8\n        /* \"#utility.yul\":3649:3667   */\n      add\n        /* \"#utility.yul\":3636:3668   */\n      calldataload\n        /* \"#utility.yul\":3695:3713   */\n      0xffffffffffffffff\n        /* \"#utility.yul\":3687:3693   */\n      dup2\n        /* \"#utility.yul\":3684:3714   */\n      gt\n        /* \"#utility.yul\":3681:3798   */\n      iszero\n      tag_354\n      jumpi\n        /* \"#utility.yul\":3717:3796   */\n      tag_355\n      tag_356\n      jump\t// in\n    tag_355:\n        /* \"#utility.yul\":3681:3798   */\n    tag_354:\n        /* \"#utility.yul\":3830:3910   */\n      tag_357\n        /* \"#utility.yul\":3902:3909   */\n      dup10\n        /* \"#utility.yul\":3893:3899   */\n      dup3\n        /* \"#utility.yul\":3882:3891   */\n      dup11\n        /* \"#utility.yul\":3878:3900   */\n      add\n        /* \"#utility.yul\":3830:3910   */\n      tag_305\n      jump\t// in\n    tag_357:\n        /* \"#utility.yul\":3812:3910   */\n      swap5\n      pop\n      swap5\n      pop\n        /* \"#utility.yul\":3607:3920   */\n      pop\n        /* \"#utility.yul\":3987:3989   */\n      0x60\n        /* \"#utility.yul\":3976:3985   */\n      dup8\n        /* \"#utility.yul\":3972:3990   */\n      add\n        /* \"#utility.yul\":3959:3991   */\n      calldataload\n        /* \"#utility.yul\":4018:4036   */\n      0xffffffffffffffff\n        /* \"#utility.yul\":4010:4016   */\n      dup2\n        /* \"#utility.yul\":4007:4037   */\n      gt\n        /* \"#utility.yul\":4004:4121   */\n      iszero\n      tag_358\n      jumpi\n        /* \"#utility.yul\":4040:4119   */\n      tag_359\n      tag_356\n      jump\t// in\n    tag_359:\n        /* \"#utility.yul\":4004:4121   */\n    tag_358:\n        /* \"#utility.yul\":4153:4233   */\n      tag_360\n        /* \"#utility.yul\":4225:4232   */\n      dup10\n        /* \"#utility.yul\":4216:4222   */\n      dup3\n        /* \"#utility.yul\":4205:4214   */\n      dup11\n        /* \"#utility.yul\":4201:4223   */\n      add\n        /* \"#utility.yul\":4153:4233   */\n      tag_316\n      jump\t// in\n    tag_360:\n        /* \"#utility.yul\":4135:4233   */\n      swap3\n      pop\n      swap3\n      pop\n        /* \"#utility.yul\":3930:4243   */\n      pop\n        /* \"#utility.yul\":3025:4250   */\n      swap3\n      swap6\n      pop\n      swap3\n      swap6\n      pop\n      swap3\n      swap6\n      jump\t// out\n        /* \"#utility.yul\":4256:4765   */\n    tag_104:\n        /* \"#utility.yul\":4325:4331   */\n      0x00\n        /* \"#utility.yul\":4374:4376   */\n      0x20\n        /* \"#utility.yul\":4362:4371   */\n      dup3\n        /* \"#utility.yul\":4353:4360   */\n      dup5\n        /* \"#utility.yul\":4349:4372   */\n      sub\n        /* \"#utility.yul\":4345:4377   */\n      slt\n        /* \"#utility.yul\":4342:4461   */\n      iszero\n      tag_362\n      jumpi\n        /* \"#utility.yul\":4380:4459   */\n      tag_363\n      tag_347\n      jump\t// in\n    tag_363:\n        /* \"#utility.yul\":4342:4461   */\n    tag_362:\n        /* \"#utility.yul\":4528:4529   */\n      0x00\n        /* \"#utility.yul\":4517:4526   */\n      dup3\n        /* \"#utility.yul\":4513:4530   */\n      add\n        /* \"#utility.yul\":4500:4531   */\n      calldataload\n        /* \"#utility.yul\":4558:4576   */\n      0xffffffffffffffff\n        /* \"#utility.yul\":4550:4556   */\n      dup2\n        /* \"#utility.yul\":4547:4577   */\n      gt\n        /* \"#utility.yul\":4544:4661   */\n      iszero\n      tag_364\n      jumpi\n        /* \"#utility.yul\":4580:4659   */\n      tag_365\n      tag_356\n      jump\t// in\n    tag_365:\n        /* \"#utility.yul\":4544:4661   */\n    tag_364:\n        /* \"#utility.yul\":4685:4748   */\n      tag_366\n        /* \"#utility.yul\":4740:4747   */\n      dup5\n        /* \"#utility.yul\":4731:4737   */\n      dup3\n        /* \"#utility.yul\":4720:4729   */\n      dup6\n        /* \"#utility.yul\":4716:4738   */\n      add\n        /* \"#utility.yul\":4685:4748   */\n      tag_332\n      jump\t// in\n    tag_366:\n        /* \"#utility.yul\":4675:4748   */\n      swap2\n      pop\n        /* \"#utility.yul\":4471:4758   */\n      pop\n        /* \"#utility.yul\":4256:4765   */\n      swap3\n      swap2\n      pop\n      pop\n      jump\t// out\n        /* \"#utility.yul\":4771:5570   */\n    tag_99:\n        /* \"#utility.yul\":4858:4864   */\n      0x00\n        /* \"#utility.yul\":4866:4872   */\n      dup1\n        /* \"#utility.yul\":4874:4880   */\n      0x00\n        /* \"#utility.yul\":4923:4925   */\n      0x60\n        /* \"#utility.yul\":4911:4920   */\n      dup5\n        /* \"#utility.yul\":4902:4909   */\n      dup7\n        /* \"#utility.yul\":4898:4921   */\n      sub\n        /* \"#utility.yul\":4894:4926   */\n      slt\n        /* \"#utility.yul\":4891:5010   */\n      iszero\n      tag_368\n      jumpi\n        /* \"#utility.yul\":4929:5008   */\n      tag_369\n      tag_347\n      jump\t// in\n    tag_369:\n        /* \"#utility.yul\":4891:5010   */\n    tag_368:\n        /* \"#utility.yul\":5077:5078   */\n      0x00\n        /* \"#utility.yul\":5066:5075   */\n      dup5\n        /* \"#utility.yul\":5062:5079   */\n      add\n        /* \"#utility.yul\":5049:5080   */\n      calldataload\n        /* \"#utility.yul\":5107:5125   */\n      0xffffffffffffffff\n        /* \"#utility.yul\":5099:5105   */\n      dup2\n        /* \"#utility.yul\":5096:5126   */\n      gt\n        /* \"#utility.yul\":5093:5210   */\n      iszero\n      tag_370\n      jumpi\n        /* \"#utility.yul\":5129:5208   */\n      tag_371\n      tag_356\n      jump\t// in\n    tag_371:\n        /* \"#utility.yul\":5093:5210   */\n    tag_370:\n        /* \"#utility.yul\":5234:5297   */\n      tag_372\n        /* \"#utility.yul\":5289:5296   */\n      dup7\n        /* \"#utility.yul\":5280:5286   */\n      dup3\n        /* \"#utility.yul\":5269:5278   */\n      dup8\n        /* \"#utility.yul\":5265:5287   */\n      add\n        /* \"#utility.yul\":5234:5297   */\n      tag_332\n      jump\t// in\n    tag_372:\n        /* \"#utility.yul\":5224:5297   */\n      swap4\n      pop\n        /* \"#utility.yul\":5020:5307   */\n      pop\n        /* \"#utility.yul\":5346:5348   */\n      0x20\n        /* \"#utility.yul\":5372:5425   */\n      tag_373\n        /* \"#utility.yul\":5417:5424   */\n      dup7\n        /* \"#utility.yul\":5408:5414   */\n      dup3\n        /* \"#utility.yul\":5397:5406   */\n      dup8\n        /* \"#utility.yul\":5393:5415   */\n      add\n        /* \"#utility.yul\":5372:5425   */\n      tag_301\n      jump\t// in\n    tag_373:\n        /* \"#utility.yul\":5362:5425   */\n      swap3\n      pop\n        /* \"#utility.yul\":5317:5435   */\n      pop\n        /* \"#utility.yul\":5474:5476   */\n      0x40\n        /* \"#utility.yul\":5500:5553   */\n      tag_374\n        /* \"#utility.yul\":5545:5552   */\n      dup7\n        /* \"#utility.yul\":5536:5542   */\n      dup3\n        /* \"#utility.yul\":5525:5534   */\n      dup8\n        /* \"#utility.yul\":5521:5543   */\n      add\n        /* \"#utility.yul\":5500:5553   */\n      tag_337\n      jump\t// in\n    tag_374:\n        /* \"#utility.yul\":5490:5553   */\n      swap2\n      pop\n        /* \"#utility.yul\":5445:5563   */\n      pop\n        /* \"#utility.yul\":4771:5570   */\n      swap3\n      pop\n      swap3\n      pop\n      swap3\n      jump\t// out\n        /* \"#utility.yul\":5576:6555   */\n    tag_94:\n        /* \"#utility.yul\":5673:5679   */\n      0x00\n        /* \"#utility.yul\":5681:5687   */\n      dup1\n        /* \"#utility.yul\":5689:5695   */\n      0x00\n        /* \"#utility.yul\":5738:5740   */\n      0x60\n        /* \"#utility.yul\":5726:5735   */\n      dup5\n        /* \"#utility.yul\":5717:5724   */\n      dup7\n        /* \"#utility.yul\":5713:5736   */\n      sub\n        /* \"#utility.yul\":5709:5741   */\n      slt\n        /* \"#utility.yul\":5706:5825   */\n      iszero\n      tag_376\n      jumpi\n        /* \"#utility.yul\":5744:5823   */\n      tag_377\n      tag_347\n      jump\t// in\n    tag_377:\n        /* \"#utility.yul\":5706:5825   */\n    tag_376:\n        /* \"#utility.yul\":5892:5893   */\n      0x00\n        /* \"#utility.yul\":5881:5890   */\n      dup5\n        /* \"#utility.yul\":5877:5894   */\n      add\n        /* \"#utility.yul\":5864:5895   */\n      calldataload\n        /* \"#utility.yul\":5922:5940   */\n      0xffffffffffffffff\n        /* \"#utility.yul\":5914:5920   */\n      dup2\n        /* \"#utility.yul\":5911:5941   */\n      gt\n        /* \"#utility.yul\":5908:6025   */\n      iszero\n      tag_378\n      jumpi\n        /* \"#utility.yul\":5944:6023   */\n      tag_379\n      tag_356\n      jump\t// in\n    tag_379:\n        /* \"#utility.yul\":5908:6025   */\n    tag_378:\n        /* \"#utility.yul\":6049:6112   */\n      tag_380\n        /* \"#utility.yul\":6104:6111   */\n      dup7\n        /* \"#utility.yul\":6095:6101   */\n      dup3\n        /* \"#utility.yul\":6084:6093   */\n      dup8\n        /* \"#utility.yul\":6080:6102   */\n      add\n        /* \"#utility.yul\":6049:6112   */\n      tag_332\n      jump\t// in\n    tag_380:\n        /* \"#utility.yul\":6039:6112   */\n      swap4\n      pop\n        /* \"#utility.yul\":5835:6122   */\n      pop\n        /* \"#utility.yul\":6189:6191   */\n      0x20\n        /* \"#utility.yul\":6178:6187   */\n      dup5\n        /* \"#utility.yul\":6174:6192   */\n      add\n        /* \"#utility.yul\":6161:6193   */\n      calldataload\n        /* \"#utility.yul\":6220:6238   */\n      0xffffffffffffffff\n        /* \"#utility.yul\":6212:6218   */\n      dup2\n        /* \"#utility.yul\":6209:6239   */\n      gt\n        /* \"#utility.yul\":6206:6323   */\n      iszero\n      tag_381\n      jumpi\n        /* \"#utility.yul\":6242:6321   */\n      tag_382\n      tag_356\n      jump\t// in\n    tag_382:\n        /* \"#utility.yul\":6206:6323   */\n    tag_381:\n        /* \"#utility.yul\":6347:6410   */\n      tag_383\n        /* \"#utility.yul\":6402:6409   */\n      dup7\n        /* \"#utility.yul\":6393:6399   */\n      dup3\n        /* \"#utility.yul\":6382:6391   */\n      dup8\n        /* \"#utility.yul\":6378:6400   */\n      add\n        /* \"#utility.yul\":6347:6410   */\n      tag_332\n      jump\t// in\n    tag_383:\n        /* \"#utility.yul\":6337:6410   */\n      swap3\n      pop\n        /* \"#utility.yul\":6132:6420   */\n      pop\n        /* \"#utility.yul\":6459:6461   */\n      0x40\n        /* \"#utility.yul\":6485:6538   */\n      tag_384\n        /* \"#utility.yul\":6530:6537   */\n      dup7\n        /* \"#utility.yul\":6521:6527   */\n      dup3\n        /* \"#utility.yul\":6510:6519   */\n      dup8\n        /* \"#utility.yul\":6506:6528   */\n      add\n        /* \"#utility.yul\":6485:6538   */\n      tag_337\n      jump\t// in\n    tag_384:\n        /* \"#utility.yul\":6475:6538   */\n      swap2\n      pop\n        /* \"#utility.yul\":6430:6548   */\n      pop\n        /* \"#utility.yul\":5576:6555   */\n      swap3\n      pop\n      swap3\n      pop\n      swap3\n      jump\t// out\n        /* \"#utility.yul\":6561:7215   */\n    tag_113:\n        /* \"#utility.yul\":6639:6645   */\n      0x00\n        /* \"#utility.yul\":6647:6653   */\n      dup1\n        /* \"#utility.yul\":6696:6698   */\n      0x40\n        /* \"#utility.yul\":6684:6693   */\n      dup4\n        /* \"#utility.yul\":6675:6682   */\n      dup6\n        /* \"#utility.yul\":6671:6694   */\n      sub\n        /* \"#utility.yul\":6667:6699   */\n      slt\n        /* \"#utility.yul\":6664:6783   */\n      iszero\n      tag_386\n      jumpi\n        /* \"#utility.yul\":6702:6781   */\n      tag_387\n      tag_347\n      jump\t// in\n    tag_387:\n        /* \"#utility.yul\":6664:6783   */\n    tag_386:\n        /* \"#utility.yul\":6850:6851   */\n      0x00\n        /* \"#utility.yul\":6839:6848   */\n      dup4\n        /* \"#utility.yul\":6835:6852   */\n      add\n        /* \"#utility.yul\":6822:6853   */\n      calldataload\n        /* \"#utility.yul\":6880:6898   */\n      0xffffffffffffffff\n        /* \"#utility.yul\":6872:6878   */\n      dup2\n        /* \"#utility.yul\":6869:6899   */\n      gt\n        /* \"#utility.yul\":6866:6983   */\n      iszero\n      tag_388\n      jumpi\n        /* \"#utility.yul\":6902:6981   */\n      tag_389\n      tag_356\n      jump\t// in\n    tag_389:\n        /* \"#utility.yul\":6866:6983   */\n    tag_388:\n        /* \"#utility.yul\":7007:7070   */\n      tag_390\n        /* \"#utility.yul\":7062:7069   */\n      dup6\n        /* \"#utility.yul\":7053:7059   */\n      dup3\n        /* \"#utility.yul\":7042:7051   */\n      dup7\n        /* \"#utility.yul\":7038:7060   */\n      add\n        /* \"#utility.yul\":7007:7070   */\n      tag_332\n      jump\t// in\n    tag_390:\n        /* \"#utility.yul\":6997:7070   */\n      swap3\n      pop\n        /* \"#utility.yul\":6793:7080   */\n      pop\n        /* \"#utility.yul\":7119:7121   */\n      0x20\n        /* \"#utility.yul\":7145:7198   */\n      tag_391\n        /* \"#utility.yul\":7190:7197   */\n      dup6\n        /* \"#utility.yul\":7181:7187   */\n      dup3\n        /* \"#utility.yul\":7170:7179   */\n      dup7\n        /* \"#utility.yul\":7166:7188   */\n      add\n        /* \"#utility.yul\":7145:7198   */\n      tag_337\n      jump\t// in\n    tag_391:\n        /* \"#utility.yul\":7135:7198   */\n      swap2\n      pop\n        /* \"#utility.yul\":7090:7208   */\n      pop\n        /* \"#utility.yul\":6561:7215   */\n      swap3\n      pop\n      swap3\n      swap1\n      pop\n      jump\t// out\n        /* \"#utility.yul\":7221:7550   */\n    tag_31:\n        /* \"#utility.yul\":7280:7286   */\n      0x00\n        /* \"#utility.yul\":7329:7331   */\n      0x20\n        /* \"#utility.yul\":7317:7326   */\n      dup3\n        /* \"#utility.yul\":7308:7315   */\n      dup5\n        /* \"#utility.yul\":7304:7327   */\n      sub\n        /* \"#utility.yul\":7300:7332   */\n      slt\n        /* \"#utility.yul\":7297:7416   */\n      iszero\n      tag_393\n      jumpi\n        /* \"#utility.yul\":7335:7414   */\n      tag_394\n      tag_347\n      jump\t// in\n    tag_394:\n        /* \"#utility.yul\":7297:7416   */\n    tag_393:\n        /* \"#utility.yul\":7455:7456   */\n      0x00\n        /* \"#utility.yul\":7480:7533   */\n      tag_395\n        /* \"#utility.yul\":7525:7532   */\n      dup5\n        /* \"#utility.yul\":7516:7522   */\n      dup3\n        /* \"#utility.yul\":7505:7514   */\n      dup6\n        /* \"#utility.yul\":7501:7523   */\n      add\n        /* \"#utility.yul\":7480:7533   */\n      tag_337\n      jump\t// in\n    tag_395:\n        /* \"#utility.yul\":7470:7533   */\n      swap2\n      pop\n        /* \"#utility.yul\":7426:7543   */\n      pop\n        /* \"#utility.yul\":7221:7550   */\n      swap3\n      swap2\n      pop\n      pop\n      jump\t// out\n        /* \"#utility.yul\":7556:7907   */\n    tag_249:\n        /* \"#utility.yul\":7626:7632   */\n      0x00\n        /* \"#utility.yul\":7675:7677   */\n      0x20\n        /* \"#utility.yul\":7663:7672   */\n      dup3\n        /* \"#utility.yul\":7654:7661   */\n      dup5\n        /* \"#utility.yul\":7650:7673   */\n      sub\n        /* \"#utility.yul\":7646:7678   */\n      slt\n        /* \"#utility.yul\":7643:7762   */\n      iszero\n      tag_397\n      jumpi\n        /* \"#utility.yul\":7681:7760   */\n      tag_398\n      tag_347\n      jump\t// in\n    tag_398:\n        /* \"#utility.yul\":7643:7762   */\n    tag_397:\n        /* \"#utility.yul\":7801:7802   */\n      0x00\n        /* \"#utility.yul\":7826:7890   */\n      tag_399\n        /* \"#utility.yul\":7882:7889   */\n      dup5\n        /* \"#utility.yul\":7873:7879   */\n      dup3\n        /* \"#utility.yul\":7862:7871   */\n      dup6\n        /* \"#utility.yul\":7858:7880   */\n      add\n        /* \"#utility.yul\":7826:7890   */\n      tag_341\n      jump\t// in\n    tag_399:\n        /* \"#utility.yul\":7816:7890   */\n      swap2\n      pop\n        /* \"#utility.yul\":7772:7900   */\n      pop\n        /* \"#utility.yul\":7556:7907   */\n      swap3\n      swap2\n      pop\n      pop\n      jump\t// out\n        /* \"#utility.yul\":7913:8387   */\n    tag_43:\n        /* \"#utility.yul\":7981:7987   */\n      0x00\n        /* \"#utility.yul\":7989:7995   */\n      dup1\n        /* \"#utility.yul\":8038:8040   */\n      0x40\n        /* \"#utility.yul\":8026:8035   */\n      dup4\n        /* \"#utility.yul\":8017:8024   */\n      dup6\n        /* \"#utility.yul\":8013:8036   */\n      sub\n        /* \"#utility.yul\":8009:8041   */\n      slt\n        /* \"#utility.yul\":8006:8125   */\n      iszero\n      tag_401\n      jumpi\n        /* \"#utility.yul\":8044:8123   */\n      tag_402\n      tag_347\n      jump\t// in\n    tag_402:\n        /* \"#utility.yul\":8006:8125   */\n    tag_401:\n        /* \"#utility.yul\":8164:8165   */\n      0x00\n        /* \"#utility.yul\":8189:8242   */\n      tag_403\n        /* \"#utility.yul\":8234:8241   */\n      dup6\n        /* \"#utility.yul\":8225:8231   */\n      dup3\n        /* \"#utility.yul\":8214:8223   */\n      dup7\n        /* \"#utility.yul\":8210:8232   */\n      add\n        /* \"#utility.yul\":8189:8242   */\n      tag_337\n      jump\t// in\n    tag_403:\n        /* \"#utility.yul\":8179:8242   */\n      swap3\n      pop\n        /* \"#utility.yul\":8135:8252   */\n      pop\n        /* \"#utility.yul\":8291:8293   */\n      0x20\n        /* \"#utility.yul\":8317:8370   */\n      tag_404\n        /* \"#utility.yul\":8362:8369   */\n      dup6\n        /* \"#utility.yul\":8353:8359   */\n      dup3\n        /* \"#utility.yul\":8342:8351   */\n      dup7\n        /* \"#utility.yul\":8338:8360   */\n      add\n        /* \"#utility.yul\":8317:8370   */\n      tag_301\n      jump\t// in\n    tag_404:\n        /* \"#utility.yul\":8307:8370   */\n      swap2\n      pop\n        /* \"#utility.yul\":8262:8380   */\n      pop\n        /* \"#utility.yul\":7913:8387   */\n      swap3\n      pop\n      swap3\n      swap1\n      pop\n      jump\t// out\n        /* \"#utility.yul\":8393:8861   */\n    tag_57:\n        /* \"#utility.yul\":8458:8464   */\n      0x00\n        /* \"#utility.yul\":8466:8472   */\n      dup1\n        /* \"#utility.yul\":8515:8517   */\n      0x40\n        /* \"#utility.yul\":8503:8512   */\n      dup4\n        /* \"#utility.yul\":8494:8501   */\n      dup6\n        /* \"#utility.yul\":8490:8513   */\n      sub\n        /* \"#utility.yul\":8486:8518   */\n      slt\n        /* \"#utility.yul\":8483:8602   */\n      iszero\n      tag_406\n      jumpi\n        /* \"#utility.yul\":8521:8600   */\n      tag_407\n      tag_347\n      jump\t// in\n    tag_407:\n        /* \"#utility.yul\":8483:8602   */\n    tag_406:\n        /* \"#utility.yul\":8641:8642   */\n      0x00\n        /* \"#utility.yul\":8666:8719   */\n      tag_408\n        /* \"#utility.yul\":8711:8718   */\n      dup6\n        /* \"#utility.yul\":8702:8708   */\n      dup3\n        /* \"#utility.yul\":8691:8700   */\n      dup7\n        /* \"#utility.yul\":8687:8709   */\n      add\n        /* \"#utility.yul\":8666:8719   */\n      tag_337\n      jump\t// in\n    tag_408:\n        /* \"#utility.yul\":8656:8719   */\n      swap3\n      pop\n        /* \"#utility.yul\":8612:8729   */\n      pop\n        /* \"#utility.yul\":8768:8770   */\n      0x20\n        /* \"#utility.yul\":8794:8844   */\n      tag_409\n        /* \"#utility.yul\":8836:8843   */\n      dup6\n        /* \"#utility.yul\":8827:8833   */\n      dup3\n        /* \"#utility.yul\":8816:8825   */\n      dup7\n        /* \"#utility.yul\":8812:8834   */\n      add\n        /* \"#utility.yul\":8794:8844   */\n      tag_324\n      jump\t// in\n    tag_409:\n        /* \"#utility.yul\":8784:8844   */\n      swap2\n      pop\n        /* \"#utility.yul\":8739:8854   */\n      pop\n        /* \"#utility.yul\":8393:8861   */\n      swap3\n      pop\n      swap3\n      swap1\n      pop\n      jump\t// out\n        /* \"#utility.yul\":8867:8985   */\n    tag_410:\n        /* \"#utility.yul\":8954:8978   */\n      tag_412\n        /* \"#utility.yul\":8972:8977   */\n      dup2\n        /* \"#utility.yul\":8954:8978   */\n      tag_413\n      jump\t// in\n    tag_412:\n        /* \"#utility.yul\":8949:8952   */\n      dup3\n        /* \"#utility.yul\":8942:8979   */\n      mstore\n        /* \"#utility.yul\":8867:8985   */\n      pop\n      pop\n      jump\t// out\n        /* \"#utility.yul\":8991:9100   */\n    tag_414:\n        /* \"#utility.yul\":9072:9093   */\n      tag_416\n        /* \"#utility.yul\":9087:9092   */\n      dup2\n        /* \"#utility.yul\":9072:9093   */\n      tag_417\n      jump\t// in\n    tag_416:\n        /* \"#utility.yul\":9067:9070   */\n      dup3\n        /* \"#utility.yul\":9060:9094   */\n      mstore\n        /* \"#utility.yul\":8991:9100   */\n      pop\n      pop\n      jump\t// out\n        /* \"#utility.yul\":9106:9263   */\n    tag_418:\n        /* \"#utility.yul\":9211:9256   */\n      tag_420\n        /* \"#utility.yul\":9231:9255   */\n      tag_421\n        /* \"#utility.yul\":9249:9254   */\n      dup3\n        /* \"#utility.yul\":9231:9255   */\n      tag_422\n      jump\t// in\n    tag_421:\n        /* \"#utility.yul\":9211:9256   */\n      tag_423\n      jump\t// in\n    tag_420:\n        /* \"#utility.yul\":9206:9209   */\n      dup3\n        /* \"#utility.yul\":9199:9257   */\n      mstore\n        /* \"#utility.yul\":9106:9263   */\n      pop\n      pop\n      jump\t// out\n        /* \"#utility.yul\":9269:9613   */\n    tag_424:\n        /* \"#utility.yul\":9347:9350   */\n      0x00\n        /* \"#utility.yul\":9375:9414   */\n      tag_426\n        /* \"#utility.yul\":9408:9413   */\n      dup3\n        /* \"#utility.yul\":9375:9414   */\n      tag_427\n      jump\t// in\n    tag_426:\n        /* \"#utility.yul\":9430:9491   */\n      tag_428\n        /* \"#utility.yul\":9484:9490   */\n      dup2\n        /* \"#utility.yul\":9479:9482   */\n      dup6\n        /* \"#utility.yul\":9430:9491   */\n      tag_429\n      jump\t// in\n    tag_428:\n        /* \"#utility.yul\":9423:9491   */\n      swap4\n      pop\n        /* \"#utility.yul\":9500:9552   */\n      tag_430\n        /* \"#utility.yul\":9545:9551   */\n      dup2\n        /* \"#utility.yul\":9540:9543   */\n      dup6\n        /* \"#utility.yul\":9533:9537   */\n      0x20\n        /* \"#utility.yul\":9526:9531   */\n      dup7\n        /* \"#utility.yul\":9522:9538   */\n      add\n        /* \"#utility.yul\":9500:9552   */\n      tag_431\n      jump\t// in\n    tag_430:\n        /* \"#utility.yul\":9577:9606   */\n      tag_432\n        /* \"#utility.yul\":9599:9605   */\n      dup2\n        /* \"#utility.yul\":9577:9606   */\n      tag_433\n      jump\t// in\n    tag_432:\n        /* \"#utility.yul\":9572:9575   */\n      dup5\n        /* \"#utility.yul\":9568:9607   */\n      add\n        /* \"#utility.yul\":9561:9607   */\n      swap2\n      pop\n        /* \"#utility.yul\":9351:9613   */\n      pop\n        /* \"#utility.yul\":9269:9613   */\n      swap3\n      swap2\n      pop\n      pop\n      jump\t// out\n        /* \"#utility.yul\":9619:9983   */\n    tag_434:\n        /* \"#utility.yul\":9707:9710   */\n      0x00\n        /* \"#utility.yul\":9735:9774   */\n      tag_436\n        /* \"#utility.yul\":9768:9773   */\n      dup3\n        /* \"#utility.yul\":9735:9774   */\n      tag_427\n      jump\t// in\n    tag_436:\n        /* \"#utility.yul\":9790:9861   */\n      tag_437\n        /* \"#utility.yul\":9854:9860   */\n      dup2\n        /* \"#utility.yul\":9849:9852   */\n      dup6\n        /* \"#utility.yul\":9790:9861   */\n      tag_438\n      jump\t// in\n    tag_437:\n        /* \"#utility.yul\":9783:9861   */\n      swap4\n      pop\n        /* \"#utility.yul\":9870:9922   */\n      tag_439\n        /* \"#utility.yul\":9915:9921   */\n      dup2\n        /* \"#utility.yul\":9910:9913   */\n      dup6\n        /* \"#utility.yul\":9903:9907   */\n      0x20\n        /* \"#utility.yul\":9896:9901   */\n      dup7\n        /* \"#utility.yul\":9892:9908   */\n      add\n        /* \"#utility.yul\":9870:9922   */\n      tag_431\n      jump\t// in\n    tag_439:\n        /* \"#utility.yul\":9947:9976   */\n      tag_440\n        /* \"#utility.yul\":9969:9975   */\n      dup2\n        /* \"#utility.yul\":9947:9976   */\n      tag_433\n      jump\t// in\n    tag_440:\n        /* \"#utility.yul\":9942:9945   */\n      dup5\n        /* \"#utility.yul\":9938:9977   */\n      add\n        /* \"#utility.yul\":9931:9977   */\n      swap2\n      pop\n        /* \"#utility.yul\":9711:9983   */\n      pop\n        /* \"#utility.yul\":9619:9983   */\n      swap3\n      swap2\n      pop\n      pop\n      jump\t// out\n        /* \"#utility.yul\":9989:10355   */\n    tag_441:\n        /* \"#utility.yul\":10131:10134   */\n      0x00\n        /* \"#utility.yul\":10152:10219   */\n      tag_443\n        /* \"#utility.yul\":10216:10218   */\n      0x26\n        /* \"#utility.yul\":10211:10214   */\n      dup4\n        /* \"#utility.yul\":10152:10219   */\n      tag_438\n      jump\t// in\n    tag_443:\n        /* \"#utility.yul\":10145:10219   */\n      swap2\n      pop\n        /* \"#utility.yul\":10228:10321   */\n      tag_444\n        /* \"#utility.yul\":10317:10320   */\n      dup3\n        /* \"#utility.yul\":10228:10321   */\n      tag_445\n      jump\t// in\n    tag_444:\n        /* \"#utility.yul\":10346:10348   */\n      0x40\n        /* \"#utility.yul\":10341:10344   */\n      dup3\n        /* \"#utility.yul\":10337:10349   */\n      add\n        /* \"#utility.yul\":10330:10349   */\n      swap1\n      pop\n        /* \"#utility.yul\":9989:10355   */\n      swap2\n      swap1\n      pop\n      jump\t// out\n        /* \"#utility.yul\":10361:10727   */\n    tag_446:\n        /* \"#utility.yul\":10503:10506   */\n      0x00\n        /* \"#utility.yul\":10524:10591   */\n      tag_448\n        /* \"#utility.yul\":10588:10590   */\n      0x20\n        /* \"#utility.yul\":10583:10586   */\n      dup4\n        /* \"#utility.yul\":10524:10591   */\n      tag_438\n      jump\t// in\n    tag_448:\n        /* \"#utility.yul\":10517:10591   */\n      swap2\n      pop\n        /* \"#utility.yul\":10600:10693   */\n      tag_449\n        /* \"#utility.yul\":10689:10692   */\n      dup3\n        /* \"#utility.yul\":10600:10693   */\n      tag_450\n      jump\t// in\n    tag_449:\n        /* \"#utility.yul\":10718:10720   */\n      0x20\n        /* \"#utility.yul\":10713:10716   */\n      dup3\n        /* \"#utility.yul\":10709:10721   */\n      add\n        /* \"#utility.yul\":10702:10721   */\n      swap1\n      pop\n        /* \"#utility.yul\":10361:10727   */\n      swap2\n      swap1\n      pop\n      jump\t// out\n        /* \"#utility.yul\":10797:11824   */\n    tag_451:\n        /* \"#utility.yul\":10916:10919   */\n      0x00\n        /* \"#utility.yul\":10952:10956   */\n      0x80\n        /* \"#utility.yul\":10947:10950   */\n      dup4\n        /* \"#utility.yul\":10943:10957   */\n      add\n        /* \"#utility.yul\":11040:11044   */\n      0x00\n        /* \"#utility.yul\":11033:11038   */\n      dup4\n        /* \"#utility.yul\":11029:11045   */\n      add\n        /* \"#utility.yul\":11023:11046   */\n      mload\n        /* \"#utility.yul\":11059:11122   */\n      tag_453\n        /* \"#utility.yul\":11116:11120   */\n      0x00\n        /* \"#utility.yul\":11111:11114   */\n      dup7\n        /* \"#utility.yul\":11107:11121   */\n      add\n        /* \"#utility.yul\":11093:11105   */\n      dup3\n        /* \"#utility.yul\":11059:11122   */\n      tag_454\n      jump\t// in\n    tag_453:\n        /* \"#utility.yul\":10967:11132   */\n      pop\n        /* \"#utility.yul\":11221:11225   */\n      0x20\n        /* \"#utility.yul\":11214:11219   */\n      dup4\n        /* \"#utility.yul\":11210:11226   */\n      add\n        /* \"#utility.yul\":11204:11227   */\n      mload\n        /* \"#utility.yul\":11274:11277   */\n      dup5\n        /* \"#utility.yul\":11268:11272   */\n      dup3\n        /* \"#utility.yul\":11264:11278   */\n      sub\n        /* \"#utility.yul\":11257:11261   */\n      0x20\n        /* \"#utility.yul\":11252:11255   */\n      dup7\n        /* \"#utility.yul\":11248:11262   */\n      add\n        /* \"#utility.yul\":11241:11279   */\n      mstore\n        /* \"#utility.yul\":11300:11373   */\n      tag_455\n        /* \"#utility.yul\":11368:11372   */\n      dup3\n        /* \"#utility.yul\":11354:11366   */\n      dup3\n        /* \"#utility.yul\":11300:11373   */\n      tag_424\n      jump\t// in\n    tag_455:\n        /* \"#utility.yul\":11292:11373   */\n      swap2\n      pop\n        /* \"#utility.yul\":11142:11384   */\n      pop\n        /* \"#utility.yul\":11463:11467   */\n      0x40\n        /* \"#utility.yul\":11456:11461   */\n      dup4\n        /* \"#utility.yul\":11452:11468   */\n      add\n        /* \"#utility.yul\":11446:11469   */\n      mload\n        /* \"#utility.yul\":11516:11519   */\n      dup5\n        /* \"#utility.yul\":11510:11514   */\n      dup3\n        /* \"#utility.yul\":11506:11520   */\n      sub\n        /* \"#utility.yul\":11499:11503   */\n      0x40\n        /* \"#utility.yul\":11494:11497   */\n      dup7\n        /* \"#utility.yul\":11490:11504   */\n      add\n        /* \"#utility.yul\":11483:11521   */\n      mstore\n        /* \"#utility.yul\":11542:11615   */\n      tag_456\n        /* \"#utility.yul\":11610:11614   */\n      dup3\n        /* \"#utility.yul\":11596:11608   */\n      dup3\n        /* \"#utility.yul\":11542:11615   */\n      tag_424\n      jump\t// in\n    tag_456:\n        /* \"#utility.yul\":11534:11615   */\n      swap2\n      pop\n        /* \"#utility.yul\":11394:11626   */\n      pop\n        /* \"#utility.yul\":11705:11709   */\n      0x60\n        /* \"#utility.yul\":11698:11703   */\n      dup4\n        /* \"#utility.yul\":11694:11710   */\n      add\n        /* \"#utility.yul\":11688:11711   */\n      mload\n        /* \"#utility.yul\":11724:11787   */\n      tag_457\n        /* \"#utility.yul\":11781:11785   */\n      0x60\n        /* \"#utility.yul\":11776:11779   */\n      dup7\n        /* \"#utility.yul\":11772:11786   */\n      add\n        /* \"#utility.yul\":11758:11770   */\n      dup3\n        /* \"#utility.yul\":11724:11787   */\n      tag_454\n      jump\t// in\n    tag_457:\n        /* \"#utility.yul\":11636:11797   */\n      pop\n        /* \"#utility.yul\":11814:11818   */\n      dup1\n        /* \"#utility.yul\":11807:11818   */\n      swap2\n      pop\n        /* \"#utility.yul\":10921:11824   */\n      pop\n        /* \"#utility.yul\":10797:11824   */\n      swap3\n      swap2\n      pop\n      pop\n      jump\t// out\n        /* \"#utility.yul\":11830:11938   */\n    tag_454:\n        /* \"#utility.yul\":11907:11931   */\n      tag_459\n        /* \"#utility.yul\":11925:11930   */\n      dup2\n        /* \"#utility.yul\":11907:11931   */\n      tag_460\n      jump\t// in\n    tag_459:\n        /* \"#utility.yul\":11902:11905   */\n      dup3\n        /* \"#utility.yul\":11895:11932   */\n      mstore\n        /* \"#utility.yul\":11830:11938   */\n      pop\n      pop\n      jump\t// out\n        /* \"#utility.yul\":11944:12062   */\n    tag_461:\n        /* \"#utility.yul\":12031:12055   */\n      tag_463\n        /* \"#utility.yul\":12049:12054   */\n      dup2\n        /* \"#utility.yul\":12031:12055   */\n      tag_460\n      jump\t// in\n    tag_463:\n        /* \"#utility.yul\":12026:12029   */\n      dup3\n        /* \"#utility.yul\":12019:12056   */\n      mstore\n        /* \"#utility.yul\":11944:12062   */\n      pop\n      pop\n      jump\t// out\n        /* \"#utility.yul\":12068:12465   */\n    tag_191:\n        /* \"#utility.yul\":12208:12211   */\n      0x00\n        /* \"#utility.yul\":12223:12298   */\n      tag_465\n        /* \"#utility.yul\":12294:12297   */\n      dup3\n        /* \"#utility.yul\":12285:12291   */\n      dup6\n        /* \"#utility.yul\":12223:12298   */\n      tag_418\n      jump\t// in\n    tag_465:\n        /* \"#utility.yul\":12323:12325   */\n      0x20\n        /* \"#utility.yul\":12318:12321   */\n      dup3\n        /* \"#utility.yul\":12314:12326   */\n      add\n        /* \"#utility.yul\":12307:12326   */\n      swap2\n      pop\n        /* \"#utility.yul\":12336:12411   */\n      tag_466\n        /* \"#utility.yul\":12407:12410   */\n      dup3\n        /* \"#utility.yul\":12398:12404   */\n      dup5\n        /* \"#utility.yul\":12336:12411   */\n      tag_418\n      jump\t// in\n    tag_466:\n        /* \"#utility.yul\":12436:12438   */\n      0x20\n        /* \"#utility.yul\":12431:12434   */\n      dup3\n        /* \"#utility.yul\":12427:12439   */\n      add\n        /* \"#utility.yul\":12420:12439   */\n      swap2\n      pop\n        /* \"#utility.yul\":12456:12459   */\n      dup2\n        /* \"#utility.yul\":12449:12459   */\n      swap1\n      pop\n        /* \"#utility.yul\":12068:12465   */\n      swap4\n      swap3\n      pop\n      pop\n      pop\n      jump\t// out\n        /* \"#utility.yul\":12471:12693   */\n    tag_50:\n        /* \"#utility.yul\":12564:12568   */\n      0x00\n        /* \"#utility.yul\":12602:12604   */\n      0x20\n        /* \"#utility.yul\":12591:12600   */\n      dup3\n        /* \"#utility.yul\":12587:12605   */\n      add\n        /* \"#utility.yul\":12579:12605   */\n      swap1\n      pop\n        /* \"#utility.yul\":12615:12686   */\n      tag_468\n        /* \"#utility.yul\":12683:12684   */\n      0x00\n        /* \"#utility.yul\":12672:12681   */\n      dup4\n        /* \"#utility.yul\":12668:12685   */\n      add\n        /* \"#utility.yul\":12659:12665   */\n      dup5\n        /* \"#utility.yul\":12615:12686   */\n      tag_410\n      jump\t// in\n    tag_468:\n        /* \"#utility.yul\":12471:12693   */\n      swap3\n      swap2\n      pop\n      pop\n      jump\t// out\n        /* \"#utility.yul\":12699:13122   */\n    tag_244:\n        /* \"#utility.yul\":12840:12844   */\n      0x00\n        /* \"#utility.yul\":12878:12880   */\n      0x40\n        /* \"#utility.yul\":12867:12876   */\n      dup3\n        /* \"#utility.yul\":12863:12881   */\n      add\n        /* \"#utility.yul\":12855:12881   */\n      swap1\n      pop\n        /* \"#utility.yul\":12891:12962   */\n      tag_470\n        /* \"#utility.yul\":12959:12960   */\n      0x00\n        /* \"#utility.yul\":12948:12957   */\n      dup4\n        /* \"#utility.yul\":12944:12961   */\n      add\n        /* \"#utility.yul\":12935:12941   */\n      dup6\n        /* \"#utility.yul\":12891:12962   */\n      tag_410\n      jump\t// in\n    tag_470:\n        /* \"#utility.yul\":13009:13018   */\n      dup2\n        /* \"#utility.yul\":13003:13007   */\n      dup2\n        /* \"#utility.yul\":12999:13019   */\n      sub\n        /* \"#utility.yul\":12994:12996   */\n      0x20\n        /* \"#utility.yul\":12983:12992   */\n      dup4\n        /* \"#utility.yul\":12979:12997   */\n      add\n        /* \"#utility.yul\":12972:13020   */\n      mstore\n        /* \"#utility.yul\":13037:13115   */\n      tag_471\n        /* \"#utility.yul\":13110:13114   */\n      dup2\n        /* \"#utility.yul\":13101:13107   */\n      dup5\n        /* \"#utility.yul\":13037:13115   */\n      tag_434\n      jump\t// in\n    tag_471:\n        /* \"#utility.yul\":13029:13115   */\n      swap1\n      pop\n        /* \"#utility.yul\":12699:13122   */\n      swap4\n      swap3\n      pop\n      pop\n      pop\n      jump\t// out\n        /* \"#utility.yul\":13128:13338   */\n    tag_34:\n        /* \"#utility.yul\":13215:13219   */\n      0x00\n        /* \"#utility.yul\":13253:13255   */\n      0x20\n        /* \"#utility.yul\":13242:13251   */\n      dup3\n        /* \"#utility.yul\":13238:13256   */\n      add\n        /* \"#utility.yul\":13230:13256   */\n      swap1\n      pop\n        /* \"#utility.yul\":13266:13331   */\n      tag_473\n        /* \"#utility.yul\":13328:13329   */\n      0x00\n        /* \"#utility.yul\":13317:13326   */\n      dup4\n        /* \"#utility.yul\":13313:13330   */\n      add\n        /* \"#utility.yul\":13304:13310   */\n      dup5\n        /* \"#utility.yul\":13266:13331   */\n      tag_414\n      jump\t// in\n    tag_473:\n        /* \"#utility.yul\":13128:13338   */\n      swap3\n      swap2\n      pop\n      pop\n      jump\t// out\n        /* \"#utility.yul\":13344:13763   */\n    tag_267:\n        /* \"#utility.yul\":13510:13514   */\n      0x00\n        /* \"#utility.yul\":13548:13550   */\n      0x20\n        /* \"#utility.yul\":13537:13546   */\n      dup3\n        /* \"#utility.yul\":13533:13551   */\n      add\n        /* \"#utility.yul\":13525:13551   */\n      swap1\n      pop\n        /* \"#utility.yul\":13597:13606   */\n      dup2\n        /* \"#utility.yul\":13591:13595   */\n      dup2\n        /* \"#utility.yul\":13587:13607   */\n      sub\n        /* \"#utility.yul\":13583:13584   */\n      0x00\n        /* \"#utility.yul\":13572:13581   */\n      dup4\n        /* \"#utility.yul\":13568:13585   */\n      add\n        /* \"#utility.yul\":13561:13608   */\n      mstore\n        /* \"#utility.yul\":13625:13756   */\n      tag_475\n        /* \"#utility.yul\":13751:13755   */\n      dup2\n        /* \"#utility.yul\":13625:13756   */\n      tag_441\n      jump\t// in\n    tag_475:\n        /* \"#utility.yul\":13617:13756   */\n      swap1\n      pop\n        /* \"#utility.yul\":13344:13763   */\n      swap2\n      swap1\n      pop\n      jump\t// out\n        /* \"#utility.yul\":13769:14188   */\n    tag_141:\n        /* \"#utility.yul\":13935:13939   */\n      0x00\n        /* \"#utility.yul\":13973:13975   */\n      0x20\n        /* \"#utility.yul\":13962:13971   */\n      dup3\n        /* \"#utility.yul\":13958:13976   */\n      add\n        /* \"#utility.yul\":13950:13976   */\n      swap1\n      pop\n        /* \"#utility.yul\":14022:14031   */\n      dup2\n        /* \"#utility.yul\":14016:14020   */\n      dup2\n        /* \"#utility.yul\":14012:14032   */\n      sub\n        /* \"#utility.yul\":14008:14009   */\n      0x00\n        /* \"#utility.yul\":13997:14006   */\n      dup4\n        /* \"#utility.yul\":13993:14010   */\n      add\n        /* \"#utility.yul\":13986:14033   */\n      mstore\n        /* \"#utility.yul\":14050:14181   */\n      tag_477\n        /* \"#utility.yul\":14176:14180   */\n      dup2\n        /* \"#utility.yul\":14050:14181   */\n      tag_446\n      jump\t// in\n    tag_477:\n        /* \"#utility.yul\":14042:14181   */\n      swap1\n      pop\n        /* \"#utility.yul\":13769:14188   */\n      swap2\n      swap1\n      pop\n      jump\t// out\n        /* \"#utility.yul\":14194:14567   */\n    tag_68:\n        /* \"#utility.yul\":14337:14341   */\n      0x00\n        /* \"#utility.yul\":14375:14377   */\n      0x20\n        /* \"#utility.yul\":14364:14373   */\n      dup3\n        /* \"#utility.yul\":14360:14378   */\n      add\n        /* \"#utility.yul\":14352:14378   */\n      swap1\n      pop\n        /* \"#utility.yul\":14424:14433   */\n      dup2\n        /* \"#utility.yul\":14418:14422   */\n      dup2\n        /* \"#utility.yul\":14414:14434   */\n      sub\n        /* \"#utility.yul\":14410:14411   */\n      0x00\n        /* \"#utility.yul\":14399:14408   */\n      dup4\n        /* \"#utility.yul\":14395:14412   */\n      add\n        /* \"#utility.yul\":14388:14435   */\n      mstore\n        /* \"#utility.yul\":14452:14560   */\n      tag_479\n        /* \"#utility.yul\":14555:14559   */\n      dup2\n        /* \"#utility.yul\":14546:14552   */\n      dup5\n        /* \"#utility.yul\":14452:14560   */\n      tag_451\n      jump\t// in\n    tag_479:\n        /* \"#utility.yul\":14444:14560   */\n      swap1\n      pop\n        /* \"#utility.yul\":14194:14567   */\n      swap3\n      swap2\n      pop\n      pop\n      jump\t// out\n        /* \"#utility.yul\":14573:14795   */\n    tag_90:\n        /* \"#utility.yul\":14666:14670   */\n      0x00\n        /* \"#utility.yul\":14704:14706   */\n      0x20\n        /* \"#utility.yul\":14693:14702   */\n      dup3\n        /* \"#utility.yul\":14689:14707   */\n      add\n        /* \"#utility.yul\":14681:14707   */\n      swap1\n      pop\n        /* \"#utility.yul\":14717:14788   */\n      tag_481\n        /* \"#utility.yul\":14785:14786   */\n      0x00\n        /* \"#utility.yul\":14774:14783   */\n      dup4\n        /* \"#utility.yul\":14770:14787   */\n      add\n        /* \"#utility.yul\":14761:14767   */\n      dup5\n        /* \"#utility.yul\":14717:14788   */\n      tag_461\n      jump\t// in\n    tag_481:\n        /* \"#utility.yul\":14573:14795   */\n      swap3\n      swap2\n      pop\n      pop\n      jump\t// out\n        /* \"#utility.yul\":14801:15133   */\n    tag_251:\n        /* \"#utility.yul\":14922:14926   */\n      0x00\n        /* \"#utility.yul\":14960:14962   */\n      0x40\n        /* \"#utility.yul\":14949:14958   */\n      dup3\n        /* \"#utility.yul\":14945:14963   */\n      add\n        /* \"#utility.yul\":14937:14963   */\n      swap1\n      pop\n        /* \"#utility.yul\":14973:15044   */\n      tag_483\n        /* \"#utility.yul\":15041:15042   */\n      0x00\n        /* \"#utility.yul\":15030:15039   */\n      dup4\n        /* \"#utility.yul\":15026:15043   */\n      add\n        /* \"#utility.yul\":15017:15023   */\n      dup6\n        /* \"#utility.yul\":14973:15044   */\n      tag_461\n      jump\t// in\n    tag_483:\n        /* \"#utility.yul\":15054:15126   */\n      tag_484\n        /* \"#utility.yul\":15122:15124   */\n      0x20\n        /* \"#utility.yul\":15111:15120   */\n      dup4\n        /* \"#utility.yul\":15107:15125   */\n      add\n        /* \"#utility.yul\":15098:15104   */\n      dup5\n        /* \"#utility.yul\":15054:15126   */\n      tag_461\n      jump\t// in\n    tag_484:\n        /* \"#utility.yul\":14801:15133   */\n      swap4\n      swap3\n      pop\n      pop\n      pop\n      jump\t// out\n        /* \"#utility.yul\":15139:15268   */\n    tag_295:\n        /* \"#utility.yul\":15173:15179   */\n      0x00\n        /* \"#utility.yul\":15200:15220   */\n      tag_486\n      tag_487\n      jump\t// in\n    tag_486:\n        /* \"#utility.yul\":15190:15220   */\n      swap1\n      pop\n        /* \"#utility.yul\":15229:15262   */\n      tag_488\n        /* \"#utility.yul\":15257:15261   */\n      dup3\n        /* \"#utility.yul\":15249:15255   */\n      dup3\n        /* \"#utility.yul\":15229:15262   */\n      tag_489\n      jump\t// in\n    tag_488:\n        /* \"#utility.yul\":15139:15268   */\n      swap2\n      swap1\n      pop\n      jump\t// out\n        /* \"#utility.yul\":15274:15349   */\n    tag_487:\n        /* \"#utility.yul\":15307:15313   */\n      0x00\n        /* \"#utility.yul\":15340:15342   */\n      0x40\n        /* \"#utility.yul\":15334:15343   */\n      mload\n        /* \"#utility.yul\":15324:15343   */\n      swap1\n      pop\n        /* \"#utility.yul\":15274:15349   */\n      swap1\n      jump\t// out\n        /* \"#utility.yul\":15355:15663   */\n    tag_294:\n        /* \"#utility.yul\":15417:15421   */\n      0x00\n        /* \"#utility.yul\":15507:15525   */\n      0xffffffffffffffff\n        /* \"#utility.yul\":15499:15505   */\n      dup3\n        /* \"#utility.yul\":15496:15526   */\n      gt\n        /* \"#utility.yul\":15493:15549   */\n      iszero\n      tag_492\n      jumpi\n        /* \"#utility.yul\":15529:15547   */\n      tag_493\n      tag_177\n      jump\t// in\n    tag_493:\n        /* \"#utility.yul\":15493:15549   */\n    tag_492:\n        /* \"#utility.yul\":15567:15596   */\n      tag_494\n        /* \"#utility.yul\":15589:15595   */\n      dup3\n        /* \"#utility.yul\":15567:15596   */\n      tag_433\n      jump\t// in\n    tag_494:\n        /* \"#utility.yul\":15559:15596   */\n      swap1\n      pop\n        /* \"#utility.yul\":15651:15655   */\n      0x20\n        /* \"#utility.yul\":15645:15649   */\n      dup2\n        /* \"#utility.yul\":15641:15656   */\n      add\n        /* \"#utility.yul\":15633:15656   */\n      swap1\n      pop\n        /* \"#utility.yul\":15355:15663   */\n      swap2\n      swap1\n      pop\n      jump\t// out\n        /* \"#utility.yul\":15669:15768   */\n    tag_427:\n        /* \"#utility.yul\":15721:15727   */\n      0x00\n        /* \"#utility.yul\":15755:15760   */\n      dup2\n        /* \"#utility.yul\":15749:15761   */\n      mload\n        /* \"#utility.yul\":15739:15761   */\n      swap1\n      pop\n        /* \"#utility.yul\":15669:15768   */\n      swap2\n      swap1\n      pop\n      jump\t// out\n        /* \"#utility.yul\":15774:15933   */\n    tag_429:\n        /* \"#utility.yul\":15848:15859   */\n      0x00\n        /* \"#utility.yul\":15882:15888   */\n      dup3\n        /* \"#utility.yul\":15877:15880   */\n      dup3\n        /* \"#utility.yul\":15870:15889   */\n      mstore\n        /* \"#utility.yul\":15922:15926   */\n      0x20\n        /* \"#utility.yul\":15917:15920   */\n      dup3\n        /* \"#utility.yul\":15913:15927   */\n      add\n        /* \"#utility.yul\":15898:15927   */\n      swap1\n      pop\n        /* \"#utility.yul\":15774:15933   */\n      swap3\n      swap2\n      pop\n      pop\n      jump\t// out\n        /* \"#utility.yul\":15939:16108   */\n    tag_438:\n        /* \"#utility.yul\":16023:16034   */\n      0x00\n        /* \"#utility.yul\":16057:16063   */\n      dup3\n        /* \"#utility.yul\":16052:16055   */\n      dup3\n        /* \"#utility.yul\":16045:16064   */\n      mstore\n        /* \"#utility.yul\":16097:16101   */\n      0x20\n        /* \"#utility.yul\":16092:16095   */\n      dup3\n        /* \"#utility.yul\":16088:16102   */\n      add\n        /* \"#utility.yul\":16073:16102   */\n      swap1\n      pop\n        /* \"#utility.yul\":15939:16108   */\n      swap3\n      swap2\n      pop\n      pop\n      jump\t// out\n        /* \"#utility.yul\":16114:16419   */\n    tag_174:\n        /* \"#utility.yul\":16154:16157   */\n      0x00\n        /* \"#utility.yul\":16173:16193   */\n      tag_499\n        /* \"#utility.yul\":16191:16192   */\n      dup3\n        /* \"#utility.yul\":16173:16193   */\n      tag_460\n      jump\t// in\n    tag_499:\n        /* \"#utility.yul\":16168:16193   */\n      swap2\n      pop\n        /* \"#utility.yul\":16207:16227   */\n      tag_500\n        /* \"#utility.yul\":16225:16226   */\n      dup4\n        /* \"#utility.yul\":16207:16227   */\n      tag_460\n      jump\t// in\n    tag_500:\n        /* \"#utility.yul\":16202:16227   */\n      swap3\n      pop\n        /* \"#utility.yul\":16361:16362   */\n      dup3\n        /* \"#utility.yul\":16293:16359   */\n      0xffffffffffffffffffffffffffffffffffffffffffffffffffffffffffffffff\n        /* \"#utility.yul\":16289:16363   */\n      sub\n        /* \"#utility.yul\":16286:16287   */\n      dup3\n        /* \"#utility.yul\":16283:16364   */\n      gt\n        /* \"#utility.yul\":16280:16387   */\n      iszero\n      tag_501\n      jumpi\n        /* \"#utility.yul\":16367:16385   */\n      tag_502\n      tag_503\n      jump\t// in\n    tag_502:\n        /* \"#utility.yul\":16280:16387   */\n    tag_501:\n        /* \"#utility.yul\":16411:16412   */\n      dup3\n        /* \"#utility.yul\":16408:16409   */\n      dup3\n        /* \"#utility.yul\":16404:16413   */\n      add\n        /* \"#utility.yul\":16397:16413   */\n      swap1\n      pop\n        /* \"#utility.yul\":16114:16419   */\n      swap3\n      swap2\n      pop\n      pop\n      jump\t// out\n        /* \"#utility.yul\":16425:16521   */\n    tag_413:\n        /* \"#utility.yul\":16462:16469   */\n      0x00\n        /* \"#utility.yul\":16491:16515   */\n      tag_505\n        /* \"#utility.yul\":16509:16514   */\n      dup3\n        /* \"#utility.yul\":16491:16515   */\n      tag_506\n      jump\t// in\n    tag_505:\n        /* \"#utility.yul\":16480:16515   */\n      swap1\n      pop\n        /* \"#utility.yul\":16425:16521   */\n      swap2\n      swap1\n      pop\n      jump\t// out\n        /* \"#utility.yul\":16527:16617   */\n    tag_417:\n        /* \"#utility.yul\":16561:16568   */\n      0x00\n        /* \"#utility.yul\":16604:16609   */\n      dup2\n        /* \"#utility.yul\":16597:16610   */\n      iszero\n        /* \"#utility.yul\":16590:16611   */\n      iszero\n        /* \"#utility.yul\":16579:16611   */\n      swap1\n      pop\n        /* \"#utility.yul\":16527:16617   */\n      swap2\n      swap1\n      pop\n      jump\t// out\n        /* \"#utility.yul\":16623:16700   */\n    tag_422:\n        /* \"#utility.yul\":16660:16667   */\n      0x00\n        /* \"#utility.yul\":16689:16694   */\n      dup2\n        /* \"#utility.yul\":16678:16694   */\n      swap1\n      pop\n        /* \"#utility.yul\":16623:16700   */\n      swap2\n      swap1\n      pop\n      jump\t// out\n        /* \"#utility.yul\":16706:16832   */\n    tag_506:\n        /* \"#utility.yul\":16743:16750   */\n      0x00\n        /* \"#utility.yul\":16783:16825   */\n      0xffffffffffffffffffffffffffffffffffffffff\n        /* \"#utility.yul\":16776:16781   */\n      dup3\n        /* \"#utility.yul\":16772:16826   */\n      and\n        /* \"#utility.yul\":16761:16826   */\n      swap1\n      pop\n        /* \"#utility.yul\":16706:16832   */\n      swap2\n      swap1\n      pop\n      jump\t// out\n        /* \"#utility.yul\":16838:16915   */\n    tag_460:\n        /* \"#utility.yul\":16875:16882   */\n      0x00\n        /* \"#utility.yul\":16904:16909   */\n      dup2\n        /* \"#utility.yul\":16893:16909   */\n      swap1\n      pop\n        /* \"#utility.yul\":16838:16915   */\n      swap2\n      swap1\n      pop\n      jump\t// out\n        /* \"#utility.yul\":16921:17075   */\n    tag_300:\n        /* \"#utility.yul\":17005:17011   */\n      dup3\n        /* \"#utility.yul\":17000:17003   */\n      dup2\n        /* \"#utility.yul\":16995:16998   */\n      dup4\n        /* \"#utility.yul\":16982:17012   */\n      calldatacopy\n        /* \"#utility.yul\":17067:17068   */\n      0x00\n        /* \"#utility.yul\":17058:17064   */\n      dup4\n        /* \"#utility.yul\":17053:17056   */\n      dup4\n        /* \"#utility.yul\":17049:17065   */\n      add\n        /* \"#utility.yul\":17042:17069   */\n      mstore\n        /* \"#utility.yul\":16921:17075   */\n      pop\n      pop\n      pop\n      jump\t// out\n        /* \"#utility.yul\":17081:17388   */\n    tag_431:\n        /* \"#utility.yul\":17149:17150   */\n      0x00\n        /* \"#utility.yul\":17159:17272   */\n    tag_513:\n        /* \"#utility.yul\":17173:17179   */\n      dup4\n        /* \"#utility.yul\":17170:17171   */\n      dup2\n        /* \"#utility.yul\":17167:17180   */\n      lt\n        /* \"#utility.yul\":17159:17272   */\n      iszero\n      tag_515\n      jumpi\n        /* \"#utility.yul\":17258:17259   */\n      dup1\n        /* \"#utility.yul\":17253:17256   */\n      dup3\n        /* \"#utility.yul\":17249:17260   */\n      add\n        /* \"#utility.yul\":17243:17261   */\n      mload\n        /* \"#utility.yul\":17239:17240   */\n      dup2\n        /* \"#utility.yul\":17234:17237   */\n      dup5\n        /* \"#utility.yul\":17230:17241   */\n      add\n        /* \"#utility.yul\":17223:17262   */\n      mstore\n        /* \"#utility.yul\":17195:17197   */\n      0x20\n        /* \"#utility.yul\":17192:17193   */\n      dup2\n        /* \"#utility.yul\":17188:17198   */\n      add\n        /* \"#utility.yul\":17183:17198   */\n      swap1\n      pop\n        /* \"#utility.yul\":17159:17272   */\n      jump(tag_513)\n    tag_515:\n        /* \"#utility.yul\":17290:17296   */\n      dup4\n        /* \"#utility.yul\":17287:17288   */\n      dup2\n        /* \"#utility.yul\":17284:17297   */\n      gt\n        /* \"#utility.yul\":17281:17382   */\n      iszero\n      tag_516\n      jumpi\n        /* \"#utility.yul\":17370:17371   */\n      0x00\n        /* \"#utility.yul\":17361:17367   */\n      dup5\n        /* \"#utility.yul\":17356:17359   */\n      dup5\n        /* \"#utility.yul\":17352:17368   */\n      add\n        /* \"#utility.yul\":17345:17372   */\n      mstore\n        /* \"#utility.yul\":17281:17382   */\n    tag_516:\n        /* \"#utility.yul\":17130:17388   */\n      pop\n        /* \"#utility.yul\":17081:17388   */\n      pop\n      pop\n      pop\n      jump\t// out\n        /* \"#utility.yul\":17394:17714   */\n    tag_122:\n        /* \"#utility.yul\":17438:17444   */\n      0x00\n        /* \"#utility.yul\":17475:17476   */\n      0x02\n        /* \"#utility.yul\":17469:17473   */\n      dup3\n        /* \"#utility.yul\":17465:17477   */\n      div\n        /* \"#utility.yul\":17455:17477   */\n      swap1\n      pop\n        /* \"#utility.yul\":17522:17523   */\n      0x01\n        /* \"#utility.yul\":17516:17520   */\n      dup3\n        /* \"#utility.yul\":17512:17524   */\n      and\n        /* \"#utility.yul\":17543:17561   */\n      dup1\n        /* \"#utility.yul\":17533:17614   */\n      tag_518\n      jumpi\n        /* \"#utility.yul\":17599:17603   */\n      0x7f\n        /* \"#utility.yul\":17591:17597   */\n      dup3\n        /* \"#utility.yul\":17587:17604   */\n      and\n        /* \"#utility.yul\":17577:17604   */\n      swap2\n      pop\n        /* \"#utility.yul\":17533:17614   */\n    tag_518:\n        /* \"#utility.yul\":17661:17663   */\n      0x20\n        /* \"#utility.yul\":17653:17659   */\n      dup3\n        /* \"#utility.yul\":17650:17664   */\n      lt\n        /* \"#utility.yul\":17630:17648   */\n      dup2\n        /* \"#utility.yul\":17627:17665   */\n      eq\n        /* \"#utility.yul\":17624:17708   */\n      iszero\n      tag_519\n      jumpi\n        /* \"#utility.yul\":17680:17698   */\n      tag_520\n      tag_521\n      jump\t// in\n    tag_520:\n        /* \"#utility.yul\":17624:17708   */\n    tag_519:\n        /* \"#utility.yul\":17445:17714   */\n      pop\n        /* \"#utility.yul\":17394:17714   */\n      swap2\n      swap1\n      pop\n      jump\t// out\n        /* \"#utility.yul\":17720:18001   */\n    tag_489:\n        /* \"#utility.yul\":17803:17830   */\n      tag_523\n        /* \"#utility.yul\":17825:17829   */\n      dup3\n        /* \"#utility.yul\":17803:17830   */\n      tag_433\n      jump\t// in\n    tag_523:\n        /* \"#utility.yul\":17795:17801   */\n      dup2\n        /* \"#utility.yul\":17791:17831   */\n      add\n        /* \"#utility.yul\":17933:17939   */\n      dup2\n        /* \"#utility.yul\":17921:17931   */\n      dup2\n        /* \"#utility.yul\":17918:17940   */\n      lt\n        /* \"#utility.yul\":17897:17915   */\n      0xffffffffffffffff\n        /* \"#utility.yul\":17885:17895   */\n      dup3\n        /* \"#utility.yul\":17882:17916   */\n      gt\n        /* \"#utility.yul\":17879:17941   */\n      or\n        /* \"#utility.yul\":17876:17964   */\n      iszero\n      tag_524\n      jumpi\n        /* \"#utility.yul\":17944:17962   */\n      tag_525\n      tag_177\n      jump\t// in\n    tag_525:\n        /* \"#utility.yul\":17876:17964   */\n    tag_524:\n        /* \"#utility.yul\":17984:17994   */\n      dup1\n        /* \"#utility.yul\":17980:17982   */\n      0x40\n        /* \"#utility.yul\":17973:17995   */\n      mstore\n        /* \"#utility.yul\":17763:18001   */\n      pop\n        /* \"#utility.yul\":17720:18001   */\n      pop\n      pop\n      jump\t// out\n        /* \"#utility.yul\":18007:18240   */\n    tag_197:\n        /* \"#utility.yul\":18046:18049   */\n      0x00\n        /* \"#utility.yul\":18069:18093   */\n      tag_527\n        /* \"#utility.yul\":18087:18092   */\n      dup3\n        /* \"#utility.yul\":18069:18093   */\n      tag_460\n      jump\t// in\n    tag_527:\n        /* \"#utility.yul\":18060:18093   */\n      swap2\n      pop\n        /* \"#utility.yul\":18115:18181   */\n      0xffffffffffffffffffffffffffffffffffffffffffffffffffffffffffffffff\n        /* \"#utility.yul\":18108:18113   */\n      dup3\n        /* \"#utility.yul\":18105:18182   */\n      eq\n        /* \"#utility.yul\":18102:18205   */\n      iszero\n      tag_528\n      jumpi\n        /* \"#utility.yul\":18185:18203   */\n      tag_529\n      tag_503\n      jump\t// in\n    tag_529:\n        /* \"#utility.yul\":18102:18205   */\n    tag_528:\n        /* \"#utility.yul\":18232:18233   */\n      0x01\n        /* \"#utility.yul\":18225:18230   */\n      dup3\n        /* \"#utility.yul\":18221:18234   */\n      add\n        /* \"#utility.yul\":18214:18234   */\n      swap1\n      pop\n        /* \"#utility.yul\":18007:18240   */\n      swap2\n      swap1\n      pop\n      jump\t// out\n        /* \"#utility.yul\":18246:18325   */\n    tag_423:\n        /* \"#utility.yul\":18285:18292   */\n      0x00\n        /* \"#utility.yul\":18314:18319   */\n      dup2\n        /* \"#utility.yul\":18303:18319   */\n      swap1\n      pop\n        /* \"#utility.yul\":18246:18325   */\n      swap2\n      swap1\n      pop\n      jump\t// out\n        /* \"#utility.yul\":18331:18511   */\n    tag_503:\n        /* \"#utility.yul\":18379:18456   */\n      0x4e487b7100000000000000000000000000000000000000000000000000000000\n        /* \"#utility.yul\":18376:18377   */\n      0x00\n        /* \"#utility.yul\":18369:18457   */\n      mstore\n        /* \"#utility.yul\":18476:18480   */\n      0x11\n        /* \"#utility.yul\":18473:18474   */\n      0x04\n        /* \"#utility.yul\":18466:18481   */\n      mstore\n        /* \"#utility.yul\":18500:18504   */\n      0x24\n        /* \"#utility.yul\":18497:18498   */\n      0x00\n        /* \"#utility.yul\":18490:18505   */\n      revert\n        /* \"#utility.yul\":18517:18697   */\n    tag_521:\n        /* \"#utility.yul\":18565:18642   */\n      0x4e487b7100000000000000000000000000000000000000000000000000000000\n        /* \"#utility.yul\":18562:18563   */\n      0x00\n        /* \"#utility.yul\":18555:18643   */\n      mstore\n        /* \"#utility.yul\":18662:18666   */\n      0x22\n        /* \"#utility.yul\":18659:18660   */\n      0x04\n        /* \"#utility.yul\":18652:18667   */\n      mstore\n        /* \"#utility.yul\":18686:18690   */\n      0x24\n        /* \"#utility.yul\":18683:18684   */\n      0x00\n        /* \"#utility.yul\":18676:18691   */\n      revert\n        /* \"#utility.yul\":18703:18883   */\n    tag_181:\n        /* \"#utility.yul\":18751:18828   */\n      0x4e487b7100000000000000000000000000000000000000000000000000000000\n        /* \"#utility.yul\":18748:18749   */\n      0x00\n        /* \"#utility.yul\":18741:18829   */\n      mstore\n        /* \"#utility.yul\":18848:18852   */\n      0x32\n        /* \"#utility.yul\":18845:18846   */\n      0x04\n        /* \"#utility.yul\":18838:18853   */\n      mstore\n        /* \"#utility.yul\":18872:18876   */\n      0x24\n        /* \"#utility.yul\":18869:18870   */\n      0x00\n        /* \"#utility.yul\":18862:18877   */\n      revert\n        /* \"#utility.yul\":18889:19069   */\n    tag_177:\n        /* \"#utility.yul\":18937:19014   */\n      0x4e487b7100000000000000000000000000000000000000000000000000000000\n        /* \"#utility.yul\":18934:18935   */\n      0x00\n        /* \"#utility.yul\":18927:19015   */\n      mstore\n        /* \"#utility.yul\":19034:19038   */\n      0x41\n        /* \"#utility.yul\":19031:19032   */\n      0x04\n        /* \"#utility.yul\":19024:19039   */\n      mstore\n        /* \"#utility.yul\":19058:19062   */\n      0x24\n        /* \"#utility.yul\":19055:19056   */\n      0x00\n        /* \"#utility.yul\":19048:19063   */\n      revert\n        /* \"#utility.yul\":19075:19192   */\n    tag_312:\n        /* \"#utility.yul\":19184:19185   */\n      0x00\n        /* \"#utility.yul\":19181:19182   */\n      dup1\n        /* \"#utility.yul\":19174:19186   */\n      revert\n        /* \"#utility.yul\":19198:19315   */\n    tag_309:\n        /* \"#utility.yul\":19307:19308   */\n      0x00\n        /* \"#utility.yul\":19304:19305   */\n      dup1\n        /* \"#utility.yul\":19297:19309   */\n      revert\n        /* \"#utility.yul\":19321:19438   */\n    tag_315:\n        /* \"#utility.yul\":19430:19431   */\n      0x00\n        /* \"#utility.yul\":19427:19428   */\n      dup1\n        /* \"#utility.yul\":19420:19432   */\n      revert\n        /* \"#utility.yul\":19444:19561   */\n    tag_298:\n        /* \"#utility.yul\":19553:19554   */\n      0x00\n        /* \"#utility.yul\":19550:19551   */\n      dup1\n        /* \"#utility.yul\":19543:19555   */\n      revert\n        /* \"#utility.yul\":19567:19684   */\n    tag_356:\n        /* \"#utility.yul\":19676:19677   */\n      0x00\n        /* \"#utility.yul\":19673:19674   */\n      dup1\n        /* \"#utility.yul\":19666:19678   */\n      revert\n        /* \"#utility.yul\":19690:19807   */\n    tag_347:\n        /* \"#utility.yul\":19799:19800   */\n      0x00\n        /* \"#utility.yul\":19796:19797   */\n      dup1\n        /* \"#utility.yul\":19789:19801   */\n      revert\n        /* \"#utility.yul\":19813:19915   */\n    tag_433:\n        /* \"#utility.yul\":19854:19860   */\n      0x00\n        /* \"#utility.yul\":19905:19907   */\n      0x1f\n        /* \"#utility.yul\":19901:19908   */\n      not\n        /* \"#utility.yul\":19896:19898   */\n      0x1f\n        /* \"#utility.yul\":19889:19894   */\n      dup4\n        /* \"#utility.yul\":19885:19899   */\n      add\n        /* \"#utility.yul\":19881:19909   */\n      and\n        /* \"#utility.yul\":19871:19909   */\n      swap1\n      pop\n        /* \"#utility.yul\":19813:19915   */\n      swap2\n      swap1\n      pop\n      jump\t// out\n        /* \"#utility.yul\":19921:20146   */\n    tag_445:\n        /* \"#utility.yul\":20061:20095   */\n      0x4f776e61626c653a206e6577206f776e657220697320746865207a65726f2061\n        /* \"#utility.yul\":20057:20058   */\n      0x00\n        /* \"#utility.yul\":20049:20055   */\n      dup3\n        /* \"#utility.yul\":20045:20059   */\n      add\n        /* \"#utility.yul\":20038:20096   */\n      mstore\n        /* \"#utility.yul\":20130:20138   */\n      0x6464726573730000000000000000000000000000000000000000000000000000\n        /* \"#utility.yul\":20125:20127   */\n      0x20\n        /* \"#utility.yul\":20117:20123   */\n      dup3\n        /* \"#utility.yul\":20113:20128   */\n      add\n        /* \"#utility.yul\":20106:20139   */\n      mstore\n        /* \"#utility.yul\":19921:20146   */\n      pop\n      jump\t// out\n        /* \"#utility.yul\":20152:20334   */\n    tag_450:\n        /* \"#utility.yul\":20292:20326   */\n      0x4f776e61626c653a2063616c6c6572206973206e6f7420746865206f776e6572\n        /* \"#utility.yul\":20288:20289   */\n      0x00\n        /* \"#utility.yul\":20280:20286   */\n      dup3\n        /* \"#utility.yul\":20276:20290   */\n      add\n        /* \"#utility.yul\":20269:20327   */\n      mstore\n        /* \"#utility.yul\":20152:20334   */\n      pop\n      jump\t// out\n        /* \"#utility.yul\":20340:20462   */\n    tag_304:\n        /* \"#utility.yul\":20413:20437   */\n      tag_545\n        /* \"#utility.yul\":20431:20436   */\n      dup2\n        /* \"#utility.yul\":20413:20437   */\n      tag_413\n      jump\t// in\n    tag_545:\n        /* \"#utility.yul\":20406:20411   */\n      dup2\n        /* \"#utility.yul\":20403:20438   */\n      eq\n        /* \"#utility.yul\":20393:20456   */\n      tag_546\n      jumpi\n        /* \"#utility.yul\":20452:20453   */\n      0x00\n        /* \"#utility.yul\":20449:20450   */\n      dup1\n        /* \"#utility.yul\":20442:20454   */\n      revert\n        /* \"#utility.yul\":20393:20456   */\n    tag_546:\n        /* \"#utility.yul\":20340:20462   */\n      pop\n      jump\t// out\n        /* \"#utility.yul\":20468:20584   */\n    tag_327:\n        /* \"#utility.yul\":20538:20559   */\n      tag_548\n        /* \"#utility.yul\":20553:20558   */\n      dup2\n        /* \"#utility.yul\":20538:20559   */\n      tag_417\n      jump\t// in\n    tag_548:\n        /* \"#utility.yul\":20531:20536   */\n      dup2\n        /* \"#utility.yul\":20528:20560   */\n      eq\n        /* \"#utility.yul\":20518:20578   */\n      tag_549\n      jumpi\n        /* \"#utility.yul\":20574:20575   */\n      0x00\n        /* \"#utility.yul\":20571:20572   */\n      dup1\n        /* \"#utility.yul\":20564:20576   */\n      revert\n        /* \"#utility.yul\":20518:20578   */\n    tag_549:\n        /* \"#utility.yul\":20468:20584   */\n      pop\n      jump\t// out\n        /* \"#utility.yul\":20590:20712   */\n    tag_331:\n        /* \"#utility.yul\":20663:20687   */\n      tag_551\n        /* \"#utility.yul\":20681:20686   */\n      dup2\n        /* \"#utility.yul\":20663:20687   */\n      tag_422\n      jump\t// in\n    tag_551:\n        /* \"#utility.yul\":20656:20661   */\n      dup2\n        /* \"#utility.yul\":20653:20688   */\n      eq\n        /* \"#utility.yul\":20643:20706   */\n      tag_552\n      jumpi\n        /* \"#utility.yul\":20702:20703   */\n      0x00\n        /* \"#utility.yul\":20699:20700   */\n      dup1\n        /* \"#utility.yul\":20692:20704   */\n      revert\n        /* \"#utility.yul\":20643:20706   */\n    tag_552:\n        /* \"#utility.yul\":20590:20712   */\n      pop\n      jump\t// out\n        /* \"#utility.yul\":20718:20840   */\n    tag_340:\n        /* \"#utility.yul\":20791:20815   */\n      tag_554\n        /* \"#utility.yul\":20809:20814   */\n      dup2\n        /* \"#utility.yul\":20791:20815   */\n      tag_460\n      jump\t// in\n    tag_554:\n        /* \"#utility.yul\":20784:20789   */\n      dup2\n        /* \"#utility.yul\":20781:20816   */\n      eq\n        /* \"#utility.yul\":20771:20834   */\n      tag_555\n      jumpi\n        /* \"#utility.yul\":20830:20831   */\n      0x00\n        /* \"#utility.yul\":20827:20828   */\n      dup1\n        /* \"#utility.yul\":20820:20832   */\n      revert\n        /* \"#utility.yul\":20771:20834   */\n    tag_555:\n        /* \"#utility.yul\":20718:20840   */\n      pop\n      jump\t// out\n\n    auxdata: 0xa2646970667358221220f2d29c3c7fb19a1a7b4181865f9bb6fa78ab389bdd6beb9eab7d1b0d217b85d464736f6c63430008070033\n}\n",
				"bytecode": {
					"linkReferences": {},
					"object": "608060405234801561001057600080fd5b5061002d61002261003260201b60201c565b61003a60201b60201c565b6100fe565b600033905090565b60008060009054906101000a900473ffffffffffffffffffffffffffffffffffffffff169050816000806101000a81548173ffffffffffffffffffffffffffffffffffffffff021916908373ffffffffffffffffffffffffffffffffffffffff1602179055508173ffffffffffffffffffffffffffffffffffffffff168173ffffffffffffffffffffffffffffffffffffffff167f8be0079c531659141344cd1fd0a4f28419497f9722a3daafe3b4186f6b6457e060405160405180910390a35050565b61231e806200010e6000396000f3fe60806040526004361061010d5760003560e01c80639bb6dcc811610095578063d1933ddd11610064578063d1933ddd146103ad578063d6f70eb3146103d6578063f2fde38b146103ff578063fa0e9e4114610428578063fbc2cf131461045157610117565b80639bb6dcc8146102cd578063ad5750351461030a578063b2b72bc414610347578063bafdee141461038457610117565b8063715018a6116100dc578063715018a6146101e8578063717b9b6c146101ff5780638da5cb5b14610228578063917b8fd0146102535780639382b5ec1461029057610117565b80630e197dc91461011c5780631ff4bdf3146101595780633960a892146101825780634b3cef44146101ab57610117565b3661011757600080fd5b600080fd5b34801561012857600080fd5b50610143600480360381019061013e9190611b7f565b61047a565b6040516101509190611e45565b60405180910390f35b34801561016557600080fd5b50610180600480360381019061017b919061190c565b6104a4565b005b34801561018e57600080fd5b506101a960048036038101906101a49190611bd9565b610715565b005b3480156101b757600080fd5b506101d260048036038101906101cd9190611b7f565b61082e565b6040516101df9190611dfa565b60405180910390f35b3480156101f457600080fd5b506101fd610870565b005b34801561020b57600080fd5b5061022660048036038101906102219190611c19565b6108f8565b005b34801561023457600080fd5b5061023d6109a3565b60405161024a9190611dfa565b60405180910390f35b34801561025f57600080fd5b5061027a60048036038101906102759190611b7f565b6109cc565b6040516102879190611ea0565b60405180910390f35b34801561029c57600080fd5b506102b760048036038101906102b29190611939565b610b9c565b6040516102c49190611e45565b60405180910390f35b3480156102d957600080fd5b506102f460048036038101906102ef9190611939565b610d0b565b6040516103019190611e45565b60405180910390f35b34801561031657600080fd5b50610331600480360381019061032c919061190c565b610de0565b60405161033e9190611ea0565b60405180910390f35b34801561035357600080fd5b5061036e6004803603810190610369919061190c565b610f77565b60405161037b9190611ec2565b60405180910390f35b34801561039057600080fd5b506103ab60048036038101906103a69190611a98565b61110b565b005b3480156103b957600080fd5b506103d460048036038101906103cf9190611a29565b61118f565b005b3480156103e257600080fd5b506103fd60048036038101906103f891906119e0565b61136e565b005b34801561040b57600080fd5b506104266004803603810190610421919061190c565b6113ce565b005b34801561043457600080fd5b5061044f600480360381019061044a9190611b23565b6114c6565b005b34801561045d57600080fd5b506104786004803603810190610473919061190c565b611530565b005b60006004600083815260200190815260200160002060009054906101000a900460ff169050919050565b6000600360003373ffffffffffffffffffffffffffffffffffffffff1673ffffffffffffffffffffffffffffffffffffffff1681526020019081526020016000206040518060800160405290816000820154815260200160018201805461050a90612073565b80601f016020809104026020016040519081016040528092919081815260200182805461053690612073565b80156105835780601f1061055857610100808354040283529160200191610583565b820191906000526020600020905b81548152906001019060200180831161056657829003601f168201915b5050505050815260200160028201805461059c90612073565b80601f01602080910402602001604051908101604052809291908181526020018280546105c890612073565b80156106155780601f106105ea57610100808354040283529160200191610615565b820191906000526020600020905b8154815290600101906020018083116105f857829003601f168201915b50505050508152602001600382015481525050905080600360008473ffffffffffffffffffffffffffffffffffffffff1673ffffffffffffffffffffffffffffffffffffffff1681526020019081526020016000206000820151816000015560208201518160010190805190602001906106909291906116bc565b5060408201518160020190805190602001906106ad9291906116bc565b506060820151816003015590505081600260008360000151815260200190815260200160002060006101000a81548173ffffffffffffffffffffffffffffffffffffffff021916908373ffffffffffffffffffffffffffffffffffffffff1602179055505050565b61071d6115f0565b73ffffffffffffffffffffffffffffffffffffffff1661073b6109a3565b73ffffffffffffffffffffffffffffffffffffffff1614610791576040517f08c379a000000000000000000000000000000000000000000000000000000000815260040161078890611e80565b60405180910390fd5b806002600084815260200190815260200160002060006101000a81548173ffffffffffffffffffffffffffffffffffffffff021916908373ffffffffffffffffffffffffffffffffffffffff16021790555081600360008373ffffffffffffffffffffffffffffffffffffffff1673ffffffffffffffffffffffffffffffffffffffff168152602001908152602001600020600001819055505050565b6000806002600084815260200190815260200160002060009054906101000a900473ffffffffffffffffffffffffffffffffffffffff16905080915050919050565b6108786115f0565b73ffffffffffffffffffffffffffffffffffffffff166108966109a3565b73ffffffffffffffffffffffffffffffffffffffff16146108ec576040517f08c379a00000000000000000000000000000000000000000000000000000000081526004016108e390611e80565b60405180910390fd5b6108f660006115f8565b565b6109006115f0565b73ffffffffffffffffffffffffffffffffffffffff1661091e6109a3565b73ffffffffffffffffffffffffffffffffffffffff1614610974576040517f08c379a000000000000000000000000000000000000000000000000000000000815260040161096b90611e80565b60405180910390fd5b806004600084815260200190815260200160002060006101000a81548160ff0219169083151502179055505050565b60008060009054906101000a900473ffffffffffffffffffffffffffffffffffffffff16905090565b6109d4611742565b60006002600084815260200190815260200160002060009054906101000a900473ffffffffffffffffffffffffffffffffffffffff1690506000600360008373ffffffffffffffffffffffffffffffffffffffff1673ffffffffffffffffffffffffffffffffffffffff16815260200190815260200160002060405180608001604052908160008201548152602001600182018054610a7290612073565b80601f0160208091040260200160405190810160405280929190818152602001828054610a9e90612073565b8015610aeb5780601f10610ac057610100808354040283529160200191610aeb565b820191906000526020600020905b815481529060010190602001808311610ace57829003601f168201915b50505050508152602001600282018054610b0490612073565b80601f0160208091040260200160405190810160405280929190818152602001828054610b3090612073565b8015610b7d5780601f10610b5257610100808354040283529160200191610b7d565b820191906000526020600020905b815481529060010190602001808311610b6057829003601f168201915b5050505050815260200160038201548152505090508092505050919050565b6000808690506000600187879050610bb49190611f89565b67ffffffffffffffff811115610bcd57610bcc6121b6565b5b604051908082528060200260200182016040528015610bfb5781602001602082028036833780820191505090505b50905080600081518110610c1257610c11612187565b5b60200260200101515060005b87879050811015610cf9576000888883818110610c3e57610c3d612187565b5b9050602002013590506001878784818110610c5c57610c5b612187565b5b905060200201351415610cb9578381604051602001610c7c929190611dce565b60405160208183030381529060405280519060200120935083838381518110610ca857610ca7612187565b5b602002602001018181525050610ce5565b8084604051602001610ccc929190611dce565b6040516020818303038152906040528051906020012093505b508080610cf1906120d6565b915050610c1e565b50888214925050509695505050505050565b60008086905060005b86869050811015610dcf576000878783818110610d3457610d33612187565b5b9050602002013590506001868684818110610d5257610d51612187565b5b905060200201351415610d8f578281604051602001610d72929190611dce565b604051602081830303815290604052805190602001209250610dbb565b8083604051602001610da2929190611dce565b6040516020818303038152906040528051906020012092505b508080610dc7906120d6565b915050610d14565b508781149150509695505050505050565b610de8611742565b6000600360008473ffffffffffffffffffffffffffffffffffffffff1673ffffffffffffffffffffffffffffffffffffffff16815260200190815260200160002060405180608001604052908160008201548152602001600182018054610e4e90612073565b80601f0160208091040260200160405190810160405280929190818152602001828054610e7a90612073565b8015610ec75780601f10610e9c57610100808354040283529160200191610ec7565b820191906000526020600020905b815481529060010190602001808311610eaa57829003601f168201915b50505050508152602001600282018054610ee090612073565b80601f0160208091040260200160405190810160405280929190818152602001828054610f0c90612073565b8015610f595780601f10610f2e57610100808354040283529160200191610f59565b820191906000526020600020905b815481529060010190602001808311610f3c57829003601f168201915b50505050508152602001600382015481525050905080915050919050565b600080600360008473ffffffffffffffffffffffffffffffffffffffff1673ffffffffffffffffffffffffffffffffffffffff16815260200190815260200160002060405180608001604052908160008201548152602001600182018054610fde90612073565b80601f016020809104026020016040519081016040528092919081815260200182805461100a90612073565b80156110575780601f1061102c57610100808354040283529160200191611057565b820191906000526020600020905b81548152906001019060200180831161103a57829003601f168201915b5050505050815260200160028201805461107090612073565b80601f016020809104026020016040519081016040528092919081815260200182805461109c90612073565b80156110e95780601f106110be576101008083540402835291602001916110e9565b820191906000526020600020905b8154815290600101906020018083116110cc57829003601f168201915b5050505050815260200160038201548152505090508060000151915050919050565b6000600360003373ffffffffffffffffffffffffffffffffffffffff1673ffffffffffffffffffffffffffffffffffffffff1681526020019081526020016000209050838160010190805190602001906111669291906116bc565b508281600201908051906020019061117f9291906116bc565b5081816003018190555050505050565b6111976115f0565b73ffffffffffffffffffffffffffffffffffffffff166111b56109a3565b73ffffffffffffffffffffffffffffffffffffffff161461120b576040517f08c379a000000000000000000000000000000000000000000000000000000000815260040161120290611e80565b60405180910390fd5b60003090506000600160009054906101000a900473ffffffffffffffffffffffffffffffffffffffff1673ffffffffffffffffffffffffffffffffffffffff1663cf37834383876040518363ffffffff1660e01b815260040161126f929190611e15565b602060405180830381600087803b15801561128957600080fd5b505af115801561129d573d6000803e3d6000fd5b505050506040513d601f19601f820116820180604052508101906112c19190611bac565b9050600160009054906101000a900473ffffffffffffffffffffffffffffffffffffffff1673ffffffffffffffffffffffffffffffffffffffff1663e1b2e97982856040518363ffffffff1660e01b8152600401611320929190611edd565b600060405180830381600087803b15801561133a57600080fd5b505af115801561134e573d6000803e3d6000fd5b5050505061135d8160016108f8565b6113678185610715565b5050505050565b6000600360003373ffffffffffffffffffffffffffffffffffffffff1673ffffffffffffffffffffffffffffffffffffffff1681526020019081526020016000209050818160010190805190602001906113c99291906116bc565b505050565b6113d66115f0565b73ffffffffffffffffffffffffffffffffffffffff166113f46109a3565b73ffffffffffffffffffffffffffffffffffffffff161461144a576040517f08c379a000000000000000000000000000000000000000000000000000000000815260040161144190611e80565b60405180910390fd5b600073ffffffffffffffffffffffffffffffffffffffff168173ffffffffffffffffffffffffffffffffffffffff1614156114ba576040517f08c379a00000000000000000000000000000000000000000000000000000000081526004016114b190611e60565b60405180910390fd5b6114c3816115f8565b50565b6000600360003373ffffffffffffffffffffffffffffffffffffffff1673ffffffffffffffffffffffffffffffffffffffff1681526020019081526020016000209050828160020190805190602001906115219291906116bc565b50818160030181905550505050565b6115386115f0565b73ffffffffffffffffffffffffffffffffffffffff166115566109a3565b73ffffffffffffffffffffffffffffffffffffffff16146115ac576040517f08c379a00000000000000000000000000000000000000000000000000000000081526004016115a390611e80565b60405180910390fd5b80600160006101000a81548173ffffffffffffffffffffffffffffffffffffffff021916908373ffffffffffffffffffffffffffffffffffffffff16021790555050565b600033905090565b60008060009054906101000a900473ffffffffffffffffffffffffffffffffffffffff169050816000806101000a81548173ffffffffffffffffffffffffffffffffffffffff021916908373ffffffffffffffffffffffffffffffffffffffff1602179055508173ffffffffffffffffffffffffffffffffffffffff168173ffffffffffffffffffffffffffffffffffffffff167f8be0079c531659141344cd1fd0a4f28419497f9722a3daafe3b4186f6b6457e060405160405180910390a35050565b8280546116c890612073565b90600052602060002090601f0160209004810192826116ea5760008555611731565b82601f1061170357805160ff1916838001178555611731565b82800160010185558215611731579182015b82811115611730578251825591602001919060010190611715565b5b50905061173e919061176a565b5090565b6040518060800160405280600081526020016060815260200160608152602001600081525090565b5b8082111561178357600081600090555060010161176b565b5090565b600061179a61179584611f2b565b611f06565b9050828152602081018484840111156117b6576117b56121f4565b5b6117c1848285612031565b509392505050565b6000813590506117d88161228c565b92915050565b60008083601f8401126117f4576117f36121ea565b5b8235905067ffffffffffffffff811115611811576118106121e5565b5b60208301915083602082028301111561182d5761182c6121ef565b5b9250929050565b60008083601f84011261184a576118496121ea565b5b8235905067ffffffffffffffff811115611867576118666121e5565b5b602083019150836020820283011115611883576118826121ef565b5b9250929050565b600081359050611899816122a3565b92915050565b6000813590506118ae816122ba565b92915050565b600082601f8301126118c9576118c86121ea565b5b81356118d9848260208601611787565b91505092915050565b6000813590506118f1816122d1565b92915050565b600081519050611906816122d1565b92915050565b600060208284031215611922576119216121fe565b5b6000611930848285016117c9565b91505092915050565b60008060008060008060808789031215611956576119556121fe565b5b600061196489828a0161189f565b965050602061197589828a0161189f565b955050604087013567ffffffffffffffff811115611996576119956121f9565b5b6119a289828a016117de565b9450945050606087013567ffffffffffffffff8111156119c5576119c46121f9565b5b6119d189828a01611834565b92509250509295509295509295565b6000602082840312156119f6576119f56121fe565b5b600082013567ffffffffffffffff811115611a1457611a136121f9565b5b611a20848285016118b4565b91505092915050565b600080600060608486031215611a4257611a416121fe565b5b600084013567ffffffffffffffff811115611a6057611a5f6121f9565b5b611a6c868287016118b4565b9350506020611a7d868287016117c9565b9250506040611a8e868287016118e2565b9150509250925092565b600080600060608486031215611ab157611ab06121fe565b5b600084013567ffffffffffffffff811115611acf57611ace6121f9565b5b611adb868287016118b4565b935050602084013567ffffffffffffffff811115611afc57611afb6121f9565b5b611b08868287016118b4565b9250506040611b19868287016118e2565b9150509250925092565b60008060408385031215611b3a57611b396121fe565b5b600083013567ffffffffffffffff811115611b5857611b576121f9565b5b611b64858286016118b4565b9250506020611b75858286016118e2565b9150509250929050565b600060208284031215611b9557611b946121fe565b5b6000611ba3848285016118e2565b91505092915050565b600060208284031215611bc257611bc16121fe565b5b6000611bd0848285016118f7565b91505092915050565b60008060408385031215611bf057611bef6121fe565b5b6000611bfe858286016118e2565b9250506020611c0f858286016117c9565b9150509250929050565b60008060408385031215611c3057611c2f6121fe565b5b6000611c3e858286016118e2565b9250506020611c4f8582860161188a565b9150509250929050565b611c6281611fdf565b82525050565b611c7181611ff1565b82525050565b611c88611c8382611ffd565b61211f565b82525050565b6000611c9982611f5c565b611ca38185611f67565b9350611cb3818560208601612040565b611cbc81612203565b840191505092915050565b6000611cd282611f5c565b611cdc8185611f78565b9350611cec818560208601612040565b611cf581612203565b840191505092915050565b6000611d0d602683611f78565b9150611d1882612214565b604082019050919050565b6000611d30602083611f78565b9150611d3b82612263565b602082019050919050565b6000608083016000830151611d5e6000860182611db0565b5060208301518482036020860152611d768282611c8e565b91505060408301518482036040860152611d908282611c8e565b9150506060830151611da56060860182611db0565b508091505092915050565b611db981612027565b82525050565b611dc881612027565b82525050565b6000611dda8285611c77565b602082019150611dea8284611c77565b6020820191508190509392505050565b6000602082019050611e0f6000830184611c59565b92915050565b6000604082019050611e2a6000830185611c59565b8181036020830152611e3c8184611cc7565b90509392505050565b6000602082019050611e5a6000830184611c68565b92915050565b60006020820190508181036000830152611e7981611d00565b9050919050565b60006020820190508181036000830152611e9981611d23565b9050919050565b60006020820190508181036000830152611eba8184611d46565b905092915050565b6000602082019050611ed76000830184611dbf565b92915050565b6000604082019050611ef26000830185611dbf565b611eff6020830184611dbf565b9392505050565b6000611f10611f21565b9050611f1c82826120a5565b919050565b6000604051905090565b600067ffffffffffffffff821115611f4657611f456121b6565b5b611f4f82612203565b9050602081019050919050565b600081519050919050565b600082825260208201905092915050565b600082825260208201905092915050565b6000611f9482612027565b9150611f9f83612027565b9250827fffffffffffffffffffffffffffffffffffffffffffffffffffffffffffffffff03821115611fd457611fd3612129565b5b828201905092915050565b6000611fea82612007565b9050919050565b60008115159050919050565b6000819050919050565b600073ffffffffffffffffffffffffffffffffffffffff82169050919050565b6000819050919050565b82818337600083830152505050565b60005b8381101561205e578082015181840152602081019050612043565b8381111561206d576000848401525b50505050565b6000600282049050600182168061208b57607f821691505b6020821081141561209f5761209e612158565b5b50919050565b6120ae82612203565b810181811067ffffffffffffffff821117156120cd576120cc6121b6565b5b80604052505050565b60006120e182612027565b91507fffffffffffffffffffffffffffffffffffffffffffffffffffffffffffffffff82141561211457612113612129565b5b600182019050919050565b6000819050919050565b7f4e487b7100000000000000000000000000000000000000000000000000000000600052601160045260246000fd5b7f4e487b7100000000000000000000000000000000000000000000000000000000600052602260045260246000fd5b7f4e487b7100000000000000000000000000000000000000000000000000000000600052603260045260246000fd5b7f4e487b7100000000000000000000000000000000000000000000000000000000600052604160045260246000fd5b600080fd5b600080fd5b600080fd5b600080fd5b600080fd5b600080fd5b6000601f19601f8301169050919050565b7f4f776e61626c653a206e6577206f776e657220697320746865207a65726f206160008201527f6464726573730000000000000000000000000000000000000000000000000000602082015250565b7f4f776e61626c653a2063616c6c6572206973206e6f7420746865206f776e6572600082015250565b61229581611fdf565b81146122a057600080fd5b50565b6122ac81611ff1565b81146122b757600080fd5b50565b6122c381611ffd565b81146122ce57600080fd5b50565b6122da81612027565b81146122e557600080fd5b5056fea2646970667358221220f2d29c3c7fb19a1a7b4181865f9bb6fa78ab389bdd6beb9eab7d1b0d217b85d464736f6c63430008070033",
					"opcodes": "PUSH1 0x80 PUSH1 0x40 MSTORE CALLVALUE DUP1 ISZERO PUSH2 0x10 JUMPI PUSH1 0x0 DUP1 REVERT JUMPDEST POP PUSH2 0x2D PUSH2 0x22 PUSH2 0x32 PUSH1 0x20 SHL PUSH1 0x20 SHR JUMP JUMPDEST PUSH2 0x3A PUSH1 0x20 SHL PUSH1 0x20 SHR JUMP JUMPDEST PUSH2 0xFE JUMP JUMPDEST PUSH1 0x0 CALLER SWAP1 POP SWAP1 JUMP JUMPDEST PUSH1 0x0 DUP1 PUSH1 0x0 SWAP1 SLOAD SWAP1 PUSH2 0x100 EXP SWAP1 DIV PUSH20 0xFFFFFFFFFFFFFFFFFFFFFFFFFFFFFFFFFFFFFFFF AND SWAP1 POP DUP2 PUSH1 0x0 DUP1 PUSH2 0x100 EXP DUP2 SLOAD DUP2 PUSH20 0xFFFFFFFFFFFFFFFFFFFFFFFFFFFFFFFFFFFFFFFF MUL NOT AND SWAP1 DUP4 PUSH20 0xFFFFFFFFFFFFFFFFFFFFFFFFFFFFFFFFFFFFFFFF AND MUL OR SWAP1 SSTORE POP DUP2 PUSH20 0xFFFFFFFFFFFFFFFFFFFFFFFFFFFFFFFFFFFFFFFF AND DUP2 PUSH20 0xFFFFFFFFFFFFFFFFFFFFFFFFFFFFFFFFFFFFFFFF AND PUSH32 0x8BE0079C531659141344CD1FD0A4F28419497F9722A3DAAFE3B4186F6B6457E0 PUSH1 0x40 MLOAD PUSH1 0x40 MLOAD DUP1 SWAP2 SUB SWAP1 LOG3 POP POP JUMP JUMPDEST PUSH2 0x231E DUP1 PUSH3 0x10E PUSH1 0x0 CODECOPY PUSH1 0x0 RETURN INVALID PUSH1 0x80 PUSH1 0x40 MSTORE PUSH1 0x4 CALLDATASIZE LT PUSH2 0x10D JUMPI PUSH1 0x0 CALLDATALOAD PUSH1 0xE0 SHR DUP1 PUSH4 0x9BB6DCC8 GT PUSH2 0x95 JUMPI DUP1 PUSH4 0xD1933DDD GT PUSH2 0x64 JUMPI DUP1 PUSH4 0xD1933DDD EQ PUSH2 0x3AD JUMPI DUP1 PUSH4 0xD6F70EB3 EQ PUSH2 0x3D6 JUMPI DUP1 PUSH4 0xF2FDE38B EQ PUSH2 0x3FF JUMPI DUP1 PUSH4 0xFA0E9E41 EQ PUSH2 0x428 JUMPI DUP1 PUSH4 0xFBC2CF13 EQ PUSH2 0x451 JUMPI PUSH2 0x117 JUMP JUMPDEST DUP1 PUSH4 0x9BB6DCC8 EQ PUSH2 0x2CD JUMPI DUP1 PUSH4 0xAD575035 EQ PUSH2 0x30A JUMPI DUP1 PUSH4 0xB2B72BC4 EQ PUSH2 0x347 JUMPI DUP1 PUSH4 0xBAFDEE14 EQ PUSH2 0x384 JUMPI PUSH2 0x117 JUMP JUMPDEST DUP1 PUSH4 0x715018A6 GT PUSH2 0xDC JUMPI DUP1 PUSH4 0x715018A6 EQ PUSH2 0x1E8 JUMPI DUP1 PUSH4 0x717B9B6C EQ PUSH2 0x1FF JUMPI DUP1 PUSH4 0x8DA5CB5B EQ PUSH2 0x228 JUMPI DUP1 PUSH4 0x917B8FD0 EQ PUSH2 0x253 JUMPI DUP1 PUSH4 0x9382B5EC EQ PUSH2 0x290 JUMPI PUSH2 0x117 JUMP JUMPDEST DUP1 PUSH4 0xE197DC9 EQ PUSH2 0x11C JUMPI DUP1 PUSH4 0x1FF4BDF3 EQ PUSH2 0x159 JUMPI DUP1 PUSH4 0x3960A892 EQ PUSH2 0x182 JUMPI DUP1 PUSH4 0x4B3CEF44 EQ PUSH2 0x1AB JUMPI PUSH2 0x117 JUMP JUMPDEST CALLDATASIZE PUSH2 0x117 JUMPI PUSH1 0x0 DUP1 REVERT JUMPDEST PUSH1 0x0 DUP1 REVERT JUMPDEST CALLVALUE DUP1 ISZERO PUSH2 0x128 JUMPI PUSH1 0x0 DUP1 REVERT JUMPDEST POP PUSH2 0x143 PUSH1 0x4 DUP1 CALLDATASIZE SUB DUP2 ADD SWAP1 PUSH2 0x13E SWAP2 SWAP1 PUSH2 0x1B7F JUMP JUMPDEST PUSH2 0x47A JUMP JUMPDEST PUSH1 0x40 MLOAD PUSH2 0x150 SWAP2 SWAP1 PUSH2 0x1E45 JUMP JUMPDEST PUSH1 0x40 MLOAD DUP1 SWAP2 SUB SWAP1 RETURN JUMPDEST CALLVALUE DUP1 ISZERO PUSH2 0x165 JUMPI PUSH1 0x0 DUP1 REVERT JUMPDEST POP PUSH2 0x180 PUSH1 0x4 DUP1 CALLDATASIZE SUB DUP2 ADD SWAP1 PUSH2 0x17B SWAP2 SWAP1 PUSH2 0x190C JUMP JUMPDEST PUSH2 0x4A4 JUMP JUMPDEST STOP JUMPDEST CALLVALUE DUP1 ISZERO PUSH2 0x18E JUMPI PUSH1 0x0 DUP1 REVERT JUMPDEST POP PUSH2 0x1A9 PUSH1 0x4 DUP1 CALLDATASIZE SUB DUP2 ADD SWAP1 PUSH2 0x1A4 SWAP2 SWAP1 PUSH2 0x1BD9 JUMP JUMPDEST PUSH2 0x715 JUMP JUMPDEST STOP JUMPDEST CALLVALUE DUP1 ISZERO PUSH2 0x1B7 JUMPI PUSH1 0x0 DUP1 REVERT JUMPDEST POP PUSH2 0x1D2 PUSH1 0x4 DUP1 CALLDATASIZE SUB DUP2 ADD SWAP1 PUSH2 0x1CD SWAP2 SWAP1 PUSH2 0x1B7F JUMP JUMPDEST PUSH2 0x82E JUMP JUMPDEST PUSH1 0x40 MLOAD PUSH2 0x1DF SWAP2 SWAP1 PUSH2 0x1DFA JUMP JUMPDEST PUSH1 0x40 MLOAD DUP1 SWAP2 SUB SWAP1 RETURN JUMPDEST CALLVALUE DUP1 ISZERO PUSH2 0x1F4 JUMPI PUSH1 0x0 DUP1 REVERT JUMPDEST POP PUSH2 0x1FD PUSH2 0x870 JUMP JUMPDEST STOP JUMPDEST CALLVALUE DUP1 ISZERO PUSH2 0x20B JUMPI PUSH1 0x0 DUP1 REVERT JUMPDEST POP PUSH2 0x226 PUSH1 0x4 DUP1 CALLDATASIZE SUB DUP2 ADD SWAP1 PUSH2 0x221 SWAP2 SWAP1 PUSH2 0x1C19 JUMP JUMPDEST PUSH2 0x8F8 JUMP JUMPDEST STOP JUMPDEST CALLVALUE DUP1 ISZERO PUSH2 0x234 JUMPI PUSH1 0x0 DUP1 REVERT JUMPDEST POP PUSH2 0x23D PUSH2 0x9A3 JUMP JUMPDEST PUSH1 0x40 MLOAD PUSH2 0x24A SWAP2 SWAP1 PUSH2 0x1DFA JUMP JUMPDEST PUSH1 0x40 MLOAD DUP1 SWAP2 SUB SWAP1 RETURN JUMPDEST CALLVALUE DUP1 ISZERO PUSH2 0x25F JUMPI PUSH1 0x0 DUP1 REVERT JUMPDEST POP PUSH2 0x27A PUSH1 0x4 DUP1 CALLDATASIZE SUB DUP2 ADD SWAP1 PUSH2 0x275 SWAP2 SWAP1 PUSH2 0x1B7F JUMP JUMPDEST PUSH2 0x9CC JUMP JUMPDEST PUSH1 0x40 MLOAD PUSH2 0x287 SWAP2 SWAP1 PUSH2 0x1EA0 JUMP JUMPDEST PUSH1 0x40 MLOAD DUP1 SWAP2 SUB SWAP1 RETURN JUMPDEST CALLVALUE DUP1 ISZERO PUSH2 0x29C JUMPI PUSH1 0x0 DUP1 REVERT JUMPDEST POP PUSH2 0x2B7 PUSH1 0x4 DUP1 CALLDATASIZE SUB DUP2 ADD SWAP1 PUSH2 0x2B2 SWAP2 SWAP1 PUSH2 0x1939 JUMP JUMPDEST PUSH2 0xB9C JUMP JUMPDEST PUSH1 0x40 MLOAD PUSH2 0x2C4 SWAP2 SWAP1 PUSH2 0x1E45 JUMP JUMPDEST PUSH1 0x40 MLOAD DUP1 SWAP2 SUB SWAP1 RETURN JUMPDEST CALLVALUE DUP1 ISZERO PUSH2 0x2D9 JUMPI PUSH1 0x0 DUP1 REVERT JUMPDEST POP PUSH2 0x2F4 PUSH1 0x4 DUP1 CALLDATASIZE SUB DUP2 ADD SWAP1 PUSH2 0x2EF SWAP2 SWAP1 PUSH2 0x1939 JUMP JUMPDEST PUSH2 0xD0B JUMP JUMPDEST PUSH1 0x40 MLOAD PUSH2 0x301 SWAP2 SWAP1 PUSH2 0x1E45 JUMP JUMPDEST PUSH1 0x40 MLOAD DUP1 SWAP2 SUB SWAP1 RETURN JUMPDEST CALLVALUE DUP1 ISZERO PUSH2 0x316 JUMPI PUSH1 0x0 DUP1 REVERT JUMPDEST POP PUSH2 0x331 PUSH1 0x4 DUP1 CALLDATASIZE SUB DUP2 ADD SWAP1 PUSH2 0x32C SWAP2 SWAP1 PUSH2 0x190C JUMP JUMPDEST PUSH2 0xDE0 JUMP JUMPDEST PUSH1 0x40 MLOAD PUSH2 0x33E SWAP2 SWAP1 PUSH2 0x1EA0 JUMP JUMPDEST PUSH1 0x40 MLOAD DUP1 SWAP2 SUB SWAP1 RETURN JUMPDEST CALLVALUE DUP1 ISZERO PUSH2 0x353 JUMPI PUSH1 0x0 DUP1 REVERT JUMPDEST POP PUSH2 0x36E PUSH1 0x4 DUP1 CALLDATASIZE SUB DUP2 ADD SWAP1 PUSH2 0x369 SWAP2 SWAP1 PUSH2 0x190C JUMP JUMPDEST PUSH2 0xF77 JUMP JUMPDEST PUSH1 0x40 MLOAD PUSH2 0x37B SWAP2 SWAP1 PUSH2 0x1EC2 JUMP JUMPDEST PUSH1 0x40 MLOAD DUP1 SWAP2 SUB SWAP1 RETURN JUMPDEST CALLVALUE DUP1 ISZERO PUSH2 0x390 JUMPI PUSH1 0x0 DUP1 REVERT JUMPDEST POP PUSH2 0x3AB PUSH1 0x4 DUP1 CALLDATASIZE SUB DUP2 ADD SWAP1 PUSH2 0x3A6 SWAP2 SWAP1 PUSH2 0x1A98 JUMP JUMPDEST PUSH2 0x110B JUMP JUMPDEST STOP JUMPDEST CALLVALUE DUP1 ISZERO PUSH2 0x3B9 JUMPI PUSH1 0x0 DUP1 REVERT JUMPDEST POP PUSH2 0x3D4 PUSH1 0x4 DUP1 CALLDATASIZE SUB DUP2 ADD SWAP1 PUSH2 0x3CF SWAP2 SWAP1 PUSH2 0x1A29 JUMP JUMPDEST PUSH2 0x118F JUMP JUMPDEST STOP JUMPDEST CALLVALUE DUP1 ISZERO PUSH2 0x3E2 JUMPI PUSH1 0x0 DUP1 REVERT JUMPDEST POP PUSH2 0x3FD PUSH1 0x4 DUP1 CALLDATASIZE SUB DUP2 ADD SWAP1 PUSH2 0x3F8 SWAP2 SWAP1 PUSH2 0x19E0 JUMP JUMPDEST PUSH2 0x136E JUMP JUMPDEST STOP JUMPDEST CALLVALUE DUP1 ISZERO PUSH2 0x40B JUMPI PUSH1 0x0 DUP1 REVERT JUMPDEST POP PUSH2 0x426 PUSH1 0x4 DUP1 CALLDATASIZE SUB DUP2 ADD SWAP1 PUSH2 0x421 SWAP2 SWAP1 PUSH2 0x190C JUMP JUMPDEST PUSH2 0x13CE JUMP JUMPDEST STOP JUMPDEST CALLVALUE DUP1 ISZERO PUSH2 0x434 JUMPI PUSH1 0x0 DUP1 REVERT JUMPDEST POP PUSH2 0x44F PUSH1 0x4 DUP1 CALLDATASIZE SUB DUP2 ADD SWAP1 PUSH2 0x44A SWAP2 SWAP1 PUSH2 0x1B23 JUMP JUMPDEST PUSH2 0x14C6 JUMP JUMPDEST STOP JUMPDEST CALLVALUE DUP1 ISZERO PUSH2 0x45D JUMPI PUSH1 0x0 DUP1 REVERT JUMPDEST POP PUSH2 0x478 PUSH1 0x4 DUP1 CALLDATASIZE SUB DUP2 ADD SWAP1 PUSH2 0x473 SWAP2 SWAP1 PUSH2 0x190C JUMP JUMPDEST PUSH2 0x1530 JUMP JUMPDEST STOP JUMPDEST PUSH1 0x0 PUSH1 0x4 PUSH1 0x0 DUP4 DUP2 MSTORE PUSH1 0x20 ADD SWAP1 DUP2 MSTORE PUSH1 0x20 ADD PUSH1 0x0 KECCAK256 PUSH1 0x0 SWAP1 SLOAD SWAP1 PUSH2 0x100 EXP SWAP1 DIV PUSH1 0xFF AND SWAP1 POP SWAP2 SWAP1 POP JUMP JUMPDEST PUSH1 0x0 PUSH1 0x3 PUSH1 0x0 CALLER PUSH20 0xFFFFFFFFFFFFFFFFFFFFFFFFFFFFFFFFFFFFFFFF AND PUSH20 0xFFFFFFFFFFFFFFFFFFFFFFFFFFFFFFFFFFFFFFFF AND DUP2 MSTORE PUSH1 0x20 ADD SWAP1 DUP2 MSTORE PUSH1 0x20 ADD PUSH1 0x0 KECCAK256 PUSH1 0x40 MLOAD DUP1 PUSH1 0x80 ADD PUSH1 0x40 MSTORE SWAP1 DUP2 PUSH1 0x0 DUP3 ADD SLOAD DUP2 MSTORE PUSH1 0x20 ADD PUSH1 0x1 DUP3 ADD DUP1 SLOAD PUSH2 0x50A SWAP1 PUSH2 0x2073 JUMP JUMPDEST DUP1 PUSH1 0x1F ADD PUSH1 0x20 DUP1 SWAP2 DIV MUL PUSH1 0x20 ADD PUSH1 0x40 MLOAD SWAP1 DUP2 ADD PUSH1 0x40 MSTORE DUP1 SWAP3 SWAP2 SWAP1 DUP2 DUP2 MSTORE PUSH1 0x20 ADD DUP3 DUP1 SLOAD PUSH2 0x536 SWAP1 PUSH2 0x2073 JUMP JUMPDEST DUP1 ISZERO PUSH2 0x583 JUMPI DUP1 PUSH1 0x1F LT PUSH2 0x558 JUMPI PUSH2 0x100 DUP1 DUP4 SLOAD DIV MUL DUP4 MSTORE SWAP2 PUSH1 0x20 ADD SWAP2 PUSH2 0x583 JUMP JUMPDEST DUP3 ADD SWAP2 SWAP1 PUSH1 0x0 MSTORE PUSH1 0x20 PUSH1 0x0 KECCAK256 SWAP1 JUMPDEST DUP2 SLOAD DUP2 MSTORE SWAP1 PUSH1 0x1 ADD SWAP1 PUSH1 0x20 ADD DUP1 DUP4 GT PUSH2 0x566 JUMPI DUP3 SWAP1 SUB PUSH1 0x1F AND DUP3 ADD SWAP2 JUMPDEST POP POP POP POP POP DUP2 MSTORE PUSH1 0x20 ADD PUSH1 0x2 DUP3 ADD DUP1 SLOAD PUSH2 0x59C SWAP1 PUSH2 0x2073 JUMP JUMPDEST DUP1 PUSH1 0x1F ADD PUSH1 0x20 DUP1 SWAP2 DIV MUL PUSH1 0x20 ADD PUSH1 0x40 MLOAD SWAP1 DUP2 ADD PUSH1 0x40 MSTORE DUP1 SWAP3 SWAP2 SWAP1 DUP2 DUP2 MSTORE PUSH1 0x20 ADD DUP3 DUP1 SLOAD PUSH2 0x5C8 SWAP1 PUSH2 0x2073 JUMP JUMPDEST DUP1 ISZERO PUSH2 0x615 JUMPI DUP1 PUSH1 0x1F LT PUSH2 0x5EA JUMPI PUSH2 0x100 DUP1 DUP4 SLOAD DIV MUL DUP4 MSTORE SWAP2 PUSH1 0x20 ADD SWAP2 PUSH2 0x615 JUMP JUMPDEST DUP3 ADD SWAP2 SWAP1 PUSH1 0x0 MSTORE PUSH1 0x20 PUSH1 0x0 KECCAK256 SWAP1 JUMPDEST DUP2 SLOAD DUP2 MSTORE SWAP1 PUSH1 0x1 ADD SWAP1 PUSH1 0x20 ADD DUP1 DUP4 GT PUSH2 0x5F8 JUMPI DUP3 SWAP1 SUB PUSH1 0x1F AND DUP3 ADD SWAP2 JUMPDEST POP POP POP POP POP DUP2 MSTORE PUSH1 0x20 ADD PUSH1 0x3 DUP3 ADD SLOAD DUP2 MSTORE POP POP SWAP1 POP DUP1 PUSH1 0x3 PUSH1 0x0 DUP5 PUSH20 0xFFFFFFFFFFFFFFFFFFFFFFFFFFFFFFFFFFFFFFFF AND PUSH20 0xFFFFFFFFFFFFFFFFFFFFFFFFFFFFFFFFFFFFFFFF AND DUP2 MSTORE PUSH1 0x20 ADD SWAP1 DUP2 MSTORE PUSH1 0x20 ADD PUSH1 0x0 KECCAK256 PUSH1 0x0 DUP3 ADD MLOAD DUP2 PUSH1 0x0 ADD SSTORE PUSH1 0x20 DUP3 ADD MLOAD DUP2 PUSH1 0x1 ADD SWAP1 DUP1 MLOAD SWAP1 PUSH1 0x20 ADD SWAP1 PUSH2 0x690 SWAP3 SWAP2 SWAP1 PUSH2 0x16BC JUMP JUMPDEST POP PUSH1 0x40 DUP3 ADD MLOAD DUP2 PUSH1 0x2 ADD SWAP1 DUP1 MLOAD SWAP1 PUSH1 0x20 ADD SWAP1 PUSH2 0x6AD SWAP3 SWAP2 SWAP1 PUSH2 0x16BC JUMP JUMPDEST POP PUSH1 0x60 DUP3 ADD MLOAD DUP2 PUSH1 0x3 ADD SSTORE SWAP1 POP POP DUP2 PUSH1 0x2 PUSH1 0x0 DUP4 PUSH1 0x0 ADD MLOAD DUP2 MSTORE PUSH1 0x20 ADD SWAP1 DUP2 MSTORE PUSH1 0x20 ADD PUSH1 0x0 KECCAK256 PUSH1 0x0 PUSH2 0x100 EXP DUP2 SLOAD DUP2 PUSH20 0xFFFFFFFFFFFFFFFFFFFFFFFFFFFFFFFFFFFFFFFF MUL NOT AND SWAP1 DUP4 PUSH20 0xFFFFFFFFFFFFFFFFFFFFFFFFFFFFFFFFFFFFFFFF AND MUL OR SWAP1 SSTORE POP POP POP JUMP JUMPDEST PUSH2 0x71D PUSH2 0x15F0 JUMP JUMPDEST PUSH20 0xFFFFFFFFFFFFFFFFFFFFFFFFFFFFFFFFFFFFFFFF AND PUSH2 0x73B PUSH2 0x9A3 JUMP JUMPDEST PUSH20 0xFFFFFFFFFFFFFFFFFFFFFFFFFFFFFFFFFFFFFFFF AND EQ PUSH2 0x791 JUMPI PUSH1 0x40 MLOAD PUSH32 0x8C379A000000000000000000000000000000000000000000000000000000000 DUP2 MSTORE PUSH1 0x4 ADD PUSH2 0x788 SWAP1 PUSH2 0x1E80 JUMP JUMPDEST PUSH1 0x40 MLOAD DUP1 SWAP2 SUB SWAP1 REVERT JUMPDEST DUP1 PUSH1 0x2 PUSH1 0x0 DUP5 DUP2 MSTORE PUSH1 0x20 ADD SWAP1 DUP2 MSTORE PUSH1 0x20 ADD PUSH1 0x0 KECCAK256 PUSH1 0x0 PUSH2 0x100 EXP DUP2 SLOAD DUP2 PUSH20 0xFFFFFFFFFFFFFFFFFFFFFFFFFFFFFFFFFFFFFFFF MUL NOT AND SWAP1 DUP4 PUSH20 0xFFFFFFFFFFFFFFFFFFFFFFFFFFFFFFFFFFFFFFFF AND MUL OR SWAP1 SSTORE POP DUP2 PUSH1 0x3 PUSH1 0x0 DUP4 PUSH20 0xFFFFFFFFFFFFFFFFFFFFFFFFFFFFFFFFFFFFFFFF AND PUSH20 0xFFFFFFFFFFFFFFFFFFFFFFFFFFFFFFFFFFFFFFFF AND DUP2 MSTORE PUSH1 0x20 ADD SWAP1 DUP2 MSTORE PUSH1 0x20 ADD PUSH1 0x0 KECCAK256 PUSH1 0x0 ADD DUP2 SWAP1 SSTORE POP POP POP JUMP JUMPDEST PUSH1 0x0 DUP1 PUSH1 0x2 PUSH1 0x0 DUP5 DUP2 MSTORE PUSH1 0x20 ADD SWAP1 DUP2 MSTORE PUSH1 0x20 ADD PUSH1 0x0 KECCAK256 PUSH1 0x0 SWAP1 SLOAD SWAP1 PUSH2 0x100 EXP SWAP1 DIV PUSH20 0xFFFFFFFFFFFFFFFFFFFFFFFFFFFFFFFFFFFFFFFF AND SWAP1 POP DUP1 SWAP2 POP POP SWAP2 SWAP1 POP JUMP JUMPDEST PUSH2 0x878 PUSH2 0x15F0 JUMP JUMPDEST PUSH20 0xFFFFFFFFFFFFFFFFFFFFFFFFFFFFFFFFFFFFFFFF AND PUSH2 0x896 PUSH2 0x9A3 JUMP JUMPDEST PUSH20 0xFFFFFFFFFFFFFFFFFFFFFFFFFFFFFFFFFFFFFFFF AND EQ PUSH2 0x8EC JUMPI PUSH1 0x40 MLOAD PUSH32 0x8C379A000000000000000000000000000000000000000000000000000000000 DUP2 MSTORE PUSH1 0x4 ADD PUSH2 0x8E3 SWAP1 PUSH2 0x1E80 JUMP JUMPDEST PUSH1 0x40 MLOAD DUP1 SWAP2 SUB SWAP1 REVERT JUMPDEST PUSH2 0x8F6 PUSH1 0x0 PUSH2 0x15F8 JUMP JUMPDEST JUMP JUMPDEST PUSH2 0x900 PUSH2 0x15F0 JUMP JUMPDEST PUSH20 0xFFFFFFFFFFFFFFFFFFFFFFFFFFFFFFFFFFFFFFFF AND PUSH2 0x91E PUSH2 0x9A3 JUMP JUMPDEST PUSH20 0xFFFFFFFFFFFFFFFFFFFFFFFFFFFFFFFFFFFFFFFF AND EQ PUSH2 0x974 JUMPI PUSH1 0x40 MLOAD PUSH32 0x8C379A000000000000000000000000000000000000000000000000000000000 DUP2 MSTORE PUSH1 0x4 ADD PUSH2 0x96B SWAP1 PUSH2 0x1E80 JUMP JUMPDEST PUSH1 0x40 MLOAD DUP1 SWAP2 SUB SWAP1 REVERT JUMPDEST DUP1 PUSH1 0x4 PUSH1 0x0 DUP5 DUP2 MSTORE PUSH1 0x20 ADD SWAP1 DUP2 MSTORE PUSH1 0x20 ADD PUSH1 0x0 KECCAK256 PUSH1 0x0 PUSH2 0x100 EXP DUP2 SLOAD DUP2 PUSH1 0xFF MUL NOT AND SWAP1 DUP4 ISZERO ISZERO MUL OR SWAP1 SSTORE POP POP POP JUMP JUMPDEST PUSH1 0x0 DUP1 PUSH1 0x0 SWAP1 SLOAD SWAP1 PUSH2 0x100 EXP SWAP1 DIV PUSH20 0xFFFFFFFFFFFFFFFFFFFFFFFFFFFFFFFFFFFFFFFF AND SWAP1 POP SWAP1 JUMP JUMPDEST PUSH2 0x9D4 PUSH2 0x1742 JUMP JUMPDEST PUSH1 0x0 PUSH1 0x2 PUSH1 0x0 DUP5 DUP2 MSTORE PUSH1 0x20 ADD SWAP1 DUP2 MSTORE PUSH1 0x20 ADD PUSH1 0x0 KECCAK256 PUSH1 0x0 SWAP1 SLOAD SWAP1 PUSH2 0x100 EXP SWAP1 DIV PUSH20 0xFFFFFFFFFFFFFFFFFFFFFFFFFFFFFFFFFFFFFFFF AND SWAP1 POP PUSH1 0x0 PUSH1 0x3 PUSH1 0x0 DUP4 PUSH20 0xFFFFFFFFFFFFFFFFFFFFFFFFFFFFFFFFFFFFFFFF AND PUSH20 0xFFFFFFFFFFFFFFFFFFFFFFFFFFFFFFFFFFFFFFFF AND DUP2 MSTORE PUSH1 0x20 ADD SWAP1 DUP2 MSTORE PUSH1 0x20 ADD PUSH1 0x0 KECCAK256 PUSH1 0x40 MLOAD DUP1 PUSH1 0x80 ADD PUSH1 0x40 MSTORE SWAP1 DUP2 PUSH1 0x0 DUP3 ADD SLOAD DUP2 MSTORE PUSH1 0x20 ADD PUSH1 0x1 DUP3 ADD DUP1 SLOAD PUSH2 0xA72 SWAP1 PUSH2 0x2073 JUMP JUMPDEST DUP1 PUSH1 0x1F ADD PUSH1 0x20 DUP1 SWAP2 DIV MUL PUSH1 0x20 ADD PUSH1 0x40 MLOAD SWAP1 DUP2 ADD PUSH1 0x40 MSTORE DUP1 SWAP3 SWAP2 SWAP1 DUP2 DUP2 MSTORE PUSH1 0x20 ADD DUP3 DUP1 SLOAD PUSH2 0xA9E SWAP1 PUSH2 0x2073 JUMP JUMPDEST DUP1 ISZERO PUSH2 0xAEB JUMPI DUP1 PUSH1 0x1F LT PUSH2 0xAC0 JUMPI PUSH2 0x100 DUP1 DUP4 SLOAD DIV MUL DUP4 MSTORE SWAP2 PUSH1 0x20 ADD SWAP2 PUSH2 0xAEB JUMP JUMPDEST DUP3 ADD SWAP2 SWAP1 PUSH1 0x0 MSTORE PUSH1 0x20 PUSH1 0x0 KECCAK256 SWAP1 JUMPDEST DUP2 SLOAD DUP2 MSTORE SWAP1 PUSH1 0x1 ADD SWAP1 PUSH1 0x20 ADD DUP1 DUP4 GT PUSH2 0xACE JUMPI DUP3 SWAP1 SUB PUSH1 0x1F AND DUP3 ADD SWAP2 JUMPDEST POP POP POP POP POP DUP2 MSTORE PUSH1 0x20 ADD PUSH1 0x2 DUP3 ADD DUP1 SLOAD PUSH2 0xB04 SWAP1 PUSH2 0x2073 JUMP JUMPDEST DUP1 PUSH1 0x1F ADD PUSH1 0x20 DUP1 SWAP2 DIV MUL PUSH1 0x20 ADD PUSH1 0x40 MLOAD SWAP1 DUP2 ADD PUSH1 0x40 MSTORE DUP1 SWAP3 SWAP2 SWAP1 DUP2 DUP2 MSTORE PUSH1 0x20 ADD DUP3 DUP1 SLOAD PUSH2 0xB30 SWAP1 PUSH2 0x2073 JUMP JUMPDEST DUP1 ISZERO PUSH2 0xB7D JUMPI DUP1 PUSH1 0x1F LT PUSH2 0xB52 JUMPI PUSH2 0x100 DUP1 DUP4 SLOAD DIV MUL DUP4 MSTORE SWAP2 PUSH1 0x20 ADD SWAP2 PUSH2 0xB7D JUMP JUMPDEST DUP3 ADD SWAP2 SWAP1 PUSH1 0x0 MSTORE PUSH1 0x20 PUSH1 0x0 KECCAK256 SWAP1 JUMPDEST DUP2 SLOAD DUP2 MSTORE SWAP1 PUSH1 0x1 ADD SWAP1 PUSH1 0x20 ADD DUP1 DUP4 GT PUSH2 0xB60 JUMPI DUP3 SWAP1 SUB PUSH1 0x1F AND DUP3 ADD SWAP2 JUMPDEST POP POP POP POP POP DUP2 MSTORE PUSH1 0x20 ADD PUSH1 0x3 DUP3 ADD SLOAD DUP2 MSTORE POP POP SWAP1 POP DUP1 SWAP3 POP POP POP SWAP2 SWAP1 POP JUMP JUMPDEST PUSH1 0x0 DUP1 DUP7 SWAP1 POP PUSH1 0x0 PUSH1 0x1 DUP8 DUP8 SWAP1 POP PUSH2 0xBB4 SWAP2 SWAP1 PUSH2 0x1F89 JUMP JUMPDEST PUSH8 0xFFFFFFFFFFFFFFFF DUP2 GT ISZERO PUSH2 0xBCD JUMPI PUSH2 0xBCC PUSH2 0x21B6 JUMP JUMPDEST JUMPDEST PUSH1 0x40 MLOAD SWAP1 DUP1 DUP3 MSTORE DUP1 PUSH1 0x20 MUL PUSH1 0x20 ADD DUP3 ADD PUSH1 0x40 MSTORE DUP1 ISZERO PUSH2 0xBFB JUMPI DUP2 PUSH1 0x20 ADD PUSH1 0x20 DUP3 MUL DUP1 CALLDATASIZE DUP4 CALLDATACOPY DUP1 DUP3 ADD SWAP2 POP POP SWAP1 POP JUMPDEST POP SWAP1 POP DUP1 PUSH1 0x0 DUP2 MLOAD DUP2 LT PUSH2 0xC12 JUMPI PUSH2 0xC11 PUSH2 0x2187 JUMP JUMPDEST JUMPDEST PUSH1 0x20 MUL PUSH1 0x20 ADD ADD MLOAD POP PUSH1 0x0 JUMPDEST DUP8 DUP8 SWAP1 POP DUP2 LT ISZERO PUSH2 0xCF9 JUMPI PUSH1 0x0 DUP9 DUP9 DUP4 DUP2 DUP2 LT PUSH2 0xC3E JUMPI PUSH2 0xC3D PUSH2 0x2187 JUMP JUMPDEST JUMPDEST SWAP1 POP PUSH1 0x20 MUL ADD CALLDATALOAD SWAP1 POP PUSH1 0x1 DUP8 DUP8 DUP5 DUP2 DUP2 LT PUSH2 0xC5C JUMPI PUSH2 0xC5B PUSH2 0x2187 JUMP JUMPDEST JUMPDEST SWAP1 POP PUSH1 0x20 MUL ADD CALLDATALOAD EQ ISZERO PUSH2 0xCB9 JUMPI DUP4 DUP2 PUSH1 0x40 MLOAD PUSH1 0x20 ADD PUSH2 0xC7C SWAP3 SWAP2 SWAP1 PUSH2 0x1DCE JUMP JUMPDEST PUSH1 0x40 MLOAD PUSH1 0x20 DUP2 DUP4 SUB SUB DUP2 MSTORE SWAP1 PUSH1 0x40 MSTORE DUP1 MLOAD SWAP1 PUSH1 0x20 ADD KECCAK256 SWAP4 POP DUP4 DUP4 DUP4 DUP2 MLOAD DUP2 LT PUSH2 0xCA8 JUMPI PUSH2 0xCA7 PUSH2 0x2187 JUMP JUMPDEST JUMPDEST PUSH1 0x20 MUL PUSH1 0x20 ADD ADD DUP2 DUP2 MSTORE POP POP PUSH2 0xCE5 JUMP JUMPDEST DUP1 DUP5 PUSH1 0x40 MLOAD PUSH1 0x20 ADD PUSH2 0xCCC SWAP3 SWAP2 SWAP1 PUSH2 0x1DCE JUMP JUMPDEST PUSH1 0x40 MLOAD PUSH1 0x20 DUP2 DUP4 SUB SUB DUP2 MSTORE SWAP1 PUSH1 0x40 MSTORE DUP1 MLOAD SWAP1 PUSH1 0x20 ADD KECCAK256 SWAP4 POP JUMPDEST POP DUP1 DUP1 PUSH2 0xCF1 SWAP1 PUSH2 0x20D6 JUMP JUMPDEST SWAP2 POP POP PUSH2 0xC1E JUMP JUMPDEST POP DUP9 DUP3 EQ SWAP3 POP POP POP SWAP7 SWAP6 POP POP POP POP POP POP JUMP JUMPDEST PUSH1 0x0 DUP1 DUP7 SWAP1 POP PUSH1 0x0 JUMPDEST DUP7 DUP7 SWAP1 POP DUP2 LT ISZERO PUSH2 0xDCF JUMPI PUSH1 0x0 DUP8 DUP8 DUP4 DUP2 DUP2 LT PUSH2 0xD34 JUMPI PUSH2 0xD33 PUSH2 0x2187 JUMP JUMPDEST JUMPDEST SWAP1 POP PUSH1 0x20 MUL ADD CALLDATALOAD SWAP1 POP PUSH1 0x1 DUP7 DUP7 DUP5 DUP2 DUP2 LT PUSH2 0xD52 JUMPI PUSH2 0xD51 PUSH2 0x2187 JUMP JUMPDEST JUMPDEST SWAP1 POP PUSH1 0x20 MUL ADD CALLDATALOAD EQ ISZERO PUSH2 0xD8F JUMPI DUP3 DUP2 PUSH1 0x40 MLOAD PUSH1 0x20 ADD PUSH2 0xD72 SWAP3 SWAP2 SWAP1 PUSH2 0x1DCE JUMP JUMPDEST PUSH1 0x40 MLOAD PUSH1 0x20 DUP2 DUP4 SUB SUB DUP2 MSTORE SWAP1 PUSH1 0x40 MSTORE DUP1 MLOAD SWAP1 PUSH1 0x20 ADD KECCAK256 SWAP3 POP PUSH2 0xDBB JUMP JUMPDEST DUP1 DUP4 PUSH1 0x40 MLOAD PUSH1 0x20 ADD PUSH2 0xDA2 SWAP3 SWAP2 SWAP1 PUSH2 0x1DCE JUMP JUMPDEST PUSH1 0x40 MLOAD PUSH1 0x20 DUP2 DUP4 SUB SUB DUP2 MSTORE SWAP1 PUSH1 0x40 MSTORE DUP1 MLOAD SWAP1 PUSH1 0x20 ADD KECCAK256 SWAP3 POP JUMPDEST POP DUP1 DUP1 PUSH2 0xDC7 SWAP1 PUSH2 0x20D6 JUMP JUMPDEST SWAP2 POP POP PUSH2 0xD14 JUMP JUMPDEST POP DUP8 DUP2 EQ SWAP2 POP POP SWAP7 SWAP6 POP POP POP POP POP POP JUMP JUMPDEST PUSH2 0xDE8 PUSH2 0x1742 JUMP JUMPDEST PUSH1 0x0 PUSH1 0x3 PUSH1 0x0 DUP5 PUSH20 0xFFFFFFFFFFFFFFFFFFFFFFFFFFFFFFFFFFFFFFFF AND PUSH20 0xFFFFFFFFFFFFFFFFFFFFFFFFFFFFFFFFFFFFFFFF AND DUP2 MSTORE PUSH1 0x20 ADD SWAP1 DUP2 MSTORE PUSH1 0x20 ADD PUSH1 0x0 KECCAK256 PUSH1 0x40 MLOAD DUP1 PUSH1 0x80 ADD PUSH1 0x40 MSTORE SWAP1 DUP2 PUSH1 0x0 DUP3 ADD SLOAD DUP2 MSTORE PUSH1 0x20 ADD PUSH1 0x1 DUP3 ADD DUP1 SLOAD PUSH2 0xE4E SWAP1 PUSH2 0x2073 JUMP JUMPDEST DUP1 PUSH1 0x1F ADD PUSH1 0x20 DUP1 SWAP2 DIV MUL PUSH1 0x20 ADD PUSH1 0x40 MLOAD SWAP1 DUP2 ADD PUSH1 0x40 MSTORE DUP1 SWAP3 SWAP2 SWAP1 DUP2 DUP2 MSTORE PUSH1 0x20 ADD DUP3 DUP1 SLOAD PUSH2 0xE7A SWAP1 PUSH2 0x2073 JUMP JUMPDEST DUP1 ISZERO PUSH2 0xEC7 JUMPI DUP1 PUSH1 0x1F LT PUSH2 0xE9C JUMPI PUSH2 0x100 DUP1 DUP4 SLOAD DIV MUL DUP4 MSTORE SWAP2 PUSH1 0x20 ADD SWAP2 PUSH2 0xEC7 JUMP JUMPDEST DUP3 ADD SWAP2 SWAP1 PUSH1 0x0 MSTORE PUSH1 0x20 PUSH1 0x0 KECCAK256 SWAP1 JUMPDEST DUP2 SLOAD DUP2 MSTORE SWAP1 PUSH1 0x1 ADD SWAP1 PUSH1 0x20 ADD DUP1 DUP4 GT PUSH2 0xEAA JUMPI DUP3 SWAP1 SUB PUSH1 0x1F AND DUP3 ADD SWAP2 JUMPDEST POP POP POP POP POP DUP2 MSTORE PUSH1 0x20 ADD PUSH1 0x2 DUP3 ADD DUP1 SLOAD PUSH2 0xEE0 SWAP1 PUSH2 0x2073 JUMP JUMPDEST DUP1 PUSH1 0x1F ADD PUSH1 0x20 DUP1 SWAP2 DIV MUL PUSH1 0x20 ADD PUSH1 0x40 MLOAD SWAP1 DUP2 ADD PUSH1 0x40 MSTORE DUP1 SWAP3 SWAP2 SWAP1 DUP2 DUP2 MSTORE PUSH1 0x20 ADD DUP3 DUP1 SLOAD PUSH2 0xF0C SWAP1 PUSH2 0x2073 JUMP JUMPDEST DUP1 ISZERO PUSH2 0xF59 JUMPI DUP1 PUSH1 0x1F LT PUSH2 0xF2E JUMPI PUSH2 0x100 DUP1 DUP4 SLOAD DIV MUL DUP4 MSTORE SWAP2 PUSH1 0x20 ADD SWAP2 PUSH2 0xF59 JUMP JUMPDEST DUP3 ADD SWAP2 SWAP1 PUSH1 0x0 MSTORE PUSH1 0x20 PUSH1 0x0 KECCAK256 SWAP1 JUMPDEST DUP2 SLOAD DUP2 MSTORE SWAP1 PUSH1 0x1 ADD SWAP1 PUSH1 0x20 ADD DUP1 DUP4 GT PUSH2 0xF3C JUMPI DUP3 SWAP1 SUB PUSH1 0x1F AND DUP3 ADD SWAP2 JUMPDEST POP POP POP POP POP DUP2 MSTORE PUSH1 0x20 ADD PUSH1 0x3 DUP3 ADD SLOAD DUP2 MSTORE POP POP SWAP1 POP DUP1 SWAP2 POP POP SWAP2 SWAP1 POP JUMP JUMPDEST PUSH1 0x0 DUP1 PUSH1 0x3 PUSH1 0x0 DUP5 PUSH20 0xFFFFFFFFFFFFFFFFFFFFFFFFFFFFFFFFFFFFFFFF AND PUSH20 0xFFFFFFFFFFFFFFFFFFFFFFFFFFFFFFFFFFFFFFFF AND DUP2 MSTORE PUSH1 0x20 ADD SWAP1 DUP2 MSTORE PUSH1 0x20 ADD PUSH1 0x0 KECCAK256 PUSH1 0x40 MLOAD DUP1 PUSH1 0x80 ADD PUSH1 0x40 MSTORE SWAP1 DUP2 PUSH1 0x0 DUP3 ADD SLOAD DUP2 MSTORE PUSH1 0x20 ADD PUSH1 0x1 DUP3 ADD DUP1 SLOAD PUSH2 0xFDE SWAP1 PUSH2 0x2073 JUMP JUMPDEST DUP1 PUSH1 0x1F ADD PUSH1 0x20 DUP1 SWAP2 DIV MUL PUSH1 0x20 ADD PUSH1 0x40 MLOAD SWAP1 DUP2 ADD PUSH1 0x40 MSTORE DUP1 SWAP3 SWAP2 SWAP1 DUP2 DUP2 MSTORE PUSH1 0x20 ADD DUP3 DUP1 SLOAD PUSH2 0x100A SWAP1 PUSH2 0x2073 JUMP JUMPDEST DUP1 ISZERO PUSH2 0x1057 JUMPI DUP1 PUSH1 0x1F LT PUSH2 0x102C JUMPI PUSH2 0x100 DUP1 DUP4 SLOAD DIV MUL DUP4 MSTORE SWAP2 PUSH1 0x20 ADD SWAP2 PUSH2 0x1057 JUMP JUMPDEST DUP3 ADD SWAP2 SWAP1 PUSH1 0x0 MSTORE PUSH1 0x20 PUSH1 0x0 KECCAK256 SWAP1 JUMPDEST DUP2 SLOAD DUP2 MSTORE SWAP1 PUSH1 0x1 ADD SWAP1 PUSH1 0x20 ADD DUP1 DUP4 GT PUSH2 0x103A JUMPI DUP3 SWAP1 SUB PUSH1 0x1F AND DUP3 ADD SWAP2 JUMPDEST POP POP POP POP POP DUP2 MSTORE PUSH1 0x20 ADD PUSH1 0x2 DUP3 ADD DUP1 SLOAD PUSH2 0x1070 SWAP1 PUSH2 0x2073 JUMP JUMPDEST DUP1 PUSH1 0x1F ADD PUSH1 0x20 DUP1 SWAP2 DIV MUL PUSH1 0x20 ADD PUSH1 0x40 MLOAD SWAP1 DUP2 ADD PUSH1 0x40 MSTORE DUP1 SWAP3 SWAP2 SWAP1 DUP2 DUP2 MSTORE PUSH1 0x20 ADD DUP3 DUP1 SLOAD PUSH2 0x109C SWAP1 PUSH2 0x2073 JUMP JUMPDEST DUP1 ISZERO PUSH2 0x10E9 JUMPI DUP1 PUSH1 0x1F LT PUSH2 0x10BE JUMPI PUSH2 0x100 DUP1 DUP4 SLOAD DIV MUL DUP4 MSTORE SWAP2 PUSH1 0x20 ADD SWAP2 PUSH2 0x10E9 JUMP JUMPDEST DUP3 ADD SWAP2 SWAP1 PUSH1 0x0 MSTORE PUSH1 0x20 PUSH1 0x0 KECCAK256 SWAP1 JUMPDEST DUP2 SLOAD DUP2 MSTORE SWAP1 PUSH1 0x1 ADD SWAP1 PUSH1 0x20 ADD DUP1 DUP4 GT PUSH2 0x10CC JUMPI DUP3 SWAP1 SUB PUSH1 0x1F AND DUP3 ADD SWAP2 JUMPDEST POP POP POP POP POP DUP2 MSTORE PUSH1 0x20 ADD PUSH1 0x3 DUP3 ADD SLOAD DUP2 MSTORE POP POP SWAP1 POP DUP1 PUSH1 0x0 ADD MLOAD SWAP2 POP POP SWAP2 SWAP1 POP JUMP JUMPDEST PUSH1 0x0 PUSH1 0x3 PUSH1 0x0 CALLER PUSH20 0xFFFFFFFFFFFFFFFFFFFFFFFFFFFFFFFFFFFFFFFF AND PUSH20 0xFFFFFFFFFFFFFFFFFFFFFFFFFFFFFFFFFFFFFFFF AND DUP2 MSTORE PUSH1 0x20 ADD SWAP1 DUP2 MSTORE PUSH1 0x20 ADD PUSH1 0x0 KECCAK256 SWAP1 POP DUP4 DUP2 PUSH1 0x1 ADD SWAP1 DUP1 MLOAD SWAP1 PUSH1 0x20 ADD SWAP1 PUSH2 0x1166 SWAP3 SWAP2 SWAP1 PUSH2 0x16BC JUMP JUMPDEST POP DUP3 DUP2 PUSH1 0x2 ADD SWAP1 DUP1 MLOAD SWAP1 PUSH1 0x20 ADD SWAP1 PUSH2 0x117F SWAP3 SWAP2 SWAP1 PUSH2 0x16BC JUMP JUMPDEST POP DUP2 DUP2 PUSH1 0x3 ADD DUP2 SWAP1 SSTORE POP POP POP POP POP JUMP JUMPDEST PUSH2 0x1197 PUSH2 0x15F0 JUMP JUMPDEST PUSH20 0xFFFFFFFFFFFFFFFFFFFFFFFFFFFFFFFFFFFFFFFF AND PUSH2 0x11B5 PUSH2 0x9A3 JUMP JUMPDEST PUSH20 0xFFFFFFFFFFFFFFFFFFFFFFFFFFFFFFFFFFFFFFFF AND EQ PUSH2 0x120B JUMPI PUSH1 0x40 MLOAD PUSH32 0x8C379A000000000000000000000000000000000000000000000000000000000 DUP2 MSTORE PUSH1 0x4 ADD PUSH2 0x1202 SWAP1 PUSH2 0x1E80 JUMP JUMPDEST PUSH1 0x40 MLOAD DUP1 SWAP2 SUB SWAP1 REVERT JUMPDEST PUSH1 0x0 ADDRESS SWAP1 POP PUSH1 0x0 PUSH1 0x1 PUSH1 0x0 SWAP1 SLOAD SWAP1 PUSH2 0x100 EXP SWAP1 DIV PUSH20 0xFFFFFFFFFFFFFFFFFFFFFFFFFFFFFFFFFFFFFFFF AND PUSH20 0xFFFFFFFFFFFFFFFFFFFFFFFFFFFFFFFFFFFFFFFF AND PUSH4 0xCF378343 DUP4 DUP8 PUSH1 0x40 MLOAD DUP4 PUSH4 0xFFFFFFFF AND PUSH1 0xE0 SHL DUP2 MSTORE PUSH1 0x4 ADD PUSH2 0x126F SWAP3 SWAP2 SWAP1 PUSH2 0x1E15 JUMP JUMPDEST PUSH1 0x20 PUSH1 0x40 MLOAD DUP1 DUP4 SUB DUP2 PUSH1 0x0 DUP8 DUP1 EXTCODESIZE ISZERO DUP1 ISZERO PUSH2 0x1289 JUMPI PUSH1 0x0 DUP1 REVERT JUMPDEST POP GAS CALL ISZERO DUP1 ISZERO PUSH2 0x129D JUMPI RETURNDATASIZE PUSH1 0x0 DUP1 RETURNDATACOPY RETURNDATASIZE PUSH1 0x0 REVERT JUMPDEST POP POP POP POP PUSH1 0x40 MLOAD RETURNDATASIZE PUSH1 0x1F NOT PUSH1 0x1F DUP3 ADD AND DUP3 ADD DUP1 PUSH1 0x40 MSTORE POP DUP2 ADD SWAP1 PUSH2 0x12C1 SWAP2 SWAP1 PUSH2 0x1BAC JUMP JUMPDEST SWAP1 POP PUSH1 0x1 PUSH1 0x0 SWAP1 SLOAD SWAP1 PUSH2 0x100 EXP SWAP1 DIV PUSH20 0xFFFFFFFFFFFFFFFFFFFFFFFFFFFFFFFFFFFFFFFF AND PUSH20 0xFFFFFFFFFFFFFFFFFFFFFFFFFFFFFFFFFFFFFFFF AND PUSH4 0xE1B2E979 DUP3 DUP6 PUSH1 0x40 MLOAD DUP4 PUSH4 0xFFFFFFFF AND PUSH1 0xE0 SHL DUP2 MSTORE PUSH1 0x4 ADD PUSH2 0x1320 SWAP3 SWAP2 SWAP1 PUSH2 0x1EDD JUMP JUMPDEST PUSH1 0x0 PUSH1 0x40 MLOAD DUP1 DUP4 SUB DUP2 PUSH1 0x0 DUP8 DUP1 EXTCODESIZE ISZERO DUP1 ISZERO PUSH2 0x133A JUMPI PUSH1 0x0 DUP1 REVERT JUMPDEST POP GAS CALL ISZERO DUP1 ISZERO PUSH2 0x134E JUMPI RETURNDATASIZE PUSH1 0x0 DUP1 RETURNDATACOPY RETURNDATASIZE PUSH1 0x0 REVERT JUMPDEST POP POP POP POP PUSH2 0x135D DUP2 PUSH1 0x1 PUSH2 0x8F8 JUMP JUMPDEST PUSH2 0x1367 DUP2 DUP6 PUSH2 0x715 JUMP JUMPDEST POP POP POP POP POP JUMP JUMPDEST PUSH1 0x0 PUSH1 0x3 PUSH1 0x0 CALLER PUSH20 0xFFFFFFFFFFFFFFFFFFFFFFFFFFFFFFFFFFFFFFFF AND PUSH20 0xFFFFFFFFFFFFFFFFFFFFFFFFFFFFFFFFFFFFFFFF AND DUP2 MSTORE PUSH1 0x20 ADD SWAP1 DUP2 MSTORE PUSH1 0x20 ADD PUSH1 0x0 KECCAK256 SWAP1 POP DUP2 DUP2 PUSH1 0x1 ADD SWAP1 DUP1 MLOAD SWAP1 PUSH1 0x20 ADD SWAP1 PUSH2 0x13C9 SWAP3 SWAP2 SWAP1 PUSH2 0x16BC JUMP JUMPDEST POP POP POP JUMP JUMPDEST PUSH2 0x13D6 PUSH2 0x15F0 JUMP JUMPDEST PUSH20 0xFFFFFFFFFFFFFFFFFFFFFFFFFFFFFFFFFFFFFFFF AND PUSH2 0x13F4 PUSH2 0x9A3 JUMP JUMPDEST PUSH20 0xFFFFFFFFFFFFFFFFFFFFFFFFFFFFFFFFFFFFFFFF AND EQ PUSH2 0x144A JUMPI PUSH1 0x40 MLOAD PUSH32 0x8C379A000000000000000000000000000000000000000000000000000000000 DUP2 MSTORE PUSH1 0x4 ADD PUSH2 0x1441 SWAP1 PUSH2 0x1E80 JUMP JUMPDEST PUSH1 0x40 MLOAD DUP1 SWAP2 SUB SWAP1 REVERT JUMPDEST PUSH1 0x0 PUSH20 0xFFFFFFFFFFFFFFFFFFFFFFFFFFFFFFFFFFFFFFFF AND DUP2 PUSH20 0xFFFFFFFFFFFFFFFFFFFFFFFFFFFFFFFFFFFFFFFF AND EQ ISZERO PUSH2 0x14BA JUMPI PUSH1 0x40 MLOAD PUSH32 0x8C379A000000000000000000000000000000000000000000000000000000000 DUP2 MSTORE PUSH1 0x4 ADD PUSH2 0x14B1 SWAP1 PUSH2 0x1E60 JUMP JUMPDEST PUSH1 0x40 MLOAD DUP1 SWAP2 SUB SWAP1 REVERT JUMPDEST PUSH2 0x14C3 DUP2 PUSH2 0x15F8 JUMP JUMPDEST POP JUMP JUMPDEST PUSH1 0x0 PUSH1 0x3 PUSH1 0x0 CALLER PUSH20 0xFFFFFFFFFFFFFFFFFFFFFFFFFFFFFFFFFFFFFFFF AND PUSH20 0xFFFFFFFFFFFFFFFFFFFFFFFFFFFFFFFFFFFFFFFF AND DUP2 MSTORE PUSH1 0x20 ADD SWAP1 DUP2 MSTORE PUSH1 0x20 ADD PUSH1 0x0 KECCAK256 SWAP1 POP DUP3 DUP2 PUSH1 0x2 ADD SWAP1 DUP1 MLOAD SWAP1 PUSH1 0x20 ADD SWAP1 PUSH2 0x1521 SWAP3 SWAP2 SWAP1 PUSH2 0x16BC JUMP JUMPDEST POP DUP2 DUP2 PUSH1 0x3 ADD DUP2 SWAP1 SSTORE POP POP POP POP JUMP JUMPDEST PUSH2 0x1538 PUSH2 0x15F0 JUMP JUMPDEST PUSH20 0xFFFFFFFFFFFFFFFFFFFFFFFFFFFFFFFFFFFFFFFF AND PUSH2 0x1556 PUSH2 0x9A3 JUMP JUMPDEST PUSH20 0xFFFFFFFFFFFFFFFFFFFFFFFFFFFFFFFFFFFFFFFF AND EQ PUSH2 0x15AC JUMPI PUSH1 0x40 MLOAD PUSH32 0x8C379A000000000000000000000000000000000000000000000000000000000 DUP2 MSTORE PUSH1 0x4 ADD PUSH2 0x15A3 SWAP1 PUSH2 0x1E80 JUMP JUMPDEST PUSH1 0x40 MLOAD DUP1 SWAP2 SUB SWAP1 REVERT JUMPDEST DUP1 PUSH1 0x1 PUSH1 0x0 PUSH2 0x100 EXP DUP2 SLOAD DUP2 PUSH20 0xFFFFFFFFFFFFFFFFFFFFFFFFFFFFFFFFFFFFFFFF MUL NOT AND SWAP1 DUP4 PUSH20 0xFFFFFFFFFFFFFFFFFFFFFFFFFFFFFFFFFFFFFFFF AND MUL OR SWAP1 SSTORE POP POP JUMP JUMPDEST PUSH1 0x0 CALLER SWAP1 POP SWAP1 JUMP JUMPDEST PUSH1 0x0 DUP1 PUSH1 0x0 SWAP1 SLOAD SWAP1 PUSH2 0x100 EXP SWAP1 DIV PUSH20 0xFFFFFFFFFFFFFFFFFFFFFFFFFFFFFFFFFFFFFFFF AND SWAP1 POP DUP2 PUSH1 0x0 DUP1 PUSH2 0x100 EXP DUP2 SLOAD DUP2 PUSH20 0xFFFFFFFFFFFFFFFFFFFFFFFFFFFFFFFFFFFFFFFF MUL NOT AND SWAP1 DUP4 PUSH20 0xFFFFFFFFFFFFFFFFFFFFFFFFFFFFFFFFFFFFFFFF AND MUL OR SWAP1 SSTORE POP DUP2 PUSH20 0xFFFFFFFFFFFFFFFFFFFFFFFFFFFFFFFFFFFFFFFF AND DUP2 PUSH20 0xFFFFFFFFFFFFFFFFFFFFFFFFFFFFFFFFFFFFFFFF AND PUSH32 0x8BE0079C531659141344CD1FD0A4F28419497F9722A3DAAFE3B4186F6B6457E0 PUSH1 0x40 MLOAD PUSH1 0x40 MLOAD DUP1 SWAP2 SUB SWAP1 LOG3 POP POP JUMP JUMPDEST DUP3 DUP1 SLOAD PUSH2 0x16C8 SWAP1 PUSH2 0x2073 JUMP JUMPDEST SWAP1 PUSH1 0x0 MSTORE PUSH1 0x20 PUSH1 0x0 KECCAK256 SWAP1 PUSH1 0x1F ADD PUSH1 0x20 SWAP1 DIV DUP2 ADD SWAP3 DUP3 PUSH2 0x16EA JUMPI PUSH1 0x0 DUP6 SSTORE PUSH2 0x1731 JUMP JUMPDEST DUP3 PUSH1 0x1F LT PUSH2 0x1703 JUMPI DUP1 MLOAD PUSH1 0xFF NOT AND DUP4 DUP1 ADD OR DUP6 SSTORE PUSH2 0x1731 JUMP JUMPDEST DUP3 DUP1 ADD PUSH1 0x1 ADD DUP6 SSTORE DUP3 ISZERO PUSH2 0x1731 JUMPI SWAP2 DUP3 ADD JUMPDEST DUP3 DUP2 GT ISZERO PUSH2 0x1730 JUMPI DUP3 MLOAD DUP3 SSTORE SWAP2 PUSH1 0x20 ADD SWAP2 SWAP1 PUSH1 0x1 ADD SWAP1 PUSH2 0x1715 JUMP JUMPDEST JUMPDEST POP SWAP1 POP PUSH2 0x173E SWAP2 SWAP1 PUSH2 0x176A JUMP JUMPDEST POP SWAP1 JUMP JUMPDEST PUSH1 0x40 MLOAD DUP1 PUSH1 0x80 ADD PUSH1 0x40 MSTORE DUP1 PUSH1 0x0 DUP2 MSTORE PUSH1 0x20 ADD PUSH1 0x60 DUP2 MSTORE PUSH1 0x20 ADD PUSH1 0x60 DUP2 MSTORE PUSH1 0x20 ADD PUSH1 0x0 DUP2 MSTORE POP SWAP1 JUMP JUMPDEST JUMPDEST DUP1 DUP3 GT ISZERO PUSH2 0x1783 JUMPI PUSH1 0x0 DUP2 PUSH1 0x0 SWAP1 SSTORE POP PUSH1 0x1 ADD PUSH2 0x176B JUMP JUMPDEST POP SWAP1 JUMP JUMPDEST PUSH1 0x0 PUSH2 0x179A PUSH2 0x1795 DUP5 PUSH2 0x1F2B JUMP JUMPDEST PUSH2 0x1F06 JUMP JUMPDEST SWAP1 POP DUP3 DUP2 MSTORE PUSH1 0x20 DUP2 ADD DUP5 DUP5 DUP5 ADD GT ISZERO PUSH2 0x17B6 JUMPI PUSH2 0x17B5 PUSH2 0x21F4 JUMP JUMPDEST JUMPDEST PUSH2 0x17C1 DUP5 DUP3 DUP6 PUSH2 0x2031 JUMP JUMPDEST POP SWAP4 SWAP3 POP POP POP JUMP JUMPDEST PUSH1 0x0 DUP2 CALLDATALOAD SWAP1 POP PUSH2 0x17D8 DUP2 PUSH2 0x228C JUMP JUMPDEST SWAP3 SWAP2 POP POP JUMP JUMPDEST PUSH1 0x0 DUP1 DUP4 PUSH1 0x1F DUP5 ADD SLT PUSH2 0x17F4 JUMPI PUSH2 0x17F3 PUSH2 0x21EA JUMP JUMPDEST JUMPDEST DUP3 CALLDATALOAD SWAP1 POP PUSH8 0xFFFFFFFFFFFFFFFF DUP2 GT ISZERO PUSH2 0x1811 JUMPI PUSH2 0x1810 PUSH2 0x21E5 JUMP JUMPDEST JUMPDEST PUSH1 0x20 DUP4 ADD SWAP2 POP DUP4 PUSH1 0x20 DUP3 MUL DUP4 ADD GT ISZERO PUSH2 0x182D JUMPI PUSH2 0x182C PUSH2 0x21EF JUMP JUMPDEST JUMPDEST SWAP3 POP SWAP3 SWAP1 POP JUMP JUMPDEST PUSH1 0x0 DUP1 DUP4 PUSH1 0x1F DUP5 ADD SLT PUSH2 0x184A JUMPI PUSH2 0x1849 PUSH2 0x21EA JUMP JUMPDEST JUMPDEST DUP3 CALLDATALOAD SWAP1 POP PUSH8 0xFFFFFFFFFFFFFFFF DUP2 GT ISZERO PUSH2 0x1867 JUMPI PUSH2 0x1866 PUSH2 0x21E5 JUMP JUMPDEST JUMPDEST PUSH1 0x20 DUP4 ADD SWAP2 POP DUP4 PUSH1 0x20 DUP3 MUL DUP4 ADD GT ISZERO PUSH2 0x1883 JUMPI PUSH2 0x1882 PUSH2 0x21EF JUMP JUMPDEST JUMPDEST SWAP3 POP SWAP3 SWAP1 POP JUMP JUMPDEST PUSH1 0x0 DUP2 CALLDATALOAD SWAP1 POP PUSH2 0x1899 DUP2 PUSH2 0x22A3 JUMP JUMPDEST SWAP3 SWAP2 POP POP JUMP JUMPDEST PUSH1 0x0 DUP2 CALLDATALOAD SWAP1 POP PUSH2 0x18AE DUP2 PUSH2 0x22BA JUMP JUMPDEST SWAP3 SWAP2 POP POP JUMP JUMPDEST PUSH1 0x0 DUP3 PUSH1 0x1F DUP4 ADD SLT PUSH2 0x18C9 JUMPI PUSH2 0x18C8 PUSH2 0x21EA JUMP JUMPDEST JUMPDEST DUP2 CALLDATALOAD PUSH2 0x18D9 DUP5 DUP3 PUSH1 0x20 DUP7 ADD PUSH2 0x1787 JUMP JUMPDEST SWAP2 POP POP SWAP3 SWAP2 POP POP JUMP JUMPDEST PUSH1 0x0 DUP2 CALLDATALOAD SWAP1 POP PUSH2 0x18F1 DUP2 PUSH2 0x22D1 JUMP JUMPDEST SWAP3 SWAP2 POP POP JUMP JUMPDEST PUSH1 0x0 DUP2 MLOAD SWAP1 POP PUSH2 0x1906 DUP2 PUSH2 0x22D1 JUMP JUMPDEST SWAP3 SWAP2 POP POP JUMP JUMPDEST PUSH1 0x0 PUSH1 0x20 DUP3 DUP5 SUB SLT ISZERO PUSH2 0x1922 JUMPI PUSH2 0x1921 PUSH2 0x21FE JUMP JUMPDEST JUMPDEST PUSH1 0x0 PUSH2 0x1930 DUP5 DUP3 DUP6 ADD PUSH2 0x17C9 JUMP JUMPDEST SWAP2 POP POP SWAP3 SWAP2 POP POP JUMP JUMPDEST PUSH1 0x0 DUP1 PUSH1 0x0 DUP1 PUSH1 0x0 DUP1 PUSH1 0x80 DUP8 DUP10 SUB SLT ISZERO PUSH2 0x1956 JUMPI PUSH2 0x1955 PUSH2 0x21FE JUMP JUMPDEST JUMPDEST PUSH1 0x0 PUSH2 0x1964 DUP10 DUP3 DUP11 ADD PUSH2 0x189F JUMP JUMPDEST SWAP7 POP POP PUSH1 0x20 PUSH2 0x1975 DUP10 DUP3 DUP11 ADD PUSH2 0x189F JUMP JUMPDEST SWAP6 POP POP PUSH1 0x40 DUP8 ADD CALLDATALOAD PUSH8 0xFFFFFFFFFFFFFFFF DUP2 GT ISZERO PUSH2 0x1996 JUMPI PUSH2 0x1995 PUSH2 0x21F9 JUMP JUMPDEST JUMPDEST PUSH2 0x19A2 DUP10 DUP3 DUP11 ADD PUSH2 0x17DE JUMP JUMPDEST SWAP5 POP SWAP5 POP POP PUSH1 0x60 DUP8 ADD CALLDATALOAD PUSH8 0xFFFFFFFFFFFFFFFF DUP2 GT ISZERO PUSH2 0x19C5 JUMPI PUSH2 0x19C4 PUSH2 0x21F9 JUMP JUMPDEST JUMPDEST PUSH2 0x19D1 DUP10 DUP3 DUP11 ADD PUSH2 0x1834 JUMP JUMPDEST SWAP3 POP SWAP3 POP POP SWAP3 SWAP6 POP SWAP3 SWAP6 POP SWAP3 SWAP6 JUMP JUMPDEST PUSH1 0x0 PUSH1 0x20 DUP3 DUP5 SUB SLT ISZERO PUSH2 0x19F6 JUMPI PUSH2 0x19F5 PUSH2 0x21FE JUMP JUMPDEST JUMPDEST PUSH1 0x0 DUP3 ADD CALLDATALOAD PUSH8 0xFFFFFFFFFFFFFFFF DUP2 GT ISZERO PUSH2 0x1A14 JUMPI PUSH2 0x1A13 PUSH2 0x21F9 JUMP JUMPDEST JUMPDEST PUSH2 0x1A20 DUP5 DUP3 DUP6 ADD PUSH2 0x18B4 JUMP JUMPDEST SWAP2 POP POP SWAP3 SWAP2 POP POP JUMP JUMPDEST PUSH1 0x0 DUP1 PUSH1 0x0 PUSH1 0x60 DUP5 DUP7 SUB SLT ISZERO PUSH2 0x1A42 JUMPI PUSH2 0x1A41 PUSH2 0x21FE JUMP JUMPDEST JUMPDEST PUSH1 0x0 DUP5 ADD CALLDATALOAD PUSH8 0xFFFFFFFFFFFFFFFF DUP2 GT ISZERO PUSH2 0x1A60 JUMPI PUSH2 0x1A5F PUSH2 0x21F9 JUMP JUMPDEST JUMPDEST PUSH2 0x1A6C DUP7 DUP3 DUP8 ADD PUSH2 0x18B4 JUMP JUMPDEST SWAP4 POP POP PUSH1 0x20 PUSH2 0x1A7D DUP7 DUP3 DUP8 ADD PUSH2 0x17C9 JUMP JUMPDEST SWAP3 POP POP PUSH1 0x40 PUSH2 0x1A8E DUP7 DUP3 DUP8 ADD PUSH2 0x18E2 JUMP JUMPDEST SWAP2 POP POP SWAP3 POP SWAP3 POP SWAP3 JUMP JUMPDEST PUSH1 0x0 DUP1 PUSH1 0x0 PUSH1 0x60 DUP5 DUP7 SUB SLT ISZERO PUSH2 0x1AB1 JUMPI PUSH2 0x1AB0 PUSH2 0x21FE JUMP JUMPDEST JUMPDEST PUSH1 0x0 DUP5 ADD CALLDATALOAD PUSH8 0xFFFFFFFFFFFFFFFF DUP2 GT ISZERO PUSH2 0x1ACF JUMPI PUSH2 0x1ACE PUSH2 0x21F9 JUMP JUMPDEST JUMPDEST PUSH2 0x1ADB DUP7 DUP3 DUP8 ADD PUSH2 0x18B4 JUMP JUMPDEST SWAP4 POP POP PUSH1 0x20 DUP5 ADD CALLDATALOAD PUSH8 0xFFFFFFFFFFFFFFFF DUP2 GT ISZERO PUSH2 0x1AFC JUMPI PUSH2 0x1AFB PUSH2 0x21F9 JUMP JUMPDEST JUMPDEST PUSH2 0x1B08 DUP7 DUP3 DUP8 ADD PUSH2 0x18B4 JUMP JUMPDEST SWAP3 POP POP PUSH1 0x40 PUSH2 0x1B19 DUP7 DUP3 DUP8 ADD PUSH2 0x18E2 JUMP JUMPDEST SWAP2 POP POP SWAP3 POP SWAP3 POP SWAP3 JUMP JUMPDEST PUSH1 0x0 DUP1 PUSH1 0x40 DUP4 DUP6 SUB SLT ISZERO PUSH2 0x1B3A JUMPI PUSH2 0x1B39 PUSH2 0x21FE JUMP JUMPDEST JUMPDEST PUSH1 0x0 DUP4 ADD CALLDATALOAD PUSH8 0xFFFFFFFFFFFFFFFF DUP2 GT ISZERO PUSH2 0x1B58 JUMPI PUSH2 0x1B57 PUSH2 0x21F9 JUMP JUMPDEST JUMPDEST PUSH2 0x1B64 DUP6 DUP3 DUP7 ADD PUSH2 0x18B4 JUMP JUMPDEST SWAP3 POP POP PUSH1 0x20 PUSH2 0x1B75 DUP6 DUP3 DUP7 ADD PUSH2 0x18E2 JUMP JUMPDEST SWAP2 POP POP SWAP3 POP SWAP3 SWAP1 POP JUMP JUMPDEST PUSH1 0x0 PUSH1 0x20 DUP3 DUP5 SUB SLT ISZERO PUSH2 0x1B95 JUMPI PUSH2 0x1B94 PUSH2 0x21FE JUMP JUMPDEST JUMPDEST PUSH1 0x0 PUSH2 0x1BA3 DUP5 DUP3 DUP6 ADD PUSH2 0x18E2 JUMP JUMPDEST SWAP2 POP POP SWAP3 SWAP2 POP POP JUMP JUMPDEST PUSH1 0x0 PUSH1 0x20 DUP3 DUP5 SUB SLT ISZERO PUSH2 0x1BC2 JUMPI PUSH2 0x1BC1 PUSH2 0x21FE JUMP JUMPDEST JUMPDEST PUSH1 0x0 PUSH2 0x1BD0 DUP5 DUP3 DUP6 ADD PUSH2 0x18F7 JUMP JUMPDEST SWAP2 POP POP SWAP3 SWAP2 POP POP JUMP JUMPDEST PUSH1 0x0 DUP1 PUSH1 0x40 DUP4 DUP6 SUB SLT ISZERO PUSH2 0x1BF0 JUMPI PUSH2 0x1BEF PUSH2 0x21FE JUMP JUMPDEST JUMPDEST PUSH1 0x0 PUSH2 0x1BFE DUP6 DUP3 DUP7 ADD PUSH2 0x18E2 JUMP JUMPDEST SWAP3 POP POP PUSH1 0x20 PUSH2 0x1C0F DUP6 DUP3 DUP7 ADD PUSH2 0x17C9 JUMP JUMPDEST SWAP2 POP POP SWAP3 POP SWAP3 SWAP1 POP JUMP JUMPDEST PUSH1 0x0 DUP1 PUSH1 0x40 DUP4 DUP6 SUB SLT ISZERO PUSH2 0x1C30 JUMPI PUSH2 0x1C2F PUSH2 0x21FE JUMP JUMPDEST JUMPDEST PUSH1 0x0 PUSH2 0x1C3E DUP6 DUP3 DUP7 ADD PUSH2 0x18E2 JUMP JUMPDEST SWAP3 POP POP PUSH1 0x20 PUSH2 0x1C4F DUP6 DUP3 DUP7 ADD PUSH2 0x188A JUMP JUMPDEST SWAP2 POP POP SWAP3 POP SWAP3 SWAP1 POP JUMP JUMPDEST PUSH2 0x1C62 DUP2 PUSH2 0x1FDF JUMP JUMPDEST DUP3 MSTORE POP POP JUMP JUMPDEST PUSH2 0x1C71 DUP2 PUSH2 0x1FF1 JUMP JUMPDEST DUP3 MSTORE POP POP JUMP JUMPDEST PUSH2 0x1C88 PUSH2 0x1C83 DUP3 PUSH2 0x1FFD JUMP JUMPDEST PUSH2 0x211F JUMP JUMPDEST DUP3 MSTORE POP POP JUMP JUMPDEST PUSH1 0x0 PUSH2 0x1C99 DUP3 PUSH2 0x1F5C JUMP JUMPDEST PUSH2 0x1CA3 DUP2 DUP6 PUSH2 0x1F67 JUMP JUMPDEST SWAP4 POP PUSH2 0x1CB3 DUP2 DUP6 PUSH1 0x20 DUP7 ADD PUSH2 0x2040 JUMP JUMPDEST PUSH2 0x1CBC DUP2 PUSH2 0x2203 JUMP JUMPDEST DUP5 ADD SWAP2 POP POP SWAP3 SWAP2 POP POP JUMP JUMPDEST PUSH1 0x0 PUSH2 0x1CD2 DUP3 PUSH2 0x1F5C JUMP JUMPDEST PUSH2 0x1CDC DUP2 DUP6 PUSH2 0x1F78 JUMP JUMPDEST SWAP4 POP PUSH2 0x1CEC DUP2 DUP6 PUSH1 0x20 DUP7 ADD PUSH2 0x2040 JUMP JUMPDEST PUSH2 0x1CF5 DUP2 PUSH2 0x2203 JUMP JUMPDEST DUP5 ADD SWAP2 POP POP SWAP3 SWAP2 POP POP JUMP JUMPDEST PUSH1 0x0 PUSH2 0x1D0D PUSH1 0x26 DUP4 PUSH2 0x1F78 JUMP JUMPDEST SWAP2 POP PUSH2 0x1D18 DUP3 PUSH2 0x2214 JUMP JUMPDEST PUSH1 0x40 DUP3 ADD SWAP1 POP SWAP2 SWAP1 POP JUMP JUMPDEST PUSH1 0x0 PUSH2 0x1D30 PUSH1 0x20 DUP4 PUSH2 0x1F78 JUMP JUMPDEST SWAP2 POP PUSH2 0x1D3B DUP3 PUSH2 0x2263 JUMP JUMPDEST PUSH1 0x20 DUP3 ADD SWAP1 POP SWAP2 SWAP1 POP JUMP JUMPDEST PUSH1 0x0 PUSH1 0x80 DUP4 ADD PUSH1 0x0 DUP4 ADD MLOAD PUSH2 0x1D5E PUSH1 0x0 DUP7 ADD DUP3 PUSH2 0x1DB0 JUMP JUMPDEST POP PUSH1 0x20 DUP4 ADD MLOAD DUP5 DUP3 SUB PUSH1 0x20 DUP7 ADD MSTORE PUSH2 0x1D76 DUP3 DUP3 PUSH2 0x1C8E JUMP JUMPDEST SWAP2 POP POP PUSH1 0x40 DUP4 ADD MLOAD DUP5 DUP3 SUB PUSH1 0x40 DUP7 ADD MSTORE PUSH2 0x1D90 DUP3 DUP3 PUSH2 0x1C8E JUMP JUMPDEST SWAP2 POP POP PUSH1 0x60 DUP4 ADD MLOAD PUSH2 0x1DA5 PUSH1 0x60 DUP7 ADD DUP3 PUSH2 0x1DB0 JUMP JUMPDEST POP DUP1 SWAP2 POP POP SWAP3 SWAP2 POP POP JUMP JUMPDEST PUSH2 0x1DB9 DUP2 PUSH2 0x2027 JUMP JUMPDEST DUP3 MSTORE POP POP JUMP JUMPDEST PUSH2 0x1DC8 DUP2 PUSH2 0x2027 JUMP JUMPDEST DUP3 MSTORE POP POP JUMP JUMPDEST PUSH1 0x0 PUSH2 0x1DDA DUP3 DUP6 PUSH2 0x1C77 JUMP JUMPDEST PUSH1 0x20 DUP3 ADD SWAP2 POP PUSH2 0x1DEA DUP3 DUP5 PUSH2 0x1C77 JUMP JUMPDEST PUSH1 0x20 DUP3 ADD SWAP2 POP DUP2 SWAP1 POP SWAP4 SWAP3 POP POP POP JUMP JUMPDEST PUSH1 0x0 PUSH1 0x20 DUP3 ADD SWAP1 POP PUSH2 0x1E0F PUSH1 0x0 DUP4 ADD DUP5 PUSH2 0x1C59 JUMP JUMPDEST SWAP3 SWAP2 POP POP JUMP JUMPDEST PUSH1 0x0 PUSH1 0x40 DUP3 ADD SWAP1 POP PUSH2 0x1E2A PUSH1 0x0 DUP4 ADD DUP6 PUSH2 0x1C59 JUMP JUMPDEST DUP2 DUP2 SUB PUSH1 0x20 DUP4 ADD MSTORE PUSH2 0x1E3C DUP2 DUP5 PUSH2 0x1CC7 JUMP JUMPDEST SWAP1 POP SWAP4 SWAP3 POP POP POP JUMP JUMPDEST PUSH1 0x0 PUSH1 0x20 DUP3 ADD SWAP1 POP PUSH2 0x1E5A PUSH1 0x0 DUP4 ADD DUP5 PUSH2 0x1C68 JUMP JUMPDEST SWAP3 SWAP2 POP POP JUMP JUMPDEST PUSH1 0x0 PUSH1 0x20 DUP3 ADD SWAP1 POP DUP2 DUP2 SUB PUSH1 0x0 DUP4 ADD MSTORE PUSH2 0x1E79 DUP2 PUSH2 0x1D00 JUMP JUMPDEST SWAP1 POP SWAP2 SWAP1 POP JUMP JUMPDEST PUSH1 0x0 PUSH1 0x20 DUP3 ADD SWAP1 POP DUP2 DUP2 SUB PUSH1 0x0 DUP4 ADD MSTORE PUSH2 0x1E99 DUP2 PUSH2 0x1D23 JUMP JUMPDEST SWAP1 POP SWAP2 SWAP1 POP JUMP JUMPDEST PUSH1 0x0 PUSH1 0x20 DUP3 ADD SWAP1 POP DUP2 DUP2 SUB PUSH1 0x0 DUP4 ADD MSTORE PUSH2 0x1EBA DUP2 DUP5 PUSH2 0x1D46 JUMP JUMPDEST SWAP1 POP SWAP3 SWAP2 POP POP JUMP JUMPDEST PUSH1 0x0 PUSH1 0x20 DUP3 ADD SWAP1 POP PUSH2 0x1ED7 PUSH1 0x0 DUP4 ADD DUP5 PUSH2 0x1DBF JUMP JUMPDEST SWAP3 SWAP2 POP POP JUMP JUMPDEST PUSH1 0x0 PUSH1 0x40 DUP3 ADD SWAP1 POP PUSH2 0x1EF2 PUSH1 0x0 DUP4 ADD DUP6 PUSH2 0x1DBF JUMP JUMPDEST PUSH2 0x1EFF PUSH1 0x20 DUP4 ADD DUP5 PUSH2 0x1DBF JUMP JUMPDEST SWAP4 SWAP3 POP POP POP JUMP JUMPDEST PUSH1 0x0 PUSH2 0x1F10 PUSH2 0x1F21 JUMP JUMPDEST SWAP1 POP PUSH2 0x1F1C DUP3 DUP3 PUSH2 0x20A5 JUMP JUMPDEST SWAP2 SWAP1 POP JUMP JUMPDEST PUSH1 0x0 PUSH1 0x40 MLOAD SWAP1 POP SWAP1 JUMP JUMPDEST PUSH1 0x0 PUSH8 0xFFFFFFFFFFFFFFFF DUP3 GT ISZERO PUSH2 0x1F46 JUMPI PUSH2 0x1F45 PUSH2 0x21B6 JUMP JUMPDEST JUMPDEST PUSH2 0x1F4F DUP3 PUSH2 0x2203 JUMP JUMPDEST SWAP1 POP PUSH1 0x20 DUP2 ADD SWAP1 POP SWAP2 SWAP1 POP JUMP JUMPDEST PUSH1 0x0 DUP2 MLOAD SWAP1 POP SWAP2 SWAP1 POP JUMP JUMPDEST PUSH1 0x0 DUP3 DUP3 MSTORE PUSH1 0x20 DUP3 ADD SWAP1 POP SWAP3 SWAP2 POP POP JUMP JUMPDEST PUSH1 0x0 DUP3 DUP3 MSTORE PUSH1 0x20 DUP3 ADD SWAP1 POP SWAP3 SWAP2 POP POP JUMP JUMPDEST PUSH1 0x0 PUSH2 0x1F94 DUP3 PUSH2 0x2027 JUMP JUMPDEST SWAP2 POP PUSH2 0x1F9F DUP4 PUSH2 0x2027 JUMP JUMPDEST SWAP3 POP DUP3 PUSH32 0xFFFFFFFFFFFFFFFFFFFFFFFFFFFFFFFFFFFFFFFFFFFFFFFFFFFFFFFFFFFFFFFF SUB DUP3 GT ISZERO PUSH2 0x1FD4 JUMPI PUSH2 0x1FD3 PUSH2 0x2129 JUMP JUMPDEST JUMPDEST DUP3 DUP3 ADD SWAP1 POP SWAP3 SWAP2 POP POP JUMP JUMPDEST PUSH1 0x0 PUSH2 0x1FEA DUP3 PUSH2 0x2007 JUMP JUMPDEST SWAP1 POP SWAP2 SWAP1 POP JUMP JUMPDEST PUSH1 0x0 DUP2 ISZERO ISZERO SWAP1 POP SWAP2 SWAP1 POP JUMP JUMPDEST PUSH1 0x0 DUP2 SWAP1 POP SWAP2 SWAP1 POP JUMP JUMPDEST PUSH1 0x0 PUSH20 0xFFFFFFFFFFFFFFFFFFFFFFFFFFFFFFFFFFFFFFFF DUP3 AND SWAP1 POP SWAP2 SWAP1 POP JUMP JUMPDEST PUSH1 0x0 DUP2 SWAP1 POP SWAP2 SWAP1 POP JUMP JUMPDEST DUP3 DUP2 DUP4 CALLDATACOPY PUSH1 0x0 DUP4 DUP4 ADD MSTORE POP POP POP JUMP JUMPDEST PUSH1 0x0 JUMPDEST DUP4 DUP2 LT ISZERO PUSH2 0x205E JUMPI DUP1 DUP3 ADD MLOAD DUP2 DUP5 ADD MSTORE PUSH1 0x20 DUP2 ADD SWAP1 POP PUSH2 0x2043 JUMP JUMPDEST DUP4 DUP2 GT ISZERO PUSH2 0x206D JUMPI PUSH1 0x0 DUP5 DUP5 ADD MSTORE JUMPDEST POP POP POP POP JUMP JUMPDEST PUSH1 0x0 PUSH1 0x2 DUP3 DIV SWAP1 POP PUSH1 0x1 DUP3 AND DUP1 PUSH2 0x208B JUMPI PUSH1 0x7F DUP3 AND SWAP2 POP JUMPDEST PUSH1 0x20 DUP3 LT DUP2 EQ ISZERO PUSH2 0x209F JUMPI PUSH2 0x209E PUSH2 0x2158 JUMP JUMPDEST JUMPDEST POP SWAP2 SWAP1 POP JUMP JUMPDEST PUSH2 0x20AE DUP3 PUSH2 0x2203 JUMP JUMPDEST DUP2 ADD DUP2 DUP2 LT PUSH8 0xFFFFFFFFFFFFFFFF DUP3 GT OR ISZERO PUSH2 0x20CD JUMPI PUSH2 0x20CC PUSH2 0x21B6 JUMP JUMPDEST JUMPDEST DUP1 PUSH1 0x40 MSTORE POP POP POP JUMP JUMPDEST PUSH1 0x0 PUSH2 0x20E1 DUP3 PUSH2 0x2027 JUMP JUMPDEST SWAP2 POP PUSH32 0xFFFFFFFFFFFFFFFFFFFFFFFFFFFFFFFFFFFFFFFFFFFFFFFFFFFFFFFFFFFFFFFF DUP3 EQ ISZERO PUSH2 0x2114 JUMPI PUSH2 0x2113 PUSH2 0x2129 JUMP JUMPDEST JUMPDEST PUSH1 0x1 DUP3 ADD SWAP1 POP SWAP2 SWAP1 POP JUMP JUMPDEST PUSH1 0x0 DUP2 SWAP1 POP SWAP2 SWAP1 POP JUMP JUMPDEST PUSH32 0x4E487B7100000000000000000000000000000000000000000000000000000000 PUSH1 0x0 MSTORE PUSH1 0x11 PUSH1 0x4 MSTORE PUSH1 0x24 PUSH1 0x0 REVERT JUMPDEST PUSH32 0x4E487B7100000000000000000000000000000000000000000000000000000000 PUSH1 0x0 MSTORE PUSH1 0x22 PUSH1 0x4 MSTORE PUSH1 0x24 PUSH1 0x0 REVERT JUMPDEST PUSH32 0x4E487B7100000000000000000000000000000000000000000000000000000000 PUSH1 0x0 MSTORE PUSH1 0x32 PUSH1 0x4 MSTORE PUSH1 0x24 PUSH1 0x0 REVERT JUMPDEST PUSH32 0x4E487B7100000000000000000000000000000000000000000000000000000000 PUSH1 0x0 MSTORE PUSH1 0x41 PUSH1 0x4 MSTORE PUSH1 0x24 PUSH1 0x0 REVERT JUMPDEST PUSH1 0x0 DUP1 REVERT JUMPDEST PUSH1 0x0 DUP1 REVERT JUMPDEST PUSH1 0x0 DUP1 REVERT JUMPDEST PUSH1 0x0 DUP1 REVERT JUMPDEST PUSH1 0x0 DUP1 REVERT JUMPDEST PUSH1 0x0 DUP1 REVERT JUMPDEST PUSH1 0x0 PUSH1 0x1F NOT PUSH1 0x1F DUP4 ADD AND SWAP1 POP SWAP2 SWAP1 POP JUMP JUMPDEST PUSH32 0x4F776E61626C653A206E6577206F776E657220697320746865207A65726F2061 PUSH1 0x0 DUP3 ADD MSTORE PUSH32 0x6464726573730000000000000000000000000000000000000000000000000000 PUSH1 0x20 DUP3 ADD MSTORE POP JUMP JUMPDEST PUSH32 0x4F776E61626C653A2063616C6C6572206973206E6F7420746865206F776E6572 PUSH1 0x0 DUP3 ADD MSTORE POP JUMP JUMPDEST PUSH2 0x2295 DUP2 PUSH2 0x1FDF JUMP JUMPDEST DUP2 EQ PUSH2 0x22A0 JUMPI PUSH1 0x0 DUP1 REVERT JUMPDEST POP JUMP JUMPDEST PUSH2 0x22AC DUP2 PUSH2 0x1FF1 JUMP JUMPDEST DUP2 EQ PUSH2 0x22B7 JUMPI PUSH1 0x0 DUP1 REVERT JUMPDEST POP JUMP JUMPDEST PUSH2 0x22C3 DUP2 PUSH2 0x1FFD JUMP JUMPDEST DUP2 EQ PUSH2 0x22CE JUMPI PUSH1 0x0 DUP1 REVERT JUMPDEST POP JUMP JUMPDEST PUSH2 0x22DA DUP2 PUSH2 0x2027 JUMP JUMPDEST DUP2 EQ PUSH2 0x22E5 JUMPI PUSH1 0x0 DUP1 REVERT JUMPDEST POP JUMP INVALID LOG2 PUSH5 0x6970667358 0x22 SLT KECCAK256 CALLCODE 0xD2 SWAP13 EXTCODECOPY PUSH32 0xB19A1A7B4181865F9BB6FA78AB389BDD6BEB9EAB7D1B0D217B85D464736F6C63 NUMBER STOP ADDMOD SMOD STOP CALLER "
				},
				"gasEstimates": {
					"creation": {
						"codeDepositCost": "1798000",
						"executionCost": "infinite",
						"totalCost": "infinite"
					},
					"external": {
						"": "203",
						"NFTIdOfManager(address)": "infinite",
						"availableOfNFTId(uint256)": "2846",
						"createKYCNFT(string,address,uint256)": "infinite",
						"initManagerAddr(uint256,address)": "49491",
						"managerOfNFTId(uint256)": "2968",
						"modifyManagerAddr(address)": "infinite",
						"owner()": "2589",
						"renounceOwnership()": "30397",
						"setKYCNFTContractAddress(address)": "27072",
						"setNFTAvailableOfNFTId(uint256,bool)": "27215",
						"transferOwnership(address)": "30789",
						"updateAccumulator(string,string,uint256)": "infinite",
						"updateAccumulatorPublicKey(string,uint256)": "infinite",
						"updateAccumulatorValue(string)": "infinite",
						"userDataOfManager(address)": "infinite",
						"userDataOfNFTId(uint256)": "infinite",
						"verify(bytes32,bytes32,bytes32[],uint256[])": "infinite",
						"verifyTest(bytes32,bytes32,bytes32[],uint256[])": "infinite"
					}
				},
				"methodIdentifiers": {
					"NFTIdOfManager(address)": "b2b72bc4",
					"availableOfNFTId(uint256)": "0e197dc9",
					"createKYCNFT(string,address,uint256)": "d1933ddd",
					"initManagerAddr(uint256,address)": "3960a892",
					"managerOfNFTId(uint256)": "4b3cef44",
					"modifyManagerAddr(address)": "1ff4bdf3",
					"owner()": "8da5cb5b",
					"renounceOwnership()": "715018a6",
					"setKYCNFTContractAddress(address)": "fbc2cf13",
					"setNFTAvailableOfNFTId(uint256,bool)": "717b9b6c",
					"transferOwnership(address)": "f2fde38b",
					"updateAccumulator(string,string,uint256)": "bafdee14",
					"updateAccumulatorPublicKey(string,uint256)": "fa0e9e41",
					"updateAccumulatorValue(string)": "d6f70eb3",
					"userDataOfManager(address)": "ad575035",
					"userDataOfNFTId(uint256)": "917b8fd0",
					"verify(bytes32,bytes32,bytes32[],uint256[])": "9bb6dcc8",
					"verifyTest(bytes32,bytes32,bytes32[],uint256[])": "9382b5ec"
				}
			},
			"storageLayout": {
				"storage": [
					{
						"astId": 7,
						"contract": "contracts/KYCManager.sol:KYCManager",
						"label": "_owner",
						"offset": 0,
						"slot": "0",
						"type": "t_address"
					},
					{
						"astId": 160,
						"contract": "contracts/KYCManager.sol:KYCManager",
						"label": "kycNFTContract",
						"offset": 0,
						"slot": "1",
						"type": "t_contract(KYCNFTInterface)146"
					},
					{
						"astId": 164,
						"contract": "contracts/KYCManager.sol:KYCManager",
						"label": "NFTIdToManager",
						"offset": 0,
						"slot": "2",
						"type": "t_mapping(t_uint256,t_address)"
					},
					{
						"astId": 169,
						"contract": "contracts/KYCManager.sol:KYCManager",
						"label": "ManagerToUserData",
						"offset": 0,
						"slot": "3",
						"type": "t_mapping(t_address,t_struct(UserData)157_storage)"
					},
					{
						"astId": 173,
						"contract": "contracts/KYCManager.sol:KYCManager",
						"label": "NFTIdToAvailable",
						"offset": 0,
						"slot": "4",
						"type": "t_mapping(t_uint256,t_bool)"
					}
				],
				"types": {
					"t_address": {
						"encoding": "inplace",
						"label": "address",
						"numberOfBytes": "20"
					},
					"t_bool": {
						"encoding": "inplace",
						"label": "bool",
						"numberOfBytes": "1"
					},
					"t_contract(KYCNFTInterface)146": {
						"encoding": "inplace",
						"label": "contract KYCNFTInterface",
						"numberOfBytes": "20"
					},
					"t_mapping(t_address,t_struct(UserData)157_storage)": {
						"encoding": "mapping",
						"key": "t_address",
						"label": "mapping(address => struct KYCManager.UserData)",
						"numberOfBytes": "32",
						"value": "t_struct(UserData)157_storage"
					},
					"t_mapping(t_uint256,t_address)": {
						"encoding": "mapping",
						"key": "t_uint256",
						"label": "mapping(uint256 => address)",
						"numberOfBytes": "32",
						"value": "t_address"
					},
					"t_mapping(t_uint256,t_bool)": {
						"encoding": "mapping",
						"key": "t_uint256",
						"label": "mapping(uint256 => bool)",
						"numberOfBytes": "32",
						"value": "t_bool"
					},
					"t_string_storage": {
						"encoding": "bytes",
						"label": "string",
						"numberOfBytes": "32"
					},
					"t_struct(UserData)157_storage": {
						"encoding": "inplace",
						"label": "struct KYCManager.UserData",
						"members": [
							{
								"astId": 150,
								"contract": "contracts/KYCManager.sol:KYCManager",
								"label": "NFTid",
								"offset": 0,
								"slot": "0",
								"type": "t_uint256"
							},
							{
								"astId": 152,
								"contract": "contracts/KYCManager.sol:KYCManager",
								"label": "accumulator",
								"offset": 0,
								"slot": "1",
								"type": "t_string_storage"
							},
							{
								"astId": 154,
								"contract": "contracts/KYCManager.sol:KYCManager",
								"label": "n",
								"offset": 0,
								"slot": "2",
								"type": "t_string_storage"
							},
							{
								"astId": 156,
								"contract": "contracts/KYCManager.sol:KYCManager",
								"label": "g",
								"offset": 0,
								"slot": "3",
								"type": "t_uint256"
							}
						],
						"numberOfBytes": "128"
					},
					"t_uint256": {
						"encoding": "inplace",
						"label": "uint256",
						"numberOfBytes": "32"
					}
				}
			},
			"userdoc": {
				"kind": "user",
				"methods": {},
				"version": 1
			}
		}
	}
}