{
  "_format": "hh-sol-artifact-1",
  "contractName": "KYCManager",
  "sourceName": "contracts/KYCManagerV2.sol",
  "abi": [
    {
      "anonymous": false,
      "inputs": [
        {
          "indexed": true,
          "internalType": "address",
          "name": "previousOwner",
          "type": "address"
        },
        {
          "indexed": true,
          "internalType": "address",
          "name": "newOwner",
          "type": "address"
        }
      ],
      "name": "OwnershipTransferred",
      "type": "event"
    },
    {
      "stateMutability": "payable",
      "type": "fallback"
    },
    {
      "inputs": [
        {
          "internalType": "address",
          "name": "managerAddr",
          "type": "address"
        }
      ],
      "name": "NFTIdOfManager",
      "outputs": [
        {
          "internalType": "uint256",
          "name": "",
          "type": "uint256"
        }
      ],
      "stateMutability": "view",
      "type": "function"
    },
    {
      "inputs": [
        {
          "internalType": "uint256",
          "name": "NFTId",
          "type": "uint256"
        }
      ],
      "name": "availableOfNFTId",
      "outputs": [
        {
          "internalType": "bool",
          "name": "",
          "type": "bool"
        }
      ],
      "stateMutability": "view",
      "type": "function"
    },
    {
      "inputs": [
        {
          "internalType": "string",
          "name": "tokenUrl",
          "type": "string"
        },
        {
          "internalType": "address",
          "name": "manager",
          "type": "address"
        },
        {
          "internalType": "uint256",
          "name": "expirationTime",
          "type": "uint256"
        }
      ],
      "name": "createKYCNFT",
      "outputs": [],
      "stateMutability": "nonpayable",
      "type": "function"
    },
    {
      "inputs": [
        {
          "internalType": "uint256",
          "name": "NFTId",
          "type": "uint256"
        },
        {
          "internalType": "address",
          "name": "manager",
          "type": "address"
        }
      ],
      "name": "initManagerAddr",
      "outputs": [],
      "stateMutability": "nonpayable",
      "type": "function"
    },
    {
      "inputs": [
        {
          "internalType": "uint256",
          "name": "NFTId",
          "type": "uint256"
        }
      ],
      "name": "managerOfNFTId",
      "outputs": [
        {
          "internalType": "address",
          "name": "",
          "type": "address"
        }
      ],
      "stateMutability": "view",
      "type": "function"
    },
    {
      "inputs": [
        {
          "internalType": "address",
          "name": "newManager",
          "type": "address"
        }
      ],
      "name": "modifyManagerAddr",
      "outputs": [],
      "stateMutability": "nonpayable",
      "type": "function"
    },
    {
      "inputs": [],
      "name": "owner",
      "outputs": [
        {
          "internalType": "address",
          "name": "",
          "type": "address"
        }
      ],
      "stateMutability": "view",
      "type": "function"
    },
    {
      "inputs": [],
      "name": "renounceOwnership",
      "outputs": [],
      "stateMutability": "nonpayable",
      "type": "function"
    },
    {
      "inputs": [
        {
          "internalType": "uint256",
          "name": "NFTId",
          "type": "uint256"
        },
        {
          "internalType": "bool",
          "name": "_available",
          "type": "bool"
        }
      ],
      "name": "setAvailableOfNFTId",
      "outputs": [],
      "stateMutability": "nonpayable",
      "type": "function"
    },
    {
      "inputs": [
        {
          "internalType": "address",
          "name": "_kycnftContractAddr",
          "type": "address"
        }
      ],
      "name": "setKYCNFTContractAddress",
      "outputs": [],
      "stateMutability": "nonpayable",
      "type": "function"
    },
    {
      "inputs": [
        {
          "internalType": "address",
          "name": "newOwner",
          "type": "address"
        }
      ],
      "name": "transferOwnership",
      "outputs": [],
      "stateMutability": "nonpayable",
      "type": "function"
    },
    {
      "inputs": [
        {
          "internalType": "bytes32",
          "name": "newMerkleRoot",
          "type": "bytes32"
        }
      ],
      "name": "updateMerkleRoot",
      "outputs": [],
      "stateMutability": "nonpayable",
      "type": "function"
    },
    {
      "inputs": [
        {
          "internalType": "address",
          "name": "managerAddr",
          "type": "address"
        }
      ],
      "name": "userDataOfManager",
      "outputs": [
        {
          "components": [
            {
              "internalType": "uint256",
              "name": "NFTId",
              "type": "uint256"
            },
            {
              "internalType": "bytes32",
              "name": "merkleRoot",
              "type": "bytes32"
            }
          ],
          "internalType": "struct KYCManager.UserData",
          "name": "",
          "type": "tuple"
        }
      ],
      "stateMutability": "view",
      "type": "function"
    },
    {
      "inputs": [
        {
          "internalType": "uint256",
          "name": "NFTId",
          "type": "uint256"
        }
      ],
      "name": "userDataOfNFTId",
      "outputs": [
        {
          "components": [
            {
              "internalType": "uint256",
              "name": "NFTId",
              "type": "uint256"
            },
            {
              "internalType": "bytes32",
              "name": "merkleRoot",
              "type": "bytes32"
            }
          ],
          "internalType": "struct KYCManager.UserData",
          "name": "",
          "type": "tuple"
        }
      ],
      "stateMutability": "view",
      "type": "function"
    },
    {
      "inputs": [
        {
          "internalType": "bytes32",
          "name": "leaf",
          "type": "bytes32"
        },
        {
          "internalType": "bytes32[]",
          "name": "proof",
          "type": "bytes32[]"
        },
        {
          "internalType": "uint256[]",
          "name": "positions",
          "type": "uint256[]"
        },
        {
          "internalType": "uint256",
          "name": "NFTId",
          "type": "uint256"
        }
      ],
      "name": "verifyKYCAuthProof",
      "outputs": [
        {
          "internalType": "bool",
          "name": "",
          "type": "bool"
        }
      ],
      "stateMutability": "view",
      "type": "function"
    },
    {
      "inputs": [
        {
          "internalType": "bytes32",
          "name": "root",
          "type": "bytes32"
        },
        {
          "internalType": "bytes32",
          "name": "leaf",
          "type": "bytes32"
        },
        {
          "internalType": "bytes32[]",
          "name": "proof",
          "type": "bytes32[]"
        },
        {
          "internalType": "uint256[]",
          "name": "positions",
          "type": "uint256[]"
        }
      ],
      "name": "verifyMerkleProof",
      "outputs": [
        {
          "internalType": "bool",
          "name": "",
          "type": "bool"
        }
      ],
      "stateMutability": "pure",
      "type": "function"
    },
    {
      "inputs": [
        {
          "internalType": "bytes32",
          "name": "leaf",
          "type": "bytes32"
        },
        {
          "internalType": "bytes32[]",
          "name": "proof",
          "type": "bytes32[]"
        },
        {
          "internalType": "uint256[]",
          "name": "positions",
          "type": "uint256[]"
        }
      ],
      "name": "verifyMerkleProof2",
      "outputs": [
        {
          "internalType": "bytes32",
          "name": "",
          "type": "bytes32"
        }
      ],
      "stateMutability": "pure",
      "type": "function"
    },
    {
      "stateMutability": "payable",
      "type": "receive"
    }
  ],
  "bytecode": "0x608060405234801561001057600080fd5b5061002d61002261003260201b60201c565b61003a60201b60201c565b6100fe565b600033905090565b60008060009054906101000a900473ffffffffffffffffffffffffffffffffffffffff169050816000806101000a81548173ffffffffffffffffffffffffffffffffffffffff021916908373ffffffffffffffffffffffffffffffffffffffff1602179055508173ffffffffffffffffffffffffffffffffffffffff168173ffffffffffffffffffffffffffffffffffffffff167f8be0079c531659141344cd1fd0a4f28419497f9722a3daafe3b4186f6b6457e060405160405180910390a35050565b6119888061010d6000396000f3fe6080604052600436106101025760003560e01c80639dd5c6ab11610095578063d1933ddd11610064578063d1933ddd14610365578063ee4f06ce1461038e578063f097c289146103cb578063f2fde38b14610408578063fbc2cf13146104315761010c565b80639dd5c6ab14610285578063ab98a679146102c2578063ad575035146102eb578063b2b72bc4146103285761010c565b80634b3cef44116100d15780634b3cef44146101c9578063715018a6146102065780638da5cb5b1461021d578063917b8fd0146102485761010c565b80630e197dc9146101115780631ff4bdf31461014e5780633960a892146101775780634783f0ef146101a05761010c565b3661010c57600080fd5b600080fd5b34801561011d57600080fd5b5061013860048036038101906101339190611350565b61045a565b60405161014591906115b0565b60405180910390f35b34801561015a57600080fd5b50610175600480360381019061017091906110d8565b610484565b005b34801561018357600080fd5b5061019e600480360381019061019991906113a2565b610597565b005b3480156101ac57600080fd5b506101c760048036038101906101c29190611101565b61063c565b005b3480156101d557600080fd5b506101f060048036038101906101eb9190611350565b61068c565b6040516101fd9190611565565b60405180910390f35b34801561021257600080fd5b5061021b6106ce565b005b34801561022957600080fd5b506102326106e2565b60405161023f9190611565565b60405180910390f35b34801561025457600080fd5b5061026f600480360381019061026a9190611350565b61070b565b60405161027c9190611626565b60405180910390f35b34801561029157600080fd5b506102ac60048036038101906102a7919061124e565b6107b7565b6040516102b991906115b0565b60405180910390f35b3480156102ce57600080fd5b506102e960048036038101906102e491906113de565b6108d8565b005b3480156102f757600080fd5b50610312600480360381019061030d91906110d8565b61090f565b60405161031f9190611626565b60405180910390f35b34801561033457600080fd5b5061034f600480360381019061034a91906110d8565b610982565b60405161035c9190611641565b60405180910390f35b34801561037157600080fd5b5061038c600480360381019061038791906112e9565b6109f2565b005b34801561039a57600080fd5b506103b560048036038101906103b0919061112a565b610b5d565b6040516103c291906115cb565b60405180910390f35b3480156103d757600080fd5b506103f260048036038101906103ed91906111b3565b610c7b565b6040516103ff91906115b0565b60405180910390f35b34801561041457600080fd5b5061042f600480360381019061042a91906110d8565b610d3c565b005b34801561043d57600080fd5b50610458600480360381019061045391906110d8565b610dc0565b005b60006004600083815260200190815260200160002060009054906101000a900460ff169050919050565b6000600360003373ffffffffffffffffffffffffffffffffffffffff1673ffffffffffffffffffffffffffffffffffffffff16815260200190815260200160002060405180604001604052908160008201548152602001600182015481525050905080600360008473ffffffffffffffffffffffffffffffffffffffff1673ffffffffffffffffffffffffffffffffffffffff168152602001908152602001600020600082015181600001556020820151816001015590505081600260008360000151815260200190815260200160002060006101000a81548173ffffffffffffffffffffffffffffffffffffffff021916908373ffffffffffffffffffffffffffffffffffffffff1602179055505050565b61059f610e0c565b806002600084815260200190815260200160002060006101000a81548173ffffffffffffffffffffffffffffffffffffffff021916908373ffffffffffffffffffffffffffffffffffffffff16021790555081600360008373ffffffffffffffffffffffffffffffffffffffff1673ffffffffffffffffffffffffffffffffffffffff168152602001908152602001600020600001819055505050565b6000600360003373ffffffffffffffffffffffffffffffffffffffff1673ffffffffffffffffffffffffffffffffffffffff16815260200190815260200160002090508181600101819055505050565b6000806002600084815260200190815260200160002060009054906101000a900473ffffffffffffffffffffffffffffffffffffffff16905080915050919050565b6106d6610e0c565b6106e06000610e8a565b565b60008060009054906101000a900473ffffffffffffffffffffffffffffffffffffffff16905090565b610713610f56565b60006002600084815260200190815260200160002060009054906101000a900473ffffffffffffffffffffffffffffffffffffffff1690506000600360008373ffffffffffffffffffffffffffffffffffffffff1673ffffffffffffffffffffffffffffffffffffffff1681526020019081526020016000206040518060400160405290816000820154815260200160018201548152505090508092505050919050565b60008086905060005b868690508110156108c7576000878783818110610806577f4e487b7100000000000000000000000000000000000000000000000000000000600052603260045260246000fd5b905060200201359050600186868481811061084a577f4e487b7100000000000000000000000000000000000000000000000000000000600052603260045260246000fd5b90506020020135141561088757828160405160200161086a929190611539565b6040516020818303038152906040528051906020012092506108b3565b808360405160200161089a929190611539565b6040516020818303038152906040528051906020012092505b5080806108bf906117bc565b9150506107c0565b508781149150509695505050505050565b6108e0610e0c565b806004600084815260200190815260200160002060006101000a81548160ff0219169083151502179055505050565b610917610f56565b6000600360008473ffffffffffffffffffffffffffffffffffffffff1673ffffffffffffffffffffffffffffffffffffffff16815260200190815260200160002060405180604001604052908160008201548152602001600182015481525050905080915050919050565b600080600360008473ffffffffffffffffffffffffffffffffffffffff1673ffffffffffffffffffffffffffffffffffffffff1681526020019081526020016000206040518060400160405290816000820154815260200160018201548152505090508060000151915050919050565b6109fa610e0c565b60003090506000600160009054906101000a900473ffffffffffffffffffffffffffffffffffffffff1673ffffffffffffffffffffffffffffffffffffffff1663cf37834383876040518363ffffffff1660e01b8152600401610a5e929190611580565b602060405180830381600087803b158015610a7857600080fd5b505af1158015610a8c573d6000803e3d6000fd5b505050506040513d601f19601f82011682018060405250810190610ab09190611379565b9050600160009054906101000a900473ffffffffffffffffffffffffffffffffffffffff1673ffffffffffffffffffffffffffffffffffffffff1663e1b2e97982856040518363ffffffff1660e01b8152600401610b0f92919061165c565b600060405180830381600087803b158015610b2957600080fd5b505af1158015610b3d573d6000803e3d6000fd5b50505050610b4c8160016108d8565b610b568185610597565b5050505050565b60008086905060005b86869050811015610c6d576000878783818110610bac577f4e487b7100000000000000000000000000000000000000000000000000000000600052603260045260246000fd5b9050602002013590506001868684818110610bf0577f4e487b7100000000000000000000000000000000000000000000000000000000600052603260045260246000fd5b905060200201351415610c2d578281604051602001610c10929190611539565b604051602081830303815290604052805190602001209250610c59565b8083604051602001610c40929190611539565b6040516020818303038152906040528051906020012092505b508080610c65906117bc565b915050610b66565b508091505095945050505050565b6000806002600084815260200190815260200160002060009054906101000a900473ffffffffffffffffffffffffffffffffffffffff1690506000600360008373ffffffffffffffffffffffffffffffffffffffff1673ffffffffffffffffffffffffffffffffffffffff1681526020019081526020016000206040518060400160405290816000820154815260200160018201548152505090506000610d2a82602001518b8b8b8b8b6107b7565b90508093505050509695505050505050565b610d44610e0c565b600073ffffffffffffffffffffffffffffffffffffffff168173ffffffffffffffffffffffffffffffffffffffff161415610db4576040517f08c379a0000000000000000000000000000000000000000000000000000000008152600401610dab906115e6565b60405180910390fd5b610dbd81610e8a565b50565b610dc8610e0c565b80600160006101000a81548173ffffffffffffffffffffffffffffffffffffffff021916908373ffffffffffffffffffffffffffffffffffffffff16021790555050565b610e14610f4e565b73ffffffffffffffffffffffffffffffffffffffff16610e326106e2565b73ffffffffffffffffffffffffffffffffffffffff1614610e88576040517f08c379a0000000000000000000000000000000000000000000000000000000008152600401610e7f90611606565b60405180910390fd5b565b60008060009054906101000a900473ffffffffffffffffffffffffffffffffffffffff169050816000806101000a81548173ffffffffffffffffffffffffffffffffffffffff021916908373ffffffffffffffffffffffffffffffffffffffff1602179055508173ffffffffffffffffffffffffffffffffffffffff168173ffffffffffffffffffffffffffffffffffffffff167f8be0079c531659141344cd1fd0a4f28419497f9722a3daafe3b4186f6b6457e060405160405180910390a35050565b600033905090565b604051806040016040528060008152602001600080191681525090565b6000610f86610f81846116aa565b611685565b905082815260208101848484011115610f9e57600080fd5b610fa9848285611749565b509392505050565b600081359050610fc0816118f6565b92915050565b60008083601f840112610fd857600080fd5b8235905067ffffffffffffffff811115610ff157600080fd5b60208301915083602082028301111561100957600080fd5b9250929050565b60008083601f84011261102257600080fd5b8235905067ffffffffffffffff81111561103b57600080fd5b60208301915083602082028301111561105357600080fd5b9250929050565b6000813590506110698161190d565b92915050565b60008135905061107e81611924565b92915050565b600082601f83011261109557600080fd5b81356110a5848260208601610f73565b91505092915050565b6000813590506110bd8161193b565b92915050565b6000815190506110d28161193b565b92915050565b6000602082840312156110ea57600080fd5b60006110f884828501610fb1565b91505092915050565b60006020828403121561111357600080fd5b60006111218482850161106f565b91505092915050565b60008060008060006060868803121561114257600080fd5b60006111508882890161106f565b955050602086013567ffffffffffffffff81111561116d57600080fd5b61117988828901610fc6565b9450945050604086013567ffffffffffffffff81111561119857600080fd5b6111a488828901611010565b92509250509295509295909350565b600080600080600080608087890312156111cc57600080fd5b60006111da89828a0161106f565b965050602087013567ffffffffffffffff8111156111f757600080fd5b61120389828a01610fc6565b9550955050604087013567ffffffffffffffff81111561122257600080fd5b61122e89828a01611010565b9350935050606061124189828a016110ae565b9150509295509295509295565b6000806000806000806080878903121561126757600080fd5b600061127589828a0161106f565b965050602061128689828a0161106f565b955050604087013567ffffffffffffffff8111156112a357600080fd5b6112af89828a01610fc6565b9450945050606087013567ffffffffffffffff8111156112ce57600080fd5b6112da89828a01611010565b92509250509295509295509295565b6000806000606084860312156112fe57600080fd5b600084013567ffffffffffffffff81111561131857600080fd5b61132486828701611084565b935050602061133586828701610fb1565b9250506040611346868287016110ae565b9150509250925092565b60006020828403121561136257600080fd5b6000611370848285016110ae565b91505092915050565b60006020828403121561138b57600080fd5b6000611399848285016110c3565b91505092915050565b600080604083850312156113b557600080fd5b60006113c3858286016110ae565b92505060206113d485828601610fb1565b9150509250929050565b600080604083850312156113f157600080fd5b60006113ff858286016110ae565b92505060206114108582860161105a565b9150509250929050565b611423816116f7565b82525050565b61143281611709565b82525050565b61144181611715565b82525050565b61145081611715565b82525050565b61146761146282611715565b611805565b82525050565b6000611478826116db565b61148281856116e6565b9350611492818560208601611758565b61149b8161186d565b840191505092915050565b60006114b36026836116e6565b91506114be8261187e565b604082019050919050565b60006114d66020836116e6565b91506114e1826118cd565b602082019050919050565b604082016000820151611502600085018261151b565b5060208201516115156020850182611438565b50505050565b6115248161173f565b82525050565b6115338161173f565b82525050565b60006115458285611456565b6020820191506115558284611456565b6020820191508190509392505050565b600060208201905061157a600083018461141a565b92915050565b6000604082019050611595600083018561141a565b81810360208301526115a7818461146d565b90509392505050565b60006020820190506115c56000830184611429565b92915050565b60006020820190506115e06000830184611447565b92915050565b600060208201905081810360008301526115ff816114a6565b9050919050565b6000602082019050818103600083015261161f816114c9565b9050919050565b600060408201905061163b60008301846114ec565b92915050565b6000602082019050611656600083018461152a565b92915050565b6000604082019050611671600083018561152a565b61167e602083018461152a565b9392505050565b600061168f6116a0565b905061169b828261178b565b919050565b6000604051905090565b600067ffffffffffffffff8211156116c5576116c461183e565b5b6116ce8261186d565b9050602081019050919050565b600081519050919050565b600082825260208201905092915050565b60006117028261171f565b9050919050565b60008115159050919050565b6000819050919050565b600073ffffffffffffffffffffffffffffffffffffffff82169050919050565b6000819050919050565b82818337600083830152505050565b60005b8381101561177657808201518184015260208101905061175b565b83811115611785576000848401525b50505050565b6117948261186d565b810181811067ffffffffffffffff821117156117b3576117b261183e565b5b80604052505050565b60006117c78261173f565b91507fffffffffffffffffffffffffffffffffffffffffffffffffffffffffffffffff8214156117fa576117f961180f565b5b600182019050919050565b6000819050919050565b7f4e487b7100000000000000000000000000000000000000000000000000000000600052601160045260246000fd5b7f4e487b7100000000000000000000000000000000000000000000000000000000600052604160045260246000fd5b6000601f19601f8301169050919050565b7f4f776e61626c653a206e6577206f776e657220697320746865207a65726f206160008201527f6464726573730000000000000000000000000000000000000000000000000000602082015250565b7f4f776e61626c653a2063616c6c6572206973206e6f7420746865206f776e6572600082015250565b6118ff816116f7565b811461190a57600080fd5b50565b61191681611709565b811461192157600080fd5b50565b61192d81611715565b811461193857600080fd5b50565b6119448161173f565b811461194f57600080fd5b5056fea2646970667358221220121c03f58502d6bd5225b9ce5e5f85c6643df5f6b4f9cd51082d33b59a323a5064736f6c63430008040033",
  "linkReferences": {},
  "deployedLinkReferences": {}
}