{
  "_format": "hh-sol-artifact-1",
  "contractName": "IDNFT",
  "sourceName": "contracts/IDNFT.sol",
  "abi": [
    {
      "inputs": [],
      "stateMutability": "nonpayable",
      "type": "constructor"
    },
    {
      "anonymous": false,
      "inputs": [
        {
          "indexed": true,
          "internalType": "address",
          "name": "owner",
          "type": "address"
        },
        {
          "indexed": true,
          "internalType": "address",
          "name": "approved",
          "type": "address"
        },
        {
          "indexed": true,
          "internalType": "uint256",
          "name": "tokenId",
          "type": "uint256"
        }
      ],
      "name": "Approval",
      "type": "event"
    },
    {
      "anonymous": false,
      "inputs": [
        {
          "indexed": true,
          "internalType": "address",
          "name": "owner",
          "type": "address"
        },
        {
          "indexed": true,
          "internalType": "address",
          "name": "operator",
          "type": "address"
        },
        {
          "indexed": false,
          "internalType": "bool",
          "name": "approved",
          "type": "bool"
        }
      ],
      "name": "ApprovalForAll",
      "type": "event"
    },
    {
      "anonymous": false,
      "inputs": [
        {
          "indexed": true,
          "internalType": "address",
          "name": "previousOwner",
          "type": "address"
        },
        {
          "indexed": true,
          "internalType": "address",
          "name": "newOwner",
          "type": "address"
        }
      ],
      "name": "OwnershipTransferred",
      "type": "event"
    },
    {
      "anonymous": false,
      "inputs": [
        {
          "indexed": true,
          "internalType": "address",
          "name": "from",
          "type": "address"
        },
        {
          "indexed": true,
          "internalType": "address",
          "name": "to",
          "type": "address"
        },
        {
          "indexed": true,
          "internalType": "uint256",
          "name": "tokenId",
          "type": "uint256"
        }
      ],
      "name": "Transfer",
      "type": "event"
    },
    {
      "stateMutability": "payable",
      "type": "fallback"
    },
    {
      "inputs": [
        {
          "internalType": "address",
          "name": "managerAddr",
          "type": "address"
        }
      ],
      "name": "NFTIdOfManager",
      "outputs": [
        {
          "internalType": "uint256",
          "name": "",
          "type": "uint256"
        }
      ],
      "stateMutability": "view",
      "type": "function"
    },
    {
      "inputs": [
        {
          "internalType": "uint256",
          "name": "",
          "type": "uint256"
        }
      ],
      "name": "NFTIdToExpirationTime",
      "outputs": [
        {
          "internalType": "uint256",
          "name": "",
          "type": "uint256"
        }
      ],
      "stateMutability": "view",
      "type": "function"
    },
    {
      "inputs": [
        {
          "internalType": "address",
          "name": "to",
          "type": "address"
        },
        {
          "internalType": "uint256",
          "name": "tokenId",
          "type": "uint256"
        }
      ],
      "name": "approve",
      "outputs": [],
      "stateMutability": "nonpayable",
      "type": "function"
    },
    {
      "inputs": [],
      "name": "approveOwner",
      "outputs": [],
      "stateMutability": "nonpayable",
      "type": "function"
    },
    {
      "inputs": [
        {
          "internalType": "uint256",
          "name": "NFTId",
          "type": "uint256"
        }
      ],
      "name": "availableOfNFTId",
      "outputs": [
        {
          "internalType": "bool",
          "name": "",
          "type": "bool"
        }
      ],
      "stateMutability": "view",
      "type": "function"
    },
    {
      "inputs": [
        {
          "internalType": "address",
          "name": "owner",
          "type": "address"
        }
      ],
      "name": "balanceOf",
      "outputs": [
        {
          "internalType": "uint256",
          "name": "",
          "type": "uint256"
        }
      ],
      "stateMutability": "view",
      "type": "function"
    },
    {
      "inputs": [
        {
          "internalType": "uint256",
          "name": "NFTId",
          "type": "uint256"
        }
      ],
      "name": "expirationTimeOfNFTId",
      "outputs": [
        {
          "internalType": "uint256",
          "name": "",
          "type": "uint256"
        }
      ],
      "stateMutability": "view",
      "type": "function"
    },
    {
      "inputs": [
        {
          "internalType": "uint256",
          "name": "tokenId",
          "type": "uint256"
        }
      ],
      "name": "getApproved",
      "outputs": [
        {
          "internalType": "address",
          "name": "",
          "type": "address"
        }
      ],
      "stateMutability": "view",
      "type": "function"
    },
    {
      "inputs": [
        {
          "internalType": "address",
          "name": "owner",
          "type": "address"
        },
        {
          "internalType": "address",
          "name": "operator",
          "type": "address"
        }
      ],
      "name": "isApprovedForAll",
      "outputs": [
        {
          "internalType": "bool",
          "name": "",
          "type": "bool"
        }
      ],
      "stateMutability": "view",
      "type": "function"
    },
    {
      "inputs": [
        {
          "internalType": "address",
          "name": "account",
          "type": "address"
        }
      ],
      "name": "isContract",
      "outputs": [
        {
          "internalType": "bool",
          "name": "",
          "type": "bool"
        }
      ],
      "stateMutability": "view",
      "type": "function"
    },
    {
      "inputs": [
        {
          "internalType": "uint256",
          "name": "NFTId",
          "type": "uint256"
        }
      ],
      "name": "managerOfNFTId",
      "outputs": [
        {
          "internalType": "address",
          "name": "",
          "type": "address"
        }
      ],
      "stateMutability": "view",
      "type": "function"
    },
    {
      "inputs": [
        {
          "internalType": "address",
          "name": "to",
          "type": "address"
        },
        {
          "internalType": "string",
          "name": "tokenURI",
          "type": "string"
        },
        {
          "internalType": "uint256",
          "name": "expirationTime",
          "type": "uint256"
        }
      ],
      "name": "mintIDNFT",
      "outputs": [],
      "stateMutability": "nonpayable",
      "type": "function"
    },
    {
      "inputs": [
        {
          "internalType": "address",
          "name": "oldAdmin",
          "type": "address"
        },
        {
          "internalType": "address",
          "name": "newAdmin",
          "type": "address"
        }
      ],
      "name": "modifyAdminAddr",
      "outputs": [],
      "stateMutability": "nonpayable",
      "type": "function"
    },
    {
      "inputs": [],
      "name": "name",
      "outputs": [
        {
          "internalType": "string",
          "name": "",
          "type": "string"
        }
      ],
      "stateMutability": "view",
      "type": "function"
    },
    {
      "inputs": [],
      "name": "owner",
      "outputs": [
        {
          "internalType": "address",
          "name": "",
          "type": "address"
        }
      ],
      "stateMutability": "view",
      "type": "function"
    },
    {
      "inputs": [
        {
          "internalType": "uint256",
          "name": "tokenId",
          "type": "uint256"
        }
      ],
      "name": "ownerOf",
      "outputs": [
        {
          "internalType": "address",
          "name": "",
          "type": "address"
        }
      ],
      "stateMutability": "view",
      "type": "function"
    },
    {
      "inputs": [],
      "name": "renounceOwnership",
      "outputs": [],
      "stateMutability": "nonpayable",
      "type": "function"
    },
    {
      "inputs": [
        {
          "internalType": "address",
          "name": "from",
          "type": "address"
        },
        {
          "internalType": "address",
          "name": "to",
          "type": "address"
        },
        {
          "internalType": "uint256",
          "name": "tokenId",
          "type": "uint256"
        }
      ],
      "name": "safeTransferFrom",
      "outputs": [],
      "stateMutability": "nonpayable",
      "type": "function"
    },
    {
      "inputs": [
        {
          "internalType": "address",
          "name": "from",
          "type": "address"
        },
        {
          "internalType": "address",
          "name": "to",
          "type": "address"
        },
        {
          "internalType": "uint256",
          "name": "tokenId",
          "type": "uint256"
        },
        {
          "internalType": "bytes",
          "name": "data",
          "type": "bytes"
        }
      ],
      "name": "safeTransferFrom",
      "outputs": [],
      "stateMutability": "nonpayable",
      "type": "function"
    },
    {
      "inputs": [
        {
          "internalType": "address",
          "name": "operator",
          "type": "address"
        },
        {
          "internalType": "bool",
          "name": "approved",
          "type": "bool"
        }
      ],
      "name": "setApprovalForAll",
      "outputs": [],
      "stateMutability": "nonpayable",
      "type": "function"
    },
    {
      "inputs": [
        {
          "internalType": "bytes4",
          "name": "interfaceId",
          "type": "bytes4"
        }
      ],
      "name": "supportsInterface",
      "outputs": [
        {
          "internalType": "bool",
          "name": "",
          "type": "bool"
        }
      ],
      "stateMutability": "view",
      "type": "function"
    },
    {
      "inputs": [],
      "name": "symbol",
      "outputs": [
        {
          "internalType": "string",
          "name": "",
          "type": "string"
        }
      ],
      "stateMutability": "view",
      "type": "function"
    },
    {
      "inputs": [
        {
          "internalType": "uint256",
          "name": "tokenId",
          "type": "uint256"
        }
      ],
      "name": "tokenURI",
      "outputs": [
        {
          "internalType": "string",
          "name": "",
          "type": "string"
        }
      ],
      "stateMutability": "view",
      "type": "function"
    },
    {
      "inputs": [
        {
          "internalType": "address",
          "name": "from",
          "type": "address"
        },
        {
          "internalType": "address",
          "name": "to",
          "type": "address"
        },
        {
          "internalType": "uint256",
          "name": "tokenId",
          "type": "uint256"
        }
      ],
      "name": "transferFrom",
      "outputs": [],
      "stateMutability": "nonpayable",
      "type": "function"
    },
    {
      "inputs": [
        {
          "internalType": "address",
          "name": "newOwner",
          "type": "address"
        }
      ],
      "name": "transferOwnership",
      "outputs": [],
      "stateMutability": "nonpayable",
      "type": "function"
    },
    {
      "inputs": [
        {
          "internalType": "uint256",
          "name": "NFTId",
          "type": "uint256"
        },
        {
          "internalType": "bool",
          "name": "approveOrLock",
          "type": "bool"
        }
      ],
      "name": "unlockIDNFT",
      "outputs": [],
      "stateMutability": "nonpayable",
      "type": "function"
    },
    {
      "inputs": [
        {
          "internalType": "string",
          "name": "_acc",
          "type": "string"
        },
        {
          "internalType": "string",
          "name": "_n",
          "type": "string"
        },
        {
          "internalType": "uint256",
          "name": "_g",
          "type": "uint256"
        }
      ],
      "name": "updateAccumulator",
      "outputs": [],
      "stateMutability": "nonpayable",
      "type": "function"
    },
    {
      "inputs": [
        {
          "internalType": "uint256",
          "name": "NFTId",
          "type": "uint256"
        },
        {
          "internalType": "uint256",
          "name": "timestamp",
          "type": "uint256"
        }
      ],
      "name": "updateExpirationTime",
      "outputs": [],
      "stateMutability": "nonpayable",
      "type": "function"
    },
    {
      "inputs": [
        {
          "internalType": "bytes32",
          "name": "_hashOfXpub",
          "type": "bytes32"
        }
      ],
      "name": "updateXupb",
      "outputs": [],
      "stateMutability": "nonpayable",
      "type": "function"
    },
    {
      "inputs": [
        {
          "internalType": "address",
          "name": "managerAddr",
          "type": "address"
        }
      ],
      "name": "userDataOfManager",
      "outputs": [
        {
          "components": [
            {
              "internalType": "uint256",
              "name": "NFTId",
              "type": "uint256"
            },
            {
              "internalType": "uint256",
              "name": "g",
              "type": "uint256"
            },
            {
              "internalType": "bytes32",
              "name": "hashOfXpub",
              "type": "bytes32"
            },
            {
              "internalType": "string",
              "name": "acc",
              "type": "string"
            },
            {
              "internalType": "string",
              "name": "n",
              "type": "string"
            }
          ],
          "internalType": "struct IDNFT.UserData",
          "name": "",
          "type": "tuple"
        }
      ],
      "stateMutability": "view",
      "type": "function"
    },
    {
      "inputs": [
        {
          "internalType": "uint256",
          "name": "NFTId",
          "type": "uint256"
        }
      ],
      "name": "userDataOfNFTId",
      "outputs": [
        {
          "components": [
            {
              "internalType": "uint256",
              "name": "NFTId",
              "type": "uint256"
            },
            {
              "internalType": "uint256",
              "name": "g",
              "type": "uint256"
            },
            {
              "internalType": "bytes32",
              "name": "hashOfXpub",
              "type": "bytes32"
            },
            {
              "internalType": "string",
              "name": "acc",
              "type": "string"
            },
            {
              "internalType": "string",
              "name": "n",
              "type": "string"
            }
          ],
          "internalType": "struct IDNFT.UserData",
          "name": "",
          "type": "tuple"
        }
      ],
      "stateMutability": "view",
      "type": "function"
    },
    {
      "stateMutability": "payable",
      "type": "receive"
    }
  ],
  "bytecode": "0x60806040523480156200001157600080fd5b506040518060400160405280600581526020017f49444e46540000000000000000000000000000000000000000000000000000008152506040518060400160405280600581526020017f49444e46540000000000000000000000000000000000000000000000000000008152506200009e62000092620000d860201b60201c565b620000e060201b60201c565b8160019080519060200190620000b6929190620001a4565b508060029080519060200190620000cf929190620001a4565b505050620002b9565b600033905090565b60008060009054906101000a900473ffffffffffffffffffffffffffffffffffffffff169050816000806101000a81548173ffffffffffffffffffffffffffffffffffffffff021916908373ffffffffffffffffffffffffffffffffffffffff1602179055508173ffffffffffffffffffffffffffffffffffffffff168173ffffffffffffffffffffffffffffffffffffffff167f8be0079c531659141344cd1fd0a4f28419497f9722a3daafe3b4186f6b6457e060405160405180910390a35050565b828054620001b29062000254565b90600052602060002090601f016020900481019282620001d6576000855562000222565b82601f10620001f157805160ff191683800117855562000222565b8280016001018555821562000222579182015b828111156200022157825182559160200191906001019062000204565b5b50905062000231919062000235565b5090565b5b808211156200025057600081600090555060010162000236565b5090565b600060028204905060018216806200026d57607f821691505b602082108114156200028457620002836200028a565b5b50919050565b7f4e487b7100000000000000000000000000000000000000000000000000000000600052602260045260246000fd5b613f2480620002c96000396000f3fe6080604052600436106101dc5760003560e01c80638da5cb5b11610102578063bafdee1411610095578063e40ae8b211610064578063e40ae8b214610736578063e985e9c51461074d578063f2fde38b1461078a578063fe759181146107b3576101e6565b8063bafdee141461067e578063c87b56dd146106a7578063e1b2e979146106e4578063e3d742431461070d576101e6565b8063ad575035116100d1578063ad575035146105b2578063b2b72bc4146105ef578063b88d4fde1461062c578063b9f46e5514610655576101e6565b80638da5cb5b146104f6578063917b8fd01461052157806395d89b411461055e578063a22cb46514610589576101e6565b80633c10bdc81161017a5780635005490e116101495780635005490e146104285780636352211e1461046557806370a08231146104a2578063715018a6146104df576101e6565b80633c10bdc81461035c57806342842e0e146103855780634843f148146103ae5780634b3cef44146103eb576101e6565b8063095ea7b3116101b6578063095ea7b3146102905780630e197dc9146102b957806316279055146102f657806323b872dd14610333576101e6565b806301ffc9a7146101eb57806306fdde0314610228578063081812fc14610253576101e6565b366101e657600080fd5b600080fd5b3480156101f757600080fd5b50610212600480360381019061020d9190612db8565b6107dc565b60405161021f91906133ac565b60405180910390f35b34801561023457600080fd5b5061023d6108be565b60405161024a91906133c7565b60405180910390f35b34801561025f57600080fd5b5061027a60048036038101906102759190612e89565b610950565b6040516102879190613345565b60405180910390f35b34801561029c57600080fd5b506102b760048036038101906102b29190612d53565b610996565b005b3480156102c557600080fd5b506102e060048036038101906102db9190612e89565b610aae565b6040516102ed91906133ac565b60405180910390f35b34801561030257600080fd5b5061031d60048036038101906103189190612b81565b610ad8565b60405161032a91906133ac565b60405180910390f35b34801561033f57600080fd5b5061035a60048036038101906103559190612be6565b610b23565b005b34801561036857600080fd5b50610383600480360381019061037e9190612eb2565b610b83565b005b34801561039157600080fd5b506103ac60048036038101906103a79190612be6565b610bba565b005b3480156103ba57600080fd5b506103d560048036038101906103d09190612e89565b610bda565b6040516103e2919061362b565b60405180910390f35b3480156103f757600080fd5b50610412600480360381019061040d9190612e89565b610bf7565b60405161041f9190613345565b60405180910390f35b34801561043457600080fd5b5061044f600480360381019061044a9190612e89565b610c0e565b60405161045c919061362b565b60405180910390f35b34801561047157600080fd5b5061048c60048036038101906104879190612e89565b610c26565b6040516104999190613345565b60405180910390f35b3480156104ae57600080fd5b506104c960048036038101906104c49190612b81565b610cd8565b6040516104d6919061362b565b60405180910390f35b3480156104eb57600080fd5b506104f4610d90565b005b34801561050257600080fd5b5061050b610da4565b6040516105189190613345565b60405180910390f35b34801561052d57600080fd5b5061054860048036038101906105439190612e89565b610dcd565b6040516105559190613609565b60405180910390f35b34801561056a57600080fd5b50610573610f7c565b60405161058091906133c7565b60405180910390f35b34801561059557600080fd5b506105b060048036038101906105ab9190612cb0565b61100e565b005b3480156105be57600080fd5b506105d960048036038101906105d49190612b81565b611024565b6040516105e69190613609565b60405180910390f35b3480156105fb57600080fd5b5061061660048036038101906106119190612b81565b6111c5565b604051610623919061362b565b60405180910390f35b34801561063857600080fd5b50610653600480360381019061064e9190612c35565b611363565b005b34801561066157600080fd5b5061067c60048036038101906106779190612d8f565b6113c5565b005b34801561068a57600080fd5b506106a560048036038101906106a09190612e0a565b611415565b005b3480156106b357600080fd5b506106ce60048036038101906106c99190612e89565b611499565b6040516106db91906133c7565b60405180910390f35b3480156106f057600080fd5b5061070b60048036038101906107069190612eee565b6115ac565b005b34801561071957600080fd5b50610734600480360381019061072f9190612cec565b6115e6565b005b34801561074257600080fd5b5061074b61167c565b005b34801561075957600080fd5b50610774600480360381019061076f9190612baa565b611690565b60405161078191906133ac565b60405180910390f35b34801561079657600080fd5b506107b160048036038101906107ac9190612b81565b611724565b005b3480156107bf57600080fd5b506107da60048036038101906107d59190612baa565b6117a8565b005b60007f80ac58cd000000000000000000000000000000000000000000000000000000007bffffffffffffffffffffffffffffffffffffffffffffffffffffffff1916827bffffffffffffffffffffffffffffffffffffffffffffffffffffffff191614806108a757507f5b5e139f000000000000000000000000000000000000000000000000000000007bffffffffffffffffffffffffffffffffffffffffffffffffffffffff1916827bffffffffffffffffffffffffffffffffffffffffffffffffffffffff1916145b806108b757506108b682611a8e565b5b9050919050565b6060600180546108cd9061389c565b80601f01602080910402602001604051908101604052809291908181526020018280546108f99061389c565b80156109465780601f1061091b57610100808354040283529160200191610946565b820191906000526020600020905b81548152906001019060200180831161092957829003601f168201915b5050505050905090565b600061095b82611af8565b6005600083815260200190815260200160002060009054906101000a900473ffffffffffffffffffffffffffffffffffffffff169050919050565b60006109a182610c26565b90508073ffffffffffffffffffffffffffffffffffffffff168373ffffffffffffffffffffffffffffffffffffffff161415610a12576040517f08c379a0000000000000000000000000000000000000000000000000000000008152600401610a09906135a9565b60405180910390fd5b8073ffffffffffffffffffffffffffffffffffffffff16610a31611b43565b73ffffffffffffffffffffffffffffffffffffffff161480610a605750610a5f81610a5a611b43565b611690565b5b610a9f576040517f08c379a0000000000000000000000000000000000000000000000000000000008152600401610a9690613529565b60405180910390fd5b610aa98383611b4b565b505050565b6000600b600083815260200190815260200160002060009054906101000a900460ff169050919050565b6000807fc5d2460186f7233c927e7db2dcc703c0e500b653ca82273b7bfad8045d85a47060001b90506000833f9050818114158015610b1a57506000801b8114155b92505050919050565b610b34610b2e611b43565b82611c04565b610b73576040517f08c379a0000000000000000000000000000000000000000000000000000000008152600401610b6a906135e9565b60405180910390fd5b610b7e838383611c99565b505050565b610b8b611f00565b80600b600084815260200190815260200160002060006101000a81548160ff0219169083151502179055505050565b610bd583838360405180602001604052806000815250611363565b505050565b600060096000838152602001908152602001600020549050919050565b600080610c0383610c26565b905080915050919050565b60096020528060005260406000206000915090505481565b6000806003600084815260200190815260200160002060009054906101000a900473ffffffffffffffffffffffffffffffffffffffff169050600073ffffffffffffffffffffffffffffffffffffffff168173ffffffffffffffffffffffffffffffffffffffff161415610ccf576040517f08c379a0000000000000000000000000000000000000000000000000000000008152600401610cc690613589565b60405180910390fd5b80915050919050565b60008073ffffffffffffffffffffffffffffffffffffffff168273ffffffffffffffffffffffffffffffffffffffff161415610d49576040517f08c379a0000000000000000000000000000000000000000000000000000000008152600401610d40906134e9565b60405180910390fd5b600460008373ffffffffffffffffffffffffffffffffffffffff1673ffffffffffffffffffffffffffffffffffffffff168152602001908152602001600020549050919050565b610d98611f00565b610da26000611f7e565b565b60008060009054906101000a900473ffffffffffffffffffffffffffffffffffffffff16905090565b610dd561295e565b6000610de083610c26565b90506000600a60008373ffffffffffffffffffffffffffffffffffffffff1673ffffffffffffffffffffffffffffffffffffffff1681526020019081526020016000206040518060a0016040529081600082015481526020016001820154815260200160028201548152602001600382018054610e5c9061389c565b80601f0160208091040260200160405190810160405280929190818152602001828054610e889061389c565b8015610ed55780601f10610eaa57610100808354040283529160200191610ed5565b820191906000526020600020905b815481529060010190602001808311610eb857829003601f168201915b50505050508152602001600482018054610eee9061389c565b80601f0160208091040260200160405190810160405280929190818152602001828054610f1a9061389c565b8015610f675780601f10610f3c57610100808354040283529160200191610f67565b820191906000526020600020905b815481529060010190602001808311610f4a57829003601f168201915b50505050508152505090508092505050919050565b606060028054610f8b9061389c565b80601f0160208091040260200160405190810160405280929190818152602001828054610fb79061389c565b80156110045780601f10610fd957610100808354040283529160200191611004565b820191906000526020600020905b815481529060010190602001808311610fe757829003601f168201915b5050505050905090565b611020611019611b43565b8383612042565b5050565b61102c61295e565b6000600a60008473ffffffffffffffffffffffffffffffffffffffff1673ffffffffffffffffffffffffffffffffffffffff1681526020019081526020016000206040518060a00160405290816000820154815260200160018201548152602001600282015481526020016003820180546110a69061389c565b80601f01602080910402602001604051908101604052809291908181526020018280546110d29061389c565b801561111f5780601f106110f45761010080835404028352916020019161111f565b820191906000526020600020905b81548152906001019060200180831161110257829003601f168201915b505050505081526020016004820180546111389061389c565b80601f01602080910402602001604051908101604052809291908181526020018280546111649061389c565b80156111b15780601f10611186576101008083540402835291602001916111b1565b820191906000526020600020905b81548152906001019060200180831161119457829003601f168201915b505050505081525050905080915050919050565b600080600a60008473ffffffffffffffffffffffffffffffffffffffff1673ffffffffffffffffffffffffffffffffffffffff1681526020019081526020016000206040518060a00160405290816000820154815260200160018201548152602001600282015481526020016003820180546112409061389c565b80601f016020809104026020016040519081016040528092919081815260200182805461126c9061389c565b80156112b95780601f1061128e576101008083540402835291602001916112b9565b820191906000526020600020905b81548152906001019060200180831161129c57829003601f168201915b505050505081526020016004820180546112d29061389c565b80601f01602080910402602001604051908101604052809291908181526020018280546112fe9061389c565b801561134b5780601f106113205761010080835404028352916020019161134b565b820191906000526020600020905b81548152906001019060200180831161132e57829003601f168201915b50505050508152505090508060000151915050919050565b61137461136e611b43565b83611c04565b6113b3576040517f08c379a00000000000000000000000000000000000000000000000000000000081526004016113aa906135e9565b60405180910390fd5b6113bf848484846121af565b50505050565b6000600a60003373ffffffffffffffffffffffffffffffffffffffff1673ffffffffffffffffffffffffffffffffffffffff16815260200190815260200160002090508181600201819055505050565b6000600a60003373ffffffffffffffffffffffffffffffffffffffff1673ffffffffffffffffffffffffffffffffffffffff168152602001908152602001600020905083816003019080519060200190611470929190612990565b5082816004019080519060200190611489929190612990565b5081816001018190555050505050565b60606114a482611af8565b60006007600084815260200190815260200160002080546114c49061389c565b80601f01602080910402602001604051908101604052809291908181526020018280546114f09061389c565b801561153d5780601f106115125761010080835404028352916020019161153d565b820191906000526020600020905b81548152906001019060200180831161152057829003601f168201915b50505050509050600061154e61220b565b90506000815114156115645781925050506115a7565b600082511115611599578082604051602001611581929190613321565b604051602081830303815290604052925050506115a7565b6115a284612222565b925050505b919050565b6115b4611f00565b6115be600861228a565b8211156115ca57600080fd5b8060096000848152602001908152602001600020819055505050565b6115ee611f00565b6115f86008612298565b6000611604600861228a565b905061161084826122ae565b61161a8184612488565b61162481836115ac565b61162f816001610b83565b80600a60008673ffffffffffffffffffffffffffffffffffffffff1673ffffffffffffffffffffffffffffffffffffffff1681526020019081526020016000206000018190555050505050565b61168e611687610da4565b600161100e565b565b6000600660008473ffffffffffffffffffffffffffffffffffffffff1673ffffffffffffffffffffffffffffffffffffffff16815260200190815260200160002060008373ffffffffffffffffffffffffffffffffffffffff1673ffffffffffffffffffffffffffffffffffffffff16815260200190815260200160002060009054906101000a900460ff16905092915050565b61172c611f00565b600073ffffffffffffffffffffffffffffffffffffffff168173ffffffffffffffffffffffffffffffffffffffff16141561179c576040517f08c379a000000000000000000000000000000000000000000000000000000000815260040161179390613409565b60405180910390fd5b6117a581611f7e565b50565b6117b0611f00565b60006117bb82610ad8565b9050600115158115151415611805576040517f08c379a00000000000000000000000000000000000000000000000000000000081526004016117fc90613449565b60405180910390fd5b6000600a60008573ffffffffffffffffffffffffffffffffffffffff1673ffffffffffffffffffffffffffffffffffffffff1681526020019081526020016000206040518060a001604052908160008201548152602001600182015481526020016002820154815260200160038201805461187f9061389c565b80601f01602080910402602001604051908101604052809291908181526020018280546118ab9061389c565b80156118f85780601f106118cd576101008083540402835291602001916118f8565b820191906000526020600020905b8154815290600101906020018083116118db57829003601f168201915b505050505081526020016004820180546119119061389c565b80601f016020809104026020016040519081016040528092919081815260200182805461193d9061389c565b801561198a5780601f1061195f5761010080835404028352916020019161198a565b820191906000526020600020905b81548152906001019060200180831161196d57829003601f168201915b5050505050815250509050600081600001519050600081116119e1576040517f08c379a00000000000000000000000000000000000000000000000000000000081526004016119d8906134c9565b60405180910390fd5b81600a60008673ffffffffffffffffffffffffffffffffffffffff1673ffffffffffffffffffffffffffffffffffffffff1681526020019081526020016000206000820151816000015560208201518160010155604082015181600201556060820151816003019080519060200190611a5b929190612990565b506080820151816004019080519060200190611a78929190612990565b50905050611a87858583610b23565b5050505050565b60007f01ffc9a7000000000000000000000000000000000000000000000000000000007bffffffffffffffffffffffffffffffffffffffffffffffffffffffff1916827bffffffffffffffffffffffffffffffffffffffffffffffffffffffff1916149050919050565b611b01816124fc565b611b40576040517f08c379a0000000000000000000000000000000000000000000000000000000008152600401611b3790613589565b60405180910390fd5b50565b600033905090565b816005600083815260200190815260200160002060006101000a81548173ffffffffffffffffffffffffffffffffffffffff021916908373ffffffffffffffffffffffffffffffffffffffff160217905550808273ffffffffffffffffffffffffffffffffffffffff16611bbe83610c26565b73ffffffffffffffffffffffffffffffffffffffff167f8c5be1e5ebec7d5bd14f71427d1e84f3dd0314c0f7b2291e5b200ac8c7c3b92560405160405180910390a45050565b600080611c1083610c26565b90508073ffffffffffffffffffffffffffffffffffffffff168473ffffffffffffffffffffffffffffffffffffffff161480611c525750611c518185611690565b5b80611c9057508373ffffffffffffffffffffffffffffffffffffffff16611c7884610950565b73ffffffffffffffffffffffffffffffffffffffff16145b91505092915050565b8273ffffffffffffffffffffffffffffffffffffffff16611cb982610c26565b73ffffffffffffffffffffffffffffffffffffffff1614611d0f576040517f08c379a0000000000000000000000000000000000000000000000000000000008152600401611d0690613429565b60405180910390fd5b600073ffffffffffffffffffffffffffffffffffffffff168273ffffffffffffffffffffffffffffffffffffffff161415611d7f576040517f08c379a0000000000000000000000000000000000000000000000000000000008152600401611d7690613489565b60405180910390fd5b611d8a838383612568565b611d95600082611b4b565b6001600460008573ffffffffffffffffffffffffffffffffffffffff1673ffffffffffffffffffffffffffffffffffffffff1681526020019081526020016000206000828254611de591906137a8565b925050819055506001600460008473ffffffffffffffffffffffffffffffffffffffff1673ffffffffffffffffffffffffffffffffffffffff1681526020019081526020016000206000828254611e3c9190613721565b92505081905550816003600083815260200190815260200160002060006101000a81548173ffffffffffffffffffffffffffffffffffffffff021916908373ffffffffffffffffffffffffffffffffffffffff160217905550808273ffffffffffffffffffffffffffffffffffffffff168473ffffffffffffffffffffffffffffffffffffffff167fddf252ad1be2c89b69c2b068fc378daa952ba7f163c4a11628f55a4df523b3ef60405160405180910390a4611efb8383836125ed565b505050565b611f08611b43565b73ffffffffffffffffffffffffffffffffffffffff16611f26610da4565b73ffffffffffffffffffffffffffffffffffffffff1614611f7c576040517f08c379a0000000000000000000000000000000000000000000000000000000008152600401611f7390613569565b60405180910390fd5b565b60008060009054906101000a900473ffffffffffffffffffffffffffffffffffffffff169050816000806101000a81548173ffffffffffffffffffffffffffffffffffffffff021916908373ffffffffffffffffffffffffffffffffffffffff1602179055508173ffffffffffffffffffffffffffffffffffffffff168173ffffffffffffffffffffffffffffffffffffffff167f8be0079c531659141344cd1fd0a4f28419497f9722a3daafe3b4186f6b6457e060405160405180910390a35050565b8173ffffffffffffffffffffffffffffffffffffffff168373ffffffffffffffffffffffffffffffffffffffff1614156120b1576040517f08c379a00000000000000000000000000000000000000000000000000000000081526004016120a8906134a9565b60405180910390fd5b80600660008573ffffffffffffffffffffffffffffffffffffffff1673ffffffffffffffffffffffffffffffffffffffff16815260200190815260200160002060008473ffffffffffffffffffffffffffffffffffffffff1673ffffffffffffffffffffffffffffffffffffffff16815260200190815260200160002060006101000a81548160ff0219169083151502179055508173ffffffffffffffffffffffffffffffffffffffff168373ffffffffffffffffffffffffffffffffffffffff167f17307eab39ab6107e8899845ad3d59bd9653f200f220920489ca2b5937696c31836040516121a291906133ac565b60405180910390a3505050565b6121ba848484611c99565b6121c6848484846125f2565b612205576040517f08c379a00000000000000000000000000000000000000000000000000000000081526004016121fc906133e9565b60405180910390fd5b50505050565b606060405180602001604052806000815250905090565b606061222d82611af8565b600061223761220b565b905060008151116122575760405180602001604052806000815250612282565b8061226184612789565b604051602001612272929190613321565b6040516020818303038152906040525b915050919050565b600081600001549050919050565b6001816000016000828254019250508190555050565b600073ffffffffffffffffffffffffffffffffffffffff168273ffffffffffffffffffffffffffffffffffffffff16141561231e576040517f08c379a000000000000000000000000000000000000000000000000000000000815260040161231590613549565b60405180910390fd5b612327816124fc565b15612367576040517f08c379a000000000000000000000000000000000000000000000000000000000815260040161235e90613469565b60405180910390fd5b61237360008383612568565b6001600460008473ffffffffffffffffffffffffffffffffffffffff1673ffffffffffffffffffffffffffffffffffffffff16815260200190815260200160002060008282546123c39190613721565b92505081905550816003600083815260200190815260200160002060006101000a81548173ffffffffffffffffffffffffffffffffffffffff021916908373ffffffffffffffffffffffffffffffffffffffff160217905550808273ffffffffffffffffffffffffffffffffffffffff16600073ffffffffffffffffffffffffffffffffffffffff167fddf252ad1be2c89b69c2b068fc378daa952ba7f163c4a11628f55a4df523b3ef60405160405180910390a4612484600083836125ed565b5050565b612491826124fc565b6124d0576040517f08c379a00000000000000000000000000000000000000000000000000000000081526004016124c790613509565b60405180910390fd5b806007600084815260200190815260200160002090805190602001906124f7929190612990565b505050565b60008073ffffffffffffffffffffffffffffffffffffffff166003600084815260200190815260200160002060009054906101000a900473ffffffffffffffffffffffffffffffffffffffff1673ffffffffffffffffffffffffffffffffffffffff1614159050919050565b612573838383612936565b61257b610da4565b73ffffffffffffffffffffffffffffffffffffffff163373ffffffffffffffffffffffffffffffffffffffff16146125e8576040517f08c379a00000000000000000000000000000000000000000000000000000000081526004016125df906135c9565b60405180910390fd5b505050565b505050565b60006126138473ffffffffffffffffffffffffffffffffffffffff1661293b565b1561277c578373ffffffffffffffffffffffffffffffffffffffff1663150b7a0261263c611b43565b8786866040518563ffffffff1660e01b815260040161265e9493929190613360565b602060405180830381600087803b15801561267857600080fd5b505af19250505080156126a957506040513d601f19601f820116820180604052508101906126a69190612de1565b60015b61272c573d80600081146126d9576040519150601f19603f3d011682016040523d82523d6000602084013e6126de565b606091505b50600081511415612724576040517f08c379a000000000000000000000000000000000000000000000000000000000815260040161271b906133e9565b60405180910390fd5b805181602001fd5b63150b7a0260e01b7bffffffffffffffffffffffffffffffffffffffffffffffffffffffff1916817bffffffffffffffffffffffffffffffffffffffffffffffffffffffff191614915050612781565b600190505b949350505050565b606060008214156127d1576040518060400160405280600181526020017f30000000000000000000000000000000000000000000000000000000000000008152509050612931565b600082905060005b600082146128035780806127ec906138ff565b915050600a826127fc9190613777565b91506127d9565b60008167ffffffffffffffff811115612845577f4e487b7100000000000000000000000000000000000000000000000000000000600052604160045260246000fd5b6040519080825280601f01601f1916602001820160405280156128775781602001600182028036833780820191505090505b5090505b6000851461292a5760018261289091906137a8565b9150600a8561289f9190613948565b60306128ab9190613721565b60f81b8183815181106128e7577f4e487b7100000000000000000000000000000000000000000000000000000000600052603260045260246000fd5b60200101907effffffffffffffffffffffffffffffffffffffffffffffffffffffffffffff1916908160001a905350600a856129239190613777565b945061287b565b8093505050505b919050565b505050565b6000808273ffffffffffffffffffffffffffffffffffffffff163b119050919050565b6040518060a0016040528060008152602001600081526020016000801916815260200160608152602001606081525090565b82805461299c9061389c565b90600052602060002090601f0160209004810192826129be5760008555612a05565b82601f106129d757805160ff1916838001178555612a05565b82800160010185558215612a05579182015b82811115612a045782518255916020019190600101906129e9565b5b509050612a129190612a16565b5090565b5b80821115612a2f576000816000905550600101612a17565b5090565b6000612a46612a418461366b565b613646565b905082815260208101848484011115612a5e57600080fd5b612a6984828561385a565b509392505050565b6000612a84612a7f8461369c565b613646565b905082815260208101848484011115612a9c57600080fd5b612aa784828561385a565b509392505050565b600081359050612abe81613e7b565b92915050565b600081359050612ad381613e92565b92915050565b600081359050612ae881613ea9565b92915050565b600081359050612afd81613ec0565b92915050565b600081519050612b1281613ec0565b92915050565b600082601f830112612b2957600080fd5b8135612b39848260208601612a33565b91505092915050565b600082601f830112612b5357600080fd5b8135612b63848260208601612a71565b91505092915050565b600081359050612b7b81613ed7565b92915050565b600060208284031215612b9357600080fd5b6000612ba184828501612aaf565b91505092915050565b60008060408385031215612bbd57600080fd5b6000612bcb85828601612aaf565b9250506020612bdc85828601612aaf565b9150509250929050565b600080600060608486031215612bfb57600080fd5b6000612c0986828701612aaf565b9350506020612c1a86828701612aaf565b9250506040612c2b86828701612b6c565b9150509250925092565b60008060008060808587031215612c4b57600080fd5b6000612c5987828801612aaf565b9450506020612c6a87828801612aaf565b9350506040612c7b87828801612b6c565b925050606085013567ffffffffffffffff811115612c9857600080fd5b612ca487828801612b18565b91505092959194509250565b60008060408385031215612cc357600080fd5b6000612cd185828601612aaf565b9250506020612ce285828601612ac4565b9150509250929050565b600080600060608486031215612d0157600080fd5b6000612d0f86828701612aaf565b935050602084013567ffffffffffffffff811115612d2c57600080fd5b612d3886828701612b42565b9250506040612d4986828701612b6c565b9150509250925092565b60008060408385031215612d6657600080fd5b6000612d7485828601612aaf565b9250506020612d8585828601612b6c565b9150509250929050565b600060208284031215612da157600080fd5b6000612daf84828501612ad9565b91505092915050565b600060208284031215612dca57600080fd5b6000612dd884828501612aee565b91505092915050565b600060208284031215612df357600080fd5b6000612e0184828501612b03565b91505092915050565b600080600060608486031215612e1f57600080fd5b600084013567ffffffffffffffff811115612e3957600080fd5b612e4586828701612b42565b935050602084013567ffffffffffffffff811115612e6257600080fd5b612e6e86828701612b42565b9250506040612e7f86828701612b6c565b9150509250925092565b600060208284031215612e9b57600080fd5b6000612ea984828501612b6c565b91505092915050565b60008060408385031215612ec557600080fd5b6000612ed385828601612b6c565b9250506020612ee485828601612ac4565b9150509250929050565b60008060408385031215612f0157600080fd5b6000612f0f85828601612b6c565b9250506020612f2085828601612b6c565b9150509250929050565b612f33816137dc565b82525050565b612f42816137ee565b82525050565b612f51816137fa565b82525050565b6000612f62826136cd565b612f6c81856136e3565b9350612f7c818560208601613869565b612f8581613a35565b840191505092915050565b6000612f9b826136d8565b612fa581856136f4565b9350612fb5818560208601613869565b612fbe81613a35565b840191505092915050565b6000612fd4826136d8565b612fde8185613705565b9350612fee818560208601613869565b612ff781613a35565b840191505092915050565b600061300d826136d8565b6130178185613716565b9350613027818560208601613869565b80840191505092915050565b6000613040603283613705565b915061304b82613a46565b604082019050919050565b6000613063602683613705565b915061306e82613a95565b604082019050919050565b6000613086602583613705565b915061309182613ae4565b604082019050919050565b60006130a9602683613705565b91506130b482613b33565b604082019050919050565b60006130cc601c83613705565b91506130d782613b82565b602082019050919050565b60006130ef602483613705565b91506130fa82613bab565b604082019050919050565b6000613112601983613705565b915061311d82613bfa565b602082019050919050565b6000613135601883613705565b915061314082613c23565b602082019050919050565b6000613158602983613705565b915061316382613c4c565b604082019050919050565b600061317b602e83613705565b915061318682613c9b565b604082019050919050565b600061319e603e83613705565b91506131a982613cea565b604082019050919050565b60006131c1602083613705565b91506131cc82613d39565b602082019050919050565b60006131e4602083613705565b91506131ef82613d62565b602082019050919050565b6000613207601883613705565b915061321282613d8b565b602082019050919050565b600061322a602183613705565b915061323582613db4565b604082019050919050565b600061324d601483613705565b915061325882613e03565b602082019050919050565b6000613270602e83613705565b915061327b82613e2c565b604082019050919050565b600060a08301600083015161329e6000860182613303565b5060208301516132b16020860182613303565b5060408301516132c46040860182612f48565b50606083015184820360608601526132dc8282612f90565b915050608083015184820360808601526132f68282612f90565b9150508091505092915050565b61330c81613850565b82525050565b61331b81613850565b82525050565b600061332d8285613002565b91506133398284613002565b91508190509392505050565b600060208201905061335a6000830184612f2a565b92915050565b60006080820190506133756000830187612f2a565b6133826020830186612f2a565b61338f6040830185613312565b81810360608301526133a18184612f57565b905095945050505050565b60006020820190506133c16000830184612f39565b92915050565b600060208201905081810360008301526133e18184612fc9565b905092915050565b6000602082019050818103600083015261340281613033565b9050919050565b6000602082019050818103600083015261342281613056565b9050919050565b6000602082019050818103600083015261344281613079565b9050919050565b600060208201905081810360008301526134628161309c565b9050919050565b60006020820190508181036000830152613482816130bf565b9050919050565b600060208201905081810360008301526134a2816130e2565b9050919050565b600060208201905081810360008301526134c281613105565b9050919050565b600060208201905081810360008301526134e281613128565b9050919050565b600060208201905081810360008301526135028161314b565b9050919050565b600060208201905081810360008301526135228161316e565b9050919050565b6000602082019050818103600083015261354281613191565b9050919050565b60006020820190508181036000830152613562816131b4565b9050919050565b60006020820190508181036000830152613582816131d7565b9050919050565b600060208201905081810360008301526135a2816131fa565b9050919050565b600060208201905081810360008301526135c28161321d565b9050919050565b600060208201905081810360008301526135e281613240565b9050919050565b6000602082019050818103600083015261360281613263565b9050919050565b600060208201905081810360008301526136238184613286565b905092915050565b60006020820190506136406000830184613312565b92915050565b6000613650613661565b905061365c82826138ce565b919050565b6000604051905090565b600067ffffffffffffffff82111561368657613685613a06565b5b61368f82613a35565b9050602081019050919050565b600067ffffffffffffffff8211156136b7576136b6613a06565b5b6136c082613a35565b9050602081019050919050565b600081519050919050565b600081519050919050565b600082825260208201905092915050565b600082825260208201905092915050565b600082825260208201905092915050565b600081905092915050565b600061372c82613850565b915061373783613850565b9250827fffffffffffffffffffffffffffffffffffffffffffffffffffffffffffffffff0382111561376c5761376b613979565b5b828201905092915050565b600061378282613850565b915061378d83613850565b92508261379d5761379c6139a8565b5b828204905092915050565b60006137b382613850565b91506137be83613850565b9250828210156137d1576137d0613979565b5b828203905092915050565b60006137e782613830565b9050919050565b60008115159050919050565b6000819050919050565b60007fffffffff0000000000000000000000000000000000000000000000000000000082169050919050565b600073ffffffffffffffffffffffffffffffffffffffff82169050919050565b6000819050919050565b82818337600083830152505050565b60005b8381101561388757808201518184015260208101905061386c565b83811115613896576000848401525b50505050565b600060028204905060018216806138b457607f821691505b602082108114156138c8576138c76139d7565b5b50919050565b6138d782613a35565b810181811067ffffffffffffffff821117156138f6576138f5613a06565b5b80604052505050565b600061390a82613850565b91507fffffffffffffffffffffffffffffffffffffffffffffffffffffffffffffffff82141561393d5761393c613979565b5b600182019050919050565b600061395382613850565b915061395e83613850565b92508261396e5761396d6139a8565b5b828206905092915050565b7f4e487b7100000000000000000000000000000000000000000000000000000000600052601160045260246000fd5b7f4e487b7100000000000000000000000000000000000000000000000000000000600052601260045260246000fd5b7f4e487b7100000000000000000000000000000000000000000000000000000000600052602260045260246000fd5b7f4e487b7100000000000000000000000000000000000000000000000000000000600052604160045260246000fd5b6000601f19601f8301169050919050565b7f4552433732313a207472616e7366657220746f206e6f6e20455243373231526560008201527f63656976657220696d706c656d656e7465720000000000000000000000000000602082015250565b7f4f776e61626c653a206e6577206f776e657220697320746865207a65726f206160008201527f6464726573730000000000000000000000000000000000000000000000000000602082015250565b7f4552433732313a207472616e736665722066726f6d20696e636f72726563742060008201527f6f776e6572000000000000000000000000000000000000000000000000000000602082015250565b7f546865206e657741646d696e2073686f756c6420626520616e20454f4120616360008201527f636f756e74210000000000000000000000000000000000000000000000000000602082015250565b7f4552433732313a20746f6b656e20616c7265616479206d696e74656400000000600082015250565b7f4552433732313a207472616e7366657220746f20746865207a65726f2061646460008201527f7265737300000000000000000000000000000000000000000000000000000000602082015250565b7f4552433732313a20617070726f766520746f2063616c6c657200000000000000600082015250565b7f546865207573657220646f6573206e6f74206578697374210000000000000000600082015250565b7f4552433732313a2061646472657373207a65726f206973206e6f74206120766160008201527f6c6964206f776e65720000000000000000000000000000000000000000000000602082015250565b7f45524337323155524953746f726167653a2055524920736574206f66206e6f6e60008201527f6578697374656e7420746f6b656e000000000000000000000000000000000000602082015250565b7f4552433732313a20617070726f76652063616c6c6572206973206e6f7420746f60008201527f6b656e206f776e6572206e6f7220617070726f76656420666f7220616c6c0000602082015250565b7f4552433732313a206d696e7420746f20746865207a65726f2061646472657373600082015250565b7f4f776e61626c653a2063616c6c6572206973206e6f7420746865206f776e6572600082015250565b7f4552433732313a20696e76616c696420746f6b656e2049440000000000000000600082015250565b7f4552433732313a20617070726f76616c20746f2063757272656e74206f776e6560008201527f7200000000000000000000000000000000000000000000000000000000000000602082015250565b7f63616c6c6572206d757374206265206f776e6572000000000000000000000000600082015250565b7f4552433732313a2063616c6c6572206973206e6f7420746f6b656e206f776e6560008201527f72206e6f7220617070726f766564000000000000000000000000000000000000602082015250565b613e84816137dc565b8114613e8f57600080fd5b50565b613e9b816137ee565b8114613ea657600080fd5b50565b613eb2816137fa565b8114613ebd57600080fd5b50565b613ec981613804565b8114613ed457600080fd5b50565b613ee081613850565b8114613eeb57600080fd5b5056fea2646970667358221220fb60518dc53f1ff5b186b2b1278d9b9cb1354394805725c79c3e64957a38b3e464736f6c63430008040033",
  "linkReferences": {},
  "deployedLinkReferences": {}
}