{
	"contracts/KYCManager.sol": {
		"KYCManagerV1": {
			"abi": [
				{
					"anonymous": false,
					"inputs": [
						{
							"indexed": true,
							"internalType": "address",
							"name": "previousOwner",
							"type": "address"
						},
						{
							"indexed": true,
							"internalType": "address",
							"name": "newOwner",
							"type": "address"
						}
					],
					"name": "OwnershipTransferred",
					"type": "event"
				},
				{
					"stateMutability": "payable",
					"type": "fallback"
				},
				{
					"inputs": [
						{
							"internalType": "address",
							"name": "managerAddr",
							"type": "address"
						}
					],
					"name": "NFTIdOfManager",
					"outputs": [
						{
							"internalType": "uint256",
							"name": "",
							"type": "uint256"
						}
					],
					"stateMutability": "view",
					"type": "function"
				},
				{
					"inputs": [
						{
							"internalType": "uint256",
							"name": "NFTid",
							"type": "uint256"
						}
					],
					"name": "availableOfNFTId",
					"outputs": [
						{
							"internalType": "bool",
							"name": "",
							"type": "bool"
						}
					],
					"stateMutability": "view",
					"type": "function"
				},
				{
					"inputs": [
						{
							"internalType": "string",
							"name": "tokenUrl",
							"type": "string"
						},
						{
							"internalType": "address",
							"name": "manager",
							"type": "address"
						},
						{
							"internalType": "uint256",
							"name": "expirationTime",
							"type": "uint256"
						}
					],
					"name": "createKYCNFT",
					"outputs": [],
					"stateMutability": "nonpayable",
					"type": "function"
				},
				{
					"inputs": [
						{
							"internalType": "uint256",
							"name": "NFTid",
							"type": "uint256"
						},
						{
							"internalType": "address",
							"name": "manager",
							"type": "address"
						}
					],
					"name": "initManagerAddr",
					"outputs": [],
					"stateMutability": "nonpayable",
					"type": "function"
				},
				{
					"inputs": [
						{
							"internalType": "uint256",
							"name": "NFTid",
							"type": "uint256"
						}
					],
					"name": "managerOfNFTId",
					"outputs": [
						{
							"internalType": "address",
							"name": "",
							"type": "address"
						}
					],
					"stateMutability": "view",
					"type": "function"
				},
				{
					"inputs": [
						{
							"internalType": "address",
							"name": "newManager",
							"type": "address"
						}
					],
					"name": "modifyManagerAddr",
					"outputs": [],
					"stateMutability": "nonpayable",
					"type": "function"
				},
				{
					"inputs": [],
					"name": "owner",
					"outputs": [
						{
							"internalType": "address",
							"name": "",
							"type": "address"
						}
					],
					"stateMutability": "view",
					"type": "function"
				},
				{
					"inputs": [],
					"name": "renounceOwnership",
					"outputs": [],
					"stateMutability": "nonpayable",
					"type": "function"
				},
				{
					"inputs": [
						{
							"internalType": "address",
							"name": "_kycnftContractAddr",
							"type": "address"
						}
					],
					"name": "setKYCNFTContractAddress",
					"outputs": [],
					"stateMutability": "nonpayable",
					"type": "function"
				},
				{
					"inputs": [
						{
							"internalType": "uint256",
							"name": "NFTid",
							"type": "uint256"
						},
						{
							"internalType": "bool",
							"name": "_available",
							"type": "bool"
						}
					],
					"name": "setNFTAvailableOfNFTId",
					"outputs": [],
					"stateMutability": "nonpayable",
					"type": "function"
				},
				{
					"inputs": [
						{
							"internalType": "address",
							"name": "newOwner",
							"type": "address"
						}
					],
					"name": "transferOwnership",
					"outputs": [],
					"stateMutability": "nonpayable",
					"type": "function"
				},
				{
					"inputs": [
						{
							"internalType": "string",
							"name": "_accumulator",
							"type": "string"
						},
						{
							"internalType": "string",
							"name": "_n",
							"type": "string"
						},
						{
							"internalType": "uint256",
							"name": "_g",
							"type": "uint256"
						}
					],
					"name": "updateAccumulator",
					"outputs": [],
					"stateMutability": "nonpayable",
					"type": "function"
				},
				{
					"inputs": [
						{
							"internalType": "string",
							"name": "_n",
							"type": "string"
						},
						{
							"internalType": "uint256",
							"name": "_g",
							"type": "uint256"
						}
					],
					"name": "updateAccumulatorPublicKey",
					"outputs": [],
					"stateMutability": "nonpayable",
					"type": "function"
				},
				{
					"inputs": [
						{
							"internalType": "string",
							"name": "_accumulator",
							"type": "string"
						}
					],
					"name": "updateAccumulatorValue",
					"outputs": [],
					"stateMutability": "nonpayable",
					"type": "function"
				},
				{
					"inputs": [
						{
							"internalType": "address",
							"name": "managerAddr",
							"type": "address"
						}
					],
					"name": "userDataOfManager",
					"outputs": [
						{
							"components": [
								{
									"internalType": "uint256",
									"name": "NFTid",
									"type": "uint256"
								},
								{
									"internalType": "string",
									"name": "accumulator",
									"type": "string"
								},
								{
									"internalType": "string",
									"name": "n",
									"type": "string"
								},
								{
									"internalType": "uint256",
									"name": "g",
									"type": "uint256"
								}
							],
							"internalType": "struct KYCManagerV1.UserData",
							"name": "",
							"type": "tuple"
						}
					],
					"stateMutability": "view",
					"type": "function"
				},
				{
					"inputs": [
						{
							"internalType": "uint256",
							"name": "NFTid",
							"type": "uint256"
						}
					],
					"name": "userDataOfNFTId",
					"outputs": [
						{
							"components": [
								{
									"internalType": "uint256",
									"name": "NFTid",
									"type": "uint256"
								},
								{
									"internalType": "string",
									"name": "accumulator",
									"type": "string"
								},
								{
									"internalType": "string",
									"name": "n",
									"type": "string"
								},
								{
									"internalType": "uint256",
									"name": "g",
									"type": "uint256"
								}
							],
							"internalType": "struct KYCManagerV1.UserData",
							"name": "",
							"type": "tuple"
						}
					],
					"stateMutability": "view",
					"type": "function"
				},
				{
					"stateMutability": "payable",
					"type": "receive"
				}
			],
			"devdoc": {
				"kind": "dev",
				"methods": {
					"owner()": {
						"details": "Returns the address of the current owner."
					},
					"renounceOwnership()": {
						"details": "Leaves the contract without owner. It will not be possible to call `onlyOwner` functions anymore. Can only be called by the current owner. NOTE: Renouncing ownership will leave the contract without an owner, thereby removing any functionality that is only available to the owner."
					},
					"transferOwnership(address)": {
						"details": "Transfers ownership of the contract to a new account (`newOwner`). Can only be called by the current owner."
					}
				},
				"version": 1
			},
			"evm": {
				"assembly": "    /* \"contracts/KYCManager.sol\":405:3461  contract KYCManagerV1 is Ownable {... */\n  mstore(0x40, 0x80)\n  callvalue\n  dup1\n  iszero\n  tag_1\n  jumpi\n  0x00\n  dup1\n  revert\ntag_1:\n  pop\n    /* \"@openzeppelin/contracts/access/Ownable.sol\":936:968  _transferOwnership(_msgSender()) */\n  tag_4\n    /* \"@openzeppelin/contracts/access/Ownable.sol\":955:967  _msgSender() */\n  tag_5\n    /* \"@openzeppelin/contracts/access/Ownable.sol\":955:965  _msgSender */\n  shl(0x20, tag_6)\n    /* \"@openzeppelin/contracts/access/Ownable.sol\":955:967  _msgSender() */\n  0x20\n  shr\n  jump\t// in\ntag_5:\n    /* \"@openzeppelin/contracts/access/Ownable.sol\":936:954  _transferOwnership */\n  shl(0x20, tag_7)\n    /* \"@openzeppelin/contracts/access/Ownable.sol\":936:968  _transferOwnership(_msgSender()) */\n  0x20\n  shr\n  jump\t// in\ntag_4:\n    /* \"contracts/KYCManager.sol\":405:3461  contract KYCManagerV1 is Ownable {... */\n  jump(tag_8)\n    /* \"@openzeppelin/contracts/utils/Context.sol\":640:736  function _msgSender() internal view virtual returns (address) {... */\ntag_6:\n    /* \"@openzeppelin/contracts/utils/Context.sol\":693:700  address */\n  0x00\n    /* \"@openzeppelin/contracts/utils/Context.sol\":719:729  msg.sender */\n  caller\n    /* \"@openzeppelin/contracts/utils/Context.sol\":712:729  return msg.sender */\n  swap1\n  pop\n    /* \"@openzeppelin/contracts/utils/Context.sol\":640:736  function _msgSender() internal view virtual returns (address) {... */\n  swap1\n  jump\t// out\n    /* \"@openzeppelin/contracts/access/Ownable.sol\":2433:2620  function _transferOwnership(address newOwner) internal virtual {... */\ntag_7:\n    /* \"@openzeppelin/contracts/access/Ownable.sol\":2506:2522  address oldOwner */\n  0x00\n    /* \"@openzeppelin/contracts/access/Ownable.sol\":2525:2531  _owner */\n  dup1\n  0x00\n  swap1\n  sload\n  swap1\n  0x0100\n  exp\n  swap1\n  div\n  0xffffffffffffffffffffffffffffffffffffffff\n  and\n    /* \"@openzeppelin/contracts/access/Ownable.sol\":2506:2531  address oldOwner = _owner */\n  swap1\n  pop\n    /* \"@openzeppelin/contracts/access/Ownable.sol\":2550:2558  newOwner */\n  dup2\n    /* \"@openzeppelin/contracts/access/Ownable.sol\":2541:2547  _owner */\n  0x00\n  dup1\n    /* \"@openzeppelin/contracts/access/Ownable.sol\":2541:2558  _owner = newOwner */\n  0x0100\n  exp\n  dup2\n  sload\n  dup2\n  0xffffffffffffffffffffffffffffffffffffffff\n  mul\n  not\n  and\n  swap1\n  dup4\n  0xffffffffffffffffffffffffffffffffffffffff\n  and\n  mul\n  or\n  swap1\n  sstore\n  pop\n    /* \"@openzeppelin/contracts/access/Ownable.sol\":2604:2612  newOwner */\n  dup2\n    /* \"@openzeppelin/contracts/access/Ownable.sol\":2573:2613  OwnershipTransferred(oldOwner, newOwner) */\n  0xffffffffffffffffffffffffffffffffffffffff\n  and\n    /* \"@openzeppelin/contracts/access/Ownable.sol\":2594:2602  oldOwner */\n  dup2\n    /* \"@openzeppelin/contracts/access/Ownable.sol\":2573:2613  OwnershipTransferred(oldOwner, newOwner) */\n  0xffffffffffffffffffffffffffffffffffffffff\n  and\n  0x8be0079c531659141344cd1fd0a4f28419497f9722a3daafe3b4186f6b6457e0\n  mload(0x40)\n  mload(0x40)\n  dup1\n  swap2\n  sub\n  swap1\n  log3\n    /* \"@openzeppelin/contracts/access/Ownable.sol\":2496:2620  {... */\n  pop\n    /* \"@openzeppelin/contracts/access/Ownable.sol\":2433:2620  function _transferOwnership(address newOwner) internal virtual {... */\n  pop\n  jump\t// out\n    /* \"contracts/KYCManager.sol\":405:3461  contract KYCManagerV1 is Ownable {... */\ntag_8:\n  dataSize(sub_0)\n  dup1\n  dataOffset(sub_0)\n  0x00\n  codecopy\n  0x00\n  return\nstop\n\nsub_0: assembly {\n        /* \"contracts/KYCManager.sol\":405:3461  contract KYCManagerV1 is Ownable {... */\n      mstore(0x40, 0x80)\n      jumpi(tag_1, lt(calldatasize, 0x04))\n      shr(0xe0, calldataload(0x00))\n      dup1\n      0xad575035\n      gt\n      tag_19\n      jumpi\n      dup1\n      0xd6f70eb3\n      gt\n      tag_20\n      jumpi\n      dup1\n      0xd6f70eb3\n      eq\n      tag_15\n      jumpi\n      dup1\n      0xf2fde38b\n      eq\n      tag_16\n      jumpi\n      dup1\n      0xfa0e9e41\n      eq\n      tag_17\n      jumpi\n      dup1\n      0xfbc2cf13\n      eq\n      tag_18\n      jumpi\n      jump(tag_2)\n    tag_20:\n      dup1\n      0xad575035\n      eq\n      tag_11\n      jumpi\n      dup1\n      0xb2b72bc4\n      eq\n      tag_12\n      jumpi\n      dup1\n      0xbafdee14\n      eq\n      tag_13\n      jumpi\n      dup1\n      0xd1933ddd\n      eq\n      tag_14\n      jumpi\n      jump(tag_2)\n    tag_19:\n      dup1\n      0x715018a6\n      gt\n      tag_21\n      jumpi\n      dup1\n      0x715018a6\n      eq\n      tag_7\n      jumpi\n      dup1\n      0x717b9b6c\n      eq\n      tag_8\n      jumpi\n      dup1\n      0x8da5cb5b\n      eq\n      tag_9\n      jumpi\n      dup1\n      0x917b8fd0\n      eq\n      tag_10\n      jumpi\n      jump(tag_2)\n    tag_21:\n      dup1\n      0x0e197dc9\n      eq\n      tag_3\n      jumpi\n      dup1\n      0x1ff4bdf3\n      eq\n      tag_4\n      jumpi\n      dup1\n      0x3960a892\n      eq\n      tag_5\n      jumpi\n      dup1\n      0x4b3cef44\n      eq\n      tag_6\n      jumpi\n      jump(tag_2)\n    tag_1:\n      jumpi(tag_2, calldatasize)\n        /* \"contracts/KYCManager.sol\":3446:3454  revert() */\n      0x00\n      dup1\n      revert\n        /* \"contracts/KYCManager.sol\":405:3461  contract KYCManagerV1 is Ownable {... */\n    tag_2:\n        /* \"contracts/KYCManager.sol\":3397:3405  revert() */\n      0x00\n      dup1\n      revert\n        /* \"contracts/KYCManager.sol\":3080:3186  function availableOfNFTId(uint NFTid) public view returns(bool){... */\n    tag_3:\n      callvalue\n      dup1\n      iszero\n      tag_26\n      jumpi\n      0x00\n      dup1\n      revert\n    tag_26:\n      pop\n      tag_27\n      0x04\n      dup1\n      calldatasize\n      sub\n      dup2\n      add\n      swap1\n      tag_28\n      swap2\n      swap1\n      tag_29\n      jump\t// in\n    tag_28:\n      tag_30\n      jump\t// in\n    tag_27:\n      mload(0x40)\n      tag_31\n      swap2\n      swap1\n      tag_32\n      jump\t// in\n    tag_31:\n      mload(0x40)\n      dup1\n      swap2\n      sub\n      swap1\n      return\n        /* \"contracts/KYCManager.sol\":1643:1858  function modifyManagerAddr(address newManager) public{... */\n    tag_4:\n      callvalue\n      dup1\n      iszero\n      tag_33\n      jumpi\n      0x00\n      dup1\n      revert\n    tag_33:\n      pop\n      tag_34\n      0x04\n      dup1\n      calldatasize\n      sub\n      dup2\n      add\n      swap1\n      tag_35\n      swap2\n      swap1\n      tag_36\n      jump\t// in\n    tag_35:\n      tag_37\n      jump\t// in\n    tag_34:\n      stop\n        /* \"contracts/KYCManager.sol\":1476:1635  function initManagerAddr(uint NFTid, address manager) public onlyOwner {... */\n    tag_5:\n      callvalue\n      dup1\n      iszero\n      tag_38\n      jumpi\n      0x00\n      dup1\n      revert\n    tag_38:\n      pop\n      tag_39\n      0x04\n      dup1\n      calldatasize\n      sub\n      dup2\n      add\n      swap1\n      tag_40\n      swap2\n      swap1\n      tag_41\n      jump\t// in\n    tag_40:\n      tag_42\n      jump\t// in\n    tag_39:\n      stop\n        /* \"contracts/KYCManager.sol\":2555:2688  function managerOfNFTId(uint NFTid) public view returns(address) {... */\n    tag_6:\n      callvalue\n      dup1\n      iszero\n      tag_43\n      jumpi\n      0x00\n      dup1\n      revert\n    tag_43:\n      pop\n      tag_44\n      0x04\n      dup1\n      calldatasize\n      sub\n      dup2\n      add\n      swap1\n      tag_45\n      swap2\n      swap1\n      tag_29\n      jump\t// in\n    tag_45:\n      tag_46\n      jump\t// in\n    tag_44:\n      mload(0x40)\n      tag_47\n      swap2\n      swap1\n      tag_48\n      jump\t// in\n    tag_47:\n      mload(0x40)\n      dup1\n      swap2\n      sub\n      swap1\n      return\n        /* \"@openzeppelin/contracts/access/Ownable.sol\":1831:1932  function renounceOwnership() public virtual onlyOwner {... */\n    tag_7:\n      callvalue\n      dup1\n      iszero\n      tag_49\n      jumpi\n      0x00\n      dup1\n      revert\n    tag_49:\n      pop\n      tag_50\n      tag_51\n      jump\t// in\n    tag_50:\n      stop\n        /* \"contracts/KYCManager.sol\":1315:1440  function setNFTAvailableOfNFTId(uint NFTid, bool _available)  public onlyOwner{... */\n    tag_8:\n      callvalue\n      dup1\n      iszero\n      tag_52\n      jumpi\n      0x00\n      dup1\n      revert\n    tag_52:\n      pop\n      tag_53\n      0x04\n      dup1\n      calldatasize\n      sub\n      dup2\n      add\n      swap1\n      tag_54\n      swap2\n      swap1\n      tag_55\n      jump\t// in\n    tag_54:\n      tag_56\n      jump\t// in\n    tag_53:\n      stop\n        /* \"@openzeppelin/contracts/access/Ownable.sol\":1201:1286  function owner() public view virtual returns (address) {... */\n    tag_9:\n      callvalue\n      dup1\n      iszero\n      tag_57\n      jumpi\n      0x00\n      dup1\n      revert\n    tag_57:\n      pop\n      tag_58\n      tag_59\n      jump\t// in\n    tag_58:\n      mload(0x40)\n      tag_60\n      swap2\n      swap1\n      tag_48\n      jump\t// in\n    tag_60:\n      mload(0x40)\n      dup1\n      swap2\n      sub\n      swap1\n      return\n        /* \"contracts/KYCManager.sol\":2692:2895  function userDataOfNFTId(uint NFTid) public view returns(UserData memory){... */\n    tag_10:\n      callvalue\n      dup1\n      iszero\n      tag_61\n      jumpi\n      0x00\n      dup1\n      revert\n    tag_61:\n      pop\n      tag_62\n      0x04\n      dup1\n      calldatasize\n      sub\n      dup2\n      add\n      swap1\n      tag_63\n      swap2\n      swap1\n      tag_29\n      jump\t// in\n    tag_63:\n      tag_64\n      jump\t// in\n    tag_62:\n      mload(0x40)\n      tag_65\n      swap2\n      swap1\n      tag_66\n      jump\t// in\n    tag_65:\n      mload(0x40)\n      dup1\n      swap2\n      sub\n      swap1\n      return\n        /* \"contracts/KYCManager.sol\":2899:3076  function userDataOfManager(address managerAddr) public view returns(UserData memory){... */\n    tag_11:\n      callvalue\n      dup1\n      iszero\n      tag_67\n      jumpi\n      0x00\n      dup1\n      revert\n    tag_67:\n      pop\n      tag_68\n      0x04\n      dup1\n      calldatasize\n      sub\n      dup2\n      add\n      swap1\n      tag_69\n      swap2\n      swap1\n      tag_36\n      jump\t// in\n    tag_69:\n      tag_70\n      jump\t// in\n    tag_68:\n      mload(0x40)\n      tag_71\n      swap2\n      swap1\n      tag_66\n      jump\t// in\n    tag_71:\n      mload(0x40)\n      dup1\n      swap2\n      sub\n      swap1\n      return\n        /* \"contracts/KYCManager.sol\":3190:3359  function NFTIdOfManager(address managerAddr) public view returns(uint){... */\n    tag_12:\n      callvalue\n      dup1\n      iszero\n      tag_72\n      jumpi\n      0x00\n      dup1\n      revert\n    tag_72:\n      pop\n      tag_73\n      0x04\n      dup1\n      calldatasize\n      sub\n      dup2\n      add\n      swap1\n      tag_74\n      swap2\n      swap1\n      tag_36\n      jump\t// in\n    tag_74:\n      tag_75\n      jump\t// in\n    tag_73:\n      mload(0x40)\n      tag_76\n      swap2\n      swap1\n      tag_77\n      jump\t// in\n    tag_76:\n      mload(0x40)\n      dup1\n      swap2\n      sub\n      swap1\n      return\n        /* \"contracts/KYCManager.sol\":1895:2146  function updateAccumulator(string memory _accumulator, string memory _n, uint256 _g) public {... */\n    tag_13:\n      callvalue\n      dup1\n      iszero\n      tag_78\n      jumpi\n      0x00\n      dup1\n      revert\n    tag_78:\n      pop\n      tag_79\n      0x04\n      dup1\n      calldatasize\n      sub\n      dup2\n      add\n      swap1\n      tag_80\n      swap2\n      swap1\n      tag_81\n      jump\t// in\n    tag_80:\n      tag_82\n      jump\t// in\n    tag_79:\n      stop\n        /* \"contracts/KYCManager.sol\":904:1309  function createKYCNFT(string memory tokenUrl, address manager, uint expirationTime) public onlyOwner{... */\n    tag_14:\n      callvalue\n      dup1\n      iszero\n      tag_83\n      jumpi\n      0x00\n      dup1\n      revert\n    tag_83:\n      pop\n      tag_84\n      0x04\n      dup1\n      calldatasize\n      sub\n      dup2\n      add\n      swap1\n      tag_85\n      swap2\n      swap1\n      tag_86\n      jump\t// in\n    tag_85:\n      tag_87\n      jump\t// in\n    tag_84:\n      stop\n        /* \"contracts/KYCManager.sol\":2340:2520  function updateAccumulatorValue(string memory _accumulator) public {... */\n    tag_15:\n      callvalue\n      dup1\n      iszero\n      tag_88\n      jumpi\n      0x00\n      dup1\n      revert\n    tag_88:\n      pop\n      tag_89\n      0x04\n      dup1\n      calldatasize\n      sub\n      dup2\n      add\n      swap1\n      tag_90\n      swap2\n      swap1\n      tag_91\n      jump\t// in\n    tag_90:\n      tag_92\n      jump\t// in\n    tag_89:\n      stop\n        /* \"@openzeppelin/contracts/access/Ownable.sol\":2081:2279  function transferOwnership(address newOwner) public virtual onlyOwner {... */\n    tag_16:\n      callvalue\n      dup1\n      iszero\n      tag_93\n      jumpi\n      0x00\n      dup1\n      revert\n    tag_93:\n      pop\n      tag_94\n      0x04\n      dup1\n      calldatasize\n      sub\n      dup2\n      add\n      swap1\n      tag_95\n      swap2\n      swap1\n      tag_36\n      jump\t// in\n    tag_95:\n      tag_96\n      jump\t// in\n    tag_94:\n      stop\n        /* \"contracts/KYCManager.sol\":2150:2336  function updateAccumulatorPublicKey(string memory _n, uint _g) public {... */\n    tag_17:\n      callvalue\n      dup1\n      iszero\n      tag_97\n      jumpi\n      0x00\n      dup1\n      revert\n    tag_97:\n      pop\n      tag_98\n      0x04\n      dup1\n      calldatasize\n      sub\n      dup2\n      add\n      swap1\n      tag_99\n      swap2\n      swap1\n      tag_100\n      jump\t// in\n    tag_99:\n      tag_101\n      jump\t// in\n    tag_98:\n      stop\n        /* \"contracts/KYCManager.sol\":754:898  function setKYCNFTContractAddress(address _kycnftContractAddr) public onlyOwner {... */\n    tag_18:\n      callvalue\n      dup1\n      iszero\n      tag_102\n      jumpi\n      0x00\n      dup1\n      revert\n    tag_102:\n      pop\n      tag_103\n      0x04\n      dup1\n      calldatasize\n      sub\n      dup2\n      add\n      swap1\n      tag_104\n      swap2\n      swap1\n      tag_36\n      jump\t// in\n    tag_104:\n      tag_105\n      jump\t// in\n    tag_103:\n      stop\n        /* \"contracts/KYCManager.sol\":3080:3186  function availableOfNFTId(uint NFTid) public view returns(bool){... */\n    tag_30:\n        /* \"contracts/KYCManager.sol\":3138:3142  bool */\n      0x00\n        /* \"contracts/KYCManager.sol\":3158:3174  NFTIdToAvailable */\n      0x04\n        /* \"contracts/KYCManager.sol\":3158:3181  NFTIdToAvailable[NFTid] */\n      0x00\n        /* \"contracts/KYCManager.sol\":3175:3180  NFTid */\n      dup4\n        /* \"contracts/KYCManager.sol\":3158:3181  NFTIdToAvailable[NFTid] */\n      dup2\n      mstore\n      0x20\n      add\n      swap1\n      dup2\n      mstore\n      0x20\n      add\n      0x00\n      keccak256\n      0x00\n      swap1\n      sload\n      swap1\n      0x0100\n      exp\n      swap1\n      div\n      0xff\n      and\n        /* \"contracts/KYCManager.sol\":3151:3181  return NFTIdToAvailable[NFTid] */\n      swap1\n      pop\n        /* \"contracts/KYCManager.sol\":3080:3186  function availableOfNFTId(uint NFTid) public view returns(bool){... */\n      swap2\n      swap1\n      pop\n      jump\t// out\n        /* \"contracts/KYCManager.sol\":1643:1858  function modifyManagerAddr(address newManager) public{... */\n    tag_37:\n        /* \"contracts/KYCManager.sol\":1702:1726  UserData memory userdata */\n      0x00\n        /* \"contracts/KYCManager.sol\":1729:1746  ManagerToUserData */\n      0x03\n        /* \"contracts/KYCManager.sol\":1729:1758  ManagerToUserData[msg.sender] */\n      0x00\n        /* \"contracts/KYCManager.sol\":1747:1757  msg.sender */\n      caller\n        /* \"contracts/KYCManager.sol\":1729:1758  ManagerToUserData[msg.sender] */\n      0xffffffffffffffffffffffffffffffffffffffff\n      and\n      0xffffffffffffffffffffffffffffffffffffffff\n      and\n      dup2\n      mstore\n      0x20\n      add\n      swap1\n      dup2\n      mstore\n      0x20\n      add\n      0x00\n      keccak256\n        /* \"contracts/KYCManager.sol\":1702:1758  UserData memory userdata = ManagerToUserData[msg.sender] */\n      mload(0x40)\n      dup1\n      0x80\n      add\n      0x40\n      mstore\n      swap1\n      dup2\n      0x00\n      dup3\n      add\n      sload\n      dup2\n      mstore\n      0x20\n      add\n      0x01\n      dup3\n      add\n      dup1\n      sload\n      tag_108\n      swap1\n      tag_109\n      jump\t// in\n    tag_108:\n      dup1\n      0x1f\n      add\n      0x20\n      dup1\n      swap2\n      div\n      mul\n      0x20\n      add\n      mload(0x40)\n      swap1\n      dup2\n      add\n      0x40\n      mstore\n      dup1\n      swap3\n      swap2\n      swap1\n      dup2\n      dup2\n      mstore\n      0x20\n      add\n      dup3\n      dup1\n      sload\n      tag_110\n      swap1\n      tag_109\n      jump\t// in\n    tag_110:\n      dup1\n      iszero\n      tag_111\n      jumpi\n      dup1\n      0x1f\n      lt\n      tag_112\n      jumpi\n      0x0100\n      dup1\n      dup4\n      sload\n      div\n      mul\n      dup4\n      mstore\n      swap2\n      0x20\n      add\n      swap2\n      jump(tag_111)\n    tag_112:\n      dup3\n      add\n      swap2\n      swap1\n      0x00\n      mstore\n      keccak256(0x00, 0x20)\n      swap1\n    tag_113:\n      dup2\n      sload\n      dup2\n      mstore\n      swap1\n      0x01\n      add\n      swap1\n      0x20\n      add\n      dup1\n      dup4\n      gt\n      tag_113\n      jumpi\n      dup3\n      swap1\n      sub\n      0x1f\n      and\n      dup3\n      add\n      swap2\n    tag_111:\n      pop\n      pop\n      pop\n      pop\n      pop\n      dup2\n      mstore\n      0x20\n      add\n      0x02\n      dup3\n      add\n      dup1\n      sload\n      tag_114\n      swap1\n      tag_109\n      jump\t// in\n    tag_114:\n      dup1\n      0x1f\n      add\n      0x20\n      dup1\n      swap2\n      div\n      mul\n      0x20\n      add\n      mload(0x40)\n      swap1\n      dup2\n      add\n      0x40\n      mstore\n      dup1\n      swap3\n      swap2\n      swap1\n      dup2\n      dup2\n      mstore\n      0x20\n      add\n      dup3\n      dup1\n      sload\n      tag_115\n      swap1\n      tag_109\n      jump\t// in\n    tag_115:\n      dup1\n      iszero\n      tag_116\n      jumpi\n      dup1\n      0x1f\n      lt\n      tag_117\n      jumpi\n      0x0100\n      dup1\n      dup4\n      sload\n      div\n      mul\n      dup4\n      mstore\n      swap2\n      0x20\n      add\n      swap2\n      jump(tag_116)\n    tag_117:\n      dup3\n      add\n      swap2\n      swap1\n      0x00\n      mstore\n      keccak256(0x00, 0x20)\n      swap1\n    tag_118:\n      dup2\n      sload\n      dup2\n      mstore\n      swap1\n      0x01\n      add\n      swap1\n      0x20\n      add\n      dup1\n      dup4\n      gt\n      tag_118\n      jumpi\n      dup3\n      swap1\n      sub\n      0x1f\n      and\n      dup3\n      add\n      swap2\n    tag_116:\n      pop\n      pop\n      pop\n      pop\n      pop\n      dup2\n      mstore\n      0x20\n      add\n      0x03\n      dup3\n      add\n      sload\n      dup2\n      mstore\n      pop\n      pop\n      swap1\n      pop\n        /* \"contracts/KYCManager.sol\":1796:1804  userdata */\n      dup1\n        /* \"contracts/KYCManager.sol\":1764:1781  ManagerToUserData */\n      0x03\n        /* \"contracts/KYCManager.sol\":1764:1793  ManagerToUserData[newManager] */\n      0x00\n        /* \"contracts/KYCManager.sol\":1782:1792  newManager */\n      dup5\n        /* \"contracts/KYCManager.sol\":1764:1793  ManagerToUserData[newManager] */\n      0xffffffffffffffffffffffffffffffffffffffff\n      and\n      0xffffffffffffffffffffffffffffffffffffffff\n      and\n      dup2\n      mstore\n      0x20\n      add\n      swap1\n      dup2\n      mstore\n      0x20\n      add\n      0x00\n      keccak256\n        /* \"contracts/KYCManager.sol\":1764:1804  ManagerToUserData[newManager] = userdata */\n      0x00\n      dup3\n      add\n      mload\n      dup2\n      0x00\n      add\n      sstore\n      0x20\n      dup3\n      add\n      mload\n      dup2\n      0x01\n      add\n      swap1\n      dup1\n      mload\n      swap1\n      0x20\n      add\n      swap1\n      tag_119\n      swap3\n      swap2\n      swap1\n      tag_120\n      jump\t// in\n    tag_119:\n      pop\n      0x40\n      dup3\n      add\n      mload\n      dup2\n      0x02\n      add\n      swap1\n      dup1\n      mload\n      swap1\n      0x20\n      add\n      swap1\n      tag_121\n      swap3\n      swap2\n      swap1\n      tag_120\n      jump\t// in\n    tag_121:\n      pop\n      0x60\n      dup3\n      add\n      mload\n      dup2\n      0x03\n      add\n      sstore\n      swap1\n      pop\n      pop\n        /* \"contracts/KYCManager.sol\":1843:1853  newManager */\n      dup2\n        /* \"contracts/KYCManager.sol\":1810:1824  NFTIdToManager */\n      0x02\n        /* \"contracts/KYCManager.sol\":1810:1840  NFTIdToManager[userdata.NFTid] */\n      0x00\n        /* \"contracts/KYCManager.sol\":1825:1833  userdata */\n      dup4\n        /* \"contracts/KYCManager.sol\":1825:1839  userdata.NFTid */\n      0x00\n      add\n      mload\n        /* \"contracts/KYCManager.sol\":1810:1840  NFTIdToManager[userdata.NFTid] */\n      dup2\n      mstore\n      0x20\n      add\n      swap1\n      dup2\n      mstore\n      0x20\n      add\n      0x00\n      keccak256\n      0x00\n        /* \"contracts/KYCManager.sol\":1810:1853  NFTIdToManager[userdata.NFTid] = newManager */\n      0x0100\n      exp\n      dup2\n      sload\n      dup2\n      0xffffffffffffffffffffffffffffffffffffffff\n      mul\n      not\n      and\n      swap1\n      dup4\n      0xffffffffffffffffffffffffffffffffffffffff\n      and\n      mul\n      or\n      swap1\n      sstore\n      pop\n        /* \"contracts/KYCManager.sol\":1696:1858  {... */\n      pop\n        /* \"contracts/KYCManager.sol\":1643:1858  function modifyManagerAddr(address newManager) public{... */\n      pop\n      jump\t// out\n        /* \"contracts/KYCManager.sol\":1476:1635  function initManagerAddr(uint NFTid, address manager) public onlyOwner {... */\n    tag_42:\n        /* \"@openzeppelin/contracts/access/Ownable.sol\":1094:1107  _checkOwner() */\n      tag_123\n        /* \"@openzeppelin/contracts/access/Ownable.sol\":1094:1105  _checkOwner */\n      tag_124\n        /* \"@openzeppelin/contracts/access/Ownable.sol\":1094:1107  _checkOwner() */\n      jump\t// in\n    tag_123:\n        /* \"contracts/KYCManager.sol\":1577:1584  manager */\n      dup1\n        /* \"contracts/KYCManager.sol\":1553:1567  NFTIdToManager */\n      0x02\n        /* \"contracts/KYCManager.sol\":1553:1574  NFTIdToManager[NFTid] */\n      0x00\n        /* \"contracts/KYCManager.sol\":1568:1573  NFTid */\n      dup5\n        /* \"contracts/KYCManager.sol\":1553:1574  NFTIdToManager[NFTid] */\n      dup2\n      mstore\n      0x20\n      add\n      swap1\n      dup2\n      mstore\n      0x20\n      add\n      0x00\n      keccak256\n      0x00\n        /* \"contracts/KYCManager.sol\":1553:1584  NFTIdToManager[NFTid] = manager */\n      0x0100\n      exp\n      dup2\n      sload\n      dup2\n      0xffffffffffffffffffffffffffffffffffffffff\n      mul\n      not\n      and\n      swap1\n      dup4\n      0xffffffffffffffffffffffffffffffffffffffff\n      and\n      mul\n      or\n      swap1\n      sstore\n      pop\n        /* \"contracts/KYCManager.sol\":1625:1630  NFTid */\n      dup2\n        /* \"contracts/KYCManager.sol\":1590:1607  ManagerToUserData */\n      0x03\n        /* \"contracts/KYCManager.sol\":1590:1616  ManagerToUserData[manager] */\n      0x00\n        /* \"contracts/KYCManager.sol\":1608:1615  manager */\n      dup4\n        /* \"contracts/KYCManager.sol\":1590:1616  ManagerToUserData[manager] */\n      0xffffffffffffffffffffffffffffffffffffffff\n      and\n      0xffffffffffffffffffffffffffffffffffffffff\n      and\n      dup2\n      mstore\n      0x20\n      add\n      swap1\n      dup2\n      mstore\n      0x20\n      add\n      0x00\n      keccak256\n        /* \"contracts/KYCManager.sol\":1590:1622  ManagerToUserData[manager].NFTid */\n      0x00\n      add\n        /* \"contracts/KYCManager.sol\":1590:1630  ManagerToUserData[manager].NFTid = NFTid */\n      dup2\n      swap1\n      sstore\n      pop\n        /* \"contracts/KYCManager.sol\":1476:1635  function initManagerAddr(uint NFTid, address manager) public onlyOwner {... */\n      pop\n      pop\n      jump\t// out\n        /* \"contracts/KYCManager.sol\":2555:2688  function managerOfNFTId(uint NFTid) public view returns(address) {... */\n    tag_46:\n        /* \"contracts/KYCManager.sol\":2611:2618  address */\n      0x00\n        /* \"contracts/KYCManager.sol\":2628:2640  address addr */\n      dup1\n        /* \"contracts/KYCManager.sol\":2643:2657  NFTIdToManager */\n      0x02\n        /* \"contracts/KYCManager.sol\":2643:2664  NFTIdToManager[NFTid] */\n      0x00\n        /* \"contracts/KYCManager.sol\":2658:2663  NFTid */\n      dup5\n        /* \"contracts/KYCManager.sol\":2643:2664  NFTIdToManager[NFTid] */\n      dup2\n      mstore\n      0x20\n      add\n      swap1\n      dup2\n      mstore\n      0x20\n      add\n      0x00\n      keccak256\n      0x00\n      swap1\n      sload\n      swap1\n      0x0100\n      exp\n      swap1\n      div\n      0xffffffffffffffffffffffffffffffffffffffff\n      and\n        /* \"contracts/KYCManager.sol\":2628:2664  address addr = NFTIdToManager[NFTid] */\n      swap1\n      pop\n        /* \"contracts/KYCManager.sol\":2679:2683  addr */\n      dup1\n        /* \"contracts/KYCManager.sol\":2672:2683  return addr */\n      swap2\n      pop\n      pop\n        /* \"contracts/KYCManager.sol\":2555:2688  function managerOfNFTId(uint NFTid) public view returns(address) {... */\n      swap2\n      swap1\n      pop\n      jump\t// out\n        /* \"@openzeppelin/contracts/access/Ownable.sol\":1831:1932  function renounceOwnership() public virtual onlyOwner {... */\n    tag_51:\n        /* \"@openzeppelin/contracts/access/Ownable.sol\":1094:1107  _checkOwner() */\n      tag_128\n        /* \"@openzeppelin/contracts/access/Ownable.sol\":1094:1105  _checkOwner */\n      tag_124\n        /* \"@openzeppelin/contracts/access/Ownable.sol\":1094:1107  _checkOwner() */\n      jump\t// in\n    tag_128:\n        /* \"@openzeppelin/contracts/access/Ownable.sol\":1895:1925  _transferOwnership(address(0)) */\n      tag_130\n        /* \"@openzeppelin/contracts/access/Ownable.sol\":1922:1923  0 */\n      0x00\n        /* \"@openzeppelin/contracts/access/Ownable.sol\":1895:1913  _transferOwnership */\n      tag_131\n        /* \"@openzeppelin/contracts/access/Ownable.sol\":1895:1925  _transferOwnership(address(0)) */\n      jump\t// in\n    tag_130:\n        /* \"@openzeppelin/contracts/access/Ownable.sol\":1831:1932  function renounceOwnership() public virtual onlyOwner {... */\n      jump\t// out\n        /* \"contracts/KYCManager.sol\":1315:1440  function setNFTAvailableOfNFTId(uint NFTid, bool _available)  public onlyOwner{... */\n    tag_56:\n        /* \"@openzeppelin/contracts/access/Ownable.sol\":1094:1107  _checkOwner() */\n      tag_133\n        /* \"@openzeppelin/contracts/access/Ownable.sol\":1094:1105  _checkOwner */\n      tag_124\n        /* \"@openzeppelin/contracts/access/Ownable.sol\":1094:1107  _checkOwner() */\n      jump\t// in\n    tag_133:\n        /* \"contracts/KYCManager.sol\":1425:1435  _available */\n      dup1\n        /* \"contracts/KYCManager.sol\":1399:1415  NFTIdToAvailable */\n      0x04\n        /* \"contracts/KYCManager.sol\":1399:1422  NFTIdToAvailable[NFTid] */\n      0x00\n        /* \"contracts/KYCManager.sol\":1416:1421  NFTid */\n      dup5\n        /* \"contracts/KYCManager.sol\":1399:1422  NFTIdToAvailable[NFTid] */\n      dup2\n      mstore\n      0x20\n      add\n      swap1\n      dup2\n      mstore\n      0x20\n      add\n      0x00\n      keccak256\n      0x00\n        /* \"contracts/KYCManager.sol\":1399:1435  NFTIdToAvailable[NFTid] = _available */\n      0x0100\n      exp\n      dup2\n      sload\n      dup2\n      0xff\n      mul\n      not\n      and\n      swap1\n      dup4\n      iszero\n      iszero\n      mul\n      or\n      swap1\n      sstore\n      pop\n        /* \"contracts/KYCManager.sol\":1315:1440  function setNFTAvailableOfNFTId(uint NFTid, bool _available)  public onlyOwner{... */\n      pop\n      pop\n      jump\t// out\n        /* \"@openzeppelin/contracts/access/Ownable.sol\":1201:1286  function owner() public view virtual returns (address) {... */\n    tag_59:\n        /* \"@openzeppelin/contracts/access/Ownable.sol\":1247:1254  address */\n      0x00\n        /* \"@openzeppelin/contracts/access/Ownable.sol\":1273:1279  _owner */\n      dup1\n      0x00\n      swap1\n      sload\n      swap1\n      0x0100\n      exp\n      swap1\n      div\n      0xffffffffffffffffffffffffffffffffffffffff\n      and\n        /* \"@openzeppelin/contracts/access/Ownable.sol\":1266:1279  return _owner */\n      swap1\n      pop\n        /* \"@openzeppelin/contracts/access/Ownable.sol\":1201:1286  function owner() public view virtual returns (address) {... */\n      swap1\n      jump\t// out\n        /* \"contracts/KYCManager.sol\":2692:2895  function userDataOfNFTId(uint NFTid) public view returns(UserData memory){... */\n    tag_64:\n        /* \"contracts/KYCManager.sol\":2749:2764  UserData memory */\n      tag_136\n      tag_137\n      jump\t// in\n    tag_136:\n        /* \"contracts/KYCManager.sol\":2773:2785  address addr */\n      0x00\n        /* \"contracts/KYCManager.sol\":2788:2802  NFTIdToManager */\n      0x02\n        /* \"contracts/KYCManager.sol\":2788:2809  NFTIdToManager[NFTid] */\n      0x00\n        /* \"contracts/KYCManager.sol\":2803:2808  NFTid */\n      dup5\n        /* \"contracts/KYCManager.sol\":2788:2809  NFTIdToManager[NFTid] */\n      dup2\n      mstore\n      0x20\n      add\n      swap1\n      dup2\n      mstore\n      0x20\n      add\n      0x00\n      keccak256\n      0x00\n      swap1\n      sload\n      swap1\n      0x0100\n      exp\n      swap1\n      div\n      0xffffffffffffffffffffffffffffffffffffffff\n      and\n        /* \"contracts/KYCManager.sol\":2773:2809  address addr = NFTIdToManager[NFTid] */\n      swap1\n      pop\n        /* \"contracts/KYCManager.sol\":2817:2841  UserData memory userdata */\n      0x00\n        /* \"contracts/KYCManager.sol\":2844:2861  ManagerToUserData */\n      0x03\n        /* \"contracts/KYCManager.sol\":2844:2867  ManagerToUserData[addr] */\n      0x00\n        /* \"contracts/KYCManager.sol\":2862:2866  addr */\n      dup4\n        /* \"contracts/KYCManager.sol\":2844:2867  ManagerToUserData[addr] */\n      0xffffffffffffffffffffffffffffffffffffffff\n      and\n      0xffffffffffffffffffffffffffffffffffffffff\n      and\n      dup2\n      mstore\n      0x20\n      add\n      swap1\n      dup2\n      mstore\n      0x20\n      add\n      0x00\n      keccak256\n        /* \"contracts/KYCManager.sol\":2817:2867  UserData memory userdata = ManagerToUserData[addr] */\n      mload(0x40)\n      dup1\n      0x80\n      add\n      0x40\n      mstore\n      swap1\n      dup2\n      0x00\n      dup3\n      add\n      sload\n      dup2\n      mstore\n      0x20\n      add\n      0x01\n      dup3\n      add\n      dup1\n      sload\n      tag_139\n      swap1\n      tag_109\n      jump\t// in\n    tag_139:\n      dup1\n      0x1f\n      add\n      0x20\n      dup1\n      swap2\n      div\n      mul\n      0x20\n      add\n      mload(0x40)\n      swap1\n      dup2\n      add\n      0x40\n      mstore\n      dup1\n      swap3\n      swap2\n      swap1\n      dup2\n      dup2\n      mstore\n      0x20\n      add\n      dup3\n      dup1\n      sload\n      tag_140\n      swap1\n      tag_109\n      jump\t// in\n    tag_140:\n      dup1\n      iszero\n      tag_141\n      jumpi\n      dup1\n      0x1f\n      lt\n      tag_142\n      jumpi\n      0x0100\n      dup1\n      dup4\n      sload\n      div\n      mul\n      dup4\n      mstore\n      swap2\n      0x20\n      add\n      swap2\n      jump(tag_141)\n    tag_142:\n      dup3\n      add\n      swap2\n      swap1\n      0x00\n      mstore\n      keccak256(0x00, 0x20)\n      swap1\n    tag_143:\n      dup2\n      sload\n      dup2\n      mstore\n      swap1\n      0x01\n      add\n      swap1\n      0x20\n      add\n      dup1\n      dup4\n      gt\n      tag_143\n      jumpi\n      dup3\n      swap1\n      sub\n      0x1f\n      and\n      dup3\n      add\n      swap2\n    tag_141:\n      pop\n      pop\n      pop\n      pop\n      pop\n      dup2\n      mstore\n      0x20\n      add\n      0x02\n      dup3\n      add\n      dup1\n      sload\n      tag_144\n      swap1\n      tag_109\n      jump\t// in\n    tag_144:\n      dup1\n      0x1f\n      add\n      0x20\n      dup1\n      swap2\n      div\n      mul\n      0x20\n      add\n      mload(0x40)\n      swap1\n      dup2\n      add\n      0x40\n      mstore\n      dup1\n      swap3\n      swap2\n      swap1\n      dup2\n      dup2\n      mstore\n      0x20\n      add\n      dup3\n      dup1\n      sload\n      tag_145\n      swap1\n      tag_109\n      jump\t// in\n    tag_145:\n      dup1\n      iszero\n      tag_146\n      jumpi\n      dup1\n      0x1f\n      lt\n      tag_147\n      jumpi\n      0x0100\n      dup1\n      dup4\n      sload\n      div\n      mul\n      dup4\n      mstore\n      swap2\n      0x20\n      add\n      swap2\n      jump(tag_146)\n    tag_147:\n      dup3\n      add\n      swap2\n      swap1\n      0x00\n      mstore\n      keccak256(0x00, 0x20)\n      swap1\n    tag_148:\n      dup2\n      sload\n      dup2\n      mstore\n      swap1\n      0x01\n      add\n      swap1\n      0x20\n      add\n      dup1\n      dup4\n      gt\n      tag_148\n      jumpi\n      dup3\n      swap1\n      sub\n      0x1f\n      and\n      dup3\n      add\n      swap2\n    tag_146:\n      pop\n      pop\n      pop\n      pop\n      pop\n      dup2\n      mstore\n      0x20\n      add\n      0x03\n      dup3\n      add\n      sload\n      dup2\n      mstore\n      pop\n      pop\n      swap1\n      pop\n        /* \"contracts/KYCManager.sol\":2882:2890  userdata */\n      dup1\n        /* \"contracts/KYCManager.sol\":2875:2890  return userdata */\n      swap3\n      pop\n      pop\n      pop\n        /* \"contracts/KYCManager.sol\":2692:2895  function userDataOfNFTId(uint NFTid) public view returns(UserData memory){... */\n      swap2\n      swap1\n      pop\n      jump\t// out\n        /* \"contracts/KYCManager.sol\":2899:3076  function userDataOfManager(address managerAddr) public view returns(UserData memory){... */\n    tag_70:\n        /* \"contracts/KYCManager.sol\":2967:2982  UserData memory */\n      tag_149\n      tag_137\n      jump\t// in\n    tag_149:\n        /* \"contracts/KYCManager.sol\":2991:3015  UserData memory userdata */\n      0x00\n        /* \"contracts/KYCManager.sol\":3018:3035  ManagerToUserData */\n      0x03\n        /* \"contracts/KYCManager.sol\":3018:3048  ManagerToUserData[managerAddr] */\n      0x00\n        /* \"contracts/KYCManager.sol\":3036:3047  managerAddr */\n      dup5\n        /* \"contracts/KYCManager.sol\":3018:3048  ManagerToUserData[managerAddr] */\n      0xffffffffffffffffffffffffffffffffffffffff\n      and\n      0xffffffffffffffffffffffffffffffffffffffff\n      and\n      dup2\n      mstore\n      0x20\n      add\n      swap1\n      dup2\n      mstore\n      0x20\n      add\n      0x00\n      keccak256\n        /* \"contracts/KYCManager.sol\":2991:3048  UserData memory userdata = ManagerToUserData[managerAddr] */\n      mload(0x40)\n      dup1\n      0x80\n      add\n      0x40\n      mstore\n      swap1\n      dup2\n      0x00\n      dup3\n      add\n      sload\n      dup2\n      mstore\n      0x20\n      add\n      0x01\n      dup3\n      add\n      dup1\n      sload\n      tag_151\n      swap1\n      tag_109\n      jump\t// in\n    tag_151:\n      dup1\n      0x1f\n      add\n      0x20\n      dup1\n      swap2\n      div\n      mul\n      0x20\n      add\n      mload(0x40)\n      swap1\n      dup2\n      add\n      0x40\n      mstore\n      dup1\n      swap3\n      swap2\n      swap1\n      dup2\n      dup2\n      mstore\n      0x20\n      add\n      dup3\n      dup1\n      sload\n      tag_152\n      swap1\n      tag_109\n      jump\t// in\n    tag_152:\n      dup1\n      iszero\n      tag_153\n      jumpi\n      dup1\n      0x1f\n      lt\n      tag_154\n      jumpi\n      0x0100\n      dup1\n      dup4\n      sload\n      div\n      mul\n      dup4\n      mstore\n      swap2\n      0x20\n      add\n      swap2\n      jump(tag_153)\n    tag_154:\n      dup3\n      add\n      swap2\n      swap1\n      0x00\n      mstore\n      keccak256(0x00, 0x20)\n      swap1\n    tag_155:\n      dup2\n      sload\n      dup2\n      mstore\n      swap1\n      0x01\n      add\n      swap1\n      0x20\n      add\n      dup1\n      dup4\n      gt\n      tag_155\n      jumpi\n      dup3\n      swap1\n      sub\n      0x1f\n      and\n      dup3\n      add\n      swap2\n    tag_153:\n      pop\n      pop\n      pop\n      pop\n      pop\n      dup2\n      mstore\n      0x20\n      add\n      0x02\n      dup3\n      add\n      dup1\n      sload\n      tag_156\n      swap1\n      tag_109\n      jump\t// in\n    tag_156:\n      dup1\n      0x1f\n      add\n      0x20\n      dup1\n      swap2\n      div\n      mul\n      0x20\n      add\n      mload(0x40)\n      swap1\n      dup2\n      add\n      0x40\n      mstore\n      dup1\n      swap3\n      swap2\n      swap1\n      dup2\n      dup2\n      mstore\n      0x20\n      add\n      dup3\n      dup1\n      sload\n      tag_157\n      swap1\n      tag_109\n      jump\t// in\n    tag_157:\n      dup1\n      iszero\n      tag_158\n      jumpi\n      dup1\n      0x1f\n      lt\n      tag_159\n      jumpi\n      0x0100\n      dup1\n      dup4\n      sload\n      div\n      mul\n      dup4\n      mstore\n      swap2\n      0x20\n      add\n      swap2\n      jump(tag_158)\n    tag_159:\n      dup3\n      add\n      swap2\n      swap1\n      0x00\n      mstore\n      keccak256(0x00, 0x20)\n      swap1\n    tag_160:\n      dup2\n      sload\n      dup2\n      mstore\n      swap1\n      0x01\n      add\n      swap1\n      0x20\n      add\n      dup1\n      dup4\n      gt\n      tag_160\n      jumpi\n      dup3\n      swap1\n      sub\n      0x1f\n      and\n      dup3\n      add\n      swap2\n    tag_158:\n      pop\n      pop\n      pop\n      pop\n      pop\n      dup2\n      mstore\n      0x20\n      add\n      0x03\n      dup3\n      add\n      sload\n      dup2\n      mstore\n      pop\n      pop\n      swap1\n      pop\n        /* \"contracts/KYCManager.sol\":3063:3071  userdata */\n      dup1\n        /* \"contracts/KYCManager.sol\":3056:3071  return userdata */\n      swap2\n      pop\n      pop\n        /* \"contracts/KYCManager.sol\":2899:3076  function userDataOfManager(address managerAddr) public view returns(UserData memory){... */\n      swap2\n      swap1\n      pop\n      jump\t// out\n        /* \"contracts/KYCManager.sol\":3190:3359  function NFTIdOfManager(address managerAddr) public view returns(uint){... */\n    tag_75:\n        /* \"contracts/KYCManager.sol\":3255:3259  uint */\n      0x00\n        /* \"contracts/KYCManager.sol\":3268:3292  UserData memory userdata */\n      dup1\n        /* \"contracts/KYCManager.sol\":3295:3312  ManagerToUserData */\n      0x03\n        /* \"contracts/KYCManager.sol\":3295:3325  ManagerToUserData[managerAddr] */\n      0x00\n        /* \"contracts/KYCManager.sol\":3313:3324  managerAddr */\n      dup5\n        /* \"contracts/KYCManager.sol\":3295:3325  ManagerToUserData[managerAddr] */\n      0xffffffffffffffffffffffffffffffffffffffff\n      and\n      0xffffffffffffffffffffffffffffffffffffffff\n      and\n      dup2\n      mstore\n      0x20\n      add\n      swap1\n      dup2\n      mstore\n      0x20\n      add\n      0x00\n      keccak256\n        /* \"contracts/KYCManager.sol\":3268:3325  UserData memory userdata = ManagerToUserData[managerAddr] */\n      mload(0x40)\n      dup1\n      0x80\n      add\n      0x40\n      mstore\n      swap1\n      dup2\n      0x00\n      dup3\n      add\n      sload\n      dup2\n      mstore\n      0x20\n      add\n      0x01\n      dup3\n      add\n      dup1\n      sload\n      tag_162\n      swap1\n      tag_109\n      jump\t// in\n    tag_162:\n      dup1\n      0x1f\n      add\n      0x20\n      dup1\n      swap2\n      div\n      mul\n      0x20\n      add\n      mload(0x40)\n      swap1\n      dup2\n      add\n      0x40\n      mstore\n      dup1\n      swap3\n      swap2\n      swap1\n      dup2\n      dup2\n      mstore\n      0x20\n      add\n      dup3\n      dup1\n      sload\n      tag_163\n      swap1\n      tag_109\n      jump\t// in\n    tag_163:\n      dup1\n      iszero\n      tag_164\n      jumpi\n      dup1\n      0x1f\n      lt\n      tag_165\n      jumpi\n      0x0100\n      dup1\n      dup4\n      sload\n      div\n      mul\n      dup4\n      mstore\n      swap2\n      0x20\n      add\n      swap2\n      jump(tag_164)\n    tag_165:\n      dup3\n      add\n      swap2\n      swap1\n      0x00\n      mstore\n      keccak256(0x00, 0x20)\n      swap1\n    tag_166:\n      dup2\n      sload\n      dup2\n      mstore\n      swap1\n      0x01\n      add\n      swap1\n      0x20\n      add\n      dup1\n      dup4\n      gt\n      tag_166\n      jumpi\n      dup3\n      swap1\n      sub\n      0x1f\n      and\n      dup3\n      add\n      swap2\n    tag_164:\n      pop\n      pop\n      pop\n      pop\n      pop\n      dup2\n      mstore\n      0x20\n      add\n      0x02\n      dup3\n      add\n      dup1\n      sload\n      tag_167\n      swap1\n      tag_109\n      jump\t// in\n    tag_167:\n      dup1\n      0x1f\n      add\n      0x20\n      dup1\n      swap2\n      div\n      mul\n      0x20\n      add\n      mload(0x40)\n      swap1\n      dup2\n      add\n      0x40\n      mstore\n      dup1\n      swap3\n      swap2\n      swap1\n      dup2\n      dup2\n      mstore\n      0x20\n      add\n      dup3\n      dup1\n      sload\n      tag_168\n      swap1\n      tag_109\n      jump\t// in\n    tag_168:\n      dup1\n      iszero\n      tag_169\n      jumpi\n      dup1\n      0x1f\n      lt\n      tag_170\n      jumpi\n      0x0100\n      dup1\n      dup4\n      sload\n      div\n      mul\n      dup4\n      mstore\n      swap2\n      0x20\n      add\n      swap2\n      jump(tag_169)\n    tag_170:\n      dup3\n      add\n      swap2\n      swap1\n      0x00\n      mstore\n      keccak256(0x00, 0x20)\n      swap1\n    tag_171:\n      dup2\n      sload\n      dup2\n      mstore\n      swap1\n      0x01\n      add\n      swap1\n      0x20\n      add\n      dup1\n      dup4\n      gt\n      tag_171\n      jumpi\n      dup3\n      swap1\n      sub\n      0x1f\n      and\n      dup3\n      add\n      swap2\n    tag_169:\n      pop\n      pop\n      pop\n      pop\n      pop\n      dup2\n      mstore\n      0x20\n      add\n      0x03\n      dup3\n      add\n      sload\n      dup2\n      mstore\n      pop\n      pop\n      swap1\n      pop\n        /* \"contracts/KYCManager.sol\":3340:3348  userdata */\n      dup1\n        /* \"contracts/KYCManager.sol\":3340:3354  userdata.NFTid */\n      0x00\n      add\n      mload\n        /* \"contracts/KYCManager.sol\":3333:3354  return userdata.NFTid */\n      swap2\n      pop\n      pop\n        /* \"contracts/KYCManager.sol\":3190:3359  function NFTIdOfManager(address managerAddr) public view returns(uint){... */\n      swap2\n      swap1\n      pop\n      jump\t// out\n        /* \"contracts/KYCManager.sol\":1895:2146  function updateAccumulator(string memory _accumulator, string memory _n, uint256 _g) public {... */\n    tag_82:\n        /* \"contracts/KYCManager.sol\":1995:2020  UserData storage userdata */\n      0x00\n        /* \"contracts/KYCManager.sol\":2023:2040  ManagerToUserData */\n      0x03\n        /* \"contracts/KYCManager.sol\":2023:2052  ManagerToUserData[msg.sender] */\n      0x00\n        /* \"contracts/KYCManager.sol\":2041:2051  msg.sender */\n      caller\n        /* \"contracts/KYCManager.sol\":2023:2052  ManagerToUserData[msg.sender] */\n      0xffffffffffffffffffffffffffffffffffffffff\n      and\n      0xffffffffffffffffffffffffffffffffffffffff\n      and\n      dup2\n      mstore\n      0x20\n      add\n      swap1\n      dup2\n      mstore\n      0x20\n      add\n      0x00\n      keccak256\n        /* \"contracts/KYCManager.sol\":1995:2052  UserData storage userdata = ManagerToUserData[msg.sender] */\n      swap1\n      pop\n        /* \"contracts/KYCManager.sol\":2083:2095  _accumulator */\n      dup4\n        /* \"contracts/KYCManager.sol\":2060:2068  userdata */\n      dup2\n        /* \"contracts/KYCManager.sol\":2060:2080  userdata.accumulator */\n      0x01\n      add\n        /* \"contracts/KYCManager.sol\":2060:2095  userdata.accumulator = _accumulator */\n      swap1\n      dup1\n      mload\n      swap1\n      0x20\n      add\n      swap1\n      tag_173\n      swap3\n      swap2\n      swap1\n      tag_120\n      jump\t// in\n    tag_173:\n      pop\n        /* \"contracts/KYCManager.sol\":2116:2118  _n */\n      dup3\n        /* \"contracts/KYCManager.sol\":2103:2111  userdata */\n      dup2\n        /* \"contracts/KYCManager.sol\":2103:2113  userdata.n */\n      0x02\n      add\n        /* \"contracts/KYCManager.sol\":2103:2118  userdata.n = _n */\n      swap1\n      dup1\n      mload\n      swap1\n      0x20\n      add\n      swap1\n      tag_174\n      swap3\n      swap2\n      swap1\n      tag_120\n      jump\t// in\n    tag_174:\n      pop\n        /* \"contracts/KYCManager.sol\":2139:2141  _g */\n      dup2\n        /* \"contracts/KYCManager.sol\":2126:2134  userdata */\n      dup2\n        /* \"contracts/KYCManager.sol\":2126:2136  userdata.g */\n      0x03\n      add\n        /* \"contracts/KYCManager.sol\":2126:2141  userdata.g = _g */\n      dup2\n      swap1\n      sstore\n      pop\n        /* \"contracts/KYCManager.sol\":1987:2146  {... */\n      pop\n        /* \"contracts/KYCManager.sol\":1895:2146  function updateAccumulator(string memory _accumulator, string memory _n, uint256 _g) public {... */\n      pop\n      pop\n      pop\n      jump\t// out\n        /* \"contracts/KYCManager.sol\":904:1309  function createKYCNFT(string memory tokenUrl, address manager, uint expirationTime) public onlyOwner{... */\n    tag_87:\n        /* \"@openzeppelin/contracts/access/Ownable.sol\":1094:1107  _checkOwner() */\n      tag_176\n        /* \"@openzeppelin/contracts/access/Ownable.sol\":1094:1105  _checkOwner */\n      tag_124\n        /* \"@openzeppelin/contracts/access/Ownable.sol\":1094:1107  _checkOwner() */\n      jump\t// in\n    tag_176:\n        /* \"contracts/KYCManager.sol\":1052:1073  address kycnftmanager */\n      0x00\n        /* \"contracts/KYCManager.sol\":1086:1090  this */\n      address\n        /* \"contracts/KYCManager.sol\":1052:1091  address kycnftmanager = (address)(this) */\n      swap1\n      pop\n        /* \"contracts/KYCManager.sol\":1097:1110  uint256 NFTid */\n      0x00\n        /* \"contracts/KYCManager.sol\":1113:1127  kycNFTContract */\n      0x01\n      0x00\n      swap1\n      sload\n      swap1\n      0x0100\n      exp\n      swap1\n      div\n      0xffffffffffffffffffffffffffffffffffffffff\n      and\n        /* \"contracts/KYCManager.sol\":1113:1137  kycNFTContract.awardItem */\n      0xffffffffffffffffffffffffffffffffffffffff\n      and\n      0xcf378343\n        /* \"contracts/KYCManager.sol\":1138:1151  kycnftmanager */\n      dup4\n        /* \"contracts/KYCManager.sol\":1153:1161  tokenUrl */\n      dup8\n        /* \"contracts/KYCManager.sol\":1113:1162  kycNFTContract.awardItem(kycnftmanager, tokenUrl) */\n      mload(0x40)\n      dup4\n      0xffffffff\n      and\n      0xe0\n      shl\n      dup2\n      mstore\n      0x04\n      add\n      tag_178\n      swap3\n      swap2\n      swap1\n      tag_179\n      jump\t// in\n    tag_178:\n      0x20\n      mload(0x40)\n      dup1\n      dup4\n      sub\n      dup2\n      0x00\n      dup8\n      dup1\n      extcodesize\n      iszero\n      dup1\n      iszero\n      tag_180\n      jumpi\n      0x00\n      dup1\n      revert\n    tag_180:\n      pop\n      gas\n      call\n      iszero\n      dup1\n      iszero\n      tag_182\n      jumpi\n      returndatasize\n      0x00\n      dup1\n      returndatacopy\n      revert(0x00, returndatasize)\n    tag_182:\n      pop\n      pop\n      pop\n      pop\n      mload(0x40)\n      returndatasize\n      not(0x1f)\n      0x1f\n      dup3\n      add\n      and\n      dup3\n      add\n      dup1\n      0x40\n      mstore\n      pop\n      dup2\n      add\n      swap1\n      tag_183\n      swap2\n      swap1\n      tag_184\n      jump\t// in\n    tag_183:\n        /* \"contracts/KYCManager.sol\":1097:1162  uint256 NFTid = kycNFTContract.awardItem(kycnftmanager, tokenUrl) */\n      swap1\n      pop\n        /* \"contracts/KYCManager.sol\":1168:1182  kycNFTContract */\n      0x01\n      0x00\n      swap1\n      sload\n      swap1\n      0x0100\n      exp\n      swap1\n      div\n      0xffffffffffffffffffffffffffffffffffffffff\n      and\n        /* \"contracts/KYCManager.sol\":1168:1203  kycNFTContract.updateExpirationTime */\n      0xffffffffffffffffffffffffffffffffffffffff\n      and\n      0xe1b2e979\n        /* \"contracts/KYCManager.sol\":1204:1209  NFTid */\n      dup3\n        /* \"contracts/KYCManager.sol\":1211:1225  expirationTime */\n      dup6\n        /* \"contracts/KYCManager.sol\":1168:1226  kycNFTContract.updateExpirationTime(NFTid, expirationTime) */\n      mload(0x40)\n      dup4\n      0xffffffff\n      and\n      0xe0\n      shl\n      dup2\n      mstore\n      0x04\n      add\n      tag_185\n      swap3\n      swap2\n      swap1\n      tag_186\n      jump\t// in\n    tag_185:\n      0x00\n      mload(0x40)\n      dup1\n      dup4\n      sub\n      dup2\n      0x00\n      dup8\n      dup1\n      extcodesize\n      iszero\n      dup1\n      iszero\n      tag_187\n      jumpi\n      0x00\n      dup1\n      revert\n    tag_187:\n      pop\n      gas\n      call\n      iszero\n      dup1\n      iszero\n      tag_189\n      jumpi\n      returndatasize\n      0x00\n      dup1\n      returndatacopy\n      revert(0x00, returndatasize)\n    tag_189:\n      pop\n      pop\n      pop\n      pop\n        /* \"contracts/KYCManager.sol\":1232:1267  setNFTAvailableOfNFTId(NFTid, true) */\n      tag_190\n        /* \"contracts/KYCManager.sol\":1255:1260  NFTid */\n      dup2\n        /* \"contracts/KYCManager.sol\":1262:1266  true */\n      0x01\n        /* \"contracts/KYCManager.sol\":1232:1254  setNFTAvailableOfNFTId */\n      tag_56\n        /* \"contracts/KYCManager.sol\":1232:1267  setNFTAvailableOfNFTId(NFTid, true) */\n      jump\t// in\n    tag_190:\n        /* \"contracts/KYCManager.sol\":1273:1304  initManagerAddr(NFTid, manager) */\n      tag_191\n        /* \"contracts/KYCManager.sol\":1289:1294  NFTid */\n      dup2\n        /* \"contracts/KYCManager.sol\":1296:1303  manager */\n      dup6\n        /* \"contracts/KYCManager.sol\":1273:1288  initManagerAddr */\n      tag_42\n        /* \"contracts/KYCManager.sol\":1273:1304  initManagerAddr(NFTid, manager) */\n      jump\t// in\n    tag_191:\n        /* \"contracts/KYCManager.sol\":1004:1309  {... */\n      pop\n      pop\n        /* \"contracts/KYCManager.sol\":904:1309  function createKYCNFT(string memory tokenUrl, address manager, uint expirationTime) public onlyOwner{... */\n      pop\n      pop\n      pop\n      jump\t// out\n        /* \"contracts/KYCManager.sol\":2340:2520  function updateAccumulatorValue(string memory _accumulator) public {... */\n    tag_92:\n        /* \"contracts/KYCManager.sol\":2415:2440  UserData storage userdata */\n      0x00\n        /* \"contracts/KYCManager.sol\":2443:2460  ManagerToUserData */\n      0x03\n        /* \"contracts/KYCManager.sol\":2443:2472  ManagerToUserData[msg.sender] */\n      0x00\n        /* \"contracts/KYCManager.sol\":2461:2471  msg.sender */\n      caller\n        /* \"contracts/KYCManager.sol\":2443:2472  ManagerToUserData[msg.sender] */\n      0xffffffffffffffffffffffffffffffffffffffff\n      and\n      0xffffffffffffffffffffffffffffffffffffffff\n      and\n      dup2\n      mstore\n      0x20\n      add\n      swap1\n      dup2\n      mstore\n      0x20\n      add\n      0x00\n      keccak256\n        /* \"contracts/KYCManager.sol\":2415:2472  UserData storage userdata = ManagerToUserData[msg.sender] */\n      swap1\n      pop\n        /* \"contracts/KYCManager.sol\":2503:2515  _accumulator */\n      dup2\n        /* \"contracts/KYCManager.sol\":2480:2488  userdata */\n      dup2\n        /* \"contracts/KYCManager.sol\":2480:2500  userdata.accumulator */\n      0x01\n      add\n        /* \"contracts/KYCManager.sol\":2480:2515  userdata.accumulator = _accumulator */\n      swap1\n      dup1\n      mload\n      swap1\n      0x20\n      add\n      swap1\n      tag_193\n      swap3\n      swap2\n      swap1\n      tag_120\n      jump\t// in\n    tag_193:\n      pop\n        /* \"contracts/KYCManager.sol\":2407:2520  {... */\n      pop\n        /* \"contracts/KYCManager.sol\":2340:2520  function updateAccumulatorValue(string memory _accumulator) public {... */\n      pop\n      jump\t// out\n        /* \"@openzeppelin/contracts/access/Ownable.sol\":2081:2279  function transferOwnership(address newOwner) public virtual onlyOwner {... */\n    tag_96:\n        /* \"@openzeppelin/contracts/access/Ownable.sol\":1094:1107  _checkOwner() */\n      tag_195\n        /* \"@openzeppelin/contracts/access/Ownable.sol\":1094:1105  _checkOwner */\n      tag_124\n        /* \"@openzeppelin/contracts/access/Ownable.sol\":1094:1107  _checkOwner() */\n      jump\t// in\n    tag_195:\n        /* \"@openzeppelin/contracts/access/Ownable.sol\":2189:2190  0 */\n      0x00\n        /* \"@openzeppelin/contracts/access/Ownable.sol\":2169:2191  newOwner != address(0) */\n      0xffffffffffffffffffffffffffffffffffffffff\n      and\n        /* \"@openzeppelin/contracts/access/Ownable.sol\":2169:2177  newOwner */\n      dup2\n        /* \"@openzeppelin/contracts/access/Ownable.sol\":2169:2191  newOwner != address(0) */\n      0xffffffffffffffffffffffffffffffffffffffff\n      and\n      eq\n      iszero\n        /* \"@openzeppelin/contracts/access/Ownable.sol\":2161:2234  require(newOwner != address(0), \"Ownable: new owner is the zero address\") */\n      tag_197\n      jumpi\n      mload(0x40)\n      0x08c379a000000000000000000000000000000000000000000000000000000000\n      dup2\n      mstore\n      0x04\n      add\n      tag_198\n      swap1\n      tag_199\n      jump\t// in\n    tag_198:\n      mload(0x40)\n      dup1\n      swap2\n      sub\n      swap1\n      revert\n    tag_197:\n        /* \"@openzeppelin/contracts/access/Ownable.sol\":2244:2272  _transferOwnership(newOwner) */\n      tag_200\n        /* \"@openzeppelin/contracts/access/Ownable.sol\":2263:2271  newOwner */\n      dup2\n        /* \"@openzeppelin/contracts/access/Ownable.sol\":2244:2262  _transferOwnership */\n      tag_131\n        /* \"@openzeppelin/contracts/access/Ownable.sol\":2244:2272  _transferOwnership(newOwner) */\n      jump\t// in\n    tag_200:\n        /* \"@openzeppelin/contracts/access/Ownable.sol\":2081:2279  function transferOwnership(address newOwner) public virtual onlyOwner {... */\n      pop\n      jump\t// out\n        /* \"contracts/KYCManager.sol\":2150:2336  function updateAccumulatorPublicKey(string memory _n, uint _g) public {... */\n    tag_101:\n        /* \"contracts/KYCManager.sol\":2228:2253  UserData storage userdata */\n      0x00\n        /* \"contracts/KYCManager.sol\":2256:2273  ManagerToUserData */\n      0x03\n        /* \"contracts/KYCManager.sol\":2256:2285  ManagerToUserData[msg.sender] */\n      0x00\n        /* \"contracts/KYCManager.sol\":2274:2284  msg.sender */\n      caller\n        /* \"contracts/KYCManager.sol\":2256:2285  ManagerToUserData[msg.sender] */\n      0xffffffffffffffffffffffffffffffffffffffff\n      and\n      0xffffffffffffffffffffffffffffffffffffffff\n      and\n      dup2\n      mstore\n      0x20\n      add\n      swap1\n      dup2\n      mstore\n      0x20\n      add\n      0x00\n      keccak256\n        /* \"contracts/KYCManager.sol\":2228:2285  UserData storage userdata = ManagerToUserData[msg.sender] */\n      swap1\n      pop\n        /* \"contracts/KYCManager.sol\":2306:2308  _n */\n      dup3\n        /* \"contracts/KYCManager.sol\":2293:2301  userdata */\n      dup2\n        /* \"contracts/KYCManager.sol\":2293:2303  userdata.n */\n      0x02\n      add\n        /* \"contracts/KYCManager.sol\":2293:2308  userdata.n = _n */\n      swap1\n      dup1\n      mload\n      swap1\n      0x20\n      add\n      swap1\n      tag_202\n      swap3\n      swap2\n      swap1\n      tag_120\n      jump\t// in\n    tag_202:\n      pop\n        /* \"contracts/KYCManager.sol\":2329:2331  _g */\n      dup2\n        /* \"contracts/KYCManager.sol\":2316:2324  userdata */\n      dup2\n        /* \"contracts/KYCManager.sol\":2316:2326  userdata.g */\n      0x03\n      add\n        /* \"contracts/KYCManager.sol\":2316:2331  userdata.g = _g */\n      dup2\n      swap1\n      sstore\n      pop\n        /* \"contracts/KYCManager.sol\":2220:2336  {... */\n      pop\n        /* \"contracts/KYCManager.sol\":2150:2336  function updateAccumulatorPublicKey(string memory _n, uint _g) public {... */\n      pop\n      pop\n      jump\t// out\n        /* \"contracts/KYCManager.sol\":754:898  function setKYCNFTContractAddress(address _kycnftContractAddr) public onlyOwner {... */\n    tag_105:\n        /* \"@openzeppelin/contracts/access/Ownable.sol\":1094:1107  _checkOwner() */\n      tag_204\n        /* \"@openzeppelin/contracts/access/Ownable.sol\":1094:1105  _checkOwner */\n      tag_124\n        /* \"@openzeppelin/contracts/access/Ownable.sol\":1094:1107  _checkOwner() */\n      jump\t// in\n    tag_204:\n        /* \"contracts/KYCManager.sol\":873:892  _kycnftContractAddr */\n      dup1\n        /* \"contracts/KYCManager.sol\":840:854  kycNFTContract */\n      0x01\n      0x00\n        /* \"contracts/KYCManager.sol\":840:893  kycNFTContract = KYCNFTInterface(_kycnftContractAddr) */\n      0x0100\n      exp\n      dup2\n      sload\n      dup2\n      0xffffffffffffffffffffffffffffffffffffffff\n      mul\n      not\n      and\n      swap1\n      dup4\n      0xffffffffffffffffffffffffffffffffffffffff\n      and\n      mul\n      or\n      swap1\n      sstore\n      pop\n        /* \"contracts/KYCManager.sol\":754:898  function setKYCNFTContractAddress(address _kycnftContractAddr) public onlyOwner {... */\n      pop\n      jump\t// out\n        /* \"@openzeppelin/contracts/access/Ownable.sol\":1359:1489  function _checkOwner() internal view virtual {... */\n    tag_124:\n        /* \"@openzeppelin/contracts/access/Ownable.sol\":1433:1445  _msgSender() */\n      tag_207\n        /* \"@openzeppelin/contracts/access/Ownable.sol\":1433:1443  _msgSender */\n      tag_208\n        /* \"@openzeppelin/contracts/access/Ownable.sol\":1433:1445  _msgSender() */\n      jump\t// in\n    tag_207:\n        /* \"@openzeppelin/contracts/access/Ownable.sol\":1422:1445  owner() == _msgSender() */\n      0xffffffffffffffffffffffffffffffffffffffff\n      and\n        /* \"@openzeppelin/contracts/access/Ownable.sol\":1422:1429  owner() */\n      tag_209\n        /* \"@openzeppelin/contracts/access/Ownable.sol\":1422:1427  owner */\n      tag_59\n        /* \"@openzeppelin/contracts/access/Ownable.sol\":1422:1429  owner() */\n      jump\t// in\n    tag_209:\n        /* \"@openzeppelin/contracts/access/Ownable.sol\":1422:1445  owner() == _msgSender() */\n      0xffffffffffffffffffffffffffffffffffffffff\n      and\n      eq\n        /* \"@openzeppelin/contracts/access/Ownable.sol\":1414:1482  require(owner() == _msgSender(), \"Ownable: caller is not the owner\") */\n      tag_210\n      jumpi\n      mload(0x40)\n      0x08c379a000000000000000000000000000000000000000000000000000000000\n      dup2\n      mstore\n      0x04\n      add\n      tag_211\n      swap1\n      tag_212\n      jump\t// in\n    tag_211:\n      mload(0x40)\n      dup1\n      swap2\n      sub\n      swap1\n      revert\n    tag_210:\n        /* \"@openzeppelin/contracts/access/Ownable.sol\":1359:1489  function _checkOwner() internal view virtual {... */\n      jump\t// out\n        /* \"@openzeppelin/contracts/access/Ownable.sol\":2433:2620  function _transferOwnership(address newOwner) internal virtual {... */\n    tag_131:\n        /* \"@openzeppelin/contracts/access/Ownable.sol\":2506:2522  address oldOwner */\n      0x00\n        /* \"@openzeppelin/contracts/access/Ownable.sol\":2525:2531  _owner */\n      dup1\n      0x00\n      swap1\n      sload\n      swap1\n      0x0100\n      exp\n      swap1\n      div\n      0xffffffffffffffffffffffffffffffffffffffff\n      and\n        /* \"@openzeppelin/contracts/access/Ownable.sol\":2506:2531  address oldOwner = _owner */\n      swap1\n      pop\n        /* \"@openzeppelin/contracts/access/Ownable.sol\":2550:2558  newOwner */\n      dup2\n        /* \"@openzeppelin/contracts/access/Ownable.sol\":2541:2547  _owner */\n      0x00\n      dup1\n        /* \"@openzeppelin/contracts/access/Ownable.sol\":2541:2558  _owner = newOwner */\n      0x0100\n      exp\n      dup2\n      sload\n      dup2\n      0xffffffffffffffffffffffffffffffffffffffff\n      mul\n      not\n      and\n      swap1\n      dup4\n      0xffffffffffffffffffffffffffffffffffffffff\n      and\n      mul\n      or\n      swap1\n      sstore\n      pop\n        /* \"@openzeppelin/contracts/access/Ownable.sol\":2604:2612  newOwner */\n      dup2\n        /* \"@openzeppelin/contracts/access/Ownable.sol\":2573:2613  OwnershipTransferred(oldOwner, newOwner) */\n      0xffffffffffffffffffffffffffffffffffffffff\n      and\n        /* \"@openzeppelin/contracts/access/Ownable.sol\":2594:2602  oldOwner */\n      dup2\n        /* \"@openzeppelin/contracts/access/Ownable.sol\":2573:2613  OwnershipTransferred(oldOwner, newOwner) */\n      0xffffffffffffffffffffffffffffffffffffffff\n      and\n      0x8be0079c531659141344cd1fd0a4f28419497f9722a3daafe3b4186f6b6457e0\n      mload(0x40)\n      mload(0x40)\n      dup1\n      swap2\n      sub\n      swap1\n      log3\n        /* \"@openzeppelin/contracts/access/Ownable.sol\":2496:2620  {... */\n      pop\n        /* \"@openzeppelin/contracts/access/Ownable.sol\":2433:2620  function _transferOwnership(address newOwner) internal virtual {... */\n      pop\n      jump\t// out\n        /* \"@openzeppelin/contracts/utils/Context.sol\":640:736  function _msgSender() internal view virtual returns (address) {... */\n    tag_208:\n        /* \"@openzeppelin/contracts/utils/Context.sol\":693:700  address */\n      0x00\n        /* \"@openzeppelin/contracts/utils/Context.sol\":719:729  msg.sender */\n      caller\n        /* \"@openzeppelin/contracts/utils/Context.sol\":712:729  return msg.sender */\n      swap1\n      pop\n        /* \"@openzeppelin/contracts/utils/Context.sol\":640:736  function _msgSender() internal view virtual returns (address) {... */\n      swap1\n      jump\t// out\n    tag_120:\n      dup3\n      dup1\n      sload\n      tag_215\n      swap1\n      tag_109\n      jump\t// in\n    tag_215:\n      swap1\n      0x00\n      mstore\n      keccak256(0x00, 0x20)\n      swap1\n      0x1f\n      add\n      0x20\n      swap1\n      div\n      dup2\n      add\n      swap3\n      dup3\n      tag_217\n      jumpi\n      0x00\n      dup6\n      sstore\n      jump(tag_216)\n    tag_217:\n      dup3\n      0x1f\n      lt\n      tag_218\n      jumpi\n      dup1\n      mload\n      not(0xff)\n      and\n      dup4\n      dup1\n      add\n      or\n      dup6\n      sstore\n      jump(tag_216)\n    tag_218:\n      dup3\n      dup1\n      add\n      0x01\n      add\n      dup6\n      sstore\n      dup3\n      iszero\n      tag_216\n      jumpi\n      swap2\n      dup3\n      add\n    tag_219:\n      dup3\n      dup2\n      gt\n      iszero\n      tag_220\n      jumpi\n      dup3\n      mload\n      dup3\n      sstore\n      swap2\n      0x20\n      add\n      swap2\n      swap1\n      0x01\n      add\n      swap1\n      jump(tag_219)\n    tag_220:\n    tag_216:\n      pop\n      swap1\n      pop\n      tag_221\n      swap2\n      swap1\n      tag_222\n      jump\t// in\n    tag_221:\n      pop\n      swap1\n      jump\t// out\n    tag_137:\n      mload(0x40)\n      dup1\n      0x80\n      add\n      0x40\n      mstore\n      dup1\n      0x00\n      dup2\n      mstore\n      0x20\n      add\n      0x60\n      dup2\n      mstore\n      0x20\n      add\n      0x60\n      dup2\n      mstore\n      0x20\n      add\n      0x00\n      dup2\n      mstore\n      pop\n      swap1\n      jump\t// out\n    tag_222:\n    tag_223:\n      dup1\n      dup3\n      gt\n      iszero\n      tag_224\n      jumpi\n      0x00\n      dup2\n      0x00\n      swap1\n      sstore\n      pop\n      0x01\n      add\n      jump(tag_223)\n    tag_224:\n      pop\n      swap1\n      jump\t// out\n        /* \"#utility.yul\":7:419   */\n    tag_226:\n        /* \"#utility.yul\":85:90   */\n      0x00\n        /* \"#utility.yul\":110:176   */\n      tag_228\n        /* \"#utility.yul\":126:175   */\n      tag_229\n        /* \"#utility.yul\":168:174   */\n      dup5\n        /* \"#utility.yul\":126:175   */\n      tag_230\n      jump\t// in\n    tag_229:\n        /* \"#utility.yul\":110:176   */\n      tag_231\n      jump\t// in\n    tag_228:\n        /* \"#utility.yul\":101:176   */\n      swap1\n      pop\n        /* \"#utility.yul\":199:205   */\n      dup3\n        /* \"#utility.yul\":192:197   */\n      dup2\n        /* \"#utility.yul\":185:206   */\n      mstore\n        /* \"#utility.yul\":237:241   */\n      0x20\n        /* \"#utility.yul\":230:235   */\n      dup2\n        /* \"#utility.yul\":226:242   */\n      add\n        /* \"#utility.yul\":275:278   */\n      dup5\n        /* \"#utility.yul\":266:272   */\n      dup5\n        /* \"#utility.yul\":261:264   */\n      dup5\n        /* \"#utility.yul\":257:273   */\n      add\n        /* \"#utility.yul\":254:279   */\n      gt\n        /* \"#utility.yul\":251:363   */\n      iszero\n      tag_232\n      jumpi\n        /* \"#utility.yul\":282:361   */\n      tag_233\n      tag_234\n      jump\t// in\n    tag_233:\n        /* \"#utility.yul\":251:363   */\n    tag_232:\n        /* \"#utility.yul\":372:413   */\n      tag_235\n        /* \"#utility.yul\":406:412   */\n      dup5\n        /* \"#utility.yul\":401:404   */\n      dup3\n        /* \"#utility.yul\":396:399   */\n      dup6\n        /* \"#utility.yul\":372:413   */\n      tag_236\n      jump\t// in\n    tag_235:\n        /* \"#utility.yul\":91:419   */\n      pop\n        /* \"#utility.yul\":7:419   */\n      swap4\n      swap3\n      pop\n      pop\n      pop\n      jump\t// out\n        /* \"#utility.yul\":425:564   */\n    tag_237:\n        /* \"#utility.yul\":471:476   */\n      0x00\n        /* \"#utility.yul\":509:515   */\n      dup2\n        /* \"#utility.yul\":496:516   */\n      calldataload\n        /* \"#utility.yul\":487:516   */\n      swap1\n      pop\n        /* \"#utility.yul\":525:558   */\n      tag_239\n        /* \"#utility.yul\":552:557   */\n      dup2\n        /* \"#utility.yul\":525:558   */\n      tag_240\n      jump\t// in\n    tag_239:\n        /* \"#utility.yul\":425:564   */\n      swap3\n      swap2\n      pop\n      pop\n      jump\t// out\n        /* \"#utility.yul\":570:703   */\n    tag_241:\n        /* \"#utility.yul\":613:618   */\n      0x00\n        /* \"#utility.yul\":651:657   */\n      dup2\n        /* \"#utility.yul\":638:658   */\n      calldataload\n        /* \"#utility.yul\":629:658   */\n      swap1\n      pop\n        /* \"#utility.yul\":667:697   */\n      tag_243\n        /* \"#utility.yul\":691:696   */\n      dup2\n        /* \"#utility.yul\":667:697   */\n      tag_244\n      jump\t// in\n    tag_243:\n        /* \"#utility.yul\":570:703   */\n      swap3\n      swap2\n      pop\n      pop\n      jump\t// out\n        /* \"#utility.yul\":723:1063   */\n    tag_245:\n        /* \"#utility.yul\":779:784   */\n      0x00\n        /* \"#utility.yul\":828:831   */\n      dup3\n        /* \"#utility.yul\":821:825   */\n      0x1f\n        /* \"#utility.yul\":813:819   */\n      dup4\n        /* \"#utility.yul\":809:826   */\n      add\n        /* \"#utility.yul\":805:832   */\n      slt\n        /* \"#utility.yul\":795:917   */\n      tag_247\n      jumpi\n        /* \"#utility.yul\":836:915   */\n      tag_248\n      tag_249\n      jump\t// in\n    tag_248:\n        /* \"#utility.yul\":795:917   */\n    tag_247:\n        /* \"#utility.yul\":953:959   */\n      dup2\n        /* \"#utility.yul\":940:960   */\n      calldataload\n        /* \"#utility.yul\":978:1057   */\n      tag_250\n        /* \"#utility.yul\":1053:1056   */\n      dup5\n        /* \"#utility.yul\":1045:1051   */\n      dup3\n        /* \"#utility.yul\":1038:1042   */\n      0x20\n        /* \"#utility.yul\":1030:1036   */\n      dup7\n        /* \"#utility.yul\":1026:1043   */\n      add\n        /* \"#utility.yul\":978:1057   */\n      tag_226\n      jump\t// in\n    tag_250:\n        /* \"#utility.yul\":969:1057   */\n      swap2\n      pop\n        /* \"#utility.yul\":785:1063   */\n      pop\n        /* \"#utility.yul\":723:1063   */\n      swap3\n      swap2\n      pop\n      pop\n      jump\t// out\n        /* \"#utility.yul\":1069:1208   */\n    tag_251:\n        /* \"#utility.yul\":1115:1120   */\n      0x00\n        /* \"#utility.yul\":1153:1159   */\n      dup2\n        /* \"#utility.yul\":1140:1160   */\n      calldataload\n        /* \"#utility.yul\":1131:1160   */\n      swap1\n      pop\n        /* \"#utility.yul\":1169:1202   */\n      tag_253\n        /* \"#utility.yul\":1196:1201   */\n      dup2\n        /* \"#utility.yul\":1169:1202   */\n      tag_254\n      jump\t// in\n    tag_253:\n        /* \"#utility.yul\":1069:1208   */\n      swap3\n      swap2\n      pop\n      pop\n      jump\t// out\n        /* \"#utility.yul\":1214:1357   */\n    tag_255:\n        /* \"#utility.yul\":1271:1276   */\n      0x00\n        /* \"#utility.yul\":1302:1308   */\n      dup2\n        /* \"#utility.yul\":1296:1309   */\n      mload\n        /* \"#utility.yul\":1287:1309   */\n      swap1\n      pop\n        /* \"#utility.yul\":1318:1351   */\n      tag_257\n        /* \"#utility.yul\":1345:1350   */\n      dup2\n        /* \"#utility.yul\":1318:1351   */\n      tag_254\n      jump\t// in\n    tag_257:\n        /* \"#utility.yul\":1214:1357   */\n      swap3\n      swap2\n      pop\n      pop\n      jump\t// out\n        /* \"#utility.yul\":1363:1692   */\n    tag_36:\n        /* \"#utility.yul\":1422:1428   */\n      0x00\n        /* \"#utility.yul\":1471:1473   */\n      0x20\n        /* \"#utility.yul\":1459:1468   */\n      dup3\n        /* \"#utility.yul\":1450:1457   */\n      dup5\n        /* \"#utility.yul\":1446:1469   */\n      sub\n        /* \"#utility.yul\":1442:1474   */\n      slt\n        /* \"#utility.yul\":1439:1558   */\n      iszero\n      tag_259\n      jumpi\n        /* \"#utility.yul\":1477:1556   */\n      tag_260\n      tag_261\n      jump\t// in\n    tag_260:\n        /* \"#utility.yul\":1439:1558   */\n    tag_259:\n        /* \"#utility.yul\":1597:1598   */\n      0x00\n        /* \"#utility.yul\":1622:1675   */\n      tag_262\n        /* \"#utility.yul\":1667:1674   */\n      dup5\n        /* \"#utility.yul\":1658:1664   */\n      dup3\n        /* \"#utility.yul\":1647:1656   */\n      dup6\n        /* \"#utility.yul\":1643:1665   */\n      add\n        /* \"#utility.yul\":1622:1675   */\n      tag_237\n      jump\t// in\n    tag_262:\n        /* \"#utility.yul\":1612:1675   */\n      swap2\n      pop\n        /* \"#utility.yul\":1568:1685   */\n      pop\n        /* \"#utility.yul\":1363:1692   */\n      swap3\n      swap2\n      pop\n      pop\n      jump\t// out\n        /* \"#utility.yul\":1698:2207   */\n    tag_91:\n        /* \"#utility.yul\":1767:1773   */\n      0x00\n        /* \"#utility.yul\":1816:1818   */\n      0x20\n        /* \"#utility.yul\":1804:1813   */\n      dup3\n        /* \"#utility.yul\":1795:1802   */\n      dup5\n        /* \"#utility.yul\":1791:1814   */\n      sub\n        /* \"#utility.yul\":1787:1819   */\n      slt\n        /* \"#utility.yul\":1784:1903   */\n      iszero\n      tag_264\n      jumpi\n        /* \"#utility.yul\":1822:1901   */\n      tag_265\n      tag_261\n      jump\t// in\n    tag_265:\n        /* \"#utility.yul\":1784:1903   */\n    tag_264:\n        /* \"#utility.yul\":1970:1971   */\n      0x00\n        /* \"#utility.yul\":1959:1968   */\n      dup3\n        /* \"#utility.yul\":1955:1972   */\n      add\n        /* \"#utility.yul\":1942:1973   */\n      calldataload\n        /* \"#utility.yul\":2000:2018   */\n      0xffffffffffffffff\n        /* \"#utility.yul\":1992:1998   */\n      dup2\n        /* \"#utility.yul\":1989:2019   */\n      gt\n        /* \"#utility.yul\":1986:2103   */\n      iszero\n      tag_266\n      jumpi\n        /* \"#utility.yul\":2022:2101   */\n      tag_267\n      tag_268\n      jump\t// in\n    tag_267:\n        /* \"#utility.yul\":1986:2103   */\n    tag_266:\n        /* \"#utility.yul\":2127:2190   */\n      tag_269\n        /* \"#utility.yul\":2182:2189   */\n      dup5\n        /* \"#utility.yul\":2173:2179   */\n      dup3\n        /* \"#utility.yul\":2162:2171   */\n      dup6\n        /* \"#utility.yul\":2158:2180   */\n      add\n        /* \"#utility.yul\":2127:2190   */\n      tag_245\n      jump\t// in\n    tag_269:\n        /* \"#utility.yul\":2117:2190   */\n      swap2\n      pop\n        /* \"#utility.yul\":1913:2200   */\n      pop\n        /* \"#utility.yul\":1698:2207   */\n      swap3\n      swap2\n      pop\n      pop\n      jump\t// out\n        /* \"#utility.yul\":2213:3012   */\n    tag_86:\n        /* \"#utility.yul\":2300:2306   */\n      0x00\n        /* \"#utility.yul\":2308:2314   */\n      dup1\n        /* \"#utility.yul\":2316:2322   */\n      0x00\n        /* \"#utility.yul\":2365:2367   */\n      0x60\n        /* \"#utility.yul\":2353:2362   */\n      dup5\n        /* \"#utility.yul\":2344:2351   */\n      dup7\n        /* \"#utility.yul\":2340:2363   */\n      sub\n        /* \"#utility.yul\":2336:2368   */\n      slt\n        /* \"#utility.yul\":2333:2452   */\n      iszero\n      tag_271\n      jumpi\n        /* \"#utility.yul\":2371:2450   */\n      tag_272\n      tag_261\n      jump\t// in\n    tag_272:\n        /* \"#utility.yul\":2333:2452   */\n    tag_271:\n        /* \"#utility.yul\":2519:2520   */\n      0x00\n        /* \"#utility.yul\":2508:2517   */\n      dup5\n        /* \"#utility.yul\":2504:2521   */\n      add\n        /* \"#utility.yul\":2491:2522   */\n      calldataload\n        /* \"#utility.yul\":2549:2567   */\n      0xffffffffffffffff\n        /* \"#utility.yul\":2541:2547   */\n      dup2\n        /* \"#utility.yul\":2538:2568   */\n      gt\n        /* \"#utility.yul\":2535:2652   */\n      iszero\n      tag_273\n      jumpi\n        /* \"#utility.yul\":2571:2650   */\n      tag_274\n      tag_268\n      jump\t// in\n    tag_274:\n        /* \"#utility.yul\":2535:2652   */\n    tag_273:\n        /* \"#utility.yul\":2676:2739   */\n      tag_275\n        /* \"#utility.yul\":2731:2738   */\n      dup7\n        /* \"#utility.yul\":2722:2728   */\n      dup3\n        /* \"#utility.yul\":2711:2720   */\n      dup8\n        /* \"#utility.yul\":2707:2729   */\n      add\n        /* \"#utility.yul\":2676:2739   */\n      tag_245\n      jump\t// in\n    tag_275:\n        /* \"#utility.yul\":2666:2739   */\n      swap4\n      pop\n        /* \"#utility.yul\":2462:2749   */\n      pop\n        /* \"#utility.yul\":2788:2790   */\n      0x20\n        /* \"#utility.yul\":2814:2867   */\n      tag_276\n        /* \"#utility.yul\":2859:2866   */\n      dup7\n        /* \"#utility.yul\":2850:2856   */\n      dup3\n        /* \"#utility.yul\":2839:2848   */\n      dup8\n        /* \"#utility.yul\":2835:2857   */\n      add\n        /* \"#utility.yul\":2814:2867   */\n      tag_237\n      jump\t// in\n    tag_276:\n        /* \"#utility.yul\":2804:2867   */\n      swap3\n      pop\n        /* \"#utility.yul\":2759:2877   */\n      pop\n        /* \"#utility.yul\":2916:2918   */\n      0x40\n        /* \"#utility.yul\":2942:2995   */\n      tag_277\n        /* \"#utility.yul\":2987:2994   */\n      dup7\n        /* \"#utility.yul\":2978:2984   */\n      dup3\n        /* \"#utility.yul\":2967:2976   */\n      dup8\n        /* \"#utility.yul\":2963:2985   */\n      add\n        /* \"#utility.yul\":2942:2995   */\n      tag_251\n      jump\t// in\n    tag_277:\n        /* \"#utility.yul\":2932:2995   */\n      swap2\n      pop\n        /* \"#utility.yul\":2887:3005   */\n      pop\n        /* \"#utility.yul\":2213:3012   */\n      swap3\n      pop\n      swap3\n      pop\n      swap3\n      jump\t// out\n        /* \"#utility.yul\":3018:3997   */\n    tag_81:\n        /* \"#utility.yul\":3115:3121   */\n      0x00\n        /* \"#utility.yul\":3123:3129   */\n      dup1\n        /* \"#utility.yul\":3131:3137   */\n      0x00\n        /* \"#utility.yul\":3180:3182   */\n      0x60\n        /* \"#utility.yul\":3168:3177   */\n      dup5\n        /* \"#utility.yul\":3159:3166   */\n      dup7\n        /* \"#utility.yul\":3155:3178   */\n      sub\n        /* \"#utility.yul\":3151:3183   */\n      slt\n        /* \"#utility.yul\":3148:3267   */\n      iszero\n      tag_279\n      jumpi\n        /* \"#utility.yul\":3186:3265   */\n      tag_280\n      tag_261\n      jump\t// in\n    tag_280:\n        /* \"#utility.yul\":3148:3267   */\n    tag_279:\n        /* \"#utility.yul\":3334:3335   */\n      0x00\n        /* \"#utility.yul\":3323:3332   */\n      dup5\n        /* \"#utility.yul\":3319:3336   */\n      add\n        /* \"#utility.yul\":3306:3337   */\n      calldataload\n        /* \"#utility.yul\":3364:3382   */\n      0xffffffffffffffff\n        /* \"#utility.yul\":3356:3362   */\n      dup2\n        /* \"#utility.yul\":3353:3383   */\n      gt\n        /* \"#utility.yul\":3350:3467   */\n      iszero\n      tag_281\n      jumpi\n        /* \"#utility.yul\":3386:3465   */\n      tag_282\n      tag_268\n      jump\t// in\n    tag_282:\n        /* \"#utility.yul\":3350:3467   */\n    tag_281:\n        /* \"#utility.yul\":3491:3554   */\n      tag_283\n        /* \"#utility.yul\":3546:3553   */\n      dup7\n        /* \"#utility.yul\":3537:3543   */\n      dup3\n        /* \"#utility.yul\":3526:3535   */\n      dup8\n        /* \"#utility.yul\":3522:3544   */\n      add\n        /* \"#utility.yul\":3491:3554   */\n      tag_245\n      jump\t// in\n    tag_283:\n        /* \"#utility.yul\":3481:3554   */\n      swap4\n      pop\n        /* \"#utility.yul\":3277:3564   */\n      pop\n        /* \"#utility.yul\":3631:3633   */\n      0x20\n        /* \"#utility.yul\":3620:3629   */\n      dup5\n        /* \"#utility.yul\":3616:3634   */\n      add\n        /* \"#utility.yul\":3603:3635   */\n      calldataload\n        /* \"#utility.yul\":3662:3680   */\n      0xffffffffffffffff\n        /* \"#utility.yul\":3654:3660   */\n      dup2\n        /* \"#utility.yul\":3651:3681   */\n      gt\n        /* \"#utility.yul\":3648:3765   */\n      iszero\n      tag_284\n      jumpi\n        /* \"#utility.yul\":3684:3763   */\n      tag_285\n      tag_268\n      jump\t// in\n    tag_285:\n        /* \"#utility.yul\":3648:3765   */\n    tag_284:\n        /* \"#utility.yul\":3789:3852   */\n      tag_286\n        /* \"#utility.yul\":3844:3851   */\n      dup7\n        /* \"#utility.yul\":3835:3841   */\n      dup3\n        /* \"#utility.yul\":3824:3833   */\n      dup8\n        /* \"#utility.yul\":3820:3842   */\n      add\n        /* \"#utility.yul\":3789:3852   */\n      tag_245\n      jump\t// in\n    tag_286:\n        /* \"#utility.yul\":3779:3852   */\n      swap3\n      pop\n        /* \"#utility.yul\":3574:3862   */\n      pop\n        /* \"#utility.yul\":3901:3903   */\n      0x40\n        /* \"#utility.yul\":3927:3980   */\n      tag_287\n        /* \"#utility.yul\":3972:3979   */\n      dup7\n        /* \"#utility.yul\":3963:3969   */\n      dup3\n        /* \"#utility.yul\":3952:3961   */\n      dup8\n        /* \"#utility.yul\":3948:3970   */\n      add\n        /* \"#utility.yul\":3927:3980   */\n      tag_251\n      jump\t// in\n    tag_287:\n        /* \"#utility.yul\":3917:3980   */\n      swap2\n      pop\n        /* \"#utility.yul\":3872:3990   */\n      pop\n        /* \"#utility.yul\":3018:3997   */\n      swap3\n      pop\n      swap3\n      pop\n      swap3\n      jump\t// out\n        /* \"#utility.yul\":4003:4657   */\n    tag_100:\n        /* \"#utility.yul\":4081:4087   */\n      0x00\n        /* \"#utility.yul\":4089:4095   */\n      dup1\n        /* \"#utility.yul\":4138:4140   */\n      0x40\n        /* \"#utility.yul\":4126:4135   */\n      dup4\n        /* \"#utility.yul\":4117:4124   */\n      dup6\n        /* \"#utility.yul\":4113:4136   */\n      sub\n        /* \"#utility.yul\":4109:4141   */\n      slt\n        /* \"#utility.yul\":4106:4225   */\n      iszero\n      tag_289\n      jumpi\n        /* \"#utility.yul\":4144:4223   */\n      tag_290\n      tag_261\n      jump\t// in\n    tag_290:\n        /* \"#utility.yul\":4106:4225   */\n    tag_289:\n        /* \"#utility.yul\":4292:4293   */\n      0x00\n        /* \"#utility.yul\":4281:4290   */\n      dup4\n        /* \"#utility.yul\":4277:4294   */\n      add\n        /* \"#utility.yul\":4264:4295   */\n      calldataload\n        /* \"#utility.yul\":4322:4340   */\n      0xffffffffffffffff\n        /* \"#utility.yul\":4314:4320   */\n      dup2\n        /* \"#utility.yul\":4311:4341   */\n      gt\n        /* \"#utility.yul\":4308:4425   */\n      iszero\n      tag_291\n      jumpi\n        /* \"#utility.yul\":4344:4423   */\n      tag_292\n      tag_268\n      jump\t// in\n    tag_292:\n        /* \"#utility.yul\":4308:4425   */\n    tag_291:\n        /* \"#utility.yul\":4449:4512   */\n      tag_293\n        /* \"#utility.yul\":4504:4511   */\n      dup6\n        /* \"#utility.yul\":4495:4501   */\n      dup3\n        /* \"#utility.yul\":4484:4493   */\n      dup7\n        /* \"#utility.yul\":4480:4502   */\n      add\n        /* \"#utility.yul\":4449:4512   */\n      tag_245\n      jump\t// in\n    tag_293:\n        /* \"#utility.yul\":4439:4512   */\n      swap3\n      pop\n        /* \"#utility.yul\":4235:4522   */\n      pop\n        /* \"#utility.yul\":4561:4563   */\n      0x20\n        /* \"#utility.yul\":4587:4640   */\n      tag_294\n        /* \"#utility.yul\":4632:4639   */\n      dup6\n        /* \"#utility.yul\":4623:4629   */\n      dup3\n        /* \"#utility.yul\":4612:4621   */\n      dup7\n        /* \"#utility.yul\":4608:4630   */\n      add\n        /* \"#utility.yul\":4587:4640   */\n      tag_251\n      jump\t// in\n    tag_294:\n        /* \"#utility.yul\":4577:4640   */\n      swap2\n      pop\n        /* \"#utility.yul\":4532:4650   */\n      pop\n        /* \"#utility.yul\":4003:4657   */\n      swap3\n      pop\n      swap3\n      swap1\n      pop\n      jump\t// out\n        /* \"#utility.yul\":4663:4992   */\n    tag_29:\n        /* \"#utility.yul\":4722:4728   */\n      0x00\n        /* \"#utility.yul\":4771:4773   */\n      0x20\n        /* \"#utility.yul\":4759:4768   */\n      dup3\n        /* \"#utility.yul\":4750:4757   */\n      dup5\n        /* \"#utility.yul\":4746:4769   */\n      sub\n        /* \"#utility.yul\":4742:4774   */\n      slt\n        /* \"#utility.yul\":4739:4858   */\n      iszero\n      tag_296\n      jumpi\n        /* \"#utility.yul\":4777:4856   */\n      tag_297\n      tag_261\n      jump\t// in\n    tag_297:\n        /* \"#utility.yul\":4739:4858   */\n    tag_296:\n        /* \"#utility.yul\":4897:4898   */\n      0x00\n        /* \"#utility.yul\":4922:4975   */\n      tag_298\n        /* \"#utility.yul\":4967:4974   */\n      dup5\n        /* \"#utility.yul\":4958:4964   */\n      dup3\n        /* \"#utility.yul\":4947:4956   */\n      dup6\n        /* \"#utility.yul\":4943:4965   */\n      add\n        /* \"#utility.yul\":4922:4975   */\n      tag_251\n      jump\t// in\n    tag_298:\n        /* \"#utility.yul\":4912:4975   */\n      swap2\n      pop\n        /* \"#utility.yul\":4868:4985   */\n      pop\n        /* \"#utility.yul\":4663:4992   */\n      swap3\n      swap2\n      pop\n      pop\n      jump\t// out\n        /* \"#utility.yul\":4998:5349   */\n    tag_184:\n        /* \"#utility.yul\":5068:5074   */\n      0x00\n        /* \"#utility.yul\":5117:5119   */\n      0x20\n        /* \"#utility.yul\":5105:5114   */\n      dup3\n        /* \"#utility.yul\":5096:5103   */\n      dup5\n        /* \"#utility.yul\":5092:5115   */\n      sub\n        /* \"#utility.yul\":5088:5120   */\n      slt\n        /* \"#utility.yul\":5085:5204   */\n      iszero\n      tag_300\n      jumpi\n        /* \"#utility.yul\":5123:5202   */\n      tag_301\n      tag_261\n      jump\t// in\n    tag_301:\n        /* \"#utility.yul\":5085:5204   */\n    tag_300:\n        /* \"#utility.yul\":5243:5244   */\n      0x00\n        /* \"#utility.yul\":5268:5332   */\n      tag_302\n        /* \"#utility.yul\":5324:5331   */\n      dup5\n        /* \"#utility.yul\":5315:5321   */\n      dup3\n        /* \"#utility.yul\":5304:5313   */\n      dup6\n        /* \"#utility.yul\":5300:5322   */\n      add\n        /* \"#utility.yul\":5268:5332   */\n      tag_255\n      jump\t// in\n    tag_302:\n        /* \"#utility.yul\":5258:5332   */\n      swap2\n      pop\n        /* \"#utility.yul\":5214:5342   */\n      pop\n        /* \"#utility.yul\":4998:5349   */\n      swap3\n      swap2\n      pop\n      pop\n      jump\t// out\n        /* \"#utility.yul\":5355:5829   */\n    tag_41:\n        /* \"#utility.yul\":5423:5429   */\n      0x00\n        /* \"#utility.yul\":5431:5437   */\n      dup1\n        /* \"#utility.yul\":5480:5482   */\n      0x40\n        /* \"#utility.yul\":5468:5477   */\n      dup4\n        /* \"#utility.yul\":5459:5466   */\n      dup6\n        /* \"#utility.yul\":5455:5478   */\n      sub\n        /* \"#utility.yul\":5451:5483   */\n      slt\n        /* \"#utility.yul\":5448:5567   */\n      iszero\n      tag_304\n      jumpi\n        /* \"#utility.yul\":5486:5565   */\n      tag_305\n      tag_261\n      jump\t// in\n    tag_305:\n        /* \"#utility.yul\":5448:5567   */\n    tag_304:\n        /* \"#utility.yul\":5606:5607   */\n      0x00\n        /* \"#utility.yul\":5631:5684   */\n      tag_306\n        /* \"#utility.yul\":5676:5683   */\n      dup6\n        /* \"#utility.yul\":5667:5673   */\n      dup3\n        /* \"#utility.yul\":5656:5665   */\n      dup7\n        /* \"#utility.yul\":5652:5674   */\n      add\n        /* \"#utility.yul\":5631:5684   */\n      tag_251\n      jump\t// in\n    tag_306:\n        /* \"#utility.yul\":5621:5684   */\n      swap3\n      pop\n        /* \"#utility.yul\":5577:5694   */\n      pop\n        /* \"#utility.yul\":5733:5735   */\n      0x20\n        /* \"#utility.yul\":5759:5812   */\n      tag_307\n        /* \"#utility.yul\":5804:5811   */\n      dup6\n        /* \"#utility.yul\":5795:5801   */\n      dup3\n        /* \"#utility.yul\":5784:5793   */\n      dup7\n        /* \"#utility.yul\":5780:5802   */\n      add\n        /* \"#utility.yul\":5759:5812   */\n      tag_237\n      jump\t// in\n    tag_307:\n        /* \"#utility.yul\":5749:5812   */\n      swap2\n      pop\n        /* \"#utility.yul\":5704:5822   */\n      pop\n        /* \"#utility.yul\":5355:5829   */\n      swap3\n      pop\n      swap3\n      swap1\n      pop\n      jump\t// out\n        /* \"#utility.yul\":5835:6303   */\n    tag_55:\n        /* \"#utility.yul\":5900:5906   */\n      0x00\n        /* \"#utility.yul\":5908:5914   */\n      dup1\n        /* \"#utility.yul\":5957:5959   */\n      0x40\n        /* \"#utility.yul\":5945:5954   */\n      dup4\n        /* \"#utility.yul\":5936:5943   */\n      dup6\n        /* \"#utility.yul\":5932:5955   */\n      sub\n        /* \"#utility.yul\":5928:5960   */\n      slt\n        /* \"#utility.yul\":5925:6044   */\n      iszero\n      tag_309\n      jumpi\n        /* \"#utility.yul\":5963:6042   */\n      tag_310\n      tag_261\n      jump\t// in\n    tag_310:\n        /* \"#utility.yul\":5925:6044   */\n    tag_309:\n        /* \"#utility.yul\":6083:6084   */\n      0x00\n        /* \"#utility.yul\":6108:6161   */\n      tag_311\n        /* \"#utility.yul\":6153:6160   */\n      dup6\n        /* \"#utility.yul\":6144:6150   */\n      dup3\n        /* \"#utility.yul\":6133:6142   */\n      dup7\n        /* \"#utility.yul\":6129:6151   */\n      add\n        /* \"#utility.yul\":6108:6161   */\n      tag_251\n      jump\t// in\n    tag_311:\n        /* \"#utility.yul\":6098:6161   */\n      swap3\n      pop\n        /* \"#utility.yul\":6054:6171   */\n      pop\n        /* \"#utility.yul\":6210:6212   */\n      0x20\n        /* \"#utility.yul\":6236:6286   */\n      tag_312\n        /* \"#utility.yul\":6278:6285   */\n      dup6\n        /* \"#utility.yul\":6269:6275   */\n      dup3\n        /* \"#utility.yul\":6258:6267   */\n      dup7\n        /* \"#utility.yul\":6254:6276   */\n      add\n        /* \"#utility.yul\":6236:6286   */\n      tag_241\n      jump\t// in\n    tag_312:\n        /* \"#utility.yul\":6226:6286   */\n      swap2\n      pop\n        /* \"#utility.yul\":6181:6296   */\n      pop\n        /* \"#utility.yul\":5835:6303   */\n      swap3\n      pop\n      swap3\n      swap1\n      pop\n      jump\t// out\n        /* \"#utility.yul\":6309:6427   */\n    tag_313:\n        /* \"#utility.yul\":6396:6420   */\n      tag_315\n        /* \"#utility.yul\":6414:6419   */\n      dup2\n        /* \"#utility.yul\":6396:6420   */\n      tag_316\n      jump\t// in\n    tag_315:\n        /* \"#utility.yul\":6391:6394   */\n      dup3\n        /* \"#utility.yul\":6384:6421   */\n      mstore\n        /* \"#utility.yul\":6309:6427   */\n      pop\n      pop\n      jump\t// out\n        /* \"#utility.yul\":6433:6542   */\n    tag_317:\n        /* \"#utility.yul\":6514:6535   */\n      tag_319\n        /* \"#utility.yul\":6529:6534   */\n      dup2\n        /* \"#utility.yul\":6514:6535   */\n      tag_320\n      jump\t// in\n    tag_319:\n        /* \"#utility.yul\":6509:6512   */\n      dup3\n        /* \"#utility.yul\":6502:6536   */\n      mstore\n        /* \"#utility.yul\":6433:6542   */\n      pop\n      pop\n      jump\t// out\n        /* \"#utility.yul\":6548:6892   */\n    tag_321:\n        /* \"#utility.yul\":6626:6629   */\n      0x00\n        /* \"#utility.yul\":6654:6693   */\n      tag_323\n        /* \"#utility.yul\":6687:6692   */\n      dup3\n        /* \"#utility.yul\":6654:6693   */\n      tag_324\n      jump\t// in\n    tag_323:\n        /* \"#utility.yul\":6709:6770   */\n      tag_325\n        /* \"#utility.yul\":6763:6769   */\n      dup2\n        /* \"#utility.yul\":6758:6761   */\n      dup6\n        /* \"#utility.yul\":6709:6770   */\n      tag_326\n      jump\t// in\n    tag_325:\n        /* \"#utility.yul\":6702:6770   */\n      swap4\n      pop\n        /* \"#utility.yul\":6779:6831   */\n      tag_327\n        /* \"#utility.yul\":6824:6830   */\n      dup2\n        /* \"#utility.yul\":6819:6822   */\n      dup6\n        /* \"#utility.yul\":6812:6816   */\n      0x20\n        /* \"#utility.yul\":6805:6810   */\n      dup7\n        /* \"#utility.yul\":6801:6817   */\n      add\n        /* \"#utility.yul\":6779:6831   */\n      tag_328\n      jump\t// in\n    tag_327:\n        /* \"#utility.yul\":6856:6885   */\n      tag_329\n        /* \"#utility.yul\":6878:6884   */\n      dup2\n        /* \"#utility.yul\":6856:6885   */\n      tag_330\n      jump\t// in\n    tag_329:\n        /* \"#utility.yul\":6851:6854   */\n      dup5\n        /* \"#utility.yul\":6847:6886   */\n      add\n        /* \"#utility.yul\":6840:6886   */\n      swap2\n      pop\n        /* \"#utility.yul\":6630:6892   */\n      pop\n        /* \"#utility.yul\":6548:6892   */\n      swap3\n      swap2\n      pop\n      pop\n      jump\t// out\n        /* \"#utility.yul\":6898:7262   */\n    tag_331:\n        /* \"#utility.yul\":6986:6989   */\n      0x00\n        /* \"#utility.yul\":7014:7053   */\n      tag_333\n        /* \"#utility.yul\":7047:7052   */\n      dup3\n        /* \"#utility.yul\":7014:7053   */\n      tag_324\n      jump\t// in\n    tag_333:\n        /* \"#utility.yul\":7069:7140   */\n      tag_334\n        /* \"#utility.yul\":7133:7139   */\n      dup2\n        /* \"#utility.yul\":7128:7131   */\n      dup6\n        /* \"#utility.yul\":7069:7140   */\n      tag_335\n      jump\t// in\n    tag_334:\n        /* \"#utility.yul\":7062:7140   */\n      swap4\n      pop\n        /* \"#utility.yul\":7149:7201   */\n      tag_336\n        /* \"#utility.yul\":7194:7200   */\n      dup2\n        /* \"#utility.yul\":7189:7192   */\n      dup6\n        /* \"#utility.yul\":7182:7186   */\n      0x20\n        /* \"#utility.yul\":7175:7180   */\n      dup7\n        /* \"#utility.yul\":7171:7187   */\n      add\n        /* \"#utility.yul\":7149:7201   */\n      tag_328\n      jump\t// in\n    tag_336:\n        /* \"#utility.yul\":7226:7255   */\n      tag_337\n        /* \"#utility.yul\":7248:7254   */\n      dup2\n        /* \"#utility.yul\":7226:7255   */\n      tag_330\n      jump\t// in\n    tag_337:\n        /* \"#utility.yul\":7221:7224   */\n      dup5\n        /* \"#utility.yul\":7217:7256   */\n      add\n        /* \"#utility.yul\":7210:7256   */\n      swap2\n      pop\n        /* \"#utility.yul\":6990:7262   */\n      pop\n        /* \"#utility.yul\":6898:7262   */\n      swap3\n      swap2\n      pop\n      pop\n      jump\t// out\n        /* \"#utility.yul\":7268:7634   */\n    tag_338:\n        /* \"#utility.yul\":7410:7413   */\n      0x00\n        /* \"#utility.yul\":7431:7498   */\n      tag_340\n        /* \"#utility.yul\":7495:7497   */\n      0x26\n        /* \"#utility.yul\":7490:7493   */\n      dup4\n        /* \"#utility.yul\":7431:7498   */\n      tag_335\n      jump\t// in\n    tag_340:\n        /* \"#utility.yul\":7424:7498   */\n      swap2\n      pop\n        /* \"#utility.yul\":7507:7600   */\n      tag_341\n        /* \"#utility.yul\":7596:7599   */\n      dup3\n        /* \"#utility.yul\":7507:7600   */\n      tag_342\n      jump\t// in\n    tag_341:\n        /* \"#utility.yul\":7625:7627   */\n      0x40\n        /* \"#utility.yul\":7620:7623   */\n      dup3\n        /* \"#utility.yul\":7616:7628   */\n      add\n        /* \"#utility.yul\":7609:7628   */\n      swap1\n      pop\n        /* \"#utility.yul\":7268:7634   */\n      swap2\n      swap1\n      pop\n      jump\t// out\n        /* \"#utility.yul\":7640:8006   */\n    tag_343:\n        /* \"#utility.yul\":7782:7785   */\n      0x00\n        /* \"#utility.yul\":7803:7870   */\n      tag_345\n        /* \"#utility.yul\":7867:7869   */\n      0x20\n        /* \"#utility.yul\":7862:7865   */\n      dup4\n        /* \"#utility.yul\":7803:7870   */\n      tag_335\n      jump\t// in\n    tag_345:\n        /* \"#utility.yul\":7796:7870   */\n      swap2\n      pop\n        /* \"#utility.yul\":7879:7972   */\n      tag_346\n        /* \"#utility.yul\":7968:7971   */\n      dup3\n        /* \"#utility.yul\":7879:7972   */\n      tag_347\n      jump\t// in\n    tag_346:\n        /* \"#utility.yul\":7997:7999   */\n      0x20\n        /* \"#utility.yul\":7992:7995   */\n      dup3\n        /* \"#utility.yul\":7988:8000   */\n      add\n        /* \"#utility.yul\":7981:8000   */\n      swap1\n      pop\n        /* \"#utility.yul\":7640:8006   */\n      swap2\n      swap1\n      pop\n      jump\t// out\n        /* \"#utility.yul\":8080:9107   */\n    tag_348:\n        /* \"#utility.yul\":8199:8202   */\n      0x00\n        /* \"#utility.yul\":8235:8239   */\n      0x80\n        /* \"#utility.yul\":8230:8233   */\n      dup4\n        /* \"#utility.yul\":8226:8240   */\n      add\n        /* \"#utility.yul\":8323:8327   */\n      0x00\n        /* \"#utility.yul\":8316:8321   */\n      dup4\n        /* \"#utility.yul\":8312:8328   */\n      add\n        /* \"#utility.yul\":8306:8329   */\n      mload\n        /* \"#utility.yul\":8342:8405   */\n      tag_350\n        /* \"#utility.yul\":8399:8403   */\n      0x00\n        /* \"#utility.yul\":8394:8397   */\n      dup7\n        /* \"#utility.yul\":8390:8404   */\n      add\n        /* \"#utility.yul\":8376:8388   */\n      dup3\n        /* \"#utility.yul\":8342:8405   */\n      tag_351\n      jump\t// in\n    tag_350:\n        /* \"#utility.yul\":8250:8415   */\n      pop\n        /* \"#utility.yul\":8504:8508   */\n      0x20\n        /* \"#utility.yul\":8497:8502   */\n      dup4\n        /* \"#utility.yul\":8493:8509   */\n      add\n        /* \"#utility.yul\":8487:8510   */\n      mload\n        /* \"#utility.yul\":8557:8560   */\n      dup5\n        /* \"#utility.yul\":8551:8555   */\n      dup3\n        /* \"#utility.yul\":8547:8561   */\n      sub\n        /* \"#utility.yul\":8540:8544   */\n      0x20\n        /* \"#utility.yul\":8535:8538   */\n      dup7\n        /* \"#utility.yul\":8531:8545   */\n      add\n        /* \"#utility.yul\":8524:8562   */\n      mstore\n        /* \"#utility.yul\":8583:8656   */\n      tag_352\n        /* \"#utility.yul\":8651:8655   */\n      dup3\n        /* \"#utility.yul\":8637:8649   */\n      dup3\n        /* \"#utility.yul\":8583:8656   */\n      tag_321\n      jump\t// in\n    tag_352:\n        /* \"#utility.yul\":8575:8656   */\n      swap2\n      pop\n        /* \"#utility.yul\":8425:8667   */\n      pop\n        /* \"#utility.yul\":8746:8750   */\n      0x40\n        /* \"#utility.yul\":8739:8744   */\n      dup4\n        /* \"#utility.yul\":8735:8751   */\n      add\n        /* \"#utility.yul\":8729:8752   */\n      mload\n        /* \"#utility.yul\":8799:8802   */\n      dup5\n        /* \"#utility.yul\":8793:8797   */\n      dup3\n        /* \"#utility.yul\":8789:8803   */\n      sub\n        /* \"#utility.yul\":8782:8786   */\n      0x40\n        /* \"#utility.yul\":8777:8780   */\n      dup7\n        /* \"#utility.yul\":8773:8787   */\n      add\n        /* \"#utility.yul\":8766:8804   */\n      mstore\n        /* \"#utility.yul\":8825:8898   */\n      tag_353\n        /* \"#utility.yul\":8893:8897   */\n      dup3\n        /* \"#utility.yul\":8879:8891   */\n      dup3\n        /* \"#utility.yul\":8825:8898   */\n      tag_321\n      jump\t// in\n    tag_353:\n        /* \"#utility.yul\":8817:8898   */\n      swap2\n      pop\n        /* \"#utility.yul\":8677:8909   */\n      pop\n        /* \"#utility.yul\":8988:8992   */\n      0x60\n        /* \"#utility.yul\":8981:8986   */\n      dup4\n        /* \"#utility.yul\":8977:8993   */\n      add\n        /* \"#utility.yul\":8971:8994   */\n      mload\n        /* \"#utility.yul\":9007:9070   */\n      tag_354\n        /* \"#utility.yul\":9064:9068   */\n      0x60\n        /* \"#utility.yul\":9059:9062   */\n      dup7\n        /* \"#utility.yul\":9055:9069   */\n      add\n        /* \"#utility.yul\":9041:9053   */\n      dup3\n        /* \"#utility.yul\":9007:9070   */\n      tag_351\n      jump\t// in\n    tag_354:\n        /* \"#utility.yul\":8919:9080   */\n      pop\n        /* \"#utility.yul\":9097:9101   */\n      dup1\n        /* \"#utility.yul\":9090:9101   */\n      swap2\n      pop\n        /* \"#utility.yul\":8204:9107   */\n      pop\n        /* \"#utility.yul\":8080:9107   */\n      swap3\n      swap2\n      pop\n      pop\n      jump\t// out\n        /* \"#utility.yul\":9113:9221   */\n    tag_351:\n        /* \"#utility.yul\":9190:9214   */\n      tag_356\n        /* \"#utility.yul\":9208:9213   */\n      dup2\n        /* \"#utility.yul\":9190:9214   */\n      tag_357\n      jump\t// in\n    tag_356:\n        /* \"#utility.yul\":9185:9188   */\n      dup3\n        /* \"#utility.yul\":9178:9215   */\n      mstore\n        /* \"#utility.yul\":9113:9221   */\n      pop\n      pop\n      jump\t// out\n        /* \"#utility.yul\":9227:9345   */\n    tag_358:\n        /* \"#utility.yul\":9314:9338   */\n      tag_360\n        /* \"#utility.yul\":9332:9337   */\n      dup2\n        /* \"#utility.yul\":9314:9338   */\n      tag_357\n      jump\t// in\n    tag_360:\n        /* \"#utility.yul\":9309:9312   */\n      dup3\n        /* \"#utility.yul\":9302:9339   */\n      mstore\n        /* \"#utility.yul\":9227:9345   */\n      pop\n      pop\n      jump\t// out\n        /* \"#utility.yul\":9351:9573   */\n    tag_48:\n        /* \"#utility.yul\":9444:9448   */\n      0x00\n        /* \"#utility.yul\":9482:9484   */\n      0x20\n        /* \"#utility.yul\":9471:9480   */\n      dup3\n        /* \"#utility.yul\":9467:9485   */\n      add\n        /* \"#utility.yul\":9459:9485   */\n      swap1\n      pop\n        /* \"#utility.yul\":9495:9566   */\n      tag_362\n        /* \"#utility.yul\":9563:9564   */\n      0x00\n        /* \"#utility.yul\":9552:9561   */\n      dup4\n        /* \"#utility.yul\":9548:9565   */\n      add\n        /* \"#utility.yul\":9539:9545   */\n      dup5\n        /* \"#utility.yul\":9495:9566   */\n      tag_313\n      jump\t// in\n    tag_362:\n        /* \"#utility.yul\":9351:9573   */\n      swap3\n      swap2\n      pop\n      pop\n      jump\t// out\n        /* \"#utility.yul\":9579:10002   */\n    tag_179:\n        /* \"#utility.yul\":9720:9724   */\n      0x00\n        /* \"#utility.yul\":9758:9760   */\n      0x40\n        /* \"#utility.yul\":9747:9756   */\n      dup3\n        /* \"#utility.yul\":9743:9761   */\n      add\n        /* \"#utility.yul\":9735:9761   */\n      swap1\n      pop\n        /* \"#utility.yul\":9771:9842   */\n      tag_364\n        /* \"#utility.yul\":9839:9840   */\n      0x00\n        /* \"#utility.yul\":9828:9837   */\n      dup4\n        /* \"#utility.yul\":9824:9841   */\n      add\n        /* \"#utility.yul\":9815:9821   */\n      dup6\n        /* \"#utility.yul\":9771:9842   */\n      tag_313\n      jump\t// in\n    tag_364:\n        /* \"#utility.yul\":9889:9898   */\n      dup2\n        /* \"#utility.yul\":9883:9887   */\n      dup2\n        /* \"#utility.yul\":9879:9899   */\n      sub\n        /* \"#utility.yul\":9874:9876   */\n      0x20\n        /* \"#utility.yul\":9863:9872   */\n      dup4\n        /* \"#utility.yul\":9859:9877   */\n      add\n        /* \"#utility.yul\":9852:9900   */\n      mstore\n        /* \"#utility.yul\":9917:9995   */\n      tag_365\n        /* \"#utility.yul\":9990:9994   */\n      dup2\n        /* \"#utility.yul\":9981:9987   */\n      dup5\n        /* \"#utility.yul\":9917:9995   */\n      tag_331\n      jump\t// in\n    tag_365:\n        /* \"#utility.yul\":9909:9995   */\n      swap1\n      pop\n        /* \"#utility.yul\":9579:10002   */\n      swap4\n      swap3\n      pop\n      pop\n      pop\n      jump\t// out\n        /* \"#utility.yul\":10008:10218   */\n    tag_32:\n        /* \"#utility.yul\":10095:10099   */\n      0x00\n        /* \"#utility.yul\":10133:10135   */\n      0x20\n        /* \"#utility.yul\":10122:10131   */\n      dup3\n        /* \"#utility.yul\":10118:10136   */\n      add\n        /* \"#utility.yul\":10110:10136   */\n      swap1\n      pop\n        /* \"#utility.yul\":10146:10211   */\n      tag_367\n        /* \"#utility.yul\":10208:10209   */\n      0x00\n        /* \"#utility.yul\":10197:10206   */\n      dup4\n        /* \"#utility.yul\":10193:10210   */\n      add\n        /* \"#utility.yul\":10184:10190   */\n      dup5\n        /* \"#utility.yul\":10146:10211   */\n      tag_317\n      jump\t// in\n    tag_367:\n        /* \"#utility.yul\":10008:10218   */\n      swap3\n      swap2\n      pop\n      pop\n      jump\t// out\n        /* \"#utility.yul\":10224:10643   */\n    tag_199:\n        /* \"#utility.yul\":10390:10394   */\n      0x00\n        /* \"#utility.yul\":10428:10430   */\n      0x20\n        /* \"#utility.yul\":10417:10426   */\n      dup3\n        /* \"#utility.yul\":10413:10431   */\n      add\n        /* \"#utility.yul\":10405:10431   */\n      swap1\n      pop\n        /* \"#utility.yul\":10477:10486   */\n      dup2\n        /* \"#utility.yul\":10471:10475   */\n      dup2\n        /* \"#utility.yul\":10467:10487   */\n      sub\n        /* \"#utility.yul\":10463:10464   */\n      0x00\n        /* \"#utility.yul\":10452:10461   */\n      dup4\n        /* \"#utility.yul\":10448:10465   */\n      add\n        /* \"#utility.yul\":10441:10488   */\n      mstore\n        /* \"#utility.yul\":10505:10636   */\n      tag_369\n        /* \"#utility.yul\":10631:10635   */\n      dup2\n        /* \"#utility.yul\":10505:10636   */\n      tag_338\n      jump\t// in\n    tag_369:\n        /* \"#utility.yul\":10497:10636   */\n      swap1\n      pop\n        /* \"#utility.yul\":10224:10643   */\n      swap2\n      swap1\n      pop\n      jump\t// out\n        /* \"#utility.yul\":10649:11068   */\n    tag_212:\n        /* \"#utility.yul\":10815:10819   */\n      0x00\n        /* \"#utility.yul\":10853:10855   */\n      0x20\n        /* \"#utility.yul\":10842:10851   */\n      dup3\n        /* \"#utility.yul\":10838:10856   */\n      add\n        /* \"#utility.yul\":10830:10856   */\n      swap1\n      pop\n        /* \"#utility.yul\":10902:10911   */\n      dup2\n        /* \"#utility.yul\":10896:10900   */\n      dup2\n        /* \"#utility.yul\":10892:10912   */\n      sub\n        /* \"#utility.yul\":10888:10889   */\n      0x00\n        /* \"#utility.yul\":10877:10886   */\n      dup4\n        /* \"#utility.yul\":10873:10890   */\n      add\n        /* \"#utility.yul\":10866:10913   */\n      mstore\n        /* \"#utility.yul\":10930:11061   */\n      tag_371\n        /* \"#utility.yul\":11056:11060   */\n      dup2\n        /* \"#utility.yul\":10930:11061   */\n      tag_343\n      jump\t// in\n    tag_371:\n        /* \"#utility.yul\":10922:11061   */\n      swap1\n      pop\n        /* \"#utility.yul\":10649:11068   */\n      swap2\n      swap1\n      pop\n      jump\t// out\n        /* \"#utility.yul\":11074:11447   */\n    tag_66:\n        /* \"#utility.yul\":11217:11221   */\n      0x00\n        /* \"#utility.yul\":11255:11257   */\n      0x20\n        /* \"#utility.yul\":11244:11253   */\n      dup3\n        /* \"#utility.yul\":11240:11258   */\n      add\n        /* \"#utility.yul\":11232:11258   */\n      swap1\n      pop\n        /* \"#utility.yul\":11304:11313   */\n      dup2\n        /* \"#utility.yul\":11298:11302   */\n      dup2\n        /* \"#utility.yul\":11294:11314   */\n      sub\n        /* \"#utility.yul\":11290:11291   */\n      0x00\n        /* \"#utility.yul\":11279:11288   */\n      dup4\n        /* \"#utility.yul\":11275:11292   */\n      add\n        /* \"#utility.yul\":11268:11315   */\n      mstore\n        /* \"#utility.yul\":11332:11440   */\n      tag_373\n        /* \"#utility.yul\":11435:11439   */\n      dup2\n        /* \"#utility.yul\":11426:11432   */\n      dup5\n        /* \"#utility.yul\":11332:11440   */\n      tag_348\n      jump\t// in\n    tag_373:\n        /* \"#utility.yul\":11324:11440   */\n      swap1\n      pop\n        /* \"#utility.yul\":11074:11447   */\n      swap3\n      swap2\n      pop\n      pop\n      jump\t// out\n        /* \"#utility.yul\":11453:11675   */\n    tag_77:\n        /* \"#utility.yul\":11546:11550   */\n      0x00\n        /* \"#utility.yul\":11584:11586   */\n      0x20\n        /* \"#utility.yul\":11573:11582   */\n      dup3\n        /* \"#utility.yul\":11569:11587   */\n      add\n        /* \"#utility.yul\":11561:11587   */\n      swap1\n      pop\n        /* \"#utility.yul\":11597:11668   */\n      tag_375\n        /* \"#utility.yul\":11665:11666   */\n      0x00\n        /* \"#utility.yul\":11654:11663   */\n      dup4\n        /* \"#utility.yul\":11650:11667   */\n      add\n        /* \"#utility.yul\":11641:11647   */\n      dup5\n        /* \"#utility.yul\":11597:11668   */\n      tag_358\n      jump\t// in\n    tag_375:\n        /* \"#utility.yul\":11453:11675   */\n      swap3\n      swap2\n      pop\n      pop\n      jump\t// out\n        /* \"#utility.yul\":11681:12013   */\n    tag_186:\n        /* \"#utility.yul\":11802:11806   */\n      0x00\n        /* \"#utility.yul\":11840:11842   */\n      0x40\n        /* \"#utility.yul\":11829:11838   */\n      dup3\n        /* \"#utility.yul\":11825:11843   */\n      add\n        /* \"#utility.yul\":11817:11843   */\n      swap1\n      pop\n        /* \"#utility.yul\":11853:11924   */\n      tag_377\n        /* \"#utility.yul\":11921:11922   */\n      0x00\n        /* \"#utility.yul\":11910:11919   */\n      dup4\n        /* \"#utility.yul\":11906:11923   */\n      add\n        /* \"#utility.yul\":11897:11903   */\n      dup6\n        /* \"#utility.yul\":11853:11924   */\n      tag_358\n      jump\t// in\n    tag_377:\n        /* \"#utility.yul\":11934:12006   */\n      tag_378\n        /* \"#utility.yul\":12002:12004   */\n      0x20\n        /* \"#utility.yul\":11991:12000   */\n      dup4\n        /* \"#utility.yul\":11987:12005   */\n      add\n        /* \"#utility.yul\":11978:11984   */\n      dup5\n        /* \"#utility.yul\":11934:12006   */\n      tag_358\n      jump\t// in\n    tag_378:\n        /* \"#utility.yul\":11681:12013   */\n      swap4\n      swap3\n      pop\n      pop\n      pop\n      jump\t// out\n        /* \"#utility.yul\":12019:12148   */\n    tag_231:\n        /* \"#utility.yul\":12053:12059   */\n      0x00\n        /* \"#utility.yul\":12080:12100   */\n      tag_380\n      tag_381\n      jump\t// in\n    tag_380:\n        /* \"#utility.yul\":12070:12100   */\n      swap1\n      pop\n        /* \"#utility.yul\":12109:12142   */\n      tag_382\n        /* \"#utility.yul\":12137:12141   */\n      dup3\n        /* \"#utility.yul\":12129:12135   */\n      dup3\n        /* \"#utility.yul\":12109:12142   */\n      tag_383\n      jump\t// in\n    tag_382:\n        /* \"#utility.yul\":12019:12148   */\n      swap2\n      swap1\n      pop\n      jump\t// out\n        /* \"#utility.yul\":12154:12229   */\n    tag_381:\n        /* \"#utility.yul\":12187:12193   */\n      0x00\n        /* \"#utility.yul\":12220:12222   */\n      0x40\n        /* \"#utility.yul\":12214:12223   */\n      mload\n        /* \"#utility.yul\":12204:12223   */\n      swap1\n      pop\n        /* \"#utility.yul\":12154:12229   */\n      swap1\n      jump\t// out\n        /* \"#utility.yul\":12235:12543   */\n    tag_230:\n        /* \"#utility.yul\":12297:12301   */\n      0x00\n        /* \"#utility.yul\":12387:12405   */\n      0xffffffffffffffff\n        /* \"#utility.yul\":12379:12385   */\n      dup3\n        /* \"#utility.yul\":12376:12406   */\n      gt\n        /* \"#utility.yul\":12373:12429   */\n      iszero\n      tag_386\n      jumpi\n        /* \"#utility.yul\":12409:12427   */\n      tag_387\n      tag_388\n      jump\t// in\n    tag_387:\n        /* \"#utility.yul\":12373:12429   */\n    tag_386:\n        /* \"#utility.yul\":12447:12476   */\n      tag_389\n        /* \"#utility.yul\":12469:12475   */\n      dup3\n        /* \"#utility.yul\":12447:12476   */\n      tag_330\n      jump\t// in\n    tag_389:\n        /* \"#utility.yul\":12439:12476   */\n      swap1\n      pop\n        /* \"#utility.yul\":12531:12535   */\n      0x20\n        /* \"#utility.yul\":12525:12529   */\n      dup2\n        /* \"#utility.yul\":12521:12536   */\n      add\n        /* \"#utility.yul\":12513:12536   */\n      swap1\n      pop\n        /* \"#utility.yul\":12235:12543   */\n      swap2\n      swap1\n      pop\n      jump\t// out\n        /* \"#utility.yul\":12549:12648   */\n    tag_324:\n        /* \"#utility.yul\":12601:12607   */\n      0x00\n        /* \"#utility.yul\":12635:12640   */\n      dup2\n        /* \"#utility.yul\":12629:12641   */\n      mload\n        /* \"#utility.yul\":12619:12641   */\n      swap1\n      pop\n        /* \"#utility.yul\":12549:12648   */\n      swap2\n      swap1\n      pop\n      jump\t// out\n        /* \"#utility.yul\":12654:12813   */\n    tag_326:\n        /* \"#utility.yul\":12728:12739   */\n      0x00\n        /* \"#utility.yul\":12762:12768   */\n      dup3\n        /* \"#utility.yul\":12757:12760   */\n      dup3\n        /* \"#utility.yul\":12750:12769   */\n      mstore\n        /* \"#utility.yul\":12802:12806   */\n      0x20\n        /* \"#utility.yul\":12797:12800   */\n      dup3\n        /* \"#utility.yul\":12793:12807   */\n      add\n        /* \"#utility.yul\":12778:12807   */\n      swap1\n      pop\n        /* \"#utility.yul\":12654:12813   */\n      swap3\n      swap2\n      pop\n      pop\n      jump\t// out\n        /* \"#utility.yul\":12819:12988   */\n    tag_335:\n        /* \"#utility.yul\":12903:12914   */\n      0x00\n        /* \"#utility.yul\":12937:12943   */\n      dup3\n        /* \"#utility.yul\":12932:12935   */\n      dup3\n        /* \"#utility.yul\":12925:12944   */\n      mstore\n        /* \"#utility.yul\":12977:12981   */\n      0x20\n        /* \"#utility.yul\":12972:12975   */\n      dup3\n        /* \"#utility.yul\":12968:12982   */\n      add\n        /* \"#utility.yul\":12953:12982   */\n      swap1\n      pop\n        /* \"#utility.yul\":12819:12988   */\n      swap3\n      swap2\n      pop\n      pop\n      jump\t// out\n        /* \"#utility.yul\":12994:13090   */\n    tag_316:\n        /* \"#utility.yul\":13031:13038   */\n      0x00\n        /* \"#utility.yul\":13060:13084   */\n      tag_394\n        /* \"#utility.yul\":13078:13083   */\n      dup3\n        /* \"#utility.yul\":13060:13084   */\n      tag_395\n      jump\t// in\n    tag_394:\n        /* \"#utility.yul\":13049:13084   */\n      swap1\n      pop\n        /* \"#utility.yul\":12994:13090   */\n      swap2\n      swap1\n      pop\n      jump\t// out\n        /* \"#utility.yul\":13096:13186   */\n    tag_320:\n        /* \"#utility.yul\":13130:13137   */\n      0x00\n        /* \"#utility.yul\":13173:13178   */\n      dup2\n        /* \"#utility.yul\":13166:13179   */\n      iszero\n        /* \"#utility.yul\":13159:13180   */\n      iszero\n        /* \"#utility.yul\":13148:13180   */\n      swap1\n      pop\n        /* \"#utility.yul\":13096:13186   */\n      swap2\n      swap1\n      pop\n      jump\t// out\n        /* \"#utility.yul\":13192:13318   */\n    tag_395:\n        /* \"#utility.yul\":13229:13236   */\n      0x00\n        /* \"#utility.yul\":13269:13311   */\n      0xffffffffffffffffffffffffffffffffffffffff\n        /* \"#utility.yul\":13262:13267   */\n      dup3\n        /* \"#utility.yul\":13258:13312   */\n      and\n        /* \"#utility.yul\":13247:13312   */\n      swap1\n      pop\n        /* \"#utility.yul\":13192:13318   */\n      swap2\n      swap1\n      pop\n      jump\t// out\n        /* \"#utility.yul\":13324:13401   */\n    tag_357:\n        /* \"#utility.yul\":13361:13368   */\n      0x00\n        /* \"#utility.yul\":13390:13395   */\n      dup2\n        /* \"#utility.yul\":13379:13395   */\n      swap1\n      pop\n        /* \"#utility.yul\":13324:13401   */\n      swap2\n      swap1\n      pop\n      jump\t// out\n        /* \"#utility.yul\":13407:13561   */\n    tag_236:\n        /* \"#utility.yul\":13491:13497   */\n      dup3\n        /* \"#utility.yul\":13486:13489   */\n      dup2\n        /* \"#utility.yul\":13481:13484   */\n      dup4\n        /* \"#utility.yul\":13468:13498   */\n      calldatacopy\n        /* \"#utility.yul\":13553:13554   */\n      0x00\n        /* \"#utility.yul\":13544:13550   */\n      dup4\n        /* \"#utility.yul\":13539:13542   */\n      dup4\n        /* \"#utility.yul\":13535:13551   */\n      add\n        /* \"#utility.yul\":13528:13555   */\n      mstore\n        /* \"#utility.yul\":13407:13561   */\n      pop\n      pop\n      pop\n      jump\t// out\n        /* \"#utility.yul\":13567:13874   */\n    tag_328:\n        /* \"#utility.yul\":13635:13636   */\n      0x00\n        /* \"#utility.yul\":13645:13758   */\n    tag_401:\n        /* \"#utility.yul\":13659:13665   */\n      dup4\n        /* \"#utility.yul\":13656:13657   */\n      dup2\n        /* \"#utility.yul\":13653:13666   */\n      lt\n        /* \"#utility.yul\":13645:13758   */\n      iszero\n      tag_403\n      jumpi\n        /* \"#utility.yul\":13744:13745   */\n      dup1\n        /* \"#utility.yul\":13739:13742   */\n      dup3\n        /* \"#utility.yul\":13735:13746   */\n      add\n        /* \"#utility.yul\":13729:13747   */\n      mload\n        /* \"#utility.yul\":13725:13726   */\n      dup2\n        /* \"#utility.yul\":13720:13723   */\n      dup5\n        /* \"#utility.yul\":13716:13727   */\n      add\n        /* \"#utility.yul\":13709:13748   */\n      mstore\n        /* \"#utility.yul\":13681:13683   */\n      0x20\n        /* \"#utility.yul\":13678:13679   */\n      dup2\n        /* \"#utility.yul\":13674:13684   */\n      add\n        /* \"#utility.yul\":13669:13684   */\n      swap1\n      pop\n        /* \"#utility.yul\":13645:13758   */\n      jump(tag_401)\n    tag_403:\n        /* \"#utility.yul\":13776:13782   */\n      dup4\n        /* \"#utility.yul\":13773:13774   */\n      dup2\n        /* \"#utility.yul\":13770:13783   */\n      gt\n        /* \"#utility.yul\":13767:13868   */\n      iszero\n      tag_404\n      jumpi\n        /* \"#utility.yul\":13856:13857   */\n      0x00\n        /* \"#utility.yul\":13847:13853   */\n      dup5\n        /* \"#utility.yul\":13842:13845   */\n      dup5\n        /* \"#utility.yul\":13838:13854   */\n      add\n        /* \"#utility.yul\":13831:13858   */\n      mstore\n        /* \"#utility.yul\":13767:13868   */\n    tag_404:\n        /* \"#utility.yul\":13616:13874   */\n      pop\n        /* \"#utility.yul\":13567:13874   */\n      pop\n      pop\n      pop\n      jump\t// out\n        /* \"#utility.yul\":13880:14200   */\n    tag_109:\n        /* \"#utility.yul\":13924:13930   */\n      0x00\n        /* \"#utility.yul\":13961:13962   */\n      0x02\n        /* \"#utility.yul\":13955:13959   */\n      dup3\n        /* \"#utility.yul\":13951:13963   */\n      div\n        /* \"#utility.yul\":13941:13963   */\n      swap1\n      pop\n        /* \"#utility.yul\":14008:14009   */\n      0x01\n        /* \"#utility.yul\":14002:14006   */\n      dup3\n        /* \"#utility.yul\":13998:14010   */\n      and\n        /* \"#utility.yul\":14029:14047   */\n      dup1\n        /* \"#utility.yul\":14019:14100   */\n      tag_406\n      jumpi\n        /* \"#utility.yul\":14085:14089   */\n      0x7f\n        /* \"#utility.yul\":14077:14083   */\n      dup3\n        /* \"#utility.yul\":14073:14090   */\n      and\n        /* \"#utility.yul\":14063:14090   */\n      swap2\n      pop\n        /* \"#utility.yul\":14019:14100   */\n    tag_406:\n        /* \"#utility.yul\":14147:14149   */\n      0x20\n        /* \"#utility.yul\":14139:14145   */\n      dup3\n        /* \"#utility.yul\":14136:14150   */\n      lt\n        /* \"#utility.yul\":14116:14134   */\n      dup2\n        /* \"#utility.yul\":14113:14151   */\n      eq\n        /* \"#utility.yul\":14110:14194   */\n      iszero\n      tag_407\n      jumpi\n        /* \"#utility.yul\":14166:14184   */\n      tag_408\n      tag_409\n      jump\t// in\n    tag_408:\n        /* \"#utility.yul\":14110:14194   */\n    tag_407:\n        /* \"#utility.yul\":13931:14200   */\n      pop\n        /* \"#utility.yul\":13880:14200   */\n      swap2\n      swap1\n      pop\n      jump\t// out\n        /* \"#utility.yul\":14206:14487   */\n    tag_383:\n        /* \"#utility.yul\":14289:14316   */\n      tag_411\n        /* \"#utility.yul\":14311:14315   */\n      dup3\n        /* \"#utility.yul\":14289:14316   */\n      tag_330\n      jump\t// in\n    tag_411:\n        /* \"#utility.yul\":14281:14287   */\n      dup2\n        /* \"#utility.yul\":14277:14317   */\n      add\n        /* \"#utility.yul\":14419:14425   */\n      dup2\n        /* \"#utility.yul\":14407:14417   */\n      dup2\n        /* \"#utility.yul\":14404:14426   */\n      lt\n        /* \"#utility.yul\":14383:14401   */\n      0xffffffffffffffff\n        /* \"#utility.yul\":14371:14381   */\n      dup3\n        /* \"#utility.yul\":14368:14402   */\n      gt\n        /* \"#utility.yul\":14365:14427   */\n      or\n        /* \"#utility.yul\":14362:14450   */\n      iszero\n      tag_412\n      jumpi\n        /* \"#utility.yul\":14430:14448   */\n      tag_413\n      tag_388\n      jump\t// in\n    tag_413:\n        /* \"#utility.yul\":14362:14450   */\n    tag_412:\n        /* \"#utility.yul\":14470:14480   */\n      dup1\n        /* \"#utility.yul\":14466:14468   */\n      0x40\n        /* \"#utility.yul\":14459:14481   */\n      mstore\n        /* \"#utility.yul\":14249:14487   */\n      pop\n        /* \"#utility.yul\":14206:14487   */\n      pop\n      pop\n      jump\t// out\n        /* \"#utility.yul\":14493:14673   */\n    tag_409:\n        /* \"#utility.yul\":14541:14618   */\n      0x4e487b7100000000000000000000000000000000000000000000000000000000\n        /* \"#utility.yul\":14538:14539   */\n      0x00\n        /* \"#utility.yul\":14531:14619   */\n      mstore\n        /* \"#utility.yul\":14638:14642   */\n      0x22\n        /* \"#utility.yul\":14635:14636   */\n      0x04\n        /* \"#utility.yul\":14628:14643   */\n      mstore\n        /* \"#utility.yul\":14662:14666   */\n      0x24\n        /* \"#utility.yul\":14659:14660   */\n      0x00\n        /* \"#utility.yul\":14652:14667   */\n      revert\n        /* \"#utility.yul\":14679:14859   */\n    tag_388:\n        /* \"#utility.yul\":14727:14804   */\n      0x4e487b7100000000000000000000000000000000000000000000000000000000\n        /* \"#utility.yul\":14724:14725   */\n      0x00\n        /* \"#utility.yul\":14717:14805   */\n      mstore\n        /* \"#utility.yul\":14824:14828   */\n      0x41\n        /* \"#utility.yul\":14821:14822   */\n      0x04\n        /* \"#utility.yul\":14814:14829   */\n      mstore\n        /* \"#utility.yul\":14848:14852   */\n      0x24\n        /* \"#utility.yul\":14845:14846   */\n      0x00\n        /* \"#utility.yul\":14838:14853   */\n      revert\n        /* \"#utility.yul\":14865:14982   */\n    tag_249:\n        /* \"#utility.yul\":14974:14975   */\n      0x00\n        /* \"#utility.yul\":14971:14972   */\n      dup1\n        /* \"#utility.yul\":14964:14976   */\n      revert\n        /* \"#utility.yul\":14988:15105   */\n    tag_234:\n        /* \"#utility.yul\":15097:15098   */\n      0x00\n        /* \"#utility.yul\":15094:15095   */\n      dup1\n        /* \"#utility.yul\":15087:15099   */\n      revert\n        /* \"#utility.yul\":15111:15228   */\n    tag_268:\n        /* \"#utility.yul\":15220:15221   */\n      0x00\n        /* \"#utility.yul\":15217:15218   */\n      dup1\n        /* \"#utility.yul\":15210:15222   */\n      revert\n        /* \"#utility.yul\":15234:15351   */\n    tag_261:\n        /* \"#utility.yul\":15343:15344   */\n      0x00\n        /* \"#utility.yul\":15340:15341   */\n      dup1\n        /* \"#utility.yul\":15333:15345   */\n      revert\n        /* \"#utility.yul\":15357:15459   */\n    tag_330:\n        /* \"#utility.yul\":15398:15404   */\n      0x00\n        /* \"#utility.yul\":15449:15451   */\n      0x1f\n        /* \"#utility.yul\":15445:15452   */\n      not\n        /* \"#utility.yul\":15440:15442   */\n      0x1f\n        /* \"#utility.yul\":15433:15438   */\n      dup4\n        /* \"#utility.yul\":15429:15443   */\n      add\n        /* \"#utility.yul\":15425:15453   */\n      and\n        /* \"#utility.yul\":15415:15453   */\n      swap1\n      pop\n        /* \"#utility.yul\":15357:15459   */\n      swap2\n      swap1\n      pop\n      jump\t// out\n        /* \"#utility.yul\":15465:15690   */\n    tag_342:\n        /* \"#utility.yul\":15605:15639   */\n      0x4f776e61626c653a206e6577206f776e657220697320746865207a65726f2061\n        /* \"#utility.yul\":15601:15602   */\n      0x00\n        /* \"#utility.yul\":15593:15599   */\n      dup3\n        /* \"#utility.yul\":15589:15603   */\n      add\n        /* \"#utility.yul\":15582:15640   */\n      mstore\n        /* \"#utility.yul\":15674:15682   */\n      0x6464726573730000000000000000000000000000000000000000000000000000\n        /* \"#utility.yul\":15669:15671   */\n      0x20\n        /* \"#utility.yul\":15661:15667   */\n      dup3\n        /* \"#utility.yul\":15657:15672   */\n      add\n        /* \"#utility.yul\":15650:15683   */\n      mstore\n        /* \"#utility.yul\":15465:15690   */\n      pop\n      jump\t// out\n        /* \"#utility.yul\":15696:15878   */\n    tag_347:\n        /* \"#utility.yul\":15836:15870   */\n      0x4f776e61626c653a2063616c6c6572206973206e6f7420746865206f776e6572\n        /* \"#utility.yul\":15832:15833   */\n      0x00\n        /* \"#utility.yul\":15824:15830   */\n      dup3\n        /* \"#utility.yul\":15820:15834   */\n      add\n        /* \"#utility.yul\":15813:15871   */\n      mstore\n        /* \"#utility.yul\":15696:15878   */\n      pop\n      jump\t// out\n        /* \"#utility.yul\":15884:16006   */\n    tag_240:\n        /* \"#utility.yul\":15957:15981   */\n      tag_424\n        /* \"#utility.yul\":15975:15980   */\n      dup2\n        /* \"#utility.yul\":15957:15981   */\n      tag_316\n      jump\t// in\n    tag_424:\n        /* \"#utility.yul\":15950:15955   */\n      dup2\n        /* \"#utility.yul\":15947:15982   */\n      eq\n        /* \"#utility.yul\":15937:16000   */\n      tag_425\n      jumpi\n        /* \"#utility.yul\":15996:15997   */\n      0x00\n        /* \"#utility.yul\":15993:15994   */\n      dup1\n        /* \"#utility.yul\":15986:15998   */\n      revert\n        /* \"#utility.yul\":15937:16000   */\n    tag_425:\n        /* \"#utility.yul\":15884:16006   */\n      pop\n      jump\t// out\n        /* \"#utility.yul\":16012:16128   */\n    tag_244:\n        /* \"#utility.yul\":16082:16103   */\n      tag_427\n        /* \"#utility.yul\":16097:16102   */\n      dup2\n        /* \"#utility.yul\":16082:16103   */\n      tag_320\n      jump\t// in\n    tag_427:\n        /* \"#utility.yul\":16075:16080   */\n      dup2\n        /* \"#utility.yul\":16072:16104   */\n      eq\n        /* \"#utility.yul\":16062:16122   */\n      tag_428\n      jumpi\n        /* \"#utility.yul\":16118:16119   */\n      0x00\n        /* \"#utility.yul\":16115:16116   */\n      dup1\n        /* \"#utility.yul\":16108:16120   */\n      revert\n        /* \"#utility.yul\":16062:16122   */\n    tag_428:\n        /* \"#utility.yul\":16012:16128   */\n      pop\n      jump\t// out\n        /* \"#utility.yul\":16134:16256   */\n    tag_254:\n        /* \"#utility.yul\":16207:16231   */\n      tag_430\n        /* \"#utility.yul\":16225:16230   */\n      dup2\n        /* \"#utility.yul\":16207:16231   */\n      tag_357\n      jump\t// in\n    tag_430:\n        /* \"#utility.yul\":16200:16205   */\n      dup2\n        /* \"#utility.yul\":16197:16232   */\n      eq\n        /* \"#utility.yul\":16187:16250   */\n      tag_431\n      jumpi\n        /* \"#utility.yul\":16246:16247   */\n      0x00\n        /* \"#utility.yul\":16243:16244   */\n      dup1\n        /* \"#utility.yul\":16236:16248   */\n      revert\n        /* \"#utility.yul\":16187:16250   */\n    tag_431:\n        /* \"#utility.yul\":16134:16256   */\n      pop\n      jump\t// out\n\n    auxdata: 0xa2646970667358221220f5ef9b9f812058da2f2999b42e28454e9851b86e8c65f60cab69f3f921f9e7b664736f6c63430008070033\n}\n",
				"bytecode": {
					"linkReferences": {},
					"object": "608060405234801561001057600080fd5b5061002d61002261003260201b60201c565b61003a60201b60201c565b6100fe565b600033905090565b60008060009054906101000a900473ffffffffffffffffffffffffffffffffffffffff169050816000806101000a81548173ffffffffffffffffffffffffffffffffffffffff021916908373ffffffffffffffffffffffffffffffffffffffff1602179055508173ffffffffffffffffffffffffffffffffffffffff168173ffffffffffffffffffffffffffffffffffffffff167f8be0079c531659141344cd1fd0a4f28419497f9722a3daafe3b4186f6b6457e060405160405180910390a35050565b611b338061010d6000396000f3fe6080604052600436106100f75760003560e01c8063ad5750351161008a578063d6f70eb311610059578063d6f70eb314610346578063f2fde38b1461036f578063fa0e9e4114610398578063fbc2cf13146103c157610101565b8063ad5750351461027a578063b2b72bc4146102b7578063bafdee14146102f4578063d1933ddd1461031d57610101565b8063715018a6116100c6578063715018a6146101d2578063717b9b6c146101e95780638da5cb5b14610212578063917b8fd01461023d57610101565b80630e197dc9146101065780631ff4bdf3146101435780633960a8921461016c5780634b3cef441461019557610101565b3661010157600080fd5b600080fd5b34801561011257600080fd5b5061012d60048036038101906101289190611509565b6103ea565b60405161013a919061178c565b60405180910390f35b34801561014f57600080fd5b5061016a6004803603810190610165919061133d565b610414565b005b34801561017857600080fd5b50610193600480360381019061018e9190611563565b610685565b005b3480156101a157600080fd5b506101bc60048036038101906101b79190611509565b61072a565b6040516101c99190611741565b60405180910390f35b3480156101de57600080fd5b506101e761076c565b005b3480156101f557600080fd5b50610210600480360381019061020b91906115a3565b610780565b005b34801561021e57600080fd5b506102276107b7565b6040516102349190611741565b60405180910390f35b34801561024957600080fd5b50610264600480360381019061025f9190611509565b6107e0565b60405161027191906117e7565b60405180910390f35b34801561028657600080fd5b506102a1600480360381019061029c919061133d565b6109b0565b6040516102ae91906117e7565b60405180910390f35b3480156102c357600080fd5b506102de60048036038101906102d9919061133d565b610b47565b6040516102eb9190611809565b60405180910390f35b34801561030057600080fd5b5061031b60048036038101906103169190611422565b610cdb565b005b34801561032957600080fd5b50610344600480360381019061033f91906113b3565b610d5f565b005b34801561035257600080fd5b5061036d6004803603810190610368919061136a565b610eca565b005b34801561037b57600080fd5b506103966004803603810190610391919061133d565b610f2a565b005b3480156103a457600080fd5b506103bf60048036038101906103ba91906114ad565b610fae565b005b3480156103cd57600080fd5b506103e860048036038101906103e3919061133d565b611018565b005b60006004600083815260200190815260200160002060009054906101000a900460ff169050919050565b6000600360003373ffffffffffffffffffffffffffffffffffffffff1673ffffffffffffffffffffffffffffffffffffffff1681526020019081526020016000206040518060800160405290816000820154815260200160018201805461047a9061195a565b80601f01602080910402602001604051908101604052809291908181526020018280546104a69061195a565b80156104f35780601f106104c8576101008083540402835291602001916104f3565b820191906000526020600020905b8154815290600101906020018083116104d657829003601f168201915b5050505050815260200160028201805461050c9061195a565b80601f01602080910402602001604051908101604052809291908181526020018280546105389061195a565b80156105855780601f1061055a57610100808354040283529160200191610585565b820191906000526020600020905b81548152906001019060200180831161056857829003601f168201915b50505050508152602001600382015481525050905080600360008473ffffffffffffffffffffffffffffffffffffffff1673ffffffffffffffffffffffffffffffffffffffff1681526020019081526020016000206000820151816000015560208201518160010190805190602001906106009291906111ae565b50604082015181600201908051906020019061061d9291906111ae565b506060820151816003015590505081600260008360000151815260200190815260200160002060006101000a81548173ffffffffffffffffffffffffffffffffffffffff021916908373ffffffffffffffffffffffffffffffffffffffff1602179055505050565b61068d611064565b806002600084815260200190815260200160002060006101000a81548173ffffffffffffffffffffffffffffffffffffffff021916908373ffffffffffffffffffffffffffffffffffffffff16021790555081600360008373ffffffffffffffffffffffffffffffffffffffff1673ffffffffffffffffffffffffffffffffffffffff168152602001908152602001600020600001819055505050565b6000806002600084815260200190815260200160002060009054906101000a900473ffffffffffffffffffffffffffffffffffffffff16905080915050919050565b610774611064565b61077e60006110e2565b565b610788611064565b806004600084815260200190815260200160002060006101000a81548160ff0219169083151502179055505050565b60008060009054906101000a900473ffffffffffffffffffffffffffffffffffffffff16905090565b6107e8611234565b60006002600084815260200190815260200160002060009054906101000a900473ffffffffffffffffffffffffffffffffffffffff1690506000600360008373ffffffffffffffffffffffffffffffffffffffff1673ffffffffffffffffffffffffffffffffffffffff168152602001908152602001600020604051806080016040529081600082015481526020016001820180546108869061195a565b80601f01602080910402602001604051908101604052809291908181526020018280546108b29061195a565b80156108ff5780601f106108d4576101008083540402835291602001916108ff565b820191906000526020600020905b8154815290600101906020018083116108e257829003601f168201915b505050505081526020016002820180546109189061195a565b80601f01602080910402602001604051908101604052809291908181526020018280546109449061195a565b80156109915780601f1061096657610100808354040283529160200191610991565b820191906000526020600020905b81548152906001019060200180831161097457829003601f168201915b5050505050815260200160038201548152505090508092505050919050565b6109b8611234565b6000600360008473ffffffffffffffffffffffffffffffffffffffff1673ffffffffffffffffffffffffffffffffffffffff16815260200190815260200160002060405180608001604052908160008201548152602001600182018054610a1e9061195a565b80601f0160208091040260200160405190810160405280929190818152602001828054610a4a9061195a565b8015610a975780601f10610a6c57610100808354040283529160200191610a97565b820191906000526020600020905b815481529060010190602001808311610a7a57829003601f168201915b50505050508152602001600282018054610ab09061195a565b80601f0160208091040260200160405190810160405280929190818152602001828054610adc9061195a565b8015610b295780601f10610afe57610100808354040283529160200191610b29565b820191906000526020600020905b815481529060010190602001808311610b0c57829003601f168201915b50505050508152602001600382015481525050905080915050919050565b600080600360008473ffffffffffffffffffffffffffffffffffffffff1673ffffffffffffffffffffffffffffffffffffffff16815260200190815260200160002060405180608001604052908160008201548152602001600182018054610bae9061195a565b80601f0160208091040260200160405190810160405280929190818152602001828054610bda9061195a565b8015610c275780601f10610bfc57610100808354040283529160200191610c27565b820191906000526020600020905b815481529060010190602001808311610c0a57829003601f168201915b50505050508152602001600282018054610c409061195a565b80601f0160208091040260200160405190810160405280929190818152602001828054610c6c9061195a565b8015610cb95780601f10610c8e57610100808354040283529160200191610cb9565b820191906000526020600020905b815481529060010190602001808311610c9c57829003601f168201915b5050505050815260200160038201548152505090508060000151915050919050565b6000600360003373ffffffffffffffffffffffffffffffffffffffff1673ffffffffffffffffffffffffffffffffffffffff168152602001908152602001600020905083816001019080519060200190610d369291906111ae565b5082816002019080519060200190610d4f9291906111ae565b5081816003018190555050505050565b610d67611064565b60003090506000600160009054906101000a900473ffffffffffffffffffffffffffffffffffffffff1673ffffffffffffffffffffffffffffffffffffffff1663cf37834383876040518363ffffffff1660e01b8152600401610dcb92919061175c565b602060405180830381600087803b158015610de557600080fd5b505af1158015610df9573d6000803e3d6000fd5b505050506040513d601f19601f82011682018060405250810190610e1d9190611536565b9050600160009054906101000a900473ffffffffffffffffffffffffffffffffffffffff1673ffffffffffffffffffffffffffffffffffffffff1663e1b2e97982856040518363ffffffff1660e01b8152600401610e7c929190611824565b600060405180830381600087803b158015610e9657600080fd5b505af1158015610eaa573d6000803e3d6000fd5b50505050610eb9816001610780565b610ec38185610685565b5050505050565b6000600360003373ffffffffffffffffffffffffffffffffffffffff1673ffffffffffffffffffffffffffffffffffffffff168152602001908152602001600020905081816001019080519060200190610f259291906111ae565b505050565b610f32611064565b600073ffffffffffffffffffffffffffffffffffffffff168173ffffffffffffffffffffffffffffffffffffffff161415610fa2576040517f08c379a0000000000000000000000000000000000000000000000000000000008152600401610f99906117a7565b60405180910390fd5b610fab816110e2565b50565b6000600360003373ffffffffffffffffffffffffffffffffffffffff1673ffffffffffffffffffffffffffffffffffffffff1681526020019081526020016000209050828160020190805190602001906110099291906111ae565b50818160030181905550505050565b611020611064565b80600160006101000a81548173ffffffffffffffffffffffffffffffffffffffff021916908373ffffffffffffffffffffffffffffffffffffffff16021790555050565b61106c6111a6565b73ffffffffffffffffffffffffffffffffffffffff1661108a6107b7565b73ffffffffffffffffffffffffffffffffffffffff16146110e0576040517f08c379a00000000000000000000000000000000000000000000000000000000081526004016110d7906117c7565b60405180910390fd5b565b60008060009054906101000a900473ffffffffffffffffffffffffffffffffffffffff169050816000806101000a81548173ffffffffffffffffffffffffffffffffffffffff021916908373ffffffffffffffffffffffffffffffffffffffff1602179055508173ffffffffffffffffffffffffffffffffffffffff168173ffffffffffffffffffffffffffffffffffffffff167f8be0079c531659141344cd1fd0a4f28419497f9722a3daafe3b4186f6b6457e060405160405180910390a35050565b600033905090565b8280546111ba9061195a565b90600052602060002090601f0160209004810192826111dc5760008555611223565b82601f106111f557805160ff1916838001178555611223565b82800160010185558215611223579182015b82811115611222578251825591602001919060010190611207565b5b509050611230919061125c565b5090565b6040518060800160405280600081526020016060815260200160608152602001600081525090565b5b8082111561127557600081600090555060010161125d565b5090565b600061128c61128784611872565b61184d565b9050828152602081018484840111156112a8576112a7611a20565b5b6112b3848285611918565b509392505050565b6000813590506112ca81611ab8565b92915050565b6000813590506112df81611acf565b92915050565b600082601f8301126112fa576112f9611a1b565b5b813561130a848260208601611279565b91505092915050565b60008135905061132281611ae6565b92915050565b60008151905061133781611ae6565b92915050565b60006020828403121561135357611352611a2a565b5b6000611361848285016112bb565b91505092915050565b6000602082840312156113805761137f611a2a565b5b600082013567ffffffffffffffff81111561139e5761139d611a25565b5b6113aa848285016112e5565b91505092915050565b6000806000606084860312156113cc576113cb611a2a565b5b600084013567ffffffffffffffff8111156113ea576113e9611a25565b5b6113f6868287016112e5565b9350506020611407868287016112bb565b925050604061141886828701611313565b9150509250925092565b60008060006060848603121561143b5761143a611a2a565b5b600084013567ffffffffffffffff81111561145957611458611a25565b5b611465868287016112e5565b935050602084013567ffffffffffffffff81111561148657611485611a25565b5b611492868287016112e5565b92505060406114a386828701611313565b9150509250925092565b600080604083850312156114c4576114c3611a2a565b5b600083013567ffffffffffffffff8111156114e2576114e1611a25565b5b6114ee858286016112e5565b92505060206114ff85828601611313565b9150509250929050565b60006020828403121561151f5761151e611a2a565b5b600061152d84828501611313565b91505092915050565b60006020828403121561154c5761154b611a2a565b5b600061155a84828501611328565b91505092915050565b6000806040838503121561157a57611579611a2a565b5b600061158885828601611313565b9250506020611599858286016112bb565b9150509250929050565b600080604083850312156115ba576115b9611a2a565b5b60006115c885828601611313565b92505060206115d9858286016112d0565b9150509250929050565b6115ec816118d0565b82525050565b6115fb816118e2565b82525050565b600061160c826118a3565b61161681856118ae565b9350611626818560208601611927565b61162f81611a2f565b840191505092915050565b6000611645826118a3565b61164f81856118bf565b935061165f818560208601611927565b61166881611a2f565b840191505092915050565b60006116806026836118bf565b915061168b82611a40565b604082019050919050565b60006116a36020836118bf565b91506116ae82611a8f565b602082019050919050565b60006080830160008301516116d16000860182611723565b50602083015184820360208601526116e98282611601565b915050604083015184820360408601526117038282611601565b91505060608301516117186060860182611723565b508091505092915050565b61172c8161190e565b82525050565b61173b8161190e565b82525050565b600060208201905061175660008301846115e3565b92915050565b600060408201905061177160008301856115e3565b8181036020830152611783818461163a565b90509392505050565b60006020820190506117a160008301846115f2565b92915050565b600060208201905081810360008301526117c081611673565b9050919050565b600060208201905081810360008301526117e081611696565b9050919050565b6000602082019050818103600083015261180181846116b9565b905092915050565b600060208201905061181e6000830184611732565b92915050565b60006040820190506118396000830185611732565b6118466020830184611732565b9392505050565b6000611857611868565b9050611863828261198c565b919050565b6000604051905090565b600067ffffffffffffffff82111561188d5761188c6119ec565b5b61189682611a2f565b9050602081019050919050565b600081519050919050565b600082825260208201905092915050565b600082825260208201905092915050565b60006118db826118ee565b9050919050565b60008115159050919050565b600073ffffffffffffffffffffffffffffffffffffffff82169050919050565b6000819050919050565b82818337600083830152505050565b60005b8381101561194557808201518184015260208101905061192a565b83811115611954576000848401525b50505050565b6000600282049050600182168061197257607f821691505b60208210811415611986576119856119bd565b5b50919050565b61199582611a2f565b810181811067ffffffffffffffff821117156119b4576119b36119ec565b5b80604052505050565b7f4e487b7100000000000000000000000000000000000000000000000000000000600052602260045260246000fd5b7f4e487b7100000000000000000000000000000000000000000000000000000000600052604160045260246000fd5b600080fd5b600080fd5b600080fd5b600080fd5b6000601f19601f8301169050919050565b7f4f776e61626c653a206e6577206f776e657220697320746865207a65726f206160008201527f6464726573730000000000000000000000000000000000000000000000000000602082015250565b7f4f776e61626c653a2063616c6c6572206973206e6f7420746865206f776e6572600082015250565b611ac1816118d0565b8114611acc57600080fd5b50565b611ad8816118e2565b8114611ae357600080fd5b50565b611aef8161190e565b8114611afa57600080fd5b5056fea2646970667358221220f5ef9b9f812058da2f2999b42e28454e9851b86e8c65f60cab69f3f921f9e7b664736f6c63430008070033",
					"opcodes": "PUSH1 0x80 PUSH1 0x40 MSTORE CALLVALUE DUP1 ISZERO PUSH2 0x10 JUMPI PUSH1 0x0 DUP1 REVERT JUMPDEST POP PUSH2 0x2D PUSH2 0x22 PUSH2 0x32 PUSH1 0x20 SHL PUSH1 0x20 SHR JUMP JUMPDEST PUSH2 0x3A PUSH1 0x20 SHL PUSH1 0x20 SHR JUMP JUMPDEST PUSH2 0xFE JUMP JUMPDEST PUSH1 0x0 CALLER SWAP1 POP SWAP1 JUMP JUMPDEST PUSH1 0x0 DUP1 PUSH1 0x0 SWAP1 SLOAD SWAP1 PUSH2 0x100 EXP SWAP1 DIV PUSH20 0xFFFFFFFFFFFFFFFFFFFFFFFFFFFFFFFFFFFFFFFF AND SWAP1 POP DUP2 PUSH1 0x0 DUP1 PUSH2 0x100 EXP DUP2 SLOAD DUP2 PUSH20 0xFFFFFFFFFFFFFFFFFFFFFFFFFFFFFFFFFFFFFFFF MUL NOT AND SWAP1 DUP4 PUSH20 0xFFFFFFFFFFFFFFFFFFFFFFFFFFFFFFFFFFFFFFFF AND MUL OR SWAP1 SSTORE POP DUP2 PUSH20 0xFFFFFFFFFFFFFFFFFFFFFFFFFFFFFFFFFFFFFFFF AND DUP2 PUSH20 0xFFFFFFFFFFFFFFFFFFFFFFFFFFFFFFFFFFFFFFFF AND PUSH32 0x8BE0079C531659141344CD1FD0A4F28419497F9722A3DAAFE3B4186F6B6457E0 PUSH1 0x40 MLOAD PUSH1 0x40 MLOAD DUP1 SWAP2 SUB SWAP1 LOG3 POP POP JUMP JUMPDEST PUSH2 0x1B33 DUP1 PUSH2 0x10D PUSH1 0x0 CODECOPY PUSH1 0x0 RETURN INVALID PUSH1 0x80 PUSH1 0x40 MSTORE PUSH1 0x4 CALLDATASIZE LT PUSH2 0xF7 JUMPI PUSH1 0x0 CALLDATALOAD PUSH1 0xE0 SHR DUP1 PUSH4 0xAD575035 GT PUSH2 0x8A JUMPI DUP1 PUSH4 0xD6F70EB3 GT PUSH2 0x59 JUMPI DUP1 PUSH4 0xD6F70EB3 EQ PUSH2 0x346 JUMPI DUP1 PUSH4 0xF2FDE38B EQ PUSH2 0x36F JUMPI DUP1 PUSH4 0xFA0E9E41 EQ PUSH2 0x398 JUMPI DUP1 PUSH4 0xFBC2CF13 EQ PUSH2 0x3C1 JUMPI PUSH2 0x101 JUMP JUMPDEST DUP1 PUSH4 0xAD575035 EQ PUSH2 0x27A JUMPI DUP1 PUSH4 0xB2B72BC4 EQ PUSH2 0x2B7 JUMPI DUP1 PUSH4 0xBAFDEE14 EQ PUSH2 0x2F4 JUMPI DUP1 PUSH4 0xD1933DDD EQ PUSH2 0x31D JUMPI PUSH2 0x101 JUMP JUMPDEST DUP1 PUSH4 0x715018A6 GT PUSH2 0xC6 JUMPI DUP1 PUSH4 0x715018A6 EQ PUSH2 0x1D2 JUMPI DUP1 PUSH4 0x717B9B6C EQ PUSH2 0x1E9 JUMPI DUP1 PUSH4 0x8DA5CB5B EQ PUSH2 0x212 JUMPI DUP1 PUSH4 0x917B8FD0 EQ PUSH2 0x23D JUMPI PUSH2 0x101 JUMP JUMPDEST DUP1 PUSH4 0xE197DC9 EQ PUSH2 0x106 JUMPI DUP1 PUSH4 0x1FF4BDF3 EQ PUSH2 0x143 JUMPI DUP1 PUSH4 0x3960A892 EQ PUSH2 0x16C JUMPI DUP1 PUSH4 0x4B3CEF44 EQ PUSH2 0x195 JUMPI PUSH2 0x101 JUMP JUMPDEST CALLDATASIZE PUSH2 0x101 JUMPI PUSH1 0x0 DUP1 REVERT JUMPDEST PUSH1 0x0 DUP1 REVERT JUMPDEST CALLVALUE DUP1 ISZERO PUSH2 0x112 JUMPI PUSH1 0x0 DUP1 REVERT JUMPDEST POP PUSH2 0x12D PUSH1 0x4 DUP1 CALLDATASIZE SUB DUP2 ADD SWAP1 PUSH2 0x128 SWAP2 SWAP1 PUSH2 0x1509 JUMP JUMPDEST PUSH2 0x3EA JUMP JUMPDEST PUSH1 0x40 MLOAD PUSH2 0x13A SWAP2 SWAP1 PUSH2 0x178C JUMP JUMPDEST PUSH1 0x40 MLOAD DUP1 SWAP2 SUB SWAP1 RETURN JUMPDEST CALLVALUE DUP1 ISZERO PUSH2 0x14F JUMPI PUSH1 0x0 DUP1 REVERT JUMPDEST POP PUSH2 0x16A PUSH1 0x4 DUP1 CALLDATASIZE SUB DUP2 ADD SWAP1 PUSH2 0x165 SWAP2 SWAP1 PUSH2 0x133D JUMP JUMPDEST PUSH2 0x414 JUMP JUMPDEST STOP JUMPDEST CALLVALUE DUP1 ISZERO PUSH2 0x178 JUMPI PUSH1 0x0 DUP1 REVERT JUMPDEST POP PUSH2 0x193 PUSH1 0x4 DUP1 CALLDATASIZE SUB DUP2 ADD SWAP1 PUSH2 0x18E SWAP2 SWAP1 PUSH2 0x1563 JUMP JUMPDEST PUSH2 0x685 JUMP JUMPDEST STOP JUMPDEST CALLVALUE DUP1 ISZERO PUSH2 0x1A1 JUMPI PUSH1 0x0 DUP1 REVERT JUMPDEST POP PUSH2 0x1BC PUSH1 0x4 DUP1 CALLDATASIZE SUB DUP2 ADD SWAP1 PUSH2 0x1B7 SWAP2 SWAP1 PUSH2 0x1509 JUMP JUMPDEST PUSH2 0x72A JUMP JUMPDEST PUSH1 0x40 MLOAD PUSH2 0x1C9 SWAP2 SWAP1 PUSH2 0x1741 JUMP JUMPDEST PUSH1 0x40 MLOAD DUP1 SWAP2 SUB SWAP1 RETURN JUMPDEST CALLVALUE DUP1 ISZERO PUSH2 0x1DE JUMPI PUSH1 0x0 DUP1 REVERT JUMPDEST POP PUSH2 0x1E7 PUSH2 0x76C JUMP JUMPDEST STOP JUMPDEST CALLVALUE DUP1 ISZERO PUSH2 0x1F5 JUMPI PUSH1 0x0 DUP1 REVERT JUMPDEST POP PUSH2 0x210 PUSH1 0x4 DUP1 CALLDATASIZE SUB DUP2 ADD SWAP1 PUSH2 0x20B SWAP2 SWAP1 PUSH2 0x15A3 JUMP JUMPDEST PUSH2 0x780 JUMP JUMPDEST STOP JUMPDEST CALLVALUE DUP1 ISZERO PUSH2 0x21E JUMPI PUSH1 0x0 DUP1 REVERT JUMPDEST POP PUSH2 0x227 PUSH2 0x7B7 JUMP JUMPDEST PUSH1 0x40 MLOAD PUSH2 0x234 SWAP2 SWAP1 PUSH2 0x1741 JUMP JUMPDEST PUSH1 0x40 MLOAD DUP1 SWAP2 SUB SWAP1 RETURN JUMPDEST CALLVALUE DUP1 ISZERO PUSH2 0x249 JUMPI PUSH1 0x0 DUP1 REVERT JUMPDEST POP PUSH2 0x264 PUSH1 0x4 DUP1 CALLDATASIZE SUB DUP2 ADD SWAP1 PUSH2 0x25F SWAP2 SWAP1 PUSH2 0x1509 JUMP JUMPDEST PUSH2 0x7E0 JUMP JUMPDEST PUSH1 0x40 MLOAD PUSH2 0x271 SWAP2 SWAP1 PUSH2 0x17E7 JUMP JUMPDEST PUSH1 0x40 MLOAD DUP1 SWAP2 SUB SWAP1 RETURN JUMPDEST CALLVALUE DUP1 ISZERO PUSH2 0x286 JUMPI PUSH1 0x0 DUP1 REVERT JUMPDEST POP PUSH2 0x2A1 PUSH1 0x4 DUP1 CALLDATASIZE SUB DUP2 ADD SWAP1 PUSH2 0x29C SWAP2 SWAP1 PUSH2 0x133D JUMP JUMPDEST PUSH2 0x9B0 JUMP JUMPDEST PUSH1 0x40 MLOAD PUSH2 0x2AE SWAP2 SWAP1 PUSH2 0x17E7 JUMP JUMPDEST PUSH1 0x40 MLOAD DUP1 SWAP2 SUB SWAP1 RETURN JUMPDEST CALLVALUE DUP1 ISZERO PUSH2 0x2C3 JUMPI PUSH1 0x0 DUP1 REVERT JUMPDEST POP PUSH2 0x2DE PUSH1 0x4 DUP1 CALLDATASIZE SUB DUP2 ADD SWAP1 PUSH2 0x2D9 SWAP2 SWAP1 PUSH2 0x133D JUMP JUMPDEST PUSH2 0xB47 JUMP JUMPDEST PUSH1 0x40 MLOAD PUSH2 0x2EB SWAP2 SWAP1 PUSH2 0x1809 JUMP JUMPDEST PUSH1 0x40 MLOAD DUP1 SWAP2 SUB SWAP1 RETURN JUMPDEST CALLVALUE DUP1 ISZERO PUSH2 0x300 JUMPI PUSH1 0x0 DUP1 REVERT JUMPDEST POP PUSH2 0x31B PUSH1 0x4 DUP1 CALLDATASIZE SUB DUP2 ADD SWAP1 PUSH2 0x316 SWAP2 SWAP1 PUSH2 0x1422 JUMP JUMPDEST PUSH2 0xCDB JUMP JUMPDEST STOP JUMPDEST CALLVALUE DUP1 ISZERO PUSH2 0x329 JUMPI PUSH1 0x0 DUP1 REVERT JUMPDEST POP PUSH2 0x344 PUSH1 0x4 DUP1 CALLDATASIZE SUB DUP2 ADD SWAP1 PUSH2 0x33F SWAP2 SWAP1 PUSH2 0x13B3 JUMP JUMPDEST PUSH2 0xD5F JUMP JUMPDEST STOP JUMPDEST CALLVALUE DUP1 ISZERO PUSH2 0x352 JUMPI PUSH1 0x0 DUP1 REVERT JUMPDEST POP PUSH2 0x36D PUSH1 0x4 DUP1 CALLDATASIZE SUB DUP2 ADD SWAP1 PUSH2 0x368 SWAP2 SWAP1 PUSH2 0x136A JUMP JUMPDEST PUSH2 0xECA JUMP JUMPDEST STOP JUMPDEST CALLVALUE DUP1 ISZERO PUSH2 0x37B JUMPI PUSH1 0x0 DUP1 REVERT JUMPDEST POP PUSH2 0x396 PUSH1 0x4 DUP1 CALLDATASIZE SUB DUP2 ADD SWAP1 PUSH2 0x391 SWAP2 SWAP1 PUSH2 0x133D JUMP JUMPDEST PUSH2 0xF2A JUMP JUMPDEST STOP JUMPDEST CALLVALUE DUP1 ISZERO PUSH2 0x3A4 JUMPI PUSH1 0x0 DUP1 REVERT JUMPDEST POP PUSH2 0x3BF PUSH1 0x4 DUP1 CALLDATASIZE SUB DUP2 ADD SWAP1 PUSH2 0x3BA SWAP2 SWAP1 PUSH2 0x14AD JUMP JUMPDEST PUSH2 0xFAE JUMP JUMPDEST STOP JUMPDEST CALLVALUE DUP1 ISZERO PUSH2 0x3CD JUMPI PUSH1 0x0 DUP1 REVERT JUMPDEST POP PUSH2 0x3E8 PUSH1 0x4 DUP1 CALLDATASIZE SUB DUP2 ADD SWAP1 PUSH2 0x3E3 SWAP2 SWAP1 PUSH2 0x133D JUMP JUMPDEST PUSH2 0x1018 JUMP JUMPDEST STOP JUMPDEST PUSH1 0x0 PUSH1 0x4 PUSH1 0x0 DUP4 DUP2 MSTORE PUSH1 0x20 ADD SWAP1 DUP2 MSTORE PUSH1 0x20 ADD PUSH1 0x0 KECCAK256 PUSH1 0x0 SWAP1 SLOAD SWAP1 PUSH2 0x100 EXP SWAP1 DIV PUSH1 0xFF AND SWAP1 POP SWAP2 SWAP1 POP JUMP JUMPDEST PUSH1 0x0 PUSH1 0x3 PUSH1 0x0 CALLER PUSH20 0xFFFFFFFFFFFFFFFFFFFFFFFFFFFFFFFFFFFFFFFF AND PUSH20 0xFFFFFFFFFFFFFFFFFFFFFFFFFFFFFFFFFFFFFFFF AND DUP2 MSTORE PUSH1 0x20 ADD SWAP1 DUP2 MSTORE PUSH1 0x20 ADD PUSH1 0x0 KECCAK256 PUSH1 0x40 MLOAD DUP1 PUSH1 0x80 ADD PUSH1 0x40 MSTORE SWAP1 DUP2 PUSH1 0x0 DUP3 ADD SLOAD DUP2 MSTORE PUSH1 0x20 ADD PUSH1 0x1 DUP3 ADD DUP1 SLOAD PUSH2 0x47A SWAP1 PUSH2 0x195A JUMP JUMPDEST DUP1 PUSH1 0x1F ADD PUSH1 0x20 DUP1 SWAP2 DIV MUL PUSH1 0x20 ADD PUSH1 0x40 MLOAD SWAP1 DUP2 ADD PUSH1 0x40 MSTORE DUP1 SWAP3 SWAP2 SWAP1 DUP2 DUP2 MSTORE PUSH1 0x20 ADD DUP3 DUP1 SLOAD PUSH2 0x4A6 SWAP1 PUSH2 0x195A JUMP JUMPDEST DUP1 ISZERO PUSH2 0x4F3 JUMPI DUP1 PUSH1 0x1F LT PUSH2 0x4C8 JUMPI PUSH2 0x100 DUP1 DUP4 SLOAD DIV MUL DUP4 MSTORE SWAP2 PUSH1 0x20 ADD SWAP2 PUSH2 0x4F3 JUMP JUMPDEST DUP3 ADD SWAP2 SWAP1 PUSH1 0x0 MSTORE PUSH1 0x20 PUSH1 0x0 KECCAK256 SWAP1 JUMPDEST DUP2 SLOAD DUP2 MSTORE SWAP1 PUSH1 0x1 ADD SWAP1 PUSH1 0x20 ADD DUP1 DUP4 GT PUSH2 0x4D6 JUMPI DUP3 SWAP1 SUB PUSH1 0x1F AND DUP3 ADD SWAP2 JUMPDEST POP POP POP POP POP DUP2 MSTORE PUSH1 0x20 ADD PUSH1 0x2 DUP3 ADD DUP1 SLOAD PUSH2 0x50C SWAP1 PUSH2 0x195A JUMP JUMPDEST DUP1 PUSH1 0x1F ADD PUSH1 0x20 DUP1 SWAP2 DIV MUL PUSH1 0x20 ADD PUSH1 0x40 MLOAD SWAP1 DUP2 ADD PUSH1 0x40 MSTORE DUP1 SWAP3 SWAP2 SWAP1 DUP2 DUP2 MSTORE PUSH1 0x20 ADD DUP3 DUP1 SLOAD PUSH2 0x538 SWAP1 PUSH2 0x195A JUMP JUMPDEST DUP1 ISZERO PUSH2 0x585 JUMPI DUP1 PUSH1 0x1F LT PUSH2 0x55A JUMPI PUSH2 0x100 DUP1 DUP4 SLOAD DIV MUL DUP4 MSTORE SWAP2 PUSH1 0x20 ADD SWAP2 PUSH2 0x585 JUMP JUMPDEST DUP3 ADD SWAP2 SWAP1 PUSH1 0x0 MSTORE PUSH1 0x20 PUSH1 0x0 KECCAK256 SWAP1 JUMPDEST DUP2 SLOAD DUP2 MSTORE SWAP1 PUSH1 0x1 ADD SWAP1 PUSH1 0x20 ADD DUP1 DUP4 GT PUSH2 0x568 JUMPI DUP3 SWAP1 SUB PUSH1 0x1F AND DUP3 ADD SWAP2 JUMPDEST POP POP POP POP POP DUP2 MSTORE PUSH1 0x20 ADD PUSH1 0x3 DUP3 ADD SLOAD DUP2 MSTORE POP POP SWAP1 POP DUP1 PUSH1 0x3 PUSH1 0x0 DUP5 PUSH20 0xFFFFFFFFFFFFFFFFFFFFFFFFFFFFFFFFFFFFFFFF AND PUSH20 0xFFFFFFFFFFFFFFFFFFFFFFFFFFFFFFFFFFFFFFFF AND DUP2 MSTORE PUSH1 0x20 ADD SWAP1 DUP2 MSTORE PUSH1 0x20 ADD PUSH1 0x0 KECCAK256 PUSH1 0x0 DUP3 ADD MLOAD DUP2 PUSH1 0x0 ADD SSTORE PUSH1 0x20 DUP3 ADD MLOAD DUP2 PUSH1 0x1 ADD SWAP1 DUP1 MLOAD SWAP1 PUSH1 0x20 ADD SWAP1 PUSH2 0x600 SWAP3 SWAP2 SWAP1 PUSH2 0x11AE JUMP JUMPDEST POP PUSH1 0x40 DUP3 ADD MLOAD DUP2 PUSH1 0x2 ADD SWAP1 DUP1 MLOAD SWAP1 PUSH1 0x20 ADD SWAP1 PUSH2 0x61D SWAP3 SWAP2 SWAP1 PUSH2 0x11AE JUMP JUMPDEST POP PUSH1 0x60 DUP3 ADD MLOAD DUP2 PUSH1 0x3 ADD SSTORE SWAP1 POP POP DUP2 PUSH1 0x2 PUSH1 0x0 DUP4 PUSH1 0x0 ADD MLOAD DUP2 MSTORE PUSH1 0x20 ADD SWAP1 DUP2 MSTORE PUSH1 0x20 ADD PUSH1 0x0 KECCAK256 PUSH1 0x0 PUSH2 0x100 EXP DUP2 SLOAD DUP2 PUSH20 0xFFFFFFFFFFFFFFFFFFFFFFFFFFFFFFFFFFFFFFFF MUL NOT AND SWAP1 DUP4 PUSH20 0xFFFFFFFFFFFFFFFFFFFFFFFFFFFFFFFFFFFFFFFF AND MUL OR SWAP1 SSTORE POP POP POP JUMP JUMPDEST PUSH2 0x68D PUSH2 0x1064 JUMP JUMPDEST DUP1 PUSH1 0x2 PUSH1 0x0 DUP5 DUP2 MSTORE PUSH1 0x20 ADD SWAP1 DUP2 MSTORE PUSH1 0x20 ADD PUSH1 0x0 KECCAK256 PUSH1 0x0 PUSH2 0x100 EXP DUP2 SLOAD DUP2 PUSH20 0xFFFFFFFFFFFFFFFFFFFFFFFFFFFFFFFFFFFFFFFF MUL NOT AND SWAP1 DUP4 PUSH20 0xFFFFFFFFFFFFFFFFFFFFFFFFFFFFFFFFFFFFFFFF AND MUL OR SWAP1 SSTORE POP DUP2 PUSH1 0x3 PUSH1 0x0 DUP4 PUSH20 0xFFFFFFFFFFFFFFFFFFFFFFFFFFFFFFFFFFFFFFFF AND PUSH20 0xFFFFFFFFFFFFFFFFFFFFFFFFFFFFFFFFFFFFFFFF AND DUP2 MSTORE PUSH1 0x20 ADD SWAP1 DUP2 MSTORE PUSH1 0x20 ADD PUSH1 0x0 KECCAK256 PUSH1 0x0 ADD DUP2 SWAP1 SSTORE POP POP POP JUMP JUMPDEST PUSH1 0x0 DUP1 PUSH1 0x2 PUSH1 0x0 DUP5 DUP2 MSTORE PUSH1 0x20 ADD SWAP1 DUP2 MSTORE PUSH1 0x20 ADD PUSH1 0x0 KECCAK256 PUSH1 0x0 SWAP1 SLOAD SWAP1 PUSH2 0x100 EXP SWAP1 DIV PUSH20 0xFFFFFFFFFFFFFFFFFFFFFFFFFFFFFFFFFFFFFFFF AND SWAP1 POP DUP1 SWAP2 POP POP SWAP2 SWAP1 POP JUMP JUMPDEST PUSH2 0x774 PUSH2 0x1064 JUMP JUMPDEST PUSH2 0x77E PUSH1 0x0 PUSH2 0x10E2 JUMP JUMPDEST JUMP JUMPDEST PUSH2 0x788 PUSH2 0x1064 JUMP JUMPDEST DUP1 PUSH1 0x4 PUSH1 0x0 DUP5 DUP2 MSTORE PUSH1 0x20 ADD SWAP1 DUP2 MSTORE PUSH1 0x20 ADD PUSH1 0x0 KECCAK256 PUSH1 0x0 PUSH2 0x100 EXP DUP2 SLOAD DUP2 PUSH1 0xFF MUL NOT AND SWAP1 DUP4 ISZERO ISZERO MUL OR SWAP1 SSTORE POP POP POP JUMP JUMPDEST PUSH1 0x0 DUP1 PUSH1 0x0 SWAP1 SLOAD SWAP1 PUSH2 0x100 EXP SWAP1 DIV PUSH20 0xFFFFFFFFFFFFFFFFFFFFFFFFFFFFFFFFFFFFFFFF AND SWAP1 POP SWAP1 JUMP JUMPDEST PUSH2 0x7E8 PUSH2 0x1234 JUMP JUMPDEST PUSH1 0x0 PUSH1 0x2 PUSH1 0x0 DUP5 DUP2 MSTORE PUSH1 0x20 ADD SWAP1 DUP2 MSTORE PUSH1 0x20 ADD PUSH1 0x0 KECCAK256 PUSH1 0x0 SWAP1 SLOAD SWAP1 PUSH2 0x100 EXP SWAP1 DIV PUSH20 0xFFFFFFFFFFFFFFFFFFFFFFFFFFFFFFFFFFFFFFFF AND SWAP1 POP PUSH1 0x0 PUSH1 0x3 PUSH1 0x0 DUP4 PUSH20 0xFFFFFFFFFFFFFFFFFFFFFFFFFFFFFFFFFFFFFFFF AND PUSH20 0xFFFFFFFFFFFFFFFFFFFFFFFFFFFFFFFFFFFFFFFF AND DUP2 MSTORE PUSH1 0x20 ADD SWAP1 DUP2 MSTORE PUSH1 0x20 ADD PUSH1 0x0 KECCAK256 PUSH1 0x40 MLOAD DUP1 PUSH1 0x80 ADD PUSH1 0x40 MSTORE SWAP1 DUP2 PUSH1 0x0 DUP3 ADD SLOAD DUP2 MSTORE PUSH1 0x20 ADD PUSH1 0x1 DUP3 ADD DUP1 SLOAD PUSH2 0x886 SWAP1 PUSH2 0x195A JUMP JUMPDEST DUP1 PUSH1 0x1F ADD PUSH1 0x20 DUP1 SWAP2 DIV MUL PUSH1 0x20 ADD PUSH1 0x40 MLOAD SWAP1 DUP2 ADD PUSH1 0x40 MSTORE DUP1 SWAP3 SWAP2 SWAP1 DUP2 DUP2 MSTORE PUSH1 0x20 ADD DUP3 DUP1 SLOAD PUSH2 0x8B2 SWAP1 PUSH2 0x195A JUMP JUMPDEST DUP1 ISZERO PUSH2 0x8FF JUMPI DUP1 PUSH1 0x1F LT PUSH2 0x8D4 JUMPI PUSH2 0x100 DUP1 DUP4 SLOAD DIV MUL DUP4 MSTORE SWAP2 PUSH1 0x20 ADD SWAP2 PUSH2 0x8FF JUMP JUMPDEST DUP3 ADD SWAP2 SWAP1 PUSH1 0x0 MSTORE PUSH1 0x20 PUSH1 0x0 KECCAK256 SWAP1 JUMPDEST DUP2 SLOAD DUP2 MSTORE SWAP1 PUSH1 0x1 ADD SWAP1 PUSH1 0x20 ADD DUP1 DUP4 GT PUSH2 0x8E2 JUMPI DUP3 SWAP1 SUB PUSH1 0x1F AND DUP3 ADD SWAP2 JUMPDEST POP POP POP POP POP DUP2 MSTORE PUSH1 0x20 ADD PUSH1 0x2 DUP3 ADD DUP1 SLOAD PUSH2 0x918 SWAP1 PUSH2 0x195A JUMP JUMPDEST DUP1 PUSH1 0x1F ADD PUSH1 0x20 DUP1 SWAP2 DIV MUL PUSH1 0x20 ADD PUSH1 0x40 MLOAD SWAP1 DUP2 ADD PUSH1 0x40 MSTORE DUP1 SWAP3 SWAP2 SWAP1 DUP2 DUP2 MSTORE PUSH1 0x20 ADD DUP3 DUP1 SLOAD PUSH2 0x944 SWAP1 PUSH2 0x195A JUMP JUMPDEST DUP1 ISZERO PUSH2 0x991 JUMPI DUP1 PUSH1 0x1F LT PUSH2 0x966 JUMPI PUSH2 0x100 DUP1 DUP4 SLOAD DIV MUL DUP4 MSTORE SWAP2 PUSH1 0x20 ADD SWAP2 PUSH2 0x991 JUMP JUMPDEST DUP3 ADD SWAP2 SWAP1 PUSH1 0x0 MSTORE PUSH1 0x20 PUSH1 0x0 KECCAK256 SWAP1 JUMPDEST DUP2 SLOAD DUP2 MSTORE SWAP1 PUSH1 0x1 ADD SWAP1 PUSH1 0x20 ADD DUP1 DUP4 GT PUSH2 0x974 JUMPI DUP3 SWAP1 SUB PUSH1 0x1F AND DUP3 ADD SWAP2 JUMPDEST POP POP POP POP POP DUP2 MSTORE PUSH1 0x20 ADD PUSH1 0x3 DUP3 ADD SLOAD DUP2 MSTORE POP POP SWAP1 POP DUP1 SWAP3 POP POP POP SWAP2 SWAP1 POP JUMP JUMPDEST PUSH2 0x9B8 PUSH2 0x1234 JUMP JUMPDEST PUSH1 0x0 PUSH1 0x3 PUSH1 0x0 DUP5 PUSH20 0xFFFFFFFFFFFFFFFFFFFFFFFFFFFFFFFFFFFFFFFF AND PUSH20 0xFFFFFFFFFFFFFFFFFFFFFFFFFFFFFFFFFFFFFFFF AND DUP2 MSTORE PUSH1 0x20 ADD SWAP1 DUP2 MSTORE PUSH1 0x20 ADD PUSH1 0x0 KECCAK256 PUSH1 0x40 MLOAD DUP1 PUSH1 0x80 ADD PUSH1 0x40 MSTORE SWAP1 DUP2 PUSH1 0x0 DUP3 ADD SLOAD DUP2 MSTORE PUSH1 0x20 ADD PUSH1 0x1 DUP3 ADD DUP1 SLOAD PUSH2 0xA1E SWAP1 PUSH2 0x195A JUMP JUMPDEST DUP1 PUSH1 0x1F ADD PUSH1 0x20 DUP1 SWAP2 DIV MUL PUSH1 0x20 ADD PUSH1 0x40 MLOAD SWAP1 DUP2 ADD PUSH1 0x40 MSTORE DUP1 SWAP3 SWAP2 SWAP1 DUP2 DUP2 MSTORE PUSH1 0x20 ADD DUP3 DUP1 SLOAD PUSH2 0xA4A SWAP1 PUSH2 0x195A JUMP JUMPDEST DUP1 ISZERO PUSH2 0xA97 JUMPI DUP1 PUSH1 0x1F LT PUSH2 0xA6C JUMPI PUSH2 0x100 DUP1 DUP4 SLOAD DIV MUL DUP4 MSTORE SWAP2 PUSH1 0x20 ADD SWAP2 PUSH2 0xA97 JUMP JUMPDEST DUP3 ADD SWAP2 SWAP1 PUSH1 0x0 MSTORE PUSH1 0x20 PUSH1 0x0 KECCAK256 SWAP1 JUMPDEST DUP2 SLOAD DUP2 MSTORE SWAP1 PUSH1 0x1 ADD SWAP1 PUSH1 0x20 ADD DUP1 DUP4 GT PUSH2 0xA7A JUMPI DUP3 SWAP1 SUB PUSH1 0x1F AND DUP3 ADD SWAP2 JUMPDEST POP POP POP POP POP DUP2 MSTORE PUSH1 0x20 ADD PUSH1 0x2 DUP3 ADD DUP1 SLOAD PUSH2 0xAB0 SWAP1 PUSH2 0x195A JUMP JUMPDEST DUP1 PUSH1 0x1F ADD PUSH1 0x20 DUP1 SWAP2 DIV MUL PUSH1 0x20 ADD PUSH1 0x40 MLOAD SWAP1 DUP2 ADD PUSH1 0x40 MSTORE DUP1 SWAP3 SWAP2 SWAP1 DUP2 DUP2 MSTORE PUSH1 0x20 ADD DUP3 DUP1 SLOAD PUSH2 0xADC SWAP1 PUSH2 0x195A JUMP JUMPDEST DUP1 ISZERO PUSH2 0xB29 JUMPI DUP1 PUSH1 0x1F LT PUSH2 0xAFE JUMPI PUSH2 0x100 DUP1 DUP4 SLOAD DIV MUL DUP4 MSTORE SWAP2 PUSH1 0x20 ADD SWAP2 PUSH2 0xB29 JUMP JUMPDEST DUP3 ADD SWAP2 SWAP1 PUSH1 0x0 MSTORE PUSH1 0x20 PUSH1 0x0 KECCAK256 SWAP1 JUMPDEST DUP2 SLOAD DUP2 MSTORE SWAP1 PUSH1 0x1 ADD SWAP1 PUSH1 0x20 ADD DUP1 DUP4 GT PUSH2 0xB0C JUMPI DUP3 SWAP1 SUB PUSH1 0x1F AND DUP3 ADD SWAP2 JUMPDEST POP POP POP POP POP DUP2 MSTORE PUSH1 0x20 ADD PUSH1 0x3 DUP3 ADD SLOAD DUP2 MSTORE POP POP SWAP1 POP DUP1 SWAP2 POP POP SWAP2 SWAP1 POP JUMP JUMPDEST PUSH1 0x0 DUP1 PUSH1 0x3 PUSH1 0x0 DUP5 PUSH20 0xFFFFFFFFFFFFFFFFFFFFFFFFFFFFFFFFFFFFFFFF AND PUSH20 0xFFFFFFFFFFFFFFFFFFFFFFFFFFFFFFFFFFFFFFFF AND DUP2 MSTORE PUSH1 0x20 ADD SWAP1 DUP2 MSTORE PUSH1 0x20 ADD PUSH1 0x0 KECCAK256 PUSH1 0x40 MLOAD DUP1 PUSH1 0x80 ADD PUSH1 0x40 MSTORE SWAP1 DUP2 PUSH1 0x0 DUP3 ADD SLOAD DUP2 MSTORE PUSH1 0x20 ADD PUSH1 0x1 DUP3 ADD DUP1 SLOAD PUSH2 0xBAE SWAP1 PUSH2 0x195A JUMP JUMPDEST DUP1 PUSH1 0x1F ADD PUSH1 0x20 DUP1 SWAP2 DIV MUL PUSH1 0x20 ADD PUSH1 0x40 MLOAD SWAP1 DUP2 ADD PUSH1 0x40 MSTORE DUP1 SWAP3 SWAP2 SWAP1 DUP2 DUP2 MSTORE PUSH1 0x20 ADD DUP3 DUP1 SLOAD PUSH2 0xBDA SWAP1 PUSH2 0x195A JUMP JUMPDEST DUP1 ISZERO PUSH2 0xC27 JUMPI DUP1 PUSH1 0x1F LT PUSH2 0xBFC JUMPI PUSH2 0x100 DUP1 DUP4 SLOAD DIV MUL DUP4 MSTORE SWAP2 PUSH1 0x20 ADD SWAP2 PUSH2 0xC27 JUMP JUMPDEST DUP3 ADD SWAP2 SWAP1 PUSH1 0x0 MSTORE PUSH1 0x20 PUSH1 0x0 KECCAK256 SWAP1 JUMPDEST DUP2 SLOAD DUP2 MSTORE SWAP1 PUSH1 0x1 ADD SWAP1 PUSH1 0x20 ADD DUP1 DUP4 GT PUSH2 0xC0A JUMPI DUP3 SWAP1 SUB PUSH1 0x1F AND DUP3 ADD SWAP2 JUMPDEST POP POP POP POP POP DUP2 MSTORE PUSH1 0x20 ADD PUSH1 0x2 DUP3 ADD DUP1 SLOAD PUSH2 0xC40 SWAP1 PUSH2 0x195A JUMP JUMPDEST DUP1 PUSH1 0x1F ADD PUSH1 0x20 DUP1 SWAP2 DIV MUL PUSH1 0x20 ADD PUSH1 0x40 MLOAD SWAP1 DUP2 ADD PUSH1 0x40 MSTORE DUP1 SWAP3 SWAP2 SWAP1 DUP2 DUP2 MSTORE PUSH1 0x20 ADD DUP3 DUP1 SLOAD PUSH2 0xC6C SWAP1 PUSH2 0x195A JUMP JUMPDEST DUP1 ISZERO PUSH2 0xCB9 JUMPI DUP1 PUSH1 0x1F LT PUSH2 0xC8E JUMPI PUSH2 0x100 DUP1 DUP4 SLOAD DIV MUL DUP4 MSTORE SWAP2 PUSH1 0x20 ADD SWAP2 PUSH2 0xCB9 JUMP JUMPDEST DUP3 ADD SWAP2 SWAP1 PUSH1 0x0 MSTORE PUSH1 0x20 PUSH1 0x0 KECCAK256 SWAP1 JUMPDEST DUP2 SLOAD DUP2 MSTORE SWAP1 PUSH1 0x1 ADD SWAP1 PUSH1 0x20 ADD DUP1 DUP4 GT PUSH2 0xC9C JUMPI DUP3 SWAP1 SUB PUSH1 0x1F AND DUP3 ADD SWAP2 JUMPDEST POP POP POP POP POP DUP2 MSTORE PUSH1 0x20 ADD PUSH1 0x3 DUP3 ADD SLOAD DUP2 MSTORE POP POP SWAP1 POP DUP1 PUSH1 0x0 ADD MLOAD SWAP2 POP POP SWAP2 SWAP1 POP JUMP JUMPDEST PUSH1 0x0 PUSH1 0x3 PUSH1 0x0 CALLER PUSH20 0xFFFFFFFFFFFFFFFFFFFFFFFFFFFFFFFFFFFFFFFF AND PUSH20 0xFFFFFFFFFFFFFFFFFFFFFFFFFFFFFFFFFFFFFFFF AND DUP2 MSTORE PUSH1 0x20 ADD SWAP1 DUP2 MSTORE PUSH1 0x20 ADD PUSH1 0x0 KECCAK256 SWAP1 POP DUP4 DUP2 PUSH1 0x1 ADD SWAP1 DUP1 MLOAD SWAP1 PUSH1 0x20 ADD SWAP1 PUSH2 0xD36 SWAP3 SWAP2 SWAP1 PUSH2 0x11AE JUMP JUMPDEST POP DUP3 DUP2 PUSH1 0x2 ADD SWAP1 DUP1 MLOAD SWAP1 PUSH1 0x20 ADD SWAP1 PUSH2 0xD4F SWAP3 SWAP2 SWAP1 PUSH2 0x11AE JUMP JUMPDEST POP DUP2 DUP2 PUSH1 0x3 ADD DUP2 SWAP1 SSTORE POP POP POP POP POP JUMP JUMPDEST PUSH2 0xD67 PUSH2 0x1064 JUMP JUMPDEST PUSH1 0x0 ADDRESS SWAP1 POP PUSH1 0x0 PUSH1 0x1 PUSH1 0x0 SWAP1 SLOAD SWAP1 PUSH2 0x100 EXP SWAP1 DIV PUSH20 0xFFFFFFFFFFFFFFFFFFFFFFFFFFFFFFFFFFFFFFFF AND PUSH20 0xFFFFFFFFFFFFFFFFFFFFFFFFFFFFFFFFFFFFFFFF AND PUSH4 0xCF378343 DUP4 DUP8 PUSH1 0x40 MLOAD DUP4 PUSH4 0xFFFFFFFF AND PUSH1 0xE0 SHL DUP2 MSTORE PUSH1 0x4 ADD PUSH2 0xDCB SWAP3 SWAP2 SWAP1 PUSH2 0x175C JUMP JUMPDEST PUSH1 0x20 PUSH1 0x40 MLOAD DUP1 DUP4 SUB DUP2 PUSH1 0x0 DUP8 DUP1 EXTCODESIZE ISZERO DUP1 ISZERO PUSH2 0xDE5 JUMPI PUSH1 0x0 DUP1 REVERT JUMPDEST POP GAS CALL ISZERO DUP1 ISZERO PUSH2 0xDF9 JUMPI RETURNDATASIZE PUSH1 0x0 DUP1 RETURNDATACOPY RETURNDATASIZE PUSH1 0x0 REVERT JUMPDEST POP POP POP POP PUSH1 0x40 MLOAD RETURNDATASIZE PUSH1 0x1F NOT PUSH1 0x1F DUP3 ADD AND DUP3 ADD DUP1 PUSH1 0x40 MSTORE POP DUP2 ADD SWAP1 PUSH2 0xE1D SWAP2 SWAP1 PUSH2 0x1536 JUMP JUMPDEST SWAP1 POP PUSH1 0x1 PUSH1 0x0 SWAP1 SLOAD SWAP1 PUSH2 0x100 EXP SWAP1 DIV PUSH20 0xFFFFFFFFFFFFFFFFFFFFFFFFFFFFFFFFFFFFFFFF AND PUSH20 0xFFFFFFFFFFFFFFFFFFFFFFFFFFFFFFFFFFFFFFFF AND PUSH4 0xE1B2E979 DUP3 DUP6 PUSH1 0x40 MLOAD DUP4 PUSH4 0xFFFFFFFF AND PUSH1 0xE0 SHL DUP2 MSTORE PUSH1 0x4 ADD PUSH2 0xE7C SWAP3 SWAP2 SWAP1 PUSH2 0x1824 JUMP JUMPDEST PUSH1 0x0 PUSH1 0x40 MLOAD DUP1 DUP4 SUB DUP2 PUSH1 0x0 DUP8 DUP1 EXTCODESIZE ISZERO DUP1 ISZERO PUSH2 0xE96 JUMPI PUSH1 0x0 DUP1 REVERT JUMPDEST POP GAS CALL ISZERO DUP1 ISZERO PUSH2 0xEAA JUMPI RETURNDATASIZE PUSH1 0x0 DUP1 RETURNDATACOPY RETURNDATASIZE PUSH1 0x0 REVERT JUMPDEST POP POP POP POP PUSH2 0xEB9 DUP2 PUSH1 0x1 PUSH2 0x780 JUMP JUMPDEST PUSH2 0xEC3 DUP2 DUP6 PUSH2 0x685 JUMP JUMPDEST POP POP POP POP POP JUMP JUMPDEST PUSH1 0x0 PUSH1 0x3 PUSH1 0x0 CALLER PUSH20 0xFFFFFFFFFFFFFFFFFFFFFFFFFFFFFFFFFFFFFFFF AND PUSH20 0xFFFFFFFFFFFFFFFFFFFFFFFFFFFFFFFFFFFFFFFF AND DUP2 MSTORE PUSH1 0x20 ADD SWAP1 DUP2 MSTORE PUSH1 0x20 ADD PUSH1 0x0 KECCAK256 SWAP1 POP DUP2 DUP2 PUSH1 0x1 ADD SWAP1 DUP1 MLOAD SWAP1 PUSH1 0x20 ADD SWAP1 PUSH2 0xF25 SWAP3 SWAP2 SWAP1 PUSH2 0x11AE JUMP JUMPDEST POP POP POP JUMP JUMPDEST PUSH2 0xF32 PUSH2 0x1064 JUMP JUMPDEST PUSH1 0x0 PUSH20 0xFFFFFFFFFFFFFFFFFFFFFFFFFFFFFFFFFFFFFFFF AND DUP2 PUSH20 0xFFFFFFFFFFFFFFFFFFFFFFFFFFFFFFFFFFFFFFFF AND EQ ISZERO PUSH2 0xFA2 JUMPI PUSH1 0x40 MLOAD PUSH32 0x8C379A000000000000000000000000000000000000000000000000000000000 DUP2 MSTORE PUSH1 0x4 ADD PUSH2 0xF99 SWAP1 PUSH2 0x17A7 JUMP JUMPDEST PUSH1 0x40 MLOAD DUP1 SWAP2 SUB SWAP1 REVERT JUMPDEST PUSH2 0xFAB DUP2 PUSH2 0x10E2 JUMP JUMPDEST POP JUMP JUMPDEST PUSH1 0x0 PUSH1 0x3 PUSH1 0x0 CALLER PUSH20 0xFFFFFFFFFFFFFFFFFFFFFFFFFFFFFFFFFFFFFFFF AND PUSH20 0xFFFFFFFFFFFFFFFFFFFFFFFFFFFFFFFFFFFFFFFF AND DUP2 MSTORE PUSH1 0x20 ADD SWAP1 DUP2 MSTORE PUSH1 0x20 ADD PUSH1 0x0 KECCAK256 SWAP1 POP DUP3 DUP2 PUSH1 0x2 ADD SWAP1 DUP1 MLOAD SWAP1 PUSH1 0x20 ADD SWAP1 PUSH2 0x1009 SWAP3 SWAP2 SWAP1 PUSH2 0x11AE JUMP JUMPDEST POP DUP2 DUP2 PUSH1 0x3 ADD DUP2 SWAP1 SSTORE POP POP POP POP JUMP JUMPDEST PUSH2 0x1020 PUSH2 0x1064 JUMP JUMPDEST DUP1 PUSH1 0x1 PUSH1 0x0 PUSH2 0x100 EXP DUP2 SLOAD DUP2 PUSH20 0xFFFFFFFFFFFFFFFFFFFFFFFFFFFFFFFFFFFFFFFF MUL NOT AND SWAP1 DUP4 PUSH20 0xFFFFFFFFFFFFFFFFFFFFFFFFFFFFFFFFFFFFFFFF AND MUL OR SWAP1 SSTORE POP POP JUMP JUMPDEST PUSH2 0x106C PUSH2 0x11A6 JUMP JUMPDEST PUSH20 0xFFFFFFFFFFFFFFFFFFFFFFFFFFFFFFFFFFFFFFFF AND PUSH2 0x108A PUSH2 0x7B7 JUMP JUMPDEST PUSH20 0xFFFFFFFFFFFFFFFFFFFFFFFFFFFFFFFFFFFFFFFF AND EQ PUSH2 0x10E0 JUMPI PUSH1 0x40 MLOAD PUSH32 0x8C379A000000000000000000000000000000000000000000000000000000000 DUP2 MSTORE PUSH1 0x4 ADD PUSH2 0x10D7 SWAP1 PUSH2 0x17C7 JUMP JUMPDEST PUSH1 0x40 MLOAD DUP1 SWAP2 SUB SWAP1 REVERT JUMPDEST JUMP JUMPDEST PUSH1 0x0 DUP1 PUSH1 0x0 SWAP1 SLOAD SWAP1 PUSH2 0x100 EXP SWAP1 DIV PUSH20 0xFFFFFFFFFFFFFFFFFFFFFFFFFFFFFFFFFFFFFFFF AND SWAP1 POP DUP2 PUSH1 0x0 DUP1 PUSH2 0x100 EXP DUP2 SLOAD DUP2 PUSH20 0xFFFFFFFFFFFFFFFFFFFFFFFFFFFFFFFFFFFFFFFF MUL NOT AND SWAP1 DUP4 PUSH20 0xFFFFFFFFFFFFFFFFFFFFFFFFFFFFFFFFFFFFFFFF AND MUL OR SWAP1 SSTORE POP DUP2 PUSH20 0xFFFFFFFFFFFFFFFFFFFFFFFFFFFFFFFFFFFFFFFF AND DUP2 PUSH20 0xFFFFFFFFFFFFFFFFFFFFFFFFFFFFFFFFFFFFFFFF AND PUSH32 0x8BE0079C531659141344CD1FD0A4F28419497F9722A3DAAFE3B4186F6B6457E0 PUSH1 0x40 MLOAD PUSH1 0x40 MLOAD DUP1 SWAP2 SUB SWAP1 LOG3 POP POP JUMP JUMPDEST PUSH1 0x0 CALLER SWAP1 POP SWAP1 JUMP JUMPDEST DUP3 DUP1 SLOAD PUSH2 0x11BA SWAP1 PUSH2 0x195A JUMP JUMPDEST SWAP1 PUSH1 0x0 MSTORE PUSH1 0x20 PUSH1 0x0 KECCAK256 SWAP1 PUSH1 0x1F ADD PUSH1 0x20 SWAP1 DIV DUP2 ADD SWAP3 DUP3 PUSH2 0x11DC JUMPI PUSH1 0x0 DUP6 SSTORE PUSH2 0x1223 JUMP JUMPDEST DUP3 PUSH1 0x1F LT PUSH2 0x11F5 JUMPI DUP1 MLOAD PUSH1 0xFF NOT AND DUP4 DUP1 ADD OR DUP6 SSTORE PUSH2 0x1223 JUMP JUMPDEST DUP3 DUP1 ADD PUSH1 0x1 ADD DUP6 SSTORE DUP3 ISZERO PUSH2 0x1223 JUMPI SWAP2 DUP3 ADD JUMPDEST DUP3 DUP2 GT ISZERO PUSH2 0x1222 JUMPI DUP3 MLOAD DUP3 SSTORE SWAP2 PUSH1 0x20 ADD SWAP2 SWAP1 PUSH1 0x1 ADD SWAP1 PUSH2 0x1207 JUMP JUMPDEST JUMPDEST POP SWAP1 POP PUSH2 0x1230 SWAP2 SWAP1 PUSH2 0x125C JUMP JUMPDEST POP SWAP1 JUMP JUMPDEST PUSH1 0x40 MLOAD DUP1 PUSH1 0x80 ADD PUSH1 0x40 MSTORE DUP1 PUSH1 0x0 DUP2 MSTORE PUSH1 0x20 ADD PUSH1 0x60 DUP2 MSTORE PUSH1 0x20 ADD PUSH1 0x60 DUP2 MSTORE PUSH1 0x20 ADD PUSH1 0x0 DUP2 MSTORE POP SWAP1 JUMP JUMPDEST JUMPDEST DUP1 DUP3 GT ISZERO PUSH2 0x1275 JUMPI PUSH1 0x0 DUP2 PUSH1 0x0 SWAP1 SSTORE POP PUSH1 0x1 ADD PUSH2 0x125D JUMP JUMPDEST POP SWAP1 JUMP JUMPDEST PUSH1 0x0 PUSH2 0x128C PUSH2 0x1287 DUP5 PUSH2 0x1872 JUMP JUMPDEST PUSH2 0x184D JUMP JUMPDEST SWAP1 POP DUP3 DUP2 MSTORE PUSH1 0x20 DUP2 ADD DUP5 DUP5 DUP5 ADD GT ISZERO PUSH2 0x12A8 JUMPI PUSH2 0x12A7 PUSH2 0x1A20 JUMP JUMPDEST JUMPDEST PUSH2 0x12B3 DUP5 DUP3 DUP6 PUSH2 0x1918 JUMP JUMPDEST POP SWAP4 SWAP3 POP POP POP JUMP JUMPDEST PUSH1 0x0 DUP2 CALLDATALOAD SWAP1 POP PUSH2 0x12CA DUP2 PUSH2 0x1AB8 JUMP JUMPDEST SWAP3 SWAP2 POP POP JUMP JUMPDEST PUSH1 0x0 DUP2 CALLDATALOAD SWAP1 POP PUSH2 0x12DF DUP2 PUSH2 0x1ACF JUMP JUMPDEST SWAP3 SWAP2 POP POP JUMP JUMPDEST PUSH1 0x0 DUP3 PUSH1 0x1F DUP4 ADD SLT PUSH2 0x12FA JUMPI PUSH2 0x12F9 PUSH2 0x1A1B JUMP JUMPDEST JUMPDEST DUP2 CALLDATALOAD PUSH2 0x130A DUP5 DUP3 PUSH1 0x20 DUP7 ADD PUSH2 0x1279 JUMP JUMPDEST SWAP2 POP POP SWAP3 SWAP2 POP POP JUMP JUMPDEST PUSH1 0x0 DUP2 CALLDATALOAD SWAP1 POP PUSH2 0x1322 DUP2 PUSH2 0x1AE6 JUMP JUMPDEST SWAP3 SWAP2 POP POP JUMP JUMPDEST PUSH1 0x0 DUP2 MLOAD SWAP1 POP PUSH2 0x1337 DUP2 PUSH2 0x1AE6 JUMP JUMPDEST SWAP3 SWAP2 POP POP JUMP JUMPDEST PUSH1 0x0 PUSH1 0x20 DUP3 DUP5 SUB SLT ISZERO PUSH2 0x1353 JUMPI PUSH2 0x1352 PUSH2 0x1A2A JUMP JUMPDEST JUMPDEST PUSH1 0x0 PUSH2 0x1361 DUP5 DUP3 DUP6 ADD PUSH2 0x12BB JUMP JUMPDEST SWAP2 POP POP SWAP3 SWAP2 POP POP JUMP JUMPDEST PUSH1 0x0 PUSH1 0x20 DUP3 DUP5 SUB SLT ISZERO PUSH2 0x1380 JUMPI PUSH2 0x137F PUSH2 0x1A2A JUMP JUMPDEST JUMPDEST PUSH1 0x0 DUP3 ADD CALLDATALOAD PUSH8 0xFFFFFFFFFFFFFFFF DUP2 GT ISZERO PUSH2 0x139E JUMPI PUSH2 0x139D PUSH2 0x1A25 JUMP JUMPDEST JUMPDEST PUSH2 0x13AA DUP5 DUP3 DUP6 ADD PUSH2 0x12E5 JUMP JUMPDEST SWAP2 POP POP SWAP3 SWAP2 POP POP JUMP JUMPDEST PUSH1 0x0 DUP1 PUSH1 0x0 PUSH1 0x60 DUP5 DUP7 SUB SLT ISZERO PUSH2 0x13CC JUMPI PUSH2 0x13CB PUSH2 0x1A2A JUMP JUMPDEST JUMPDEST PUSH1 0x0 DUP5 ADD CALLDATALOAD PUSH8 0xFFFFFFFFFFFFFFFF DUP2 GT ISZERO PUSH2 0x13EA JUMPI PUSH2 0x13E9 PUSH2 0x1A25 JUMP JUMPDEST JUMPDEST PUSH2 0x13F6 DUP7 DUP3 DUP8 ADD PUSH2 0x12E5 JUMP JUMPDEST SWAP4 POP POP PUSH1 0x20 PUSH2 0x1407 DUP7 DUP3 DUP8 ADD PUSH2 0x12BB JUMP JUMPDEST SWAP3 POP POP PUSH1 0x40 PUSH2 0x1418 DUP7 DUP3 DUP8 ADD PUSH2 0x1313 JUMP JUMPDEST SWAP2 POP POP SWAP3 POP SWAP3 POP SWAP3 JUMP JUMPDEST PUSH1 0x0 DUP1 PUSH1 0x0 PUSH1 0x60 DUP5 DUP7 SUB SLT ISZERO PUSH2 0x143B JUMPI PUSH2 0x143A PUSH2 0x1A2A JUMP JUMPDEST JUMPDEST PUSH1 0x0 DUP5 ADD CALLDATALOAD PUSH8 0xFFFFFFFFFFFFFFFF DUP2 GT ISZERO PUSH2 0x1459 JUMPI PUSH2 0x1458 PUSH2 0x1A25 JUMP JUMPDEST JUMPDEST PUSH2 0x1465 DUP7 DUP3 DUP8 ADD PUSH2 0x12E5 JUMP JUMPDEST SWAP4 POP POP PUSH1 0x20 DUP5 ADD CALLDATALOAD PUSH8 0xFFFFFFFFFFFFFFFF DUP2 GT ISZERO PUSH2 0x1486 JUMPI PUSH2 0x1485 PUSH2 0x1A25 JUMP JUMPDEST JUMPDEST PUSH2 0x1492 DUP7 DUP3 DUP8 ADD PUSH2 0x12E5 JUMP JUMPDEST SWAP3 POP POP PUSH1 0x40 PUSH2 0x14A3 DUP7 DUP3 DUP8 ADD PUSH2 0x1313 JUMP JUMPDEST SWAP2 POP POP SWAP3 POP SWAP3 POP SWAP3 JUMP JUMPDEST PUSH1 0x0 DUP1 PUSH1 0x40 DUP4 DUP6 SUB SLT ISZERO PUSH2 0x14C4 JUMPI PUSH2 0x14C3 PUSH2 0x1A2A JUMP JUMPDEST JUMPDEST PUSH1 0x0 DUP4 ADD CALLDATALOAD PUSH8 0xFFFFFFFFFFFFFFFF DUP2 GT ISZERO PUSH2 0x14E2 JUMPI PUSH2 0x14E1 PUSH2 0x1A25 JUMP JUMPDEST JUMPDEST PUSH2 0x14EE DUP6 DUP3 DUP7 ADD PUSH2 0x12E5 JUMP JUMPDEST SWAP3 POP POP PUSH1 0x20 PUSH2 0x14FF DUP6 DUP3 DUP7 ADD PUSH2 0x1313 JUMP JUMPDEST SWAP2 POP POP SWAP3 POP SWAP3 SWAP1 POP JUMP JUMPDEST PUSH1 0x0 PUSH1 0x20 DUP3 DUP5 SUB SLT ISZERO PUSH2 0x151F JUMPI PUSH2 0x151E PUSH2 0x1A2A JUMP JUMPDEST JUMPDEST PUSH1 0x0 PUSH2 0x152D DUP5 DUP3 DUP6 ADD PUSH2 0x1313 JUMP JUMPDEST SWAP2 POP POP SWAP3 SWAP2 POP POP JUMP JUMPDEST PUSH1 0x0 PUSH1 0x20 DUP3 DUP5 SUB SLT ISZERO PUSH2 0x154C JUMPI PUSH2 0x154B PUSH2 0x1A2A JUMP JUMPDEST JUMPDEST PUSH1 0x0 PUSH2 0x155A DUP5 DUP3 DUP6 ADD PUSH2 0x1328 JUMP JUMPDEST SWAP2 POP POP SWAP3 SWAP2 POP POP JUMP JUMPDEST PUSH1 0x0 DUP1 PUSH1 0x40 DUP4 DUP6 SUB SLT ISZERO PUSH2 0x157A JUMPI PUSH2 0x1579 PUSH2 0x1A2A JUMP JUMPDEST JUMPDEST PUSH1 0x0 PUSH2 0x1588 DUP6 DUP3 DUP7 ADD PUSH2 0x1313 JUMP JUMPDEST SWAP3 POP POP PUSH1 0x20 PUSH2 0x1599 DUP6 DUP3 DUP7 ADD PUSH2 0x12BB JUMP JUMPDEST SWAP2 POP POP SWAP3 POP SWAP3 SWAP1 POP JUMP JUMPDEST PUSH1 0x0 DUP1 PUSH1 0x40 DUP4 DUP6 SUB SLT ISZERO PUSH2 0x15BA JUMPI PUSH2 0x15B9 PUSH2 0x1A2A JUMP JUMPDEST JUMPDEST PUSH1 0x0 PUSH2 0x15C8 DUP6 DUP3 DUP7 ADD PUSH2 0x1313 JUMP JUMPDEST SWAP3 POP POP PUSH1 0x20 PUSH2 0x15D9 DUP6 DUP3 DUP7 ADD PUSH2 0x12D0 JUMP JUMPDEST SWAP2 POP POP SWAP3 POP SWAP3 SWAP1 POP JUMP JUMPDEST PUSH2 0x15EC DUP2 PUSH2 0x18D0 JUMP JUMPDEST DUP3 MSTORE POP POP JUMP JUMPDEST PUSH2 0x15FB DUP2 PUSH2 0x18E2 JUMP JUMPDEST DUP3 MSTORE POP POP JUMP JUMPDEST PUSH1 0x0 PUSH2 0x160C DUP3 PUSH2 0x18A3 JUMP JUMPDEST PUSH2 0x1616 DUP2 DUP6 PUSH2 0x18AE JUMP JUMPDEST SWAP4 POP PUSH2 0x1626 DUP2 DUP6 PUSH1 0x20 DUP7 ADD PUSH2 0x1927 JUMP JUMPDEST PUSH2 0x162F DUP2 PUSH2 0x1A2F JUMP JUMPDEST DUP5 ADD SWAP2 POP POP SWAP3 SWAP2 POP POP JUMP JUMPDEST PUSH1 0x0 PUSH2 0x1645 DUP3 PUSH2 0x18A3 JUMP JUMPDEST PUSH2 0x164F DUP2 DUP6 PUSH2 0x18BF JUMP JUMPDEST SWAP4 POP PUSH2 0x165F DUP2 DUP6 PUSH1 0x20 DUP7 ADD PUSH2 0x1927 JUMP JUMPDEST PUSH2 0x1668 DUP2 PUSH2 0x1A2F JUMP JUMPDEST DUP5 ADD SWAP2 POP POP SWAP3 SWAP2 POP POP JUMP JUMPDEST PUSH1 0x0 PUSH2 0x1680 PUSH1 0x26 DUP4 PUSH2 0x18BF JUMP JUMPDEST SWAP2 POP PUSH2 0x168B DUP3 PUSH2 0x1A40 JUMP JUMPDEST PUSH1 0x40 DUP3 ADD SWAP1 POP SWAP2 SWAP1 POP JUMP JUMPDEST PUSH1 0x0 PUSH2 0x16A3 PUSH1 0x20 DUP4 PUSH2 0x18BF JUMP JUMPDEST SWAP2 POP PUSH2 0x16AE DUP3 PUSH2 0x1A8F JUMP JUMPDEST PUSH1 0x20 DUP3 ADD SWAP1 POP SWAP2 SWAP1 POP JUMP JUMPDEST PUSH1 0x0 PUSH1 0x80 DUP4 ADD PUSH1 0x0 DUP4 ADD MLOAD PUSH2 0x16D1 PUSH1 0x0 DUP7 ADD DUP3 PUSH2 0x1723 JUMP JUMPDEST POP PUSH1 0x20 DUP4 ADD MLOAD DUP5 DUP3 SUB PUSH1 0x20 DUP7 ADD MSTORE PUSH2 0x16E9 DUP3 DUP3 PUSH2 0x1601 JUMP JUMPDEST SWAP2 POP POP PUSH1 0x40 DUP4 ADD MLOAD DUP5 DUP3 SUB PUSH1 0x40 DUP7 ADD MSTORE PUSH2 0x1703 DUP3 DUP3 PUSH2 0x1601 JUMP JUMPDEST SWAP2 POP POP PUSH1 0x60 DUP4 ADD MLOAD PUSH2 0x1718 PUSH1 0x60 DUP7 ADD DUP3 PUSH2 0x1723 JUMP JUMPDEST POP DUP1 SWAP2 POP POP SWAP3 SWAP2 POP POP JUMP JUMPDEST PUSH2 0x172C DUP2 PUSH2 0x190E JUMP JUMPDEST DUP3 MSTORE POP POP JUMP JUMPDEST PUSH2 0x173B DUP2 PUSH2 0x190E JUMP JUMPDEST DUP3 MSTORE POP POP JUMP JUMPDEST PUSH1 0x0 PUSH1 0x20 DUP3 ADD SWAP1 POP PUSH2 0x1756 PUSH1 0x0 DUP4 ADD DUP5 PUSH2 0x15E3 JUMP JUMPDEST SWAP3 SWAP2 POP POP JUMP JUMPDEST PUSH1 0x0 PUSH1 0x40 DUP3 ADD SWAP1 POP PUSH2 0x1771 PUSH1 0x0 DUP4 ADD DUP6 PUSH2 0x15E3 JUMP JUMPDEST DUP2 DUP2 SUB PUSH1 0x20 DUP4 ADD MSTORE PUSH2 0x1783 DUP2 DUP5 PUSH2 0x163A JUMP JUMPDEST SWAP1 POP SWAP4 SWAP3 POP POP POP JUMP JUMPDEST PUSH1 0x0 PUSH1 0x20 DUP3 ADD SWAP1 POP PUSH2 0x17A1 PUSH1 0x0 DUP4 ADD DUP5 PUSH2 0x15F2 JUMP JUMPDEST SWAP3 SWAP2 POP POP JUMP JUMPDEST PUSH1 0x0 PUSH1 0x20 DUP3 ADD SWAP1 POP DUP2 DUP2 SUB PUSH1 0x0 DUP4 ADD MSTORE PUSH2 0x17C0 DUP2 PUSH2 0x1673 JUMP JUMPDEST SWAP1 POP SWAP2 SWAP1 POP JUMP JUMPDEST PUSH1 0x0 PUSH1 0x20 DUP3 ADD SWAP1 POP DUP2 DUP2 SUB PUSH1 0x0 DUP4 ADD MSTORE PUSH2 0x17E0 DUP2 PUSH2 0x1696 JUMP JUMPDEST SWAP1 POP SWAP2 SWAP1 POP JUMP JUMPDEST PUSH1 0x0 PUSH1 0x20 DUP3 ADD SWAP1 POP DUP2 DUP2 SUB PUSH1 0x0 DUP4 ADD MSTORE PUSH2 0x1801 DUP2 DUP5 PUSH2 0x16B9 JUMP JUMPDEST SWAP1 POP SWAP3 SWAP2 POP POP JUMP JUMPDEST PUSH1 0x0 PUSH1 0x20 DUP3 ADD SWAP1 POP PUSH2 0x181E PUSH1 0x0 DUP4 ADD DUP5 PUSH2 0x1732 JUMP JUMPDEST SWAP3 SWAP2 POP POP JUMP JUMPDEST PUSH1 0x0 PUSH1 0x40 DUP3 ADD SWAP1 POP PUSH2 0x1839 PUSH1 0x0 DUP4 ADD DUP6 PUSH2 0x1732 JUMP JUMPDEST PUSH2 0x1846 PUSH1 0x20 DUP4 ADD DUP5 PUSH2 0x1732 JUMP JUMPDEST SWAP4 SWAP3 POP POP POP JUMP JUMPDEST PUSH1 0x0 PUSH2 0x1857 PUSH2 0x1868 JUMP JUMPDEST SWAP1 POP PUSH2 0x1863 DUP3 DUP3 PUSH2 0x198C JUMP JUMPDEST SWAP2 SWAP1 POP JUMP JUMPDEST PUSH1 0x0 PUSH1 0x40 MLOAD SWAP1 POP SWAP1 JUMP JUMPDEST PUSH1 0x0 PUSH8 0xFFFFFFFFFFFFFFFF DUP3 GT ISZERO PUSH2 0x188D JUMPI PUSH2 0x188C PUSH2 0x19EC JUMP JUMPDEST JUMPDEST PUSH2 0x1896 DUP3 PUSH2 0x1A2F JUMP JUMPDEST SWAP1 POP PUSH1 0x20 DUP2 ADD SWAP1 POP SWAP2 SWAP1 POP JUMP JUMPDEST PUSH1 0x0 DUP2 MLOAD SWAP1 POP SWAP2 SWAP1 POP JUMP JUMPDEST PUSH1 0x0 DUP3 DUP3 MSTORE PUSH1 0x20 DUP3 ADD SWAP1 POP SWAP3 SWAP2 POP POP JUMP JUMPDEST PUSH1 0x0 DUP3 DUP3 MSTORE PUSH1 0x20 DUP3 ADD SWAP1 POP SWAP3 SWAP2 POP POP JUMP JUMPDEST PUSH1 0x0 PUSH2 0x18DB DUP3 PUSH2 0x18EE JUMP JUMPDEST SWAP1 POP SWAP2 SWAP1 POP JUMP JUMPDEST PUSH1 0x0 DUP2 ISZERO ISZERO SWAP1 POP SWAP2 SWAP1 POP JUMP JUMPDEST PUSH1 0x0 PUSH20 0xFFFFFFFFFFFFFFFFFFFFFFFFFFFFFFFFFFFFFFFF DUP3 AND SWAP1 POP SWAP2 SWAP1 POP JUMP JUMPDEST PUSH1 0x0 DUP2 SWAP1 POP SWAP2 SWAP1 POP JUMP JUMPDEST DUP3 DUP2 DUP4 CALLDATACOPY PUSH1 0x0 DUP4 DUP4 ADD MSTORE POP POP POP JUMP JUMPDEST PUSH1 0x0 JUMPDEST DUP4 DUP2 LT ISZERO PUSH2 0x1945 JUMPI DUP1 DUP3 ADD MLOAD DUP2 DUP5 ADD MSTORE PUSH1 0x20 DUP2 ADD SWAP1 POP PUSH2 0x192A JUMP JUMPDEST DUP4 DUP2 GT ISZERO PUSH2 0x1954 JUMPI PUSH1 0x0 DUP5 DUP5 ADD MSTORE JUMPDEST POP POP POP POP JUMP JUMPDEST PUSH1 0x0 PUSH1 0x2 DUP3 DIV SWAP1 POP PUSH1 0x1 DUP3 AND DUP1 PUSH2 0x1972 JUMPI PUSH1 0x7F DUP3 AND SWAP2 POP JUMPDEST PUSH1 0x20 DUP3 LT DUP2 EQ ISZERO PUSH2 0x1986 JUMPI PUSH2 0x1985 PUSH2 0x19BD JUMP JUMPDEST JUMPDEST POP SWAP2 SWAP1 POP JUMP JUMPDEST PUSH2 0x1995 DUP3 PUSH2 0x1A2F JUMP JUMPDEST DUP2 ADD DUP2 DUP2 LT PUSH8 0xFFFFFFFFFFFFFFFF DUP3 GT OR ISZERO PUSH2 0x19B4 JUMPI PUSH2 0x19B3 PUSH2 0x19EC JUMP JUMPDEST JUMPDEST DUP1 PUSH1 0x40 MSTORE POP POP POP JUMP JUMPDEST PUSH32 0x4E487B7100000000000000000000000000000000000000000000000000000000 PUSH1 0x0 MSTORE PUSH1 0x22 PUSH1 0x4 MSTORE PUSH1 0x24 PUSH1 0x0 REVERT JUMPDEST PUSH32 0x4E487B7100000000000000000000000000000000000000000000000000000000 PUSH1 0x0 MSTORE PUSH1 0x41 PUSH1 0x4 MSTORE PUSH1 0x24 PUSH1 0x0 REVERT JUMPDEST PUSH1 0x0 DUP1 REVERT JUMPDEST PUSH1 0x0 DUP1 REVERT JUMPDEST PUSH1 0x0 DUP1 REVERT JUMPDEST PUSH1 0x0 DUP1 REVERT JUMPDEST PUSH1 0x0 PUSH1 0x1F NOT PUSH1 0x1F DUP4 ADD AND SWAP1 POP SWAP2 SWAP1 POP JUMP JUMPDEST PUSH32 0x4F776E61626C653A206E6577206F776E657220697320746865207A65726F2061 PUSH1 0x0 DUP3 ADD MSTORE PUSH32 0x6464726573730000000000000000000000000000000000000000000000000000 PUSH1 0x20 DUP3 ADD MSTORE POP JUMP JUMPDEST PUSH32 0x4F776E61626C653A2063616C6C6572206973206E6F7420746865206F776E6572 PUSH1 0x0 DUP3 ADD MSTORE POP JUMP JUMPDEST PUSH2 0x1AC1 DUP2 PUSH2 0x18D0 JUMP JUMPDEST DUP2 EQ PUSH2 0x1ACC JUMPI PUSH1 0x0 DUP1 REVERT JUMPDEST POP JUMP JUMPDEST PUSH2 0x1AD8 DUP2 PUSH2 0x18E2 JUMP JUMPDEST DUP2 EQ PUSH2 0x1AE3 JUMPI PUSH1 0x0 DUP1 REVERT JUMPDEST POP JUMP JUMPDEST PUSH2 0x1AEF DUP2 PUSH2 0x190E JUMP JUMPDEST DUP2 EQ PUSH2 0x1AFA JUMPI PUSH1 0x0 DUP1 REVERT JUMPDEST POP JUMP INVALID LOG2 PUSH5 0x6970667358 0x22 SLT KECCAK256 CREATE2 0xEF SWAP12 SWAP16 DUP2 KECCAK256 PC 0xDA 0x2F 0x29 SWAP10 0xB4 0x2E 0x28 GASLIMIT 0x4E SWAP9 MLOAD 0xB8 PUSH15 0x8C65F60CAB69F3F921F9E7B664736F PUSH13 0x63430008070033000000000000 "
				},
				"gasEstimates": {
					"creation": {
						"codeDepositCost": "1392600",
						"executionCost": "infinite",
						"totalCost": "infinite"
					},
					"external": {
						"": "203",
						"NFTIdOfManager(address)": "infinite",
						"availableOfNFTId(uint256)": "2846",
						"createKYCNFT(string,address,uint256)": "infinite",
						"initManagerAddr(uint256,address)": "49515",
						"managerOfNFTId(uint256)": "2968",
						"modifyManagerAddr(address)": "infinite",
						"owner()": "2589",
						"renounceOwnership()": "30421",
						"setKYCNFTContractAddress(address)": "27074",
						"setNFTAvailableOfNFTId(uint256,bool)": "27239",
						"transferOwnership(address)": "30791",
						"updateAccumulator(string,string,uint256)": "infinite",
						"updateAccumulatorPublicKey(string,uint256)": "infinite",
						"updateAccumulatorValue(string)": "infinite",
						"userDataOfManager(address)": "infinite",
						"userDataOfNFTId(uint256)": "infinite"
					}
				},
				"methodIdentifiers": {
					"NFTIdOfManager(address)": "b2b72bc4",
					"availableOfNFTId(uint256)": "0e197dc9",
					"createKYCNFT(string,address,uint256)": "d1933ddd",
					"initManagerAddr(uint256,address)": "3960a892",
					"managerOfNFTId(uint256)": "4b3cef44",
					"modifyManagerAddr(address)": "1ff4bdf3",
					"owner()": "8da5cb5b",
					"renounceOwnership()": "715018a6",
					"setKYCNFTContractAddress(address)": "fbc2cf13",
					"setNFTAvailableOfNFTId(uint256,bool)": "717b9b6c",
					"transferOwnership(address)": "f2fde38b",
					"updateAccumulator(string,string,uint256)": "bafdee14",
					"updateAccumulatorPublicKey(string,uint256)": "fa0e9e41",
					"updateAccumulatorValue(string)": "d6f70eb3",
					"userDataOfManager(address)": "ad575035",
					"userDataOfNFTId(uint256)": "917b8fd0"
				}
			},
			"storageLayout": {
				"storage": [
					{
						"astId": 7,
						"contract": "contracts/KYCManager.sol:KYCManagerV1",
						"label": "_owner",
						"offset": 0,
						"slot": "0",
						"type": "t_address"
					},
					{
						"astId": 168,
						"contract": "contracts/KYCManager.sol:KYCManagerV1",
						"label": "kycNFTContract",
						"offset": 0,
						"slot": "1",
						"type": "t_contract(KYCNFTInterface)154"
					},
					{
						"astId": 172,
						"contract": "contracts/KYCManager.sol:KYCManagerV1",
						"label": "NFTIdToManager",
						"offset": 0,
						"slot": "2",
						"type": "t_mapping(t_uint256,t_address)"
					},
					{
						"astId": 177,
						"contract": "contracts/KYCManager.sol:KYCManagerV1",
						"label": "ManagerToUserData",
						"offset": 0,
						"slot": "3",
						"type": "t_mapping(t_address,t_struct(UserData)165_storage)"
					},
					{
						"astId": 181,
						"contract": "contracts/KYCManager.sol:KYCManagerV1",
						"label": "NFTIdToAvailable",
						"offset": 0,
						"slot": "4",
						"type": "t_mapping(t_uint256,t_bool)"
					}
				],
				"types": {
					"t_address": {
						"encoding": "inplace",
						"label": "address",
						"numberOfBytes": "20"
					},
					"t_bool": {
						"encoding": "inplace",
						"label": "bool",
						"numberOfBytes": "1"
					},
					"t_contract(KYCNFTInterface)154": {
						"encoding": "inplace",
						"label": "contract KYCNFTInterface",
						"numberOfBytes": "20"
					},
					"t_mapping(t_address,t_struct(UserData)165_storage)": {
						"encoding": "mapping",
						"key": "t_address",
						"label": "mapping(address => struct KYCManagerV1.UserData)",
						"numberOfBytes": "32",
						"value": "t_struct(UserData)165_storage"
					},
					"t_mapping(t_uint256,t_address)": {
						"encoding": "mapping",
						"key": "t_uint256",
						"label": "mapping(uint256 => address)",
						"numberOfBytes": "32",
						"value": "t_address"
					},
					"t_mapping(t_uint256,t_bool)": {
						"encoding": "mapping",
						"key": "t_uint256",
						"label": "mapping(uint256 => bool)",
						"numberOfBytes": "32",
						"value": "t_bool"
					},
					"t_string_storage": {
						"encoding": "bytes",
						"label": "string",
						"numberOfBytes": "32"
					},
					"t_struct(UserData)165_storage": {
						"encoding": "inplace",
						"label": "struct KYCManagerV1.UserData",
						"members": [
							{
								"astId": 158,
								"contract": "contracts/KYCManager.sol:KYCManagerV1",
								"label": "NFTid",
								"offset": 0,
								"slot": "0",
								"type": "t_uint256"
							},
							{
								"astId": 160,
								"contract": "contracts/KYCManager.sol:KYCManagerV1",
								"label": "accumulator",
								"offset": 0,
								"slot": "1",
								"type": "t_string_storage"
							},
							{
								"astId": 162,
								"contract": "contracts/KYCManager.sol:KYCManagerV1",
								"label": "n",
								"offset": 0,
								"slot": "2",
								"type": "t_string_storage"
							},
							{
								"astId": 164,
								"contract": "contracts/KYCManager.sol:KYCManagerV1",
								"label": "g",
								"offset": 0,
								"slot": "3",
								"type": "t_uint256"
							}
						],
						"numberOfBytes": "128"
					},
					"t_uint256": {
						"encoding": "inplace",
						"label": "uint256",
						"numberOfBytes": "32"
					}
				}
			},
			"userdoc": {
				"kind": "user",
				"methods": {},
				"version": 1
			}
		}
	}
}