{
	"contracts/KYCManagerV2.sol": {
		"KYCManager": {
			"abi": [
				{
					"anonymous": false,
					"inputs": [
						{
							"indexed": true,
							"internalType": "address",
							"name": "previousOwner",
							"type": "address"
						},
						{
							"indexed": true,
							"internalType": "address",
							"name": "newOwner",
							"type": "address"
						}
					],
					"name": "OwnershipTransferred",
					"type": "event"
				},
				{
					"stateMutability": "payable",
					"type": "fallback"
				},
				{
					"inputs": [
						{
							"internalType": "address",
							"name": "managerAddr",
							"type": "address"
						}
					],
					"name": "NFTIdOfManager",
					"outputs": [
						{
							"internalType": "uint256",
							"name": "",
							"type": "uint256"
						}
					],
					"stateMutability": "view",
					"type": "function"
				},
				{
					"inputs": [
						{
							"internalType": "uint256",
							"name": "NFTId",
							"type": "uint256"
						}
					],
					"name": "availableOfNFTId",
					"outputs": [
						{
							"internalType": "bool",
							"name": "",
							"type": "bool"
						}
					],
					"stateMutability": "view",
					"type": "function"
				},
				{
					"inputs": [
						{
							"internalType": "string",
							"name": "tokenUrl",
							"type": "string"
						},
						{
							"internalType": "address",
							"name": "manager",
							"type": "address"
						},
						{
							"internalType": "uint256",
							"name": "expirationTime",
							"type": "uint256"
						}
					],
					"name": "createKYCNFT",
					"outputs": [],
					"stateMutability": "nonpayable",
					"type": "function"
				},
				{
					"inputs": [
						{
							"internalType": "uint256",
							"name": "NFTId",
							"type": "uint256"
						},
						{
							"internalType": "address",
							"name": "manager",
							"type": "address"
						}
					],
					"name": "initManagerAddr",
					"outputs": [],
					"stateMutability": "nonpayable",
					"type": "function"
				},
				{
					"inputs": [
						{
							"internalType": "uint256",
							"name": "NFTId",
							"type": "uint256"
						}
					],
					"name": "managerOfNFTId",
					"outputs": [
						{
							"internalType": "address",
							"name": "",
							"type": "address"
						}
					],
					"stateMutability": "view",
					"type": "function"
				},
				{
					"inputs": [
						{
							"internalType": "address",
							"name": "newManager",
							"type": "address"
						}
					],
					"name": "modifyManagerAddr",
					"outputs": [],
					"stateMutability": "nonpayable",
					"type": "function"
				},
				{
					"inputs": [],
					"name": "owner",
					"outputs": [
						{
							"internalType": "address",
							"name": "",
							"type": "address"
						}
					],
					"stateMutability": "view",
					"type": "function"
				},
				{
					"inputs": [],
					"name": "renounceOwnership",
					"outputs": [],
					"stateMutability": "nonpayable",
					"type": "function"
				},
				{
					"inputs": [
						{
							"internalType": "uint256",
							"name": "NFTId",
							"type": "uint256"
						},
						{
							"internalType": "bool",
							"name": "_available",
							"type": "bool"
						}
					],
					"name": "setAvailableOfNFTId",
					"outputs": [],
					"stateMutability": "nonpayable",
					"type": "function"
				},
				{
					"inputs": [
						{
							"internalType": "address",
							"name": "_kycnftContractAddr",
							"type": "address"
						}
					],
					"name": "setKYCNFTContractAddress",
					"outputs": [],
					"stateMutability": "nonpayable",
					"type": "function"
				},
				{
					"inputs": [
						{
							"internalType": "address",
							"name": "newOwner",
							"type": "address"
						}
					],
					"name": "transferOwnership",
					"outputs": [],
					"stateMutability": "nonpayable",
					"type": "function"
				},
				{
					"inputs": [
						{
							"internalType": "bytes32",
							"name": "newMerkleRoot",
							"type": "bytes32"
						}
					],
					"name": "updateMerkleRoot",
					"outputs": [],
					"stateMutability": "nonpayable",
					"type": "function"
				},
				{
					"inputs": [
						{
							"internalType": "address",
							"name": "managerAddr",
							"type": "address"
						}
					],
					"name": "userDataOfManager",
					"outputs": [
						{
							"components": [
								{
									"internalType": "uint256",
									"name": "NFTId",
									"type": "uint256"
								},
								{
									"internalType": "bytes32",
									"name": "merkleRoot",
									"type": "bytes32"
								}
							],
							"internalType": "struct KYCManager.UserData",
							"name": "",
							"type": "tuple"
						}
					],
					"stateMutability": "view",
					"type": "function"
				},
				{
					"inputs": [
						{
							"internalType": "uint256",
							"name": "NFTId",
							"type": "uint256"
						}
					],
					"name": "userDataOfNFTId",
					"outputs": [
						{
							"components": [
								{
									"internalType": "uint256",
									"name": "NFTId",
									"type": "uint256"
								},
								{
									"internalType": "bytes32",
									"name": "merkleRoot",
									"type": "bytes32"
								}
							],
							"internalType": "struct KYCManager.UserData",
							"name": "",
							"type": "tuple"
						}
					],
					"stateMutability": "view",
					"type": "function"
				},
				{
					"inputs": [
						{
							"internalType": "bytes32",
							"name": "leaf",
							"type": "bytes32"
						},
						{
							"internalType": "bytes32[]",
							"name": "proof",
							"type": "bytes32[]"
						},
						{
							"internalType": "uint256[]",
							"name": "positions",
							"type": "uint256[]"
						},
						{
							"internalType": "uint256",
							"name": "NFTId",
							"type": "uint256"
						}
					],
					"name": "verifyKYCAuthProof",
					"outputs": [
						{
							"internalType": "bool",
							"name": "",
							"type": "bool"
						}
					],
					"stateMutability": "view",
					"type": "function"
				},
				{
					"stateMutability": "payable",
					"type": "receive"
				}
			],
			"devdoc": {
				"kind": "dev",
				"methods": {
					"owner()": {
						"details": "Returns the address of the current owner."
					},
					"renounceOwnership()": {
						"details": "Leaves the contract without owner. It will not be possible to call `onlyOwner` functions anymore. Can only be called by the current owner. NOTE: Renouncing ownership will leave the contract without an owner, thereby removing any functionality that is only available to the owner."
					},
					"transferOwnership(address)": {
						"details": "Transfers ownership of the contract to a new account (`newOwner`). Can only be called by the current owner."
					}
				},
				"version": 1
			},
			"evm": {
				"assembly": "    /* \"contracts/KYCManagerV2.sol\":432:4453  contract KYCManager is Ownable {... */\n  mstore(0x40, 0x80)\n  callvalue\n  dup1\n  iszero\n  tag_1\n  jumpi\n  0x00\n  dup1\n  revert\ntag_1:\n  pop\n    /* \"@openzeppelin/contracts/access/Ownable.sol\":936:968  _transferOwnership(_msgSender()) */\n  tag_4\n    /* \"@openzeppelin/contracts/access/Ownable.sol\":955:967  _msgSender() */\n  tag_5\n    /* \"@openzeppelin/contracts/access/Ownable.sol\":955:965  _msgSender */\n  shl(0x20, tag_6)\n    /* \"@openzeppelin/contracts/access/Ownable.sol\":955:967  _msgSender() */\n  0x20\n  shr\n  jump\t// in\ntag_5:\n    /* \"@openzeppelin/contracts/access/Ownable.sol\":936:954  _transferOwnership */\n  shl(0x20, tag_7)\n    /* \"@openzeppelin/contracts/access/Ownable.sol\":936:968  _transferOwnership(_msgSender()) */\n  0x20\n  shr\n  jump\t// in\ntag_4:\n    /* \"contracts/KYCManagerV2.sol\":432:4453  contract KYCManager is Ownable {... */\n  jump(tag_8)\n    /* \"@openzeppelin/contracts/utils/Context.sol\":640:736  function _msgSender() internal view virtual returns (address) {... */\ntag_6:\n    /* \"@openzeppelin/contracts/utils/Context.sol\":693:700  address */\n  0x00\n    /* \"@openzeppelin/contracts/utils/Context.sol\":719:729  msg.sender */\n  caller\n    /* \"@openzeppelin/contracts/utils/Context.sol\":712:729  return msg.sender */\n  swap1\n  pop\n    /* \"@openzeppelin/contracts/utils/Context.sol\":640:736  function _msgSender() internal view virtual returns (address) {... */\n  swap1\n  jump\t// out\n    /* \"@openzeppelin/contracts/access/Ownable.sol\":2433:2620  function _transferOwnership(address newOwner) internal virtual {... */\ntag_7:\n    /* \"@openzeppelin/contracts/access/Ownable.sol\":2506:2522  address oldOwner */\n  0x00\n    /* \"@openzeppelin/contracts/access/Ownable.sol\":2525:2531  _owner */\n  dup1\n  0x00\n  swap1\n  sload\n  swap1\n  0x0100\n  exp\n  swap1\n  div\n  0xffffffffffffffffffffffffffffffffffffffff\n  and\n    /* \"@openzeppelin/contracts/access/Ownable.sol\":2506:2531  address oldOwner = _owner */\n  swap1\n  pop\n    /* \"@openzeppelin/contracts/access/Ownable.sol\":2550:2558  newOwner */\n  dup2\n    /* \"@openzeppelin/contracts/access/Ownable.sol\":2541:2547  _owner */\n  0x00\n  dup1\n    /* \"@openzeppelin/contracts/access/Ownable.sol\":2541:2558  _owner = newOwner */\n  0x0100\n  exp\n  dup2\n  sload\n  dup2\n  0xffffffffffffffffffffffffffffffffffffffff\n  mul\n  not\n  and\n  swap1\n  dup4\n  0xffffffffffffffffffffffffffffffffffffffff\n  and\n  mul\n  or\n  swap1\n  sstore\n  pop\n    /* \"@openzeppelin/contracts/access/Ownable.sol\":2604:2612  newOwner */\n  dup2\n    /* \"@openzeppelin/contracts/access/Ownable.sol\":2573:2613  OwnershipTransferred(oldOwner, newOwner) */\n  0xffffffffffffffffffffffffffffffffffffffff\n  and\n    /* \"@openzeppelin/contracts/access/Ownable.sol\":2594:2602  oldOwner */\n  dup2\n    /* \"@openzeppelin/contracts/access/Ownable.sol\":2573:2613  OwnershipTransferred(oldOwner, newOwner) */\n  0xffffffffffffffffffffffffffffffffffffffff\n  and\n  0x8be0079c531659141344cd1fd0a4f28419497f9722a3daafe3b4186f6b6457e0\n  mload(0x40)\n  mload(0x40)\n  dup1\n  swap2\n  sub\n  swap1\n  log3\n    /* \"@openzeppelin/contracts/access/Ownable.sol\":2433:2620  function _transferOwnership(address newOwner) internal virtual {... */\n  pop\n  pop\n  jump\t// out\n    /* \"contracts/KYCManagerV2.sol\":432:4453  contract KYCManager is Ownable {... */\ntag_8:\n  dataSize(sub_0)\n  dup1\n  dataOffset(sub_0)\n  0x00\n  codecopy\n  0x00\n  return\nstop\n\nsub_0: assembly {\n        /* \"contracts/KYCManagerV2.sol\":432:4453  contract KYCManager is Ownable {... */\n      mstore(0x40, 0x80)\n      jumpi(tag_1, lt(calldatasize, 0x04))\n      shr(0xe0, calldataload(0x00))\n      dup1\n      0x917b8fd0\n      gt\n      tag_18\n      jumpi\n      dup1\n      0xd1933ddd\n      gt\n      tag_19\n      jumpi\n      dup1\n      0xd1933ddd\n      eq\n      tag_14\n      jumpi\n      dup1\n      0xf097c289\n      eq\n      tag_15\n      jumpi\n      dup1\n      0xf2fde38b\n      eq\n      tag_16\n      jumpi\n      dup1\n      0xfbc2cf13\n      eq\n      tag_17\n      jumpi\n      jump(tag_2)\n    tag_19:\n      dup1\n      0x917b8fd0\n      eq\n      tag_10\n      jumpi\n      dup1\n      0xab98a679\n      eq\n      tag_11\n      jumpi\n      dup1\n      0xad575035\n      eq\n      tag_12\n      jumpi\n      dup1\n      0xb2b72bc4\n      eq\n      tag_13\n      jumpi\n      jump(tag_2)\n    tag_18:\n      dup1\n      0x4783f0ef\n      gt\n      tag_20\n      jumpi\n      dup1\n      0x4783f0ef\n      eq\n      tag_6\n      jumpi\n      dup1\n      0x4b3cef44\n      eq\n      tag_7\n      jumpi\n      dup1\n      0x715018a6\n      eq\n      tag_8\n      jumpi\n      dup1\n      0x8da5cb5b\n      eq\n      tag_9\n      jumpi\n      jump(tag_2)\n    tag_20:\n      dup1\n      0x0e197dc9\n      eq\n      tag_3\n      jumpi\n      dup1\n      0x1ff4bdf3\n      eq\n      tag_4\n      jumpi\n      dup1\n      0x3960a892\n      eq\n      tag_5\n      jumpi\n      jump(tag_2)\n    tag_1:\n      jumpi(tag_2, calldatasize)\n        /* \"contracts/KYCManagerV2.sol\":4436:4444  revert() */\n      0x00\n      dup1\n      revert\n        /* \"contracts/KYCManagerV2.sol\":432:4453  contract KYCManager is Ownable {... */\n    tag_2:\n        /* \"contracts/KYCManagerV2.sol\":4378:4386  revert() */\n      0x00\n      dup1\n      revert\n        /* \"contracts/KYCManagerV2.sol\":2894:3009  function availableOfNFTId(uint256 NFTId) public view returns (bool) {... */\n    tag_3:\n      callvalue\n      dup1\n      iszero\n      tag_25\n      jumpi\n      0x00\n      dup1\n      revert\n    tag_25:\n      pop\n      tag_26\n      0x04\n      dup1\n      calldatasize\n      sub\n      dup2\n      add\n      swap1\n      tag_27\n      swap2\n      swap1\n      tag_28\n      jump\t// in\n    tag_27:\n      tag_29\n      jump\t// in\n    tag_26:\n      mload(0x40)\n      tag_30\n      swap2\n      swap1\n      tag_31\n      jump\t// in\n    tag_30:\n      mload(0x40)\n      dup1\n      swap2\n      sub\n      swap1\n      return\n        /* \"contracts/KYCManagerV2.sol\":1797:2027  function modifyManagerAddr(address newManager) public {... */\n    tag_4:\n      callvalue\n      dup1\n      iszero\n      tag_32\n      jumpi\n      0x00\n      dup1\n      revert\n    tag_32:\n      pop\n      tag_33\n      0x04\n      dup1\n      calldatasize\n      sub\n      dup2\n      add\n      swap1\n      tag_34\n      swap2\n      swap1\n      tag_35\n      jump\t// in\n    tag_34:\n      tag_36\n      jump\t// in\n    tag_33:\n      stop\n        /* \"contracts/KYCManagerV2.sol\":1619:1791  function initManagerAddr(uint256 NFTId, address manager) public onlyOwner {... */\n    tag_5:\n      callvalue\n      dup1\n      iszero\n      tag_37\n      jumpi\n      0x00\n      dup1\n      revert\n    tag_37:\n      pop\n      tag_38\n      0x04\n      dup1\n      calldatasize\n      sub\n      dup2\n      add\n      swap1\n      tag_39\n      swap2\n      swap1\n      tag_40\n      jump\t// in\n    tag_39:\n      tag_41\n      jump\t// in\n    tag_38:\n      stop\n        /* \"contracts/KYCManagerV2.sol\":2067:2242  function updateMerkleRoot(bytes32 newMerkleRoot) public {... */\n    tag_6:\n      callvalue\n      dup1\n      iszero\n      tag_42\n      jumpi\n      0x00\n      dup1\n      revert\n    tag_42:\n      pop\n      tag_43\n      0x04\n      dup1\n      calldatasize\n      sub\n      dup2\n      add\n      swap1\n      tag_44\n      swap2\n      swap1\n      tag_45\n      jump\t// in\n    tag_44:\n      tag_46\n      jump\t// in\n    tag_43:\n      stop\n        /* \"contracts/KYCManagerV2.sol\":2276:2419  function managerOfNFTId(uint256 NFTId) public view returns (address) {... */\n    tag_7:\n      callvalue\n      dup1\n      iszero\n      tag_47\n      jumpi\n      0x00\n      dup1\n      revert\n    tag_47:\n      pop\n      tag_48\n      0x04\n      dup1\n      calldatasize\n      sub\n      dup2\n      add\n      swap1\n      tag_49\n      swap2\n      swap1\n      tag_28\n      jump\t// in\n    tag_49:\n      tag_50\n      jump\t// in\n    tag_48:\n      mload(0x40)\n      tag_51\n      swap2\n      swap1\n      tag_52\n      jump\t// in\n    tag_51:\n      mload(0x40)\n      dup1\n      swap2\n      sub\n      swap1\n      return\n        /* \"@openzeppelin/contracts/access/Ownable.sol\":1831:1932  function renounceOwnership() public virtual onlyOwner {... */\n    tag_8:\n      callvalue\n      dup1\n      iszero\n      tag_53\n      jumpi\n      0x00\n      dup1\n      revert\n    tag_53:\n      pop\n      tag_54\n      tag_55\n      jump\t// in\n    tag_54:\n      stop\n        /* \"@openzeppelin/contracts/access/Ownable.sol\":1201:1286  function owner() public view virtual returns (address) {... */\n    tag_9:\n      callvalue\n      dup1\n      iszero\n      tag_56\n      jumpi\n      0x00\n      dup1\n      revert\n    tag_56:\n      pop\n      tag_57\n      tag_58\n      jump\t// in\n    tag_57:\n      mload(0x40)\n      tag_59\n      swap2\n      swap1\n      tag_52\n      jump\t// in\n    tag_59:\n      mload(0x40)\n      dup1\n      swap2\n      sub\n      swap1\n      return\n        /* \"contracts/KYCManagerV2.sol\":2425:2669  function userDataOfNFTId(uint256 NFTId)... */\n    tag_10:\n      callvalue\n      dup1\n      iszero\n      tag_60\n      jumpi\n      0x00\n      dup1\n      revert\n    tag_60:\n      pop\n      tag_61\n      0x04\n      dup1\n      calldatasize\n      sub\n      dup2\n      add\n      swap1\n      tag_62\n      swap2\n      swap1\n      tag_28\n      jump\t// in\n    tag_62:\n      tag_63\n      jump\t// in\n    tag_61:\n      mload(0x40)\n      tag_64\n      swap2\n      swap1\n      tag_65\n      jump\t// in\n    tag_64:\n      mload(0x40)\n      dup1\n      swap2\n      sub\n      swap1\n      return\n        /* \"contracts/KYCManagerV2.sol\":1430:1581  function setAvailableOfNFTId(uint256 NFTId, bool _available)... */\n    tag_11:\n      callvalue\n      dup1\n      iszero\n      tag_66\n      jumpi\n      0x00\n      dup1\n      revert\n    tag_66:\n      pop\n      tag_67\n      0x04\n      dup1\n      calldatasize\n      sub\n      dup2\n      add\n      swap1\n      tag_68\n      swap2\n      swap1\n      tag_69\n      jump\t// in\n    tag_68:\n      tag_70\n      jump\t// in\n    tag_67:\n      stop\n        /* \"contracts/KYCManagerV2.sol\":2675:2888  function userDataOfManager(address managerAddr)... */\n    tag_12:\n      callvalue\n      dup1\n      iszero\n      tag_71\n      jumpi\n      0x00\n      dup1\n      revert\n    tag_71:\n      pop\n      tag_72\n      0x04\n      dup1\n      calldatasize\n      sub\n      dup2\n      add\n      swap1\n      tag_73\n      swap2\n      swap1\n      tag_35\n      jump\t// in\n    tag_73:\n      tag_74\n      jump\t// in\n    tag_72:\n      mload(0x40)\n      tag_75\n      swap2\n      swap1\n      tag_65\n      jump\t// in\n    tag_75:\n      mload(0x40)\n      dup1\n      swap2\n      sub\n      swap1\n      return\n        /* \"contracts/KYCManagerV2.sol\":3015:3195  function NFTIdOfManager(address managerAddr) public view returns (uint256) {... */\n    tag_13:\n      callvalue\n      dup1\n      iszero\n      tag_76\n      jumpi\n      0x00\n      dup1\n      revert\n    tag_76:\n      pop\n      tag_77\n      0x04\n      dup1\n      calldatasize\n      sub\n      dup2\n      add\n      swap1\n      tag_78\n      swap2\n      swap1\n      tag_35\n      jump\t// in\n    tag_78:\n      tag_79\n      jump\t// in\n    tag_77:\n      mload(0x40)\n      tag_80\n      swap2\n      swap1\n      tag_81\n      jump\t// in\n    tag_80:\n      mload(0x40)\n      dup1\n      swap2\n      sub\n      swap1\n      return\n        /* \"contracts/KYCManagerV2.sol\":960:1424  function createKYCNFT(... */\n    tag_14:\n      callvalue\n      dup1\n      iszero\n      tag_82\n      jumpi\n      0x00\n      dup1\n      revert\n    tag_82:\n      pop\n      tag_83\n      0x04\n      dup1\n      calldatasize\n      sub\n      dup2\n      add\n      swap1\n      tag_84\n      swap2\n      swap1\n      tag_85\n      jump\t// in\n    tag_84:\n      tag_86\n      jump\t// in\n    tag_83:\n      stop\n        /* \"contracts/KYCManagerV2.sol\":3935:4334  function verifyKYCAuthProof(... */\n    tag_15:\n      callvalue\n      dup1\n      iszero\n      tag_87\n      jumpi\n      0x00\n      dup1\n      revert\n    tag_87:\n      pop\n      tag_88\n      0x04\n      dup1\n      calldatasize\n      sub\n      dup2\n      add\n      swap1\n      tag_89\n      swap2\n      swap1\n      tag_90\n      jump\t// in\n    tag_89:\n      tag_91\n      jump\t// in\n    tag_88:\n      mload(0x40)\n      tag_92\n      swap2\n      swap1\n      tag_31\n      jump\t// in\n    tag_92:\n      mload(0x40)\n      dup1\n      swap2\n      sub\n      swap1\n      return\n        /* \"@openzeppelin/contracts/access/Ownable.sol\":2081:2279  function transferOwnership(address newOwner) public virtual onlyOwner {... */\n    tag_16:\n      callvalue\n      dup1\n      iszero\n      tag_93\n      jumpi\n      0x00\n      dup1\n      revert\n    tag_93:\n      pop\n      tag_94\n      0x04\n      dup1\n      calldatasize\n      sub\n      dup2\n      add\n      swap1\n      tag_95\n      swap2\n      swap1\n      tag_35\n      jump\t// in\n    tag_95:\n      tag_96\n      jump\t// in\n    tag_94:\n      stop\n        /* \"contracts/KYCManagerV2.sol\":780:950  function setKYCNFTContractAddress(address _kycnftContractAddr)... */\n    tag_17:\n      callvalue\n      dup1\n      iszero\n      tag_97\n      jumpi\n      0x00\n      dup1\n      revert\n    tag_97:\n      pop\n      tag_98\n      0x04\n      dup1\n      calldatasize\n      sub\n      dup2\n      add\n      swap1\n      tag_99\n      swap2\n      swap1\n      tag_35\n      jump\t// in\n    tag_99:\n      tag_100\n      jump\t// in\n    tag_98:\n      stop\n        /* \"contracts/KYCManagerV2.sol\":2894:3009  function availableOfNFTId(uint256 NFTId) public view returns (bool) {... */\n    tag_29:\n        /* \"contracts/KYCManagerV2.sol\":2956:2960  bool */\n      0x00\n        /* \"contracts/KYCManagerV2.sol\":2979:2995  NFTIdToAvailable */\n      0x04\n        /* \"contracts/KYCManagerV2.sol\":2979:3002  NFTIdToAvailable[NFTId] */\n      0x00\n        /* \"contracts/KYCManagerV2.sol\":2996:3001  NFTId */\n      dup4\n        /* \"contracts/KYCManagerV2.sol\":2979:3002  NFTIdToAvailable[NFTId] */\n      dup2\n      mstore\n      0x20\n      add\n      swap1\n      dup2\n      mstore\n      0x20\n      add\n      0x00\n      keccak256\n      0x00\n      swap1\n      sload\n      swap1\n      0x0100\n      exp\n      swap1\n      div\n      0xff\n      and\n        /* \"contracts/KYCManagerV2.sol\":2972:3002  return NFTIdToAvailable[NFTId] */\n      swap1\n      pop\n        /* \"contracts/KYCManagerV2.sol\":2894:3009  function availableOfNFTId(uint256 NFTId) public view returns (bool) {... */\n      swap2\n      swap1\n      pop\n      jump\t// out\n        /* \"contracts/KYCManagerV2.sol\":1797:2027  function modifyManagerAddr(address newManager) public {... */\n    tag_36:\n        /* \"contracts/KYCManagerV2.sol\":1861:1885  UserData memory userdata */\n      0x00\n        /* \"contracts/KYCManagerV2.sol\":1888:1905  ManagerToUserData */\n      0x03\n        /* \"contracts/KYCManagerV2.sol\":1888:1917  ManagerToUserData[msg.sender] */\n      0x00\n        /* \"contracts/KYCManagerV2.sol\":1906:1916  msg.sender */\n      caller\n        /* \"contracts/KYCManagerV2.sol\":1888:1917  ManagerToUserData[msg.sender] */\n      0xffffffffffffffffffffffffffffffffffffffff\n      and\n      0xffffffffffffffffffffffffffffffffffffffff\n      and\n      dup2\n      mstore\n      0x20\n      add\n      swap1\n      dup2\n      mstore\n      0x20\n      add\n      0x00\n      keccak256\n        /* \"contracts/KYCManagerV2.sol\":1861:1917  UserData memory userdata = ManagerToUserData[msg.sender] */\n      mload(0x40)\n      dup1\n      0x40\n      add\n      0x40\n      mstore\n      swap1\n      dup2\n      0x00\n      dup3\n      add\n      sload\n      dup2\n      mstore\n      0x20\n      add\n      0x01\n      dup3\n      add\n      sload\n      dup2\n      mstore\n      pop\n      pop\n      swap1\n      pop\n        /* \"contracts/KYCManagerV2.sol\":1959:1967  userdata */\n      dup1\n        /* \"contracts/KYCManagerV2.sol\":1927:1944  ManagerToUserData */\n      0x03\n        /* \"contracts/KYCManagerV2.sol\":1927:1956  ManagerToUserData[newManager] */\n      0x00\n        /* \"contracts/KYCManagerV2.sol\":1945:1955  newManager */\n      dup5\n        /* \"contracts/KYCManagerV2.sol\":1927:1956  ManagerToUserData[newManager] */\n      0xffffffffffffffffffffffffffffffffffffffff\n      and\n      0xffffffffffffffffffffffffffffffffffffffff\n      and\n      dup2\n      mstore\n      0x20\n      add\n      swap1\n      dup2\n      mstore\n      0x20\n      add\n      0x00\n      keccak256\n        /* \"contracts/KYCManagerV2.sol\":1927:1967  ManagerToUserData[newManager] = userdata */\n      0x00\n      dup3\n      add\n      mload\n      dup2\n      0x00\n      add\n      sstore\n      0x20\n      dup3\n      add\n      mload\n      dup2\n      0x01\n      add\n      sstore\n      swap1\n      pop\n      pop\n        /* \"contracts/KYCManagerV2.sol\":2010:2020  newManager */\n      dup2\n        /* \"contracts/KYCManagerV2.sol\":1977:1991  NFTIdToManager */\n      0x02\n        /* \"contracts/KYCManagerV2.sol\":1977:2007  NFTIdToManager[userdata.NFTId] */\n      0x00\n        /* \"contracts/KYCManagerV2.sol\":1992:2000  userdata */\n      dup4\n        /* \"contracts/KYCManagerV2.sol\":1992:2006  userdata.NFTId */\n      0x00\n      add\n      mload\n        /* \"contracts/KYCManagerV2.sol\":1977:2007  NFTIdToManager[userdata.NFTId] */\n      dup2\n      mstore\n      0x20\n      add\n      swap1\n      dup2\n      mstore\n      0x20\n      add\n      0x00\n      keccak256\n      0x00\n        /* \"contracts/KYCManagerV2.sol\":1977:2020  NFTIdToManager[userdata.NFTId] = newManager */\n      0x0100\n      exp\n      dup2\n      sload\n      dup2\n      0xffffffffffffffffffffffffffffffffffffffff\n      mul\n      not\n      and\n      swap1\n      dup4\n      0xffffffffffffffffffffffffffffffffffffffff\n      and\n      mul\n      or\n      swap1\n      sstore\n      pop\n        /* \"contracts/KYCManagerV2.sol\":1797:2027  function modifyManagerAddr(address newManager) public {... */\n      pop\n      pop\n      jump\t// out\n        /* \"contracts/KYCManagerV2.sol\":1619:1791  function initManagerAddr(uint256 NFTId, address manager) public onlyOwner {... */\n    tag_41:\n        /* \"@openzeppelin/contracts/access/Ownable.sol\":1094:1107  _checkOwner() */\n      tag_104\n        /* \"@openzeppelin/contracts/access/Ownable.sol\":1094:1105  _checkOwner */\n      tag_105\n        /* \"@openzeppelin/contracts/access/Ownable.sol\":1094:1107  _checkOwner() */\n      jump\t// in\n    tag_104:\n        /* \"contracts/KYCManagerV2.sol\":1727:1734  manager */\n      dup1\n        /* \"contracts/KYCManagerV2.sol\":1703:1717  NFTIdToManager */\n      0x02\n        /* \"contracts/KYCManagerV2.sol\":1703:1724  NFTIdToManager[NFTId] */\n      0x00\n        /* \"contracts/KYCManagerV2.sol\":1718:1723  NFTId */\n      dup5\n        /* \"contracts/KYCManagerV2.sol\":1703:1724  NFTIdToManager[NFTId] */\n      dup2\n      mstore\n      0x20\n      add\n      swap1\n      dup2\n      mstore\n      0x20\n      add\n      0x00\n      keccak256\n      0x00\n        /* \"contracts/KYCManagerV2.sol\":1703:1734  NFTIdToManager[NFTId] = manager */\n      0x0100\n      exp\n      dup2\n      sload\n      dup2\n      0xffffffffffffffffffffffffffffffffffffffff\n      mul\n      not\n      and\n      swap1\n      dup4\n      0xffffffffffffffffffffffffffffffffffffffff\n      and\n      mul\n      or\n      swap1\n      sstore\n      pop\n        /* \"contracts/KYCManagerV2.sol\":1779:1784  NFTId */\n      dup2\n        /* \"contracts/KYCManagerV2.sol\":1744:1761  ManagerToUserData */\n      0x03\n        /* \"contracts/KYCManagerV2.sol\":1744:1770  ManagerToUserData[manager] */\n      0x00\n        /* \"contracts/KYCManagerV2.sol\":1762:1769  manager */\n      dup4\n        /* \"contracts/KYCManagerV2.sol\":1744:1770  ManagerToUserData[manager] */\n      0xffffffffffffffffffffffffffffffffffffffff\n      and\n      0xffffffffffffffffffffffffffffffffffffffff\n      and\n      dup2\n      mstore\n      0x20\n      add\n      swap1\n      dup2\n      mstore\n      0x20\n      add\n      0x00\n      keccak256\n        /* \"contracts/KYCManagerV2.sol\":1744:1776  ManagerToUserData[manager].NFTId */\n      0x00\n      add\n        /* \"contracts/KYCManagerV2.sol\":1744:1784  ManagerToUserData[manager].NFTId = NFTId */\n      dup2\n      swap1\n      sstore\n      pop\n        /* \"contracts/KYCManagerV2.sol\":1619:1791  function initManagerAddr(uint256 NFTId, address manager) public onlyOwner {... */\n      pop\n      pop\n      jump\t// out\n        /* \"contracts/KYCManagerV2.sol\":2067:2242  function updateMerkleRoot(bytes32 newMerkleRoot) public {... */\n    tag_46:\n        /* \"contracts/KYCManagerV2.sol\":2133:2158  UserData storage userdata */\n      0x00\n        /* \"contracts/KYCManagerV2.sol\":2161:2178  ManagerToUserData */\n      0x03\n        /* \"contracts/KYCManagerV2.sol\":2161:2190  ManagerToUserData[msg.sender] */\n      0x00\n        /* \"contracts/KYCManagerV2.sol\":2179:2189  msg.sender */\n      caller\n        /* \"contracts/KYCManagerV2.sol\":2161:2190  ManagerToUserData[msg.sender] */\n      0xffffffffffffffffffffffffffffffffffffffff\n      and\n      0xffffffffffffffffffffffffffffffffffffffff\n      and\n      dup2\n      mstore\n      0x20\n      add\n      swap1\n      dup2\n      mstore\n      0x20\n      add\n      0x00\n      keccak256\n        /* \"contracts/KYCManagerV2.sol\":2133:2190  UserData storage userdata = ManagerToUserData[msg.sender] */\n      swap1\n      pop\n        /* \"contracts/KYCManagerV2.sol\":2222:2235  newMerkleRoot */\n      dup2\n        /* \"contracts/KYCManagerV2.sol\":2200:2208  userdata */\n      dup2\n        /* \"contracts/KYCManagerV2.sol\":2200:2219  userdata.merkleRoot */\n      0x01\n      add\n        /* \"contracts/KYCManagerV2.sol\":2200:2235  userdata.merkleRoot = newMerkleRoot */\n      dup2\n      swap1\n      sstore\n      pop\n        /* \"contracts/KYCManagerV2.sol\":2067:2242  function updateMerkleRoot(bytes32 newMerkleRoot) public {... */\n      pop\n      pop\n      jump\t// out\n        /* \"contracts/KYCManagerV2.sol\":2276:2419  function managerOfNFTId(uint256 NFTId) public view returns (address) {... */\n    tag_50:\n        /* \"contracts/KYCManagerV2.sol\":2336:2343  address */\n      0x00\n        /* \"contracts/KYCManagerV2.sol\":2355:2367  address addr */\n      dup1\n        /* \"contracts/KYCManagerV2.sol\":2370:2384  NFTIdToManager */\n      0x02\n        /* \"contracts/KYCManagerV2.sol\":2370:2391  NFTIdToManager[NFTId] */\n      0x00\n        /* \"contracts/KYCManagerV2.sol\":2385:2390  NFTId */\n      dup5\n        /* \"contracts/KYCManagerV2.sol\":2370:2391  NFTIdToManager[NFTId] */\n      dup2\n      mstore\n      0x20\n      add\n      swap1\n      dup2\n      mstore\n      0x20\n      add\n      0x00\n      keccak256\n      0x00\n      swap1\n      sload\n      swap1\n      0x0100\n      exp\n      swap1\n      div\n      0xffffffffffffffffffffffffffffffffffffffff\n      and\n        /* \"contracts/KYCManagerV2.sol\":2355:2391  address addr = NFTIdToManager[NFTId] */\n      swap1\n      pop\n        /* \"contracts/KYCManagerV2.sol\":2408:2412  addr */\n      dup1\n        /* \"contracts/KYCManagerV2.sol\":2401:2412  return addr */\n      swap2\n      pop\n      pop\n        /* \"contracts/KYCManagerV2.sol\":2276:2419  function managerOfNFTId(uint256 NFTId) public view returns (address) {... */\n      swap2\n      swap1\n      pop\n      jump\t// out\n        /* \"@openzeppelin/contracts/access/Ownable.sol\":1831:1932  function renounceOwnership() public virtual onlyOwner {... */\n    tag_55:\n        /* \"@openzeppelin/contracts/access/Ownable.sol\":1094:1107  _checkOwner() */\n      tag_110\n        /* \"@openzeppelin/contracts/access/Ownable.sol\":1094:1105  _checkOwner */\n      tag_105\n        /* \"@openzeppelin/contracts/access/Ownable.sol\":1094:1107  _checkOwner() */\n      jump\t// in\n    tag_110:\n        /* \"@openzeppelin/contracts/access/Ownable.sol\":1895:1925  _transferOwnership(address(0)) */\n      tag_112\n        /* \"@openzeppelin/contracts/access/Ownable.sol\":1922:1923  0 */\n      0x00\n        /* \"@openzeppelin/contracts/access/Ownable.sol\":1895:1913  _transferOwnership */\n      tag_113\n        /* \"@openzeppelin/contracts/access/Ownable.sol\":1895:1925  _transferOwnership(address(0)) */\n      jump\t// in\n    tag_112:\n        /* \"@openzeppelin/contracts/access/Ownable.sol\":1831:1932  function renounceOwnership() public virtual onlyOwner {... */\n      jump\t// out\n        /* \"@openzeppelin/contracts/access/Ownable.sol\":1201:1286  function owner() public view virtual returns (address) {... */\n    tag_58:\n        /* \"@openzeppelin/contracts/access/Ownable.sol\":1247:1254  address */\n      0x00\n        /* \"@openzeppelin/contracts/access/Ownable.sol\":1273:1279  _owner */\n      dup1\n      0x00\n      swap1\n      sload\n      swap1\n      0x0100\n      exp\n      swap1\n      div\n      0xffffffffffffffffffffffffffffffffffffffff\n      and\n        /* \"@openzeppelin/contracts/access/Ownable.sol\":1266:1279  return _owner */\n      swap1\n      pop\n        /* \"@openzeppelin/contracts/access/Ownable.sol\":1201:1286  function owner() public view virtual returns (address) {... */\n      swap1\n      jump\t// out\n        /* \"contracts/KYCManagerV2.sol\":2425:2669  function userDataOfNFTId(uint256 NFTId)... */\n    tag_63:\n        /* \"contracts/KYCManagerV2.sol\":2510:2525  UserData memory */\n      tag_115\n      tag_116\n      jump\t// in\n    tag_115:\n        /* \"contracts/KYCManagerV2.sol\":2541:2553  address addr */\n      0x00\n        /* \"contracts/KYCManagerV2.sol\":2556:2570  NFTIdToManager */\n      0x02\n        /* \"contracts/KYCManagerV2.sol\":2556:2577  NFTIdToManager[NFTId] */\n      0x00\n        /* \"contracts/KYCManagerV2.sol\":2571:2576  NFTId */\n      dup5\n        /* \"contracts/KYCManagerV2.sol\":2556:2577  NFTIdToManager[NFTId] */\n      dup2\n      mstore\n      0x20\n      add\n      swap1\n      dup2\n      mstore\n      0x20\n      add\n      0x00\n      keccak256\n      0x00\n      swap1\n      sload\n      swap1\n      0x0100\n      exp\n      swap1\n      div\n      0xffffffffffffffffffffffffffffffffffffffff\n      and\n        /* \"contracts/KYCManagerV2.sol\":2541:2577  address addr = NFTIdToManager[NFTId] */\n      swap1\n      pop\n        /* \"contracts/KYCManagerV2.sol\":2587:2611  UserData memory userdata */\n      0x00\n        /* \"contracts/KYCManagerV2.sol\":2614:2631  ManagerToUserData */\n      0x03\n        /* \"contracts/KYCManagerV2.sol\":2614:2637  ManagerToUserData[addr] */\n      0x00\n        /* \"contracts/KYCManagerV2.sol\":2632:2636  addr */\n      dup4\n        /* \"contracts/KYCManagerV2.sol\":2614:2637  ManagerToUserData[addr] */\n      0xffffffffffffffffffffffffffffffffffffffff\n      and\n      0xffffffffffffffffffffffffffffffffffffffff\n      and\n      dup2\n      mstore\n      0x20\n      add\n      swap1\n      dup2\n      mstore\n      0x20\n      add\n      0x00\n      keccak256\n        /* \"contracts/KYCManagerV2.sol\":2587:2637  UserData memory userdata = ManagerToUserData[addr] */\n      mload(0x40)\n      dup1\n      0x40\n      add\n      0x40\n      mstore\n      swap1\n      dup2\n      0x00\n      dup3\n      add\n      sload\n      dup2\n      mstore\n      0x20\n      add\n      0x01\n      dup3\n      add\n      sload\n      dup2\n      mstore\n      pop\n      pop\n      swap1\n      pop\n        /* \"contracts/KYCManagerV2.sol\":2654:2662  userdata */\n      dup1\n        /* \"contracts/KYCManagerV2.sol\":2647:2662  return userdata */\n      swap3\n      pop\n      pop\n      pop\n        /* \"contracts/KYCManagerV2.sol\":2425:2669  function userDataOfNFTId(uint256 NFTId)... */\n      swap2\n      swap1\n      pop\n      jump\t// out\n        /* \"contracts/KYCManagerV2.sol\":1430:1581  function setAvailableOfNFTId(uint256 NFTId, bool _available)... */\n    tag_70:\n        /* \"@openzeppelin/contracts/access/Ownable.sol\":1094:1107  _checkOwner() */\n      tag_119\n        /* \"@openzeppelin/contracts/access/Ownable.sol\":1094:1105  _checkOwner */\n      tag_105\n        /* \"@openzeppelin/contracts/access/Ownable.sol\":1094:1107  _checkOwner() */\n      jump\t// in\n    tag_119:\n        /* \"contracts/KYCManagerV2.sol\":1564:1574  _available */\n      dup1\n        /* \"contracts/KYCManagerV2.sol\":1538:1554  NFTIdToAvailable */\n      0x04\n        /* \"contracts/KYCManagerV2.sol\":1538:1561  NFTIdToAvailable[NFTId] */\n      0x00\n        /* \"contracts/KYCManagerV2.sol\":1555:1560  NFTId */\n      dup5\n        /* \"contracts/KYCManagerV2.sol\":1538:1561  NFTIdToAvailable[NFTId] */\n      dup2\n      mstore\n      0x20\n      add\n      swap1\n      dup2\n      mstore\n      0x20\n      add\n      0x00\n      keccak256\n      0x00\n        /* \"contracts/KYCManagerV2.sol\":1538:1574  NFTIdToAvailable[NFTId] = _available */\n      0x0100\n      exp\n      dup2\n      sload\n      dup2\n      0xff\n      mul\n      not\n      and\n      swap1\n      dup4\n      iszero\n      iszero\n      mul\n      or\n      swap1\n      sstore\n      pop\n        /* \"contracts/KYCManagerV2.sol\":1430:1581  function setAvailableOfNFTId(uint256 NFTId, bool _available)... */\n      pop\n      pop\n      jump\t// out\n        /* \"contracts/KYCManagerV2.sol\":2675:2888  function userDataOfManager(address managerAddr)... */\n    tag_74:\n        /* \"contracts/KYCManagerV2.sol\":2768:2783  UserData memory */\n      tag_121\n      tag_116\n      jump\t// in\n    tag_121:\n        /* \"contracts/KYCManagerV2.sol\":2799:2823  UserData memory userdata */\n      0x00\n        /* \"contracts/KYCManagerV2.sol\":2826:2843  ManagerToUserData */\n      0x03\n        /* \"contracts/KYCManagerV2.sol\":2826:2856  ManagerToUserData[managerAddr] */\n      0x00\n        /* \"contracts/KYCManagerV2.sol\":2844:2855  managerAddr */\n      dup5\n        /* \"contracts/KYCManagerV2.sol\":2826:2856  ManagerToUserData[managerAddr] */\n      0xffffffffffffffffffffffffffffffffffffffff\n      and\n      0xffffffffffffffffffffffffffffffffffffffff\n      and\n      dup2\n      mstore\n      0x20\n      add\n      swap1\n      dup2\n      mstore\n      0x20\n      add\n      0x00\n      keccak256\n        /* \"contracts/KYCManagerV2.sol\":2799:2856  UserData memory userdata = ManagerToUserData[managerAddr] */\n      mload(0x40)\n      dup1\n      0x40\n      add\n      0x40\n      mstore\n      swap1\n      dup2\n      0x00\n      dup3\n      add\n      sload\n      dup2\n      mstore\n      0x20\n      add\n      0x01\n      dup3\n      add\n      sload\n      dup2\n      mstore\n      pop\n      pop\n      swap1\n      pop\n        /* \"contracts/KYCManagerV2.sol\":2873:2881  userdata */\n      dup1\n        /* \"contracts/KYCManagerV2.sol\":2866:2881  return userdata */\n      swap2\n      pop\n      pop\n        /* \"contracts/KYCManagerV2.sol\":2675:2888  function userDataOfManager(address managerAddr)... */\n      swap2\n      swap1\n      pop\n      jump\t// out\n        /* \"contracts/KYCManagerV2.sol\":3015:3195  function NFTIdOfManager(address managerAddr) public view returns (uint256) {... */\n    tag_79:\n        /* \"contracts/KYCManagerV2.sol\":3081:3088  uint256 */\n      0x00\n        /* \"contracts/KYCManagerV2.sol\":3100:3124  UserData memory userdata */\n      dup1\n        /* \"contracts/KYCManagerV2.sol\":3127:3144  ManagerToUserData */\n      0x03\n        /* \"contracts/KYCManagerV2.sol\":3127:3157  ManagerToUserData[managerAddr] */\n      0x00\n        /* \"contracts/KYCManagerV2.sol\":3145:3156  managerAddr */\n      dup5\n        /* \"contracts/KYCManagerV2.sol\":3127:3157  ManagerToUserData[managerAddr] */\n      0xffffffffffffffffffffffffffffffffffffffff\n      and\n      0xffffffffffffffffffffffffffffffffffffffff\n      and\n      dup2\n      mstore\n      0x20\n      add\n      swap1\n      dup2\n      mstore\n      0x20\n      add\n      0x00\n      keccak256\n        /* \"contracts/KYCManagerV2.sol\":3100:3157  UserData memory userdata = ManagerToUserData[managerAddr] */\n      mload(0x40)\n      dup1\n      0x40\n      add\n      0x40\n      mstore\n      swap1\n      dup2\n      0x00\n      dup3\n      add\n      sload\n      dup2\n      mstore\n      0x20\n      add\n      0x01\n      dup3\n      add\n      sload\n      dup2\n      mstore\n      pop\n      pop\n      swap1\n      pop\n        /* \"contracts/KYCManagerV2.sol\":3174:3182  userdata */\n      dup1\n        /* \"contracts/KYCManagerV2.sol\":3174:3188  userdata.NFTId */\n      0x00\n      add\n      mload\n        /* \"contracts/KYCManagerV2.sol\":3167:3188  return userdata.NFTId */\n      swap2\n      pop\n      pop\n        /* \"contracts/KYCManagerV2.sol\":3015:3195  function NFTIdOfManager(address managerAddr) public view returns (uint256) {... */\n      swap2\n      swap1\n      pop\n      jump\t// out\n        /* \"contracts/KYCManagerV2.sol\":960:1424  function createKYCNFT(... */\n    tag_86:\n        /* \"@openzeppelin/contracts/access/Ownable.sol\":1094:1107  _checkOwner() */\n      tag_125\n        /* \"@openzeppelin/contracts/access/Ownable.sol\":1094:1105  _checkOwner */\n      tag_105\n        /* \"@openzeppelin/contracts/access/Ownable.sol\":1094:1107  _checkOwner() */\n      jump\t// in\n    tag_125:\n        /* \"contracts/KYCManagerV2.sol\":1152:1173  address kycnftmanager */\n      0x00\n        /* \"contracts/KYCManagerV2.sol\":1186:1190  this */\n      address\n        /* \"contracts/KYCManagerV2.sol\":1152:1191  address kycnftmanager = (address)(this) */\n      swap1\n      pop\n        /* \"contracts/KYCManagerV2.sol\":1201:1214  uint256 NFTId */\n      0x00\n        /* \"contracts/KYCManagerV2.sol\":1217:1231  kycNFTContract */\n      0x01\n      0x00\n      swap1\n      sload\n      swap1\n      0x0100\n      exp\n      swap1\n      div\n      0xffffffffffffffffffffffffffffffffffffffff\n      and\n        /* \"contracts/KYCManagerV2.sol\":1217:1241  kycNFTContract.awardItem */\n      0xffffffffffffffffffffffffffffffffffffffff\n      and\n      0xcf378343\n        /* \"contracts/KYCManagerV2.sol\":1242:1255  kycnftmanager */\n      dup4\n        /* \"contracts/KYCManagerV2.sol\":1257:1265  tokenUrl */\n      dup8\n        /* \"contracts/KYCManagerV2.sol\":1217:1266  kycNFTContract.awardItem(kycnftmanager, tokenUrl) */\n      mload(0x40)\n      dup4\n      0xffffffff\n      and\n      0xe0\n      shl\n      dup2\n      mstore\n      0x04\n      add\n      tag_127\n      swap3\n      swap2\n      swap1\n      tag_128\n      jump\t// in\n    tag_127:\n      0x20\n      mload(0x40)\n      dup1\n      dup4\n      sub\n      dup2\n      0x00\n      dup8\n      dup1\n      extcodesize\n      iszero\n      dup1\n      iszero\n      tag_129\n      jumpi\n      0x00\n      dup1\n      revert\n    tag_129:\n      pop\n      gas\n      call\n      iszero\n      dup1\n      iszero\n      tag_131\n      jumpi\n      returndatasize\n      0x00\n      dup1\n      returndatacopy\n      revert(0x00, returndatasize)\n    tag_131:\n      pop\n      pop\n      pop\n      pop\n      mload(0x40)\n      returndatasize\n      not(0x1f)\n      0x1f\n      dup3\n      add\n      and\n      dup3\n      add\n      dup1\n      0x40\n      mstore\n      pop\n      dup2\n      add\n      swap1\n      tag_132\n      swap2\n      swap1\n      tag_133\n      jump\t// in\n    tag_132:\n        /* \"contracts/KYCManagerV2.sol\":1201:1266  uint256 NFTId = kycNFTContract.awardItem(kycnftmanager, tokenUrl) */\n      swap1\n      pop\n        /* \"contracts/KYCManagerV2.sol\":1276:1290  kycNFTContract */\n      0x01\n      0x00\n      swap1\n      sload\n      swap1\n      0x0100\n      exp\n      swap1\n      div\n      0xffffffffffffffffffffffffffffffffffffffff\n      and\n        /* \"contracts/KYCManagerV2.sol\":1276:1311  kycNFTContract.updateExpirationTime */\n      0xffffffffffffffffffffffffffffffffffffffff\n      and\n      0xe1b2e979\n        /* \"contracts/KYCManagerV2.sol\":1312:1317  NFTId */\n      dup3\n        /* \"contracts/KYCManagerV2.sol\":1319:1333  expirationTime */\n      dup6\n        /* \"contracts/KYCManagerV2.sol\":1276:1334  kycNFTContract.updateExpirationTime(NFTId, expirationTime) */\n      mload(0x40)\n      dup4\n      0xffffffff\n      and\n      0xe0\n      shl\n      dup2\n      mstore\n      0x04\n      add\n      tag_134\n      swap3\n      swap2\n      swap1\n      tag_135\n      jump\t// in\n    tag_134:\n      0x00\n      mload(0x40)\n      dup1\n      dup4\n      sub\n      dup2\n      0x00\n      dup8\n      dup1\n      extcodesize\n      iszero\n      dup1\n      iszero\n      tag_136\n      jumpi\n      0x00\n      dup1\n      revert\n    tag_136:\n      pop\n      gas\n      call\n      iszero\n      dup1\n      iszero\n      tag_138\n      jumpi\n      returndatasize\n      0x00\n      dup1\n      returndatacopy\n      revert(0x00, returndatasize)\n    tag_138:\n      pop\n      pop\n      pop\n      pop\n        /* \"contracts/KYCManagerV2.sol\":1344:1376  setAvailableOfNFTId(NFTId, true) */\n      tag_139\n        /* \"contracts/KYCManagerV2.sol\":1364:1369  NFTId */\n      dup2\n        /* \"contracts/KYCManagerV2.sol\":1371:1375  true */\n      0x01\n        /* \"contracts/KYCManagerV2.sol\":1344:1363  setAvailableOfNFTId */\n      tag_70\n        /* \"contracts/KYCManagerV2.sol\":1344:1376  setAvailableOfNFTId(NFTId, true) */\n      jump\t// in\n    tag_139:\n        /* \"contracts/KYCManagerV2.sol\":1386:1417  initManagerAddr(NFTId, manager) */\n      tag_140\n        /* \"contracts/KYCManagerV2.sol\":1402:1407  NFTId */\n      dup2\n        /* \"contracts/KYCManagerV2.sol\":1409:1416  manager */\n      dup6\n        /* \"contracts/KYCManagerV2.sol\":1386:1401  initManagerAddr */\n      tag_41\n        /* \"contracts/KYCManagerV2.sol\":1386:1417  initManagerAddr(NFTId, manager) */\n      jump\t// in\n    tag_140:\n        /* \"@openzeppelin/contracts/access/Ownable.sol\":1117:1118  _ */\n      pop\n      pop\n        /* \"contracts/KYCManagerV2.sol\":960:1424  function createKYCNFT(... */\n      pop\n      pop\n      pop\n      jump\t// out\n        /* \"contracts/KYCManagerV2.sol\":3935:4334  function verifyKYCAuthProof(... */\n    tag_91:\n        /* \"contracts/KYCManagerV2.sol\":4106:4110  bool */\n      0x00\n        /* \"contracts/KYCManagerV2.sol\":4122:4134  address addr */\n      dup1\n        /* \"contracts/KYCManagerV2.sol\":4137:4151  NFTIdToManager */\n      0x02\n        /* \"contracts/KYCManagerV2.sol\":4137:4158  NFTIdToManager[NFTId] */\n      0x00\n        /* \"contracts/KYCManagerV2.sol\":4152:4157  NFTId */\n      dup5\n        /* \"contracts/KYCManagerV2.sol\":4137:4158  NFTIdToManager[NFTId] */\n      dup2\n      mstore\n      0x20\n      add\n      swap1\n      dup2\n      mstore\n      0x20\n      add\n      0x00\n      keccak256\n      0x00\n      swap1\n      sload\n      swap1\n      0x0100\n      exp\n      swap1\n      div\n      0xffffffffffffffffffffffffffffffffffffffff\n      and\n        /* \"contracts/KYCManagerV2.sol\":4122:4158  address addr = NFTIdToManager[NFTId] */\n      swap1\n      pop\n        /* \"contracts/KYCManagerV2.sol\":4168:4192  UserData memory userdata */\n      0x00\n        /* \"contracts/KYCManagerV2.sol\":4195:4212  ManagerToUserData */\n      0x03\n        /* \"contracts/KYCManagerV2.sol\":4195:4218  ManagerToUserData[addr] */\n      0x00\n        /* \"contracts/KYCManagerV2.sol\":4213:4217  addr */\n      dup4\n        /* \"contracts/KYCManagerV2.sol\":4195:4218  ManagerToUserData[addr] */\n      0xffffffffffffffffffffffffffffffffffffffff\n      and\n      0xffffffffffffffffffffffffffffffffffffffff\n      and\n      dup2\n      mstore\n      0x20\n      add\n      swap1\n      dup2\n      mstore\n      0x20\n      add\n      0x00\n      keccak256\n        /* \"contracts/KYCManagerV2.sol\":4168:4218  UserData memory userdata = ManagerToUserData[addr] */\n      mload(0x40)\n      dup1\n      0x40\n      add\n      0x40\n      mstore\n      swap1\n      dup2\n      0x00\n      dup3\n      add\n      sload\n      dup2\n      mstore\n      0x20\n      add\n      0x01\n      dup3\n      add\n      sload\n      dup2\n      mstore\n      pop\n      pop\n      swap1\n      pop\n        /* \"contracts/KYCManagerV2.sol\":4228:4239  bool result */\n      0x00\n        /* \"contracts/KYCManagerV2.sol\":4242:4304  verifyMerkleProof(userdata.merkleRoot, leaf, proof, positions) */\n      tag_142\n        /* \"contracts/KYCManagerV2.sol\":4260:4268  userdata */\n      dup3\n        /* \"contracts/KYCManagerV2.sol\":4260:4279  userdata.merkleRoot */\n      0x20\n      add\n      mload\n        /* \"contracts/KYCManagerV2.sol\":4281:4285  leaf */\n      dup12\n        /* \"contracts/KYCManagerV2.sol\":4287:4292  proof */\n      dup12\n      dup12\n        /* \"contracts/KYCManagerV2.sol\":4294:4303  positions */\n      dup12\n      dup12\n        /* \"contracts/KYCManagerV2.sol\":4242:4259  verifyMerkleProof */\n      tag_143\n        /* \"contracts/KYCManagerV2.sol\":4242:4304  verifyMerkleProof(userdata.merkleRoot, leaf, proof, positions) */\n      jump\t// in\n    tag_142:\n        /* \"contracts/KYCManagerV2.sol\":4228:4304  bool result = verifyMerkleProof(userdata.merkleRoot, leaf, proof, positions) */\n      swap1\n      pop\n        /* \"contracts/KYCManagerV2.sol\":4321:4327  result */\n      dup1\n        /* \"contracts/KYCManagerV2.sol\":4314:4327  return result */\n      swap4\n      pop\n      pop\n      pop\n      pop\n        /* \"contracts/KYCManagerV2.sol\":3935:4334  function verifyKYCAuthProof(... */\n      swap7\n      swap6\n      pop\n      pop\n      pop\n      pop\n      pop\n      pop\n      jump\t// out\n        /* \"@openzeppelin/contracts/access/Ownable.sol\":2081:2279  function transferOwnership(address newOwner) public virtual onlyOwner {... */\n    tag_96:\n        /* \"@openzeppelin/contracts/access/Ownable.sol\":1094:1107  _checkOwner() */\n      tag_145\n        /* \"@openzeppelin/contracts/access/Ownable.sol\":1094:1105  _checkOwner */\n      tag_105\n        /* \"@openzeppelin/contracts/access/Ownable.sol\":1094:1107  _checkOwner() */\n      jump\t// in\n    tag_145:\n        /* \"@openzeppelin/contracts/access/Ownable.sol\":2189:2190  0 */\n      0x00\n        /* \"@openzeppelin/contracts/access/Ownable.sol\":2169:2191  newOwner != address(0) */\n      0xffffffffffffffffffffffffffffffffffffffff\n      and\n        /* \"@openzeppelin/contracts/access/Ownable.sol\":2169:2177  newOwner */\n      dup2\n        /* \"@openzeppelin/contracts/access/Ownable.sol\":2169:2191  newOwner != address(0) */\n      0xffffffffffffffffffffffffffffffffffffffff\n      and\n      eq\n      iszero\n        /* \"@openzeppelin/contracts/access/Ownable.sol\":2161:2234  require(newOwner != address(0), \"Ownable: new owner is the zero address\") */\n      tag_147\n      jumpi\n      mload(0x40)\n      0x08c379a000000000000000000000000000000000000000000000000000000000\n      dup2\n      mstore\n      0x04\n      add\n      tag_148\n      swap1\n      tag_149\n      jump\t// in\n    tag_148:\n      mload(0x40)\n      dup1\n      swap2\n      sub\n      swap1\n      revert\n    tag_147:\n        /* \"@openzeppelin/contracts/access/Ownable.sol\":2244:2272  _transferOwnership(newOwner) */\n      tag_150\n        /* \"@openzeppelin/contracts/access/Ownable.sol\":2263:2271  newOwner */\n      dup2\n        /* \"@openzeppelin/contracts/access/Ownable.sol\":2244:2262  _transferOwnership */\n      tag_113\n        /* \"@openzeppelin/contracts/access/Ownable.sol\":2244:2272  _transferOwnership(newOwner) */\n      jump\t// in\n    tag_150:\n        /* \"@openzeppelin/contracts/access/Ownable.sol\":2081:2279  function transferOwnership(address newOwner) public virtual onlyOwner {... */\n      pop\n      jump\t// out\n        /* \"contracts/KYCManagerV2.sol\":780:950  function setKYCNFTContractAddress(address _kycnftContractAddr)... */\n    tag_100:\n        /* \"@openzeppelin/contracts/access/Ownable.sol\":1094:1107  _checkOwner() */\n      tag_152\n        /* \"@openzeppelin/contracts/access/Ownable.sol\":1094:1105  _checkOwner */\n      tag_105\n        /* \"@openzeppelin/contracts/access/Ownable.sol\":1094:1107  _checkOwner() */\n      jump\t// in\n    tag_152:\n        /* \"contracts/KYCManagerV2.sol\":923:942  _kycnftContractAddr */\n      dup1\n        /* \"contracts/KYCManagerV2.sol\":890:904  kycNFTContract */\n      0x01\n      0x00\n        /* \"contracts/KYCManagerV2.sol\":890:943  kycNFTContract = KYCNFTInterface(_kycnftContractAddr) */\n      0x0100\n      exp\n      dup2\n      sload\n      dup2\n      0xffffffffffffffffffffffffffffffffffffffff\n      mul\n      not\n      and\n      swap1\n      dup4\n      0xffffffffffffffffffffffffffffffffffffffff\n      and\n      mul\n      or\n      swap1\n      sstore\n      pop\n        /* \"contracts/KYCManagerV2.sol\":780:950  function setKYCNFTContractAddress(address _kycnftContractAddr)... */\n      pop\n      jump\t// out\n        /* \"@openzeppelin/contracts/access/Ownable.sol\":1359:1489  function _checkOwner() internal view virtual {... */\n    tag_105:\n        /* \"@openzeppelin/contracts/access/Ownable.sol\":1433:1445  _msgSender() */\n      tag_155\n        /* \"@openzeppelin/contracts/access/Ownable.sol\":1433:1443  _msgSender */\n      tag_156\n        /* \"@openzeppelin/contracts/access/Ownable.sol\":1433:1445  _msgSender() */\n      jump\t// in\n    tag_155:\n        /* \"@openzeppelin/contracts/access/Ownable.sol\":1422:1445  owner() == _msgSender() */\n      0xffffffffffffffffffffffffffffffffffffffff\n      and\n        /* \"@openzeppelin/contracts/access/Ownable.sol\":1422:1429  owner() */\n      tag_157\n        /* \"@openzeppelin/contracts/access/Ownable.sol\":1422:1427  owner */\n      tag_58\n        /* \"@openzeppelin/contracts/access/Ownable.sol\":1422:1429  owner() */\n      jump\t// in\n    tag_157:\n        /* \"@openzeppelin/contracts/access/Ownable.sol\":1422:1445  owner() == _msgSender() */\n      0xffffffffffffffffffffffffffffffffffffffff\n      and\n      eq\n        /* \"@openzeppelin/contracts/access/Ownable.sol\":1414:1482  require(owner() == _msgSender(), \"Ownable: caller is not the owner\") */\n      tag_158\n      jumpi\n      mload(0x40)\n      0x08c379a000000000000000000000000000000000000000000000000000000000\n      dup2\n      mstore\n      0x04\n      add\n      tag_159\n      swap1\n      tag_160\n      jump\t// in\n    tag_159:\n      mload(0x40)\n      dup1\n      swap2\n      sub\n      swap1\n      revert\n    tag_158:\n        /* \"@openzeppelin/contracts/access/Ownable.sol\":1359:1489  function _checkOwner() internal view virtual {... */\n      jump\t// out\n        /* \"@openzeppelin/contracts/access/Ownable.sol\":2433:2620  function _transferOwnership(address newOwner) internal virtual {... */\n    tag_113:\n        /* \"@openzeppelin/contracts/access/Ownable.sol\":2506:2522  address oldOwner */\n      0x00\n        /* \"@openzeppelin/contracts/access/Ownable.sol\":2525:2531  _owner */\n      dup1\n      0x00\n      swap1\n      sload\n      swap1\n      0x0100\n      exp\n      swap1\n      div\n      0xffffffffffffffffffffffffffffffffffffffff\n      and\n        /* \"@openzeppelin/contracts/access/Ownable.sol\":2506:2531  address oldOwner = _owner */\n      swap1\n      pop\n        /* \"@openzeppelin/contracts/access/Ownable.sol\":2550:2558  newOwner */\n      dup2\n        /* \"@openzeppelin/contracts/access/Ownable.sol\":2541:2547  _owner */\n      0x00\n      dup1\n        /* \"@openzeppelin/contracts/access/Ownable.sol\":2541:2558  _owner = newOwner */\n      0x0100\n      exp\n      dup2\n      sload\n      dup2\n      0xffffffffffffffffffffffffffffffffffffffff\n      mul\n      not\n      and\n      swap1\n      dup4\n      0xffffffffffffffffffffffffffffffffffffffff\n      and\n      mul\n      or\n      swap1\n      sstore\n      pop\n        /* \"@openzeppelin/contracts/access/Ownable.sol\":2604:2612  newOwner */\n      dup2\n        /* \"@openzeppelin/contracts/access/Ownable.sol\":2573:2613  OwnershipTransferred(oldOwner, newOwner) */\n      0xffffffffffffffffffffffffffffffffffffffff\n      and\n        /* \"@openzeppelin/contracts/access/Ownable.sol\":2594:2602  oldOwner */\n      dup2\n        /* \"@openzeppelin/contracts/access/Ownable.sol\":2573:2613  OwnershipTransferred(oldOwner, newOwner) */\n      0xffffffffffffffffffffffffffffffffffffffff\n      and\n      0x8be0079c531659141344cd1fd0a4f28419497f9722a3daafe3b4186f6b6457e0\n      mload(0x40)\n      mload(0x40)\n      dup1\n      swap2\n      sub\n      swap1\n      log3\n        /* \"@openzeppelin/contracts/access/Ownable.sol\":2433:2620  function _transferOwnership(address newOwner) internal virtual {... */\n      pop\n      pop\n      jump\t// out\n        /* \"contracts/KYCManagerV2.sol\":3235:3929  function verifyMerkleProof(... */\n    tag_143:\n        /* \"contracts/KYCManagerV2.sol\":3407:3411  bool */\n      0x00\n        /* \"contracts/KYCManagerV2.sol\":3423:3443  bytes32 computedHash */\n      dup1\n        /* \"contracts/KYCManagerV2.sol\":3446:3450  leaf */\n      dup7\n        /* \"contracts/KYCManagerV2.sol\":3423:3450  bytes32 computedHash = leaf */\n      swap1\n      pop\n        /* \"contracts/KYCManagerV2.sol\":3466:3475  uint256 i */\n      0x00\n        /* \"contracts/KYCManagerV2.sol\":3461:3885  for (uint256 i = 0; i < proof.length; i++) {... */\n    tag_163:\n        /* \"contracts/KYCManagerV2.sol\":3485:3490  proof */\n      dup7\n      dup7\n        /* \"contracts/KYCManagerV2.sol\":3485:3497  proof.length */\n      swap1\n      pop\n        /* \"contracts/KYCManagerV2.sol\":3481:3482  i */\n      dup2\n        /* \"contracts/KYCManagerV2.sol\":3481:3497  i < proof.length */\n      lt\n        /* \"contracts/KYCManagerV2.sol\":3461:3885  for (uint256 i = 0; i < proof.length; i++) {... */\n      iszero\n      tag_164\n      jumpi\n        /* \"contracts/KYCManagerV2.sol\":3518:3538  bytes32 proofElement */\n      0x00\n        /* \"contracts/KYCManagerV2.sol\":3541:3546  proof */\n      dup8\n      dup8\n        /* \"contracts/KYCManagerV2.sol\":3547:3548  i */\n      dup4\n        /* \"contracts/KYCManagerV2.sol\":3541:3549  proof[i] */\n      dup2\n      dup2\n      lt\n      tag_166\n      jumpi\n      mstore(0x00, 0x4e487b7100000000000000000000000000000000000000000000000000000000)\n      mstore(0x04, 0x32)\n      revert(0x00, 0x24)\n    tag_166:\n      swap1\n      pop\n      0x20\n      mul\n      add\n      calldataload\n        /* \"contracts/KYCManagerV2.sol\":3518:3549  bytes32 proofElement = proof[i] */\n      swap1\n      pop\n        /* \"contracts/KYCManagerV2.sol\":3584:3585  1 */\n      0x01\n        /* \"contracts/KYCManagerV2.sol\":3568:3577  positions */\n      dup7\n      dup7\n        /* \"contracts/KYCManagerV2.sol\":3578:3579  i */\n      dup5\n        /* \"contracts/KYCManagerV2.sol\":3568:3580  positions[i] */\n      dup2\n      dup2\n      lt\n      tag_167\n      jumpi\n      mstore(0x00, 0x4e487b7100000000000000000000000000000000000000000000000000000000)\n      mstore(0x04, 0x32)\n      revert(0x00, 0x24)\n    tag_167:\n      swap1\n      pop\n      0x20\n      mul\n      add\n      calldataload\n        /* \"contracts/KYCManagerV2.sol\":3568:3585  positions[i] == 1 */\n      eq\n        /* \"contracts/KYCManagerV2.sol\":3564:3875  if (positions[i] == 1) {... */\n      iszero\n      tag_168\n      jumpi\n        /* \"contracts/KYCManagerV2.sol\":3668:3680  computedHash */\n      dup3\n        /* \"contracts/KYCManagerV2.sol\":3682:3694  proofElement */\n      dup2\n        /* \"contracts/KYCManagerV2.sol\":3651:3695  abi.encodePacked(computedHash, proofElement) */\n      add(0x20, mload(0x40))\n      tag_169\n      swap3\n      swap2\n      swap1\n      tag_170\n      jump\t// in\n    tag_169:\n      mload(0x40)\n      0x20\n      dup2\n      dup4\n      sub\n      sub\n      dup2\n      mstore\n      swap1\n      0x40\n      mstore\n        /* \"contracts/KYCManagerV2.sol\":3620:3713  keccak256(... */\n      dup1\n      mload\n      swap1\n      0x20\n      add\n      keccak256\n        /* \"contracts/KYCManagerV2.sol\":3605:3713  computedHash = keccak256(... */\n      swap3\n      pop\n        /* \"contracts/KYCManagerV2.sol\":3564:3875  if (positions[i] == 1) {... */\n      jump(tag_171)\n    tag_168:\n        /* \"contracts/KYCManagerV2.sol\":3815:3827  proofElement */\n      dup1\n        /* \"contracts/KYCManagerV2.sol\":3829:3841  computedHash */\n      dup4\n        /* \"contracts/KYCManagerV2.sol\":3798:3842  abi.encodePacked(proofElement, computedHash) */\n      add(0x20, mload(0x40))\n      tag_172\n      swap3\n      swap2\n      swap1\n      tag_170\n      jump\t// in\n    tag_172:\n      mload(0x40)\n      0x20\n      dup2\n      dup4\n      sub\n      sub\n      dup2\n      mstore\n      swap1\n      0x40\n      mstore\n        /* \"contracts/KYCManagerV2.sol\":3767:3860  keccak256(... */\n      dup1\n      mload\n      swap1\n      0x20\n      add\n      keccak256\n        /* \"contracts/KYCManagerV2.sol\":3752:3860  computedHash = keccak256(... */\n      swap3\n      pop\n        /* \"contracts/KYCManagerV2.sol\":3564:3875  if (positions[i] == 1) {... */\n    tag_171:\n        /* \"contracts/KYCManagerV2.sol\":3461:3885  for (uint256 i = 0; i < proof.length; i++) {... */\n      pop\n        /* \"contracts/KYCManagerV2.sol\":3499:3502  i++ */\n      dup1\n      dup1\n      tag_173\n      swap1\n      tag_174\n      jump\t// in\n    tag_173:\n      swap2\n      pop\n      pop\n        /* \"contracts/KYCManagerV2.sol\":3461:3885  for (uint256 i = 0; i < proof.length; i++) {... */\n      jump(tag_163)\n    tag_164:\n      pop\n        /* \"contracts/KYCManagerV2.sol\":3918:3922  root */\n      dup8\n        /* \"contracts/KYCManagerV2.sol\":3902:3914  computedHash */\n      dup2\n        /* \"contracts/KYCManagerV2.sol\":3902:3922  computedHash == root */\n      eq\n        /* \"contracts/KYCManagerV2.sol\":3895:3922  return computedHash == root */\n      swap2\n      pop\n      pop\n        /* \"contracts/KYCManagerV2.sol\":3235:3929  function verifyMerkleProof(... */\n      swap7\n      swap6\n      pop\n      pop\n      pop\n      pop\n      pop\n      pop\n      jump\t// out\n        /* \"@openzeppelin/contracts/utils/Context.sol\":640:736  function _msgSender() internal view virtual returns (address) {... */\n    tag_156:\n        /* \"@openzeppelin/contracts/utils/Context.sol\":693:700  address */\n      0x00\n        /* \"@openzeppelin/contracts/utils/Context.sol\":719:729  msg.sender */\n      caller\n        /* \"@openzeppelin/contracts/utils/Context.sol\":712:729  return msg.sender */\n      swap1\n      pop\n        /* \"@openzeppelin/contracts/utils/Context.sol\":640:736  function _msgSender() internal view virtual returns (address) {... */\n      swap1\n      jump\t// out\n    tag_116:\n      mload(0x40)\n      dup1\n      0x40\n      add\n      0x40\n      mstore\n      dup1\n      0x00\n      dup2\n      mstore\n      0x20\n      add\n      0x00\n      dup1\n      not\n      and\n      dup2\n      mstore\n      pop\n      swap1\n      jump\t// out\n        /* \"#utility.yul\":7:352   */\n    tag_177:\n        /* \"#utility.yul\":85:90   */\n      0x00\n        /* \"#utility.yul\":110:176   */\n      tag_179\n        /* \"#utility.yul\":126:175   */\n      tag_180\n        /* \"#utility.yul\":168:174   */\n      dup5\n        /* \"#utility.yul\":126:175   */\n      tag_181\n      jump\t// in\n    tag_180:\n        /* \"#utility.yul\":110:176   */\n      tag_182\n      jump\t// in\n    tag_179:\n        /* \"#utility.yul\":101:176   */\n      swap1\n      pop\n        /* \"#utility.yul\":199:205   */\n      dup3\n        /* \"#utility.yul\":192:197   */\n      dup2\n        /* \"#utility.yul\":185:206   */\n      mstore\n        /* \"#utility.yul\":237:241   */\n      0x20\n        /* \"#utility.yul\":230:235   */\n      dup2\n        /* \"#utility.yul\":226:242   */\n      add\n        /* \"#utility.yul\":275:278   */\n      dup5\n        /* \"#utility.yul\":266:272   */\n      dup5\n        /* \"#utility.yul\":261:264   */\n      dup5\n        /* \"#utility.yul\":257:273   */\n      add\n        /* \"#utility.yul\":254:279   */\n      gt\n        /* \"#utility.yul\":251:253   */\n      iszero\n      tag_183\n      jumpi\n        /* \"#utility.yul\":292:293   */\n      0x00\n        /* \"#utility.yul\":289:290   */\n      dup1\n        /* \"#utility.yul\":282:294   */\n      revert\n        /* \"#utility.yul\":251:253   */\n    tag_183:\n        /* \"#utility.yul\":305:346   */\n      tag_184\n        /* \"#utility.yul\":339:345   */\n      dup5\n        /* \"#utility.yul\":334:337   */\n      dup3\n        /* \"#utility.yul\":329:332   */\n      dup6\n        /* \"#utility.yul\":305:346   */\n      tag_185\n      jump\t// in\n    tag_184:\n        /* \"#utility.yul\":91:352   */\n      pop\n      swap4\n      swap3\n      pop\n      pop\n      pop\n      jump\t// out\n        /* \"#utility.yul\":358:497   */\n    tag_186:\n        /* \"#utility.yul\":404:409   */\n      0x00\n        /* \"#utility.yul\":442:448   */\n      dup2\n        /* \"#utility.yul\":429:449   */\n      calldataload\n        /* \"#utility.yul\":420:449   */\n      swap1\n      pop\n        /* \"#utility.yul\":458:491   */\n      tag_188\n        /* \"#utility.yul\":485:490   */\n      dup2\n        /* \"#utility.yul\":458:491   */\n      tag_189\n      jump\t// in\n    tag_188:\n        /* \"#utility.yul\":410:497   */\n      swap3\n      swap2\n      pop\n      pop\n      jump\t// out\n        /* \"#utility.yul\":520:887   */\n    tag_190:\n        /* \"#utility.yul\":593:601   */\n      0x00\n        /* \"#utility.yul\":603:609   */\n      dup1\n        /* \"#utility.yul\":653:656   */\n      dup4\n        /* \"#utility.yul\":646:650   */\n      0x1f\n        /* \"#utility.yul\":638:644   */\n      dup5\n        /* \"#utility.yul\":634:651   */\n      add\n        /* \"#utility.yul\":630:657   */\n      slt\n        /* \"#utility.yul\":620:622   */\n      tag_192\n      jumpi\n        /* \"#utility.yul\":671:672   */\n      0x00\n        /* \"#utility.yul\":668:669   */\n      dup1\n        /* \"#utility.yul\":661:673   */\n      revert\n        /* \"#utility.yul\":620:622   */\n    tag_192:\n        /* \"#utility.yul\":707:713   */\n      dup3\n        /* \"#utility.yul\":694:714   */\n      calldataload\n        /* \"#utility.yul\":684:714   */\n      swap1\n      pop\n        /* \"#utility.yul\":737:755   */\n      0xffffffffffffffff\n        /* \"#utility.yul\":729:735   */\n      dup2\n        /* \"#utility.yul\":726:756   */\n      gt\n        /* \"#utility.yul\":723:725   */\n      iszero\n      tag_193\n      jumpi\n        /* \"#utility.yul\":769:770   */\n      0x00\n        /* \"#utility.yul\":766:767   */\n      dup1\n        /* \"#utility.yul\":759:771   */\n      revert\n        /* \"#utility.yul\":723:725   */\n    tag_193:\n        /* \"#utility.yul\":806:810   */\n      0x20\n        /* \"#utility.yul\":798:804   */\n      dup4\n        /* \"#utility.yul\":794:811   */\n      add\n        /* \"#utility.yul\":782:811   */\n      swap2\n      pop\n        /* \"#utility.yul\":860:863   */\n      dup4\n        /* \"#utility.yul\":852:856   */\n      0x20\n        /* \"#utility.yul\":844:850   */\n      dup3\n        /* \"#utility.yul\":840:857   */\n      mul\n        /* \"#utility.yul\":830:838   */\n      dup4\n        /* \"#utility.yul\":826:858   */\n      add\n        /* \"#utility.yul\":823:864   */\n      gt\n        /* \"#utility.yul\":820:822   */\n      iszero\n      tag_194\n      jumpi\n        /* \"#utility.yul\":877:878   */\n      0x00\n        /* \"#utility.yul\":874:875   */\n      dup1\n        /* \"#utility.yul\":867:879   */\n      revert\n        /* \"#utility.yul\":820:822   */\n    tag_194:\n        /* \"#utility.yul\":610:887   */\n      swap3\n      pop\n      swap3\n      swap1\n      pop\n      jump\t// out\n        /* \"#utility.yul\":910:1277   */\n    tag_195:\n        /* \"#utility.yul\":983:991   */\n      0x00\n        /* \"#utility.yul\":993:999   */\n      dup1\n        /* \"#utility.yul\":1043:1046   */\n      dup4\n        /* \"#utility.yul\":1036:1040   */\n      0x1f\n        /* \"#utility.yul\":1028:1034   */\n      dup5\n        /* \"#utility.yul\":1024:1041   */\n      add\n        /* \"#utility.yul\":1020:1047   */\n      slt\n        /* \"#utility.yul\":1010:1012   */\n      tag_197\n      jumpi\n        /* \"#utility.yul\":1061:1062   */\n      0x00\n        /* \"#utility.yul\":1058:1059   */\n      dup1\n        /* \"#utility.yul\":1051:1063   */\n      revert\n        /* \"#utility.yul\":1010:1012   */\n    tag_197:\n        /* \"#utility.yul\":1097:1103   */\n      dup3\n        /* \"#utility.yul\":1084:1104   */\n      calldataload\n        /* \"#utility.yul\":1074:1104   */\n      swap1\n      pop\n        /* \"#utility.yul\":1127:1145   */\n      0xffffffffffffffff\n        /* \"#utility.yul\":1119:1125   */\n      dup2\n        /* \"#utility.yul\":1116:1146   */\n      gt\n        /* \"#utility.yul\":1113:1115   */\n      iszero\n      tag_198\n      jumpi\n        /* \"#utility.yul\":1159:1160   */\n      0x00\n        /* \"#utility.yul\":1156:1157   */\n      dup1\n        /* \"#utility.yul\":1149:1161   */\n      revert\n        /* \"#utility.yul\":1113:1115   */\n    tag_198:\n        /* \"#utility.yul\":1196:1200   */\n      0x20\n        /* \"#utility.yul\":1188:1194   */\n      dup4\n        /* \"#utility.yul\":1184:1201   */\n      add\n        /* \"#utility.yul\":1172:1201   */\n      swap2\n      pop\n        /* \"#utility.yul\":1250:1253   */\n      dup4\n        /* \"#utility.yul\":1242:1246   */\n      0x20\n        /* \"#utility.yul\":1234:1240   */\n      dup3\n        /* \"#utility.yul\":1230:1247   */\n      mul\n        /* \"#utility.yul\":1220:1228   */\n      dup4\n        /* \"#utility.yul\":1216:1248   */\n      add\n        /* \"#utility.yul\":1213:1254   */\n      gt\n        /* \"#utility.yul\":1210:1212   */\n      iszero\n      tag_199\n      jumpi\n        /* \"#utility.yul\":1267:1268   */\n      0x00\n        /* \"#utility.yul\":1264:1265   */\n      dup1\n        /* \"#utility.yul\":1257:1269   */\n      revert\n        /* \"#utility.yul\":1210:1212   */\n    tag_199:\n        /* \"#utility.yul\":1000:1277   */\n      swap3\n      pop\n      swap3\n      swap1\n      pop\n      jump\t// out\n        /* \"#utility.yul\":1283:1416   */\n    tag_200:\n        /* \"#utility.yul\":1326:1331   */\n      0x00\n        /* \"#utility.yul\":1364:1370   */\n      dup2\n        /* \"#utility.yul\":1351:1371   */\n      calldataload\n        /* \"#utility.yul\":1342:1371   */\n      swap1\n      pop\n        /* \"#utility.yul\":1380:1410   */\n      tag_202\n        /* \"#utility.yul\":1404:1409   */\n      dup2\n        /* \"#utility.yul\":1380:1410   */\n      tag_203\n      jump\t// in\n    tag_202:\n        /* \"#utility.yul\":1332:1416   */\n      swap3\n      swap2\n      pop\n      pop\n      jump\t// out\n        /* \"#utility.yul\":1422:1561   */\n    tag_204:\n        /* \"#utility.yul\":1468:1473   */\n      0x00\n        /* \"#utility.yul\":1506:1512   */\n      dup2\n        /* \"#utility.yul\":1493:1513   */\n      calldataload\n        /* \"#utility.yul\":1484:1513   */\n      swap1\n      pop\n        /* \"#utility.yul\":1522:1555   */\n      tag_206\n        /* \"#utility.yul\":1549:1554   */\n      dup2\n        /* \"#utility.yul\":1522:1555   */\n      tag_207\n      jump\t// in\n    tag_206:\n        /* \"#utility.yul\":1474:1561   */\n      swap3\n      swap2\n      pop\n      pop\n      jump\t// out\n        /* \"#utility.yul\":1581:1854   */\n    tag_208:\n        /* \"#utility.yul\":1637:1642   */\n      0x00\n        /* \"#utility.yul\":1686:1689   */\n      dup3\n        /* \"#utility.yul\":1679:1683   */\n      0x1f\n        /* \"#utility.yul\":1671:1677   */\n      dup4\n        /* \"#utility.yul\":1667:1684   */\n      add\n        /* \"#utility.yul\":1663:1690   */\n      slt\n        /* \"#utility.yul\":1653:1655   */\n      tag_210\n      jumpi\n        /* \"#utility.yul\":1704:1705   */\n      0x00\n        /* \"#utility.yul\":1701:1702   */\n      dup1\n        /* \"#utility.yul\":1694:1706   */\n      revert\n        /* \"#utility.yul\":1653:1655   */\n    tag_210:\n        /* \"#utility.yul\":1744:1750   */\n      dup2\n        /* \"#utility.yul\":1731:1751   */\n      calldataload\n        /* \"#utility.yul\":1769:1848   */\n      tag_211\n        /* \"#utility.yul\":1844:1847   */\n      dup5\n        /* \"#utility.yul\":1836:1842   */\n      dup3\n        /* \"#utility.yul\":1829:1833   */\n      0x20\n        /* \"#utility.yul\":1821:1827   */\n      dup7\n        /* \"#utility.yul\":1817:1834   */\n      add\n        /* \"#utility.yul\":1769:1848   */\n      tag_177\n      jump\t// in\n    tag_211:\n        /* \"#utility.yul\":1760:1848   */\n      swap2\n      pop\n        /* \"#utility.yul\":1643:1854   */\n      pop\n      swap3\n      swap2\n      pop\n      pop\n      jump\t// out\n        /* \"#utility.yul\":1860:1999   */\n    tag_212:\n        /* \"#utility.yul\":1906:1911   */\n      0x00\n        /* \"#utility.yul\":1944:1950   */\n      dup2\n        /* \"#utility.yul\":1931:1951   */\n      calldataload\n        /* \"#utility.yul\":1922:1951   */\n      swap1\n      pop\n        /* \"#utility.yul\":1960:1993   */\n      tag_214\n        /* \"#utility.yul\":1987:1992   */\n      dup2\n        /* \"#utility.yul\":1960:1993   */\n      tag_215\n      jump\t// in\n    tag_214:\n        /* \"#utility.yul\":1912:1999   */\n      swap3\n      swap2\n      pop\n      pop\n      jump\t// out\n        /* \"#utility.yul\":2005:2148   */\n    tag_216:\n        /* \"#utility.yul\":2062:2067   */\n      0x00\n        /* \"#utility.yul\":2093:2099   */\n      dup2\n        /* \"#utility.yul\":2087:2100   */\n      mload\n        /* \"#utility.yul\":2078:2100   */\n      swap1\n      pop\n        /* \"#utility.yul\":2109:2142   */\n      tag_218\n        /* \"#utility.yul\":2136:2141   */\n      dup2\n        /* \"#utility.yul\":2109:2142   */\n      tag_215\n      jump\t// in\n    tag_218:\n        /* \"#utility.yul\":2068:2148   */\n      swap3\n      swap2\n      pop\n      pop\n      jump\t// out\n        /* \"#utility.yul\":2154:2416   */\n    tag_35:\n        /* \"#utility.yul\":2213:2219   */\n      0x00\n        /* \"#utility.yul\":2262:2264   */\n      0x20\n        /* \"#utility.yul\":2250:2259   */\n      dup3\n        /* \"#utility.yul\":2241:2248   */\n      dup5\n        /* \"#utility.yul\":2237:2260   */\n      sub\n        /* \"#utility.yul\":2233:2265   */\n      slt\n        /* \"#utility.yul\":2230:2232   */\n      iszero\n      tag_220\n      jumpi\n        /* \"#utility.yul\":2278:2279   */\n      0x00\n        /* \"#utility.yul\":2275:2276   */\n      dup1\n        /* \"#utility.yul\":2268:2280   */\n      revert\n        /* \"#utility.yul\":2230:2232   */\n    tag_220:\n        /* \"#utility.yul\":2321:2322   */\n      0x00\n        /* \"#utility.yul\":2346:2399   */\n      tag_221\n        /* \"#utility.yul\":2391:2398   */\n      dup5\n        /* \"#utility.yul\":2382:2388   */\n      dup3\n        /* \"#utility.yul\":2371:2380   */\n      dup6\n        /* \"#utility.yul\":2367:2389   */\n      add\n        /* \"#utility.yul\":2346:2399   */\n      tag_186\n      jump\t// in\n    tag_221:\n        /* \"#utility.yul\":2336:2399   */\n      swap2\n      pop\n        /* \"#utility.yul\":2292:2409   */\n      pop\n        /* \"#utility.yul\":2220:2416   */\n      swap3\n      swap2\n      pop\n      pop\n      jump\t// out\n        /* \"#utility.yul\":2422:2684   */\n    tag_45:\n        /* \"#utility.yul\":2481:2487   */\n      0x00\n        /* \"#utility.yul\":2530:2532   */\n      0x20\n        /* \"#utility.yul\":2518:2527   */\n      dup3\n        /* \"#utility.yul\":2509:2516   */\n      dup5\n        /* \"#utility.yul\":2505:2528   */\n      sub\n        /* \"#utility.yul\":2501:2533   */\n      slt\n        /* \"#utility.yul\":2498:2500   */\n      iszero\n      tag_223\n      jumpi\n        /* \"#utility.yul\":2546:2547   */\n      0x00\n        /* \"#utility.yul\":2543:2544   */\n      dup1\n        /* \"#utility.yul\":2536:2548   */\n      revert\n        /* \"#utility.yul\":2498:2500   */\n    tag_223:\n        /* \"#utility.yul\":2589:2590   */\n      0x00\n        /* \"#utility.yul\":2614:2667   */\n      tag_224\n        /* \"#utility.yul\":2659:2666   */\n      dup5\n        /* \"#utility.yul\":2650:2656   */\n      dup3\n        /* \"#utility.yul\":2639:2648   */\n      dup6\n        /* \"#utility.yul\":2635:2657   */\n      add\n        /* \"#utility.yul\":2614:2667   */\n      tag_204\n      jump\t// in\n    tag_224:\n        /* \"#utility.yul\":2604:2667   */\n      swap2\n      pop\n        /* \"#utility.yul\":2560:2677   */\n      pop\n        /* \"#utility.yul\":2488:2684   */\n      swap3\n      swap2\n      pop\n      pop\n      jump\t// out\n        /* \"#utility.yul\":2690:3714   */\n    tag_90:\n        /* \"#utility.yul\":2830:2836   */\n      0x00\n        /* \"#utility.yul\":2838:2844   */\n      dup1\n        /* \"#utility.yul\":2846:2852   */\n      0x00\n        /* \"#utility.yul\":2854:2860   */\n      dup1\n        /* \"#utility.yul\":2862:2868   */\n      0x00\n        /* \"#utility.yul\":2870:2876   */\n      dup1\n        /* \"#utility.yul\":2919:2922   */\n      0x80\n        /* \"#utility.yul\":2907:2916   */\n      dup8\n        /* \"#utility.yul\":2898:2905   */\n      dup10\n        /* \"#utility.yul\":2894:2917   */\n      sub\n        /* \"#utility.yul\":2890:2923   */\n      slt\n        /* \"#utility.yul\":2887:2889   */\n      iszero\n      tag_226\n      jumpi\n        /* \"#utility.yul\":2936:2937   */\n      0x00\n        /* \"#utility.yul\":2933:2934   */\n      dup1\n        /* \"#utility.yul\":2926:2938   */\n      revert\n        /* \"#utility.yul\":2887:2889   */\n    tag_226:\n        /* \"#utility.yul\":2979:2980   */\n      0x00\n        /* \"#utility.yul\":3004:3057   */\n      tag_227\n        /* \"#utility.yul\":3049:3056   */\n      dup10\n        /* \"#utility.yul\":3040:3046   */\n      dup3\n        /* \"#utility.yul\":3029:3038   */\n      dup11\n        /* \"#utility.yul\":3025:3047   */\n      add\n        /* \"#utility.yul\":3004:3057   */\n      tag_204\n      jump\t// in\n    tag_227:\n        /* \"#utility.yul\":2994:3057   */\n      swap7\n      pop\n        /* \"#utility.yul\":2950:3067   */\n      pop\n        /* \"#utility.yul\":3134:3136   */\n      0x20\n        /* \"#utility.yul\":3123:3132   */\n      dup8\n        /* \"#utility.yul\":3119:3137   */\n      add\n        /* \"#utility.yul\":3106:3138   */\n      calldataload\n        /* \"#utility.yul\":3165:3183   */\n      0xffffffffffffffff\n        /* \"#utility.yul\":3157:3163   */\n      dup2\n        /* \"#utility.yul\":3154:3184   */\n      gt\n        /* \"#utility.yul\":3151:3153   */\n      iszero\n      tag_228\n      jumpi\n        /* \"#utility.yul\":3197:3198   */\n      0x00\n        /* \"#utility.yul\":3194:3195   */\n      dup1\n        /* \"#utility.yul\":3187:3199   */\n      revert\n        /* \"#utility.yul\":3151:3153   */\n    tag_228:\n        /* \"#utility.yul\":3233:3313   */\n      tag_229\n        /* \"#utility.yul\":3305:3312   */\n      dup10\n        /* \"#utility.yul\":3296:3302   */\n      dup3\n        /* \"#utility.yul\":3285:3294   */\n      dup11\n        /* \"#utility.yul\":3281:3303   */\n      add\n        /* \"#utility.yul\":3233:3313   */\n      tag_190\n      jump\t// in\n    tag_229:\n        /* \"#utility.yul\":3215:3313   */\n      swap6\n      pop\n      swap6\n      pop\n        /* \"#utility.yul\":3077:3323   */\n      pop\n        /* \"#utility.yul\":3390:3392   */\n      0x40\n        /* \"#utility.yul\":3379:3388   */\n      dup8\n        /* \"#utility.yul\":3375:3393   */\n      add\n        /* \"#utility.yul\":3362:3394   */\n      calldataload\n        /* \"#utility.yul\":3421:3439   */\n      0xffffffffffffffff\n        /* \"#utility.yul\":3413:3419   */\n      dup2\n        /* \"#utility.yul\":3410:3440   */\n      gt\n        /* \"#utility.yul\":3407:3409   */\n      iszero\n      tag_230\n      jumpi\n        /* \"#utility.yul\":3453:3454   */\n      0x00\n        /* \"#utility.yul\":3450:3451   */\n      dup1\n        /* \"#utility.yul\":3443:3455   */\n      revert\n        /* \"#utility.yul\":3407:3409   */\n    tag_230:\n        /* \"#utility.yul\":3489:3569   */\n      tag_231\n        /* \"#utility.yul\":3561:3568   */\n      dup10\n        /* \"#utility.yul\":3552:3558   */\n      dup3\n        /* \"#utility.yul\":3541:3550   */\n      dup11\n        /* \"#utility.yul\":3537:3559   */\n      add\n        /* \"#utility.yul\":3489:3569   */\n      tag_195\n      jump\t// in\n    tag_231:\n        /* \"#utility.yul\":3471:3569   */\n      swap4\n      pop\n      swap4\n      pop\n        /* \"#utility.yul\":3333:3579   */\n      pop\n        /* \"#utility.yul\":3618:3620   */\n      0x60\n        /* \"#utility.yul\":3644:3697   */\n      tag_232\n        /* \"#utility.yul\":3689:3696   */\n      dup10\n        /* \"#utility.yul\":3680:3686   */\n      dup3\n        /* \"#utility.yul\":3669:3678   */\n      dup11\n        /* \"#utility.yul\":3665:3687   */\n      add\n        /* \"#utility.yul\":3644:3697   */\n      tag_212\n      jump\t// in\n    tag_232:\n        /* \"#utility.yul\":3634:3697   */\n      swap2\n      pop\n        /* \"#utility.yul\":3589:3707   */\n      pop\n        /* \"#utility.yul\":2877:3714   */\n      swap3\n      swap6\n      pop\n      swap3\n      swap6\n      pop\n      swap3\n      swap6\n      jump\t// out\n        /* \"#utility.yul\":3720:4385   */\n    tag_85:\n        /* \"#utility.yul\":3807:3813   */\n      0x00\n        /* \"#utility.yul\":3815:3821   */\n      dup1\n        /* \"#utility.yul\":3823:3829   */\n      0x00\n        /* \"#utility.yul\":3872:3874   */\n      0x60\n        /* \"#utility.yul\":3860:3869   */\n      dup5\n        /* \"#utility.yul\":3851:3858   */\n      dup7\n        /* \"#utility.yul\":3847:3870   */\n      sub\n        /* \"#utility.yul\":3843:3875   */\n      slt\n        /* \"#utility.yul\":3840:3842   */\n      iszero\n      tag_234\n      jumpi\n        /* \"#utility.yul\":3888:3889   */\n      0x00\n        /* \"#utility.yul\":3885:3886   */\n      dup1\n        /* \"#utility.yul\":3878:3890   */\n      revert\n        /* \"#utility.yul\":3840:3842   */\n    tag_234:\n        /* \"#utility.yul\":3959:3960   */\n      0x00\n        /* \"#utility.yul\":3948:3957   */\n      dup5\n        /* \"#utility.yul\":3944:3961   */\n      add\n        /* \"#utility.yul\":3931:3962   */\n      calldataload\n        /* \"#utility.yul\":3989:4007   */\n      0xffffffffffffffff\n        /* \"#utility.yul\":3981:3987   */\n      dup2\n        /* \"#utility.yul\":3978:4008   */\n      gt\n        /* \"#utility.yul\":3975:3977   */\n      iszero\n      tag_235\n      jumpi\n        /* \"#utility.yul\":4021:4022   */\n      0x00\n        /* \"#utility.yul\":4018:4019   */\n      dup1\n        /* \"#utility.yul\":4011:4023   */\n      revert\n        /* \"#utility.yul\":3975:3977   */\n    tag_235:\n        /* \"#utility.yul\":4049:4112   */\n      tag_236\n        /* \"#utility.yul\":4104:4111   */\n      dup7\n        /* \"#utility.yul\":4095:4101   */\n      dup3\n        /* \"#utility.yul\":4084:4093   */\n      dup8\n        /* \"#utility.yul\":4080:4102   */\n      add\n        /* \"#utility.yul\":4049:4112   */\n      tag_208\n      jump\t// in\n    tag_236:\n        /* \"#utility.yul\":4039:4112   */\n      swap4\n      pop\n        /* \"#utility.yul\":3902:4122   */\n      pop\n        /* \"#utility.yul\":4161:4163   */\n      0x20\n        /* \"#utility.yul\":4187:4240   */\n      tag_237\n        /* \"#utility.yul\":4232:4239   */\n      dup7\n        /* \"#utility.yul\":4223:4229   */\n      dup3\n        /* \"#utility.yul\":4212:4221   */\n      dup8\n        /* \"#utility.yul\":4208:4230   */\n      add\n        /* \"#utility.yul\":4187:4240   */\n      tag_186\n      jump\t// in\n    tag_237:\n        /* \"#utility.yul\":4177:4240   */\n      swap3\n      pop\n        /* \"#utility.yul\":4132:4250   */\n      pop\n        /* \"#utility.yul\":4289:4291   */\n      0x40\n        /* \"#utility.yul\":4315:4368   */\n      tag_238\n        /* \"#utility.yul\":4360:4367   */\n      dup7\n        /* \"#utility.yul\":4351:4357   */\n      dup3\n        /* \"#utility.yul\":4340:4349   */\n      dup8\n        /* \"#utility.yul\":4336:4358   */\n      add\n        /* \"#utility.yul\":4315:4368   */\n      tag_212\n      jump\t// in\n    tag_238:\n        /* \"#utility.yul\":4305:4368   */\n      swap2\n      pop\n        /* \"#utility.yul\":4260:4378   */\n      pop\n        /* \"#utility.yul\":3830:4385   */\n      swap3\n      pop\n      swap3\n      pop\n      swap3\n      jump\t// out\n        /* \"#utility.yul\":4391:4653   */\n    tag_28:\n        /* \"#utility.yul\":4450:4456   */\n      0x00\n        /* \"#utility.yul\":4499:4501   */\n      0x20\n        /* \"#utility.yul\":4487:4496   */\n      dup3\n        /* \"#utility.yul\":4478:4485   */\n      dup5\n        /* \"#utility.yul\":4474:4497   */\n      sub\n        /* \"#utility.yul\":4470:4502   */\n      slt\n        /* \"#utility.yul\":4467:4469   */\n      iszero\n      tag_240\n      jumpi\n        /* \"#utility.yul\":4515:4516   */\n      0x00\n        /* \"#utility.yul\":4512:4513   */\n      dup1\n        /* \"#utility.yul\":4505:4517   */\n      revert\n        /* \"#utility.yul\":4467:4469   */\n    tag_240:\n        /* \"#utility.yul\":4558:4559   */\n      0x00\n        /* \"#utility.yul\":4583:4636   */\n      tag_241\n        /* \"#utility.yul\":4628:4635   */\n      dup5\n        /* \"#utility.yul\":4619:4625   */\n      dup3\n        /* \"#utility.yul\":4608:4617   */\n      dup6\n        /* \"#utility.yul\":4604:4626   */\n      add\n        /* \"#utility.yul\":4583:4636   */\n      tag_212\n      jump\t// in\n    tag_241:\n        /* \"#utility.yul\":4573:4636   */\n      swap2\n      pop\n        /* \"#utility.yul\":4529:4646   */\n      pop\n        /* \"#utility.yul\":4457:4653   */\n      swap3\n      swap2\n      pop\n      pop\n      jump\t// out\n        /* \"#utility.yul\":4659:4943   */\n    tag_133:\n        /* \"#utility.yul\":4729:4735   */\n      0x00\n        /* \"#utility.yul\":4778:4780   */\n      0x20\n        /* \"#utility.yul\":4766:4775   */\n      dup3\n        /* \"#utility.yul\":4757:4764   */\n      dup5\n        /* \"#utility.yul\":4753:4776   */\n      sub\n        /* \"#utility.yul\":4749:4781   */\n      slt\n        /* \"#utility.yul\":4746:4748   */\n      iszero\n      tag_243\n      jumpi\n        /* \"#utility.yul\":4794:4795   */\n      0x00\n        /* \"#utility.yul\":4791:4792   */\n      dup1\n        /* \"#utility.yul\":4784:4796   */\n      revert\n        /* \"#utility.yul\":4746:4748   */\n    tag_243:\n        /* \"#utility.yul\":4837:4838   */\n      0x00\n        /* \"#utility.yul\":4862:4926   */\n      tag_244\n        /* \"#utility.yul\":4918:4925   */\n      dup5\n        /* \"#utility.yul\":4909:4915   */\n      dup3\n        /* \"#utility.yul\":4898:4907   */\n      dup6\n        /* \"#utility.yul\":4894:4916   */\n      add\n        /* \"#utility.yul\":4862:4926   */\n      tag_216\n      jump\t// in\n    tag_244:\n        /* \"#utility.yul\":4852:4926   */\n      swap2\n      pop\n        /* \"#utility.yul\":4808:4936   */\n      pop\n        /* \"#utility.yul\":4736:4943   */\n      swap3\n      swap2\n      pop\n      pop\n      jump\t// out\n        /* \"#utility.yul\":4949:5356   */\n    tag_40:\n        /* \"#utility.yul\":5017:5023   */\n      0x00\n        /* \"#utility.yul\":5025:5031   */\n      dup1\n        /* \"#utility.yul\":5074:5076   */\n      0x40\n        /* \"#utility.yul\":5062:5071   */\n      dup4\n        /* \"#utility.yul\":5053:5060   */\n      dup6\n        /* \"#utility.yul\":5049:5072   */\n      sub\n        /* \"#utility.yul\":5045:5077   */\n      slt\n        /* \"#utility.yul\":5042:5044   */\n      iszero\n      tag_246\n      jumpi\n        /* \"#utility.yul\":5090:5091   */\n      0x00\n        /* \"#utility.yul\":5087:5088   */\n      dup1\n        /* \"#utility.yul\":5080:5092   */\n      revert\n        /* \"#utility.yul\":5042:5044   */\n    tag_246:\n        /* \"#utility.yul\":5133:5134   */\n      0x00\n        /* \"#utility.yul\":5158:5211   */\n      tag_247\n        /* \"#utility.yul\":5203:5210   */\n      dup6\n        /* \"#utility.yul\":5194:5200   */\n      dup3\n        /* \"#utility.yul\":5183:5192   */\n      dup7\n        /* \"#utility.yul\":5179:5201   */\n      add\n        /* \"#utility.yul\":5158:5211   */\n      tag_212\n      jump\t// in\n    tag_247:\n        /* \"#utility.yul\":5148:5211   */\n      swap3\n      pop\n        /* \"#utility.yul\":5104:5221   */\n      pop\n        /* \"#utility.yul\":5260:5262   */\n      0x20\n        /* \"#utility.yul\":5286:5339   */\n      tag_248\n        /* \"#utility.yul\":5331:5338   */\n      dup6\n        /* \"#utility.yul\":5322:5328   */\n      dup3\n        /* \"#utility.yul\":5311:5320   */\n      dup7\n        /* \"#utility.yul\":5307:5329   */\n      add\n        /* \"#utility.yul\":5286:5339   */\n      tag_186\n      jump\t// in\n    tag_248:\n        /* \"#utility.yul\":5276:5339   */\n      swap2\n      pop\n        /* \"#utility.yul\":5231:5349   */\n      pop\n        /* \"#utility.yul\":5032:5356   */\n      swap3\n      pop\n      swap3\n      swap1\n      pop\n      jump\t// out\n        /* \"#utility.yul\":5362:5763   */\n    tag_69:\n        /* \"#utility.yul\":5427:5433   */\n      0x00\n        /* \"#utility.yul\":5435:5441   */\n      dup1\n        /* \"#utility.yul\":5484:5486   */\n      0x40\n        /* \"#utility.yul\":5472:5481   */\n      dup4\n        /* \"#utility.yul\":5463:5470   */\n      dup6\n        /* \"#utility.yul\":5459:5482   */\n      sub\n        /* \"#utility.yul\":5455:5487   */\n      slt\n        /* \"#utility.yul\":5452:5454   */\n      iszero\n      tag_250\n      jumpi\n        /* \"#utility.yul\":5500:5501   */\n      0x00\n        /* \"#utility.yul\":5497:5498   */\n      dup1\n        /* \"#utility.yul\":5490:5502   */\n      revert\n        /* \"#utility.yul\":5452:5454   */\n    tag_250:\n        /* \"#utility.yul\":5543:5544   */\n      0x00\n        /* \"#utility.yul\":5568:5621   */\n      tag_251\n        /* \"#utility.yul\":5613:5620   */\n      dup6\n        /* \"#utility.yul\":5604:5610   */\n      dup3\n        /* \"#utility.yul\":5593:5602   */\n      dup7\n        /* \"#utility.yul\":5589:5611   */\n      add\n        /* \"#utility.yul\":5568:5621   */\n      tag_212\n      jump\t// in\n    tag_251:\n        /* \"#utility.yul\":5558:5621   */\n      swap3\n      pop\n        /* \"#utility.yul\":5514:5631   */\n      pop\n        /* \"#utility.yul\":5670:5672   */\n      0x20\n        /* \"#utility.yul\":5696:5746   */\n      tag_252\n        /* \"#utility.yul\":5738:5745   */\n      dup6\n        /* \"#utility.yul\":5729:5735   */\n      dup3\n        /* \"#utility.yul\":5718:5727   */\n      dup7\n        /* \"#utility.yul\":5714:5736   */\n      add\n        /* \"#utility.yul\":5696:5746   */\n      tag_200\n      jump\t// in\n    tag_252:\n        /* \"#utility.yul\":5686:5746   */\n      swap2\n      pop\n        /* \"#utility.yul\":5641:5756   */\n      pop\n        /* \"#utility.yul\":5442:5763   */\n      swap3\n      pop\n      swap3\n      swap1\n      pop\n      jump\t// out\n        /* \"#utility.yul\":5769:5887   */\n    tag_253:\n        /* \"#utility.yul\":5856:5880   */\n      tag_255\n        /* \"#utility.yul\":5874:5879   */\n      dup2\n        /* \"#utility.yul\":5856:5880   */\n      tag_256\n      jump\t// in\n    tag_255:\n        /* \"#utility.yul\":5851:5854   */\n      dup3\n        /* \"#utility.yul\":5844:5881   */\n      mstore\n        /* \"#utility.yul\":5834:5887   */\n      pop\n      pop\n      jump\t// out\n        /* \"#utility.yul\":5893:6002   */\n    tag_257:\n        /* \"#utility.yul\":5974:5995   */\n      tag_259\n        /* \"#utility.yul\":5989:5994   */\n      dup2\n        /* \"#utility.yul\":5974:5995   */\n      tag_260\n      jump\t// in\n    tag_259:\n        /* \"#utility.yul\":5969:5972   */\n      dup3\n        /* \"#utility.yul\":5962:5996   */\n      mstore\n        /* \"#utility.yul\":5952:6002   */\n      pop\n      pop\n      jump\t// out\n        /* \"#utility.yul\":6008:6116   */\n    tag_261:\n        /* \"#utility.yul\":6085:6109   */\n      tag_263\n        /* \"#utility.yul\":6103:6108   */\n      dup2\n        /* \"#utility.yul\":6085:6109   */\n      tag_264\n      jump\t// in\n    tag_263:\n        /* \"#utility.yul\":6080:6083   */\n      dup3\n        /* \"#utility.yul\":6073:6110   */\n      mstore\n        /* \"#utility.yul\":6063:6116   */\n      pop\n      pop\n      jump\t// out\n        /* \"#utility.yul\":6122:6279   */\n    tag_265:\n        /* \"#utility.yul\":6227:6272   */\n      tag_267\n        /* \"#utility.yul\":6247:6271   */\n      tag_268\n        /* \"#utility.yul\":6265:6270   */\n      dup3\n        /* \"#utility.yul\":6247:6271   */\n      tag_264\n      jump\t// in\n    tag_268:\n        /* \"#utility.yul\":6227:6272   */\n      tag_269\n      jump\t// in\n    tag_267:\n        /* \"#utility.yul\":6222:6225   */\n      dup3\n        /* \"#utility.yul\":6215:6273   */\n      mstore\n        /* \"#utility.yul\":6205:6279   */\n      pop\n      pop\n      jump\t// out\n        /* \"#utility.yul\":6285:6649   */\n    tag_270:\n        /* \"#utility.yul\":6373:6376   */\n      0x00\n        /* \"#utility.yul\":6401:6440   */\n      tag_272\n        /* \"#utility.yul\":6434:6439   */\n      dup3\n        /* \"#utility.yul\":6401:6440   */\n      tag_273\n      jump\t// in\n    tag_272:\n        /* \"#utility.yul\":6456:6527   */\n      tag_274\n        /* \"#utility.yul\":6520:6526   */\n      dup2\n        /* \"#utility.yul\":6515:6518   */\n      dup6\n        /* \"#utility.yul\":6456:6527   */\n      tag_275\n      jump\t// in\n    tag_274:\n        /* \"#utility.yul\":6449:6527   */\n      swap4\n      pop\n        /* \"#utility.yul\":6536:6588   */\n      tag_276\n        /* \"#utility.yul\":6581:6587   */\n      dup2\n        /* \"#utility.yul\":6576:6579   */\n      dup6\n        /* \"#utility.yul\":6569:6573   */\n      0x20\n        /* \"#utility.yul\":6562:6567   */\n      dup7\n        /* \"#utility.yul\":6558:6574   */\n      add\n        /* \"#utility.yul\":6536:6588   */\n      tag_277\n      jump\t// in\n    tag_276:\n        /* \"#utility.yul\":6613:6642   */\n      tag_278\n        /* \"#utility.yul\":6635:6641   */\n      dup2\n        /* \"#utility.yul\":6613:6642   */\n      tag_279\n      jump\t// in\n    tag_278:\n        /* \"#utility.yul\":6608:6611   */\n      dup5\n        /* \"#utility.yul\":6604:6643   */\n      add\n        /* \"#utility.yul\":6597:6643   */\n      swap2\n      pop\n        /* \"#utility.yul\":6377:6649   */\n      pop\n      swap3\n      swap2\n      pop\n      pop\n      jump\t// out\n        /* \"#utility.yul\":6655:7021   */\n    tag_280:\n        /* \"#utility.yul\":6797:6800   */\n      0x00\n        /* \"#utility.yul\":6818:6885   */\n      tag_282\n        /* \"#utility.yul\":6882:6884   */\n      0x26\n        /* \"#utility.yul\":6877:6880   */\n      dup4\n        /* \"#utility.yul\":6818:6885   */\n      tag_275\n      jump\t// in\n    tag_282:\n        /* \"#utility.yul\":6811:6885   */\n      swap2\n      pop\n        /* \"#utility.yul\":6894:6987   */\n      tag_283\n        /* \"#utility.yul\":6983:6986   */\n      dup3\n        /* \"#utility.yul\":6894:6987   */\n      tag_284\n      jump\t// in\n    tag_283:\n        /* \"#utility.yul\":7012:7014   */\n      0x40\n        /* \"#utility.yul\":7007:7010   */\n      dup3\n        /* \"#utility.yul\":7003:7015   */\n      add\n        /* \"#utility.yul\":6996:7015   */\n      swap1\n      pop\n        /* \"#utility.yul\":6801:7021   */\n      swap2\n      swap1\n      pop\n      jump\t// out\n        /* \"#utility.yul\":7027:7393   */\n    tag_285:\n        /* \"#utility.yul\":7169:7172   */\n      0x00\n        /* \"#utility.yul\":7190:7257   */\n      tag_287\n        /* \"#utility.yul\":7254:7256   */\n      0x20\n        /* \"#utility.yul\":7249:7252   */\n      dup4\n        /* \"#utility.yul\":7190:7257   */\n      tag_275\n      jump\t// in\n    tag_287:\n        /* \"#utility.yul\":7183:7257   */\n      swap2\n      pop\n        /* \"#utility.yul\":7266:7359   */\n      tag_288\n        /* \"#utility.yul\":7355:7358   */\n      dup3\n        /* \"#utility.yul\":7266:7359   */\n      tag_289\n      jump\t// in\n    tag_288:\n        /* \"#utility.yul\":7384:7386   */\n      0x20\n        /* \"#utility.yul\":7379:7382   */\n      dup3\n        /* \"#utility.yul\":7375:7387   */\n      add\n        /* \"#utility.yul\":7368:7387   */\n      swap1\n      pop\n        /* \"#utility.yul\":7173:7393   */\n      swap2\n      swap1\n      pop\n      jump\t// out\n        /* \"#utility.yul\":7463:7977   */\n    tag_290:\n        /* \"#utility.yul\":7610:7614   */\n      0x40\n        /* \"#utility.yul\":7605:7608   */\n      dup3\n        /* \"#utility.yul\":7601:7615   */\n      add\n        /* \"#utility.yul\":7698:7702   */\n      0x00\n        /* \"#utility.yul\":7691:7696   */\n      dup3\n        /* \"#utility.yul\":7687:7703   */\n      add\n        /* \"#utility.yul\":7681:7704   */\n      mload\n        /* \"#utility.yul\":7717:7780   */\n      tag_292\n        /* \"#utility.yul\":7774:7778   */\n      0x00\n        /* \"#utility.yul\":7769:7772   */\n      dup6\n        /* \"#utility.yul\":7765:7779   */\n      add\n        /* \"#utility.yul\":7751:7763   */\n      dup3\n        /* \"#utility.yul\":7717:7780   */\n      tag_293\n      jump\t// in\n    tag_292:\n        /* \"#utility.yul\":7625:7790   */\n      pop\n        /* \"#utility.yul\":7878:7882   */\n      0x20\n        /* \"#utility.yul\":7871:7876   */\n      dup3\n        /* \"#utility.yul\":7867:7883   */\n      add\n        /* \"#utility.yul\":7861:7884   */\n      mload\n        /* \"#utility.yul\":7897:7960   */\n      tag_294\n        /* \"#utility.yul\":7954:7958   */\n      0x20\n        /* \"#utility.yul\":7949:7952   */\n      dup6\n        /* \"#utility.yul\":7945:7959   */\n      add\n        /* \"#utility.yul\":7931:7943   */\n      dup3\n        /* \"#utility.yul\":7897:7960   */\n      tag_261\n      jump\t// in\n    tag_294:\n        /* \"#utility.yul\":7800:7970   */\n      pop\n        /* \"#utility.yul\":7579:7977   */\n      pop\n      pop\n      pop\n      jump\t// out\n        /* \"#utility.yul\":7983:8091   */\n    tag_293:\n        /* \"#utility.yul\":8060:8084   */\n      tag_296\n        /* \"#utility.yul\":8078:8083   */\n      dup2\n        /* \"#utility.yul\":8060:8084   */\n      tag_297\n      jump\t// in\n    tag_296:\n        /* \"#utility.yul\":8055:8058   */\n      dup3\n        /* \"#utility.yul\":8048:8085   */\n      mstore\n        /* \"#utility.yul\":8038:8091   */\n      pop\n      pop\n      jump\t// out\n        /* \"#utility.yul\":8097:8215   */\n    tag_298:\n        /* \"#utility.yul\":8184:8208   */\n      tag_300\n        /* \"#utility.yul\":8202:8207   */\n      dup2\n        /* \"#utility.yul\":8184:8208   */\n      tag_297\n      jump\t// in\n    tag_300:\n        /* \"#utility.yul\":8179:8182   */\n      dup3\n        /* \"#utility.yul\":8172:8209   */\n      mstore\n        /* \"#utility.yul\":8162:8215   */\n      pop\n      pop\n      jump\t// out\n        /* \"#utility.yul\":8221:8618   */\n    tag_170:\n        /* \"#utility.yul\":8361:8364   */\n      0x00\n        /* \"#utility.yul\":8376:8451   */\n      tag_302\n        /* \"#utility.yul\":8447:8450   */\n      dup3\n        /* \"#utility.yul\":8438:8444   */\n      dup6\n        /* \"#utility.yul\":8376:8451   */\n      tag_265\n      jump\t// in\n    tag_302:\n        /* \"#utility.yul\":8476:8478   */\n      0x20\n        /* \"#utility.yul\":8471:8474   */\n      dup3\n        /* \"#utility.yul\":8467:8479   */\n      add\n        /* \"#utility.yul\":8460:8479   */\n      swap2\n      pop\n        /* \"#utility.yul\":8489:8564   */\n      tag_303\n        /* \"#utility.yul\":8560:8563   */\n      dup3\n        /* \"#utility.yul\":8551:8557   */\n      dup5\n        /* \"#utility.yul\":8489:8564   */\n      tag_265\n      jump\t// in\n    tag_303:\n        /* \"#utility.yul\":8589:8591   */\n      0x20\n        /* \"#utility.yul\":8584:8587   */\n      dup3\n        /* \"#utility.yul\":8580:8592   */\n      add\n        /* \"#utility.yul\":8573:8592   */\n      swap2\n      pop\n        /* \"#utility.yul\":8609:8612   */\n      dup2\n        /* \"#utility.yul\":8602:8612   */\n      swap1\n      pop\n        /* \"#utility.yul\":8365:8618   */\n      swap4\n      swap3\n      pop\n      pop\n      pop\n      jump\t// out\n        /* \"#utility.yul\":8624:8846   */\n    tag_52:\n        /* \"#utility.yul\":8717:8721   */\n      0x00\n        /* \"#utility.yul\":8755:8757   */\n      0x20\n        /* \"#utility.yul\":8744:8753   */\n      dup3\n        /* \"#utility.yul\":8740:8758   */\n      add\n        /* \"#utility.yul\":8732:8758   */\n      swap1\n      pop\n        /* \"#utility.yul\":8768:8839   */\n      tag_305\n        /* \"#utility.yul\":8836:8837   */\n      0x00\n        /* \"#utility.yul\":8825:8834   */\n      dup4\n        /* \"#utility.yul\":8821:8838   */\n      add\n        /* \"#utility.yul\":8812:8818   */\n      dup5\n        /* \"#utility.yul\":8768:8839   */\n      tag_253\n      jump\t// in\n    tag_305:\n        /* \"#utility.yul\":8722:8846   */\n      swap3\n      swap2\n      pop\n      pop\n      jump\t// out\n        /* \"#utility.yul\":8852:9275   */\n    tag_128:\n        /* \"#utility.yul\":8993:8997   */\n      0x00\n        /* \"#utility.yul\":9031:9033   */\n      0x40\n        /* \"#utility.yul\":9020:9029   */\n      dup3\n        /* \"#utility.yul\":9016:9034   */\n      add\n        /* \"#utility.yul\":9008:9034   */\n      swap1\n      pop\n        /* \"#utility.yul\":9044:9115   */\n      tag_307\n        /* \"#utility.yul\":9112:9113   */\n      0x00\n        /* \"#utility.yul\":9101:9110   */\n      dup4\n        /* \"#utility.yul\":9097:9114   */\n      add\n        /* \"#utility.yul\":9088:9094   */\n      dup6\n        /* \"#utility.yul\":9044:9115   */\n      tag_253\n      jump\t// in\n    tag_307:\n        /* \"#utility.yul\":9162:9171   */\n      dup2\n        /* \"#utility.yul\":9156:9160   */\n      dup2\n        /* \"#utility.yul\":9152:9172   */\n      sub\n        /* \"#utility.yul\":9147:9149   */\n      0x20\n        /* \"#utility.yul\":9136:9145   */\n      dup4\n        /* \"#utility.yul\":9132:9150   */\n      add\n        /* \"#utility.yul\":9125:9173   */\n      mstore\n        /* \"#utility.yul\":9190:9268   */\n      tag_308\n        /* \"#utility.yul\":9263:9267   */\n      dup2\n        /* \"#utility.yul\":9254:9260   */\n      dup5\n        /* \"#utility.yul\":9190:9268   */\n      tag_270\n      jump\t// in\n    tag_308:\n        /* \"#utility.yul\":9182:9268   */\n      swap1\n      pop\n        /* \"#utility.yul\":8998:9275   */\n      swap4\n      swap3\n      pop\n      pop\n      pop\n      jump\t// out\n        /* \"#utility.yul\":9281:9491   */\n    tag_31:\n        /* \"#utility.yul\":9368:9372   */\n      0x00\n        /* \"#utility.yul\":9406:9408   */\n      0x20\n        /* \"#utility.yul\":9395:9404   */\n      dup3\n        /* \"#utility.yul\":9391:9409   */\n      add\n        /* \"#utility.yul\":9383:9409   */\n      swap1\n      pop\n        /* \"#utility.yul\":9419:9484   */\n      tag_310\n        /* \"#utility.yul\":9481:9482   */\n      0x00\n        /* \"#utility.yul\":9470:9479   */\n      dup4\n        /* \"#utility.yul\":9466:9483   */\n      add\n        /* \"#utility.yul\":9457:9463   */\n      dup5\n        /* \"#utility.yul\":9419:9484   */\n      tag_257\n      jump\t// in\n    tag_310:\n        /* \"#utility.yul\":9373:9491   */\n      swap3\n      swap2\n      pop\n      pop\n      jump\t// out\n        /* \"#utility.yul\":9497:9916   */\n    tag_149:\n        /* \"#utility.yul\":9663:9667   */\n      0x00\n        /* \"#utility.yul\":9701:9703   */\n      0x20\n        /* \"#utility.yul\":9690:9699   */\n      dup3\n        /* \"#utility.yul\":9686:9704   */\n      add\n        /* \"#utility.yul\":9678:9704   */\n      swap1\n      pop\n        /* \"#utility.yul\":9750:9759   */\n      dup2\n        /* \"#utility.yul\":9744:9748   */\n      dup2\n        /* \"#utility.yul\":9740:9760   */\n      sub\n        /* \"#utility.yul\":9736:9737   */\n      0x00\n        /* \"#utility.yul\":9725:9734   */\n      dup4\n        /* \"#utility.yul\":9721:9738   */\n      add\n        /* \"#utility.yul\":9714:9761   */\n      mstore\n        /* \"#utility.yul\":9778:9909   */\n      tag_312\n        /* \"#utility.yul\":9904:9908   */\n      dup2\n        /* \"#utility.yul\":9778:9909   */\n      tag_280\n      jump\t// in\n    tag_312:\n        /* \"#utility.yul\":9770:9909   */\n      swap1\n      pop\n        /* \"#utility.yul\":9668:9916   */\n      swap2\n      swap1\n      pop\n      jump\t// out\n        /* \"#utility.yul\":9922:10341   */\n    tag_160:\n        /* \"#utility.yul\":10088:10092   */\n      0x00\n        /* \"#utility.yul\":10126:10128   */\n      0x20\n        /* \"#utility.yul\":10115:10124   */\n      dup3\n        /* \"#utility.yul\":10111:10129   */\n      add\n        /* \"#utility.yul\":10103:10129   */\n      swap1\n      pop\n        /* \"#utility.yul\":10175:10184   */\n      dup2\n        /* \"#utility.yul\":10169:10173   */\n      dup2\n        /* \"#utility.yul\":10165:10185   */\n      sub\n        /* \"#utility.yul\":10161:10162   */\n      0x00\n        /* \"#utility.yul\":10150:10159   */\n      dup4\n        /* \"#utility.yul\":10146:10163   */\n      add\n        /* \"#utility.yul\":10139:10186   */\n      mstore\n        /* \"#utility.yul\":10203:10334   */\n      tag_314\n        /* \"#utility.yul\":10329:10333   */\n      dup2\n        /* \"#utility.yul\":10203:10334   */\n      tag_285\n      jump\t// in\n    tag_314:\n        /* \"#utility.yul\":10195:10334   */\n      swap1\n      pop\n        /* \"#utility.yul\":10093:10341   */\n      swap2\n      swap1\n      pop\n      jump\t// out\n        /* \"#utility.yul\":10347:10669   */\n    tag_65:\n        /* \"#utility.yul\":10490:10494   */\n      0x00\n        /* \"#utility.yul\":10528:10530   */\n      0x40\n        /* \"#utility.yul\":10517:10526   */\n      dup3\n        /* \"#utility.yul\":10513:10531   */\n      add\n        /* \"#utility.yul\":10505:10531   */\n      swap1\n      pop\n        /* \"#utility.yul\":10541:10662   */\n      tag_316\n        /* \"#utility.yul\":10659:10660   */\n      0x00\n        /* \"#utility.yul\":10648:10657   */\n      dup4\n        /* \"#utility.yul\":10644:10661   */\n      add\n        /* \"#utility.yul\":10635:10641   */\n      dup5\n        /* \"#utility.yul\":10541:10662   */\n      tag_290\n      jump\t// in\n    tag_316:\n        /* \"#utility.yul\":10495:10669   */\n      swap3\n      swap2\n      pop\n      pop\n      jump\t// out\n        /* \"#utility.yul\":10675:10897   */\n    tag_81:\n        /* \"#utility.yul\":10768:10772   */\n      0x00\n        /* \"#utility.yul\":10806:10808   */\n      0x20\n        /* \"#utility.yul\":10795:10804   */\n      dup3\n        /* \"#utility.yul\":10791:10809   */\n      add\n        /* \"#utility.yul\":10783:10809   */\n      swap1\n      pop\n        /* \"#utility.yul\":10819:10890   */\n      tag_318\n        /* \"#utility.yul\":10887:10888   */\n      0x00\n        /* \"#utility.yul\":10876:10885   */\n      dup4\n        /* \"#utility.yul\":10872:10889   */\n      add\n        /* \"#utility.yul\":10863:10869   */\n      dup5\n        /* \"#utility.yul\":10819:10890   */\n      tag_298\n      jump\t// in\n    tag_318:\n        /* \"#utility.yul\":10773:10897   */\n      swap3\n      swap2\n      pop\n      pop\n      jump\t// out\n        /* \"#utility.yul\":10903:11235   */\n    tag_135:\n        /* \"#utility.yul\":11024:11028   */\n      0x00\n        /* \"#utility.yul\":11062:11064   */\n      0x40\n        /* \"#utility.yul\":11051:11060   */\n      dup3\n        /* \"#utility.yul\":11047:11065   */\n      add\n        /* \"#utility.yul\":11039:11065   */\n      swap1\n      pop\n        /* \"#utility.yul\":11075:11146   */\n      tag_320\n        /* \"#utility.yul\":11143:11144   */\n      0x00\n        /* \"#utility.yul\":11132:11141   */\n      dup4\n        /* \"#utility.yul\":11128:11145   */\n      add\n        /* \"#utility.yul\":11119:11125   */\n      dup6\n        /* \"#utility.yul\":11075:11146   */\n      tag_298\n      jump\t// in\n    tag_320:\n        /* \"#utility.yul\":11156:11228   */\n      tag_321\n        /* \"#utility.yul\":11224:11226   */\n      0x20\n        /* \"#utility.yul\":11213:11222   */\n      dup4\n        /* \"#utility.yul\":11209:11227   */\n      add\n        /* \"#utility.yul\":11200:11206   */\n      dup5\n        /* \"#utility.yul\":11156:11228   */\n      tag_298\n      jump\t// in\n    tag_321:\n        /* \"#utility.yul\":11029:11235   */\n      swap4\n      swap3\n      pop\n      pop\n      pop\n      jump\t// out\n        /* \"#utility.yul\":11241:11370   */\n    tag_182:\n        /* \"#utility.yul\":11275:11281   */\n      0x00\n        /* \"#utility.yul\":11302:11322   */\n      tag_323\n      tag_324\n      jump\t// in\n    tag_323:\n        /* \"#utility.yul\":11292:11322   */\n      swap1\n      pop\n        /* \"#utility.yul\":11331:11364   */\n      tag_325\n        /* \"#utility.yul\":11359:11363   */\n      dup3\n        /* \"#utility.yul\":11351:11357   */\n      dup3\n        /* \"#utility.yul\":11331:11364   */\n      tag_326\n      jump\t// in\n    tag_325:\n        /* \"#utility.yul\":11282:11370   */\n      swap2\n      swap1\n      pop\n      jump\t// out\n        /* \"#utility.yul\":11376:11451   */\n    tag_324:\n        /* \"#utility.yul\":11409:11415   */\n      0x00\n        /* \"#utility.yul\":11442:11444   */\n      0x40\n        /* \"#utility.yul\":11436:11445   */\n      mload\n        /* \"#utility.yul\":11426:11445   */\n      swap1\n      pop\n        /* \"#utility.yul\":11416:11451   */\n      swap1\n      jump\t// out\n        /* \"#utility.yul\":11457:11765   */\n    tag_181:\n        /* \"#utility.yul\":11519:11523   */\n      0x00\n        /* \"#utility.yul\":11609:11627   */\n      0xffffffffffffffff\n        /* \"#utility.yul\":11601:11607   */\n      dup3\n        /* \"#utility.yul\":11598:11628   */\n      gt\n        /* \"#utility.yul\":11595:11597   */\n      iszero\n      tag_329\n      jumpi\n        /* \"#utility.yul\":11631:11649   */\n      tag_330\n      tag_331\n      jump\t// in\n    tag_330:\n        /* \"#utility.yul\":11595:11597   */\n    tag_329:\n        /* \"#utility.yul\":11669:11698   */\n      tag_332\n        /* \"#utility.yul\":11691:11697   */\n      dup3\n        /* \"#utility.yul\":11669:11698   */\n      tag_279\n      jump\t// in\n    tag_332:\n        /* \"#utility.yul\":11661:11698   */\n      swap1\n      pop\n        /* \"#utility.yul\":11753:11757   */\n      0x20\n        /* \"#utility.yul\":11747:11751   */\n      dup2\n        /* \"#utility.yul\":11743:11758   */\n      add\n        /* \"#utility.yul\":11735:11758   */\n      swap1\n      pop\n        /* \"#utility.yul\":11524:11765   */\n      swap2\n      swap1\n      pop\n      jump\t// out\n        /* \"#utility.yul\":11771:11870   */\n    tag_273:\n        /* \"#utility.yul\":11823:11829   */\n      0x00\n        /* \"#utility.yul\":11857:11862   */\n      dup2\n        /* \"#utility.yul\":11851:11863   */\n      mload\n        /* \"#utility.yul\":11841:11863   */\n      swap1\n      pop\n        /* \"#utility.yul\":11830:11870   */\n      swap2\n      swap1\n      pop\n      jump\t// out\n        /* \"#utility.yul\":11876:12045   */\n    tag_275:\n        /* \"#utility.yul\":11960:11971   */\n      0x00\n        /* \"#utility.yul\":11994:12000   */\n      dup3\n        /* \"#utility.yul\":11989:11992   */\n      dup3\n        /* \"#utility.yul\":11982:12001   */\n      mstore\n        /* \"#utility.yul\":12034:12038   */\n      0x20\n        /* \"#utility.yul\":12029:12032   */\n      dup3\n        /* \"#utility.yul\":12025:12039   */\n      add\n        /* \"#utility.yul\":12010:12039   */\n      swap1\n      pop\n        /* \"#utility.yul\":11972:12045   */\n      swap3\n      swap2\n      pop\n      pop\n      jump\t// out\n        /* \"#utility.yul\":12051:12147   */\n    tag_256:\n        /* \"#utility.yul\":12088:12095   */\n      0x00\n        /* \"#utility.yul\":12117:12141   */\n      tag_336\n        /* \"#utility.yul\":12135:12140   */\n      dup3\n        /* \"#utility.yul\":12117:12141   */\n      tag_337\n      jump\t// in\n    tag_336:\n        /* \"#utility.yul\":12106:12141   */\n      swap1\n      pop\n        /* \"#utility.yul\":12096:12147   */\n      swap2\n      swap1\n      pop\n      jump\t// out\n        /* \"#utility.yul\":12153:12243   */\n    tag_260:\n        /* \"#utility.yul\":12187:12194   */\n      0x00\n        /* \"#utility.yul\":12230:12235   */\n      dup2\n        /* \"#utility.yul\":12223:12236   */\n      iszero\n        /* \"#utility.yul\":12216:12237   */\n      iszero\n        /* \"#utility.yul\":12205:12237   */\n      swap1\n      pop\n        /* \"#utility.yul\":12195:12243   */\n      swap2\n      swap1\n      pop\n      jump\t// out\n        /* \"#utility.yul\":12249:12326   */\n    tag_264:\n        /* \"#utility.yul\":12286:12293   */\n      0x00\n        /* \"#utility.yul\":12315:12320   */\n      dup2\n        /* \"#utility.yul\":12304:12320   */\n      swap1\n      pop\n        /* \"#utility.yul\":12294:12326   */\n      swap2\n      swap1\n      pop\n      jump\t// out\n        /* \"#utility.yul\":12332:12458   */\n    tag_337:\n        /* \"#utility.yul\":12369:12376   */\n      0x00\n        /* \"#utility.yul\":12409:12451   */\n      0xffffffffffffffffffffffffffffffffffffffff\n        /* \"#utility.yul\":12402:12407   */\n      dup3\n        /* \"#utility.yul\":12398:12452   */\n      and\n        /* \"#utility.yul\":12387:12452   */\n      swap1\n      pop\n        /* \"#utility.yul\":12377:12458   */\n      swap2\n      swap1\n      pop\n      jump\t// out\n        /* \"#utility.yul\":12464:12541   */\n    tag_297:\n        /* \"#utility.yul\":12501:12508   */\n      0x00\n        /* \"#utility.yul\":12530:12535   */\n      dup2\n        /* \"#utility.yul\":12519:12535   */\n      swap1\n      pop\n        /* \"#utility.yul\":12509:12541   */\n      swap2\n      swap1\n      pop\n      jump\t// out\n        /* \"#utility.yul\":12547:12701   */\n    tag_185:\n        /* \"#utility.yul\":12631:12637   */\n      dup3\n        /* \"#utility.yul\":12626:12629   */\n      dup2\n        /* \"#utility.yul\":12621:12624   */\n      dup4\n        /* \"#utility.yul\":12608:12638   */\n      calldatacopy\n        /* \"#utility.yul\":12693:12694   */\n      0x00\n        /* \"#utility.yul\":12684:12690   */\n      dup4\n        /* \"#utility.yul\":12679:12682   */\n      dup4\n        /* \"#utility.yul\":12675:12691   */\n      add\n        /* \"#utility.yul\":12668:12695   */\n      mstore\n        /* \"#utility.yul\":12598:12701   */\n      pop\n      pop\n      pop\n      jump\t// out\n        /* \"#utility.yul\":12707:13014   */\n    tag_277:\n        /* \"#utility.yul\":12775:12776   */\n      0x00\n        /* \"#utility.yul\":12785:12898   */\n    tag_344:\n        /* \"#utility.yul\":12799:12805   */\n      dup4\n        /* \"#utility.yul\":12796:12797   */\n      dup2\n        /* \"#utility.yul\":12793:12806   */\n      lt\n        /* \"#utility.yul\":12785:12898   */\n      iszero\n      tag_346\n      jumpi\n        /* \"#utility.yul\":12884:12885   */\n      dup1\n        /* \"#utility.yul\":12879:12882   */\n      dup3\n        /* \"#utility.yul\":12875:12886   */\n      add\n        /* \"#utility.yul\":12869:12887   */\n      mload\n        /* \"#utility.yul\":12865:12866   */\n      dup2\n        /* \"#utility.yul\":12860:12863   */\n      dup5\n        /* \"#utility.yul\":12856:12867   */\n      add\n        /* \"#utility.yul\":12849:12888   */\n      mstore\n        /* \"#utility.yul\":12821:12823   */\n      0x20\n        /* \"#utility.yul\":12818:12819   */\n      dup2\n        /* \"#utility.yul\":12814:12824   */\n      add\n        /* \"#utility.yul\":12809:12824   */\n      swap1\n      pop\n        /* \"#utility.yul\":12785:12898   */\n      jump(tag_344)\n    tag_346:\n        /* \"#utility.yul\":12916:12922   */\n      dup4\n        /* \"#utility.yul\":12913:12914   */\n      dup2\n        /* \"#utility.yul\":12910:12923   */\n      gt\n        /* \"#utility.yul\":12907:12909   */\n      iszero\n      tag_347\n      jumpi\n        /* \"#utility.yul\":12996:12997   */\n      0x00\n        /* \"#utility.yul\":12987:12993   */\n      dup5\n        /* \"#utility.yul\":12982:12985   */\n      dup5\n        /* \"#utility.yul\":12978:12994   */\n      add\n        /* \"#utility.yul\":12971:12998   */\n      mstore\n        /* \"#utility.yul\":12907:12909   */\n    tag_347:\n        /* \"#utility.yul\":12756:13014   */\n      pop\n      pop\n      pop\n      pop\n      jump\t// out\n        /* \"#utility.yul\":13020:13301   */\n    tag_326:\n        /* \"#utility.yul\":13103:13130   */\n      tag_349\n        /* \"#utility.yul\":13125:13129   */\n      dup3\n        /* \"#utility.yul\":13103:13130   */\n      tag_279\n      jump\t// in\n    tag_349:\n        /* \"#utility.yul\":13095:13101   */\n      dup2\n        /* \"#utility.yul\":13091:13131   */\n      add\n        /* \"#utility.yul\":13233:13239   */\n      dup2\n        /* \"#utility.yul\":13221:13231   */\n      dup2\n        /* \"#utility.yul\":13218:13240   */\n      lt\n        /* \"#utility.yul\":13197:13215   */\n      0xffffffffffffffff\n        /* \"#utility.yul\":13185:13195   */\n      dup3\n        /* \"#utility.yul\":13182:13216   */\n      gt\n        /* \"#utility.yul\":13179:13241   */\n      or\n        /* \"#utility.yul\":13176:13178   */\n      iszero\n      tag_350\n      jumpi\n        /* \"#utility.yul\":13244:13262   */\n      tag_351\n      tag_331\n      jump\t// in\n    tag_351:\n        /* \"#utility.yul\":13176:13178   */\n    tag_350:\n        /* \"#utility.yul\":13284:13294   */\n      dup1\n        /* \"#utility.yul\":13280:13282   */\n      0x40\n        /* \"#utility.yul\":13273:13295   */\n      mstore\n        /* \"#utility.yul\":13063:13301   */\n      pop\n      pop\n      pop\n      jump\t// out\n        /* \"#utility.yul\":13307:13540   */\n    tag_174:\n        /* \"#utility.yul\":13346:13349   */\n      0x00\n        /* \"#utility.yul\":13369:13393   */\n      tag_353\n        /* \"#utility.yul\":13387:13392   */\n      dup3\n        /* \"#utility.yul\":13369:13393   */\n      tag_297\n      jump\t// in\n    tag_353:\n        /* \"#utility.yul\":13360:13393   */\n      swap2\n      pop\n        /* \"#utility.yul\":13415:13481   */\n      0xffffffffffffffffffffffffffffffffffffffffffffffffffffffffffffffff\n        /* \"#utility.yul\":13408:13413   */\n      dup3\n        /* \"#utility.yul\":13405:13482   */\n      eq\n        /* \"#utility.yul\":13402:13404   */\n      iszero\n      tag_354\n      jumpi\n        /* \"#utility.yul\":13485:13503   */\n      tag_355\n      tag_356\n      jump\t// in\n    tag_355:\n        /* \"#utility.yul\":13402:13404   */\n    tag_354:\n        /* \"#utility.yul\":13532:13533   */\n      0x01\n        /* \"#utility.yul\":13525:13530   */\n      dup3\n        /* \"#utility.yul\":13521:13534   */\n      add\n        /* \"#utility.yul\":13514:13534   */\n      swap1\n      pop\n        /* \"#utility.yul\":13350:13540   */\n      swap2\n      swap1\n      pop\n      jump\t// out\n        /* \"#utility.yul\":13546:13625   */\n    tag_269:\n        /* \"#utility.yul\":13585:13592   */\n      0x00\n        /* \"#utility.yul\":13614:13619   */\n      dup2\n        /* \"#utility.yul\":13603:13619   */\n      swap1\n      pop\n        /* \"#utility.yul\":13593:13625   */\n      swap2\n      swap1\n      pop\n      jump\t// out\n        /* \"#utility.yul\":13631:13811   */\n    tag_356:\n        /* \"#utility.yul\":13679:13756   */\n      0x4e487b7100000000000000000000000000000000000000000000000000000000\n        /* \"#utility.yul\":13676:13677   */\n      0x00\n        /* \"#utility.yul\":13669:13757   */\n      mstore\n        /* \"#utility.yul\":13776:13780   */\n      0x11\n        /* \"#utility.yul\":13773:13774   */\n      0x04\n        /* \"#utility.yul\":13766:13781   */\n      mstore\n        /* \"#utility.yul\":13800:13804   */\n      0x24\n        /* \"#utility.yul\":13797:13798   */\n      0x00\n        /* \"#utility.yul\":13790:13805   */\n      revert\n        /* \"#utility.yul\":13817:13997   */\n    tag_331:\n        /* \"#utility.yul\":13865:13942   */\n      0x4e487b7100000000000000000000000000000000000000000000000000000000\n        /* \"#utility.yul\":13862:13863   */\n      0x00\n        /* \"#utility.yul\":13855:13943   */\n      mstore\n        /* \"#utility.yul\":13962:13966   */\n      0x41\n        /* \"#utility.yul\":13959:13960   */\n      0x04\n        /* \"#utility.yul\":13952:13967   */\n      mstore\n        /* \"#utility.yul\":13986:13990   */\n      0x24\n        /* \"#utility.yul\":13983:13984   */\n      0x00\n        /* \"#utility.yul\":13976:13991   */\n      revert\n        /* \"#utility.yul\":14003:14105   */\n    tag_279:\n        /* \"#utility.yul\":14044:14050   */\n      0x00\n        /* \"#utility.yul\":14095:14097   */\n      0x1f\n        /* \"#utility.yul\":14091:14098   */\n      not\n        /* \"#utility.yul\":14086:14088   */\n      0x1f\n        /* \"#utility.yul\":14079:14084   */\n      dup4\n        /* \"#utility.yul\":14075:14089   */\n      add\n        /* \"#utility.yul\":14071:14099   */\n      and\n        /* \"#utility.yul\":14061:14099   */\n      swap1\n      pop\n        /* \"#utility.yul\":14051:14105   */\n      swap2\n      swap1\n      pop\n      jump\t// out\n        /* \"#utility.yul\":14111:14336   */\n    tag_284:\n        /* \"#utility.yul\":14251:14285   */\n      0x4f776e61626c653a206e6577206f776e657220697320746865207a65726f2061\n        /* \"#utility.yul\":14247:14248   */\n      0x00\n        /* \"#utility.yul\":14239:14245   */\n      dup3\n        /* \"#utility.yul\":14235:14249   */\n      add\n        /* \"#utility.yul\":14228:14286   */\n      mstore\n        /* \"#utility.yul\":14320:14328   */\n      0x6464726573730000000000000000000000000000000000000000000000000000\n        /* \"#utility.yul\":14315:14317   */\n      0x20\n        /* \"#utility.yul\":14307:14313   */\n      dup3\n        /* \"#utility.yul\":14303:14318   */\n      add\n        /* \"#utility.yul\":14296:14329   */\n      mstore\n        /* \"#utility.yul\":14217:14336   */\n      pop\n      jump\t// out\n        /* \"#utility.yul\":14342:14524   */\n    tag_289:\n        /* \"#utility.yul\":14482:14516   */\n      0x4f776e61626c653a2063616c6c6572206973206e6f7420746865206f776e6572\n        /* \"#utility.yul\":14478:14479   */\n      0x00\n        /* \"#utility.yul\":14470:14476   */\n      dup3\n        /* \"#utility.yul\":14466:14480   */\n      add\n        /* \"#utility.yul\":14459:14517   */\n      mstore\n        /* \"#utility.yul\":14448:14524   */\n      pop\n      jump\t// out\n        /* \"#utility.yul\":14530:14652   */\n    tag_189:\n        /* \"#utility.yul\":14603:14627   */\n      tag_364\n        /* \"#utility.yul\":14621:14626   */\n      dup2\n        /* \"#utility.yul\":14603:14627   */\n      tag_256\n      jump\t// in\n    tag_364:\n        /* \"#utility.yul\":14596:14601   */\n      dup2\n        /* \"#utility.yul\":14593:14628   */\n      eq\n        /* \"#utility.yul\":14583:14585   */\n      tag_365\n      jumpi\n        /* \"#utility.yul\":14642:14643   */\n      0x00\n        /* \"#utility.yul\":14639:14640   */\n      dup1\n        /* \"#utility.yul\":14632:14644   */\n      revert\n        /* \"#utility.yul\":14583:14585   */\n    tag_365:\n        /* \"#utility.yul\":14573:14652   */\n      pop\n      jump\t// out\n        /* \"#utility.yul\":14658:14774   */\n    tag_203:\n        /* \"#utility.yul\":14728:14749   */\n      tag_367\n        /* \"#utility.yul\":14743:14748   */\n      dup2\n        /* \"#utility.yul\":14728:14749   */\n      tag_260\n      jump\t// in\n    tag_367:\n        /* \"#utility.yul\":14721:14726   */\n      dup2\n        /* \"#utility.yul\":14718:14750   */\n      eq\n        /* \"#utility.yul\":14708:14710   */\n      tag_368\n      jumpi\n        /* \"#utility.yul\":14764:14765   */\n      0x00\n        /* \"#utility.yul\":14761:14762   */\n      dup1\n        /* \"#utility.yul\":14754:14766   */\n      revert\n        /* \"#utility.yul\":14708:14710   */\n    tag_368:\n        /* \"#utility.yul\":14698:14774   */\n      pop\n      jump\t// out\n        /* \"#utility.yul\":14780:14902   */\n    tag_207:\n        /* \"#utility.yul\":14853:14877   */\n      tag_370\n        /* \"#utility.yul\":14871:14876   */\n      dup2\n        /* \"#utility.yul\":14853:14877   */\n      tag_264\n      jump\t// in\n    tag_370:\n        /* \"#utility.yul\":14846:14851   */\n      dup2\n        /* \"#utility.yul\":14843:14878   */\n      eq\n        /* \"#utility.yul\":14833:14835   */\n      tag_371\n      jumpi\n        /* \"#utility.yul\":14892:14893   */\n      0x00\n        /* \"#utility.yul\":14889:14890   */\n      dup1\n        /* \"#utility.yul\":14882:14894   */\n      revert\n        /* \"#utility.yul\":14833:14835   */\n    tag_371:\n        /* \"#utility.yul\":14823:14902   */\n      pop\n      jump\t// out\n        /* \"#utility.yul\":14908:15030   */\n    tag_215:\n        /* \"#utility.yul\":14981:15005   */\n      tag_373\n        /* \"#utility.yul\":14999:15004   */\n      dup2\n        /* \"#utility.yul\":14981:15005   */\n      tag_297\n      jump\t// in\n    tag_373:\n        /* \"#utility.yul\":14974:14979   */\n      dup2\n        /* \"#utility.yul\":14971:15006   */\n      eq\n        /* \"#utility.yul\":14961:14963   */\n      tag_374\n      jumpi\n        /* \"#utility.yul\":15020:15021   */\n      0x00\n        /* \"#utility.yul\":15017:15018   */\n      dup1\n        /* \"#utility.yul\":15010:15022   */\n      revert\n        /* \"#utility.yul\":14961:14963   */\n    tag_374:\n        /* \"#utility.yul\":14951:15030   */\n      pop\n      jump\t// out\n\n    auxdata: 0xa2646970667358221220f5ad443a0f4c04464bf85b58e84587f3765fbcf66ad5f3f9921fb1fc83cfe3d564736f6c63430008040033\n}\n",
				"bytecode": {
					"linkReferences": {},
					"object": "608060405234801561001057600080fd5b5061002d61002261003260201b60201c565b61003a60201b60201c565b6100fe565b600033905090565b60008060009054906101000a900473ffffffffffffffffffffffffffffffffffffffff169050816000806101000a81548173ffffffffffffffffffffffffffffffffffffffff021916908373ffffffffffffffffffffffffffffffffffffffff1602179055508173ffffffffffffffffffffffffffffffffffffffff168173ffffffffffffffffffffffffffffffffffffffff167f8be0079c531659141344cd1fd0a4f28419497f9722a3daafe3b4186f6b6457e060405160405180910390a35050565b61168c8061010d6000396000f3fe6080604052600436106100ec5760003560e01c8063917b8fd01161008a578063d1933ddd11610059578063d1933ddd14610312578063f097c2891461033b578063f2fde38b14610378578063fbc2cf13146103a1576100f6565b8063917b8fd014610232578063ab98a6791461026f578063ad57503514610298578063b2b72bc4146102d5576100f6565b80634783f0ef116100c65780634783f0ef1461018a5780634b3cef44146101b3578063715018a6146101f05780638da5cb5b14610207576100f6565b80630e197dc9146100fb5780631ff4bdf3146101385780633960a89214610161576100f6565b366100f657600080fd5b600080fd5b34801561010757600080fd5b50610122600480360381019061011d919061107e565b6103ca565b60405161012f91906112cf565b60405180910390f35b34801561014457600080fd5b5061015f600480360381019061015a9190610f2a565b6103f4565b005b34801561016d57600080fd5b50610188600480360381019061018391906110d0565b610507565b005b34801561019657600080fd5b506101b160048036038101906101ac9190610f53565b6105ac565b005b3480156101bf57600080fd5b506101da60048036038101906101d5919061107e565b6105fc565b6040516101e79190611284565b60405180910390f35b3480156101fc57600080fd5b5061020561063e565b005b34801561021357600080fd5b5061021c610652565b6040516102299190611284565b60405180910390f35b34801561023e57600080fd5b506102596004803603810190610254919061107e565b61067b565b604051610266919061132a565b60405180910390f35b34801561027b57600080fd5b506102966004803603810190610291919061110c565b610727565b005b3480156102a457600080fd5b506102bf60048036038101906102ba9190610f2a565b61075e565b6040516102cc919061132a565b60405180910390f35b3480156102e157600080fd5b506102fc60048036038101906102f79190610f2a565b6107d1565b6040516103099190611345565b60405180910390f35b34801561031e57600080fd5b5061033960048036038101906103349190611017565b610841565b005b34801561034757600080fd5b50610362600480360381019061035d9190610f7c565b6109ac565b60405161036f91906112cf565b60405180910390f35b34801561038457600080fd5b5061039f600480360381019061039a9190610f2a565b610a6d565b005b3480156103ad57600080fd5b506103c860048036038101906103c39190610f2a565b610af1565b005b60006004600083815260200190815260200160002060009054906101000a900460ff169050919050565b6000600360003373ffffffffffffffffffffffffffffffffffffffff1673ffffffffffffffffffffffffffffffffffffffff16815260200190815260200160002060405180604001604052908160008201548152602001600182015481525050905080600360008473ffffffffffffffffffffffffffffffffffffffff1673ffffffffffffffffffffffffffffffffffffffff168152602001908152602001600020600082015181600001556020820151816001015590505081600260008360000151815260200190815260200160002060006101000a81548173ffffffffffffffffffffffffffffffffffffffff021916908373ffffffffffffffffffffffffffffffffffffffff1602179055505050565b61050f610b3d565b806002600084815260200190815260200160002060006101000a81548173ffffffffffffffffffffffffffffffffffffffff021916908373ffffffffffffffffffffffffffffffffffffffff16021790555081600360008373ffffffffffffffffffffffffffffffffffffffff1673ffffffffffffffffffffffffffffffffffffffff168152602001908152602001600020600001819055505050565b6000600360003373ffffffffffffffffffffffffffffffffffffffff1673ffffffffffffffffffffffffffffffffffffffff16815260200190815260200160002090508181600101819055505050565b6000806002600084815260200190815260200160002060009054906101000a900473ffffffffffffffffffffffffffffffffffffffff16905080915050919050565b610646610b3d565b6106506000610bbb565b565b60008060009054906101000a900473ffffffffffffffffffffffffffffffffffffffff16905090565b610683610da8565b60006002600084815260200190815260200160002060009054906101000a900473ffffffffffffffffffffffffffffffffffffffff1690506000600360008373ffffffffffffffffffffffffffffffffffffffff1673ffffffffffffffffffffffffffffffffffffffff1681526020019081526020016000206040518060400160405290816000820154815260200160018201548152505090508092505050919050565b61072f610b3d565b806004600084815260200190815260200160002060006101000a81548160ff0219169083151502179055505050565b610766610da8565b6000600360008473ffffffffffffffffffffffffffffffffffffffff1673ffffffffffffffffffffffffffffffffffffffff16815260200190815260200160002060405180604001604052908160008201548152602001600182015481525050905080915050919050565b600080600360008473ffffffffffffffffffffffffffffffffffffffff1673ffffffffffffffffffffffffffffffffffffffff1681526020019081526020016000206040518060400160405290816000820154815260200160018201548152505090508060000151915050919050565b610849610b3d565b60003090506000600160009054906101000a900473ffffffffffffffffffffffffffffffffffffffff1673ffffffffffffffffffffffffffffffffffffffff1663cf37834383876040518363ffffffff1660e01b81526004016108ad92919061129f565b602060405180830381600087803b1580156108c757600080fd5b505af11580156108db573d6000803e3d6000fd5b505050506040513d601f19601f820116820180604052508101906108ff91906110a7565b9050600160009054906101000a900473ffffffffffffffffffffffffffffffffffffffff1673ffffffffffffffffffffffffffffffffffffffff1663e1b2e97982856040518363ffffffff1660e01b815260040161095e929190611360565b600060405180830381600087803b15801561097857600080fd5b505af115801561098c573d6000803e3d6000fd5b5050505061099b816001610727565b6109a58185610507565b5050505050565b6000806002600084815260200190815260200160002060009054906101000a900473ffffffffffffffffffffffffffffffffffffffff1690506000600360008373ffffffffffffffffffffffffffffffffffffffff1673ffffffffffffffffffffffffffffffffffffffff1681526020019081526020016000206040518060400160405290816000820154815260200160018201548152505090506000610a5b82602001518b8b8b8b8b610c7f565b90508093505050509695505050505050565b610a75610b3d565b600073ffffffffffffffffffffffffffffffffffffffff168173ffffffffffffffffffffffffffffffffffffffff161415610ae5576040517f08c379a0000000000000000000000000000000000000000000000000000000008152600401610adc906112ea565b60405180910390fd5b610aee81610bbb565b50565b610af9610b3d565b80600160006101000a81548173ffffffffffffffffffffffffffffffffffffffff021916908373ffffffffffffffffffffffffffffffffffffffff16021790555050565b610b45610da0565b73ffffffffffffffffffffffffffffffffffffffff16610b63610652565b73ffffffffffffffffffffffffffffffffffffffff1614610bb9576040517f08c379a0000000000000000000000000000000000000000000000000000000008152600401610bb09061130a565b60405180910390fd5b565b60008060009054906101000a900473ffffffffffffffffffffffffffffffffffffffff169050816000806101000a81548173ffffffffffffffffffffffffffffffffffffffff021916908373ffffffffffffffffffffffffffffffffffffffff1602179055508173ffffffffffffffffffffffffffffffffffffffff168173ffffffffffffffffffffffffffffffffffffffff167f8be0079c531659141344cd1fd0a4f28419497f9722a3daafe3b4186f6b6457e060405160405180910390a35050565b60008086905060005b86869050811015610d8f576000878783818110610cce577f4e487b7100000000000000000000000000000000000000000000000000000000600052603260045260246000fd5b9050602002013590506001868684818110610d12577f4e487b7100000000000000000000000000000000000000000000000000000000600052603260045260246000fd5b905060200201351415610d4f578281604051602001610d32929190611258565b604051602081830303815290604052805190602001209250610d7b565b8083604051602001610d62929190611258565b6040516020818303038152906040528051906020012092505b508080610d87906114c0565b915050610c88565b508781149150509695505050505050565b600033905090565b604051806040016040528060008152602001600080191681525090565b6000610dd8610dd3846113ae565b611389565b905082815260208101848484011115610df057600080fd5b610dfb84828561144d565b509392505050565b600081359050610e12816115fa565b92915050565b60008083601f840112610e2a57600080fd5b8235905067ffffffffffffffff811115610e4357600080fd5b602083019150836020820283011115610e5b57600080fd5b9250929050565b60008083601f840112610e7457600080fd5b8235905067ffffffffffffffff811115610e8d57600080fd5b602083019150836020820283011115610ea557600080fd5b9250929050565b600081359050610ebb81611611565b92915050565b600081359050610ed081611628565b92915050565b600082601f830112610ee757600080fd5b8135610ef7848260208601610dc5565b91505092915050565b600081359050610f0f8161163f565b92915050565b600081519050610f248161163f565b92915050565b600060208284031215610f3c57600080fd5b6000610f4a84828501610e03565b91505092915050565b600060208284031215610f6557600080fd5b6000610f7384828501610ec1565b91505092915050565b60008060008060008060808789031215610f9557600080fd5b6000610fa389828a01610ec1565b965050602087013567ffffffffffffffff811115610fc057600080fd5b610fcc89828a01610e18565b9550955050604087013567ffffffffffffffff811115610feb57600080fd5b610ff789828a01610e62565b9350935050606061100a89828a01610f00565b9150509295509295509295565b60008060006060848603121561102c57600080fd5b600084013567ffffffffffffffff81111561104657600080fd5b61105286828701610ed6565b935050602061106386828701610e03565b925050604061107486828701610f00565b9150509250925092565b60006020828403121561109057600080fd5b600061109e84828501610f00565b91505092915050565b6000602082840312156110b957600080fd5b60006110c784828501610f15565b91505092915050565b600080604083850312156110e357600080fd5b60006110f185828601610f00565b925050602061110285828601610e03565b9150509250929050565b6000806040838503121561111f57600080fd5b600061112d85828601610f00565b925050602061113e85828601610eac565b9150509250929050565b611151816113fb565b82525050565b6111608161140d565b82525050565b61116f81611419565b82525050565b61118661118182611419565b611509565b82525050565b6000611197826113df565b6111a181856113ea565b93506111b181856020860161145c565b6111ba81611571565b840191505092915050565b60006111d26026836113ea565b91506111dd82611582565b604082019050919050565b60006111f56020836113ea565b9150611200826115d1565b602082019050919050565b604082016000820151611221600085018261123a565b5060208201516112346020850182611166565b50505050565b61124381611443565b82525050565b61125281611443565b82525050565b60006112648285611175565b6020820191506112748284611175565b6020820191508190509392505050565b60006020820190506112996000830184611148565b92915050565b60006040820190506112b46000830185611148565b81810360208301526112c6818461118c565b90509392505050565b60006020820190506112e46000830184611157565b92915050565b60006020820190508181036000830152611303816111c5565b9050919050565b60006020820190508181036000830152611323816111e8565b9050919050565b600060408201905061133f600083018461120b565b92915050565b600060208201905061135a6000830184611249565b92915050565b60006040820190506113756000830185611249565b6113826020830184611249565b9392505050565b60006113936113a4565b905061139f828261148f565b919050565b6000604051905090565b600067ffffffffffffffff8211156113c9576113c8611542565b5b6113d282611571565b9050602081019050919050565b600081519050919050565b600082825260208201905092915050565b600061140682611423565b9050919050565b60008115159050919050565b6000819050919050565b600073ffffffffffffffffffffffffffffffffffffffff82169050919050565b6000819050919050565b82818337600083830152505050565b60005b8381101561147a57808201518184015260208101905061145f565b83811115611489576000848401525b50505050565b61149882611571565b810181811067ffffffffffffffff821117156114b7576114b6611542565b5b80604052505050565b60006114cb82611443565b91507fffffffffffffffffffffffffffffffffffffffffffffffffffffffffffffffff8214156114fe576114fd611513565b5b600182019050919050565b6000819050919050565b7f4e487b7100000000000000000000000000000000000000000000000000000000600052601160045260246000fd5b7f4e487b7100000000000000000000000000000000000000000000000000000000600052604160045260246000fd5b6000601f19601f8301169050919050565b7f4f776e61626c653a206e6577206f776e657220697320746865207a65726f206160008201527f6464726573730000000000000000000000000000000000000000000000000000602082015250565b7f4f776e61626c653a2063616c6c6572206973206e6f7420746865206f776e6572600082015250565b611603816113fb565b811461160e57600080fd5b50565b61161a8161140d565b811461162557600080fd5b50565b61163181611419565b811461163c57600080fd5b50565b61164881611443565b811461165357600080fd5b5056fea2646970667358221220f5ad443a0f4c04464bf85b58e84587f3765fbcf66ad5f3f9921fb1fc83cfe3d564736f6c63430008040033",
					"opcodes": "PUSH1 0x80 PUSH1 0x40 MSTORE CALLVALUE DUP1 ISZERO PUSH2 0x10 JUMPI PUSH1 0x0 DUP1 REVERT JUMPDEST POP PUSH2 0x2D PUSH2 0x22 PUSH2 0x32 PUSH1 0x20 SHL PUSH1 0x20 SHR JUMP JUMPDEST PUSH2 0x3A PUSH1 0x20 SHL PUSH1 0x20 SHR JUMP JUMPDEST PUSH2 0xFE JUMP JUMPDEST PUSH1 0x0 CALLER SWAP1 POP SWAP1 JUMP JUMPDEST PUSH1 0x0 DUP1 PUSH1 0x0 SWAP1 SLOAD SWAP1 PUSH2 0x100 EXP SWAP1 DIV PUSH20 0xFFFFFFFFFFFFFFFFFFFFFFFFFFFFFFFFFFFFFFFF AND SWAP1 POP DUP2 PUSH1 0x0 DUP1 PUSH2 0x100 EXP DUP2 SLOAD DUP2 PUSH20 0xFFFFFFFFFFFFFFFFFFFFFFFFFFFFFFFFFFFFFFFF MUL NOT AND SWAP1 DUP4 PUSH20 0xFFFFFFFFFFFFFFFFFFFFFFFFFFFFFFFFFFFFFFFF AND MUL OR SWAP1 SSTORE POP DUP2 PUSH20 0xFFFFFFFFFFFFFFFFFFFFFFFFFFFFFFFFFFFFFFFF AND DUP2 PUSH20 0xFFFFFFFFFFFFFFFFFFFFFFFFFFFFFFFFFFFFFFFF AND PUSH32 0x8BE0079C531659141344CD1FD0A4F28419497F9722A3DAAFE3B4186F6B6457E0 PUSH1 0x40 MLOAD PUSH1 0x40 MLOAD DUP1 SWAP2 SUB SWAP1 LOG3 POP POP JUMP JUMPDEST PUSH2 0x168C DUP1 PUSH2 0x10D PUSH1 0x0 CODECOPY PUSH1 0x0 RETURN INVALID PUSH1 0x80 PUSH1 0x40 MSTORE PUSH1 0x4 CALLDATASIZE LT PUSH2 0xEC JUMPI PUSH1 0x0 CALLDATALOAD PUSH1 0xE0 SHR DUP1 PUSH4 0x917B8FD0 GT PUSH2 0x8A JUMPI DUP1 PUSH4 0xD1933DDD GT PUSH2 0x59 JUMPI DUP1 PUSH4 0xD1933DDD EQ PUSH2 0x312 JUMPI DUP1 PUSH4 0xF097C289 EQ PUSH2 0x33B JUMPI DUP1 PUSH4 0xF2FDE38B EQ PUSH2 0x378 JUMPI DUP1 PUSH4 0xFBC2CF13 EQ PUSH2 0x3A1 JUMPI PUSH2 0xF6 JUMP JUMPDEST DUP1 PUSH4 0x917B8FD0 EQ PUSH2 0x232 JUMPI DUP1 PUSH4 0xAB98A679 EQ PUSH2 0x26F JUMPI DUP1 PUSH4 0xAD575035 EQ PUSH2 0x298 JUMPI DUP1 PUSH4 0xB2B72BC4 EQ PUSH2 0x2D5 JUMPI PUSH2 0xF6 JUMP JUMPDEST DUP1 PUSH4 0x4783F0EF GT PUSH2 0xC6 JUMPI DUP1 PUSH4 0x4783F0EF EQ PUSH2 0x18A JUMPI DUP1 PUSH4 0x4B3CEF44 EQ PUSH2 0x1B3 JUMPI DUP1 PUSH4 0x715018A6 EQ PUSH2 0x1F0 JUMPI DUP1 PUSH4 0x8DA5CB5B EQ PUSH2 0x207 JUMPI PUSH2 0xF6 JUMP JUMPDEST DUP1 PUSH4 0xE197DC9 EQ PUSH2 0xFB JUMPI DUP1 PUSH4 0x1FF4BDF3 EQ PUSH2 0x138 JUMPI DUP1 PUSH4 0x3960A892 EQ PUSH2 0x161 JUMPI PUSH2 0xF6 JUMP JUMPDEST CALLDATASIZE PUSH2 0xF6 JUMPI PUSH1 0x0 DUP1 REVERT JUMPDEST PUSH1 0x0 DUP1 REVERT JUMPDEST CALLVALUE DUP1 ISZERO PUSH2 0x107 JUMPI PUSH1 0x0 DUP1 REVERT JUMPDEST POP PUSH2 0x122 PUSH1 0x4 DUP1 CALLDATASIZE SUB DUP2 ADD SWAP1 PUSH2 0x11D SWAP2 SWAP1 PUSH2 0x107E JUMP JUMPDEST PUSH2 0x3CA JUMP JUMPDEST PUSH1 0x40 MLOAD PUSH2 0x12F SWAP2 SWAP1 PUSH2 0x12CF JUMP JUMPDEST PUSH1 0x40 MLOAD DUP1 SWAP2 SUB SWAP1 RETURN JUMPDEST CALLVALUE DUP1 ISZERO PUSH2 0x144 JUMPI PUSH1 0x0 DUP1 REVERT JUMPDEST POP PUSH2 0x15F PUSH1 0x4 DUP1 CALLDATASIZE SUB DUP2 ADD SWAP1 PUSH2 0x15A SWAP2 SWAP1 PUSH2 0xF2A JUMP JUMPDEST PUSH2 0x3F4 JUMP JUMPDEST STOP JUMPDEST CALLVALUE DUP1 ISZERO PUSH2 0x16D JUMPI PUSH1 0x0 DUP1 REVERT JUMPDEST POP PUSH2 0x188 PUSH1 0x4 DUP1 CALLDATASIZE SUB DUP2 ADD SWAP1 PUSH2 0x183 SWAP2 SWAP1 PUSH2 0x10D0 JUMP JUMPDEST PUSH2 0x507 JUMP JUMPDEST STOP JUMPDEST CALLVALUE DUP1 ISZERO PUSH2 0x196 JUMPI PUSH1 0x0 DUP1 REVERT JUMPDEST POP PUSH2 0x1B1 PUSH1 0x4 DUP1 CALLDATASIZE SUB DUP2 ADD SWAP1 PUSH2 0x1AC SWAP2 SWAP1 PUSH2 0xF53 JUMP JUMPDEST PUSH2 0x5AC JUMP JUMPDEST STOP JUMPDEST CALLVALUE DUP1 ISZERO PUSH2 0x1BF JUMPI PUSH1 0x0 DUP1 REVERT JUMPDEST POP PUSH2 0x1DA PUSH1 0x4 DUP1 CALLDATASIZE SUB DUP2 ADD SWAP1 PUSH2 0x1D5 SWAP2 SWAP1 PUSH2 0x107E JUMP JUMPDEST PUSH2 0x5FC JUMP JUMPDEST PUSH1 0x40 MLOAD PUSH2 0x1E7 SWAP2 SWAP1 PUSH2 0x1284 JUMP JUMPDEST PUSH1 0x40 MLOAD DUP1 SWAP2 SUB SWAP1 RETURN JUMPDEST CALLVALUE DUP1 ISZERO PUSH2 0x1FC JUMPI PUSH1 0x0 DUP1 REVERT JUMPDEST POP PUSH2 0x205 PUSH2 0x63E JUMP JUMPDEST STOP JUMPDEST CALLVALUE DUP1 ISZERO PUSH2 0x213 JUMPI PUSH1 0x0 DUP1 REVERT JUMPDEST POP PUSH2 0x21C PUSH2 0x652 JUMP JUMPDEST PUSH1 0x40 MLOAD PUSH2 0x229 SWAP2 SWAP1 PUSH2 0x1284 JUMP JUMPDEST PUSH1 0x40 MLOAD DUP1 SWAP2 SUB SWAP1 RETURN JUMPDEST CALLVALUE DUP1 ISZERO PUSH2 0x23E JUMPI PUSH1 0x0 DUP1 REVERT JUMPDEST POP PUSH2 0x259 PUSH1 0x4 DUP1 CALLDATASIZE SUB DUP2 ADD SWAP1 PUSH2 0x254 SWAP2 SWAP1 PUSH2 0x107E JUMP JUMPDEST PUSH2 0x67B JUMP JUMPDEST PUSH1 0x40 MLOAD PUSH2 0x266 SWAP2 SWAP1 PUSH2 0x132A JUMP JUMPDEST PUSH1 0x40 MLOAD DUP1 SWAP2 SUB SWAP1 RETURN JUMPDEST CALLVALUE DUP1 ISZERO PUSH2 0x27B JUMPI PUSH1 0x0 DUP1 REVERT JUMPDEST POP PUSH2 0x296 PUSH1 0x4 DUP1 CALLDATASIZE SUB DUP2 ADD SWAP1 PUSH2 0x291 SWAP2 SWAP1 PUSH2 0x110C JUMP JUMPDEST PUSH2 0x727 JUMP JUMPDEST STOP JUMPDEST CALLVALUE DUP1 ISZERO PUSH2 0x2A4 JUMPI PUSH1 0x0 DUP1 REVERT JUMPDEST POP PUSH2 0x2BF PUSH1 0x4 DUP1 CALLDATASIZE SUB DUP2 ADD SWAP1 PUSH2 0x2BA SWAP2 SWAP1 PUSH2 0xF2A JUMP JUMPDEST PUSH2 0x75E JUMP JUMPDEST PUSH1 0x40 MLOAD PUSH2 0x2CC SWAP2 SWAP1 PUSH2 0x132A JUMP JUMPDEST PUSH1 0x40 MLOAD DUP1 SWAP2 SUB SWAP1 RETURN JUMPDEST CALLVALUE DUP1 ISZERO PUSH2 0x2E1 JUMPI PUSH1 0x0 DUP1 REVERT JUMPDEST POP PUSH2 0x2FC PUSH1 0x4 DUP1 CALLDATASIZE SUB DUP2 ADD SWAP1 PUSH2 0x2F7 SWAP2 SWAP1 PUSH2 0xF2A JUMP JUMPDEST PUSH2 0x7D1 JUMP JUMPDEST PUSH1 0x40 MLOAD PUSH2 0x309 SWAP2 SWAP1 PUSH2 0x1345 JUMP JUMPDEST PUSH1 0x40 MLOAD DUP1 SWAP2 SUB SWAP1 RETURN JUMPDEST CALLVALUE DUP1 ISZERO PUSH2 0x31E JUMPI PUSH1 0x0 DUP1 REVERT JUMPDEST POP PUSH2 0x339 PUSH1 0x4 DUP1 CALLDATASIZE SUB DUP2 ADD SWAP1 PUSH2 0x334 SWAP2 SWAP1 PUSH2 0x1017 JUMP JUMPDEST PUSH2 0x841 JUMP JUMPDEST STOP JUMPDEST CALLVALUE DUP1 ISZERO PUSH2 0x347 JUMPI PUSH1 0x0 DUP1 REVERT JUMPDEST POP PUSH2 0x362 PUSH1 0x4 DUP1 CALLDATASIZE SUB DUP2 ADD SWAP1 PUSH2 0x35D SWAP2 SWAP1 PUSH2 0xF7C JUMP JUMPDEST PUSH2 0x9AC JUMP JUMPDEST PUSH1 0x40 MLOAD PUSH2 0x36F SWAP2 SWAP1 PUSH2 0x12CF JUMP JUMPDEST PUSH1 0x40 MLOAD DUP1 SWAP2 SUB SWAP1 RETURN JUMPDEST CALLVALUE DUP1 ISZERO PUSH2 0x384 JUMPI PUSH1 0x0 DUP1 REVERT JUMPDEST POP PUSH2 0x39F PUSH1 0x4 DUP1 CALLDATASIZE SUB DUP2 ADD SWAP1 PUSH2 0x39A SWAP2 SWAP1 PUSH2 0xF2A JUMP JUMPDEST PUSH2 0xA6D JUMP JUMPDEST STOP JUMPDEST CALLVALUE DUP1 ISZERO PUSH2 0x3AD JUMPI PUSH1 0x0 DUP1 REVERT JUMPDEST POP PUSH2 0x3C8 PUSH1 0x4 DUP1 CALLDATASIZE SUB DUP2 ADD SWAP1 PUSH2 0x3C3 SWAP2 SWAP1 PUSH2 0xF2A JUMP JUMPDEST PUSH2 0xAF1 JUMP JUMPDEST STOP JUMPDEST PUSH1 0x0 PUSH1 0x4 PUSH1 0x0 DUP4 DUP2 MSTORE PUSH1 0x20 ADD SWAP1 DUP2 MSTORE PUSH1 0x20 ADD PUSH1 0x0 KECCAK256 PUSH1 0x0 SWAP1 SLOAD SWAP1 PUSH2 0x100 EXP SWAP1 DIV PUSH1 0xFF AND SWAP1 POP SWAP2 SWAP1 POP JUMP JUMPDEST PUSH1 0x0 PUSH1 0x3 PUSH1 0x0 CALLER PUSH20 0xFFFFFFFFFFFFFFFFFFFFFFFFFFFFFFFFFFFFFFFF AND PUSH20 0xFFFFFFFFFFFFFFFFFFFFFFFFFFFFFFFFFFFFFFFF AND DUP2 MSTORE PUSH1 0x20 ADD SWAP1 DUP2 MSTORE PUSH1 0x20 ADD PUSH1 0x0 KECCAK256 PUSH1 0x40 MLOAD DUP1 PUSH1 0x40 ADD PUSH1 0x40 MSTORE SWAP1 DUP2 PUSH1 0x0 DUP3 ADD SLOAD DUP2 MSTORE PUSH1 0x20 ADD PUSH1 0x1 DUP3 ADD SLOAD DUP2 MSTORE POP POP SWAP1 POP DUP1 PUSH1 0x3 PUSH1 0x0 DUP5 PUSH20 0xFFFFFFFFFFFFFFFFFFFFFFFFFFFFFFFFFFFFFFFF AND PUSH20 0xFFFFFFFFFFFFFFFFFFFFFFFFFFFFFFFFFFFFFFFF AND DUP2 MSTORE PUSH1 0x20 ADD SWAP1 DUP2 MSTORE PUSH1 0x20 ADD PUSH1 0x0 KECCAK256 PUSH1 0x0 DUP3 ADD MLOAD DUP2 PUSH1 0x0 ADD SSTORE PUSH1 0x20 DUP3 ADD MLOAD DUP2 PUSH1 0x1 ADD SSTORE SWAP1 POP POP DUP2 PUSH1 0x2 PUSH1 0x0 DUP4 PUSH1 0x0 ADD MLOAD DUP2 MSTORE PUSH1 0x20 ADD SWAP1 DUP2 MSTORE PUSH1 0x20 ADD PUSH1 0x0 KECCAK256 PUSH1 0x0 PUSH2 0x100 EXP DUP2 SLOAD DUP2 PUSH20 0xFFFFFFFFFFFFFFFFFFFFFFFFFFFFFFFFFFFFFFFF MUL NOT AND SWAP1 DUP4 PUSH20 0xFFFFFFFFFFFFFFFFFFFFFFFFFFFFFFFFFFFFFFFF AND MUL OR SWAP1 SSTORE POP POP POP JUMP JUMPDEST PUSH2 0x50F PUSH2 0xB3D JUMP JUMPDEST DUP1 PUSH1 0x2 PUSH1 0x0 DUP5 DUP2 MSTORE PUSH1 0x20 ADD SWAP1 DUP2 MSTORE PUSH1 0x20 ADD PUSH1 0x0 KECCAK256 PUSH1 0x0 PUSH2 0x100 EXP DUP2 SLOAD DUP2 PUSH20 0xFFFFFFFFFFFFFFFFFFFFFFFFFFFFFFFFFFFFFFFF MUL NOT AND SWAP1 DUP4 PUSH20 0xFFFFFFFFFFFFFFFFFFFFFFFFFFFFFFFFFFFFFFFF AND MUL OR SWAP1 SSTORE POP DUP2 PUSH1 0x3 PUSH1 0x0 DUP4 PUSH20 0xFFFFFFFFFFFFFFFFFFFFFFFFFFFFFFFFFFFFFFFF AND PUSH20 0xFFFFFFFFFFFFFFFFFFFFFFFFFFFFFFFFFFFFFFFF AND DUP2 MSTORE PUSH1 0x20 ADD SWAP1 DUP2 MSTORE PUSH1 0x20 ADD PUSH1 0x0 KECCAK256 PUSH1 0x0 ADD DUP2 SWAP1 SSTORE POP POP POP JUMP JUMPDEST PUSH1 0x0 PUSH1 0x3 PUSH1 0x0 CALLER PUSH20 0xFFFFFFFFFFFFFFFFFFFFFFFFFFFFFFFFFFFFFFFF AND PUSH20 0xFFFFFFFFFFFFFFFFFFFFFFFFFFFFFFFFFFFFFFFF AND DUP2 MSTORE PUSH1 0x20 ADD SWAP1 DUP2 MSTORE PUSH1 0x20 ADD PUSH1 0x0 KECCAK256 SWAP1 POP DUP2 DUP2 PUSH1 0x1 ADD DUP2 SWAP1 SSTORE POP POP POP JUMP JUMPDEST PUSH1 0x0 DUP1 PUSH1 0x2 PUSH1 0x0 DUP5 DUP2 MSTORE PUSH1 0x20 ADD SWAP1 DUP2 MSTORE PUSH1 0x20 ADD PUSH1 0x0 KECCAK256 PUSH1 0x0 SWAP1 SLOAD SWAP1 PUSH2 0x100 EXP SWAP1 DIV PUSH20 0xFFFFFFFFFFFFFFFFFFFFFFFFFFFFFFFFFFFFFFFF AND SWAP1 POP DUP1 SWAP2 POP POP SWAP2 SWAP1 POP JUMP JUMPDEST PUSH2 0x646 PUSH2 0xB3D JUMP JUMPDEST PUSH2 0x650 PUSH1 0x0 PUSH2 0xBBB JUMP JUMPDEST JUMP JUMPDEST PUSH1 0x0 DUP1 PUSH1 0x0 SWAP1 SLOAD SWAP1 PUSH2 0x100 EXP SWAP1 DIV PUSH20 0xFFFFFFFFFFFFFFFFFFFFFFFFFFFFFFFFFFFFFFFF AND SWAP1 POP SWAP1 JUMP JUMPDEST PUSH2 0x683 PUSH2 0xDA8 JUMP JUMPDEST PUSH1 0x0 PUSH1 0x2 PUSH1 0x0 DUP5 DUP2 MSTORE PUSH1 0x20 ADD SWAP1 DUP2 MSTORE PUSH1 0x20 ADD PUSH1 0x0 KECCAK256 PUSH1 0x0 SWAP1 SLOAD SWAP1 PUSH2 0x100 EXP SWAP1 DIV PUSH20 0xFFFFFFFFFFFFFFFFFFFFFFFFFFFFFFFFFFFFFFFF AND SWAP1 POP PUSH1 0x0 PUSH1 0x3 PUSH1 0x0 DUP4 PUSH20 0xFFFFFFFFFFFFFFFFFFFFFFFFFFFFFFFFFFFFFFFF AND PUSH20 0xFFFFFFFFFFFFFFFFFFFFFFFFFFFFFFFFFFFFFFFF AND DUP2 MSTORE PUSH1 0x20 ADD SWAP1 DUP2 MSTORE PUSH1 0x20 ADD PUSH1 0x0 KECCAK256 PUSH1 0x40 MLOAD DUP1 PUSH1 0x40 ADD PUSH1 0x40 MSTORE SWAP1 DUP2 PUSH1 0x0 DUP3 ADD SLOAD DUP2 MSTORE PUSH1 0x20 ADD PUSH1 0x1 DUP3 ADD SLOAD DUP2 MSTORE POP POP SWAP1 POP DUP1 SWAP3 POP POP POP SWAP2 SWAP1 POP JUMP JUMPDEST PUSH2 0x72F PUSH2 0xB3D JUMP JUMPDEST DUP1 PUSH1 0x4 PUSH1 0x0 DUP5 DUP2 MSTORE PUSH1 0x20 ADD SWAP1 DUP2 MSTORE PUSH1 0x20 ADD PUSH1 0x0 KECCAK256 PUSH1 0x0 PUSH2 0x100 EXP DUP2 SLOAD DUP2 PUSH1 0xFF MUL NOT AND SWAP1 DUP4 ISZERO ISZERO MUL OR SWAP1 SSTORE POP POP POP JUMP JUMPDEST PUSH2 0x766 PUSH2 0xDA8 JUMP JUMPDEST PUSH1 0x0 PUSH1 0x3 PUSH1 0x0 DUP5 PUSH20 0xFFFFFFFFFFFFFFFFFFFFFFFFFFFFFFFFFFFFFFFF AND PUSH20 0xFFFFFFFFFFFFFFFFFFFFFFFFFFFFFFFFFFFFFFFF AND DUP2 MSTORE PUSH1 0x20 ADD SWAP1 DUP2 MSTORE PUSH1 0x20 ADD PUSH1 0x0 KECCAK256 PUSH1 0x40 MLOAD DUP1 PUSH1 0x40 ADD PUSH1 0x40 MSTORE SWAP1 DUP2 PUSH1 0x0 DUP3 ADD SLOAD DUP2 MSTORE PUSH1 0x20 ADD PUSH1 0x1 DUP3 ADD SLOAD DUP2 MSTORE POP POP SWAP1 POP DUP1 SWAP2 POP POP SWAP2 SWAP1 POP JUMP JUMPDEST PUSH1 0x0 DUP1 PUSH1 0x3 PUSH1 0x0 DUP5 PUSH20 0xFFFFFFFFFFFFFFFFFFFFFFFFFFFFFFFFFFFFFFFF AND PUSH20 0xFFFFFFFFFFFFFFFFFFFFFFFFFFFFFFFFFFFFFFFF AND DUP2 MSTORE PUSH1 0x20 ADD SWAP1 DUP2 MSTORE PUSH1 0x20 ADD PUSH1 0x0 KECCAK256 PUSH1 0x40 MLOAD DUP1 PUSH1 0x40 ADD PUSH1 0x40 MSTORE SWAP1 DUP2 PUSH1 0x0 DUP3 ADD SLOAD DUP2 MSTORE PUSH1 0x20 ADD PUSH1 0x1 DUP3 ADD SLOAD DUP2 MSTORE POP POP SWAP1 POP DUP1 PUSH1 0x0 ADD MLOAD SWAP2 POP POP SWAP2 SWAP1 POP JUMP JUMPDEST PUSH2 0x849 PUSH2 0xB3D JUMP JUMPDEST PUSH1 0x0 ADDRESS SWAP1 POP PUSH1 0x0 PUSH1 0x1 PUSH1 0x0 SWAP1 SLOAD SWAP1 PUSH2 0x100 EXP SWAP1 DIV PUSH20 0xFFFFFFFFFFFFFFFFFFFFFFFFFFFFFFFFFFFFFFFF AND PUSH20 0xFFFFFFFFFFFFFFFFFFFFFFFFFFFFFFFFFFFFFFFF AND PUSH4 0xCF378343 DUP4 DUP8 PUSH1 0x40 MLOAD DUP4 PUSH4 0xFFFFFFFF AND PUSH1 0xE0 SHL DUP2 MSTORE PUSH1 0x4 ADD PUSH2 0x8AD SWAP3 SWAP2 SWAP1 PUSH2 0x129F JUMP JUMPDEST PUSH1 0x20 PUSH1 0x40 MLOAD DUP1 DUP4 SUB DUP2 PUSH1 0x0 DUP8 DUP1 EXTCODESIZE ISZERO DUP1 ISZERO PUSH2 0x8C7 JUMPI PUSH1 0x0 DUP1 REVERT JUMPDEST POP GAS CALL ISZERO DUP1 ISZERO PUSH2 0x8DB JUMPI RETURNDATASIZE PUSH1 0x0 DUP1 RETURNDATACOPY RETURNDATASIZE PUSH1 0x0 REVERT JUMPDEST POP POP POP POP PUSH1 0x40 MLOAD RETURNDATASIZE PUSH1 0x1F NOT PUSH1 0x1F DUP3 ADD AND DUP3 ADD DUP1 PUSH1 0x40 MSTORE POP DUP2 ADD SWAP1 PUSH2 0x8FF SWAP2 SWAP1 PUSH2 0x10A7 JUMP JUMPDEST SWAP1 POP PUSH1 0x1 PUSH1 0x0 SWAP1 SLOAD SWAP1 PUSH2 0x100 EXP SWAP1 DIV PUSH20 0xFFFFFFFFFFFFFFFFFFFFFFFFFFFFFFFFFFFFFFFF AND PUSH20 0xFFFFFFFFFFFFFFFFFFFFFFFFFFFFFFFFFFFFFFFF AND PUSH4 0xE1B2E979 DUP3 DUP6 PUSH1 0x40 MLOAD DUP4 PUSH4 0xFFFFFFFF AND PUSH1 0xE0 SHL DUP2 MSTORE PUSH1 0x4 ADD PUSH2 0x95E SWAP3 SWAP2 SWAP1 PUSH2 0x1360 JUMP JUMPDEST PUSH1 0x0 PUSH1 0x40 MLOAD DUP1 DUP4 SUB DUP2 PUSH1 0x0 DUP8 DUP1 EXTCODESIZE ISZERO DUP1 ISZERO PUSH2 0x978 JUMPI PUSH1 0x0 DUP1 REVERT JUMPDEST POP GAS CALL ISZERO DUP1 ISZERO PUSH2 0x98C JUMPI RETURNDATASIZE PUSH1 0x0 DUP1 RETURNDATACOPY RETURNDATASIZE PUSH1 0x0 REVERT JUMPDEST POP POP POP POP PUSH2 0x99B DUP2 PUSH1 0x1 PUSH2 0x727 JUMP JUMPDEST PUSH2 0x9A5 DUP2 DUP6 PUSH2 0x507 JUMP JUMPDEST POP POP POP POP POP JUMP JUMPDEST PUSH1 0x0 DUP1 PUSH1 0x2 PUSH1 0x0 DUP5 DUP2 MSTORE PUSH1 0x20 ADD SWAP1 DUP2 MSTORE PUSH1 0x20 ADD PUSH1 0x0 KECCAK256 PUSH1 0x0 SWAP1 SLOAD SWAP1 PUSH2 0x100 EXP SWAP1 DIV PUSH20 0xFFFFFFFFFFFFFFFFFFFFFFFFFFFFFFFFFFFFFFFF AND SWAP1 POP PUSH1 0x0 PUSH1 0x3 PUSH1 0x0 DUP4 PUSH20 0xFFFFFFFFFFFFFFFFFFFFFFFFFFFFFFFFFFFFFFFF AND PUSH20 0xFFFFFFFFFFFFFFFFFFFFFFFFFFFFFFFFFFFFFFFF AND DUP2 MSTORE PUSH1 0x20 ADD SWAP1 DUP2 MSTORE PUSH1 0x20 ADD PUSH1 0x0 KECCAK256 PUSH1 0x40 MLOAD DUP1 PUSH1 0x40 ADD PUSH1 0x40 MSTORE SWAP1 DUP2 PUSH1 0x0 DUP3 ADD SLOAD DUP2 MSTORE PUSH1 0x20 ADD PUSH1 0x1 DUP3 ADD SLOAD DUP2 MSTORE POP POP SWAP1 POP PUSH1 0x0 PUSH2 0xA5B DUP3 PUSH1 0x20 ADD MLOAD DUP12 DUP12 DUP12 DUP12 DUP12 PUSH2 0xC7F JUMP JUMPDEST SWAP1 POP DUP1 SWAP4 POP POP POP POP SWAP7 SWAP6 POP POP POP POP POP POP JUMP JUMPDEST PUSH2 0xA75 PUSH2 0xB3D JUMP JUMPDEST PUSH1 0x0 PUSH20 0xFFFFFFFFFFFFFFFFFFFFFFFFFFFFFFFFFFFFFFFF AND DUP2 PUSH20 0xFFFFFFFFFFFFFFFFFFFFFFFFFFFFFFFFFFFFFFFF AND EQ ISZERO PUSH2 0xAE5 JUMPI PUSH1 0x40 MLOAD PUSH32 0x8C379A000000000000000000000000000000000000000000000000000000000 DUP2 MSTORE PUSH1 0x4 ADD PUSH2 0xADC SWAP1 PUSH2 0x12EA JUMP JUMPDEST PUSH1 0x40 MLOAD DUP1 SWAP2 SUB SWAP1 REVERT JUMPDEST PUSH2 0xAEE DUP2 PUSH2 0xBBB JUMP JUMPDEST POP JUMP JUMPDEST PUSH2 0xAF9 PUSH2 0xB3D JUMP JUMPDEST DUP1 PUSH1 0x1 PUSH1 0x0 PUSH2 0x100 EXP DUP2 SLOAD DUP2 PUSH20 0xFFFFFFFFFFFFFFFFFFFFFFFFFFFFFFFFFFFFFFFF MUL NOT AND SWAP1 DUP4 PUSH20 0xFFFFFFFFFFFFFFFFFFFFFFFFFFFFFFFFFFFFFFFF AND MUL OR SWAP1 SSTORE POP POP JUMP JUMPDEST PUSH2 0xB45 PUSH2 0xDA0 JUMP JUMPDEST PUSH20 0xFFFFFFFFFFFFFFFFFFFFFFFFFFFFFFFFFFFFFFFF AND PUSH2 0xB63 PUSH2 0x652 JUMP JUMPDEST PUSH20 0xFFFFFFFFFFFFFFFFFFFFFFFFFFFFFFFFFFFFFFFF AND EQ PUSH2 0xBB9 JUMPI PUSH1 0x40 MLOAD PUSH32 0x8C379A000000000000000000000000000000000000000000000000000000000 DUP2 MSTORE PUSH1 0x4 ADD PUSH2 0xBB0 SWAP1 PUSH2 0x130A JUMP JUMPDEST PUSH1 0x40 MLOAD DUP1 SWAP2 SUB SWAP1 REVERT JUMPDEST JUMP JUMPDEST PUSH1 0x0 DUP1 PUSH1 0x0 SWAP1 SLOAD SWAP1 PUSH2 0x100 EXP SWAP1 DIV PUSH20 0xFFFFFFFFFFFFFFFFFFFFFFFFFFFFFFFFFFFFFFFF AND SWAP1 POP DUP2 PUSH1 0x0 DUP1 PUSH2 0x100 EXP DUP2 SLOAD DUP2 PUSH20 0xFFFFFFFFFFFFFFFFFFFFFFFFFFFFFFFFFFFFFFFF MUL NOT AND SWAP1 DUP4 PUSH20 0xFFFFFFFFFFFFFFFFFFFFFFFFFFFFFFFFFFFFFFFF AND MUL OR SWAP1 SSTORE POP DUP2 PUSH20 0xFFFFFFFFFFFFFFFFFFFFFFFFFFFFFFFFFFFFFFFF AND DUP2 PUSH20 0xFFFFFFFFFFFFFFFFFFFFFFFFFFFFFFFFFFFFFFFF AND PUSH32 0x8BE0079C531659141344CD1FD0A4F28419497F9722A3DAAFE3B4186F6B6457E0 PUSH1 0x40 MLOAD PUSH1 0x40 MLOAD DUP1 SWAP2 SUB SWAP1 LOG3 POP POP JUMP JUMPDEST PUSH1 0x0 DUP1 DUP7 SWAP1 POP PUSH1 0x0 JUMPDEST DUP7 DUP7 SWAP1 POP DUP2 LT ISZERO PUSH2 0xD8F JUMPI PUSH1 0x0 DUP8 DUP8 DUP4 DUP2 DUP2 LT PUSH2 0xCCE JUMPI PUSH32 0x4E487B7100000000000000000000000000000000000000000000000000000000 PUSH1 0x0 MSTORE PUSH1 0x32 PUSH1 0x4 MSTORE PUSH1 0x24 PUSH1 0x0 REVERT JUMPDEST SWAP1 POP PUSH1 0x20 MUL ADD CALLDATALOAD SWAP1 POP PUSH1 0x1 DUP7 DUP7 DUP5 DUP2 DUP2 LT PUSH2 0xD12 JUMPI PUSH32 0x4E487B7100000000000000000000000000000000000000000000000000000000 PUSH1 0x0 MSTORE PUSH1 0x32 PUSH1 0x4 MSTORE PUSH1 0x24 PUSH1 0x0 REVERT JUMPDEST SWAP1 POP PUSH1 0x20 MUL ADD CALLDATALOAD EQ ISZERO PUSH2 0xD4F JUMPI DUP3 DUP2 PUSH1 0x40 MLOAD PUSH1 0x20 ADD PUSH2 0xD32 SWAP3 SWAP2 SWAP1 PUSH2 0x1258 JUMP JUMPDEST PUSH1 0x40 MLOAD PUSH1 0x20 DUP2 DUP4 SUB SUB DUP2 MSTORE SWAP1 PUSH1 0x40 MSTORE DUP1 MLOAD SWAP1 PUSH1 0x20 ADD KECCAK256 SWAP3 POP PUSH2 0xD7B JUMP JUMPDEST DUP1 DUP4 PUSH1 0x40 MLOAD PUSH1 0x20 ADD PUSH2 0xD62 SWAP3 SWAP2 SWAP1 PUSH2 0x1258 JUMP JUMPDEST PUSH1 0x40 MLOAD PUSH1 0x20 DUP2 DUP4 SUB SUB DUP2 MSTORE SWAP1 PUSH1 0x40 MSTORE DUP1 MLOAD SWAP1 PUSH1 0x20 ADD KECCAK256 SWAP3 POP JUMPDEST POP DUP1 DUP1 PUSH2 0xD87 SWAP1 PUSH2 0x14C0 JUMP JUMPDEST SWAP2 POP POP PUSH2 0xC88 JUMP JUMPDEST POP DUP8 DUP2 EQ SWAP2 POP POP SWAP7 SWAP6 POP POP POP POP POP POP JUMP JUMPDEST PUSH1 0x0 CALLER SWAP1 POP SWAP1 JUMP JUMPDEST PUSH1 0x40 MLOAD DUP1 PUSH1 0x40 ADD PUSH1 0x40 MSTORE DUP1 PUSH1 0x0 DUP2 MSTORE PUSH1 0x20 ADD PUSH1 0x0 DUP1 NOT AND DUP2 MSTORE POP SWAP1 JUMP JUMPDEST PUSH1 0x0 PUSH2 0xDD8 PUSH2 0xDD3 DUP5 PUSH2 0x13AE JUMP JUMPDEST PUSH2 0x1389 JUMP JUMPDEST SWAP1 POP DUP3 DUP2 MSTORE PUSH1 0x20 DUP2 ADD DUP5 DUP5 DUP5 ADD GT ISZERO PUSH2 0xDF0 JUMPI PUSH1 0x0 DUP1 REVERT JUMPDEST PUSH2 0xDFB DUP5 DUP3 DUP6 PUSH2 0x144D JUMP JUMPDEST POP SWAP4 SWAP3 POP POP POP JUMP JUMPDEST PUSH1 0x0 DUP2 CALLDATALOAD SWAP1 POP PUSH2 0xE12 DUP2 PUSH2 0x15FA JUMP JUMPDEST SWAP3 SWAP2 POP POP JUMP JUMPDEST PUSH1 0x0 DUP1 DUP4 PUSH1 0x1F DUP5 ADD SLT PUSH2 0xE2A JUMPI PUSH1 0x0 DUP1 REVERT JUMPDEST DUP3 CALLDATALOAD SWAP1 POP PUSH8 0xFFFFFFFFFFFFFFFF DUP2 GT ISZERO PUSH2 0xE43 JUMPI PUSH1 0x0 DUP1 REVERT JUMPDEST PUSH1 0x20 DUP4 ADD SWAP2 POP DUP4 PUSH1 0x20 DUP3 MUL DUP4 ADD GT ISZERO PUSH2 0xE5B JUMPI PUSH1 0x0 DUP1 REVERT JUMPDEST SWAP3 POP SWAP3 SWAP1 POP JUMP JUMPDEST PUSH1 0x0 DUP1 DUP4 PUSH1 0x1F DUP5 ADD SLT PUSH2 0xE74 JUMPI PUSH1 0x0 DUP1 REVERT JUMPDEST DUP3 CALLDATALOAD SWAP1 POP PUSH8 0xFFFFFFFFFFFFFFFF DUP2 GT ISZERO PUSH2 0xE8D JUMPI PUSH1 0x0 DUP1 REVERT JUMPDEST PUSH1 0x20 DUP4 ADD SWAP2 POP DUP4 PUSH1 0x20 DUP3 MUL DUP4 ADD GT ISZERO PUSH2 0xEA5 JUMPI PUSH1 0x0 DUP1 REVERT JUMPDEST SWAP3 POP SWAP3 SWAP1 POP JUMP JUMPDEST PUSH1 0x0 DUP2 CALLDATALOAD SWAP1 POP PUSH2 0xEBB DUP2 PUSH2 0x1611 JUMP JUMPDEST SWAP3 SWAP2 POP POP JUMP JUMPDEST PUSH1 0x0 DUP2 CALLDATALOAD SWAP1 POP PUSH2 0xED0 DUP2 PUSH2 0x1628 JUMP JUMPDEST SWAP3 SWAP2 POP POP JUMP JUMPDEST PUSH1 0x0 DUP3 PUSH1 0x1F DUP4 ADD SLT PUSH2 0xEE7 JUMPI PUSH1 0x0 DUP1 REVERT JUMPDEST DUP2 CALLDATALOAD PUSH2 0xEF7 DUP5 DUP3 PUSH1 0x20 DUP7 ADD PUSH2 0xDC5 JUMP JUMPDEST SWAP2 POP POP SWAP3 SWAP2 POP POP JUMP JUMPDEST PUSH1 0x0 DUP2 CALLDATALOAD SWAP1 POP PUSH2 0xF0F DUP2 PUSH2 0x163F JUMP JUMPDEST SWAP3 SWAP2 POP POP JUMP JUMPDEST PUSH1 0x0 DUP2 MLOAD SWAP1 POP PUSH2 0xF24 DUP2 PUSH2 0x163F JUMP JUMPDEST SWAP3 SWAP2 POP POP JUMP JUMPDEST PUSH1 0x0 PUSH1 0x20 DUP3 DUP5 SUB SLT ISZERO PUSH2 0xF3C JUMPI PUSH1 0x0 DUP1 REVERT JUMPDEST PUSH1 0x0 PUSH2 0xF4A DUP5 DUP3 DUP6 ADD PUSH2 0xE03 JUMP JUMPDEST SWAP2 POP POP SWAP3 SWAP2 POP POP JUMP JUMPDEST PUSH1 0x0 PUSH1 0x20 DUP3 DUP5 SUB SLT ISZERO PUSH2 0xF65 JUMPI PUSH1 0x0 DUP1 REVERT JUMPDEST PUSH1 0x0 PUSH2 0xF73 DUP5 DUP3 DUP6 ADD PUSH2 0xEC1 JUMP JUMPDEST SWAP2 POP POP SWAP3 SWAP2 POP POP JUMP JUMPDEST PUSH1 0x0 DUP1 PUSH1 0x0 DUP1 PUSH1 0x0 DUP1 PUSH1 0x80 DUP8 DUP10 SUB SLT ISZERO PUSH2 0xF95 JUMPI PUSH1 0x0 DUP1 REVERT JUMPDEST PUSH1 0x0 PUSH2 0xFA3 DUP10 DUP3 DUP11 ADD PUSH2 0xEC1 JUMP JUMPDEST SWAP7 POP POP PUSH1 0x20 DUP8 ADD CALLDATALOAD PUSH8 0xFFFFFFFFFFFFFFFF DUP2 GT ISZERO PUSH2 0xFC0 JUMPI PUSH1 0x0 DUP1 REVERT JUMPDEST PUSH2 0xFCC DUP10 DUP3 DUP11 ADD PUSH2 0xE18 JUMP JUMPDEST SWAP6 POP SWAP6 POP POP PUSH1 0x40 DUP8 ADD CALLDATALOAD PUSH8 0xFFFFFFFFFFFFFFFF DUP2 GT ISZERO PUSH2 0xFEB JUMPI PUSH1 0x0 DUP1 REVERT JUMPDEST PUSH2 0xFF7 DUP10 DUP3 DUP11 ADD PUSH2 0xE62 JUMP JUMPDEST SWAP4 POP SWAP4 POP POP PUSH1 0x60 PUSH2 0x100A DUP10 DUP3 DUP11 ADD PUSH2 0xF00 JUMP JUMPDEST SWAP2 POP POP SWAP3 SWAP6 POP SWAP3 SWAP6 POP SWAP3 SWAP6 JUMP JUMPDEST PUSH1 0x0 DUP1 PUSH1 0x0 PUSH1 0x60 DUP5 DUP7 SUB SLT ISZERO PUSH2 0x102C JUMPI PUSH1 0x0 DUP1 REVERT JUMPDEST PUSH1 0x0 DUP5 ADD CALLDATALOAD PUSH8 0xFFFFFFFFFFFFFFFF DUP2 GT ISZERO PUSH2 0x1046 JUMPI PUSH1 0x0 DUP1 REVERT JUMPDEST PUSH2 0x1052 DUP7 DUP3 DUP8 ADD PUSH2 0xED6 JUMP JUMPDEST SWAP4 POP POP PUSH1 0x20 PUSH2 0x1063 DUP7 DUP3 DUP8 ADD PUSH2 0xE03 JUMP JUMPDEST SWAP3 POP POP PUSH1 0x40 PUSH2 0x1074 DUP7 DUP3 DUP8 ADD PUSH2 0xF00 JUMP JUMPDEST SWAP2 POP POP SWAP3 POP SWAP3 POP SWAP3 JUMP JUMPDEST PUSH1 0x0 PUSH1 0x20 DUP3 DUP5 SUB SLT ISZERO PUSH2 0x1090 JUMPI PUSH1 0x0 DUP1 REVERT JUMPDEST PUSH1 0x0 PUSH2 0x109E DUP5 DUP3 DUP6 ADD PUSH2 0xF00 JUMP JUMPDEST SWAP2 POP POP SWAP3 SWAP2 POP POP JUMP JUMPDEST PUSH1 0x0 PUSH1 0x20 DUP3 DUP5 SUB SLT ISZERO PUSH2 0x10B9 JUMPI PUSH1 0x0 DUP1 REVERT JUMPDEST PUSH1 0x0 PUSH2 0x10C7 DUP5 DUP3 DUP6 ADD PUSH2 0xF15 JUMP JUMPDEST SWAP2 POP POP SWAP3 SWAP2 POP POP JUMP JUMPDEST PUSH1 0x0 DUP1 PUSH1 0x40 DUP4 DUP6 SUB SLT ISZERO PUSH2 0x10E3 JUMPI PUSH1 0x0 DUP1 REVERT JUMPDEST PUSH1 0x0 PUSH2 0x10F1 DUP6 DUP3 DUP7 ADD PUSH2 0xF00 JUMP JUMPDEST SWAP3 POP POP PUSH1 0x20 PUSH2 0x1102 DUP6 DUP3 DUP7 ADD PUSH2 0xE03 JUMP JUMPDEST SWAP2 POP POP SWAP3 POP SWAP3 SWAP1 POP JUMP JUMPDEST PUSH1 0x0 DUP1 PUSH1 0x40 DUP4 DUP6 SUB SLT ISZERO PUSH2 0x111F JUMPI PUSH1 0x0 DUP1 REVERT JUMPDEST PUSH1 0x0 PUSH2 0x112D DUP6 DUP3 DUP7 ADD PUSH2 0xF00 JUMP JUMPDEST SWAP3 POP POP PUSH1 0x20 PUSH2 0x113E DUP6 DUP3 DUP7 ADD PUSH2 0xEAC JUMP JUMPDEST SWAP2 POP POP SWAP3 POP SWAP3 SWAP1 POP JUMP JUMPDEST PUSH2 0x1151 DUP2 PUSH2 0x13FB JUMP JUMPDEST DUP3 MSTORE POP POP JUMP JUMPDEST PUSH2 0x1160 DUP2 PUSH2 0x140D JUMP JUMPDEST DUP3 MSTORE POP POP JUMP JUMPDEST PUSH2 0x116F DUP2 PUSH2 0x1419 JUMP JUMPDEST DUP3 MSTORE POP POP JUMP JUMPDEST PUSH2 0x1186 PUSH2 0x1181 DUP3 PUSH2 0x1419 JUMP JUMPDEST PUSH2 0x1509 JUMP JUMPDEST DUP3 MSTORE POP POP JUMP JUMPDEST PUSH1 0x0 PUSH2 0x1197 DUP3 PUSH2 0x13DF JUMP JUMPDEST PUSH2 0x11A1 DUP2 DUP6 PUSH2 0x13EA JUMP JUMPDEST SWAP4 POP PUSH2 0x11B1 DUP2 DUP6 PUSH1 0x20 DUP7 ADD PUSH2 0x145C JUMP JUMPDEST PUSH2 0x11BA DUP2 PUSH2 0x1571 JUMP JUMPDEST DUP5 ADD SWAP2 POP POP SWAP3 SWAP2 POP POP JUMP JUMPDEST PUSH1 0x0 PUSH2 0x11D2 PUSH1 0x26 DUP4 PUSH2 0x13EA JUMP JUMPDEST SWAP2 POP PUSH2 0x11DD DUP3 PUSH2 0x1582 JUMP JUMPDEST PUSH1 0x40 DUP3 ADD SWAP1 POP SWAP2 SWAP1 POP JUMP JUMPDEST PUSH1 0x0 PUSH2 0x11F5 PUSH1 0x20 DUP4 PUSH2 0x13EA JUMP JUMPDEST SWAP2 POP PUSH2 0x1200 DUP3 PUSH2 0x15D1 JUMP JUMPDEST PUSH1 0x20 DUP3 ADD SWAP1 POP SWAP2 SWAP1 POP JUMP JUMPDEST PUSH1 0x40 DUP3 ADD PUSH1 0x0 DUP3 ADD MLOAD PUSH2 0x1221 PUSH1 0x0 DUP6 ADD DUP3 PUSH2 0x123A JUMP JUMPDEST POP PUSH1 0x20 DUP3 ADD MLOAD PUSH2 0x1234 PUSH1 0x20 DUP6 ADD DUP3 PUSH2 0x1166 JUMP JUMPDEST POP POP POP POP JUMP JUMPDEST PUSH2 0x1243 DUP2 PUSH2 0x1443 JUMP JUMPDEST DUP3 MSTORE POP POP JUMP JUMPDEST PUSH2 0x1252 DUP2 PUSH2 0x1443 JUMP JUMPDEST DUP3 MSTORE POP POP JUMP JUMPDEST PUSH1 0x0 PUSH2 0x1264 DUP3 DUP6 PUSH2 0x1175 JUMP JUMPDEST PUSH1 0x20 DUP3 ADD SWAP2 POP PUSH2 0x1274 DUP3 DUP5 PUSH2 0x1175 JUMP JUMPDEST PUSH1 0x20 DUP3 ADD SWAP2 POP DUP2 SWAP1 POP SWAP4 SWAP3 POP POP POP JUMP JUMPDEST PUSH1 0x0 PUSH1 0x20 DUP3 ADD SWAP1 POP PUSH2 0x1299 PUSH1 0x0 DUP4 ADD DUP5 PUSH2 0x1148 JUMP JUMPDEST SWAP3 SWAP2 POP POP JUMP JUMPDEST PUSH1 0x0 PUSH1 0x40 DUP3 ADD SWAP1 POP PUSH2 0x12B4 PUSH1 0x0 DUP4 ADD DUP6 PUSH2 0x1148 JUMP JUMPDEST DUP2 DUP2 SUB PUSH1 0x20 DUP4 ADD MSTORE PUSH2 0x12C6 DUP2 DUP5 PUSH2 0x118C JUMP JUMPDEST SWAP1 POP SWAP4 SWAP3 POP POP POP JUMP JUMPDEST PUSH1 0x0 PUSH1 0x20 DUP3 ADD SWAP1 POP PUSH2 0x12E4 PUSH1 0x0 DUP4 ADD DUP5 PUSH2 0x1157 JUMP JUMPDEST SWAP3 SWAP2 POP POP JUMP JUMPDEST PUSH1 0x0 PUSH1 0x20 DUP3 ADD SWAP1 POP DUP2 DUP2 SUB PUSH1 0x0 DUP4 ADD MSTORE PUSH2 0x1303 DUP2 PUSH2 0x11C5 JUMP JUMPDEST SWAP1 POP SWAP2 SWAP1 POP JUMP JUMPDEST PUSH1 0x0 PUSH1 0x20 DUP3 ADD SWAP1 POP DUP2 DUP2 SUB PUSH1 0x0 DUP4 ADD MSTORE PUSH2 0x1323 DUP2 PUSH2 0x11E8 JUMP JUMPDEST SWAP1 POP SWAP2 SWAP1 POP JUMP JUMPDEST PUSH1 0x0 PUSH1 0x40 DUP3 ADD SWAP1 POP PUSH2 0x133F PUSH1 0x0 DUP4 ADD DUP5 PUSH2 0x120B JUMP JUMPDEST SWAP3 SWAP2 POP POP JUMP JUMPDEST PUSH1 0x0 PUSH1 0x20 DUP3 ADD SWAP1 POP PUSH2 0x135A PUSH1 0x0 DUP4 ADD DUP5 PUSH2 0x1249 JUMP JUMPDEST SWAP3 SWAP2 POP POP JUMP JUMPDEST PUSH1 0x0 PUSH1 0x40 DUP3 ADD SWAP1 POP PUSH2 0x1375 PUSH1 0x0 DUP4 ADD DUP6 PUSH2 0x1249 JUMP JUMPDEST PUSH2 0x1382 PUSH1 0x20 DUP4 ADD DUP5 PUSH2 0x1249 JUMP JUMPDEST SWAP4 SWAP3 POP POP POP JUMP JUMPDEST PUSH1 0x0 PUSH2 0x1393 PUSH2 0x13A4 JUMP JUMPDEST SWAP1 POP PUSH2 0x139F DUP3 DUP3 PUSH2 0x148F JUMP JUMPDEST SWAP2 SWAP1 POP JUMP JUMPDEST PUSH1 0x0 PUSH1 0x40 MLOAD SWAP1 POP SWAP1 JUMP JUMPDEST PUSH1 0x0 PUSH8 0xFFFFFFFFFFFFFFFF DUP3 GT ISZERO PUSH2 0x13C9 JUMPI PUSH2 0x13C8 PUSH2 0x1542 JUMP JUMPDEST JUMPDEST PUSH2 0x13D2 DUP3 PUSH2 0x1571 JUMP JUMPDEST SWAP1 POP PUSH1 0x20 DUP2 ADD SWAP1 POP SWAP2 SWAP1 POP JUMP JUMPDEST PUSH1 0x0 DUP2 MLOAD SWAP1 POP SWAP2 SWAP1 POP JUMP JUMPDEST PUSH1 0x0 DUP3 DUP3 MSTORE PUSH1 0x20 DUP3 ADD SWAP1 POP SWAP3 SWAP2 POP POP JUMP JUMPDEST PUSH1 0x0 PUSH2 0x1406 DUP3 PUSH2 0x1423 JUMP JUMPDEST SWAP1 POP SWAP2 SWAP1 POP JUMP JUMPDEST PUSH1 0x0 DUP2 ISZERO ISZERO SWAP1 POP SWAP2 SWAP1 POP JUMP JUMPDEST PUSH1 0x0 DUP2 SWAP1 POP SWAP2 SWAP1 POP JUMP JUMPDEST PUSH1 0x0 PUSH20 0xFFFFFFFFFFFFFFFFFFFFFFFFFFFFFFFFFFFFFFFF DUP3 AND SWAP1 POP SWAP2 SWAP1 POP JUMP JUMPDEST PUSH1 0x0 DUP2 SWAP1 POP SWAP2 SWAP1 POP JUMP JUMPDEST DUP3 DUP2 DUP4 CALLDATACOPY PUSH1 0x0 DUP4 DUP4 ADD MSTORE POP POP POP JUMP JUMPDEST PUSH1 0x0 JUMPDEST DUP4 DUP2 LT ISZERO PUSH2 0x147A JUMPI DUP1 DUP3 ADD MLOAD DUP2 DUP5 ADD MSTORE PUSH1 0x20 DUP2 ADD SWAP1 POP PUSH2 0x145F JUMP JUMPDEST DUP4 DUP2 GT ISZERO PUSH2 0x1489 JUMPI PUSH1 0x0 DUP5 DUP5 ADD MSTORE JUMPDEST POP POP POP POP JUMP JUMPDEST PUSH2 0x1498 DUP3 PUSH2 0x1571 JUMP JUMPDEST DUP2 ADD DUP2 DUP2 LT PUSH8 0xFFFFFFFFFFFFFFFF DUP3 GT OR ISZERO PUSH2 0x14B7 JUMPI PUSH2 0x14B6 PUSH2 0x1542 JUMP JUMPDEST JUMPDEST DUP1 PUSH1 0x40 MSTORE POP POP POP JUMP JUMPDEST PUSH1 0x0 PUSH2 0x14CB DUP3 PUSH2 0x1443 JUMP JUMPDEST SWAP2 POP PUSH32 0xFFFFFFFFFFFFFFFFFFFFFFFFFFFFFFFFFFFFFFFFFFFFFFFFFFFFFFFFFFFFFFFF DUP3 EQ ISZERO PUSH2 0x14FE JUMPI PUSH2 0x14FD PUSH2 0x1513 JUMP JUMPDEST JUMPDEST PUSH1 0x1 DUP3 ADD SWAP1 POP SWAP2 SWAP1 POP JUMP JUMPDEST PUSH1 0x0 DUP2 SWAP1 POP SWAP2 SWAP1 POP JUMP JUMPDEST PUSH32 0x4E487B7100000000000000000000000000000000000000000000000000000000 PUSH1 0x0 MSTORE PUSH1 0x11 PUSH1 0x4 MSTORE PUSH1 0x24 PUSH1 0x0 REVERT JUMPDEST PUSH32 0x4E487B7100000000000000000000000000000000000000000000000000000000 PUSH1 0x0 MSTORE PUSH1 0x41 PUSH1 0x4 MSTORE PUSH1 0x24 PUSH1 0x0 REVERT JUMPDEST PUSH1 0x0 PUSH1 0x1F NOT PUSH1 0x1F DUP4 ADD AND SWAP1 POP SWAP2 SWAP1 POP JUMP JUMPDEST PUSH32 0x4F776E61626C653A206E6577206F776E657220697320746865207A65726F2061 PUSH1 0x0 DUP3 ADD MSTORE PUSH32 0x6464726573730000000000000000000000000000000000000000000000000000 PUSH1 0x20 DUP3 ADD MSTORE POP JUMP JUMPDEST PUSH32 0x4F776E61626C653A2063616C6C6572206973206E6F7420746865206F776E6572 PUSH1 0x0 DUP3 ADD MSTORE POP JUMP JUMPDEST PUSH2 0x1603 DUP2 PUSH2 0x13FB JUMP JUMPDEST DUP2 EQ PUSH2 0x160E JUMPI PUSH1 0x0 DUP1 REVERT JUMPDEST POP JUMP JUMPDEST PUSH2 0x161A DUP2 PUSH2 0x140D JUMP JUMPDEST DUP2 EQ PUSH2 0x1625 JUMPI PUSH1 0x0 DUP1 REVERT JUMPDEST POP JUMP JUMPDEST PUSH2 0x1631 DUP2 PUSH2 0x1419 JUMP JUMPDEST DUP2 EQ PUSH2 0x163C JUMPI PUSH1 0x0 DUP1 REVERT JUMPDEST POP JUMP JUMPDEST PUSH2 0x1648 DUP2 PUSH2 0x1443 JUMP JUMPDEST DUP2 EQ PUSH2 0x1653 JUMPI PUSH1 0x0 DUP1 REVERT JUMPDEST POP JUMP INVALID LOG2 PUSH5 0x6970667358 0x22 SLT KECCAK256 CREATE2 0xAD DIFFICULTY GASPRICE 0xF 0x4C DIV CHAINID 0x4B 0xF8 JUMPDEST PC 0xE8 GASLIMIT DUP8 RETURN PUSH23 0x5FBCF66AD5F3F9921FB1FC83CFE3D564736F6C63430008 DIV STOP CALLER "
				},
				"gasEstimates": {
					"creation": {
						"codeDepositCost": "1154400",
						"executionCost": "infinite",
						"totalCost": "infinite"
					},
					"external": {
						"": "181",
						"NFTIdOfManager(address)": "2525",
						"availableOfNFTId(uint256)": "1546",
						"createKYCNFT(string,address,uint256)": "infinite",
						"initManagerAddr(uint256,address)": "42715",
						"managerOfNFTId(uint256)": "1623",
						"modifyManagerAddr(address)": "63378",
						"owner()": "1311",
						"renounceOwnership()": "24465",
						"setAvailableOfNFTId(uint256,bool)": "22539",
						"setKYCNFTContractAddress(address)": "22374",
						"transferOwnership(address)": "24813",
						"updateMerkleRoot(bytes32)": "20551",
						"userDataOfManager(address)": "2757",
						"userDataOfNFTId(uint256)": "infinite",
						"verifyKYCAuthProof(bytes32,bytes32[],uint256[],uint256)": "infinite"
					},
					"internal": {
						"verifyMerkleProof(bytes32,bytes32,bytes32[] calldata,uint256[] calldata)": "infinite"
					}
				},
				"methodIdentifiers": {
					"NFTIdOfManager(address)": "b2b72bc4",
					"availableOfNFTId(uint256)": "0e197dc9",
					"createKYCNFT(string,address,uint256)": "d1933ddd",
					"initManagerAddr(uint256,address)": "3960a892",
					"managerOfNFTId(uint256)": "4b3cef44",
					"modifyManagerAddr(address)": "1ff4bdf3",
					"owner()": "8da5cb5b",
					"renounceOwnership()": "715018a6",
					"setAvailableOfNFTId(uint256,bool)": "ab98a679",
					"setKYCNFTContractAddress(address)": "fbc2cf13",
					"transferOwnership(address)": "f2fde38b",
					"updateMerkleRoot(bytes32)": "4783f0ef",
					"userDataOfManager(address)": "ad575035",
					"userDataOfNFTId(uint256)": "917b8fd0",
					"verifyKYCAuthProof(bytes32,bytes32[],uint256[],uint256)": "f097c289"
				}
			},
			"storageLayout": {
				"storage": [
					{
						"astId": 7,
						"contract": "contracts/KYCManagerV2.sol:KYCManager",
						"label": "_owner",
						"offset": 0,
						"slot": "0",
						"type": "t_address"
					},
					{
						"astId": 164,
						"contract": "contracts/KYCManagerV2.sol:KYCManager",
						"label": "kycNFTContract",
						"offset": 0,
						"slot": "1",
						"type": "t_contract(KYCNFTInterface)154"
					},
					{
						"astId": 168,
						"contract": "contracts/KYCManagerV2.sol:KYCManager",
						"label": "NFTIdToManager",
						"offset": 0,
						"slot": "2",
						"type": "t_mapping(t_uint256,t_address)"
					},
					{
						"astId": 173,
						"contract": "contracts/KYCManagerV2.sol:KYCManager",
						"label": "ManagerToUserData",
						"offset": 0,
						"slot": "3",
						"type": "t_mapping(t_address,t_struct(UserData)161_storage)"
					},
					{
						"astId": 177,
						"contract": "contracts/KYCManagerV2.sol:KYCManager",
						"label": "NFTIdToAvailable",
						"offset": 0,
						"slot": "4",
						"type": "t_mapping(t_uint256,t_bool)"
					}
				],
				"types": {
					"t_address": {
						"encoding": "inplace",
						"label": "address",
						"numberOfBytes": "20"
					},
					"t_bool": {
						"encoding": "inplace",
						"label": "bool",
						"numberOfBytes": "1"
					},
					"t_bytes32": {
						"encoding": "inplace",
						"label": "bytes32",
						"numberOfBytes": "32"
					},
					"t_contract(KYCNFTInterface)154": {
						"encoding": "inplace",
						"label": "contract KYCNFTInterface",
						"numberOfBytes": "20"
					},
					"t_mapping(t_address,t_struct(UserData)161_storage)": {
						"encoding": "mapping",
						"key": "t_address",
						"label": "mapping(address => struct KYCManager.UserData)",
						"numberOfBytes": "32",
						"value": "t_struct(UserData)161_storage"
					},
					"t_mapping(t_uint256,t_address)": {
						"encoding": "mapping",
						"key": "t_uint256",
						"label": "mapping(uint256 => address)",
						"numberOfBytes": "32",
						"value": "t_address"
					},
					"t_mapping(t_uint256,t_bool)": {
						"encoding": "mapping",
						"key": "t_uint256",
						"label": "mapping(uint256 => bool)",
						"numberOfBytes": "32",
						"value": "t_bool"
					},
					"t_struct(UserData)161_storage": {
						"encoding": "inplace",
						"label": "struct KYCManager.UserData",
						"members": [
							{
								"astId": 158,
								"contract": "contracts/KYCManagerV2.sol:KYCManager",
								"label": "NFTId",
								"offset": 0,
								"slot": "0",
								"type": "t_uint256"
							},
							{
								"astId": 160,
								"contract": "contracts/KYCManagerV2.sol:KYCManager",
								"label": "merkleRoot",
								"offset": 0,
								"slot": "1",
								"type": "t_bytes32"
							}
						],
						"numberOfBytes": "64"
					},
					"t_uint256": {
						"encoding": "inplace",
						"label": "uint256",
						"numberOfBytes": "32"
					}
				}
			},
			"userdoc": {
				"kind": "user",
				"methods": {},
				"version": 1
			}
		}
	}
}