{
	"contracts/KYCManagerV2.sol": {
		"KYCManager": {
			"abi": [
				{
					"anonymous": false,
					"inputs": [
						{
							"indexed": true,
							"internalType": "address",
							"name": "previousOwner",
							"type": "address"
						},
						{
							"indexed": true,
							"internalType": "address",
							"name": "newOwner",
							"type": "address"
						}
					],
					"name": "OwnershipTransferred",
					"type": "event"
				},
				{
					"stateMutability": "payable",
					"type": "fallback"
				},
				{
					"inputs": [
						{
							"internalType": "address",
							"name": "managerAddr",
							"type": "address"
						}
					],
					"name": "NFTIdOfManager",
					"outputs": [
						{
							"internalType": "uint256",
							"name": "",
							"type": "uint256"
						}
					],
					"stateMutability": "view",
					"type": "function"
				},
				{
					"inputs": [
						{
							"internalType": "uint256",
							"name": "NFTId",
							"type": "uint256"
						}
					],
					"name": "availableOfNFTId",
					"outputs": [
						{
							"internalType": "bool",
							"name": "",
							"type": "bool"
						}
					],
					"stateMutability": "view",
					"type": "function"
				},
				{
					"inputs": [
						{
							"internalType": "string",
							"name": "tokenUrl",
							"type": "string"
						},
						{
							"internalType": "address",
							"name": "manager",
							"type": "address"
						},
						{
							"internalType": "uint256",
							"name": "expirationTime",
							"type": "uint256"
						}
					],
					"name": "createKYCNFT",
					"outputs": [],
					"stateMutability": "nonpayable",
					"type": "function"
				},
				{
					"inputs": [
						{
							"internalType": "uint256",
							"name": "NFTId",
							"type": "uint256"
						},
						{
							"internalType": "address",
							"name": "manager",
							"type": "address"
						}
					],
					"name": "initManagerAddr",
					"outputs": [],
					"stateMutability": "nonpayable",
					"type": "function"
				},
				{
					"inputs": [
						{
							"internalType": "uint256",
							"name": "NFTId",
							"type": "uint256"
						}
					],
					"name": "managerOfNFTId",
					"outputs": [
						{
							"internalType": "address",
							"name": "",
							"type": "address"
						}
					],
					"stateMutability": "view",
					"type": "function"
				},
				{
					"inputs": [
						{
							"internalType": "address",
							"name": "newManager",
							"type": "address"
						}
					],
					"name": "modifyManagerAddr",
					"outputs": [],
					"stateMutability": "nonpayable",
					"type": "function"
				},
				{
					"inputs": [],
					"name": "owner",
					"outputs": [
						{
							"internalType": "address",
							"name": "",
							"type": "address"
						}
					],
					"stateMutability": "view",
					"type": "function"
				},
				{
					"inputs": [],
					"name": "renounceOwnership",
					"outputs": [],
					"stateMutability": "nonpayable",
					"type": "function"
				},
				{
					"inputs": [
						{
							"internalType": "uint256",
							"name": "NFTId",
							"type": "uint256"
						},
						{
							"internalType": "bool",
							"name": "_available",
							"type": "bool"
						}
					],
					"name": "setAvailableOfNFTId",
					"outputs": [],
					"stateMutability": "nonpayable",
					"type": "function"
				},
				{
					"inputs": [
						{
							"internalType": "address",
							"name": "_kycnftContractAddr",
							"type": "address"
						}
					],
					"name": "setKYCNFTContractAddress",
					"outputs": [],
					"stateMutability": "nonpayable",
					"type": "function"
				},
				{
					"inputs": [
						{
							"internalType": "address",
							"name": "newOwner",
							"type": "address"
						}
					],
					"name": "transferOwnership",
					"outputs": [],
					"stateMutability": "nonpayable",
					"type": "function"
				},
				{
					"inputs": [
						{
							"internalType": "bytes32",
							"name": "newMerkleRoot",
							"type": "bytes32"
						}
					],
					"name": "updateMerkleRoot",
					"outputs": [],
					"stateMutability": "nonpayable",
					"type": "function"
				},
				{
					"inputs": [
						{
							"internalType": "address",
							"name": "managerAddr",
							"type": "address"
						}
					],
					"name": "userDataOfManager",
					"outputs": [
						{
							"components": [
								{
									"internalType": "uint256",
									"name": "NFTId",
									"type": "uint256"
								},
								{
									"internalType": "bytes32",
									"name": "merkleRoot",
									"type": "bytes32"
								}
							],
							"internalType": "struct KYCManager.UserData",
							"name": "",
							"type": "tuple"
						}
					],
					"stateMutability": "view",
					"type": "function"
				},
				{
					"inputs": [
						{
							"internalType": "uint256",
							"name": "NFTId",
							"type": "uint256"
						}
					],
					"name": "userDataOfNFTId",
					"outputs": [
						{
							"components": [
								{
									"internalType": "uint256",
									"name": "NFTId",
									"type": "uint256"
								},
								{
									"internalType": "bytes32",
									"name": "merkleRoot",
									"type": "bytes32"
								}
							],
							"internalType": "struct KYCManager.UserData",
							"name": "",
							"type": "tuple"
						}
					],
					"stateMutability": "view",
					"type": "function"
				},
				{
					"inputs": [
						{
							"internalType": "bytes32",
							"name": "leaf",
							"type": "bytes32"
						},
						{
							"internalType": "bytes32[]",
							"name": "proof",
							"type": "bytes32[]"
						},
						{
							"internalType": "uint256[]",
							"name": "positions",
							"type": "uint256[]"
						},
						{
							"internalType": "uint256",
							"name": "NFTId",
							"type": "uint256"
						}
					],
					"name": "verifyKYCAuthProof",
					"outputs": [
						{
							"internalType": "bool",
							"name": "",
							"type": "bool"
						}
					],
					"stateMutability": "nonpayable",
					"type": "function"
				},
				{
					"stateMutability": "payable",
					"type": "receive"
				}
			],
			"devdoc": {
				"kind": "dev",
				"methods": {
					"owner()": {
						"details": "Returns the address of the current owner."
					},
					"renounceOwnership()": {
						"details": "Leaves the contract without owner. It will not be possible to call `onlyOwner` functions anymore. Can only be called by the current owner. NOTE: Renouncing ownership will leave the contract without an owner, thereby removing any functionality that is only available to the owner."
					},
					"transferOwnership(address)": {
						"details": "Transfers ownership of the contract to a new account (`newOwner`). Can only be called by the current owner."
					}
				},
				"version": 1
			},
			"evm": {
				"assembly": "    /* \"contracts/KYCManagerV2.sol\":432:4446  contract KYCManager is Ownable {... */\n  mstore(0x40, 0x80)\n  callvalue\n  dup1\n  iszero\n  tag_1\n  jumpi\n  0x00\n  dup1\n  revert\ntag_1:\n  pop\n    /* \"@openzeppelin/contracts/access/Ownable.sol\":936:968  _transferOwnership(_msgSender()) */\n  tag_4\n    /* \"@openzeppelin/contracts/access/Ownable.sol\":955:967  _msgSender() */\n  tag_5\n    /* \"@openzeppelin/contracts/access/Ownable.sol\":955:965  _msgSender */\n  shl(0x20, tag_6)\n    /* \"@openzeppelin/contracts/access/Ownable.sol\":955:967  _msgSender() */\n  0x20\n  shr\n  jump\t// in\ntag_5:\n    /* \"@openzeppelin/contracts/access/Ownable.sol\":936:954  _transferOwnership */\n  shl(0x20, tag_7)\n    /* \"@openzeppelin/contracts/access/Ownable.sol\":936:968  _transferOwnership(_msgSender()) */\n  0x20\n  shr\n  jump\t// in\ntag_4:\n    /* \"contracts/KYCManagerV2.sol\":432:4446  contract KYCManager is Ownable {... */\n  jump(tag_8)\n    /* \"@openzeppelin/contracts/utils/Context.sol\":640:736  function _msgSender() internal view virtual returns (address) {... */\ntag_6:\n    /* \"@openzeppelin/contracts/utils/Context.sol\":693:700  address */\n  0x00\n    /* \"@openzeppelin/contracts/utils/Context.sol\":719:729  msg.sender */\n  caller\n    /* \"@openzeppelin/contracts/utils/Context.sol\":712:729  return msg.sender */\n  swap1\n  pop\n    /* \"@openzeppelin/contracts/utils/Context.sol\":640:736  function _msgSender() internal view virtual returns (address) {... */\n  swap1\n  jump\t// out\n    /* \"@openzeppelin/contracts/access/Ownable.sol\":2433:2620  function _transferOwnership(address newOwner) internal virtual {... */\ntag_7:\n    /* \"@openzeppelin/contracts/access/Ownable.sol\":2506:2522  address oldOwner */\n  0x00\n    /* \"@openzeppelin/contracts/access/Ownable.sol\":2525:2531  _owner */\n  dup1\n  0x00\n  swap1\n  sload\n  swap1\n  0x0100\n  exp\n  swap1\n  div\n  0xffffffffffffffffffffffffffffffffffffffff\n  and\n    /* \"@openzeppelin/contracts/access/Ownable.sol\":2506:2531  address oldOwner = _owner */\n  swap1\n  pop\n    /* \"@openzeppelin/contracts/access/Ownable.sol\":2550:2558  newOwner */\n  dup2\n    /* \"@openzeppelin/contracts/access/Ownable.sol\":2541:2547  _owner */\n  0x00\n  dup1\n    /* \"@openzeppelin/contracts/access/Ownable.sol\":2541:2558  _owner = newOwner */\n  0x0100\n  exp\n  dup2\n  sload\n  dup2\n  0xffffffffffffffffffffffffffffffffffffffff\n  mul\n  not\n  and\n  swap1\n  dup4\n  0xffffffffffffffffffffffffffffffffffffffff\n  and\n  mul\n  or\n  swap1\n  sstore\n  pop\n    /* \"@openzeppelin/contracts/access/Ownable.sol\":2604:2612  newOwner */\n  dup2\n    /* \"@openzeppelin/contracts/access/Ownable.sol\":2573:2613  OwnershipTransferred(oldOwner, newOwner) */\n  0xffffffffffffffffffffffffffffffffffffffff\n  and\n    /* \"@openzeppelin/contracts/access/Ownable.sol\":2594:2602  oldOwner */\n  dup2\n    /* \"@openzeppelin/contracts/access/Ownable.sol\":2573:2613  OwnershipTransferred(oldOwner, newOwner) */\n  0xffffffffffffffffffffffffffffffffffffffff\n  and\n  0x8be0079c531659141344cd1fd0a4f28419497f9722a3daafe3b4186f6b6457e0\n  mload(0x40)\n  mload(0x40)\n  dup1\n  swap2\n  sub\n  swap1\n  log3\n    /* \"@openzeppelin/contracts/access/Ownable.sol\":2496:2620  {... */\n  pop\n    /* \"@openzeppelin/contracts/access/Ownable.sol\":2433:2620  function _transferOwnership(address newOwner) internal virtual {... */\n  pop\n  jump\t// out\n    /* \"contracts/KYCManagerV2.sol\":432:4446  contract KYCManager is Ownable {... */\ntag_8:\n  dataSize(sub_0)\n  dup1\n  dataOffset(sub_0)\n  0x00\n  codecopy\n  0x00\n  return\nstop\n\nsub_0: assembly {\n        /* \"contracts/KYCManagerV2.sol\":432:4446  contract KYCManager is Ownable {... */\n      mstore(0x40, 0x80)\n      jumpi(tag_1, lt(calldatasize, 0x04))\n      shr(0xe0, calldataload(0x00))\n      dup1\n      0x917b8fd0\n      gt\n      tag_18\n      jumpi\n      dup1\n      0xd1933ddd\n      gt\n      tag_19\n      jumpi\n      dup1\n      0xd1933ddd\n      eq\n      tag_14\n      jumpi\n      dup1\n      0xf097c289\n      eq\n      tag_15\n      jumpi\n      dup1\n      0xf2fde38b\n      eq\n      tag_16\n      jumpi\n      dup1\n      0xfbc2cf13\n      eq\n      tag_17\n      jumpi\n      jump(tag_2)\n    tag_19:\n      dup1\n      0x917b8fd0\n      eq\n      tag_10\n      jumpi\n      dup1\n      0xab98a679\n      eq\n      tag_11\n      jumpi\n      dup1\n      0xad575035\n      eq\n      tag_12\n      jumpi\n      dup1\n      0xb2b72bc4\n      eq\n      tag_13\n      jumpi\n      jump(tag_2)\n    tag_18:\n      dup1\n      0x4783f0ef\n      gt\n      tag_20\n      jumpi\n      dup1\n      0x4783f0ef\n      eq\n      tag_6\n      jumpi\n      dup1\n      0x4b3cef44\n      eq\n      tag_7\n      jumpi\n      dup1\n      0x715018a6\n      eq\n      tag_8\n      jumpi\n      dup1\n      0x8da5cb5b\n      eq\n      tag_9\n      jumpi\n      jump(tag_2)\n    tag_20:\n      dup1\n      0x0e197dc9\n      eq\n      tag_3\n      jumpi\n      dup1\n      0x1ff4bdf3\n      eq\n      tag_4\n      jumpi\n      dup1\n      0x3960a892\n      eq\n      tag_5\n      jumpi\n      jump(tag_2)\n    tag_1:\n      jumpi(tag_2, calldatasize)\n        /* \"contracts/KYCManagerV2.sol\":4429:4437  revert() */\n      0x00\n      dup1\n      revert\n        /* \"contracts/KYCManagerV2.sol\":432:4446  contract KYCManager is Ownable {... */\n    tag_2:\n        /* \"contracts/KYCManagerV2.sol\":4371:4379  revert() */\n      0x00\n      dup1\n      revert\n        /* \"contracts/KYCManagerV2.sol\":2890:3005  function availableOfNFTId(uint256 NFTId) public view returns (bool) {... */\n    tag_3:\n      callvalue\n      dup1\n      iszero\n      tag_25\n      jumpi\n      0x00\n      dup1\n      revert\n    tag_25:\n      pop\n      tag_26\n      0x04\n      dup1\n      calldatasize\n      sub\n      dup2\n      add\n      swap1\n      tag_27\n      swap2\n      swap1\n      tag_28\n      jump\t// in\n    tag_27:\n      tag_29\n      jump\t// in\n    tag_26:\n      mload(0x40)\n      tag_30\n      swap2\n      swap1\n      tag_31\n      jump\t// in\n    tag_30:\n      mload(0x40)\n      dup1\n      swap2\n      sub\n      swap1\n      return\n        /* \"contracts/KYCManagerV2.sol\":1793:2023  function modifyManagerAddr(address newManager) public {... */\n    tag_4:\n      callvalue\n      dup1\n      iszero\n      tag_32\n      jumpi\n      0x00\n      dup1\n      revert\n    tag_32:\n      pop\n      tag_33\n      0x04\n      dup1\n      calldatasize\n      sub\n      dup2\n      add\n      swap1\n      tag_34\n      swap2\n      swap1\n      tag_35\n      jump\t// in\n    tag_34:\n      tag_36\n      jump\t// in\n    tag_33:\n      stop\n        /* \"contracts/KYCManagerV2.sol\":1615:1787  function initManagerAddr(uint256 NFTId, address manager) public onlyOwner {... */\n    tag_5:\n      callvalue\n      dup1\n      iszero\n      tag_37\n      jumpi\n      0x00\n      dup1\n      revert\n    tag_37:\n      pop\n      tag_38\n      0x04\n      dup1\n      calldatasize\n      sub\n      dup2\n      add\n      swap1\n      tag_39\n      swap2\n      swap1\n      tag_40\n      jump\t// in\n    tag_39:\n      tag_41\n      jump\t// in\n    tag_38:\n      stop\n        /* \"contracts/KYCManagerV2.sol\":2063:2238  function updateMerkleRoot(bytes32 newMerkleRoot) public {... */\n    tag_6:\n      callvalue\n      dup1\n      iszero\n      tag_42\n      jumpi\n      0x00\n      dup1\n      revert\n    tag_42:\n      pop\n      tag_43\n      0x04\n      dup1\n      calldatasize\n      sub\n      dup2\n      add\n      swap1\n      tag_44\n      swap2\n      swap1\n      tag_45\n      jump\t// in\n    tag_44:\n      tag_46\n      jump\t// in\n    tag_43:\n      stop\n        /* \"contracts/KYCManagerV2.sol\":2272:2415  function managerOfNFTId(uint256 NFTId) public view returns (address) {... */\n    tag_7:\n      callvalue\n      dup1\n      iszero\n      tag_47\n      jumpi\n      0x00\n      dup1\n      revert\n    tag_47:\n      pop\n      tag_48\n      0x04\n      dup1\n      calldatasize\n      sub\n      dup2\n      add\n      swap1\n      tag_49\n      swap2\n      swap1\n      tag_28\n      jump\t// in\n    tag_49:\n      tag_50\n      jump\t// in\n    tag_48:\n      mload(0x40)\n      tag_51\n      swap2\n      swap1\n      tag_52\n      jump\t// in\n    tag_51:\n      mload(0x40)\n      dup1\n      swap2\n      sub\n      swap1\n      return\n        /* \"@openzeppelin/contracts/access/Ownable.sol\":1831:1932  function renounceOwnership() public virtual onlyOwner {... */\n    tag_8:\n      callvalue\n      dup1\n      iszero\n      tag_53\n      jumpi\n      0x00\n      dup1\n      revert\n    tag_53:\n      pop\n      tag_54\n      tag_55\n      jump\t// in\n    tag_54:\n      stop\n        /* \"@openzeppelin/contracts/access/Ownable.sol\":1201:1286  function owner() public view virtual returns (address) {... */\n    tag_9:\n      callvalue\n      dup1\n      iszero\n      tag_56\n      jumpi\n      0x00\n      dup1\n      revert\n    tag_56:\n      pop\n      tag_57\n      tag_58\n      jump\t// in\n    tag_57:\n      mload(0x40)\n      tag_59\n      swap2\n      swap1\n      tag_52\n      jump\t// in\n    tag_59:\n      mload(0x40)\n      dup1\n      swap2\n      sub\n      swap1\n      return\n        /* \"contracts/KYCManagerV2.sol\":2421:2665  function userDataOfNFTId(uint256 NFTId)... */\n    tag_10:\n      callvalue\n      dup1\n      iszero\n      tag_60\n      jumpi\n      0x00\n      dup1\n      revert\n    tag_60:\n      pop\n      tag_61\n      0x04\n      dup1\n      calldatasize\n      sub\n      dup2\n      add\n      swap1\n      tag_62\n      swap2\n      swap1\n      tag_28\n      jump\t// in\n    tag_62:\n      tag_63\n      jump\t// in\n    tag_61:\n      mload(0x40)\n      tag_64\n      swap2\n      swap1\n      tag_65\n      jump\t// in\n    tag_64:\n      mload(0x40)\n      dup1\n      swap2\n      sub\n      swap1\n      return\n        /* \"contracts/KYCManagerV2.sol\":1426:1577  function setAvailableOfNFTId(uint256 NFTId, bool _available)... */\n    tag_11:\n      callvalue\n      dup1\n      iszero\n      tag_66\n      jumpi\n      0x00\n      dup1\n      revert\n    tag_66:\n      pop\n      tag_67\n      0x04\n      dup1\n      calldatasize\n      sub\n      dup2\n      add\n      swap1\n      tag_68\n      swap2\n      swap1\n      tag_69\n      jump\t// in\n    tag_68:\n      tag_70\n      jump\t// in\n    tag_67:\n      stop\n        /* \"contracts/KYCManagerV2.sol\":2671:2884  function userDataOfManager(address managerAddr)... */\n    tag_12:\n      callvalue\n      dup1\n      iszero\n      tag_71\n      jumpi\n      0x00\n      dup1\n      revert\n    tag_71:\n      pop\n      tag_72\n      0x04\n      dup1\n      calldatasize\n      sub\n      dup2\n      add\n      swap1\n      tag_73\n      swap2\n      swap1\n      tag_35\n      jump\t// in\n    tag_73:\n      tag_74\n      jump\t// in\n    tag_72:\n      mload(0x40)\n      tag_75\n      swap2\n      swap1\n      tag_65\n      jump\t// in\n    tag_75:\n      mload(0x40)\n      dup1\n      swap2\n      sub\n      swap1\n      return\n        /* \"contracts/KYCManagerV2.sol\":3011:3191  function NFTIdOfManager(address managerAddr) public view returns (uint256) {... */\n    tag_13:\n      callvalue\n      dup1\n      iszero\n      tag_76\n      jumpi\n      0x00\n      dup1\n      revert\n    tag_76:\n      pop\n      tag_77\n      0x04\n      dup1\n      calldatasize\n      sub\n      dup2\n      add\n      swap1\n      tag_78\n      swap2\n      swap1\n      tag_35\n      jump\t// in\n    tag_78:\n      tag_79\n      jump\t// in\n    tag_77:\n      mload(0x40)\n      tag_80\n      swap2\n      swap1\n      tag_81\n      jump\t// in\n    tag_80:\n      mload(0x40)\n      dup1\n      swap2\n      sub\n      swap1\n      return\n        /* \"contracts/KYCManagerV2.sol\":956:1420  function createKYCNFT(... */\n    tag_14:\n      callvalue\n      dup1\n      iszero\n      tag_82\n      jumpi\n      0x00\n      dup1\n      revert\n    tag_82:\n      pop\n      tag_83\n      0x04\n      dup1\n      calldatasize\n      sub\n      dup2\n      add\n      swap1\n      tag_84\n      swap2\n      swap1\n      tag_85\n      jump\t// in\n    tag_84:\n      tag_86\n      jump\t// in\n    tag_83:\n      stop\n        /* \"contracts/KYCManagerV2.sol\":3931:4327  function verifyKYCAuthProof(... */\n    tag_15:\n      callvalue\n      dup1\n      iszero\n      tag_87\n      jumpi\n      0x00\n      dup1\n      revert\n    tag_87:\n      pop\n      tag_88\n      0x04\n      dup1\n      calldatasize\n      sub\n      dup2\n      add\n      swap1\n      tag_89\n      swap2\n      swap1\n      tag_90\n      jump\t// in\n    tag_89:\n      tag_91\n      jump\t// in\n    tag_88:\n      mload(0x40)\n      tag_92\n      swap2\n      swap1\n      tag_31\n      jump\t// in\n    tag_92:\n      mload(0x40)\n      dup1\n      swap2\n      sub\n      swap1\n      return\n        /* \"@openzeppelin/contracts/access/Ownable.sol\":2081:2279  function transferOwnership(address newOwner) public virtual onlyOwner {... */\n    tag_16:\n      callvalue\n      dup1\n      iszero\n      tag_93\n      jumpi\n      0x00\n      dup1\n      revert\n    tag_93:\n      pop\n      tag_94\n      0x04\n      dup1\n      calldatasize\n      sub\n      dup2\n      add\n      swap1\n      tag_95\n      swap2\n      swap1\n      tag_35\n      jump\t// in\n    tag_95:\n      tag_96\n      jump\t// in\n    tag_94:\n      stop\n        /* \"contracts/KYCManagerV2.sol\":780:950  function setKYCNFTContractAddress(address _kycnftContractAddr)... */\n    tag_17:\n      callvalue\n      dup1\n      iszero\n      tag_97\n      jumpi\n      0x00\n      dup1\n      revert\n    tag_97:\n      pop\n      tag_98\n      0x04\n      dup1\n      calldatasize\n      sub\n      dup2\n      add\n      swap1\n      tag_99\n      swap2\n      swap1\n      tag_35\n      jump\t// in\n    tag_99:\n      tag_100\n      jump\t// in\n    tag_98:\n      stop\n        /* \"contracts/KYCManagerV2.sol\":2890:3005  function availableOfNFTId(uint256 NFTId) public view returns (bool) {... */\n    tag_29:\n        /* \"contracts/KYCManagerV2.sol\":2952:2956  bool */\n      0x00\n        /* \"contracts/KYCManagerV2.sol\":2975:2991  NFTIdToAvailable */\n      0x04\n        /* \"contracts/KYCManagerV2.sol\":2975:2998  NFTIdToAvailable[NFTId] */\n      0x00\n        /* \"contracts/KYCManagerV2.sol\":2992:2997  NFTId */\n      dup4\n        /* \"contracts/KYCManagerV2.sol\":2975:2998  NFTIdToAvailable[NFTId] */\n      dup2\n      mstore\n      0x20\n      add\n      swap1\n      dup2\n      mstore\n      0x20\n      add\n      0x00\n      keccak256\n      0x00\n      swap1\n      sload\n      swap1\n      0x0100\n      exp\n      swap1\n      div\n      0xff\n      and\n        /* \"contracts/KYCManagerV2.sol\":2968:2998  return NFTIdToAvailable[NFTId] */\n      swap1\n      pop\n        /* \"contracts/KYCManagerV2.sol\":2890:3005  function availableOfNFTId(uint256 NFTId) public view returns (bool) {... */\n      swap2\n      swap1\n      pop\n      jump\t// out\n        /* \"contracts/KYCManagerV2.sol\":1793:2023  function modifyManagerAddr(address newManager) public {... */\n    tag_36:\n        /* \"contracts/KYCManagerV2.sol\":1857:1881  UserData memory userdata */\n      0x00\n        /* \"contracts/KYCManagerV2.sol\":1884:1901  ManagerToUserData */\n      0x03\n        /* \"contracts/KYCManagerV2.sol\":1884:1913  ManagerToUserData[msg.sender] */\n      0x00\n        /* \"contracts/KYCManagerV2.sol\":1902:1912  msg.sender */\n      caller\n        /* \"contracts/KYCManagerV2.sol\":1884:1913  ManagerToUserData[msg.sender] */\n      0xffffffffffffffffffffffffffffffffffffffff\n      and\n      0xffffffffffffffffffffffffffffffffffffffff\n      and\n      dup2\n      mstore\n      0x20\n      add\n      swap1\n      dup2\n      mstore\n      0x20\n      add\n      0x00\n      keccak256\n        /* \"contracts/KYCManagerV2.sol\":1857:1913  UserData memory userdata = ManagerToUserData[msg.sender] */\n      mload(0x40)\n      dup1\n      0x40\n      add\n      0x40\n      mstore\n      swap1\n      dup2\n      0x00\n      dup3\n      add\n      sload\n      dup2\n      mstore\n      0x20\n      add\n      0x01\n      dup3\n      add\n      sload\n      dup2\n      mstore\n      pop\n      pop\n      swap1\n      pop\n        /* \"contracts/KYCManagerV2.sol\":1955:1963  userdata */\n      dup1\n        /* \"contracts/KYCManagerV2.sol\":1923:1940  ManagerToUserData */\n      0x03\n        /* \"contracts/KYCManagerV2.sol\":1923:1952  ManagerToUserData[newManager] */\n      0x00\n        /* \"contracts/KYCManagerV2.sol\":1941:1951  newManager */\n      dup5\n        /* \"contracts/KYCManagerV2.sol\":1923:1952  ManagerToUserData[newManager] */\n      0xffffffffffffffffffffffffffffffffffffffff\n      and\n      0xffffffffffffffffffffffffffffffffffffffff\n      and\n      dup2\n      mstore\n      0x20\n      add\n      swap1\n      dup2\n      mstore\n      0x20\n      add\n      0x00\n      keccak256\n        /* \"contracts/KYCManagerV2.sol\":1923:1963  ManagerToUserData[newManager] = userdata */\n      0x00\n      dup3\n      add\n      mload\n      dup2\n      0x00\n      add\n      sstore\n      0x20\n      dup3\n      add\n      mload\n      dup2\n      0x01\n      add\n      sstore\n      swap1\n      pop\n      pop\n        /* \"contracts/KYCManagerV2.sol\":2006:2016  newManager */\n      dup2\n        /* \"contracts/KYCManagerV2.sol\":1973:1987  NFTIdToManager */\n      0x02\n        /* \"contracts/KYCManagerV2.sol\":1973:2003  NFTIdToManager[userdata.NFTId] */\n      0x00\n        /* \"contracts/KYCManagerV2.sol\":1988:1996  userdata */\n      dup4\n        /* \"contracts/KYCManagerV2.sol\":1988:2002  userdata.NFTId */\n      0x00\n      add\n      mload\n        /* \"contracts/KYCManagerV2.sol\":1973:2003  NFTIdToManager[userdata.NFTId] */\n      dup2\n      mstore\n      0x20\n      add\n      swap1\n      dup2\n      mstore\n      0x20\n      add\n      0x00\n      keccak256\n      0x00\n        /* \"contracts/KYCManagerV2.sol\":1973:2016  NFTIdToManager[userdata.NFTId] = newManager */\n      0x0100\n      exp\n      dup2\n      sload\n      dup2\n      0xffffffffffffffffffffffffffffffffffffffff\n      mul\n      not\n      and\n      swap1\n      dup4\n      0xffffffffffffffffffffffffffffffffffffffff\n      and\n      mul\n      or\n      swap1\n      sstore\n      pop\n        /* \"contracts/KYCManagerV2.sol\":1847:2023  {... */\n      pop\n        /* \"contracts/KYCManagerV2.sol\":1793:2023  function modifyManagerAddr(address newManager) public {... */\n      pop\n      jump\t// out\n        /* \"contracts/KYCManagerV2.sol\":1615:1787  function initManagerAddr(uint256 NFTId, address manager) public onlyOwner {... */\n    tag_41:\n        /* \"@openzeppelin/contracts/access/Ownable.sol\":1094:1107  _checkOwner() */\n      tag_104\n        /* \"@openzeppelin/contracts/access/Ownable.sol\":1094:1105  _checkOwner */\n      tag_105\n        /* \"@openzeppelin/contracts/access/Ownable.sol\":1094:1107  _checkOwner() */\n      jump\t// in\n    tag_104:\n        /* \"contracts/KYCManagerV2.sol\":1723:1730  manager */\n      dup1\n        /* \"contracts/KYCManagerV2.sol\":1699:1713  NFTIdToManager */\n      0x02\n        /* \"contracts/KYCManagerV2.sol\":1699:1720  NFTIdToManager[NFTId] */\n      0x00\n        /* \"contracts/KYCManagerV2.sol\":1714:1719  NFTId */\n      dup5\n        /* \"contracts/KYCManagerV2.sol\":1699:1720  NFTIdToManager[NFTId] */\n      dup2\n      mstore\n      0x20\n      add\n      swap1\n      dup2\n      mstore\n      0x20\n      add\n      0x00\n      keccak256\n      0x00\n        /* \"contracts/KYCManagerV2.sol\":1699:1730  NFTIdToManager[NFTId] = manager */\n      0x0100\n      exp\n      dup2\n      sload\n      dup2\n      0xffffffffffffffffffffffffffffffffffffffff\n      mul\n      not\n      and\n      swap1\n      dup4\n      0xffffffffffffffffffffffffffffffffffffffff\n      and\n      mul\n      or\n      swap1\n      sstore\n      pop\n        /* \"contracts/KYCManagerV2.sol\":1775:1780  NFTId */\n      dup2\n        /* \"contracts/KYCManagerV2.sol\":1740:1757  ManagerToUserData */\n      0x03\n        /* \"contracts/KYCManagerV2.sol\":1740:1766  ManagerToUserData[manager] */\n      0x00\n        /* \"contracts/KYCManagerV2.sol\":1758:1765  manager */\n      dup4\n        /* \"contracts/KYCManagerV2.sol\":1740:1766  ManagerToUserData[manager] */\n      0xffffffffffffffffffffffffffffffffffffffff\n      and\n      0xffffffffffffffffffffffffffffffffffffffff\n      and\n      dup2\n      mstore\n      0x20\n      add\n      swap1\n      dup2\n      mstore\n      0x20\n      add\n      0x00\n      keccak256\n        /* \"contracts/KYCManagerV2.sol\":1740:1772  ManagerToUserData[manager].NFTId */\n      0x00\n      add\n        /* \"contracts/KYCManagerV2.sol\":1740:1780  ManagerToUserData[manager].NFTId = NFTId */\n      dup2\n      swap1\n      sstore\n      pop\n        /* \"contracts/KYCManagerV2.sol\":1615:1787  function initManagerAddr(uint256 NFTId, address manager) public onlyOwner {... */\n      pop\n      pop\n      jump\t// out\n        /* \"contracts/KYCManagerV2.sol\":2063:2238  function updateMerkleRoot(bytes32 newMerkleRoot) public {... */\n    tag_46:\n        /* \"contracts/KYCManagerV2.sol\":2129:2154  UserData storage userdata */\n      0x00\n        /* \"contracts/KYCManagerV2.sol\":2157:2174  ManagerToUserData */\n      0x03\n        /* \"contracts/KYCManagerV2.sol\":2157:2186  ManagerToUserData[msg.sender] */\n      0x00\n        /* \"contracts/KYCManagerV2.sol\":2175:2185  msg.sender */\n      caller\n        /* \"contracts/KYCManagerV2.sol\":2157:2186  ManagerToUserData[msg.sender] */\n      0xffffffffffffffffffffffffffffffffffffffff\n      and\n      0xffffffffffffffffffffffffffffffffffffffff\n      and\n      dup2\n      mstore\n      0x20\n      add\n      swap1\n      dup2\n      mstore\n      0x20\n      add\n      0x00\n      keccak256\n        /* \"contracts/KYCManagerV2.sol\":2129:2186  UserData storage userdata = ManagerToUserData[msg.sender] */\n      swap1\n      pop\n        /* \"contracts/KYCManagerV2.sol\":2218:2231  newMerkleRoot */\n      dup2\n        /* \"contracts/KYCManagerV2.sol\":2196:2204  userdata */\n      dup2\n        /* \"contracts/KYCManagerV2.sol\":2196:2215  userdata.merkleRoot */\n      0x01\n      add\n        /* \"contracts/KYCManagerV2.sol\":2196:2231  userdata.merkleRoot = newMerkleRoot */\n      dup2\n      swap1\n      sstore\n      pop\n        /* \"contracts/KYCManagerV2.sol\":2119:2238  {... */\n      pop\n        /* \"contracts/KYCManagerV2.sol\":2063:2238  function updateMerkleRoot(bytes32 newMerkleRoot) public {... */\n      pop\n      jump\t// out\n        /* \"contracts/KYCManagerV2.sol\":2272:2415  function managerOfNFTId(uint256 NFTId) public view returns (address) {... */\n    tag_50:\n        /* \"contracts/KYCManagerV2.sol\":2332:2339  address */\n      0x00\n        /* \"contracts/KYCManagerV2.sol\":2351:2363  address addr */\n      dup1\n        /* \"contracts/KYCManagerV2.sol\":2366:2380  NFTIdToManager */\n      0x02\n        /* \"contracts/KYCManagerV2.sol\":2366:2387  NFTIdToManager[NFTId] */\n      0x00\n        /* \"contracts/KYCManagerV2.sol\":2381:2386  NFTId */\n      dup5\n        /* \"contracts/KYCManagerV2.sol\":2366:2387  NFTIdToManager[NFTId] */\n      dup2\n      mstore\n      0x20\n      add\n      swap1\n      dup2\n      mstore\n      0x20\n      add\n      0x00\n      keccak256\n      0x00\n      swap1\n      sload\n      swap1\n      0x0100\n      exp\n      swap1\n      div\n      0xffffffffffffffffffffffffffffffffffffffff\n      and\n        /* \"contracts/KYCManagerV2.sol\":2351:2387  address addr = NFTIdToManager[NFTId] */\n      swap1\n      pop\n        /* \"contracts/KYCManagerV2.sol\":2404:2408  addr */\n      dup1\n        /* \"contracts/KYCManagerV2.sol\":2397:2408  return addr */\n      swap2\n      pop\n      pop\n        /* \"contracts/KYCManagerV2.sol\":2272:2415  function managerOfNFTId(uint256 NFTId) public view returns (address) {... */\n      swap2\n      swap1\n      pop\n      jump\t// out\n        /* \"@openzeppelin/contracts/access/Ownable.sol\":1831:1932  function renounceOwnership() public virtual onlyOwner {... */\n    tag_55:\n        /* \"@openzeppelin/contracts/access/Ownable.sol\":1094:1107  _checkOwner() */\n      tag_110\n        /* \"@openzeppelin/contracts/access/Ownable.sol\":1094:1105  _checkOwner */\n      tag_105\n        /* \"@openzeppelin/contracts/access/Ownable.sol\":1094:1107  _checkOwner() */\n      jump\t// in\n    tag_110:\n        /* \"@openzeppelin/contracts/access/Ownable.sol\":1895:1925  _transferOwnership(address(0)) */\n      tag_112\n        /* \"@openzeppelin/contracts/access/Ownable.sol\":1922:1923  0 */\n      0x00\n        /* \"@openzeppelin/contracts/access/Ownable.sol\":1895:1913  _transferOwnership */\n      tag_113\n        /* \"@openzeppelin/contracts/access/Ownable.sol\":1895:1925  _transferOwnership(address(0)) */\n      jump\t// in\n    tag_112:\n        /* \"@openzeppelin/contracts/access/Ownable.sol\":1831:1932  function renounceOwnership() public virtual onlyOwner {... */\n      jump\t// out\n        /* \"@openzeppelin/contracts/access/Ownable.sol\":1201:1286  function owner() public view virtual returns (address) {... */\n    tag_58:\n        /* \"@openzeppelin/contracts/access/Ownable.sol\":1247:1254  address */\n      0x00\n        /* \"@openzeppelin/contracts/access/Ownable.sol\":1273:1279  _owner */\n      dup1\n      0x00\n      swap1\n      sload\n      swap1\n      0x0100\n      exp\n      swap1\n      div\n      0xffffffffffffffffffffffffffffffffffffffff\n      and\n        /* \"@openzeppelin/contracts/access/Ownable.sol\":1266:1279  return _owner */\n      swap1\n      pop\n        /* \"@openzeppelin/contracts/access/Ownable.sol\":1201:1286  function owner() public view virtual returns (address) {... */\n      swap1\n      jump\t// out\n        /* \"contracts/KYCManagerV2.sol\":2421:2665  function userDataOfNFTId(uint256 NFTId)... */\n    tag_63:\n        /* \"contracts/KYCManagerV2.sol\":2506:2521  UserData memory */\n      tag_115\n      tag_116\n      jump\t// in\n    tag_115:\n        /* \"contracts/KYCManagerV2.sol\":2537:2549  address addr */\n      0x00\n        /* \"contracts/KYCManagerV2.sol\":2552:2566  NFTIdToManager */\n      0x02\n        /* \"contracts/KYCManagerV2.sol\":2552:2573  NFTIdToManager[NFTId] */\n      0x00\n        /* \"contracts/KYCManagerV2.sol\":2567:2572  NFTId */\n      dup5\n        /* \"contracts/KYCManagerV2.sol\":2552:2573  NFTIdToManager[NFTId] */\n      dup2\n      mstore\n      0x20\n      add\n      swap1\n      dup2\n      mstore\n      0x20\n      add\n      0x00\n      keccak256\n      0x00\n      swap1\n      sload\n      swap1\n      0x0100\n      exp\n      swap1\n      div\n      0xffffffffffffffffffffffffffffffffffffffff\n      and\n        /* \"contracts/KYCManagerV2.sol\":2537:2573  address addr = NFTIdToManager[NFTId] */\n      swap1\n      pop\n        /* \"contracts/KYCManagerV2.sol\":2583:2607  UserData memory userdata */\n      0x00\n        /* \"contracts/KYCManagerV2.sol\":2610:2627  ManagerToUserData */\n      0x03\n        /* \"contracts/KYCManagerV2.sol\":2610:2633  ManagerToUserData[addr] */\n      0x00\n        /* \"contracts/KYCManagerV2.sol\":2628:2632  addr */\n      dup4\n        /* \"contracts/KYCManagerV2.sol\":2610:2633  ManagerToUserData[addr] */\n      0xffffffffffffffffffffffffffffffffffffffff\n      and\n      0xffffffffffffffffffffffffffffffffffffffff\n      and\n      dup2\n      mstore\n      0x20\n      add\n      swap1\n      dup2\n      mstore\n      0x20\n      add\n      0x00\n      keccak256\n        /* \"contracts/KYCManagerV2.sol\":2583:2633  UserData memory userdata = ManagerToUserData[addr] */\n      mload(0x40)\n      dup1\n      0x40\n      add\n      0x40\n      mstore\n      swap1\n      dup2\n      0x00\n      dup3\n      add\n      sload\n      dup2\n      mstore\n      0x20\n      add\n      0x01\n      dup3\n      add\n      sload\n      dup2\n      mstore\n      pop\n      pop\n      swap1\n      pop\n        /* \"contracts/KYCManagerV2.sol\":2650:2658  userdata */\n      dup1\n        /* \"contracts/KYCManagerV2.sol\":2643:2658  return userdata */\n      swap3\n      pop\n      pop\n      pop\n        /* \"contracts/KYCManagerV2.sol\":2421:2665  function userDataOfNFTId(uint256 NFTId)... */\n      swap2\n      swap1\n      pop\n      jump\t// out\n        /* \"contracts/KYCManagerV2.sol\":1426:1577  function setAvailableOfNFTId(uint256 NFTId, bool _available)... */\n    tag_70:\n        /* \"@openzeppelin/contracts/access/Ownable.sol\":1094:1107  _checkOwner() */\n      tag_119\n        /* \"@openzeppelin/contracts/access/Ownable.sol\":1094:1105  _checkOwner */\n      tag_105\n        /* \"@openzeppelin/contracts/access/Ownable.sol\":1094:1107  _checkOwner() */\n      jump\t// in\n    tag_119:\n        /* \"contracts/KYCManagerV2.sol\":1560:1570  _available */\n      dup1\n        /* \"contracts/KYCManagerV2.sol\":1534:1550  NFTIdToAvailable */\n      0x04\n        /* \"contracts/KYCManagerV2.sol\":1534:1557  NFTIdToAvailable[NFTId] */\n      0x00\n        /* \"contracts/KYCManagerV2.sol\":1551:1556  NFTId */\n      dup5\n        /* \"contracts/KYCManagerV2.sol\":1534:1557  NFTIdToAvailable[NFTId] */\n      dup2\n      mstore\n      0x20\n      add\n      swap1\n      dup2\n      mstore\n      0x20\n      add\n      0x00\n      keccak256\n      0x00\n        /* \"contracts/KYCManagerV2.sol\":1534:1570  NFTIdToAvailable[NFTId] = _available */\n      0x0100\n      exp\n      dup2\n      sload\n      dup2\n      0xff\n      mul\n      not\n      and\n      swap1\n      dup4\n      iszero\n      iszero\n      mul\n      or\n      swap1\n      sstore\n      pop\n        /* \"contracts/KYCManagerV2.sol\":1426:1577  function setAvailableOfNFTId(uint256 NFTId, bool _available)... */\n      pop\n      pop\n      jump\t// out\n        /* \"contracts/KYCManagerV2.sol\":2671:2884  function userDataOfManager(address managerAddr)... */\n    tag_74:\n        /* \"contracts/KYCManagerV2.sol\":2764:2779  UserData memory */\n      tag_121\n      tag_116\n      jump\t// in\n    tag_121:\n        /* \"contracts/KYCManagerV2.sol\":2795:2819  UserData memory userdata */\n      0x00\n        /* \"contracts/KYCManagerV2.sol\":2822:2839  ManagerToUserData */\n      0x03\n        /* \"contracts/KYCManagerV2.sol\":2822:2852  ManagerToUserData[managerAddr] */\n      0x00\n        /* \"contracts/KYCManagerV2.sol\":2840:2851  managerAddr */\n      dup5\n        /* \"contracts/KYCManagerV2.sol\":2822:2852  ManagerToUserData[managerAddr] */\n      0xffffffffffffffffffffffffffffffffffffffff\n      and\n      0xffffffffffffffffffffffffffffffffffffffff\n      and\n      dup2\n      mstore\n      0x20\n      add\n      swap1\n      dup2\n      mstore\n      0x20\n      add\n      0x00\n      keccak256\n        /* \"contracts/KYCManagerV2.sol\":2795:2852  UserData memory userdata = ManagerToUserData[managerAddr] */\n      mload(0x40)\n      dup1\n      0x40\n      add\n      0x40\n      mstore\n      swap1\n      dup2\n      0x00\n      dup3\n      add\n      sload\n      dup2\n      mstore\n      0x20\n      add\n      0x01\n      dup3\n      add\n      sload\n      dup2\n      mstore\n      pop\n      pop\n      swap1\n      pop\n        /* \"contracts/KYCManagerV2.sol\":2869:2877  userdata */\n      dup1\n        /* \"contracts/KYCManagerV2.sol\":2862:2877  return userdata */\n      swap2\n      pop\n      pop\n        /* \"contracts/KYCManagerV2.sol\":2671:2884  function userDataOfManager(address managerAddr)... */\n      swap2\n      swap1\n      pop\n      jump\t// out\n        /* \"contracts/KYCManagerV2.sol\":3011:3191  function NFTIdOfManager(address managerAddr) public view returns (uint256) {... */\n    tag_79:\n        /* \"contracts/KYCManagerV2.sol\":3077:3084  uint256 */\n      0x00\n        /* \"contracts/KYCManagerV2.sol\":3096:3120  UserData memory userdata */\n      dup1\n        /* \"contracts/KYCManagerV2.sol\":3123:3140  ManagerToUserData */\n      0x03\n        /* \"contracts/KYCManagerV2.sol\":3123:3153  ManagerToUserData[managerAddr] */\n      0x00\n        /* \"contracts/KYCManagerV2.sol\":3141:3152  managerAddr */\n      dup5\n        /* \"contracts/KYCManagerV2.sol\":3123:3153  ManagerToUserData[managerAddr] */\n      0xffffffffffffffffffffffffffffffffffffffff\n      and\n      0xffffffffffffffffffffffffffffffffffffffff\n      and\n      dup2\n      mstore\n      0x20\n      add\n      swap1\n      dup2\n      mstore\n      0x20\n      add\n      0x00\n      keccak256\n        /* \"contracts/KYCManagerV2.sol\":3096:3153  UserData memory userdata = ManagerToUserData[managerAddr] */\n      mload(0x40)\n      dup1\n      0x40\n      add\n      0x40\n      mstore\n      swap1\n      dup2\n      0x00\n      dup3\n      add\n      sload\n      dup2\n      mstore\n      0x20\n      add\n      0x01\n      dup3\n      add\n      sload\n      dup2\n      mstore\n      pop\n      pop\n      swap1\n      pop\n        /* \"contracts/KYCManagerV2.sol\":3170:3178  userdata */\n      dup1\n        /* \"contracts/KYCManagerV2.sol\":3170:3184  userdata.NFTId */\n      0x00\n      add\n      mload\n        /* \"contracts/KYCManagerV2.sol\":3163:3184  return userdata.NFTId */\n      swap2\n      pop\n      pop\n        /* \"contracts/KYCManagerV2.sol\":3011:3191  function NFTIdOfManager(address managerAddr) public view returns (uint256) {... */\n      swap2\n      swap1\n      pop\n      jump\t// out\n        /* \"contracts/KYCManagerV2.sol\":956:1420  function createKYCNFT(... */\n    tag_86:\n        /* \"@openzeppelin/contracts/access/Ownable.sol\":1094:1107  _checkOwner() */\n      tag_125\n        /* \"@openzeppelin/contracts/access/Ownable.sol\":1094:1105  _checkOwner */\n      tag_105\n        /* \"@openzeppelin/contracts/access/Ownable.sol\":1094:1107  _checkOwner() */\n      jump\t// in\n    tag_125:\n        /* \"contracts/KYCManagerV2.sol\":1148:1169  address kycnftmanager */\n      0x00\n        /* \"contracts/KYCManagerV2.sol\":1182:1186  this */\n      address\n        /* \"contracts/KYCManagerV2.sol\":1148:1187  address kycnftmanager = (address)(this) */\n      swap1\n      pop\n        /* \"contracts/KYCManagerV2.sol\":1197:1210  uint256 NFTId */\n      0x00\n        /* \"contracts/KYCManagerV2.sol\":1213:1227  kycNFTContract */\n      0x01\n      0x00\n      swap1\n      sload\n      swap1\n      0x0100\n      exp\n      swap1\n      div\n      0xffffffffffffffffffffffffffffffffffffffff\n      and\n        /* \"contracts/KYCManagerV2.sol\":1213:1237  kycNFTContract.awardItem */\n      0xffffffffffffffffffffffffffffffffffffffff\n      and\n      0xcf378343\n        /* \"contracts/KYCManagerV2.sol\":1238:1251  kycnftmanager */\n      dup4\n        /* \"contracts/KYCManagerV2.sol\":1253:1261  tokenUrl */\n      dup8\n        /* \"contracts/KYCManagerV2.sol\":1213:1262  kycNFTContract.awardItem(kycnftmanager, tokenUrl) */\n      mload(0x40)\n      dup4\n      0xffffffff\n      and\n      0xe0\n      shl\n      dup2\n      mstore\n      0x04\n      add\n      tag_127\n      swap3\n      swap2\n      swap1\n      tag_128\n      jump\t// in\n    tag_127:\n      0x20\n      mload(0x40)\n      dup1\n      dup4\n      sub\n      dup2\n      0x00\n      dup8\n      dup1\n      extcodesize\n      iszero\n      dup1\n      iszero\n      tag_129\n      jumpi\n      0x00\n      dup1\n      revert\n    tag_129:\n      pop\n      gas\n      call\n      iszero\n      dup1\n      iszero\n      tag_131\n      jumpi\n      returndatasize\n      0x00\n      dup1\n      returndatacopy\n      revert(0x00, returndatasize)\n    tag_131:\n      pop\n      pop\n      pop\n      pop\n      mload(0x40)\n      returndatasize\n      not(0x1f)\n      0x1f\n      dup3\n      add\n      and\n      dup3\n      add\n      dup1\n      0x40\n      mstore\n      pop\n      dup2\n      add\n      swap1\n      tag_132\n      swap2\n      swap1\n      tag_133\n      jump\t// in\n    tag_132:\n        /* \"contracts/KYCManagerV2.sol\":1197:1262  uint256 NFTId = kycNFTContract.awardItem(kycnftmanager, tokenUrl) */\n      swap1\n      pop\n        /* \"contracts/KYCManagerV2.sol\":1272:1286  kycNFTContract */\n      0x01\n      0x00\n      swap1\n      sload\n      swap1\n      0x0100\n      exp\n      swap1\n      div\n      0xffffffffffffffffffffffffffffffffffffffff\n      and\n        /* \"contracts/KYCManagerV2.sol\":1272:1307  kycNFTContract.updateExpirationTime */\n      0xffffffffffffffffffffffffffffffffffffffff\n      and\n      0xe1b2e979\n        /* \"contracts/KYCManagerV2.sol\":1308:1313  NFTId */\n      dup3\n        /* \"contracts/KYCManagerV2.sol\":1315:1329  expirationTime */\n      dup6\n        /* \"contracts/KYCManagerV2.sol\":1272:1330  kycNFTContract.updateExpirationTime(NFTId, expirationTime) */\n      mload(0x40)\n      dup4\n      0xffffffff\n      and\n      0xe0\n      shl\n      dup2\n      mstore\n      0x04\n      add\n      tag_134\n      swap3\n      swap2\n      swap1\n      tag_135\n      jump\t// in\n    tag_134:\n      0x00\n      mload(0x40)\n      dup1\n      dup4\n      sub\n      dup2\n      0x00\n      dup8\n      dup1\n      extcodesize\n      iszero\n      dup1\n      iszero\n      tag_136\n      jumpi\n      0x00\n      dup1\n      revert\n    tag_136:\n      pop\n      gas\n      call\n      iszero\n      dup1\n      iszero\n      tag_138\n      jumpi\n      returndatasize\n      0x00\n      dup1\n      returndatacopy\n      revert(0x00, returndatasize)\n    tag_138:\n      pop\n      pop\n      pop\n      pop\n        /* \"contracts/KYCManagerV2.sol\":1340:1372  setAvailableOfNFTId(NFTId, true) */\n      tag_139\n        /* \"contracts/KYCManagerV2.sol\":1360:1365  NFTId */\n      dup2\n        /* \"contracts/KYCManagerV2.sol\":1367:1371  true */\n      0x01\n        /* \"contracts/KYCManagerV2.sol\":1340:1359  setAvailableOfNFTId */\n      tag_70\n        /* \"contracts/KYCManagerV2.sol\":1340:1372  setAvailableOfNFTId(NFTId, true) */\n      jump\t// in\n    tag_139:\n        /* \"contracts/KYCManagerV2.sol\":1382:1413  initManagerAddr(NFTId, manager) */\n      tag_140\n        /* \"contracts/KYCManagerV2.sol\":1398:1403  NFTId */\n      dup2\n        /* \"contracts/KYCManagerV2.sol\":1405:1412  manager */\n      dup6\n        /* \"contracts/KYCManagerV2.sol\":1382:1397  initManagerAddr */\n      tag_41\n        /* \"contracts/KYCManagerV2.sol\":1382:1413  initManagerAddr(NFTId, manager) */\n      jump\t// in\n    tag_140:\n        /* \"contracts/KYCManagerV2.sol\":1092:1420  {... */\n      pop\n      pop\n        /* \"contracts/KYCManagerV2.sol\":956:1420  function createKYCNFT(... */\n      pop\n      pop\n      pop\n      jump\t// out\n        /* \"contracts/KYCManagerV2.sol\":3931:4327  function verifyKYCAuthProof(... */\n    tag_91:\n        /* \"contracts/KYCManagerV2.sol\":4099:4103  bool */\n      0x00\n        /* \"contracts/KYCManagerV2.sol\":4115:4127  address addr */\n      dup1\n        /* \"contracts/KYCManagerV2.sol\":4130:4144  NFTIdToManager */\n      0x02\n        /* \"contracts/KYCManagerV2.sol\":4130:4151  NFTIdToManager[NFTId] */\n      0x00\n        /* \"contracts/KYCManagerV2.sol\":4145:4150  NFTId */\n      dup5\n        /* \"contracts/KYCManagerV2.sol\":4130:4151  NFTIdToManager[NFTId] */\n      dup2\n      mstore\n      0x20\n      add\n      swap1\n      dup2\n      mstore\n      0x20\n      add\n      0x00\n      keccak256\n      0x00\n      swap1\n      sload\n      swap1\n      0x0100\n      exp\n      swap1\n      div\n      0xffffffffffffffffffffffffffffffffffffffff\n      and\n        /* \"contracts/KYCManagerV2.sol\":4115:4151  address addr = NFTIdToManager[NFTId] */\n      swap1\n      pop\n        /* \"contracts/KYCManagerV2.sol\":4161:4185  UserData memory userdata */\n      0x00\n        /* \"contracts/KYCManagerV2.sol\":4188:4205  ManagerToUserData */\n      0x03\n        /* \"contracts/KYCManagerV2.sol\":4188:4211  ManagerToUserData[addr] */\n      0x00\n        /* \"contracts/KYCManagerV2.sol\":4206:4210  addr */\n      dup4\n        /* \"contracts/KYCManagerV2.sol\":4188:4211  ManagerToUserData[addr] */\n      0xffffffffffffffffffffffffffffffffffffffff\n      and\n      0xffffffffffffffffffffffffffffffffffffffff\n      and\n      dup2\n      mstore\n      0x20\n      add\n      swap1\n      dup2\n      mstore\n      0x20\n      add\n      0x00\n      keccak256\n        /* \"contracts/KYCManagerV2.sol\":4161:4211  UserData memory userdata = ManagerToUserData[addr] */\n      mload(0x40)\n      dup1\n      0x40\n      add\n      0x40\n      mstore\n      swap1\n      dup2\n      0x00\n      dup3\n      add\n      sload\n      dup2\n      mstore\n      0x20\n      add\n      0x01\n      dup3\n      add\n      sload\n      dup2\n      mstore\n      pop\n      pop\n      swap1\n      pop\n        /* \"contracts/KYCManagerV2.sol\":4221:4232  bool result */\n      0x00\n        /* \"contracts/KYCManagerV2.sol\":4235:4297  verifyMerkleProof(userdata.merkleRoot, leaf, proof, positions) */\n      tag_142\n        /* \"contracts/KYCManagerV2.sol\":4253:4261  userdata */\n      dup3\n        /* \"contracts/KYCManagerV2.sol\":4253:4272  userdata.merkleRoot */\n      0x20\n      add\n      mload\n        /* \"contracts/KYCManagerV2.sol\":4274:4278  leaf */\n      dup12\n        /* \"contracts/KYCManagerV2.sol\":4280:4285  proof */\n      dup12\n      dup12\n        /* \"contracts/KYCManagerV2.sol\":4287:4296  positions */\n      dup12\n      dup12\n        /* \"contracts/KYCManagerV2.sol\":4235:4252  verifyMerkleProof */\n      tag_143\n        /* \"contracts/KYCManagerV2.sol\":4235:4297  verifyMerkleProof(userdata.merkleRoot, leaf, proof, positions) */\n      jump\t// in\n    tag_142:\n        /* \"contracts/KYCManagerV2.sol\":4221:4297  bool result = verifyMerkleProof(userdata.merkleRoot, leaf, proof, positions) */\n      swap1\n      pop\n        /* \"contracts/KYCManagerV2.sol\":4314:4320  result */\n      dup1\n        /* \"contracts/KYCManagerV2.sol\":4307:4320  return result */\n      swap4\n      pop\n      pop\n      pop\n      pop\n        /* \"contracts/KYCManagerV2.sol\":3931:4327  function verifyKYCAuthProof(... */\n      swap7\n      swap6\n      pop\n      pop\n      pop\n      pop\n      pop\n      pop\n      jump\t// out\n        /* \"@openzeppelin/contracts/access/Ownable.sol\":2081:2279  function transferOwnership(address newOwner) public virtual onlyOwner {... */\n    tag_96:\n        /* \"@openzeppelin/contracts/access/Ownable.sol\":1094:1107  _checkOwner() */\n      tag_145\n        /* \"@openzeppelin/contracts/access/Ownable.sol\":1094:1105  _checkOwner */\n      tag_105\n        /* \"@openzeppelin/contracts/access/Ownable.sol\":1094:1107  _checkOwner() */\n      jump\t// in\n    tag_145:\n        /* \"@openzeppelin/contracts/access/Ownable.sol\":2189:2190  0 */\n      0x00\n        /* \"@openzeppelin/contracts/access/Ownable.sol\":2169:2191  newOwner != address(0) */\n      0xffffffffffffffffffffffffffffffffffffffff\n      and\n        /* \"@openzeppelin/contracts/access/Ownable.sol\":2169:2177  newOwner */\n      dup2\n        /* \"@openzeppelin/contracts/access/Ownable.sol\":2169:2191  newOwner != address(0) */\n      0xffffffffffffffffffffffffffffffffffffffff\n      and\n      eq\n      iszero\n        /* \"@openzeppelin/contracts/access/Ownable.sol\":2161:2234  require(newOwner != address(0), \"Ownable: new owner is the zero address\") */\n      tag_147\n      jumpi\n      mload(0x40)\n      0x08c379a000000000000000000000000000000000000000000000000000000000\n      dup2\n      mstore\n      0x04\n      add\n      tag_148\n      swap1\n      tag_149\n      jump\t// in\n    tag_148:\n      mload(0x40)\n      dup1\n      swap2\n      sub\n      swap1\n      revert\n    tag_147:\n        /* \"@openzeppelin/contracts/access/Ownable.sol\":2244:2272  _transferOwnership(newOwner) */\n      tag_150\n        /* \"@openzeppelin/contracts/access/Ownable.sol\":2263:2271  newOwner */\n      dup2\n        /* \"@openzeppelin/contracts/access/Ownable.sol\":2244:2262  _transferOwnership */\n      tag_113\n        /* \"@openzeppelin/contracts/access/Ownable.sol\":2244:2272  _transferOwnership(newOwner) */\n      jump\t// in\n    tag_150:\n        /* \"@openzeppelin/contracts/access/Ownable.sol\":2081:2279  function transferOwnership(address newOwner) public virtual onlyOwner {... */\n      pop\n      jump\t// out\n        /* \"contracts/KYCManagerV2.sol\":780:950  function setKYCNFTContractAddress(address _kycnftContractAddr)... */\n    tag_100:\n        /* \"@openzeppelin/contracts/access/Ownable.sol\":1094:1107  _checkOwner() */\n      tag_152\n        /* \"@openzeppelin/contracts/access/Ownable.sol\":1094:1105  _checkOwner */\n      tag_105\n        /* \"@openzeppelin/contracts/access/Ownable.sol\":1094:1107  _checkOwner() */\n      jump\t// in\n    tag_152:\n        /* \"contracts/KYCManagerV2.sol\":923:942  _kycnftContractAddr */\n      dup1\n        /* \"contracts/KYCManagerV2.sol\":890:904  kycNFTContract */\n      0x01\n      0x00\n        /* \"contracts/KYCManagerV2.sol\":890:943  kycNFTContract = KYCNFTInterface(_kycnftContractAddr) */\n      0x0100\n      exp\n      dup2\n      sload\n      dup2\n      0xffffffffffffffffffffffffffffffffffffffff\n      mul\n      not\n      and\n      swap1\n      dup4\n      0xffffffffffffffffffffffffffffffffffffffff\n      and\n      mul\n      or\n      swap1\n      sstore\n      pop\n        /* \"contracts/KYCManagerV2.sol\":780:950  function setKYCNFTContractAddress(address _kycnftContractAddr)... */\n      pop\n      jump\t// out\n        /* \"@openzeppelin/contracts/access/Ownable.sol\":1359:1489  function _checkOwner() internal view virtual {... */\n    tag_105:\n        /* \"@openzeppelin/contracts/access/Ownable.sol\":1433:1445  _msgSender() */\n      tag_155\n        /* \"@openzeppelin/contracts/access/Ownable.sol\":1433:1443  _msgSender */\n      tag_156\n        /* \"@openzeppelin/contracts/access/Ownable.sol\":1433:1445  _msgSender() */\n      jump\t// in\n    tag_155:\n        /* \"@openzeppelin/contracts/access/Ownable.sol\":1422:1445  owner() == _msgSender() */\n      0xffffffffffffffffffffffffffffffffffffffff\n      and\n        /* \"@openzeppelin/contracts/access/Ownable.sol\":1422:1429  owner() */\n      tag_157\n        /* \"@openzeppelin/contracts/access/Ownable.sol\":1422:1427  owner */\n      tag_58\n        /* \"@openzeppelin/contracts/access/Ownable.sol\":1422:1429  owner() */\n      jump\t// in\n    tag_157:\n        /* \"@openzeppelin/contracts/access/Ownable.sol\":1422:1445  owner() == _msgSender() */\n      0xffffffffffffffffffffffffffffffffffffffff\n      and\n      eq\n        /* \"@openzeppelin/contracts/access/Ownable.sol\":1414:1482  require(owner() == _msgSender(), \"Ownable: caller is not the owner\") */\n      tag_158\n      jumpi\n      mload(0x40)\n      0x08c379a000000000000000000000000000000000000000000000000000000000\n      dup2\n      mstore\n      0x04\n      add\n      tag_159\n      swap1\n      tag_160\n      jump\t// in\n    tag_159:\n      mload(0x40)\n      dup1\n      swap2\n      sub\n      swap1\n      revert\n    tag_158:\n        /* \"@openzeppelin/contracts/access/Ownable.sol\":1359:1489  function _checkOwner() internal view virtual {... */\n      jump\t// out\n        /* \"@openzeppelin/contracts/access/Ownable.sol\":2433:2620  function _transferOwnership(address newOwner) internal virtual {... */\n    tag_113:\n        /* \"@openzeppelin/contracts/access/Ownable.sol\":2506:2522  address oldOwner */\n      0x00\n        /* \"@openzeppelin/contracts/access/Ownable.sol\":2525:2531  _owner */\n      dup1\n      0x00\n      swap1\n      sload\n      swap1\n      0x0100\n      exp\n      swap1\n      div\n      0xffffffffffffffffffffffffffffffffffffffff\n      and\n        /* \"@openzeppelin/contracts/access/Ownable.sol\":2506:2531  address oldOwner = _owner */\n      swap1\n      pop\n        /* \"@openzeppelin/contracts/access/Ownable.sol\":2550:2558  newOwner */\n      dup2\n        /* \"@openzeppelin/contracts/access/Ownable.sol\":2541:2547  _owner */\n      0x00\n      dup1\n        /* \"@openzeppelin/contracts/access/Ownable.sol\":2541:2558  _owner = newOwner */\n      0x0100\n      exp\n      dup2\n      sload\n      dup2\n      0xffffffffffffffffffffffffffffffffffffffff\n      mul\n      not\n      and\n      swap1\n      dup4\n      0xffffffffffffffffffffffffffffffffffffffff\n      and\n      mul\n      or\n      swap1\n      sstore\n      pop\n        /* \"@openzeppelin/contracts/access/Ownable.sol\":2604:2612  newOwner */\n      dup2\n        /* \"@openzeppelin/contracts/access/Ownable.sol\":2573:2613  OwnershipTransferred(oldOwner, newOwner) */\n      0xffffffffffffffffffffffffffffffffffffffff\n      and\n        /* \"@openzeppelin/contracts/access/Ownable.sol\":2594:2602  oldOwner */\n      dup2\n        /* \"@openzeppelin/contracts/access/Ownable.sol\":2573:2613  OwnershipTransferred(oldOwner, newOwner) */\n      0xffffffffffffffffffffffffffffffffffffffff\n      and\n      0x8be0079c531659141344cd1fd0a4f28419497f9722a3daafe3b4186f6b6457e0\n      mload(0x40)\n      mload(0x40)\n      dup1\n      swap2\n      sub\n      swap1\n      log3\n        /* \"@openzeppelin/contracts/access/Ownable.sol\":2496:2620  {... */\n      pop\n        /* \"@openzeppelin/contracts/access/Ownable.sol\":2433:2620  function _transferOwnership(address newOwner) internal virtual {... */\n      pop\n      jump\t// out\n        /* \"contracts/KYCManagerV2.sol\":3231:3925  function verifyMerkleProof(... */\n    tag_143:\n        /* \"contracts/KYCManagerV2.sol\":3403:3407  bool */\n      0x00\n        /* \"contracts/KYCManagerV2.sol\":3419:3439  bytes32 computedHash */\n      dup1\n        /* \"contracts/KYCManagerV2.sol\":3442:3446  leaf */\n      dup7\n        /* \"contracts/KYCManagerV2.sol\":3419:3446  bytes32 computedHash = leaf */\n      swap1\n      pop\n        /* \"contracts/KYCManagerV2.sol\":3462:3471  uint256 i */\n      0x00\n        /* \"contracts/KYCManagerV2.sol\":3457:3881  for (uint256 i = 0; i < proof.length; i++) {... */\n    tag_163:\n        /* \"contracts/KYCManagerV2.sol\":3481:3486  proof */\n      dup7\n      dup7\n        /* \"contracts/KYCManagerV2.sol\":3481:3493  proof.length */\n      swap1\n      pop\n        /* \"contracts/KYCManagerV2.sol\":3477:3478  i */\n      dup2\n        /* \"contracts/KYCManagerV2.sol\":3477:3493  i < proof.length */\n      lt\n        /* \"contracts/KYCManagerV2.sol\":3457:3881  for (uint256 i = 0; i < proof.length; i++) {... */\n      iszero\n      tag_164\n      jumpi\n        /* \"contracts/KYCManagerV2.sol\":3514:3534  bytes32 proofElement */\n      0x00\n        /* \"contracts/KYCManagerV2.sol\":3537:3542  proof */\n      dup8\n      dup8\n        /* \"contracts/KYCManagerV2.sol\":3543:3544  i */\n      dup4\n        /* \"contracts/KYCManagerV2.sol\":3537:3545  proof[i] */\n      dup2\n      dup2\n      lt\n      tag_166\n      jumpi\n      tag_167\n      tag_168\n      jump\t// in\n    tag_167:\n    tag_166:\n      swap1\n      pop\n      0x20\n      mul\n      add\n      calldataload\n        /* \"contracts/KYCManagerV2.sol\":3514:3545  bytes32 proofElement = proof[i] */\n      swap1\n      pop\n        /* \"contracts/KYCManagerV2.sol\":3580:3581  1 */\n      0x01\n        /* \"contracts/KYCManagerV2.sol\":3564:3573  positions */\n      dup7\n      dup7\n        /* \"contracts/KYCManagerV2.sol\":3574:3575  i */\n      dup5\n        /* \"contracts/KYCManagerV2.sol\":3564:3576  positions[i] */\n      dup2\n      dup2\n      lt\n      tag_169\n      jumpi\n      tag_170\n      tag_168\n      jump\t// in\n    tag_170:\n    tag_169:\n      swap1\n      pop\n      0x20\n      mul\n      add\n      calldataload\n        /* \"contracts/KYCManagerV2.sol\":3564:3581  positions[i] == 1 */\n      eq\n        /* \"contracts/KYCManagerV2.sol\":3560:3871  if (positions[i] == 1) {... */\n      iszero\n      tag_171\n      jumpi\n        /* \"contracts/KYCManagerV2.sol\":3664:3676  computedHash */\n      dup3\n        /* \"contracts/KYCManagerV2.sol\":3678:3690  proofElement */\n      dup2\n        /* \"contracts/KYCManagerV2.sol\":3647:3691  abi.encodePacked(computedHash, proofElement) */\n      add(0x20, mload(0x40))\n      tag_172\n      swap3\n      swap2\n      swap1\n      tag_173\n      jump\t// in\n    tag_172:\n      mload(0x40)\n      0x20\n      dup2\n      dup4\n      sub\n      sub\n      dup2\n      mstore\n      swap1\n      0x40\n      mstore\n        /* \"contracts/KYCManagerV2.sol\":3616:3709  keccak256(... */\n      dup1\n      mload\n      swap1\n      0x20\n      add\n      keccak256\n        /* \"contracts/KYCManagerV2.sol\":3601:3709  computedHash = keccak256(... */\n      swap3\n      pop\n        /* \"contracts/KYCManagerV2.sol\":3560:3871  if (positions[i] == 1) {... */\n      jump(tag_174)\n    tag_171:\n        /* \"contracts/KYCManagerV2.sol\":3811:3823  proofElement */\n      dup1\n        /* \"contracts/KYCManagerV2.sol\":3825:3837  computedHash */\n      dup4\n        /* \"contracts/KYCManagerV2.sol\":3794:3838  abi.encodePacked(proofElement, computedHash) */\n      add(0x20, mload(0x40))\n      tag_175\n      swap3\n      swap2\n      swap1\n      tag_173\n      jump\t// in\n    tag_175:\n      mload(0x40)\n      0x20\n      dup2\n      dup4\n      sub\n      sub\n      dup2\n      mstore\n      swap1\n      0x40\n      mstore\n        /* \"contracts/KYCManagerV2.sol\":3763:3856  keccak256(... */\n      dup1\n      mload\n      swap1\n      0x20\n      add\n      keccak256\n        /* \"contracts/KYCManagerV2.sol\":3748:3856  computedHash = keccak256(... */\n      swap3\n      pop\n        /* \"contracts/KYCManagerV2.sol\":3560:3871  if (positions[i] == 1) {... */\n    tag_174:\n        /* \"contracts/KYCManagerV2.sol\":3500:3881  {... */\n      pop\n        /* \"contracts/KYCManagerV2.sol\":3495:3498  i++ */\n      dup1\n      dup1\n      tag_176\n      swap1\n      tag_177\n      jump\t// in\n    tag_176:\n      swap2\n      pop\n      pop\n        /* \"contracts/KYCManagerV2.sol\":3457:3881  for (uint256 i = 0; i < proof.length; i++) {... */\n      jump(tag_163)\n    tag_164:\n      pop\n        /* \"contracts/KYCManagerV2.sol\":3914:3918  root */\n      dup8\n        /* \"contracts/KYCManagerV2.sol\":3898:3910  computedHash */\n      dup2\n        /* \"contracts/KYCManagerV2.sol\":3898:3918  computedHash == root */\n      eq\n        /* \"contracts/KYCManagerV2.sol\":3891:3918  return computedHash == root */\n      swap2\n      pop\n      pop\n        /* \"contracts/KYCManagerV2.sol\":3231:3925  function verifyMerkleProof(... */\n      swap7\n      swap6\n      pop\n      pop\n      pop\n      pop\n      pop\n      pop\n      jump\t// out\n        /* \"@openzeppelin/contracts/utils/Context.sol\":640:736  function _msgSender() internal view virtual returns (address) {... */\n    tag_156:\n        /* \"@openzeppelin/contracts/utils/Context.sol\":693:700  address */\n      0x00\n        /* \"@openzeppelin/contracts/utils/Context.sol\":719:729  msg.sender */\n      caller\n        /* \"@openzeppelin/contracts/utils/Context.sol\":712:729  return msg.sender */\n      swap1\n      pop\n        /* \"@openzeppelin/contracts/utils/Context.sol\":640:736  function _msgSender() internal view virtual returns (address) {... */\n      swap1\n      jump\t// out\n    tag_116:\n      mload(0x40)\n      dup1\n      0x40\n      add\n      0x40\n      mstore\n      dup1\n      0x00\n      dup2\n      mstore\n      0x20\n      add\n      0x00\n      dup1\n      not\n      and\n      dup2\n      mstore\n      pop\n      swap1\n      jump\t// out\n        /* \"#utility.yul\":7:419   */\n    tag_180:\n        /* \"#utility.yul\":85:90   */\n      0x00\n        /* \"#utility.yul\":110:176   */\n      tag_182\n        /* \"#utility.yul\":126:175   */\n      tag_183\n        /* \"#utility.yul\":168:174   */\n      dup5\n        /* \"#utility.yul\":126:175   */\n      tag_184\n      jump\t// in\n    tag_183:\n        /* \"#utility.yul\":110:176   */\n      tag_185\n      jump\t// in\n    tag_182:\n        /* \"#utility.yul\":101:176   */\n      swap1\n      pop\n        /* \"#utility.yul\":199:205   */\n      dup3\n        /* \"#utility.yul\":192:197   */\n      dup2\n        /* \"#utility.yul\":185:206   */\n      mstore\n        /* \"#utility.yul\":237:241   */\n      0x20\n        /* \"#utility.yul\":230:235   */\n      dup2\n        /* \"#utility.yul\":226:242   */\n      add\n        /* \"#utility.yul\":275:278   */\n      dup5\n        /* \"#utility.yul\":266:272   */\n      dup5\n        /* \"#utility.yul\":261:264   */\n      dup5\n        /* \"#utility.yul\":257:273   */\n      add\n        /* \"#utility.yul\":254:279   */\n      gt\n        /* \"#utility.yul\":251:363   */\n      iszero\n      tag_186\n      jumpi\n        /* \"#utility.yul\":282:361   */\n      tag_187\n      tag_188\n      jump\t// in\n    tag_187:\n        /* \"#utility.yul\":251:363   */\n    tag_186:\n        /* \"#utility.yul\":372:413   */\n      tag_189\n        /* \"#utility.yul\":406:412   */\n      dup5\n        /* \"#utility.yul\":401:404   */\n      dup3\n        /* \"#utility.yul\":396:399   */\n      dup6\n        /* \"#utility.yul\":372:413   */\n      tag_190\n      jump\t// in\n    tag_189:\n        /* \"#utility.yul\":91:419   */\n      pop\n        /* \"#utility.yul\":7:419   */\n      swap4\n      swap3\n      pop\n      pop\n      pop\n      jump\t// out\n        /* \"#utility.yul\":425:564   */\n    tag_191:\n        /* \"#utility.yul\":471:476   */\n      0x00\n        /* \"#utility.yul\":509:515   */\n      dup2\n        /* \"#utility.yul\":496:516   */\n      calldataload\n        /* \"#utility.yul\":487:516   */\n      swap1\n      pop\n        /* \"#utility.yul\":525:558   */\n      tag_193\n        /* \"#utility.yul\":552:557   */\n      dup2\n        /* \"#utility.yul\":525:558   */\n      tag_194\n      jump\t// in\n    tag_193:\n        /* \"#utility.yul\":425:564   */\n      swap3\n      swap2\n      pop\n      pop\n      jump\t// out\n        /* \"#utility.yul\":587:1155   */\n    tag_195:\n        /* \"#utility.yul\":660:668   */\n      0x00\n        /* \"#utility.yul\":670:676   */\n      dup1\n        /* \"#utility.yul\":720:723   */\n      dup4\n        /* \"#utility.yul\":713:717   */\n      0x1f\n        /* \"#utility.yul\":705:711   */\n      dup5\n        /* \"#utility.yul\":701:718   */\n      add\n        /* \"#utility.yul\":697:724   */\n      slt\n        /* \"#utility.yul\":687:809   */\n      tag_197\n      jumpi\n        /* \"#utility.yul\":728:807   */\n      tag_198\n      tag_199\n      jump\t// in\n    tag_198:\n        /* \"#utility.yul\":687:809   */\n    tag_197:\n        /* \"#utility.yul\":841:847   */\n      dup3\n        /* \"#utility.yul\":828:848   */\n      calldataload\n        /* \"#utility.yul\":818:848   */\n      swap1\n      pop\n        /* \"#utility.yul\":871:889   */\n      0xffffffffffffffff\n        /* \"#utility.yul\":863:869   */\n      dup2\n        /* \"#utility.yul\":860:890   */\n      gt\n        /* \"#utility.yul\":857:974   */\n      iszero\n      tag_200\n      jumpi\n        /* \"#utility.yul\":893:972   */\n      tag_201\n      tag_202\n      jump\t// in\n    tag_201:\n        /* \"#utility.yul\":857:974   */\n    tag_200:\n        /* \"#utility.yul\":1007:1011   */\n      0x20\n        /* \"#utility.yul\":999:1005   */\n      dup4\n        /* \"#utility.yul\":995:1012   */\n      add\n        /* \"#utility.yul\":983:1012   */\n      swap2\n      pop\n        /* \"#utility.yul\":1061:1064   */\n      dup4\n        /* \"#utility.yul\":1053:1057   */\n      0x20\n        /* \"#utility.yul\":1045:1051   */\n      dup3\n        /* \"#utility.yul\":1041:1058   */\n      mul\n        /* \"#utility.yul\":1031:1039   */\n      dup4\n        /* \"#utility.yul\":1027:1059   */\n      add\n        /* \"#utility.yul\":1024:1065   */\n      gt\n        /* \"#utility.yul\":1021:1149   */\n      iszero\n      tag_203\n      jumpi\n        /* \"#utility.yul\":1068:1147   */\n      tag_204\n      tag_205\n      jump\t// in\n    tag_204:\n        /* \"#utility.yul\":1021:1149   */\n    tag_203:\n        /* \"#utility.yul\":587:1155   */\n      swap3\n      pop\n      swap3\n      swap1\n      pop\n      jump\t// out\n        /* \"#utility.yul\":1178:1746   */\n    tag_206:\n        /* \"#utility.yul\":1251:1259   */\n      0x00\n        /* \"#utility.yul\":1261:1267   */\n      dup1\n        /* \"#utility.yul\":1311:1314   */\n      dup4\n        /* \"#utility.yul\":1304:1308   */\n      0x1f\n        /* \"#utility.yul\":1296:1302   */\n      dup5\n        /* \"#utility.yul\":1292:1309   */\n      add\n        /* \"#utility.yul\":1288:1315   */\n      slt\n        /* \"#utility.yul\":1278:1400   */\n      tag_208\n      jumpi\n        /* \"#utility.yul\":1319:1398   */\n      tag_209\n      tag_199\n      jump\t// in\n    tag_209:\n        /* \"#utility.yul\":1278:1400   */\n    tag_208:\n        /* \"#utility.yul\":1432:1438   */\n      dup3\n        /* \"#utility.yul\":1419:1439   */\n      calldataload\n        /* \"#utility.yul\":1409:1439   */\n      swap1\n      pop\n        /* \"#utility.yul\":1462:1480   */\n      0xffffffffffffffff\n        /* \"#utility.yul\":1454:1460   */\n      dup2\n        /* \"#utility.yul\":1451:1481   */\n      gt\n        /* \"#utility.yul\":1448:1565   */\n      iszero\n      tag_210\n      jumpi\n        /* \"#utility.yul\":1484:1563   */\n      tag_211\n      tag_202\n      jump\t// in\n    tag_211:\n        /* \"#utility.yul\":1448:1565   */\n    tag_210:\n        /* \"#utility.yul\":1598:1602   */\n      0x20\n        /* \"#utility.yul\":1590:1596   */\n      dup4\n        /* \"#utility.yul\":1586:1603   */\n      add\n        /* \"#utility.yul\":1574:1603   */\n      swap2\n      pop\n        /* \"#utility.yul\":1652:1655   */\n      dup4\n        /* \"#utility.yul\":1644:1648   */\n      0x20\n        /* \"#utility.yul\":1636:1642   */\n      dup3\n        /* \"#utility.yul\":1632:1649   */\n      mul\n        /* \"#utility.yul\":1622:1630   */\n      dup4\n        /* \"#utility.yul\":1618:1650   */\n      add\n        /* \"#utility.yul\":1615:1656   */\n      gt\n        /* \"#utility.yul\":1612:1740   */\n      iszero\n      tag_212\n      jumpi\n        /* \"#utility.yul\":1659:1738   */\n      tag_213\n      tag_205\n      jump\t// in\n    tag_213:\n        /* \"#utility.yul\":1612:1740   */\n    tag_212:\n        /* \"#utility.yul\":1178:1746   */\n      swap3\n      pop\n      swap3\n      swap1\n      pop\n      jump\t// out\n        /* \"#utility.yul\":1752:1885   */\n    tag_214:\n        /* \"#utility.yul\":1795:1800   */\n      0x00\n        /* \"#utility.yul\":1833:1839   */\n      dup2\n        /* \"#utility.yul\":1820:1840   */\n      calldataload\n        /* \"#utility.yul\":1811:1840   */\n      swap1\n      pop\n        /* \"#utility.yul\":1849:1879   */\n      tag_216\n        /* \"#utility.yul\":1873:1878   */\n      dup2\n        /* \"#utility.yul\":1849:1879   */\n      tag_217\n      jump\t// in\n    tag_216:\n        /* \"#utility.yul\":1752:1885   */\n      swap3\n      swap2\n      pop\n      pop\n      jump\t// out\n        /* \"#utility.yul\":1891:2030   */\n    tag_218:\n        /* \"#utility.yul\":1937:1942   */\n      0x00\n        /* \"#utility.yul\":1975:1981   */\n      dup2\n        /* \"#utility.yul\":1962:1982   */\n      calldataload\n        /* \"#utility.yul\":1953:1982   */\n      swap1\n      pop\n        /* \"#utility.yul\":1991:2024   */\n      tag_220\n        /* \"#utility.yul\":2018:2023   */\n      dup2\n        /* \"#utility.yul\":1991:2024   */\n      tag_221\n      jump\t// in\n    tag_220:\n        /* \"#utility.yul\":1891:2030   */\n      swap3\n      swap2\n      pop\n      pop\n      jump\t// out\n        /* \"#utility.yul\":2050:2390   */\n    tag_222:\n        /* \"#utility.yul\":2106:2111   */\n      0x00\n        /* \"#utility.yul\":2155:2158   */\n      dup3\n        /* \"#utility.yul\":2148:2152   */\n      0x1f\n        /* \"#utility.yul\":2140:2146   */\n      dup4\n        /* \"#utility.yul\":2136:2153   */\n      add\n        /* \"#utility.yul\":2132:2159   */\n      slt\n        /* \"#utility.yul\":2122:2244   */\n      tag_224\n      jumpi\n        /* \"#utility.yul\":2163:2242   */\n      tag_225\n      tag_199\n      jump\t// in\n    tag_225:\n        /* \"#utility.yul\":2122:2244   */\n    tag_224:\n        /* \"#utility.yul\":2280:2286   */\n      dup2\n        /* \"#utility.yul\":2267:2287   */\n      calldataload\n        /* \"#utility.yul\":2305:2384   */\n      tag_226\n        /* \"#utility.yul\":2380:2383   */\n      dup5\n        /* \"#utility.yul\":2372:2378   */\n      dup3\n        /* \"#utility.yul\":2365:2369   */\n      0x20\n        /* \"#utility.yul\":2357:2363   */\n      dup7\n        /* \"#utility.yul\":2353:2370   */\n      add\n        /* \"#utility.yul\":2305:2384   */\n      tag_180\n      jump\t// in\n    tag_226:\n        /* \"#utility.yul\":2296:2384   */\n      swap2\n      pop\n        /* \"#utility.yul\":2112:2390   */\n      pop\n        /* \"#utility.yul\":2050:2390   */\n      swap3\n      swap2\n      pop\n      pop\n      jump\t// out\n        /* \"#utility.yul\":2396:2535   */\n    tag_227:\n        /* \"#utility.yul\":2442:2447   */\n      0x00\n        /* \"#utility.yul\":2480:2486   */\n      dup2\n        /* \"#utility.yul\":2467:2487   */\n      calldataload\n        /* \"#utility.yul\":2458:2487   */\n      swap1\n      pop\n        /* \"#utility.yul\":2496:2529   */\n      tag_229\n        /* \"#utility.yul\":2523:2528   */\n      dup2\n        /* \"#utility.yul\":2496:2529   */\n      tag_230\n      jump\t// in\n    tag_229:\n        /* \"#utility.yul\":2396:2535   */\n      swap3\n      swap2\n      pop\n      pop\n      jump\t// out\n        /* \"#utility.yul\":2541:2684   */\n    tag_231:\n        /* \"#utility.yul\":2598:2603   */\n      0x00\n        /* \"#utility.yul\":2629:2635   */\n      dup2\n        /* \"#utility.yul\":2623:2636   */\n      mload\n        /* \"#utility.yul\":2614:2636   */\n      swap1\n      pop\n        /* \"#utility.yul\":2645:2678   */\n      tag_233\n        /* \"#utility.yul\":2672:2677   */\n      dup2\n        /* \"#utility.yul\":2645:2678   */\n      tag_230\n      jump\t// in\n    tag_233:\n        /* \"#utility.yul\":2541:2684   */\n      swap3\n      swap2\n      pop\n      pop\n      jump\t// out\n        /* \"#utility.yul\":2690:3019   */\n    tag_35:\n        /* \"#utility.yul\":2749:2755   */\n      0x00\n        /* \"#utility.yul\":2798:2800   */\n      0x20\n        /* \"#utility.yul\":2786:2795   */\n      dup3\n        /* \"#utility.yul\":2777:2784   */\n      dup5\n        /* \"#utility.yul\":2773:2796   */\n      sub\n        /* \"#utility.yul\":2769:2801   */\n      slt\n        /* \"#utility.yul\":2766:2885   */\n      iszero\n      tag_235\n      jumpi\n        /* \"#utility.yul\":2804:2883   */\n      tag_236\n      tag_237\n      jump\t// in\n    tag_236:\n        /* \"#utility.yul\":2766:2885   */\n    tag_235:\n        /* \"#utility.yul\":2924:2925   */\n      0x00\n        /* \"#utility.yul\":2949:3002   */\n      tag_238\n        /* \"#utility.yul\":2994:3001   */\n      dup5\n        /* \"#utility.yul\":2985:2991   */\n      dup3\n        /* \"#utility.yul\":2974:2983   */\n      dup6\n        /* \"#utility.yul\":2970:2992   */\n      add\n        /* \"#utility.yul\":2949:3002   */\n      tag_191\n      jump\t// in\n    tag_238:\n        /* \"#utility.yul\":2939:3002   */\n      swap2\n      pop\n        /* \"#utility.yul\":2895:3012   */\n      pop\n        /* \"#utility.yul\":2690:3019   */\n      swap3\n      swap2\n      pop\n      pop\n      jump\t// out\n        /* \"#utility.yul\":3025:3354   */\n    tag_45:\n        /* \"#utility.yul\":3084:3090   */\n      0x00\n        /* \"#utility.yul\":3133:3135   */\n      0x20\n        /* \"#utility.yul\":3121:3130   */\n      dup3\n        /* \"#utility.yul\":3112:3119   */\n      dup5\n        /* \"#utility.yul\":3108:3131   */\n      sub\n        /* \"#utility.yul\":3104:3136   */\n      slt\n        /* \"#utility.yul\":3101:3220   */\n      iszero\n      tag_240\n      jumpi\n        /* \"#utility.yul\":3139:3218   */\n      tag_241\n      tag_237\n      jump\t// in\n    tag_241:\n        /* \"#utility.yul\":3101:3220   */\n    tag_240:\n        /* \"#utility.yul\":3259:3260   */\n      0x00\n        /* \"#utility.yul\":3284:3337   */\n      tag_242\n        /* \"#utility.yul\":3329:3336   */\n      dup5\n        /* \"#utility.yul\":3320:3326   */\n      dup3\n        /* \"#utility.yul\":3309:3318   */\n      dup6\n        /* \"#utility.yul\":3305:3327   */\n      add\n        /* \"#utility.yul\":3284:3337   */\n      tag_218\n      jump\t// in\n    tag_242:\n        /* \"#utility.yul\":3274:3337   */\n      swap2\n      pop\n        /* \"#utility.yul\":3230:3347   */\n      pop\n        /* \"#utility.yul\":3025:3354   */\n      swap3\n      swap2\n      pop\n      pop\n      jump\t// out\n        /* \"#utility.yul\":3360:4585   */\n    tag_90:\n        /* \"#utility.yul\":3500:3506   */\n      0x00\n        /* \"#utility.yul\":3508:3514   */\n      dup1\n        /* \"#utility.yul\":3516:3522   */\n      0x00\n        /* \"#utility.yul\":3524:3530   */\n      dup1\n        /* \"#utility.yul\":3532:3538   */\n      0x00\n        /* \"#utility.yul\":3540:3546   */\n      dup1\n        /* \"#utility.yul\":3589:3592   */\n      0x80\n        /* \"#utility.yul\":3577:3586   */\n      dup8\n        /* \"#utility.yul\":3568:3575   */\n      dup10\n        /* \"#utility.yul\":3564:3587   */\n      sub\n        /* \"#utility.yul\":3560:3593   */\n      slt\n        /* \"#utility.yul\":3557:3677   */\n      iszero\n      tag_244\n      jumpi\n        /* \"#utility.yul\":3596:3675   */\n      tag_245\n      tag_237\n      jump\t// in\n    tag_245:\n        /* \"#utility.yul\":3557:3677   */\n    tag_244:\n        /* \"#utility.yul\":3716:3717   */\n      0x00\n        /* \"#utility.yul\":3741:3794   */\n      tag_246\n        /* \"#utility.yul\":3786:3793   */\n      dup10\n        /* \"#utility.yul\":3777:3783   */\n      dup3\n        /* \"#utility.yul\":3766:3775   */\n      dup11\n        /* \"#utility.yul\":3762:3784   */\n      add\n        /* \"#utility.yul\":3741:3794   */\n      tag_218\n      jump\t// in\n    tag_246:\n        /* \"#utility.yul\":3731:3794   */\n      swap7\n      pop\n        /* \"#utility.yul\":3687:3804   */\n      pop\n        /* \"#utility.yul\":3871:3873   */\n      0x20\n        /* \"#utility.yul\":3860:3869   */\n      dup8\n        /* \"#utility.yul\":3856:3874   */\n      add\n        /* \"#utility.yul\":3843:3875   */\n      calldataload\n        /* \"#utility.yul\":3902:3920   */\n      0xffffffffffffffff\n        /* \"#utility.yul\":3894:3900   */\n      dup2\n        /* \"#utility.yul\":3891:3921   */\n      gt\n        /* \"#utility.yul\":3888:4005   */\n      iszero\n      tag_247\n      jumpi\n        /* \"#utility.yul\":3924:4003   */\n      tag_248\n      tag_249\n      jump\t// in\n    tag_248:\n        /* \"#utility.yul\":3888:4005   */\n    tag_247:\n        /* \"#utility.yul\":4037:4117   */\n      tag_250\n        /* \"#utility.yul\":4109:4116   */\n      dup10\n        /* \"#utility.yul\":4100:4106   */\n      dup3\n        /* \"#utility.yul\":4089:4098   */\n      dup11\n        /* \"#utility.yul\":4085:4107   */\n      add\n        /* \"#utility.yul\":4037:4117   */\n      tag_195\n      jump\t// in\n    tag_250:\n        /* \"#utility.yul\":4019:4117   */\n      swap6\n      pop\n      swap6\n      pop\n        /* \"#utility.yul\":3814:4127   */\n      pop\n        /* \"#utility.yul\":4194:4196   */\n      0x40\n        /* \"#utility.yul\":4183:4192   */\n      dup8\n        /* \"#utility.yul\":4179:4197   */\n      add\n        /* \"#utility.yul\":4166:4198   */\n      calldataload\n        /* \"#utility.yul\":4225:4243   */\n      0xffffffffffffffff\n        /* \"#utility.yul\":4217:4223   */\n      dup2\n        /* \"#utility.yul\":4214:4244   */\n      gt\n        /* \"#utility.yul\":4211:4328   */\n      iszero\n      tag_251\n      jumpi\n        /* \"#utility.yul\":4247:4326   */\n      tag_252\n      tag_249\n      jump\t// in\n    tag_252:\n        /* \"#utility.yul\":4211:4328   */\n    tag_251:\n        /* \"#utility.yul\":4360:4440   */\n      tag_253\n        /* \"#utility.yul\":4432:4439   */\n      dup10\n        /* \"#utility.yul\":4423:4429   */\n      dup3\n        /* \"#utility.yul\":4412:4421   */\n      dup11\n        /* \"#utility.yul\":4408:4430   */\n      add\n        /* \"#utility.yul\":4360:4440   */\n      tag_206\n      jump\t// in\n    tag_253:\n        /* \"#utility.yul\":4342:4440   */\n      swap4\n      pop\n      swap4\n      pop\n        /* \"#utility.yul\":4137:4450   */\n      pop\n        /* \"#utility.yul\":4489:4491   */\n      0x60\n        /* \"#utility.yul\":4515:4568   */\n      tag_254\n        /* \"#utility.yul\":4560:4567   */\n      dup10\n        /* \"#utility.yul\":4551:4557   */\n      dup3\n        /* \"#utility.yul\":4540:4549   */\n      dup11\n        /* \"#utility.yul\":4536:4558   */\n      add\n        /* \"#utility.yul\":4515:4568   */\n      tag_227\n      jump\t// in\n    tag_254:\n        /* \"#utility.yul\":4505:4568   */\n      swap2\n      pop\n        /* \"#utility.yul\":4460:4578   */\n      pop\n        /* \"#utility.yul\":3360:4585   */\n      swap3\n      swap6\n      pop\n      swap3\n      swap6\n      pop\n      swap3\n      swap6\n      jump\t// out\n        /* \"#utility.yul\":4591:5390   */\n    tag_85:\n        /* \"#utility.yul\":4678:4684   */\n      0x00\n        /* \"#utility.yul\":4686:4692   */\n      dup1\n        /* \"#utility.yul\":4694:4700   */\n      0x00\n        /* \"#utility.yul\":4743:4745   */\n      0x60\n        /* \"#utility.yul\":4731:4740   */\n      dup5\n        /* \"#utility.yul\":4722:4729   */\n      dup7\n        /* \"#utility.yul\":4718:4741   */\n      sub\n        /* \"#utility.yul\":4714:4746   */\n      slt\n        /* \"#utility.yul\":4711:4830   */\n      iszero\n      tag_256\n      jumpi\n        /* \"#utility.yul\":4749:4828   */\n      tag_257\n      tag_237\n      jump\t// in\n    tag_257:\n        /* \"#utility.yul\":4711:4830   */\n    tag_256:\n        /* \"#utility.yul\":4897:4898   */\n      0x00\n        /* \"#utility.yul\":4886:4895   */\n      dup5\n        /* \"#utility.yul\":4882:4899   */\n      add\n        /* \"#utility.yul\":4869:4900   */\n      calldataload\n        /* \"#utility.yul\":4927:4945   */\n      0xffffffffffffffff\n        /* \"#utility.yul\":4919:4925   */\n      dup2\n        /* \"#utility.yul\":4916:4946   */\n      gt\n        /* \"#utility.yul\":4913:5030   */\n      iszero\n      tag_258\n      jumpi\n        /* \"#utility.yul\":4949:5028   */\n      tag_259\n      tag_249\n      jump\t// in\n    tag_259:\n        /* \"#utility.yul\":4913:5030   */\n    tag_258:\n        /* \"#utility.yul\":5054:5117   */\n      tag_260\n        /* \"#utility.yul\":5109:5116   */\n      dup7\n        /* \"#utility.yul\":5100:5106   */\n      dup3\n        /* \"#utility.yul\":5089:5098   */\n      dup8\n        /* \"#utility.yul\":5085:5107   */\n      add\n        /* \"#utility.yul\":5054:5117   */\n      tag_222\n      jump\t// in\n    tag_260:\n        /* \"#utility.yul\":5044:5117   */\n      swap4\n      pop\n        /* \"#utility.yul\":4840:5127   */\n      pop\n        /* \"#utility.yul\":5166:5168   */\n      0x20\n        /* \"#utility.yul\":5192:5245   */\n      tag_261\n        /* \"#utility.yul\":5237:5244   */\n      dup7\n        /* \"#utility.yul\":5228:5234   */\n      dup3\n        /* \"#utility.yul\":5217:5226   */\n      dup8\n        /* \"#utility.yul\":5213:5235   */\n      add\n        /* \"#utility.yul\":5192:5245   */\n      tag_191\n      jump\t// in\n    tag_261:\n        /* \"#utility.yul\":5182:5245   */\n      swap3\n      pop\n        /* \"#utility.yul\":5137:5255   */\n      pop\n        /* \"#utility.yul\":5294:5296   */\n      0x40\n        /* \"#utility.yul\":5320:5373   */\n      tag_262\n        /* \"#utility.yul\":5365:5372   */\n      dup7\n        /* \"#utility.yul\":5356:5362   */\n      dup3\n        /* \"#utility.yul\":5345:5354   */\n      dup8\n        /* \"#utility.yul\":5341:5363   */\n      add\n        /* \"#utility.yul\":5320:5373   */\n      tag_227\n      jump\t// in\n    tag_262:\n        /* \"#utility.yul\":5310:5373   */\n      swap2\n      pop\n        /* \"#utility.yul\":5265:5383   */\n      pop\n        /* \"#utility.yul\":4591:5390   */\n      swap3\n      pop\n      swap3\n      pop\n      swap3\n      jump\t// out\n        /* \"#utility.yul\":5396:5725   */\n    tag_28:\n        /* \"#utility.yul\":5455:5461   */\n      0x00\n        /* \"#utility.yul\":5504:5506   */\n      0x20\n        /* \"#utility.yul\":5492:5501   */\n      dup3\n        /* \"#utility.yul\":5483:5490   */\n      dup5\n        /* \"#utility.yul\":5479:5502   */\n      sub\n        /* \"#utility.yul\":5475:5507   */\n      slt\n        /* \"#utility.yul\":5472:5591   */\n      iszero\n      tag_264\n      jumpi\n        /* \"#utility.yul\":5510:5589   */\n      tag_265\n      tag_237\n      jump\t// in\n    tag_265:\n        /* \"#utility.yul\":5472:5591   */\n    tag_264:\n        /* \"#utility.yul\":5630:5631   */\n      0x00\n        /* \"#utility.yul\":5655:5708   */\n      tag_266\n        /* \"#utility.yul\":5700:5707   */\n      dup5\n        /* \"#utility.yul\":5691:5697   */\n      dup3\n        /* \"#utility.yul\":5680:5689   */\n      dup6\n        /* \"#utility.yul\":5676:5698   */\n      add\n        /* \"#utility.yul\":5655:5708   */\n      tag_227\n      jump\t// in\n    tag_266:\n        /* \"#utility.yul\":5645:5708   */\n      swap2\n      pop\n        /* \"#utility.yul\":5601:5718   */\n      pop\n        /* \"#utility.yul\":5396:5725   */\n      swap3\n      swap2\n      pop\n      pop\n      jump\t// out\n        /* \"#utility.yul\":5731:6082   */\n    tag_133:\n        /* \"#utility.yul\":5801:5807   */\n      0x00\n        /* \"#utility.yul\":5850:5852   */\n      0x20\n        /* \"#utility.yul\":5838:5847   */\n      dup3\n        /* \"#utility.yul\":5829:5836   */\n      dup5\n        /* \"#utility.yul\":5825:5848   */\n      sub\n        /* \"#utility.yul\":5821:5853   */\n      slt\n        /* \"#utility.yul\":5818:5937   */\n      iszero\n      tag_268\n      jumpi\n        /* \"#utility.yul\":5856:5935   */\n      tag_269\n      tag_237\n      jump\t// in\n    tag_269:\n        /* \"#utility.yul\":5818:5937   */\n    tag_268:\n        /* \"#utility.yul\":5976:5977   */\n      0x00\n        /* \"#utility.yul\":6001:6065   */\n      tag_270\n        /* \"#utility.yul\":6057:6064   */\n      dup5\n        /* \"#utility.yul\":6048:6054   */\n      dup3\n        /* \"#utility.yul\":6037:6046   */\n      dup6\n        /* \"#utility.yul\":6033:6055   */\n      add\n        /* \"#utility.yul\":6001:6065   */\n      tag_231\n      jump\t// in\n    tag_270:\n        /* \"#utility.yul\":5991:6065   */\n      swap2\n      pop\n        /* \"#utility.yul\":5947:6075   */\n      pop\n        /* \"#utility.yul\":5731:6082   */\n      swap3\n      swap2\n      pop\n      pop\n      jump\t// out\n        /* \"#utility.yul\":6088:6562   */\n    tag_40:\n        /* \"#utility.yul\":6156:6162   */\n      0x00\n        /* \"#utility.yul\":6164:6170   */\n      dup1\n        /* \"#utility.yul\":6213:6215   */\n      0x40\n        /* \"#utility.yul\":6201:6210   */\n      dup4\n        /* \"#utility.yul\":6192:6199   */\n      dup6\n        /* \"#utility.yul\":6188:6211   */\n      sub\n        /* \"#utility.yul\":6184:6216   */\n      slt\n        /* \"#utility.yul\":6181:6300   */\n      iszero\n      tag_272\n      jumpi\n        /* \"#utility.yul\":6219:6298   */\n      tag_273\n      tag_237\n      jump\t// in\n    tag_273:\n        /* \"#utility.yul\":6181:6300   */\n    tag_272:\n        /* \"#utility.yul\":6339:6340   */\n      0x00\n        /* \"#utility.yul\":6364:6417   */\n      tag_274\n        /* \"#utility.yul\":6409:6416   */\n      dup6\n        /* \"#utility.yul\":6400:6406   */\n      dup3\n        /* \"#utility.yul\":6389:6398   */\n      dup7\n        /* \"#utility.yul\":6385:6407   */\n      add\n        /* \"#utility.yul\":6364:6417   */\n      tag_227\n      jump\t// in\n    tag_274:\n        /* \"#utility.yul\":6354:6417   */\n      swap3\n      pop\n        /* \"#utility.yul\":6310:6427   */\n      pop\n        /* \"#utility.yul\":6466:6468   */\n      0x20\n        /* \"#utility.yul\":6492:6545   */\n      tag_275\n        /* \"#utility.yul\":6537:6544   */\n      dup6\n        /* \"#utility.yul\":6528:6534   */\n      dup3\n        /* \"#utility.yul\":6517:6526   */\n      dup7\n        /* \"#utility.yul\":6513:6535   */\n      add\n        /* \"#utility.yul\":6492:6545   */\n      tag_191\n      jump\t// in\n    tag_275:\n        /* \"#utility.yul\":6482:6545   */\n      swap2\n      pop\n        /* \"#utility.yul\":6437:6555   */\n      pop\n        /* \"#utility.yul\":6088:6562   */\n      swap3\n      pop\n      swap3\n      swap1\n      pop\n      jump\t// out\n        /* \"#utility.yul\":6568:7036   */\n    tag_69:\n        /* \"#utility.yul\":6633:6639   */\n      0x00\n        /* \"#utility.yul\":6641:6647   */\n      dup1\n        /* \"#utility.yul\":6690:6692   */\n      0x40\n        /* \"#utility.yul\":6678:6687   */\n      dup4\n        /* \"#utility.yul\":6669:6676   */\n      dup6\n        /* \"#utility.yul\":6665:6688   */\n      sub\n        /* \"#utility.yul\":6661:6693   */\n      slt\n        /* \"#utility.yul\":6658:6777   */\n      iszero\n      tag_277\n      jumpi\n        /* \"#utility.yul\":6696:6775   */\n      tag_278\n      tag_237\n      jump\t// in\n    tag_278:\n        /* \"#utility.yul\":6658:6777   */\n    tag_277:\n        /* \"#utility.yul\":6816:6817   */\n      0x00\n        /* \"#utility.yul\":6841:6894   */\n      tag_279\n        /* \"#utility.yul\":6886:6893   */\n      dup6\n        /* \"#utility.yul\":6877:6883   */\n      dup3\n        /* \"#utility.yul\":6866:6875   */\n      dup7\n        /* \"#utility.yul\":6862:6884   */\n      add\n        /* \"#utility.yul\":6841:6894   */\n      tag_227\n      jump\t// in\n    tag_279:\n        /* \"#utility.yul\":6831:6894   */\n      swap3\n      pop\n        /* \"#utility.yul\":6787:6904   */\n      pop\n        /* \"#utility.yul\":6943:6945   */\n      0x20\n        /* \"#utility.yul\":6969:7019   */\n      tag_280\n        /* \"#utility.yul\":7011:7018   */\n      dup6\n        /* \"#utility.yul\":7002:7008   */\n      dup3\n        /* \"#utility.yul\":6991:7000   */\n      dup7\n        /* \"#utility.yul\":6987:7009   */\n      add\n        /* \"#utility.yul\":6969:7019   */\n      tag_214\n      jump\t// in\n    tag_280:\n        /* \"#utility.yul\":6959:7019   */\n      swap2\n      pop\n        /* \"#utility.yul\":6914:7029   */\n      pop\n        /* \"#utility.yul\":6568:7036   */\n      swap3\n      pop\n      swap3\n      swap1\n      pop\n      jump\t// out\n        /* \"#utility.yul\":7042:7160   */\n    tag_281:\n        /* \"#utility.yul\":7129:7153   */\n      tag_283\n        /* \"#utility.yul\":7147:7152   */\n      dup2\n        /* \"#utility.yul\":7129:7153   */\n      tag_284\n      jump\t// in\n    tag_283:\n        /* \"#utility.yul\":7124:7127   */\n      dup3\n        /* \"#utility.yul\":7117:7154   */\n      mstore\n        /* \"#utility.yul\":7042:7160   */\n      pop\n      pop\n      jump\t// out\n        /* \"#utility.yul\":7166:7275   */\n    tag_285:\n        /* \"#utility.yul\":7247:7268   */\n      tag_287\n        /* \"#utility.yul\":7262:7267   */\n      dup2\n        /* \"#utility.yul\":7247:7268   */\n      tag_288\n      jump\t// in\n    tag_287:\n        /* \"#utility.yul\":7242:7245   */\n      dup3\n        /* \"#utility.yul\":7235:7269   */\n      mstore\n        /* \"#utility.yul\":7166:7275   */\n      pop\n      pop\n      jump\t// out\n        /* \"#utility.yul\":7281:7389   */\n    tag_289:\n        /* \"#utility.yul\":7358:7382   */\n      tag_291\n        /* \"#utility.yul\":7376:7381   */\n      dup2\n        /* \"#utility.yul\":7358:7382   */\n      tag_292\n      jump\t// in\n    tag_291:\n        /* \"#utility.yul\":7353:7356   */\n      dup3\n        /* \"#utility.yul\":7346:7383   */\n      mstore\n        /* \"#utility.yul\":7281:7389   */\n      pop\n      pop\n      jump\t// out\n        /* \"#utility.yul\":7395:7552   */\n    tag_293:\n        /* \"#utility.yul\":7500:7545   */\n      tag_295\n        /* \"#utility.yul\":7520:7544   */\n      tag_296\n        /* \"#utility.yul\":7538:7543   */\n      dup3\n        /* \"#utility.yul\":7520:7544   */\n      tag_292\n      jump\t// in\n    tag_296:\n        /* \"#utility.yul\":7500:7545   */\n      tag_297\n      jump\t// in\n    tag_295:\n        /* \"#utility.yul\":7495:7498   */\n      dup3\n        /* \"#utility.yul\":7488:7546   */\n      mstore\n        /* \"#utility.yul\":7395:7552   */\n      pop\n      pop\n      jump\t// out\n        /* \"#utility.yul\":7558:7922   */\n    tag_298:\n        /* \"#utility.yul\":7646:7649   */\n      0x00\n        /* \"#utility.yul\":7674:7713   */\n      tag_300\n        /* \"#utility.yul\":7707:7712   */\n      dup3\n        /* \"#utility.yul\":7674:7713   */\n      tag_301\n      jump\t// in\n    tag_300:\n        /* \"#utility.yul\":7729:7800   */\n      tag_302\n        /* \"#utility.yul\":7793:7799   */\n      dup2\n        /* \"#utility.yul\":7788:7791   */\n      dup6\n        /* \"#utility.yul\":7729:7800   */\n      tag_303\n      jump\t// in\n    tag_302:\n        /* \"#utility.yul\":7722:7800   */\n      swap4\n      pop\n        /* \"#utility.yul\":7809:7861   */\n      tag_304\n        /* \"#utility.yul\":7854:7860   */\n      dup2\n        /* \"#utility.yul\":7849:7852   */\n      dup6\n        /* \"#utility.yul\":7842:7846   */\n      0x20\n        /* \"#utility.yul\":7835:7840   */\n      dup7\n        /* \"#utility.yul\":7831:7847   */\n      add\n        /* \"#utility.yul\":7809:7861   */\n      tag_305\n      jump\t// in\n    tag_304:\n        /* \"#utility.yul\":7886:7915   */\n      tag_306\n        /* \"#utility.yul\":7908:7914   */\n      dup2\n        /* \"#utility.yul\":7886:7915   */\n      tag_307\n      jump\t// in\n    tag_306:\n        /* \"#utility.yul\":7881:7884   */\n      dup5\n        /* \"#utility.yul\":7877:7916   */\n      add\n        /* \"#utility.yul\":7870:7916   */\n      swap2\n      pop\n        /* \"#utility.yul\":7650:7922   */\n      pop\n        /* \"#utility.yul\":7558:7922   */\n      swap3\n      swap2\n      pop\n      pop\n      jump\t// out\n        /* \"#utility.yul\":7928:8294   */\n    tag_308:\n        /* \"#utility.yul\":8070:8073   */\n      0x00\n        /* \"#utility.yul\":8091:8158   */\n      tag_310\n        /* \"#utility.yul\":8155:8157   */\n      0x26\n        /* \"#utility.yul\":8150:8153   */\n      dup4\n        /* \"#utility.yul\":8091:8158   */\n      tag_303\n      jump\t// in\n    tag_310:\n        /* \"#utility.yul\":8084:8158   */\n      swap2\n      pop\n        /* \"#utility.yul\":8167:8260   */\n      tag_311\n        /* \"#utility.yul\":8256:8259   */\n      dup3\n        /* \"#utility.yul\":8167:8260   */\n      tag_312\n      jump\t// in\n    tag_311:\n        /* \"#utility.yul\":8285:8287   */\n      0x40\n        /* \"#utility.yul\":8280:8283   */\n      dup3\n        /* \"#utility.yul\":8276:8288   */\n      add\n        /* \"#utility.yul\":8269:8288   */\n      swap1\n      pop\n        /* \"#utility.yul\":7928:8294   */\n      swap2\n      swap1\n      pop\n      jump\t// out\n        /* \"#utility.yul\":8300:8666   */\n    tag_313:\n        /* \"#utility.yul\":8442:8445   */\n      0x00\n        /* \"#utility.yul\":8463:8530   */\n      tag_315\n        /* \"#utility.yul\":8527:8529   */\n      0x20\n        /* \"#utility.yul\":8522:8525   */\n      dup4\n        /* \"#utility.yul\":8463:8530   */\n      tag_303\n      jump\t// in\n    tag_315:\n        /* \"#utility.yul\":8456:8530   */\n      swap2\n      pop\n        /* \"#utility.yul\":8539:8632   */\n      tag_316\n        /* \"#utility.yul\":8628:8631   */\n      dup3\n        /* \"#utility.yul\":8539:8632   */\n      tag_317\n      jump\t// in\n    tag_316:\n        /* \"#utility.yul\":8657:8659   */\n      0x20\n        /* \"#utility.yul\":8652:8655   */\n      dup3\n        /* \"#utility.yul\":8648:8660   */\n      add\n        /* \"#utility.yul\":8641:8660   */\n      swap1\n      pop\n        /* \"#utility.yul\":8300:8666   */\n      swap2\n      swap1\n      pop\n      jump\t// out\n        /* \"#utility.yul\":8736:9250   */\n    tag_318:\n        /* \"#utility.yul\":8883:8887   */\n      0x40\n        /* \"#utility.yul\":8878:8881   */\n      dup3\n        /* \"#utility.yul\":8874:8888   */\n      add\n        /* \"#utility.yul\":8971:8975   */\n      0x00\n        /* \"#utility.yul\":8964:8969   */\n      dup3\n        /* \"#utility.yul\":8960:8976   */\n      add\n        /* \"#utility.yul\":8954:8977   */\n      mload\n        /* \"#utility.yul\":8990:9053   */\n      tag_320\n        /* \"#utility.yul\":9047:9051   */\n      0x00\n        /* \"#utility.yul\":9042:9045   */\n      dup6\n        /* \"#utility.yul\":9038:9052   */\n      add\n        /* \"#utility.yul\":9024:9036   */\n      dup3\n        /* \"#utility.yul\":8990:9053   */\n      tag_321\n      jump\t// in\n    tag_320:\n        /* \"#utility.yul\":8898:9063   */\n      pop\n        /* \"#utility.yul\":9151:9155   */\n      0x20\n        /* \"#utility.yul\":9144:9149   */\n      dup3\n        /* \"#utility.yul\":9140:9156   */\n      add\n        /* \"#utility.yul\":9134:9157   */\n      mload\n        /* \"#utility.yul\":9170:9233   */\n      tag_322\n        /* \"#utility.yul\":9227:9231   */\n      0x20\n        /* \"#utility.yul\":9222:9225   */\n      dup6\n        /* \"#utility.yul\":9218:9232   */\n      add\n        /* \"#utility.yul\":9204:9216   */\n      dup3\n        /* \"#utility.yul\":9170:9233   */\n      tag_289\n      jump\t// in\n    tag_322:\n        /* \"#utility.yul\":9073:9243   */\n      pop\n        /* \"#utility.yul\":8852:9250   */\n      pop\n        /* \"#utility.yul\":8736:9250   */\n      pop\n      pop\n      jump\t// out\n        /* \"#utility.yul\":9256:9364   */\n    tag_321:\n        /* \"#utility.yul\":9333:9357   */\n      tag_324\n        /* \"#utility.yul\":9351:9356   */\n      dup2\n        /* \"#utility.yul\":9333:9357   */\n      tag_325\n      jump\t// in\n    tag_324:\n        /* \"#utility.yul\":9328:9331   */\n      dup3\n        /* \"#utility.yul\":9321:9358   */\n      mstore\n        /* \"#utility.yul\":9256:9364   */\n      pop\n      pop\n      jump\t// out\n        /* \"#utility.yul\":9370:9488   */\n    tag_326:\n        /* \"#utility.yul\":9457:9481   */\n      tag_328\n        /* \"#utility.yul\":9475:9480   */\n      dup2\n        /* \"#utility.yul\":9457:9481   */\n      tag_325\n      jump\t// in\n    tag_328:\n        /* \"#utility.yul\":9452:9455   */\n      dup3\n        /* \"#utility.yul\":9445:9482   */\n      mstore\n        /* \"#utility.yul\":9370:9488   */\n      pop\n      pop\n      jump\t// out\n        /* \"#utility.yul\":9494:9891   */\n    tag_173:\n        /* \"#utility.yul\":9634:9637   */\n      0x00\n        /* \"#utility.yul\":9649:9724   */\n      tag_330\n        /* \"#utility.yul\":9720:9723   */\n      dup3\n        /* \"#utility.yul\":9711:9717   */\n      dup6\n        /* \"#utility.yul\":9649:9724   */\n      tag_293\n      jump\t// in\n    tag_330:\n        /* \"#utility.yul\":9749:9751   */\n      0x20\n        /* \"#utility.yul\":9744:9747   */\n      dup3\n        /* \"#utility.yul\":9740:9752   */\n      add\n        /* \"#utility.yul\":9733:9752   */\n      swap2\n      pop\n        /* \"#utility.yul\":9762:9837   */\n      tag_331\n        /* \"#utility.yul\":9833:9836   */\n      dup3\n        /* \"#utility.yul\":9824:9830   */\n      dup5\n        /* \"#utility.yul\":9762:9837   */\n      tag_293\n      jump\t// in\n    tag_331:\n        /* \"#utility.yul\":9862:9864   */\n      0x20\n        /* \"#utility.yul\":9857:9860   */\n      dup3\n        /* \"#utility.yul\":9853:9865   */\n      add\n        /* \"#utility.yul\":9846:9865   */\n      swap2\n      pop\n        /* \"#utility.yul\":9882:9885   */\n      dup2\n        /* \"#utility.yul\":9875:9885   */\n      swap1\n      pop\n        /* \"#utility.yul\":9494:9891   */\n      swap4\n      swap3\n      pop\n      pop\n      pop\n      jump\t// out\n        /* \"#utility.yul\":9897:10119   */\n    tag_52:\n        /* \"#utility.yul\":9990:9994   */\n      0x00\n        /* \"#utility.yul\":10028:10030   */\n      0x20\n        /* \"#utility.yul\":10017:10026   */\n      dup3\n        /* \"#utility.yul\":10013:10031   */\n      add\n        /* \"#utility.yul\":10005:10031   */\n      swap1\n      pop\n        /* \"#utility.yul\":10041:10112   */\n      tag_333\n        /* \"#utility.yul\":10109:10110   */\n      0x00\n        /* \"#utility.yul\":10098:10107   */\n      dup4\n        /* \"#utility.yul\":10094:10111   */\n      add\n        /* \"#utility.yul\":10085:10091   */\n      dup5\n        /* \"#utility.yul\":10041:10112   */\n      tag_281\n      jump\t// in\n    tag_333:\n        /* \"#utility.yul\":9897:10119   */\n      swap3\n      swap2\n      pop\n      pop\n      jump\t// out\n        /* \"#utility.yul\":10125:10548   */\n    tag_128:\n        /* \"#utility.yul\":10266:10270   */\n      0x00\n        /* \"#utility.yul\":10304:10306   */\n      0x40\n        /* \"#utility.yul\":10293:10302   */\n      dup3\n        /* \"#utility.yul\":10289:10307   */\n      add\n        /* \"#utility.yul\":10281:10307   */\n      swap1\n      pop\n        /* \"#utility.yul\":10317:10388   */\n      tag_335\n        /* \"#utility.yul\":10385:10386   */\n      0x00\n        /* \"#utility.yul\":10374:10383   */\n      dup4\n        /* \"#utility.yul\":10370:10387   */\n      add\n        /* \"#utility.yul\":10361:10367   */\n      dup6\n        /* \"#utility.yul\":10317:10388   */\n      tag_281\n      jump\t// in\n    tag_335:\n        /* \"#utility.yul\":10435:10444   */\n      dup2\n        /* \"#utility.yul\":10429:10433   */\n      dup2\n        /* \"#utility.yul\":10425:10445   */\n      sub\n        /* \"#utility.yul\":10420:10422   */\n      0x20\n        /* \"#utility.yul\":10409:10418   */\n      dup4\n        /* \"#utility.yul\":10405:10423   */\n      add\n        /* \"#utility.yul\":10398:10446   */\n      mstore\n        /* \"#utility.yul\":10463:10541   */\n      tag_336\n        /* \"#utility.yul\":10536:10540   */\n      dup2\n        /* \"#utility.yul\":10527:10533   */\n      dup5\n        /* \"#utility.yul\":10463:10541   */\n      tag_298\n      jump\t// in\n    tag_336:\n        /* \"#utility.yul\":10455:10541   */\n      swap1\n      pop\n        /* \"#utility.yul\":10125:10548   */\n      swap4\n      swap3\n      pop\n      pop\n      pop\n      jump\t// out\n        /* \"#utility.yul\":10554:10764   */\n    tag_31:\n        /* \"#utility.yul\":10641:10645   */\n      0x00\n        /* \"#utility.yul\":10679:10681   */\n      0x20\n        /* \"#utility.yul\":10668:10677   */\n      dup3\n        /* \"#utility.yul\":10664:10682   */\n      add\n        /* \"#utility.yul\":10656:10682   */\n      swap1\n      pop\n        /* \"#utility.yul\":10692:10757   */\n      tag_338\n        /* \"#utility.yul\":10754:10755   */\n      0x00\n        /* \"#utility.yul\":10743:10752   */\n      dup4\n        /* \"#utility.yul\":10739:10756   */\n      add\n        /* \"#utility.yul\":10730:10736   */\n      dup5\n        /* \"#utility.yul\":10692:10757   */\n      tag_285\n      jump\t// in\n    tag_338:\n        /* \"#utility.yul\":10554:10764   */\n      swap3\n      swap2\n      pop\n      pop\n      jump\t// out\n        /* \"#utility.yul\":10770:11189   */\n    tag_149:\n        /* \"#utility.yul\":10936:10940   */\n      0x00\n        /* \"#utility.yul\":10974:10976   */\n      0x20\n        /* \"#utility.yul\":10963:10972   */\n      dup3\n        /* \"#utility.yul\":10959:10977   */\n      add\n        /* \"#utility.yul\":10951:10977   */\n      swap1\n      pop\n        /* \"#utility.yul\":11023:11032   */\n      dup2\n        /* \"#utility.yul\":11017:11021   */\n      dup2\n        /* \"#utility.yul\":11013:11033   */\n      sub\n        /* \"#utility.yul\":11009:11010   */\n      0x00\n        /* \"#utility.yul\":10998:11007   */\n      dup4\n        /* \"#utility.yul\":10994:11011   */\n      add\n        /* \"#utility.yul\":10987:11034   */\n      mstore\n        /* \"#utility.yul\":11051:11182   */\n      tag_340\n        /* \"#utility.yul\":11177:11181   */\n      dup2\n        /* \"#utility.yul\":11051:11182   */\n      tag_308\n      jump\t// in\n    tag_340:\n        /* \"#utility.yul\":11043:11182   */\n      swap1\n      pop\n        /* \"#utility.yul\":10770:11189   */\n      swap2\n      swap1\n      pop\n      jump\t// out\n        /* \"#utility.yul\":11195:11614   */\n    tag_160:\n        /* \"#utility.yul\":11361:11365   */\n      0x00\n        /* \"#utility.yul\":11399:11401   */\n      0x20\n        /* \"#utility.yul\":11388:11397   */\n      dup3\n        /* \"#utility.yul\":11384:11402   */\n      add\n        /* \"#utility.yul\":11376:11402   */\n      swap1\n      pop\n        /* \"#utility.yul\":11448:11457   */\n      dup2\n        /* \"#utility.yul\":11442:11446   */\n      dup2\n        /* \"#utility.yul\":11438:11458   */\n      sub\n        /* \"#utility.yul\":11434:11435   */\n      0x00\n        /* \"#utility.yul\":11423:11432   */\n      dup4\n        /* \"#utility.yul\":11419:11436   */\n      add\n        /* \"#utility.yul\":11412:11459   */\n      mstore\n        /* \"#utility.yul\":11476:11607   */\n      tag_342\n        /* \"#utility.yul\":11602:11606   */\n      dup2\n        /* \"#utility.yul\":11476:11607   */\n      tag_313\n      jump\t// in\n    tag_342:\n        /* \"#utility.yul\":11468:11607   */\n      swap1\n      pop\n        /* \"#utility.yul\":11195:11614   */\n      swap2\n      swap1\n      pop\n      jump\t// out\n        /* \"#utility.yul\":11620:11942   */\n    tag_65:\n        /* \"#utility.yul\":11763:11767   */\n      0x00\n        /* \"#utility.yul\":11801:11803   */\n      0x40\n        /* \"#utility.yul\":11790:11799   */\n      dup3\n        /* \"#utility.yul\":11786:11804   */\n      add\n        /* \"#utility.yul\":11778:11804   */\n      swap1\n      pop\n        /* \"#utility.yul\":11814:11935   */\n      tag_344\n        /* \"#utility.yul\":11932:11933   */\n      0x00\n        /* \"#utility.yul\":11921:11930   */\n      dup4\n        /* \"#utility.yul\":11917:11934   */\n      add\n        /* \"#utility.yul\":11908:11914   */\n      dup5\n        /* \"#utility.yul\":11814:11935   */\n      tag_318\n      jump\t// in\n    tag_344:\n        /* \"#utility.yul\":11620:11942   */\n      swap3\n      swap2\n      pop\n      pop\n      jump\t// out\n        /* \"#utility.yul\":11948:12170   */\n    tag_81:\n        /* \"#utility.yul\":12041:12045   */\n      0x00\n        /* \"#utility.yul\":12079:12081   */\n      0x20\n        /* \"#utility.yul\":12068:12077   */\n      dup3\n        /* \"#utility.yul\":12064:12082   */\n      add\n        /* \"#utility.yul\":12056:12082   */\n      swap1\n      pop\n        /* \"#utility.yul\":12092:12163   */\n      tag_346\n        /* \"#utility.yul\":12160:12161   */\n      0x00\n        /* \"#utility.yul\":12149:12158   */\n      dup4\n        /* \"#utility.yul\":12145:12162   */\n      add\n        /* \"#utility.yul\":12136:12142   */\n      dup5\n        /* \"#utility.yul\":12092:12163   */\n      tag_326\n      jump\t// in\n    tag_346:\n        /* \"#utility.yul\":11948:12170   */\n      swap3\n      swap2\n      pop\n      pop\n      jump\t// out\n        /* \"#utility.yul\":12176:12508   */\n    tag_135:\n        /* \"#utility.yul\":12297:12301   */\n      0x00\n        /* \"#utility.yul\":12335:12337   */\n      0x40\n        /* \"#utility.yul\":12324:12333   */\n      dup3\n        /* \"#utility.yul\":12320:12338   */\n      add\n        /* \"#utility.yul\":12312:12338   */\n      swap1\n      pop\n        /* \"#utility.yul\":12348:12419   */\n      tag_348\n        /* \"#utility.yul\":12416:12417   */\n      0x00\n        /* \"#utility.yul\":12405:12414   */\n      dup4\n        /* \"#utility.yul\":12401:12418   */\n      add\n        /* \"#utility.yul\":12392:12398   */\n      dup6\n        /* \"#utility.yul\":12348:12419   */\n      tag_326\n      jump\t// in\n    tag_348:\n        /* \"#utility.yul\":12429:12501   */\n      tag_349\n        /* \"#utility.yul\":12497:12499   */\n      0x20\n        /* \"#utility.yul\":12486:12495   */\n      dup4\n        /* \"#utility.yul\":12482:12500   */\n      add\n        /* \"#utility.yul\":12473:12479   */\n      dup5\n        /* \"#utility.yul\":12429:12501   */\n      tag_326\n      jump\t// in\n    tag_349:\n        /* \"#utility.yul\":12176:12508   */\n      swap4\n      swap3\n      pop\n      pop\n      pop\n      jump\t// out\n        /* \"#utility.yul\":12514:12643   */\n    tag_185:\n        /* \"#utility.yul\":12548:12554   */\n      0x00\n        /* \"#utility.yul\":12575:12595   */\n      tag_351\n      tag_352\n      jump\t// in\n    tag_351:\n        /* \"#utility.yul\":12565:12595   */\n      swap1\n      pop\n        /* \"#utility.yul\":12604:12637   */\n      tag_353\n        /* \"#utility.yul\":12632:12636   */\n      dup3\n        /* \"#utility.yul\":12624:12630   */\n      dup3\n        /* \"#utility.yul\":12604:12637   */\n      tag_354\n      jump\t// in\n    tag_353:\n        /* \"#utility.yul\":12514:12643   */\n      swap2\n      swap1\n      pop\n      jump\t// out\n        /* \"#utility.yul\":12649:12724   */\n    tag_352:\n        /* \"#utility.yul\":12682:12688   */\n      0x00\n        /* \"#utility.yul\":12715:12717   */\n      0x40\n        /* \"#utility.yul\":12709:12718   */\n      mload\n        /* \"#utility.yul\":12699:12718   */\n      swap1\n      pop\n        /* \"#utility.yul\":12649:12724   */\n      swap1\n      jump\t// out\n        /* \"#utility.yul\":12730:13038   */\n    tag_184:\n        /* \"#utility.yul\":12792:12796   */\n      0x00\n        /* \"#utility.yul\":12882:12900   */\n      0xffffffffffffffff\n        /* \"#utility.yul\":12874:12880   */\n      dup3\n        /* \"#utility.yul\":12871:12901   */\n      gt\n        /* \"#utility.yul\":12868:12924   */\n      iszero\n      tag_357\n      jumpi\n        /* \"#utility.yul\":12904:12922   */\n      tag_358\n      tag_359\n      jump\t// in\n    tag_358:\n        /* \"#utility.yul\":12868:12924   */\n    tag_357:\n        /* \"#utility.yul\":12942:12971   */\n      tag_360\n        /* \"#utility.yul\":12964:12970   */\n      dup3\n        /* \"#utility.yul\":12942:12971   */\n      tag_307\n      jump\t// in\n    tag_360:\n        /* \"#utility.yul\":12934:12971   */\n      swap1\n      pop\n        /* \"#utility.yul\":13026:13030   */\n      0x20\n        /* \"#utility.yul\":13020:13024   */\n      dup2\n        /* \"#utility.yul\":13016:13031   */\n      add\n        /* \"#utility.yul\":13008:13031   */\n      swap1\n      pop\n        /* \"#utility.yul\":12730:13038   */\n      swap2\n      swap1\n      pop\n      jump\t// out\n        /* \"#utility.yul\":13044:13143   */\n    tag_301:\n        /* \"#utility.yul\":13096:13102   */\n      0x00\n        /* \"#utility.yul\":13130:13135   */\n      dup2\n        /* \"#utility.yul\":13124:13136   */\n      mload\n        /* \"#utility.yul\":13114:13136   */\n      swap1\n      pop\n        /* \"#utility.yul\":13044:13143   */\n      swap2\n      swap1\n      pop\n      jump\t// out\n        /* \"#utility.yul\":13149:13318   */\n    tag_303:\n        /* \"#utility.yul\":13233:13244   */\n      0x00\n        /* \"#utility.yul\":13267:13273   */\n      dup3\n        /* \"#utility.yul\":13262:13265   */\n      dup3\n        /* \"#utility.yul\":13255:13274   */\n      mstore\n        /* \"#utility.yul\":13307:13311   */\n      0x20\n        /* \"#utility.yul\":13302:13305   */\n      dup3\n        /* \"#utility.yul\":13298:13312   */\n      add\n        /* \"#utility.yul\":13283:13312   */\n      swap1\n      pop\n        /* \"#utility.yul\":13149:13318   */\n      swap3\n      swap2\n      pop\n      pop\n      jump\t// out\n        /* \"#utility.yul\":13324:13420   */\n    tag_284:\n        /* \"#utility.yul\":13361:13368   */\n      0x00\n        /* \"#utility.yul\":13390:13414   */\n      tag_364\n        /* \"#utility.yul\":13408:13413   */\n      dup3\n        /* \"#utility.yul\":13390:13414   */\n      tag_365\n      jump\t// in\n    tag_364:\n        /* \"#utility.yul\":13379:13414   */\n      swap1\n      pop\n        /* \"#utility.yul\":13324:13420   */\n      swap2\n      swap1\n      pop\n      jump\t// out\n        /* \"#utility.yul\":13426:13516   */\n    tag_288:\n        /* \"#utility.yul\":13460:13467   */\n      0x00\n        /* \"#utility.yul\":13503:13508   */\n      dup2\n        /* \"#utility.yul\":13496:13509   */\n      iszero\n        /* \"#utility.yul\":13489:13510   */\n      iszero\n        /* \"#utility.yul\":13478:13510   */\n      swap1\n      pop\n        /* \"#utility.yul\":13426:13516   */\n      swap2\n      swap1\n      pop\n      jump\t// out\n        /* \"#utility.yul\":13522:13599   */\n    tag_292:\n        /* \"#utility.yul\":13559:13566   */\n      0x00\n        /* \"#utility.yul\":13588:13593   */\n      dup2\n        /* \"#utility.yul\":13577:13593   */\n      swap1\n      pop\n        /* \"#utility.yul\":13522:13599   */\n      swap2\n      swap1\n      pop\n      jump\t// out\n        /* \"#utility.yul\":13605:13731   */\n    tag_365:\n        /* \"#utility.yul\":13642:13649   */\n      0x00\n        /* \"#utility.yul\":13682:13724   */\n      0xffffffffffffffffffffffffffffffffffffffff\n        /* \"#utility.yul\":13675:13680   */\n      dup3\n        /* \"#utility.yul\":13671:13725   */\n      and\n        /* \"#utility.yul\":13660:13725   */\n      swap1\n      pop\n        /* \"#utility.yul\":13605:13731   */\n      swap2\n      swap1\n      pop\n      jump\t// out\n        /* \"#utility.yul\":13737:13814   */\n    tag_325:\n        /* \"#utility.yul\":13774:13781   */\n      0x00\n        /* \"#utility.yul\":13803:13808   */\n      dup2\n        /* \"#utility.yul\":13792:13808   */\n      swap1\n      pop\n        /* \"#utility.yul\":13737:13814   */\n      swap2\n      swap1\n      pop\n      jump\t// out\n        /* \"#utility.yul\":13820:13974   */\n    tag_190:\n        /* \"#utility.yul\":13904:13910   */\n      dup3\n        /* \"#utility.yul\":13899:13902   */\n      dup2\n        /* \"#utility.yul\":13894:13897   */\n      dup4\n        /* \"#utility.yul\":13881:13911   */\n      calldatacopy\n        /* \"#utility.yul\":13966:13967   */\n      0x00\n        /* \"#utility.yul\":13957:13963   */\n      dup4\n        /* \"#utility.yul\":13952:13955   */\n      dup4\n        /* \"#utility.yul\":13948:13964   */\n      add\n        /* \"#utility.yul\":13941:13968   */\n      mstore\n        /* \"#utility.yul\":13820:13974   */\n      pop\n      pop\n      pop\n      jump\t// out\n        /* \"#utility.yul\":13980:14287   */\n    tag_305:\n        /* \"#utility.yul\":14048:14049   */\n      0x00\n        /* \"#utility.yul\":14058:14171   */\n    tag_372:\n        /* \"#utility.yul\":14072:14078   */\n      dup4\n        /* \"#utility.yul\":14069:14070   */\n      dup2\n        /* \"#utility.yul\":14066:14079   */\n      lt\n        /* \"#utility.yul\":14058:14171   */\n      iszero\n      tag_374\n      jumpi\n        /* \"#utility.yul\":14157:14158   */\n      dup1\n        /* \"#utility.yul\":14152:14155   */\n      dup3\n        /* \"#utility.yul\":14148:14159   */\n      add\n        /* \"#utility.yul\":14142:14160   */\n      mload\n        /* \"#utility.yul\":14138:14139   */\n      dup2\n        /* \"#utility.yul\":14133:14136   */\n      dup5\n        /* \"#utility.yul\":14129:14140   */\n      add\n        /* \"#utility.yul\":14122:14161   */\n      mstore\n        /* \"#utility.yul\":14094:14096   */\n      0x20\n        /* \"#utility.yul\":14091:14092   */\n      dup2\n        /* \"#utility.yul\":14087:14097   */\n      add\n        /* \"#utility.yul\":14082:14097   */\n      swap1\n      pop\n        /* \"#utility.yul\":14058:14171   */\n      jump(tag_372)\n    tag_374:\n        /* \"#utility.yul\":14189:14195   */\n      dup4\n        /* \"#utility.yul\":14186:14187   */\n      dup2\n        /* \"#utility.yul\":14183:14196   */\n      gt\n        /* \"#utility.yul\":14180:14281   */\n      iszero\n      tag_375\n      jumpi\n        /* \"#utility.yul\":14269:14270   */\n      0x00\n        /* \"#utility.yul\":14260:14266   */\n      dup5\n        /* \"#utility.yul\":14255:14258   */\n      dup5\n        /* \"#utility.yul\":14251:14267   */\n      add\n        /* \"#utility.yul\":14244:14271   */\n      mstore\n        /* \"#utility.yul\":14180:14281   */\n    tag_375:\n        /* \"#utility.yul\":14029:14287   */\n      pop\n        /* \"#utility.yul\":13980:14287   */\n      pop\n      pop\n      pop\n      jump\t// out\n        /* \"#utility.yul\":14293:14574   */\n    tag_354:\n        /* \"#utility.yul\":14376:14403   */\n      tag_377\n        /* \"#utility.yul\":14398:14402   */\n      dup3\n        /* \"#utility.yul\":14376:14403   */\n      tag_307\n      jump\t// in\n    tag_377:\n        /* \"#utility.yul\":14368:14374   */\n      dup2\n        /* \"#utility.yul\":14364:14404   */\n      add\n        /* \"#utility.yul\":14506:14512   */\n      dup2\n        /* \"#utility.yul\":14494:14504   */\n      dup2\n        /* \"#utility.yul\":14491:14513   */\n      lt\n        /* \"#utility.yul\":14470:14488   */\n      0xffffffffffffffff\n        /* \"#utility.yul\":14458:14468   */\n      dup3\n        /* \"#utility.yul\":14455:14489   */\n      gt\n        /* \"#utility.yul\":14452:14514   */\n      or\n        /* \"#utility.yul\":14449:14537   */\n      iszero\n      tag_378\n      jumpi\n        /* \"#utility.yul\":14517:14535   */\n      tag_379\n      tag_359\n      jump\t// in\n    tag_379:\n        /* \"#utility.yul\":14449:14537   */\n    tag_378:\n        /* \"#utility.yul\":14557:14567   */\n      dup1\n        /* \"#utility.yul\":14553:14555   */\n      0x40\n        /* \"#utility.yul\":14546:14568   */\n      mstore\n        /* \"#utility.yul\":14336:14574   */\n      pop\n        /* \"#utility.yul\":14293:14574   */\n      pop\n      pop\n      jump\t// out\n        /* \"#utility.yul\":14580:14813   */\n    tag_177:\n        /* \"#utility.yul\":14619:14622   */\n      0x00\n        /* \"#utility.yul\":14642:14666   */\n      tag_381\n        /* \"#utility.yul\":14660:14665   */\n      dup3\n        /* \"#utility.yul\":14642:14666   */\n      tag_325\n      jump\t// in\n    tag_381:\n        /* \"#utility.yul\":14633:14666   */\n      swap2\n      pop\n        /* \"#utility.yul\":14688:14754   */\n      0xffffffffffffffffffffffffffffffffffffffffffffffffffffffffffffffff\n        /* \"#utility.yul\":14681:14686   */\n      dup3\n        /* \"#utility.yul\":14678:14755   */\n      eq\n        /* \"#utility.yul\":14675:14778   */\n      iszero\n      tag_382\n      jumpi\n        /* \"#utility.yul\":14758:14776   */\n      tag_383\n      tag_384\n      jump\t// in\n    tag_383:\n        /* \"#utility.yul\":14675:14778   */\n    tag_382:\n        /* \"#utility.yul\":14805:14806   */\n      0x01\n        /* \"#utility.yul\":14798:14803   */\n      dup3\n        /* \"#utility.yul\":14794:14807   */\n      add\n        /* \"#utility.yul\":14787:14807   */\n      swap1\n      pop\n        /* \"#utility.yul\":14580:14813   */\n      swap2\n      swap1\n      pop\n      jump\t// out\n        /* \"#utility.yul\":14819:14898   */\n    tag_297:\n        /* \"#utility.yul\":14858:14865   */\n      0x00\n        /* \"#utility.yul\":14887:14892   */\n      dup2\n        /* \"#utility.yul\":14876:14892   */\n      swap1\n      pop\n        /* \"#utility.yul\":14819:14898   */\n      swap2\n      swap1\n      pop\n      jump\t// out\n        /* \"#utility.yul\":14904:15084   */\n    tag_384:\n        /* \"#utility.yul\":14952:15029   */\n      0x4e487b7100000000000000000000000000000000000000000000000000000000\n        /* \"#utility.yul\":14949:14950   */\n      0x00\n        /* \"#utility.yul\":14942:15030   */\n      mstore\n        /* \"#utility.yul\":15049:15053   */\n      0x11\n        /* \"#utility.yul\":15046:15047   */\n      0x04\n        /* \"#utility.yul\":15039:15054   */\n      mstore\n        /* \"#utility.yul\":15073:15077   */\n      0x24\n        /* \"#utility.yul\":15070:15071   */\n      0x00\n        /* \"#utility.yul\":15063:15078   */\n      revert\n        /* \"#utility.yul\":15090:15270   */\n    tag_168:\n        /* \"#utility.yul\":15138:15215   */\n      0x4e487b7100000000000000000000000000000000000000000000000000000000\n        /* \"#utility.yul\":15135:15136   */\n      0x00\n        /* \"#utility.yul\":15128:15216   */\n      mstore\n        /* \"#utility.yul\":15235:15239   */\n      0x32\n        /* \"#utility.yul\":15232:15233   */\n      0x04\n        /* \"#utility.yul\":15225:15240   */\n      mstore\n        /* \"#utility.yul\":15259:15263   */\n      0x24\n        /* \"#utility.yul\":15256:15257   */\n      0x00\n        /* \"#utility.yul\":15249:15264   */\n      revert\n        /* \"#utility.yul\":15276:15456   */\n    tag_359:\n        /* \"#utility.yul\":15324:15401   */\n      0x4e487b7100000000000000000000000000000000000000000000000000000000\n        /* \"#utility.yul\":15321:15322   */\n      0x00\n        /* \"#utility.yul\":15314:15402   */\n      mstore\n        /* \"#utility.yul\":15421:15425   */\n      0x41\n        /* \"#utility.yul\":15418:15419   */\n      0x04\n        /* \"#utility.yul\":15411:15426   */\n      mstore\n        /* \"#utility.yul\":15445:15449   */\n      0x24\n        /* \"#utility.yul\":15442:15443   */\n      0x00\n        /* \"#utility.yul\":15435:15450   */\n      revert\n        /* \"#utility.yul\":15462:15579   */\n    tag_202:\n        /* \"#utility.yul\":15571:15572   */\n      0x00\n        /* \"#utility.yul\":15568:15569   */\n      dup1\n        /* \"#utility.yul\":15561:15573   */\n      revert\n        /* \"#utility.yul\":15585:15702   */\n    tag_199:\n        /* \"#utility.yul\":15694:15695   */\n      0x00\n        /* \"#utility.yul\":15691:15692   */\n      dup1\n        /* \"#utility.yul\":15684:15696   */\n      revert\n        /* \"#utility.yul\":15708:15825   */\n    tag_205:\n        /* \"#utility.yul\":15817:15818   */\n      0x00\n        /* \"#utility.yul\":15814:15815   */\n      dup1\n        /* \"#utility.yul\":15807:15819   */\n      revert\n        /* \"#utility.yul\":15831:15948   */\n    tag_188:\n        /* \"#utility.yul\":15940:15941   */\n      0x00\n        /* \"#utility.yul\":15937:15938   */\n      dup1\n        /* \"#utility.yul\":15930:15942   */\n      revert\n        /* \"#utility.yul\":15954:16071   */\n    tag_249:\n        /* \"#utility.yul\":16063:16064   */\n      0x00\n        /* \"#utility.yul\":16060:16061   */\n      dup1\n        /* \"#utility.yul\":16053:16065   */\n      revert\n        /* \"#utility.yul\":16077:16194   */\n    tag_237:\n        /* \"#utility.yul\":16186:16187   */\n      0x00\n        /* \"#utility.yul\":16183:16184   */\n      dup1\n        /* \"#utility.yul\":16176:16188   */\n      revert\n        /* \"#utility.yul\":16200:16302   */\n    tag_307:\n        /* \"#utility.yul\":16241:16247   */\n      0x00\n        /* \"#utility.yul\":16292:16294   */\n      0x1f\n        /* \"#utility.yul\":16288:16295   */\n      not\n        /* \"#utility.yul\":16283:16285   */\n      0x1f\n        /* \"#utility.yul\":16276:16281   */\n      dup4\n        /* \"#utility.yul\":16272:16286   */\n      add\n        /* \"#utility.yul\":16268:16296   */\n      and\n        /* \"#utility.yul\":16258:16296   */\n      swap1\n      pop\n        /* \"#utility.yul\":16200:16302   */\n      swap2\n      swap1\n      pop\n      jump\t// out\n        /* \"#utility.yul\":16308:16533   */\n    tag_312:\n        /* \"#utility.yul\":16448:16482   */\n      0x4f776e61626c653a206e6577206f776e657220697320746865207a65726f2061\n        /* \"#utility.yul\":16444:16445   */\n      0x00\n        /* \"#utility.yul\":16436:16442   */\n      dup3\n        /* \"#utility.yul\":16432:16446   */\n      add\n        /* \"#utility.yul\":16425:16483   */\n      mstore\n        /* \"#utility.yul\":16517:16525   */\n      0x6464726573730000000000000000000000000000000000000000000000000000\n        /* \"#utility.yul\":16512:16514   */\n      0x20\n        /* \"#utility.yul\":16504:16510   */\n      dup3\n        /* \"#utility.yul\":16500:16515   */\n      add\n        /* \"#utility.yul\":16493:16526   */\n      mstore\n        /* \"#utility.yul\":16308:16533   */\n      pop\n      jump\t// out\n        /* \"#utility.yul\":16539:16721   */\n    tag_317:\n        /* \"#utility.yul\":16679:16713   */\n      0x4f776e61626c653a2063616c6c6572206973206e6f7420746865206f776e6572\n        /* \"#utility.yul\":16675:16676   */\n      0x00\n        /* \"#utility.yul\":16667:16673   */\n      dup3\n        /* \"#utility.yul\":16663:16677   */\n      add\n        /* \"#utility.yul\":16656:16714   */\n      mstore\n        /* \"#utility.yul\":16539:16721   */\n      pop\n      jump\t// out\n        /* \"#utility.yul\":16727:16849   */\n    tag_194:\n        /* \"#utility.yul\":16800:16824   */\n      tag_399\n        /* \"#utility.yul\":16818:16823   */\n      dup2\n        /* \"#utility.yul\":16800:16824   */\n      tag_284\n      jump\t// in\n    tag_399:\n        /* \"#utility.yul\":16793:16798   */\n      dup2\n        /* \"#utility.yul\":16790:16825   */\n      eq\n        /* \"#utility.yul\":16780:16843   */\n      tag_400\n      jumpi\n        /* \"#utility.yul\":16839:16840   */\n      0x00\n        /* \"#utility.yul\":16836:16837   */\n      dup1\n        /* \"#utility.yul\":16829:16841   */\n      revert\n        /* \"#utility.yul\":16780:16843   */\n    tag_400:\n        /* \"#utility.yul\":16727:16849   */\n      pop\n      jump\t// out\n        /* \"#utility.yul\":16855:16971   */\n    tag_217:\n        /* \"#utility.yul\":16925:16946   */\n      tag_402\n        /* \"#utility.yul\":16940:16945   */\n      dup2\n        /* \"#utility.yul\":16925:16946   */\n      tag_288\n      jump\t// in\n    tag_402:\n        /* \"#utility.yul\":16918:16923   */\n      dup2\n        /* \"#utility.yul\":16915:16947   */\n      eq\n        /* \"#utility.yul\":16905:16965   */\n      tag_403\n      jumpi\n        /* \"#utility.yul\":16961:16962   */\n      0x00\n        /* \"#utility.yul\":16958:16959   */\n      dup1\n        /* \"#utility.yul\":16951:16963   */\n      revert\n        /* \"#utility.yul\":16905:16965   */\n    tag_403:\n        /* \"#utility.yul\":16855:16971   */\n      pop\n      jump\t// out\n        /* \"#utility.yul\":16977:17099   */\n    tag_221:\n        /* \"#utility.yul\":17050:17074   */\n      tag_405\n        /* \"#utility.yul\":17068:17073   */\n      dup2\n        /* \"#utility.yul\":17050:17074   */\n      tag_292\n      jump\t// in\n    tag_405:\n        /* \"#utility.yul\":17043:17048   */\n      dup2\n        /* \"#utility.yul\":17040:17075   */\n      eq\n        /* \"#utility.yul\":17030:17093   */\n      tag_406\n      jumpi\n        /* \"#utility.yul\":17089:17090   */\n      0x00\n        /* \"#utility.yul\":17086:17087   */\n      dup1\n        /* \"#utility.yul\":17079:17091   */\n      revert\n        /* \"#utility.yul\":17030:17093   */\n    tag_406:\n        /* \"#utility.yul\":16977:17099   */\n      pop\n      jump\t// out\n        /* \"#utility.yul\":17105:17227   */\n    tag_230:\n        /* \"#utility.yul\":17178:17202   */\n      tag_408\n        /* \"#utility.yul\":17196:17201   */\n      dup2\n        /* \"#utility.yul\":17178:17202   */\n      tag_325\n      jump\t// in\n    tag_408:\n        /* \"#utility.yul\":17171:17176   */\n      dup2\n        /* \"#utility.yul\":17168:17203   */\n      eq\n        /* \"#utility.yul\":17158:17221   */\n      tag_409\n      jumpi\n        /* \"#utility.yul\":17217:17218   */\n      0x00\n        /* \"#utility.yul\":17214:17215   */\n      dup1\n        /* \"#utility.yul\":17207:17219   */\n      revert\n        /* \"#utility.yul\":17158:17221   */\n    tag_409:\n        /* \"#utility.yul\":17105:17227   */\n      pop\n      jump\t// out\n\n    auxdata: 0xa264697066735822122027d9d68d1964db3c669e005731ec93cb6e34b4102f515a55d4d91312ac07e18464736f6c63430008070033\n}\n",
				"bytecode": {
					"linkReferences": {},
					"object": "608060405234801561001057600080fd5b5061002d61002261003260201b60201c565b61003a60201b60201c565b6100fe565b600033905090565b60008060009054906101000a900473ffffffffffffffffffffffffffffffffffffffff169050816000806101000a81548173ffffffffffffffffffffffffffffffffffffffff021916908373ffffffffffffffffffffffffffffffffffffffff1602179055508173ffffffffffffffffffffffffffffffffffffffff168173ffffffffffffffffffffffffffffffffffffffff167f8be0079c531659141344cd1fd0a4f28419497f9722a3daafe3b4186f6b6457e060405160405180910390a35050565b6116d98061010d6000396000f3fe6080604052600436106100ec5760003560e01c8063917b8fd01161008a578063d1933ddd11610059578063d1933ddd14610312578063f097c2891461033b578063f2fde38b14610378578063fbc2cf13146103a1576100f6565b8063917b8fd014610232578063ab98a6791461026f578063ad57503514610298578063b2b72bc4146102d5576100f6565b80634783f0ef116100c65780634783f0ef1461018a5780634b3cef44146101b3578063715018a6146101f05780638da5cb5b14610207576100f6565b80630e197dc9146100fb5780631ff4bdf3146101385780633960a89214610161576100f6565b366100f657600080fd5b600080fd5b34801561010757600080fd5b50610122600480360381019061011d919061106e565b6103ca565b60405161012f91906112cf565b60405180910390f35b34801561014457600080fd5b5061015f600480360381019061015a9190610efe565b6103f4565b005b34801561016d57600080fd5b50610188600480360381019061018391906110c8565b610507565b005b34801561019657600080fd5b506101b160048036038101906101ac9190610f2b565b6105ac565b005b3480156101bf57600080fd5b506101da60048036038101906101d5919061106e565b6105fc565b6040516101e79190611284565b60405180910390f35b3480156101fc57600080fd5b5061020561063e565b005b34801561021357600080fd5b5061021c610652565b6040516102299190611284565b60405180910390f35b34801561023e57600080fd5b506102596004803603810190610254919061106e565b61067b565b604051610266919061132a565b60405180910390f35b34801561027b57600080fd5b5061029660048036038101906102919190611108565b610727565b005b3480156102a457600080fd5b506102bf60048036038101906102ba9190610efe565b61075e565b6040516102cc919061132a565b60405180910390f35b3480156102e157600080fd5b506102fc60048036038101906102f79190610efe565b6107d1565b6040516103099190611345565b60405180910390f35b34801561031e57600080fd5b5061033960048036038101906103349190610fff565b610841565b005b34801561034757600080fd5b50610362600480360381019061035d9190610f58565b6109ac565b60405161036f91906112cf565b60405180910390f35b34801561038457600080fd5b5061039f600480360381019061039a9190610efe565b610a6d565b005b3480156103ad57600080fd5b506103c860048036038101906103c39190610efe565b610af1565b005b60006004600083815260200190815260200160002060009054906101000a900460ff169050919050565b6000600360003373ffffffffffffffffffffffffffffffffffffffff1673ffffffffffffffffffffffffffffffffffffffff16815260200190815260200160002060405180604001604052908160008201548152602001600182015481525050905080600360008473ffffffffffffffffffffffffffffffffffffffff1673ffffffffffffffffffffffffffffffffffffffff168152602001908152602001600020600082015181600001556020820151816001015590505081600260008360000151815260200190815260200160002060006101000a81548173ffffffffffffffffffffffffffffffffffffffff021916908373ffffffffffffffffffffffffffffffffffffffff1602179055505050565b61050f610b3d565b806002600084815260200190815260200160002060006101000a81548173ffffffffffffffffffffffffffffffffffffffff021916908373ffffffffffffffffffffffffffffffffffffffff16021790555081600360008373ffffffffffffffffffffffffffffffffffffffff1673ffffffffffffffffffffffffffffffffffffffff168152602001908152602001600020600001819055505050565b6000600360003373ffffffffffffffffffffffffffffffffffffffff1673ffffffffffffffffffffffffffffffffffffffff16815260200190815260200160002090508181600101819055505050565b6000806002600084815260200190815260200160002060009054906101000a900473ffffffffffffffffffffffffffffffffffffffff16905080915050919050565b610646610b3d565b6106506000610bbb565b565b60008060009054906101000a900473ffffffffffffffffffffffffffffffffffffffff16905090565b610683610d5c565b60006002600084815260200190815260200160002060009054906101000a900473ffffffffffffffffffffffffffffffffffffffff1690506000600360008373ffffffffffffffffffffffffffffffffffffffff1673ffffffffffffffffffffffffffffffffffffffff1681526020019081526020016000206040518060400160405290816000820154815260200160018201548152505090508092505050919050565b61072f610b3d565b806004600084815260200190815260200160002060006101000a81548160ff0219169083151502179055505050565b610766610d5c565b6000600360008473ffffffffffffffffffffffffffffffffffffffff1673ffffffffffffffffffffffffffffffffffffffff16815260200190815260200160002060405180604001604052908160008201548152602001600182015481525050905080915050919050565b600080600360008473ffffffffffffffffffffffffffffffffffffffff1673ffffffffffffffffffffffffffffffffffffffff1681526020019081526020016000206040518060400160405290816000820154815260200160018201548152505090508060000151915050919050565b610849610b3d565b60003090506000600160009054906101000a900473ffffffffffffffffffffffffffffffffffffffff1673ffffffffffffffffffffffffffffffffffffffff1663cf37834383876040518363ffffffff1660e01b81526004016108ad92919061129f565b602060405180830381600087803b1580156108c757600080fd5b505af11580156108db573d6000803e3d6000fd5b505050506040513d601f19601f820116820180604052508101906108ff919061109b565b9050600160009054906101000a900473ffffffffffffffffffffffffffffffffffffffff1673ffffffffffffffffffffffffffffffffffffffff1663e1b2e97982856040518363ffffffff1660e01b815260040161095e929190611360565b600060405180830381600087803b15801561097857600080fd5b505af115801561098c573d6000803e3d6000fd5b5050505061099b816001610727565b6109a58185610507565b5050505050565b6000806002600084815260200190815260200160002060009054906101000a900473ffffffffffffffffffffffffffffffffffffffff1690506000600360008373ffffffffffffffffffffffffffffffffffffffff1673ffffffffffffffffffffffffffffffffffffffff1681526020019081526020016000206040518060400160405290816000820154815260200160018201548152505090506000610a5b82602001518b8b8b8b8b610c7f565b90508093505050509695505050505050565b610a75610b3d565b600073ffffffffffffffffffffffffffffffffffffffff168173ffffffffffffffffffffffffffffffffffffffff161415610ae5576040517f08c379a0000000000000000000000000000000000000000000000000000000008152600401610adc906112ea565b60405180910390fd5b610aee81610bbb565b50565b610af9610b3d565b80600160006101000a81548173ffffffffffffffffffffffffffffffffffffffff021916908373ffffffffffffffffffffffffffffffffffffffff16021790555050565b610b45610d54565b73ffffffffffffffffffffffffffffffffffffffff16610b63610652565b73ffffffffffffffffffffffffffffffffffffffff1614610bb9576040517f08c379a0000000000000000000000000000000000000000000000000000000008152600401610bb09061130a565b60405180910390fd5b565b60008060009054906101000a900473ffffffffffffffffffffffffffffffffffffffff169050816000806101000a81548173ffffffffffffffffffffffffffffffffffffffff021916908373ffffffffffffffffffffffffffffffffffffffff1602179055508173ffffffffffffffffffffffffffffffffffffffff168173ffffffffffffffffffffffffffffffffffffffff167f8be0079c531659141344cd1fd0a4f28419497f9722a3daafe3b4186f6b6457e060405160405180910390a35050565b60008086905060005b86869050811015610d43576000878783818110610ca857610ca7611542565b5b9050602002013590506001868684818110610cc657610cc5611542565b5b905060200201351415610d03578281604051602001610ce6929190611258565b604051602081830303815290604052805190602001209250610d2f565b8083604051602001610d16929190611258565b6040516020818303038152906040528051906020012092505b508080610d3b906114c0565b915050610c88565b508781149150509695505050505050565b600033905090565b604051806040016040528060008152602001600080191681525090565b6000610d8c610d87846113ae565b611389565b905082815260208101848484011115610da857610da76115af565b5b610db384828561144d565b509392505050565b600081359050610dca81611647565b92915050565b60008083601f840112610de657610de56115a5565b5b8235905067ffffffffffffffff811115610e0357610e026115a0565b5b602083019150836020820283011115610e1f57610e1e6115aa565b5b9250929050565b60008083601f840112610e3c57610e3b6115a5565b5b8235905067ffffffffffffffff811115610e5957610e586115a0565b5b602083019150836020820283011115610e7557610e746115aa565b5b9250929050565b600081359050610e8b8161165e565b92915050565b600081359050610ea081611675565b92915050565b600082601f830112610ebb57610eba6115a5565b5b8135610ecb848260208601610d79565b91505092915050565b600081359050610ee38161168c565b92915050565b600081519050610ef88161168c565b92915050565b600060208284031215610f1457610f136115b9565b5b6000610f2284828501610dbb565b91505092915050565b600060208284031215610f4157610f406115b9565b5b6000610f4f84828501610e91565b91505092915050565b60008060008060008060808789031215610f7557610f746115b9565b5b6000610f8389828a01610e91565b965050602087013567ffffffffffffffff811115610fa457610fa36115b4565b5b610fb089828a01610dd0565b9550955050604087013567ffffffffffffffff811115610fd357610fd26115b4565b5b610fdf89828a01610e26565b93509350506060610ff289828a01610ed4565b9150509295509295509295565b600080600060608486031215611018576110176115b9565b5b600084013567ffffffffffffffff811115611036576110356115b4565b5b61104286828701610ea6565b935050602061105386828701610dbb565b925050604061106486828701610ed4565b9150509250925092565b600060208284031215611084576110836115b9565b5b600061109284828501610ed4565b91505092915050565b6000602082840312156110b1576110b06115b9565b5b60006110bf84828501610ee9565b91505092915050565b600080604083850312156110df576110de6115b9565b5b60006110ed85828601610ed4565b92505060206110fe85828601610dbb565b9150509250929050565b6000806040838503121561111f5761111e6115b9565b5b600061112d85828601610ed4565b925050602061113e85828601610e7c565b9150509250929050565b611151816113fb565b82525050565b6111608161140d565b82525050565b61116f81611419565b82525050565b61118661118182611419565b611509565b82525050565b6000611197826113df565b6111a181856113ea565b93506111b181856020860161145c565b6111ba816115be565b840191505092915050565b60006111d26026836113ea565b91506111dd826115cf565b604082019050919050565b60006111f56020836113ea565b91506112008261161e565b602082019050919050565b604082016000820151611221600085018261123a565b5060208201516112346020850182611166565b50505050565b61124381611443565b82525050565b61125281611443565b82525050565b60006112648285611175565b6020820191506112748284611175565b6020820191508190509392505050565b60006020820190506112996000830184611148565b92915050565b60006040820190506112b46000830185611148565b81810360208301526112c6818461118c565b90509392505050565b60006020820190506112e46000830184611157565b92915050565b60006020820190508181036000830152611303816111c5565b9050919050565b60006020820190508181036000830152611323816111e8565b9050919050565b600060408201905061133f600083018461120b565b92915050565b600060208201905061135a6000830184611249565b92915050565b60006040820190506113756000830185611249565b6113826020830184611249565b9392505050565b60006113936113a4565b905061139f828261148f565b919050565b6000604051905090565b600067ffffffffffffffff8211156113c9576113c8611571565b5b6113d2826115be565b9050602081019050919050565b600081519050919050565b600082825260208201905092915050565b600061140682611423565b9050919050565b60008115159050919050565b6000819050919050565b600073ffffffffffffffffffffffffffffffffffffffff82169050919050565b6000819050919050565b82818337600083830152505050565b60005b8381101561147a57808201518184015260208101905061145f565b83811115611489576000848401525b50505050565b611498826115be565b810181811067ffffffffffffffff821117156114b7576114b6611571565b5b80604052505050565b60006114cb82611443565b91507fffffffffffffffffffffffffffffffffffffffffffffffffffffffffffffffff8214156114fe576114fd611513565b5b600182019050919050565b6000819050919050565b7f4e487b7100000000000000000000000000000000000000000000000000000000600052601160045260246000fd5b7f4e487b7100000000000000000000000000000000000000000000000000000000600052603260045260246000fd5b7f4e487b7100000000000000000000000000000000000000000000000000000000600052604160045260246000fd5b600080fd5b600080fd5b600080fd5b600080fd5b600080fd5b600080fd5b6000601f19601f8301169050919050565b7f4f776e61626c653a206e6577206f776e657220697320746865207a65726f206160008201527f6464726573730000000000000000000000000000000000000000000000000000602082015250565b7f4f776e61626c653a2063616c6c6572206973206e6f7420746865206f776e6572600082015250565b611650816113fb565b811461165b57600080fd5b50565b6116678161140d565b811461167257600080fd5b50565b61167e81611419565b811461168957600080fd5b50565b61169581611443565b81146116a057600080fd5b5056fea264697066735822122027d9d68d1964db3c669e005731ec93cb6e34b4102f515a55d4d91312ac07e18464736f6c63430008070033",
					"opcodes": "PUSH1 0x80 PUSH1 0x40 MSTORE CALLVALUE DUP1 ISZERO PUSH2 0x10 JUMPI PUSH1 0x0 DUP1 REVERT JUMPDEST POP PUSH2 0x2D PUSH2 0x22 PUSH2 0x32 PUSH1 0x20 SHL PUSH1 0x20 SHR JUMP JUMPDEST PUSH2 0x3A PUSH1 0x20 SHL PUSH1 0x20 SHR JUMP JUMPDEST PUSH2 0xFE JUMP JUMPDEST PUSH1 0x0 CALLER SWAP1 POP SWAP1 JUMP JUMPDEST PUSH1 0x0 DUP1 PUSH1 0x0 SWAP1 SLOAD SWAP1 PUSH2 0x100 EXP SWAP1 DIV PUSH20 0xFFFFFFFFFFFFFFFFFFFFFFFFFFFFFFFFFFFFFFFF AND SWAP1 POP DUP2 PUSH1 0x0 DUP1 PUSH2 0x100 EXP DUP2 SLOAD DUP2 PUSH20 0xFFFFFFFFFFFFFFFFFFFFFFFFFFFFFFFFFFFFFFFF MUL NOT AND SWAP1 DUP4 PUSH20 0xFFFFFFFFFFFFFFFFFFFFFFFFFFFFFFFFFFFFFFFF AND MUL OR SWAP1 SSTORE POP DUP2 PUSH20 0xFFFFFFFFFFFFFFFFFFFFFFFFFFFFFFFFFFFFFFFF AND DUP2 PUSH20 0xFFFFFFFFFFFFFFFFFFFFFFFFFFFFFFFFFFFFFFFF AND PUSH32 0x8BE0079C531659141344CD1FD0A4F28419497F9722A3DAAFE3B4186F6B6457E0 PUSH1 0x40 MLOAD PUSH1 0x40 MLOAD DUP1 SWAP2 SUB SWAP1 LOG3 POP POP JUMP JUMPDEST PUSH2 0x16D9 DUP1 PUSH2 0x10D PUSH1 0x0 CODECOPY PUSH1 0x0 RETURN INVALID PUSH1 0x80 PUSH1 0x40 MSTORE PUSH1 0x4 CALLDATASIZE LT PUSH2 0xEC JUMPI PUSH1 0x0 CALLDATALOAD PUSH1 0xE0 SHR DUP1 PUSH4 0x917B8FD0 GT PUSH2 0x8A JUMPI DUP1 PUSH4 0xD1933DDD GT PUSH2 0x59 JUMPI DUP1 PUSH4 0xD1933DDD EQ PUSH2 0x312 JUMPI DUP1 PUSH4 0xF097C289 EQ PUSH2 0x33B JUMPI DUP1 PUSH4 0xF2FDE38B EQ PUSH2 0x378 JUMPI DUP1 PUSH4 0xFBC2CF13 EQ PUSH2 0x3A1 JUMPI PUSH2 0xF6 JUMP JUMPDEST DUP1 PUSH4 0x917B8FD0 EQ PUSH2 0x232 JUMPI DUP1 PUSH4 0xAB98A679 EQ PUSH2 0x26F JUMPI DUP1 PUSH4 0xAD575035 EQ PUSH2 0x298 JUMPI DUP1 PUSH4 0xB2B72BC4 EQ PUSH2 0x2D5 JUMPI PUSH2 0xF6 JUMP JUMPDEST DUP1 PUSH4 0x4783F0EF GT PUSH2 0xC6 JUMPI DUP1 PUSH4 0x4783F0EF EQ PUSH2 0x18A JUMPI DUP1 PUSH4 0x4B3CEF44 EQ PUSH2 0x1B3 JUMPI DUP1 PUSH4 0x715018A6 EQ PUSH2 0x1F0 JUMPI DUP1 PUSH4 0x8DA5CB5B EQ PUSH2 0x207 JUMPI PUSH2 0xF6 JUMP JUMPDEST DUP1 PUSH4 0xE197DC9 EQ PUSH2 0xFB JUMPI DUP1 PUSH4 0x1FF4BDF3 EQ PUSH2 0x138 JUMPI DUP1 PUSH4 0x3960A892 EQ PUSH2 0x161 JUMPI PUSH2 0xF6 JUMP JUMPDEST CALLDATASIZE PUSH2 0xF6 JUMPI PUSH1 0x0 DUP1 REVERT JUMPDEST PUSH1 0x0 DUP1 REVERT JUMPDEST CALLVALUE DUP1 ISZERO PUSH2 0x107 JUMPI PUSH1 0x0 DUP1 REVERT JUMPDEST POP PUSH2 0x122 PUSH1 0x4 DUP1 CALLDATASIZE SUB DUP2 ADD SWAP1 PUSH2 0x11D SWAP2 SWAP1 PUSH2 0x106E JUMP JUMPDEST PUSH2 0x3CA JUMP JUMPDEST PUSH1 0x40 MLOAD PUSH2 0x12F SWAP2 SWAP1 PUSH2 0x12CF JUMP JUMPDEST PUSH1 0x40 MLOAD DUP1 SWAP2 SUB SWAP1 RETURN JUMPDEST CALLVALUE DUP1 ISZERO PUSH2 0x144 JUMPI PUSH1 0x0 DUP1 REVERT JUMPDEST POP PUSH2 0x15F PUSH1 0x4 DUP1 CALLDATASIZE SUB DUP2 ADD SWAP1 PUSH2 0x15A SWAP2 SWAP1 PUSH2 0xEFE JUMP JUMPDEST PUSH2 0x3F4 JUMP JUMPDEST STOP JUMPDEST CALLVALUE DUP1 ISZERO PUSH2 0x16D JUMPI PUSH1 0x0 DUP1 REVERT JUMPDEST POP PUSH2 0x188 PUSH1 0x4 DUP1 CALLDATASIZE SUB DUP2 ADD SWAP1 PUSH2 0x183 SWAP2 SWAP1 PUSH2 0x10C8 JUMP JUMPDEST PUSH2 0x507 JUMP JUMPDEST STOP JUMPDEST CALLVALUE DUP1 ISZERO PUSH2 0x196 JUMPI PUSH1 0x0 DUP1 REVERT JUMPDEST POP PUSH2 0x1B1 PUSH1 0x4 DUP1 CALLDATASIZE SUB DUP2 ADD SWAP1 PUSH2 0x1AC SWAP2 SWAP1 PUSH2 0xF2B JUMP JUMPDEST PUSH2 0x5AC JUMP JUMPDEST STOP JUMPDEST CALLVALUE DUP1 ISZERO PUSH2 0x1BF JUMPI PUSH1 0x0 DUP1 REVERT JUMPDEST POP PUSH2 0x1DA PUSH1 0x4 DUP1 CALLDATASIZE SUB DUP2 ADD SWAP1 PUSH2 0x1D5 SWAP2 SWAP1 PUSH2 0x106E JUMP JUMPDEST PUSH2 0x5FC JUMP JUMPDEST PUSH1 0x40 MLOAD PUSH2 0x1E7 SWAP2 SWAP1 PUSH2 0x1284 JUMP JUMPDEST PUSH1 0x40 MLOAD DUP1 SWAP2 SUB SWAP1 RETURN JUMPDEST CALLVALUE DUP1 ISZERO PUSH2 0x1FC JUMPI PUSH1 0x0 DUP1 REVERT JUMPDEST POP PUSH2 0x205 PUSH2 0x63E JUMP JUMPDEST STOP JUMPDEST CALLVALUE DUP1 ISZERO PUSH2 0x213 JUMPI PUSH1 0x0 DUP1 REVERT JUMPDEST POP PUSH2 0x21C PUSH2 0x652 JUMP JUMPDEST PUSH1 0x40 MLOAD PUSH2 0x229 SWAP2 SWAP1 PUSH2 0x1284 JUMP JUMPDEST PUSH1 0x40 MLOAD DUP1 SWAP2 SUB SWAP1 RETURN JUMPDEST CALLVALUE DUP1 ISZERO PUSH2 0x23E JUMPI PUSH1 0x0 DUP1 REVERT JUMPDEST POP PUSH2 0x259 PUSH1 0x4 DUP1 CALLDATASIZE SUB DUP2 ADD SWAP1 PUSH2 0x254 SWAP2 SWAP1 PUSH2 0x106E JUMP JUMPDEST PUSH2 0x67B JUMP JUMPDEST PUSH1 0x40 MLOAD PUSH2 0x266 SWAP2 SWAP1 PUSH2 0x132A JUMP JUMPDEST PUSH1 0x40 MLOAD DUP1 SWAP2 SUB SWAP1 RETURN JUMPDEST CALLVALUE DUP1 ISZERO PUSH2 0x27B JUMPI PUSH1 0x0 DUP1 REVERT JUMPDEST POP PUSH2 0x296 PUSH1 0x4 DUP1 CALLDATASIZE SUB DUP2 ADD SWAP1 PUSH2 0x291 SWAP2 SWAP1 PUSH2 0x1108 JUMP JUMPDEST PUSH2 0x727 JUMP JUMPDEST STOP JUMPDEST CALLVALUE DUP1 ISZERO PUSH2 0x2A4 JUMPI PUSH1 0x0 DUP1 REVERT JUMPDEST POP PUSH2 0x2BF PUSH1 0x4 DUP1 CALLDATASIZE SUB DUP2 ADD SWAP1 PUSH2 0x2BA SWAP2 SWAP1 PUSH2 0xEFE JUMP JUMPDEST PUSH2 0x75E JUMP JUMPDEST PUSH1 0x40 MLOAD PUSH2 0x2CC SWAP2 SWAP1 PUSH2 0x132A JUMP JUMPDEST PUSH1 0x40 MLOAD DUP1 SWAP2 SUB SWAP1 RETURN JUMPDEST CALLVALUE DUP1 ISZERO PUSH2 0x2E1 JUMPI PUSH1 0x0 DUP1 REVERT JUMPDEST POP PUSH2 0x2FC PUSH1 0x4 DUP1 CALLDATASIZE SUB DUP2 ADD SWAP1 PUSH2 0x2F7 SWAP2 SWAP1 PUSH2 0xEFE JUMP JUMPDEST PUSH2 0x7D1 JUMP JUMPDEST PUSH1 0x40 MLOAD PUSH2 0x309 SWAP2 SWAP1 PUSH2 0x1345 JUMP JUMPDEST PUSH1 0x40 MLOAD DUP1 SWAP2 SUB SWAP1 RETURN JUMPDEST CALLVALUE DUP1 ISZERO PUSH2 0x31E JUMPI PUSH1 0x0 DUP1 REVERT JUMPDEST POP PUSH2 0x339 PUSH1 0x4 DUP1 CALLDATASIZE SUB DUP2 ADD SWAP1 PUSH2 0x334 SWAP2 SWAP1 PUSH2 0xFFF JUMP JUMPDEST PUSH2 0x841 JUMP JUMPDEST STOP JUMPDEST CALLVALUE DUP1 ISZERO PUSH2 0x347 JUMPI PUSH1 0x0 DUP1 REVERT JUMPDEST POP PUSH2 0x362 PUSH1 0x4 DUP1 CALLDATASIZE SUB DUP2 ADD SWAP1 PUSH2 0x35D SWAP2 SWAP1 PUSH2 0xF58 JUMP JUMPDEST PUSH2 0x9AC JUMP JUMPDEST PUSH1 0x40 MLOAD PUSH2 0x36F SWAP2 SWAP1 PUSH2 0x12CF JUMP JUMPDEST PUSH1 0x40 MLOAD DUP1 SWAP2 SUB SWAP1 RETURN JUMPDEST CALLVALUE DUP1 ISZERO PUSH2 0x384 JUMPI PUSH1 0x0 DUP1 REVERT JUMPDEST POP PUSH2 0x39F PUSH1 0x4 DUP1 CALLDATASIZE SUB DUP2 ADD SWAP1 PUSH2 0x39A SWAP2 SWAP1 PUSH2 0xEFE JUMP JUMPDEST PUSH2 0xA6D JUMP JUMPDEST STOP JUMPDEST CALLVALUE DUP1 ISZERO PUSH2 0x3AD JUMPI PUSH1 0x0 DUP1 REVERT JUMPDEST POP PUSH2 0x3C8 PUSH1 0x4 DUP1 CALLDATASIZE SUB DUP2 ADD SWAP1 PUSH2 0x3C3 SWAP2 SWAP1 PUSH2 0xEFE JUMP JUMPDEST PUSH2 0xAF1 JUMP JUMPDEST STOP JUMPDEST PUSH1 0x0 PUSH1 0x4 PUSH1 0x0 DUP4 DUP2 MSTORE PUSH1 0x20 ADD SWAP1 DUP2 MSTORE PUSH1 0x20 ADD PUSH1 0x0 KECCAK256 PUSH1 0x0 SWAP1 SLOAD SWAP1 PUSH2 0x100 EXP SWAP1 DIV PUSH1 0xFF AND SWAP1 POP SWAP2 SWAP1 POP JUMP JUMPDEST PUSH1 0x0 PUSH1 0x3 PUSH1 0x0 CALLER PUSH20 0xFFFFFFFFFFFFFFFFFFFFFFFFFFFFFFFFFFFFFFFF AND PUSH20 0xFFFFFFFFFFFFFFFFFFFFFFFFFFFFFFFFFFFFFFFF AND DUP2 MSTORE PUSH1 0x20 ADD SWAP1 DUP2 MSTORE PUSH1 0x20 ADD PUSH1 0x0 KECCAK256 PUSH1 0x40 MLOAD DUP1 PUSH1 0x40 ADD PUSH1 0x40 MSTORE SWAP1 DUP2 PUSH1 0x0 DUP3 ADD SLOAD DUP2 MSTORE PUSH1 0x20 ADD PUSH1 0x1 DUP3 ADD SLOAD DUP2 MSTORE POP POP SWAP1 POP DUP1 PUSH1 0x3 PUSH1 0x0 DUP5 PUSH20 0xFFFFFFFFFFFFFFFFFFFFFFFFFFFFFFFFFFFFFFFF AND PUSH20 0xFFFFFFFFFFFFFFFFFFFFFFFFFFFFFFFFFFFFFFFF AND DUP2 MSTORE PUSH1 0x20 ADD SWAP1 DUP2 MSTORE PUSH1 0x20 ADD PUSH1 0x0 KECCAK256 PUSH1 0x0 DUP3 ADD MLOAD DUP2 PUSH1 0x0 ADD SSTORE PUSH1 0x20 DUP3 ADD MLOAD DUP2 PUSH1 0x1 ADD SSTORE SWAP1 POP POP DUP2 PUSH1 0x2 PUSH1 0x0 DUP4 PUSH1 0x0 ADD MLOAD DUP2 MSTORE PUSH1 0x20 ADD SWAP1 DUP2 MSTORE PUSH1 0x20 ADD PUSH1 0x0 KECCAK256 PUSH1 0x0 PUSH2 0x100 EXP DUP2 SLOAD DUP2 PUSH20 0xFFFFFFFFFFFFFFFFFFFFFFFFFFFFFFFFFFFFFFFF MUL NOT AND SWAP1 DUP4 PUSH20 0xFFFFFFFFFFFFFFFFFFFFFFFFFFFFFFFFFFFFFFFF AND MUL OR SWAP1 SSTORE POP POP POP JUMP JUMPDEST PUSH2 0x50F PUSH2 0xB3D JUMP JUMPDEST DUP1 PUSH1 0x2 PUSH1 0x0 DUP5 DUP2 MSTORE PUSH1 0x20 ADD SWAP1 DUP2 MSTORE PUSH1 0x20 ADD PUSH1 0x0 KECCAK256 PUSH1 0x0 PUSH2 0x100 EXP DUP2 SLOAD DUP2 PUSH20 0xFFFFFFFFFFFFFFFFFFFFFFFFFFFFFFFFFFFFFFFF MUL NOT AND SWAP1 DUP4 PUSH20 0xFFFFFFFFFFFFFFFFFFFFFFFFFFFFFFFFFFFFFFFF AND MUL OR SWAP1 SSTORE POP DUP2 PUSH1 0x3 PUSH1 0x0 DUP4 PUSH20 0xFFFFFFFFFFFFFFFFFFFFFFFFFFFFFFFFFFFFFFFF AND PUSH20 0xFFFFFFFFFFFFFFFFFFFFFFFFFFFFFFFFFFFFFFFF AND DUP2 MSTORE PUSH1 0x20 ADD SWAP1 DUP2 MSTORE PUSH1 0x20 ADD PUSH1 0x0 KECCAK256 PUSH1 0x0 ADD DUP2 SWAP1 SSTORE POP POP POP JUMP JUMPDEST PUSH1 0x0 PUSH1 0x3 PUSH1 0x0 CALLER PUSH20 0xFFFFFFFFFFFFFFFFFFFFFFFFFFFFFFFFFFFFFFFF AND PUSH20 0xFFFFFFFFFFFFFFFFFFFFFFFFFFFFFFFFFFFFFFFF AND DUP2 MSTORE PUSH1 0x20 ADD SWAP1 DUP2 MSTORE PUSH1 0x20 ADD PUSH1 0x0 KECCAK256 SWAP1 POP DUP2 DUP2 PUSH1 0x1 ADD DUP2 SWAP1 SSTORE POP POP POP JUMP JUMPDEST PUSH1 0x0 DUP1 PUSH1 0x2 PUSH1 0x0 DUP5 DUP2 MSTORE PUSH1 0x20 ADD SWAP1 DUP2 MSTORE PUSH1 0x20 ADD PUSH1 0x0 KECCAK256 PUSH1 0x0 SWAP1 SLOAD SWAP1 PUSH2 0x100 EXP SWAP1 DIV PUSH20 0xFFFFFFFFFFFFFFFFFFFFFFFFFFFFFFFFFFFFFFFF AND SWAP1 POP DUP1 SWAP2 POP POP SWAP2 SWAP1 POP JUMP JUMPDEST PUSH2 0x646 PUSH2 0xB3D JUMP JUMPDEST PUSH2 0x650 PUSH1 0x0 PUSH2 0xBBB JUMP JUMPDEST JUMP JUMPDEST PUSH1 0x0 DUP1 PUSH1 0x0 SWAP1 SLOAD SWAP1 PUSH2 0x100 EXP SWAP1 DIV PUSH20 0xFFFFFFFFFFFFFFFFFFFFFFFFFFFFFFFFFFFFFFFF AND SWAP1 POP SWAP1 JUMP JUMPDEST PUSH2 0x683 PUSH2 0xD5C JUMP JUMPDEST PUSH1 0x0 PUSH1 0x2 PUSH1 0x0 DUP5 DUP2 MSTORE PUSH1 0x20 ADD SWAP1 DUP2 MSTORE PUSH1 0x20 ADD PUSH1 0x0 KECCAK256 PUSH1 0x0 SWAP1 SLOAD SWAP1 PUSH2 0x100 EXP SWAP1 DIV PUSH20 0xFFFFFFFFFFFFFFFFFFFFFFFFFFFFFFFFFFFFFFFF AND SWAP1 POP PUSH1 0x0 PUSH1 0x3 PUSH1 0x0 DUP4 PUSH20 0xFFFFFFFFFFFFFFFFFFFFFFFFFFFFFFFFFFFFFFFF AND PUSH20 0xFFFFFFFFFFFFFFFFFFFFFFFFFFFFFFFFFFFFFFFF AND DUP2 MSTORE PUSH1 0x20 ADD SWAP1 DUP2 MSTORE PUSH1 0x20 ADD PUSH1 0x0 KECCAK256 PUSH1 0x40 MLOAD DUP1 PUSH1 0x40 ADD PUSH1 0x40 MSTORE SWAP1 DUP2 PUSH1 0x0 DUP3 ADD SLOAD DUP2 MSTORE PUSH1 0x20 ADD PUSH1 0x1 DUP3 ADD SLOAD DUP2 MSTORE POP POP SWAP1 POP DUP1 SWAP3 POP POP POP SWAP2 SWAP1 POP JUMP JUMPDEST PUSH2 0x72F PUSH2 0xB3D JUMP JUMPDEST DUP1 PUSH1 0x4 PUSH1 0x0 DUP5 DUP2 MSTORE PUSH1 0x20 ADD SWAP1 DUP2 MSTORE PUSH1 0x20 ADD PUSH1 0x0 KECCAK256 PUSH1 0x0 PUSH2 0x100 EXP DUP2 SLOAD DUP2 PUSH1 0xFF MUL NOT AND SWAP1 DUP4 ISZERO ISZERO MUL OR SWAP1 SSTORE POP POP POP JUMP JUMPDEST PUSH2 0x766 PUSH2 0xD5C JUMP JUMPDEST PUSH1 0x0 PUSH1 0x3 PUSH1 0x0 DUP5 PUSH20 0xFFFFFFFFFFFFFFFFFFFFFFFFFFFFFFFFFFFFFFFF AND PUSH20 0xFFFFFFFFFFFFFFFFFFFFFFFFFFFFFFFFFFFFFFFF AND DUP2 MSTORE PUSH1 0x20 ADD SWAP1 DUP2 MSTORE PUSH1 0x20 ADD PUSH1 0x0 KECCAK256 PUSH1 0x40 MLOAD DUP1 PUSH1 0x40 ADD PUSH1 0x40 MSTORE SWAP1 DUP2 PUSH1 0x0 DUP3 ADD SLOAD DUP2 MSTORE PUSH1 0x20 ADD PUSH1 0x1 DUP3 ADD SLOAD DUP2 MSTORE POP POP SWAP1 POP DUP1 SWAP2 POP POP SWAP2 SWAP1 POP JUMP JUMPDEST PUSH1 0x0 DUP1 PUSH1 0x3 PUSH1 0x0 DUP5 PUSH20 0xFFFFFFFFFFFFFFFFFFFFFFFFFFFFFFFFFFFFFFFF AND PUSH20 0xFFFFFFFFFFFFFFFFFFFFFFFFFFFFFFFFFFFFFFFF AND DUP2 MSTORE PUSH1 0x20 ADD SWAP1 DUP2 MSTORE PUSH1 0x20 ADD PUSH1 0x0 KECCAK256 PUSH1 0x40 MLOAD DUP1 PUSH1 0x40 ADD PUSH1 0x40 MSTORE SWAP1 DUP2 PUSH1 0x0 DUP3 ADD SLOAD DUP2 MSTORE PUSH1 0x20 ADD PUSH1 0x1 DUP3 ADD SLOAD DUP2 MSTORE POP POP SWAP1 POP DUP1 PUSH1 0x0 ADD MLOAD SWAP2 POP POP SWAP2 SWAP1 POP JUMP JUMPDEST PUSH2 0x849 PUSH2 0xB3D JUMP JUMPDEST PUSH1 0x0 ADDRESS SWAP1 POP PUSH1 0x0 PUSH1 0x1 PUSH1 0x0 SWAP1 SLOAD SWAP1 PUSH2 0x100 EXP SWAP1 DIV PUSH20 0xFFFFFFFFFFFFFFFFFFFFFFFFFFFFFFFFFFFFFFFF AND PUSH20 0xFFFFFFFFFFFFFFFFFFFFFFFFFFFFFFFFFFFFFFFF AND PUSH4 0xCF378343 DUP4 DUP8 PUSH1 0x40 MLOAD DUP4 PUSH4 0xFFFFFFFF AND PUSH1 0xE0 SHL DUP2 MSTORE PUSH1 0x4 ADD PUSH2 0x8AD SWAP3 SWAP2 SWAP1 PUSH2 0x129F JUMP JUMPDEST PUSH1 0x20 PUSH1 0x40 MLOAD DUP1 DUP4 SUB DUP2 PUSH1 0x0 DUP8 DUP1 EXTCODESIZE ISZERO DUP1 ISZERO PUSH2 0x8C7 JUMPI PUSH1 0x0 DUP1 REVERT JUMPDEST POP GAS CALL ISZERO DUP1 ISZERO PUSH2 0x8DB JUMPI RETURNDATASIZE PUSH1 0x0 DUP1 RETURNDATACOPY RETURNDATASIZE PUSH1 0x0 REVERT JUMPDEST POP POP POP POP PUSH1 0x40 MLOAD RETURNDATASIZE PUSH1 0x1F NOT PUSH1 0x1F DUP3 ADD AND DUP3 ADD DUP1 PUSH1 0x40 MSTORE POP DUP2 ADD SWAP1 PUSH2 0x8FF SWAP2 SWAP1 PUSH2 0x109B JUMP JUMPDEST SWAP1 POP PUSH1 0x1 PUSH1 0x0 SWAP1 SLOAD SWAP1 PUSH2 0x100 EXP SWAP1 DIV PUSH20 0xFFFFFFFFFFFFFFFFFFFFFFFFFFFFFFFFFFFFFFFF AND PUSH20 0xFFFFFFFFFFFFFFFFFFFFFFFFFFFFFFFFFFFFFFFF AND PUSH4 0xE1B2E979 DUP3 DUP6 PUSH1 0x40 MLOAD DUP4 PUSH4 0xFFFFFFFF AND PUSH1 0xE0 SHL DUP2 MSTORE PUSH1 0x4 ADD PUSH2 0x95E SWAP3 SWAP2 SWAP1 PUSH2 0x1360 JUMP JUMPDEST PUSH1 0x0 PUSH1 0x40 MLOAD DUP1 DUP4 SUB DUP2 PUSH1 0x0 DUP8 DUP1 EXTCODESIZE ISZERO DUP1 ISZERO PUSH2 0x978 JUMPI PUSH1 0x0 DUP1 REVERT JUMPDEST POP GAS CALL ISZERO DUP1 ISZERO PUSH2 0x98C JUMPI RETURNDATASIZE PUSH1 0x0 DUP1 RETURNDATACOPY RETURNDATASIZE PUSH1 0x0 REVERT JUMPDEST POP POP POP POP PUSH2 0x99B DUP2 PUSH1 0x1 PUSH2 0x727 JUMP JUMPDEST PUSH2 0x9A5 DUP2 DUP6 PUSH2 0x507 JUMP JUMPDEST POP POP POP POP POP JUMP JUMPDEST PUSH1 0x0 DUP1 PUSH1 0x2 PUSH1 0x0 DUP5 DUP2 MSTORE PUSH1 0x20 ADD SWAP1 DUP2 MSTORE PUSH1 0x20 ADD PUSH1 0x0 KECCAK256 PUSH1 0x0 SWAP1 SLOAD SWAP1 PUSH2 0x100 EXP SWAP1 DIV PUSH20 0xFFFFFFFFFFFFFFFFFFFFFFFFFFFFFFFFFFFFFFFF AND SWAP1 POP PUSH1 0x0 PUSH1 0x3 PUSH1 0x0 DUP4 PUSH20 0xFFFFFFFFFFFFFFFFFFFFFFFFFFFFFFFFFFFFFFFF AND PUSH20 0xFFFFFFFFFFFFFFFFFFFFFFFFFFFFFFFFFFFFFFFF AND DUP2 MSTORE PUSH1 0x20 ADD SWAP1 DUP2 MSTORE PUSH1 0x20 ADD PUSH1 0x0 KECCAK256 PUSH1 0x40 MLOAD DUP1 PUSH1 0x40 ADD PUSH1 0x40 MSTORE SWAP1 DUP2 PUSH1 0x0 DUP3 ADD SLOAD DUP2 MSTORE PUSH1 0x20 ADD PUSH1 0x1 DUP3 ADD SLOAD DUP2 MSTORE POP POP SWAP1 POP PUSH1 0x0 PUSH2 0xA5B DUP3 PUSH1 0x20 ADD MLOAD DUP12 DUP12 DUP12 DUP12 DUP12 PUSH2 0xC7F JUMP JUMPDEST SWAP1 POP DUP1 SWAP4 POP POP POP POP SWAP7 SWAP6 POP POP POP POP POP POP JUMP JUMPDEST PUSH2 0xA75 PUSH2 0xB3D JUMP JUMPDEST PUSH1 0x0 PUSH20 0xFFFFFFFFFFFFFFFFFFFFFFFFFFFFFFFFFFFFFFFF AND DUP2 PUSH20 0xFFFFFFFFFFFFFFFFFFFFFFFFFFFFFFFFFFFFFFFF AND EQ ISZERO PUSH2 0xAE5 JUMPI PUSH1 0x40 MLOAD PUSH32 0x8C379A000000000000000000000000000000000000000000000000000000000 DUP2 MSTORE PUSH1 0x4 ADD PUSH2 0xADC SWAP1 PUSH2 0x12EA JUMP JUMPDEST PUSH1 0x40 MLOAD DUP1 SWAP2 SUB SWAP1 REVERT JUMPDEST PUSH2 0xAEE DUP2 PUSH2 0xBBB JUMP JUMPDEST POP JUMP JUMPDEST PUSH2 0xAF9 PUSH2 0xB3D JUMP JUMPDEST DUP1 PUSH1 0x1 PUSH1 0x0 PUSH2 0x100 EXP DUP2 SLOAD DUP2 PUSH20 0xFFFFFFFFFFFFFFFFFFFFFFFFFFFFFFFFFFFFFFFF MUL NOT AND SWAP1 DUP4 PUSH20 0xFFFFFFFFFFFFFFFFFFFFFFFFFFFFFFFFFFFFFFFF AND MUL OR SWAP1 SSTORE POP POP JUMP JUMPDEST PUSH2 0xB45 PUSH2 0xD54 JUMP JUMPDEST PUSH20 0xFFFFFFFFFFFFFFFFFFFFFFFFFFFFFFFFFFFFFFFF AND PUSH2 0xB63 PUSH2 0x652 JUMP JUMPDEST PUSH20 0xFFFFFFFFFFFFFFFFFFFFFFFFFFFFFFFFFFFFFFFF AND EQ PUSH2 0xBB9 JUMPI PUSH1 0x40 MLOAD PUSH32 0x8C379A000000000000000000000000000000000000000000000000000000000 DUP2 MSTORE PUSH1 0x4 ADD PUSH2 0xBB0 SWAP1 PUSH2 0x130A JUMP JUMPDEST PUSH1 0x40 MLOAD DUP1 SWAP2 SUB SWAP1 REVERT JUMPDEST JUMP JUMPDEST PUSH1 0x0 DUP1 PUSH1 0x0 SWAP1 SLOAD SWAP1 PUSH2 0x100 EXP SWAP1 DIV PUSH20 0xFFFFFFFFFFFFFFFFFFFFFFFFFFFFFFFFFFFFFFFF AND SWAP1 POP DUP2 PUSH1 0x0 DUP1 PUSH2 0x100 EXP DUP2 SLOAD DUP2 PUSH20 0xFFFFFFFFFFFFFFFFFFFFFFFFFFFFFFFFFFFFFFFF MUL NOT AND SWAP1 DUP4 PUSH20 0xFFFFFFFFFFFFFFFFFFFFFFFFFFFFFFFFFFFFFFFF AND MUL OR SWAP1 SSTORE POP DUP2 PUSH20 0xFFFFFFFFFFFFFFFFFFFFFFFFFFFFFFFFFFFFFFFF AND DUP2 PUSH20 0xFFFFFFFFFFFFFFFFFFFFFFFFFFFFFFFFFFFFFFFF AND PUSH32 0x8BE0079C531659141344CD1FD0A4F28419497F9722A3DAAFE3B4186F6B6457E0 PUSH1 0x40 MLOAD PUSH1 0x40 MLOAD DUP1 SWAP2 SUB SWAP1 LOG3 POP POP JUMP JUMPDEST PUSH1 0x0 DUP1 DUP7 SWAP1 POP PUSH1 0x0 JUMPDEST DUP7 DUP7 SWAP1 POP DUP2 LT ISZERO PUSH2 0xD43 JUMPI PUSH1 0x0 DUP8 DUP8 DUP4 DUP2 DUP2 LT PUSH2 0xCA8 JUMPI PUSH2 0xCA7 PUSH2 0x1542 JUMP JUMPDEST JUMPDEST SWAP1 POP PUSH1 0x20 MUL ADD CALLDATALOAD SWAP1 POP PUSH1 0x1 DUP7 DUP7 DUP5 DUP2 DUP2 LT PUSH2 0xCC6 JUMPI PUSH2 0xCC5 PUSH2 0x1542 JUMP JUMPDEST JUMPDEST SWAP1 POP PUSH1 0x20 MUL ADD CALLDATALOAD EQ ISZERO PUSH2 0xD03 JUMPI DUP3 DUP2 PUSH1 0x40 MLOAD PUSH1 0x20 ADD PUSH2 0xCE6 SWAP3 SWAP2 SWAP1 PUSH2 0x1258 JUMP JUMPDEST PUSH1 0x40 MLOAD PUSH1 0x20 DUP2 DUP4 SUB SUB DUP2 MSTORE SWAP1 PUSH1 0x40 MSTORE DUP1 MLOAD SWAP1 PUSH1 0x20 ADD KECCAK256 SWAP3 POP PUSH2 0xD2F JUMP JUMPDEST DUP1 DUP4 PUSH1 0x40 MLOAD PUSH1 0x20 ADD PUSH2 0xD16 SWAP3 SWAP2 SWAP1 PUSH2 0x1258 JUMP JUMPDEST PUSH1 0x40 MLOAD PUSH1 0x20 DUP2 DUP4 SUB SUB DUP2 MSTORE SWAP1 PUSH1 0x40 MSTORE DUP1 MLOAD SWAP1 PUSH1 0x20 ADD KECCAK256 SWAP3 POP JUMPDEST POP DUP1 DUP1 PUSH2 0xD3B SWAP1 PUSH2 0x14C0 JUMP JUMPDEST SWAP2 POP POP PUSH2 0xC88 JUMP JUMPDEST POP DUP8 DUP2 EQ SWAP2 POP POP SWAP7 SWAP6 POP POP POP POP POP POP JUMP JUMPDEST PUSH1 0x0 CALLER SWAP1 POP SWAP1 JUMP JUMPDEST PUSH1 0x40 MLOAD DUP1 PUSH1 0x40 ADD PUSH1 0x40 MSTORE DUP1 PUSH1 0x0 DUP2 MSTORE PUSH1 0x20 ADD PUSH1 0x0 DUP1 NOT AND DUP2 MSTORE POP SWAP1 JUMP JUMPDEST PUSH1 0x0 PUSH2 0xD8C PUSH2 0xD87 DUP5 PUSH2 0x13AE JUMP JUMPDEST PUSH2 0x1389 JUMP JUMPDEST SWAP1 POP DUP3 DUP2 MSTORE PUSH1 0x20 DUP2 ADD DUP5 DUP5 DUP5 ADD GT ISZERO PUSH2 0xDA8 JUMPI PUSH2 0xDA7 PUSH2 0x15AF JUMP JUMPDEST JUMPDEST PUSH2 0xDB3 DUP5 DUP3 DUP6 PUSH2 0x144D JUMP JUMPDEST POP SWAP4 SWAP3 POP POP POP JUMP JUMPDEST PUSH1 0x0 DUP2 CALLDATALOAD SWAP1 POP PUSH2 0xDCA DUP2 PUSH2 0x1647 JUMP JUMPDEST SWAP3 SWAP2 POP POP JUMP JUMPDEST PUSH1 0x0 DUP1 DUP4 PUSH1 0x1F DUP5 ADD SLT PUSH2 0xDE6 JUMPI PUSH2 0xDE5 PUSH2 0x15A5 JUMP JUMPDEST JUMPDEST DUP3 CALLDATALOAD SWAP1 POP PUSH8 0xFFFFFFFFFFFFFFFF DUP2 GT ISZERO PUSH2 0xE03 JUMPI PUSH2 0xE02 PUSH2 0x15A0 JUMP JUMPDEST JUMPDEST PUSH1 0x20 DUP4 ADD SWAP2 POP DUP4 PUSH1 0x20 DUP3 MUL DUP4 ADD GT ISZERO PUSH2 0xE1F JUMPI PUSH2 0xE1E PUSH2 0x15AA JUMP JUMPDEST JUMPDEST SWAP3 POP SWAP3 SWAP1 POP JUMP JUMPDEST PUSH1 0x0 DUP1 DUP4 PUSH1 0x1F DUP5 ADD SLT PUSH2 0xE3C JUMPI PUSH2 0xE3B PUSH2 0x15A5 JUMP JUMPDEST JUMPDEST DUP3 CALLDATALOAD SWAP1 POP PUSH8 0xFFFFFFFFFFFFFFFF DUP2 GT ISZERO PUSH2 0xE59 JUMPI PUSH2 0xE58 PUSH2 0x15A0 JUMP JUMPDEST JUMPDEST PUSH1 0x20 DUP4 ADD SWAP2 POP DUP4 PUSH1 0x20 DUP3 MUL DUP4 ADD GT ISZERO PUSH2 0xE75 JUMPI PUSH2 0xE74 PUSH2 0x15AA JUMP JUMPDEST JUMPDEST SWAP3 POP SWAP3 SWAP1 POP JUMP JUMPDEST PUSH1 0x0 DUP2 CALLDATALOAD SWAP1 POP PUSH2 0xE8B DUP2 PUSH2 0x165E JUMP JUMPDEST SWAP3 SWAP2 POP POP JUMP JUMPDEST PUSH1 0x0 DUP2 CALLDATALOAD SWAP1 POP PUSH2 0xEA0 DUP2 PUSH2 0x1675 JUMP JUMPDEST SWAP3 SWAP2 POP POP JUMP JUMPDEST PUSH1 0x0 DUP3 PUSH1 0x1F DUP4 ADD SLT PUSH2 0xEBB JUMPI PUSH2 0xEBA PUSH2 0x15A5 JUMP JUMPDEST JUMPDEST DUP2 CALLDATALOAD PUSH2 0xECB DUP5 DUP3 PUSH1 0x20 DUP7 ADD PUSH2 0xD79 JUMP JUMPDEST SWAP2 POP POP SWAP3 SWAP2 POP POP JUMP JUMPDEST PUSH1 0x0 DUP2 CALLDATALOAD SWAP1 POP PUSH2 0xEE3 DUP2 PUSH2 0x168C JUMP JUMPDEST SWAP3 SWAP2 POP POP JUMP JUMPDEST PUSH1 0x0 DUP2 MLOAD SWAP1 POP PUSH2 0xEF8 DUP2 PUSH2 0x168C JUMP JUMPDEST SWAP3 SWAP2 POP POP JUMP JUMPDEST PUSH1 0x0 PUSH1 0x20 DUP3 DUP5 SUB SLT ISZERO PUSH2 0xF14 JUMPI PUSH2 0xF13 PUSH2 0x15B9 JUMP JUMPDEST JUMPDEST PUSH1 0x0 PUSH2 0xF22 DUP5 DUP3 DUP6 ADD PUSH2 0xDBB JUMP JUMPDEST SWAP2 POP POP SWAP3 SWAP2 POP POP JUMP JUMPDEST PUSH1 0x0 PUSH1 0x20 DUP3 DUP5 SUB SLT ISZERO PUSH2 0xF41 JUMPI PUSH2 0xF40 PUSH2 0x15B9 JUMP JUMPDEST JUMPDEST PUSH1 0x0 PUSH2 0xF4F DUP5 DUP3 DUP6 ADD PUSH2 0xE91 JUMP JUMPDEST SWAP2 POP POP SWAP3 SWAP2 POP POP JUMP JUMPDEST PUSH1 0x0 DUP1 PUSH1 0x0 DUP1 PUSH1 0x0 DUP1 PUSH1 0x80 DUP8 DUP10 SUB SLT ISZERO PUSH2 0xF75 JUMPI PUSH2 0xF74 PUSH2 0x15B9 JUMP JUMPDEST JUMPDEST PUSH1 0x0 PUSH2 0xF83 DUP10 DUP3 DUP11 ADD PUSH2 0xE91 JUMP JUMPDEST SWAP7 POP POP PUSH1 0x20 DUP8 ADD CALLDATALOAD PUSH8 0xFFFFFFFFFFFFFFFF DUP2 GT ISZERO PUSH2 0xFA4 JUMPI PUSH2 0xFA3 PUSH2 0x15B4 JUMP JUMPDEST JUMPDEST PUSH2 0xFB0 DUP10 DUP3 DUP11 ADD PUSH2 0xDD0 JUMP JUMPDEST SWAP6 POP SWAP6 POP POP PUSH1 0x40 DUP8 ADD CALLDATALOAD PUSH8 0xFFFFFFFFFFFFFFFF DUP2 GT ISZERO PUSH2 0xFD3 JUMPI PUSH2 0xFD2 PUSH2 0x15B4 JUMP JUMPDEST JUMPDEST PUSH2 0xFDF DUP10 DUP3 DUP11 ADD PUSH2 0xE26 JUMP JUMPDEST SWAP4 POP SWAP4 POP POP PUSH1 0x60 PUSH2 0xFF2 DUP10 DUP3 DUP11 ADD PUSH2 0xED4 JUMP JUMPDEST SWAP2 POP POP SWAP3 SWAP6 POP SWAP3 SWAP6 POP SWAP3 SWAP6 JUMP JUMPDEST PUSH1 0x0 DUP1 PUSH1 0x0 PUSH1 0x60 DUP5 DUP7 SUB SLT ISZERO PUSH2 0x1018 JUMPI PUSH2 0x1017 PUSH2 0x15B9 JUMP JUMPDEST JUMPDEST PUSH1 0x0 DUP5 ADD CALLDATALOAD PUSH8 0xFFFFFFFFFFFFFFFF DUP2 GT ISZERO PUSH2 0x1036 JUMPI PUSH2 0x1035 PUSH2 0x15B4 JUMP JUMPDEST JUMPDEST PUSH2 0x1042 DUP7 DUP3 DUP8 ADD PUSH2 0xEA6 JUMP JUMPDEST SWAP4 POP POP PUSH1 0x20 PUSH2 0x1053 DUP7 DUP3 DUP8 ADD PUSH2 0xDBB JUMP JUMPDEST SWAP3 POP POP PUSH1 0x40 PUSH2 0x1064 DUP7 DUP3 DUP8 ADD PUSH2 0xED4 JUMP JUMPDEST SWAP2 POP POP SWAP3 POP SWAP3 POP SWAP3 JUMP JUMPDEST PUSH1 0x0 PUSH1 0x20 DUP3 DUP5 SUB SLT ISZERO PUSH2 0x1084 JUMPI PUSH2 0x1083 PUSH2 0x15B9 JUMP JUMPDEST JUMPDEST PUSH1 0x0 PUSH2 0x1092 DUP5 DUP3 DUP6 ADD PUSH2 0xED4 JUMP JUMPDEST SWAP2 POP POP SWAP3 SWAP2 POP POP JUMP JUMPDEST PUSH1 0x0 PUSH1 0x20 DUP3 DUP5 SUB SLT ISZERO PUSH2 0x10B1 JUMPI PUSH2 0x10B0 PUSH2 0x15B9 JUMP JUMPDEST JUMPDEST PUSH1 0x0 PUSH2 0x10BF DUP5 DUP3 DUP6 ADD PUSH2 0xEE9 JUMP JUMPDEST SWAP2 POP POP SWAP3 SWAP2 POP POP JUMP JUMPDEST PUSH1 0x0 DUP1 PUSH1 0x40 DUP4 DUP6 SUB SLT ISZERO PUSH2 0x10DF JUMPI PUSH2 0x10DE PUSH2 0x15B9 JUMP JUMPDEST JUMPDEST PUSH1 0x0 PUSH2 0x10ED DUP6 DUP3 DUP7 ADD PUSH2 0xED4 JUMP JUMPDEST SWAP3 POP POP PUSH1 0x20 PUSH2 0x10FE DUP6 DUP3 DUP7 ADD PUSH2 0xDBB JUMP JUMPDEST SWAP2 POP POP SWAP3 POP SWAP3 SWAP1 POP JUMP JUMPDEST PUSH1 0x0 DUP1 PUSH1 0x40 DUP4 DUP6 SUB SLT ISZERO PUSH2 0x111F JUMPI PUSH2 0x111E PUSH2 0x15B9 JUMP JUMPDEST JUMPDEST PUSH1 0x0 PUSH2 0x112D DUP6 DUP3 DUP7 ADD PUSH2 0xED4 JUMP JUMPDEST SWAP3 POP POP PUSH1 0x20 PUSH2 0x113E DUP6 DUP3 DUP7 ADD PUSH2 0xE7C JUMP JUMPDEST SWAP2 POP POP SWAP3 POP SWAP3 SWAP1 POP JUMP JUMPDEST PUSH2 0x1151 DUP2 PUSH2 0x13FB JUMP JUMPDEST DUP3 MSTORE POP POP JUMP JUMPDEST PUSH2 0x1160 DUP2 PUSH2 0x140D JUMP JUMPDEST DUP3 MSTORE POP POP JUMP JUMPDEST PUSH2 0x116F DUP2 PUSH2 0x1419 JUMP JUMPDEST DUP3 MSTORE POP POP JUMP JUMPDEST PUSH2 0x1186 PUSH2 0x1181 DUP3 PUSH2 0x1419 JUMP JUMPDEST PUSH2 0x1509 JUMP JUMPDEST DUP3 MSTORE POP POP JUMP JUMPDEST PUSH1 0x0 PUSH2 0x1197 DUP3 PUSH2 0x13DF JUMP JUMPDEST PUSH2 0x11A1 DUP2 DUP6 PUSH2 0x13EA JUMP JUMPDEST SWAP4 POP PUSH2 0x11B1 DUP2 DUP6 PUSH1 0x20 DUP7 ADD PUSH2 0x145C JUMP JUMPDEST PUSH2 0x11BA DUP2 PUSH2 0x15BE JUMP JUMPDEST DUP5 ADD SWAP2 POP POP SWAP3 SWAP2 POP POP JUMP JUMPDEST PUSH1 0x0 PUSH2 0x11D2 PUSH1 0x26 DUP4 PUSH2 0x13EA JUMP JUMPDEST SWAP2 POP PUSH2 0x11DD DUP3 PUSH2 0x15CF JUMP JUMPDEST PUSH1 0x40 DUP3 ADD SWAP1 POP SWAP2 SWAP1 POP JUMP JUMPDEST PUSH1 0x0 PUSH2 0x11F5 PUSH1 0x20 DUP4 PUSH2 0x13EA JUMP JUMPDEST SWAP2 POP PUSH2 0x1200 DUP3 PUSH2 0x161E JUMP JUMPDEST PUSH1 0x20 DUP3 ADD SWAP1 POP SWAP2 SWAP1 POP JUMP JUMPDEST PUSH1 0x40 DUP3 ADD PUSH1 0x0 DUP3 ADD MLOAD PUSH2 0x1221 PUSH1 0x0 DUP6 ADD DUP3 PUSH2 0x123A JUMP JUMPDEST POP PUSH1 0x20 DUP3 ADD MLOAD PUSH2 0x1234 PUSH1 0x20 DUP6 ADD DUP3 PUSH2 0x1166 JUMP JUMPDEST POP POP POP POP JUMP JUMPDEST PUSH2 0x1243 DUP2 PUSH2 0x1443 JUMP JUMPDEST DUP3 MSTORE POP POP JUMP JUMPDEST PUSH2 0x1252 DUP2 PUSH2 0x1443 JUMP JUMPDEST DUP3 MSTORE POP POP JUMP JUMPDEST PUSH1 0x0 PUSH2 0x1264 DUP3 DUP6 PUSH2 0x1175 JUMP JUMPDEST PUSH1 0x20 DUP3 ADD SWAP2 POP PUSH2 0x1274 DUP3 DUP5 PUSH2 0x1175 JUMP JUMPDEST PUSH1 0x20 DUP3 ADD SWAP2 POP DUP2 SWAP1 POP SWAP4 SWAP3 POP POP POP JUMP JUMPDEST PUSH1 0x0 PUSH1 0x20 DUP3 ADD SWAP1 POP PUSH2 0x1299 PUSH1 0x0 DUP4 ADD DUP5 PUSH2 0x1148 JUMP JUMPDEST SWAP3 SWAP2 POP POP JUMP JUMPDEST PUSH1 0x0 PUSH1 0x40 DUP3 ADD SWAP1 POP PUSH2 0x12B4 PUSH1 0x0 DUP4 ADD DUP6 PUSH2 0x1148 JUMP JUMPDEST DUP2 DUP2 SUB PUSH1 0x20 DUP4 ADD MSTORE PUSH2 0x12C6 DUP2 DUP5 PUSH2 0x118C JUMP JUMPDEST SWAP1 POP SWAP4 SWAP3 POP POP POP JUMP JUMPDEST PUSH1 0x0 PUSH1 0x20 DUP3 ADD SWAP1 POP PUSH2 0x12E4 PUSH1 0x0 DUP4 ADD DUP5 PUSH2 0x1157 JUMP JUMPDEST SWAP3 SWAP2 POP POP JUMP JUMPDEST PUSH1 0x0 PUSH1 0x20 DUP3 ADD SWAP1 POP DUP2 DUP2 SUB PUSH1 0x0 DUP4 ADD MSTORE PUSH2 0x1303 DUP2 PUSH2 0x11C5 JUMP JUMPDEST SWAP1 POP SWAP2 SWAP1 POP JUMP JUMPDEST PUSH1 0x0 PUSH1 0x20 DUP3 ADD SWAP1 POP DUP2 DUP2 SUB PUSH1 0x0 DUP4 ADD MSTORE PUSH2 0x1323 DUP2 PUSH2 0x11E8 JUMP JUMPDEST SWAP1 POP SWAP2 SWAP1 POP JUMP JUMPDEST PUSH1 0x0 PUSH1 0x40 DUP3 ADD SWAP1 POP PUSH2 0x133F PUSH1 0x0 DUP4 ADD DUP5 PUSH2 0x120B JUMP JUMPDEST SWAP3 SWAP2 POP POP JUMP JUMPDEST PUSH1 0x0 PUSH1 0x20 DUP3 ADD SWAP1 POP PUSH2 0x135A PUSH1 0x0 DUP4 ADD DUP5 PUSH2 0x1249 JUMP JUMPDEST SWAP3 SWAP2 POP POP JUMP JUMPDEST PUSH1 0x0 PUSH1 0x40 DUP3 ADD SWAP1 POP PUSH2 0x1375 PUSH1 0x0 DUP4 ADD DUP6 PUSH2 0x1249 JUMP JUMPDEST PUSH2 0x1382 PUSH1 0x20 DUP4 ADD DUP5 PUSH2 0x1249 JUMP JUMPDEST SWAP4 SWAP3 POP POP POP JUMP JUMPDEST PUSH1 0x0 PUSH2 0x1393 PUSH2 0x13A4 JUMP JUMPDEST SWAP1 POP PUSH2 0x139F DUP3 DUP3 PUSH2 0x148F JUMP JUMPDEST SWAP2 SWAP1 POP JUMP JUMPDEST PUSH1 0x0 PUSH1 0x40 MLOAD SWAP1 POP SWAP1 JUMP JUMPDEST PUSH1 0x0 PUSH8 0xFFFFFFFFFFFFFFFF DUP3 GT ISZERO PUSH2 0x13C9 JUMPI PUSH2 0x13C8 PUSH2 0x1571 JUMP JUMPDEST JUMPDEST PUSH2 0x13D2 DUP3 PUSH2 0x15BE JUMP JUMPDEST SWAP1 POP PUSH1 0x20 DUP2 ADD SWAP1 POP SWAP2 SWAP1 POP JUMP JUMPDEST PUSH1 0x0 DUP2 MLOAD SWAP1 POP SWAP2 SWAP1 POP JUMP JUMPDEST PUSH1 0x0 DUP3 DUP3 MSTORE PUSH1 0x20 DUP3 ADD SWAP1 POP SWAP3 SWAP2 POP POP JUMP JUMPDEST PUSH1 0x0 PUSH2 0x1406 DUP3 PUSH2 0x1423 JUMP JUMPDEST SWAP1 POP SWAP2 SWAP1 POP JUMP JUMPDEST PUSH1 0x0 DUP2 ISZERO ISZERO SWAP1 POP SWAP2 SWAP1 POP JUMP JUMPDEST PUSH1 0x0 DUP2 SWAP1 POP SWAP2 SWAP1 POP JUMP JUMPDEST PUSH1 0x0 PUSH20 0xFFFFFFFFFFFFFFFFFFFFFFFFFFFFFFFFFFFFFFFF DUP3 AND SWAP1 POP SWAP2 SWAP1 POP JUMP JUMPDEST PUSH1 0x0 DUP2 SWAP1 POP SWAP2 SWAP1 POP JUMP JUMPDEST DUP3 DUP2 DUP4 CALLDATACOPY PUSH1 0x0 DUP4 DUP4 ADD MSTORE POP POP POP JUMP JUMPDEST PUSH1 0x0 JUMPDEST DUP4 DUP2 LT ISZERO PUSH2 0x147A JUMPI DUP1 DUP3 ADD MLOAD DUP2 DUP5 ADD MSTORE PUSH1 0x20 DUP2 ADD SWAP1 POP PUSH2 0x145F JUMP JUMPDEST DUP4 DUP2 GT ISZERO PUSH2 0x1489 JUMPI PUSH1 0x0 DUP5 DUP5 ADD MSTORE JUMPDEST POP POP POP POP JUMP JUMPDEST PUSH2 0x1498 DUP3 PUSH2 0x15BE JUMP JUMPDEST DUP2 ADD DUP2 DUP2 LT PUSH8 0xFFFFFFFFFFFFFFFF DUP3 GT OR ISZERO PUSH2 0x14B7 JUMPI PUSH2 0x14B6 PUSH2 0x1571 JUMP JUMPDEST JUMPDEST DUP1 PUSH1 0x40 MSTORE POP POP POP JUMP JUMPDEST PUSH1 0x0 PUSH2 0x14CB DUP3 PUSH2 0x1443 JUMP JUMPDEST SWAP2 POP PUSH32 0xFFFFFFFFFFFFFFFFFFFFFFFFFFFFFFFFFFFFFFFFFFFFFFFFFFFFFFFFFFFFFFFF DUP3 EQ ISZERO PUSH2 0x14FE JUMPI PUSH2 0x14FD PUSH2 0x1513 JUMP JUMPDEST JUMPDEST PUSH1 0x1 DUP3 ADD SWAP1 POP SWAP2 SWAP1 POP JUMP JUMPDEST PUSH1 0x0 DUP2 SWAP1 POP SWAP2 SWAP1 POP JUMP JUMPDEST PUSH32 0x4E487B7100000000000000000000000000000000000000000000000000000000 PUSH1 0x0 MSTORE PUSH1 0x11 PUSH1 0x4 MSTORE PUSH1 0x24 PUSH1 0x0 REVERT JUMPDEST PUSH32 0x4E487B7100000000000000000000000000000000000000000000000000000000 PUSH1 0x0 MSTORE PUSH1 0x32 PUSH1 0x4 MSTORE PUSH1 0x24 PUSH1 0x0 REVERT JUMPDEST PUSH32 0x4E487B7100000000000000000000000000000000000000000000000000000000 PUSH1 0x0 MSTORE PUSH1 0x41 PUSH1 0x4 MSTORE PUSH1 0x24 PUSH1 0x0 REVERT JUMPDEST PUSH1 0x0 DUP1 REVERT JUMPDEST PUSH1 0x0 DUP1 REVERT JUMPDEST PUSH1 0x0 DUP1 REVERT JUMPDEST PUSH1 0x0 DUP1 REVERT JUMPDEST PUSH1 0x0 DUP1 REVERT JUMPDEST PUSH1 0x0 DUP1 REVERT JUMPDEST PUSH1 0x0 PUSH1 0x1F NOT PUSH1 0x1F DUP4 ADD AND SWAP1 POP SWAP2 SWAP1 POP JUMP JUMPDEST PUSH32 0x4F776E61626C653A206E6577206F776E657220697320746865207A65726F2061 PUSH1 0x0 DUP3 ADD MSTORE PUSH32 0x6464726573730000000000000000000000000000000000000000000000000000 PUSH1 0x20 DUP3 ADD MSTORE POP JUMP JUMPDEST PUSH32 0x4F776E61626C653A2063616C6C6572206973206E6F7420746865206F776E6572 PUSH1 0x0 DUP3 ADD MSTORE POP JUMP JUMPDEST PUSH2 0x1650 DUP2 PUSH2 0x13FB JUMP JUMPDEST DUP2 EQ PUSH2 0x165B JUMPI PUSH1 0x0 DUP1 REVERT JUMPDEST POP JUMP JUMPDEST PUSH2 0x1667 DUP2 PUSH2 0x140D JUMP JUMPDEST DUP2 EQ PUSH2 0x1672 JUMPI PUSH1 0x0 DUP1 REVERT JUMPDEST POP JUMP JUMPDEST PUSH2 0x167E DUP2 PUSH2 0x1419 JUMP JUMPDEST DUP2 EQ PUSH2 0x1689 JUMPI PUSH1 0x0 DUP1 REVERT JUMPDEST POP JUMP JUMPDEST PUSH2 0x1695 DUP2 PUSH2 0x1443 JUMP JUMPDEST DUP2 EQ PUSH2 0x16A0 JUMPI PUSH1 0x0 DUP1 REVERT JUMPDEST POP JUMP INVALID LOG2 PUSH5 0x6970667358 0x22 SLT KECCAK256 0x27 0xD9 0xD6 DUP14 NOT PUSH5 0xDB3C669E00 JUMPI BALANCE 0xEC SWAP4 0xCB PUSH15 0x34B4102F515A55D4D91312AC07E184 PUSH5 0x736F6C6343 STOP ADDMOD SMOD STOP CALLER "
				},
				"gasEstimates": {
					"creation": {
						"codeDepositCost": "1169800",
						"executionCost": "infinite",
						"totalCost": "infinite"
					},
					"external": {
						"": "181",
						"NFTIdOfManager(address)": "5125",
						"availableOfNFTId(uint256)": "2846",
						"createKYCNFT(string,address,uint256)": "infinite",
						"initManagerAddr(uint256,address)": "49515",
						"managerOfNFTId(uint256)": "2923",
						"modifyManagerAddr(address)": "73578",
						"owner()": "2611",
						"renounceOwnership()": "30465",
						"setAvailableOfNFTId(uint256,bool)": "27239",
						"setKYCNFTContractAddress(address)": "27074",
						"transferOwnership(address)": "30813",
						"updateMerkleRoot(bytes32)": "22651",
						"userDataOfManager(address)": "5357",
						"userDataOfNFTId(uint256)": "infinite",
						"verifyKYCAuthProof(bytes32,bytes32[],uint256[],uint256)": "infinite"
					},
					"internal": {
						"verifyMerkleProof(bytes32,bytes32,bytes32[] calldata,uint256[] calldata)": "infinite"
					}
				},
				"methodIdentifiers": {
					"NFTIdOfManager(address)": "b2b72bc4",
					"availableOfNFTId(uint256)": "0e197dc9",
					"createKYCNFT(string,address,uint256)": "d1933ddd",
					"initManagerAddr(uint256,address)": "3960a892",
					"managerOfNFTId(uint256)": "4b3cef44",
					"modifyManagerAddr(address)": "1ff4bdf3",
					"owner()": "8da5cb5b",
					"renounceOwnership()": "715018a6",
					"setAvailableOfNFTId(uint256,bool)": "ab98a679",
					"setKYCNFTContractAddress(address)": "fbc2cf13",
					"transferOwnership(address)": "f2fde38b",
					"updateMerkleRoot(bytes32)": "4783f0ef",
					"userDataOfManager(address)": "ad575035",
					"userDataOfNFTId(uint256)": "917b8fd0",
					"verifyKYCAuthProof(bytes32,bytes32[],uint256[],uint256)": "f097c289"
				}
			},
			"storageLayout": {
				"storage": [
					{
						"astId": 7,
						"contract": "contracts/KYCManagerV2.sol:KYCManager",
						"label": "_owner",
						"offset": 0,
						"slot": "0",
						"type": "t_address"
					},
					{
						"astId": 164,
						"contract": "contracts/KYCManagerV2.sol:KYCManager",
						"label": "kycNFTContract",
						"offset": 0,
						"slot": "1",
						"type": "t_contract(KYCNFTInterface)154"
					},
					{
						"astId": 168,
						"contract": "contracts/KYCManagerV2.sol:KYCManager",
						"label": "NFTIdToManager",
						"offset": 0,
						"slot": "2",
						"type": "t_mapping(t_uint256,t_address)"
					},
					{
						"astId": 173,
						"contract": "contracts/KYCManagerV2.sol:KYCManager",
						"label": "ManagerToUserData",
						"offset": 0,
						"slot": "3",
						"type": "t_mapping(t_address,t_struct(UserData)161_storage)"
					},
					{
						"astId": 177,
						"contract": "contracts/KYCManagerV2.sol:KYCManager",
						"label": "NFTIdToAvailable",
						"offset": 0,
						"slot": "4",
						"type": "t_mapping(t_uint256,t_bool)"
					}
				],
				"types": {
					"t_address": {
						"encoding": "inplace",
						"label": "address",
						"numberOfBytes": "20"
					},
					"t_bool": {
						"encoding": "inplace",
						"label": "bool",
						"numberOfBytes": "1"
					},
					"t_bytes32": {
						"encoding": "inplace",
						"label": "bytes32",
						"numberOfBytes": "32"
					},
					"t_contract(KYCNFTInterface)154": {
						"encoding": "inplace",
						"label": "contract KYCNFTInterface",
						"numberOfBytes": "20"
					},
					"t_mapping(t_address,t_struct(UserData)161_storage)": {
						"encoding": "mapping",
						"key": "t_address",
						"label": "mapping(address => struct KYCManager.UserData)",
						"numberOfBytes": "32",
						"value": "t_struct(UserData)161_storage"
					},
					"t_mapping(t_uint256,t_address)": {
						"encoding": "mapping",
						"key": "t_uint256",
						"label": "mapping(uint256 => address)",
						"numberOfBytes": "32",
						"value": "t_address"
					},
					"t_mapping(t_uint256,t_bool)": {
						"encoding": "mapping",
						"key": "t_uint256",
						"label": "mapping(uint256 => bool)",
						"numberOfBytes": "32",
						"value": "t_bool"
					},
					"t_struct(UserData)161_storage": {
						"encoding": "inplace",
						"label": "struct KYCManager.UserData",
						"members": [
							{
								"astId": 158,
								"contract": "contracts/KYCManagerV2.sol:KYCManager",
								"label": "NFTId",
								"offset": 0,
								"slot": "0",
								"type": "t_uint256"
							},
							{
								"astId": 160,
								"contract": "contracts/KYCManagerV2.sol:KYCManager",
								"label": "merkleRoot",
								"offset": 0,
								"slot": "1",
								"type": "t_bytes32"
							}
						],
						"numberOfBytes": "64"
					},
					"t_uint256": {
						"encoding": "inplace",
						"label": "uint256",
						"numberOfBytes": "32"
					}
				}
			},
			"userdoc": {
				"kind": "user",
				"methods": {},
				"version": 1
			}
		}
	}
}