{
	"contracts/KYCManager.sol": {
		"KYCManager": {
			"abi": [
				{
					"anonymous": false,
					"inputs": [
						{
							"indexed": true,
							"internalType": "address",
							"name": "previousOwner",
							"type": "address"
						},
						{
							"indexed": true,
							"internalType": "address",
							"name": "newOwner",
							"type": "address"
						}
					],
					"name": "OwnershipTransferred",
					"type": "event"
				},
				{
					"stateMutability": "payable",
					"type": "fallback"
				},
				{
					"inputs": [
						{
							"internalType": "address",
							"name": "managerAddr",
							"type": "address"
						}
					],
					"name": "NFTIdOfManager",
					"outputs": [
						{
							"internalType": "uint256",
							"name": "",
							"type": "uint256"
						}
					],
					"stateMutability": "view",
					"type": "function"
				},
				{
					"inputs": [
						{
							"internalType": "uint256",
							"name": "NFTid",
							"type": "uint256"
						}
					],
					"name": "availableOfNFTId",
					"outputs": [
						{
							"internalType": "bool",
							"name": "",
							"type": "bool"
						}
					],
					"stateMutability": "view",
					"type": "function"
				},
				{
					"inputs": [
						{
							"internalType": "string",
							"name": "tokenUrl",
							"type": "string"
						},
						{
							"internalType": "address",
							"name": "manager",
							"type": "address"
						},
						{
							"internalType": "uint256",
							"name": "expirationTime",
							"type": "uint256"
						}
					],
					"name": "createKYCNFT",
					"outputs": [],
					"stateMutability": "nonpayable",
					"type": "function"
				},
				{
					"inputs": [
						{
							"internalType": "uint256",
							"name": "NFTid",
							"type": "uint256"
						},
						{
							"internalType": "address",
							"name": "manager",
							"type": "address"
						}
					],
					"name": "initManagerAddr",
					"outputs": [],
					"stateMutability": "nonpayable",
					"type": "function"
				},
				{
					"inputs": [
						{
							"internalType": "uint256",
							"name": "NFTid",
							"type": "uint256"
						}
					],
					"name": "managerOfNFTId",
					"outputs": [
						{
							"internalType": "address",
							"name": "",
							"type": "address"
						}
					],
					"stateMutability": "view",
					"type": "function"
				},
				{
					"inputs": [
						{
							"internalType": "address",
							"name": "newManager",
							"type": "address"
						}
					],
					"name": "modifyManagerAddr",
					"outputs": [],
					"stateMutability": "nonpayable",
					"type": "function"
				},
				{
					"inputs": [],
					"name": "owner",
					"outputs": [
						{
							"internalType": "address",
							"name": "",
							"type": "address"
						}
					],
					"stateMutability": "view",
					"type": "function"
				},
				{
					"inputs": [],
					"name": "renounceOwnership",
					"outputs": [],
					"stateMutability": "nonpayable",
					"type": "function"
				},
				{
					"inputs": [
						{
							"internalType": "address",
							"name": "_kycnftContractAddr",
							"type": "address"
						}
					],
					"name": "setKYCNFTContractAddress",
					"outputs": [],
					"stateMutability": "nonpayable",
					"type": "function"
				},
				{
					"inputs": [
						{
							"internalType": "uint256",
							"name": "NFTid",
							"type": "uint256"
						},
						{
							"internalType": "bool",
							"name": "_available",
							"type": "bool"
						}
					],
					"name": "setNFTAvailableOfNFTId",
					"outputs": [],
					"stateMutability": "nonpayable",
					"type": "function"
				},
				{
					"inputs": [
						{
							"internalType": "address",
							"name": "newOwner",
							"type": "address"
						}
					],
					"name": "transferOwnership",
					"outputs": [],
					"stateMutability": "nonpayable",
					"type": "function"
				},
				{
					"inputs": [
						{
							"internalType": "string",
							"name": "_accumulator",
							"type": "string"
						},
						{
							"internalType": "string",
							"name": "_n",
							"type": "string"
						},
						{
							"internalType": "uint256",
							"name": "_g",
							"type": "uint256"
						}
					],
					"name": "updateAccumulator",
					"outputs": [],
					"stateMutability": "nonpayable",
					"type": "function"
				},
				{
					"inputs": [
						{
							"internalType": "string",
							"name": "_n",
							"type": "string"
						},
						{
							"internalType": "uint256",
							"name": "_g",
							"type": "uint256"
						}
					],
					"name": "updateAccumulatorPublicKey",
					"outputs": [],
					"stateMutability": "nonpayable",
					"type": "function"
				},
				{
					"inputs": [
						{
							"internalType": "string",
							"name": "_accumulator",
							"type": "string"
						}
					],
					"name": "updateAccumulatorValue",
					"outputs": [],
					"stateMutability": "nonpayable",
					"type": "function"
				},
				{
					"inputs": [
						{
							"internalType": "address",
							"name": "managerAddr",
							"type": "address"
						}
					],
					"name": "userDataOfManager",
					"outputs": [
						{
							"components": [
								{
									"internalType": "uint256",
									"name": "NFTid",
									"type": "uint256"
								},
								{
									"internalType": "string",
									"name": "accumulator",
									"type": "string"
								},
								{
									"internalType": "string",
									"name": "n",
									"type": "string"
								},
								{
									"internalType": "uint256",
									"name": "g",
									"type": "uint256"
								}
							],
							"internalType": "struct KYCManager.UserData",
							"name": "",
							"type": "tuple"
						}
					],
					"stateMutability": "view",
					"type": "function"
				},
				{
					"inputs": [
						{
							"internalType": "uint256",
							"name": "NFTid",
							"type": "uint256"
						}
					],
					"name": "userDataOfNFTId",
					"outputs": [
						{
							"components": [
								{
									"internalType": "uint256",
									"name": "NFTid",
									"type": "uint256"
								},
								{
									"internalType": "string",
									"name": "accumulator",
									"type": "string"
								},
								{
									"internalType": "string",
									"name": "n",
									"type": "string"
								},
								{
									"internalType": "uint256",
									"name": "g",
									"type": "uint256"
								}
							],
							"internalType": "struct KYCManager.UserData",
							"name": "",
							"type": "tuple"
						}
					],
					"stateMutability": "view",
					"type": "function"
				},
				{
					"inputs": [
						{
							"internalType": "bytes32",
							"name": "root",
							"type": "bytes32"
						},
						{
							"internalType": "bytes32",
							"name": "leaf",
							"type": "bytes32"
						},
						{
							"internalType": "bytes32[]",
							"name": "proof",
							"type": "bytes32[]"
						},
						{
							"internalType": "uint256[]",
							"name": "positions",
							"type": "uint256[]"
						}
					],
					"name": "verify",
					"outputs": [
						{
							"internalType": "bool",
							"name": "",
							"type": "bool"
						}
					],
					"stateMutability": "pure",
					"type": "function"
				},
				{
					"stateMutability": "payable",
					"type": "receive"
				}
			],
			"devdoc": {
				"kind": "dev",
				"methods": {
					"owner()": {
						"details": "Returns the address of the current owner."
					},
					"renounceOwnership()": {
						"details": "Leaves the contract without owner. It will not be possible to call `onlyOwner` functions anymore. Can only be called by the current owner. NOTE: Renouncing ownership will leave the contract without an owner, thereby removing any functionality that is only available to the owner."
					},
					"transferOwnership(address)": {
						"details": "Transfers ownership of the contract to a new account (`newOwner`). Can only be called by the current owner."
					}
				},
				"version": 1
			},
			"evm": {
				"assembly": "    /* \"contracts/KYCManager.sol\":405:4042  contract KYCManager is Ownable {... */\n  mstore(0x40, 0x80)\n  callvalue\n  dup1\n  iszero\n  tag_1\n  jumpi\n  0x00\n  dup1\n  revert\ntag_1:\n  pop\n    /* \"@openzeppelin/contracts/access/Ownable.sol\":921:953  _transferOwnership(_msgSender()) */\n  tag_4\n    /* \"@openzeppelin/contracts/access/Ownable.sol\":940:952  _msgSender() */\n  tag_5\n    /* \"@openzeppelin/contracts/access/Ownable.sol\":940:950  _msgSender */\n  shl(0x20, tag_6)\n    /* \"@openzeppelin/contracts/access/Ownable.sol\":940:952  _msgSender() */\n  0x20\n  shr\n  jump\t// in\ntag_5:\n    /* \"@openzeppelin/contracts/access/Ownable.sol\":921:939  _transferOwnership */\n  shl(0x20, tag_7)\n    /* \"@openzeppelin/contracts/access/Ownable.sol\":921:953  _transferOwnership(_msgSender()) */\n  0x20\n  shr\n  jump\t// in\ntag_4:\n    /* \"contracts/KYCManager.sol\":405:4042  contract KYCManager is Ownable {... */\n  jump(tag_8)\n    /* \"@openzeppelin/contracts/utils/Context.sol\":640:736  function _msgSender() internal view virtual returns (address) {... */\ntag_6:\n    /* \"@openzeppelin/contracts/utils/Context.sol\":693:700  address */\n  0x00\n    /* \"@openzeppelin/contracts/utils/Context.sol\":719:729  msg.sender */\n  caller\n    /* \"@openzeppelin/contracts/utils/Context.sol\":712:729  return msg.sender */\n  swap1\n  pop\n    /* \"@openzeppelin/contracts/utils/Context.sol\":640:736  function _msgSender() internal view virtual returns (address) {... */\n  swap1\n  jump\t// out\n    /* \"@openzeppelin/contracts/access/Ownable.sol\":2270:2457  function _transferOwnership(address newOwner) internal virtual {... */\ntag_7:\n    /* \"@openzeppelin/contracts/access/Ownable.sol\":2343:2359  address oldOwner */\n  0x00\n    /* \"@openzeppelin/contracts/access/Ownable.sol\":2362:2368  _owner */\n  dup1\n  0x00\n  swap1\n  sload\n  swap1\n  0x0100\n  exp\n  swap1\n  div\n  0xffffffffffffffffffffffffffffffffffffffff\n  and\n    /* \"@openzeppelin/contracts/access/Ownable.sol\":2343:2368  address oldOwner = _owner */\n  swap1\n  pop\n    /* \"@openzeppelin/contracts/access/Ownable.sol\":2387:2395  newOwner */\n  dup2\n    /* \"@openzeppelin/contracts/access/Ownable.sol\":2378:2384  _owner */\n  0x00\n  dup1\n    /* \"@openzeppelin/contracts/access/Ownable.sol\":2378:2395  _owner = newOwner */\n  0x0100\n  exp\n  dup2\n  sload\n  dup2\n  0xffffffffffffffffffffffffffffffffffffffff\n  mul\n  not\n  and\n  swap1\n  dup4\n  0xffffffffffffffffffffffffffffffffffffffff\n  and\n  mul\n  or\n  swap1\n  sstore\n  pop\n    /* \"@openzeppelin/contracts/access/Ownable.sol\":2441:2449  newOwner */\n  dup2\n    /* \"@openzeppelin/contracts/access/Ownable.sol\":2410:2450  OwnershipTransferred(oldOwner, newOwner) */\n  0xffffffffffffffffffffffffffffffffffffffff\n  and\n    /* \"@openzeppelin/contracts/access/Ownable.sol\":2431:2439  oldOwner */\n  dup2\n    /* \"@openzeppelin/contracts/access/Ownable.sol\":2410:2450  OwnershipTransferred(oldOwner, newOwner) */\n  0xffffffffffffffffffffffffffffffffffffffff\n  and\n  0x8be0079c531659141344cd1fd0a4f28419497f9722a3daafe3b4186f6b6457e0\n  mload(0x40)\n  mload(0x40)\n  dup1\n  swap2\n  sub\n  swap1\n  log3\n    /* \"@openzeppelin/contracts/access/Ownable.sol\":2333:2457  {... */\n  pop\n    /* \"@openzeppelin/contracts/access/Ownable.sol\":2270:2457  function _transferOwnership(address newOwner) internal virtual {... */\n  pop\n  jump\t// out\n    /* \"contracts/KYCManager.sol\":405:4042  contract KYCManager is Ownable {... */\ntag_8:\n  dataSize(sub_0)\n  dup1\n  dataOffset(sub_0)\n  0x00\n  codecopy\n  0x00\n  return\nstop\n\nsub_0: assembly {\n        /* \"contracts/KYCManager.sol\":405:4042  contract KYCManager is Ownable {... */\n      mstore(0x40, 0x80)\n      jumpi(tag_1, lt(calldatasize, 0x04))\n      shr(0xe0, calldataload(0x00))\n      dup1\n      0x9bb6dcc8\n      gt\n      tag_20\n      jumpi\n      dup1\n      0xd1933ddd\n      gt\n      tag_21\n      jumpi\n      dup1\n      0xd1933ddd\n      eq\n      tag_15\n      jumpi\n      dup1\n      0xd6f70eb3\n      eq\n      tag_16\n      jumpi\n      dup1\n      0xf2fde38b\n      eq\n      tag_17\n      jumpi\n      dup1\n      0xfa0e9e41\n      eq\n      tag_18\n      jumpi\n      dup1\n      0xfbc2cf13\n      eq\n      tag_19\n      jumpi\n      jump(tag_2)\n    tag_21:\n      dup1\n      0x9bb6dcc8\n      eq\n      tag_11\n      jumpi\n      dup1\n      0xad575035\n      eq\n      tag_12\n      jumpi\n      dup1\n      0xb2b72bc4\n      eq\n      tag_13\n      jumpi\n      dup1\n      0xbafdee14\n      eq\n      tag_14\n      jumpi\n      jump(tag_2)\n    tag_20:\n      dup1\n      0x715018a6\n      gt\n      tag_22\n      jumpi\n      dup1\n      0x715018a6\n      eq\n      tag_7\n      jumpi\n      dup1\n      0x717b9b6c\n      eq\n      tag_8\n      jumpi\n      dup1\n      0x8da5cb5b\n      eq\n      tag_9\n      jumpi\n      dup1\n      0x917b8fd0\n      eq\n      tag_10\n      jumpi\n      jump(tag_2)\n    tag_22:\n      dup1\n      0x0e197dc9\n      eq\n      tag_3\n      jumpi\n      dup1\n      0x1ff4bdf3\n      eq\n      tag_4\n      jumpi\n      dup1\n      0x3960a892\n      eq\n      tag_5\n      jumpi\n      dup1\n      0x4b3cef44\n      eq\n      tag_6\n      jumpi\n      jump(tag_2)\n    tag_1:\n      jumpi(tag_2, calldatasize)\n        /* \"contracts/KYCManager.sol\":4027:4035  revert() */\n      0x00\n      dup1\n      revert\n        /* \"contracts/KYCManager.sol\":405:4042  contract KYCManager is Ownable {... */\n    tag_2:\n        /* \"contracts/KYCManager.sol\":3978:3986  revert() */\n      0x00\n      dup1\n      revert\n        /* \"contracts/KYCManager.sol\":3081:3187  function availableOfNFTId(uint NFTid) public view returns(bool){... */\n    tag_3:\n      callvalue\n      dup1\n      iszero\n      tag_27\n      jumpi\n      0x00\n      dup1\n      revert\n    tag_27:\n      pop\n      tag_28\n      0x04\n      dup1\n      calldatasize\n      sub\n      dup2\n      add\n      swap1\n      tag_29\n      swap2\n      swap1\n      tag_30\n      jump\t// in\n    tag_29:\n      tag_31\n      jump\t// in\n    tag_28:\n      mload(0x40)\n      tag_32\n      swap2\n      swap1\n      tag_33\n      jump\t// in\n    tag_32:\n      mload(0x40)\n      dup1\n      swap2\n      sub\n      swap1\n      return\n        /* \"contracts/KYCManager.sol\":1644:1859  function modifyManagerAddr(address newManager) public{... */\n    tag_4:\n      callvalue\n      dup1\n      iszero\n      tag_34\n      jumpi\n      0x00\n      dup1\n      revert\n    tag_34:\n      pop\n      tag_35\n      0x04\n      dup1\n      calldatasize\n      sub\n      dup2\n      add\n      swap1\n      tag_36\n      swap2\n      swap1\n      tag_37\n      jump\t// in\n    tag_36:\n      tag_38\n      jump\t// in\n    tag_35:\n      stop\n        /* \"contracts/KYCManager.sol\":1477:1636  function initManagerAddr(uint NFTid, address manager) public onlyOwner {... */\n    tag_5:\n      callvalue\n      dup1\n      iszero\n      tag_39\n      jumpi\n      0x00\n      dup1\n      revert\n    tag_39:\n      pop\n      tag_40\n      0x04\n      dup1\n      calldatasize\n      sub\n      dup2\n      add\n      swap1\n      tag_41\n      swap2\n      swap1\n      tag_42\n      jump\t// in\n    tag_41:\n      tag_43\n      jump\t// in\n    tag_40:\n      stop\n        /* \"contracts/KYCManager.sol\":2556:2689  function managerOfNFTId(uint NFTid) public view returns(address) {... */\n    tag_6:\n      callvalue\n      dup1\n      iszero\n      tag_44\n      jumpi\n      0x00\n      dup1\n      revert\n    tag_44:\n      pop\n      tag_45\n      0x04\n      dup1\n      calldatasize\n      sub\n      dup2\n      add\n      swap1\n      tag_46\n      swap2\n      swap1\n      tag_30\n      jump\t// in\n    tag_46:\n      tag_47\n      jump\t// in\n    tag_45:\n      mload(0x40)\n      tag_48\n      swap2\n      swap1\n      tag_49\n      jump\t// in\n    tag_48:\n      mload(0x40)\n      dup1\n      swap2\n      sub\n      swap1\n      return\n        /* \"@openzeppelin/contracts/access/Ownable.sol\":1668:1769  function renounceOwnership() public virtual onlyOwner {... */\n    tag_7:\n      callvalue\n      dup1\n      iszero\n      tag_50\n      jumpi\n      0x00\n      dup1\n      revert\n    tag_50:\n      pop\n      tag_51\n      tag_52\n      jump\t// in\n    tag_51:\n      stop\n        /* \"contracts/KYCManager.sol\":1313:1438  function setNFTAvailableOfNFTId(uint NFTid, bool _available)  public onlyOwner{... */\n    tag_8:\n      callvalue\n      dup1\n      iszero\n      tag_53\n      jumpi\n      0x00\n      dup1\n      revert\n    tag_53:\n      pop\n      tag_54\n      0x04\n      dup1\n      calldatasize\n      sub\n      dup2\n      add\n      swap1\n      tag_55\n      swap2\n      swap1\n      tag_56\n      jump\t// in\n    tag_55:\n      tag_57\n      jump\t// in\n    tag_54:\n      stop\n        /* \"@openzeppelin/contracts/access/Ownable.sol\":1036:1121  function owner() public view virtual returns (address) {... */\n    tag_9:\n      callvalue\n      dup1\n      iszero\n      tag_58\n      jumpi\n      0x00\n      dup1\n      revert\n    tag_58:\n      pop\n      tag_59\n      tag_60\n      jump\t// in\n    tag_59:\n      mload(0x40)\n      tag_61\n      swap2\n      swap1\n      tag_49\n      jump\t// in\n    tag_61:\n      mload(0x40)\n      dup1\n      swap2\n      sub\n      swap1\n      return\n        /* \"contracts/KYCManager.sol\":2693:2896  function userDataOfNFTId(uint NFTid) public view returns(UserData memory){... */\n    tag_10:\n      callvalue\n      dup1\n      iszero\n      tag_62\n      jumpi\n      0x00\n      dup1\n      revert\n    tag_62:\n      pop\n      tag_63\n      0x04\n      dup1\n      calldatasize\n      sub\n      dup2\n      add\n      swap1\n      tag_64\n      swap2\n      swap1\n      tag_30\n      jump\t// in\n    tag_64:\n      tag_65\n      jump\t// in\n    tag_63:\n      mload(0x40)\n      tag_66\n      swap2\n      swap1\n      tag_67\n      jump\t// in\n    tag_66:\n      mload(0x40)\n      dup1\n      swap2\n      sub\n      swap1\n      return\n        /* \"contracts/KYCManager.sol\":3396:3939  function verify(... */\n    tag_11:\n      callvalue\n      dup1\n      iszero\n      tag_68\n      jumpi\n      0x00\n      dup1\n      revert\n    tag_68:\n      pop\n      tag_69\n      0x04\n      dup1\n      calldatasize\n      sub\n      dup2\n      add\n      swap1\n      tag_70\n      swap2\n      swap1\n      tag_71\n      jump\t// in\n    tag_70:\n      tag_72\n      jump\t// in\n    tag_69:\n      mload(0x40)\n      tag_73\n      swap2\n      swap1\n      tag_33\n      jump\t// in\n    tag_73:\n      mload(0x40)\n      dup1\n      swap2\n      sub\n      swap1\n      return\n        /* \"contracts/KYCManager.sol\":2900:3077  function userDataOfManager(address managerAddr) public view returns(UserData memory){... */\n    tag_12:\n      callvalue\n      dup1\n      iszero\n      tag_74\n      jumpi\n      0x00\n      dup1\n      revert\n    tag_74:\n      pop\n      tag_75\n      0x04\n      dup1\n      calldatasize\n      sub\n      dup2\n      add\n      swap1\n      tag_76\n      swap2\n      swap1\n      tag_37\n      jump\t// in\n    tag_76:\n      tag_77\n      jump\t// in\n    tag_75:\n      mload(0x40)\n      tag_78\n      swap2\n      swap1\n      tag_67\n      jump\t// in\n    tag_78:\n      mload(0x40)\n      dup1\n      swap2\n      sub\n      swap1\n      return\n        /* \"contracts/KYCManager.sol\":3191:3360  function NFTIdOfManager(address managerAddr) public view returns(uint){... */\n    tag_13:\n      callvalue\n      dup1\n      iszero\n      tag_79\n      jumpi\n      0x00\n      dup1\n      revert\n    tag_79:\n      pop\n      tag_80\n      0x04\n      dup1\n      calldatasize\n      sub\n      dup2\n      add\n      swap1\n      tag_81\n      swap2\n      swap1\n      tag_37\n      jump\t// in\n    tag_81:\n      tag_82\n      jump\t// in\n    tag_80:\n      mload(0x40)\n      tag_83\n      swap2\n      swap1\n      tag_84\n      jump\t// in\n    tag_83:\n      mload(0x40)\n      dup1\n      swap2\n      sub\n      swap1\n      return\n        /* \"contracts/KYCManager.sol\":1896:2147  function updateAccumulator(string memory _accumulator, string memory _n, uint256 _g) public {... */\n    tag_14:\n      callvalue\n      dup1\n      iszero\n      tag_85\n      jumpi\n      0x00\n      dup1\n      revert\n    tag_85:\n      pop\n      tag_86\n      0x04\n      dup1\n      calldatasize\n      sub\n      dup2\n      add\n      swap1\n      tag_87\n      swap2\n      swap1\n      tag_88\n      jump\t// in\n    tag_87:\n      tag_89\n      jump\t// in\n    tag_86:\n      stop\n        /* \"contracts/KYCManager.sol\":902:1307  function createKYCNFT(string memory tokenUrl, address manager, uint expirationTime) public onlyOwner{... */\n    tag_15:\n      callvalue\n      dup1\n      iszero\n      tag_90\n      jumpi\n      0x00\n      dup1\n      revert\n    tag_90:\n      pop\n      tag_91\n      0x04\n      dup1\n      calldatasize\n      sub\n      dup2\n      add\n      swap1\n      tag_92\n      swap2\n      swap1\n      tag_93\n      jump\t// in\n    tag_92:\n      tag_94\n      jump\t// in\n    tag_91:\n      stop\n        /* \"contracts/KYCManager.sol\":2341:2521  function updateAccumulatorValue(string memory _accumulator) public {... */\n    tag_16:\n      callvalue\n      dup1\n      iszero\n      tag_95\n      jumpi\n      0x00\n      dup1\n      revert\n    tag_95:\n      pop\n      tag_96\n      0x04\n      dup1\n      calldatasize\n      sub\n      dup2\n      add\n      swap1\n      tag_97\n      swap2\n      swap1\n      tag_98\n      jump\t// in\n    tag_97:\n      tag_99\n      jump\t// in\n    tag_96:\n      stop\n        /* \"@openzeppelin/contracts/access/Ownable.sol\":1918:2116  function transferOwnership(address newOwner) public virtual onlyOwner {... */\n    tag_17:\n      callvalue\n      dup1\n      iszero\n      tag_100\n      jumpi\n      0x00\n      dup1\n      revert\n    tag_100:\n      pop\n      tag_101\n      0x04\n      dup1\n      calldatasize\n      sub\n      dup2\n      add\n      swap1\n      tag_102\n      swap2\n      swap1\n      tag_37\n      jump\t// in\n    tag_102:\n      tag_103\n      jump\t// in\n    tag_101:\n      stop\n        /* \"contracts/KYCManager.sol\":2151:2337  function updateAccumulatorPublicKey(string memory _n, uint _g) public {... */\n    tag_18:\n      callvalue\n      dup1\n      iszero\n      tag_104\n      jumpi\n      0x00\n      dup1\n      revert\n    tag_104:\n      pop\n      tag_105\n      0x04\n      dup1\n      calldatasize\n      sub\n      dup2\n      add\n      swap1\n      tag_106\n      swap2\n      swap1\n      tag_107\n      jump\t// in\n    tag_106:\n      tag_108\n      jump\t// in\n    tag_105:\n      stop\n        /* \"contracts/KYCManager.sol\":752:896  function setKYCNFTContractAddress(address _kycnftContractAddr) public onlyOwner {... */\n    tag_19:\n      callvalue\n      dup1\n      iszero\n      tag_109\n      jumpi\n      0x00\n      dup1\n      revert\n    tag_109:\n      pop\n      tag_110\n      0x04\n      dup1\n      calldatasize\n      sub\n      dup2\n      add\n      swap1\n      tag_111\n      swap2\n      swap1\n      tag_37\n      jump\t// in\n    tag_111:\n      tag_112\n      jump\t// in\n    tag_110:\n      stop\n        /* \"contracts/KYCManager.sol\":3081:3187  function availableOfNFTId(uint NFTid) public view returns(bool){... */\n    tag_31:\n        /* \"contracts/KYCManager.sol\":3139:3143  bool */\n      0x00\n        /* \"contracts/KYCManager.sol\":3159:3175  NFTIdToAvailable */\n      0x04\n        /* \"contracts/KYCManager.sol\":3159:3182  NFTIdToAvailable[NFTid] */\n      0x00\n        /* \"contracts/KYCManager.sol\":3176:3181  NFTid */\n      dup4\n        /* \"contracts/KYCManager.sol\":3159:3182  NFTIdToAvailable[NFTid] */\n      dup2\n      mstore\n      0x20\n      add\n      swap1\n      dup2\n      mstore\n      0x20\n      add\n      0x00\n      keccak256\n      0x00\n      swap1\n      sload\n      swap1\n      0x0100\n      exp\n      swap1\n      div\n      0xff\n      and\n        /* \"contracts/KYCManager.sol\":3152:3182  return NFTIdToAvailable[NFTid] */\n      swap1\n      pop\n        /* \"contracts/KYCManager.sol\":3081:3187  function availableOfNFTId(uint NFTid) public view returns(bool){... */\n      swap2\n      swap1\n      pop\n      jump\t// out\n        /* \"contracts/KYCManager.sol\":1644:1859  function modifyManagerAddr(address newManager) public{... */\n    tag_38:\n        /* \"contracts/KYCManager.sol\":1703:1727  UserData memory userdata */\n      0x00\n        /* \"contracts/KYCManager.sol\":1730:1747  ManagerToUserData */\n      0x03\n        /* \"contracts/KYCManager.sol\":1730:1759  ManagerToUserData[msg.sender] */\n      0x00\n        /* \"contracts/KYCManager.sol\":1748:1758  msg.sender */\n      caller\n        /* \"contracts/KYCManager.sol\":1730:1759  ManagerToUserData[msg.sender] */\n      0xffffffffffffffffffffffffffffffffffffffff\n      and\n      0xffffffffffffffffffffffffffffffffffffffff\n      and\n      dup2\n      mstore\n      0x20\n      add\n      swap1\n      dup2\n      mstore\n      0x20\n      add\n      0x00\n      keccak256\n        /* \"contracts/KYCManager.sol\":1703:1759  UserData memory userdata = ManagerToUserData[msg.sender] */\n      mload(0x40)\n      dup1\n      0x80\n      add\n      0x40\n      mstore\n      swap1\n      dup2\n      0x00\n      dup3\n      add\n      sload\n      dup2\n      mstore\n      0x20\n      add\n      0x01\n      dup3\n      add\n      dup1\n      sload\n      tag_115\n      swap1\n      tag_116\n      jump\t// in\n    tag_115:\n      dup1\n      0x1f\n      add\n      0x20\n      dup1\n      swap2\n      div\n      mul\n      0x20\n      add\n      mload(0x40)\n      swap1\n      dup2\n      add\n      0x40\n      mstore\n      dup1\n      swap3\n      swap2\n      swap1\n      dup2\n      dup2\n      mstore\n      0x20\n      add\n      dup3\n      dup1\n      sload\n      tag_117\n      swap1\n      tag_116\n      jump\t// in\n    tag_117:\n      dup1\n      iszero\n      tag_118\n      jumpi\n      dup1\n      0x1f\n      lt\n      tag_119\n      jumpi\n      0x0100\n      dup1\n      dup4\n      sload\n      div\n      mul\n      dup4\n      mstore\n      swap2\n      0x20\n      add\n      swap2\n      jump(tag_118)\n    tag_119:\n      dup3\n      add\n      swap2\n      swap1\n      0x00\n      mstore\n      keccak256(0x00, 0x20)\n      swap1\n    tag_120:\n      dup2\n      sload\n      dup2\n      mstore\n      swap1\n      0x01\n      add\n      swap1\n      0x20\n      add\n      dup1\n      dup4\n      gt\n      tag_120\n      jumpi\n      dup3\n      swap1\n      sub\n      0x1f\n      and\n      dup3\n      add\n      swap2\n    tag_118:\n      pop\n      pop\n      pop\n      pop\n      pop\n      dup2\n      mstore\n      0x20\n      add\n      0x02\n      dup3\n      add\n      dup1\n      sload\n      tag_121\n      swap1\n      tag_116\n      jump\t// in\n    tag_121:\n      dup1\n      0x1f\n      add\n      0x20\n      dup1\n      swap2\n      div\n      mul\n      0x20\n      add\n      mload(0x40)\n      swap1\n      dup2\n      add\n      0x40\n      mstore\n      dup1\n      swap3\n      swap2\n      swap1\n      dup2\n      dup2\n      mstore\n      0x20\n      add\n      dup3\n      dup1\n      sload\n      tag_122\n      swap1\n      tag_116\n      jump\t// in\n    tag_122:\n      dup1\n      iszero\n      tag_123\n      jumpi\n      dup1\n      0x1f\n      lt\n      tag_124\n      jumpi\n      0x0100\n      dup1\n      dup4\n      sload\n      div\n      mul\n      dup4\n      mstore\n      swap2\n      0x20\n      add\n      swap2\n      jump(tag_123)\n    tag_124:\n      dup3\n      add\n      swap2\n      swap1\n      0x00\n      mstore\n      keccak256(0x00, 0x20)\n      swap1\n    tag_125:\n      dup2\n      sload\n      dup2\n      mstore\n      swap1\n      0x01\n      add\n      swap1\n      0x20\n      add\n      dup1\n      dup4\n      gt\n      tag_125\n      jumpi\n      dup3\n      swap1\n      sub\n      0x1f\n      and\n      dup3\n      add\n      swap2\n    tag_123:\n      pop\n      pop\n      pop\n      pop\n      pop\n      dup2\n      mstore\n      0x20\n      add\n      0x03\n      dup3\n      add\n      sload\n      dup2\n      mstore\n      pop\n      pop\n      swap1\n      pop\n        /* \"contracts/KYCManager.sol\":1797:1805  userdata */\n      dup1\n        /* \"contracts/KYCManager.sol\":1765:1782  ManagerToUserData */\n      0x03\n        /* \"contracts/KYCManager.sol\":1765:1794  ManagerToUserData[newManager] */\n      0x00\n        /* \"contracts/KYCManager.sol\":1783:1793  newManager */\n      dup5\n        /* \"contracts/KYCManager.sol\":1765:1794  ManagerToUserData[newManager] */\n      0xffffffffffffffffffffffffffffffffffffffff\n      and\n      0xffffffffffffffffffffffffffffffffffffffff\n      and\n      dup2\n      mstore\n      0x20\n      add\n      swap1\n      dup2\n      mstore\n      0x20\n      add\n      0x00\n      keccak256\n        /* \"contracts/KYCManager.sol\":1765:1805  ManagerToUserData[newManager] = userdata */\n      0x00\n      dup3\n      add\n      mload\n      dup2\n      0x00\n      add\n      sstore\n      0x20\n      dup3\n      add\n      mload\n      dup2\n      0x01\n      add\n      swap1\n      dup1\n      mload\n      swap1\n      0x20\n      add\n      swap1\n      tag_126\n      swap3\n      swap2\n      swap1\n      tag_127\n      jump\t// in\n    tag_126:\n      pop\n      0x40\n      dup3\n      add\n      mload\n      dup2\n      0x02\n      add\n      swap1\n      dup1\n      mload\n      swap1\n      0x20\n      add\n      swap1\n      tag_128\n      swap3\n      swap2\n      swap1\n      tag_127\n      jump\t// in\n    tag_128:\n      pop\n      0x60\n      dup3\n      add\n      mload\n      dup2\n      0x03\n      add\n      sstore\n      swap1\n      pop\n      pop\n        /* \"contracts/KYCManager.sol\":1844:1854  newManager */\n      dup2\n        /* \"contracts/KYCManager.sol\":1811:1825  NFTIdToManager */\n      0x02\n        /* \"contracts/KYCManager.sol\":1811:1841  NFTIdToManager[userdata.NFTid] */\n      0x00\n        /* \"contracts/KYCManager.sol\":1826:1834  userdata */\n      dup4\n        /* \"contracts/KYCManager.sol\":1826:1840  userdata.NFTid */\n      0x00\n      add\n      mload\n        /* \"contracts/KYCManager.sol\":1811:1841  NFTIdToManager[userdata.NFTid] */\n      dup2\n      mstore\n      0x20\n      add\n      swap1\n      dup2\n      mstore\n      0x20\n      add\n      0x00\n      keccak256\n      0x00\n        /* \"contracts/KYCManager.sol\":1811:1854  NFTIdToManager[userdata.NFTid] = newManager */\n      0x0100\n      exp\n      dup2\n      sload\n      dup2\n      0xffffffffffffffffffffffffffffffffffffffff\n      mul\n      not\n      and\n      swap1\n      dup4\n      0xffffffffffffffffffffffffffffffffffffffff\n      and\n      mul\n      or\n      swap1\n      sstore\n      pop\n        /* \"contracts/KYCManager.sol\":1697:1859  {... */\n      pop\n        /* \"contracts/KYCManager.sol\":1644:1859  function modifyManagerAddr(address newManager) public{... */\n      pop\n      jump\t// out\n        /* \"contracts/KYCManager.sol\":1477:1636  function initManagerAddr(uint NFTid, address manager) public onlyOwner {... */\n    tag_43:\n        /* \"@openzeppelin/contracts/access/Ownable.sol\":1259:1271  _msgSender() */\n      tag_130\n        /* \"@openzeppelin/contracts/access/Ownable.sol\":1259:1269  _msgSender */\n      tag_131\n        /* \"@openzeppelin/contracts/access/Ownable.sol\":1259:1271  _msgSender() */\n      jump\t// in\n    tag_130:\n        /* \"@openzeppelin/contracts/access/Ownable.sol\":1248:1271  owner() == _msgSender() */\n      0xffffffffffffffffffffffffffffffffffffffff\n      and\n        /* \"@openzeppelin/contracts/access/Ownable.sol\":1248:1255  owner() */\n      tag_132\n        /* \"@openzeppelin/contracts/access/Ownable.sol\":1248:1253  owner */\n      tag_60\n        /* \"@openzeppelin/contracts/access/Ownable.sol\":1248:1255  owner() */\n      jump\t// in\n    tag_132:\n        /* \"@openzeppelin/contracts/access/Ownable.sol\":1248:1271  owner() == _msgSender() */\n      0xffffffffffffffffffffffffffffffffffffffff\n      and\n      eq\n        /* \"@openzeppelin/contracts/access/Ownable.sol\":1240:1308  require(owner() == _msgSender(), \"Ownable: caller is not the owner\") */\n      tag_133\n      jumpi\n      mload(0x40)\n      0x08c379a000000000000000000000000000000000000000000000000000000000\n      dup2\n      mstore\n      0x04\n      add\n      tag_134\n      swap1\n      tag_135\n      jump\t// in\n    tag_134:\n      mload(0x40)\n      dup1\n      swap2\n      sub\n      swap1\n      revert\n    tag_133:\n        /* \"contracts/KYCManager.sol\":1578:1585  manager */\n      dup1\n        /* \"contracts/KYCManager.sol\":1554:1568  NFTIdToManager */\n      0x02\n        /* \"contracts/KYCManager.sol\":1554:1575  NFTIdToManager[NFTid] */\n      0x00\n        /* \"contracts/KYCManager.sol\":1569:1574  NFTid */\n      dup5\n        /* \"contracts/KYCManager.sol\":1554:1575  NFTIdToManager[NFTid] */\n      dup2\n      mstore\n      0x20\n      add\n      swap1\n      dup2\n      mstore\n      0x20\n      add\n      0x00\n      keccak256\n      0x00\n        /* \"contracts/KYCManager.sol\":1554:1585  NFTIdToManager[NFTid] = manager */\n      0x0100\n      exp\n      dup2\n      sload\n      dup2\n      0xffffffffffffffffffffffffffffffffffffffff\n      mul\n      not\n      and\n      swap1\n      dup4\n      0xffffffffffffffffffffffffffffffffffffffff\n      and\n      mul\n      or\n      swap1\n      sstore\n      pop\n        /* \"contracts/KYCManager.sol\":1626:1631  NFTid */\n      dup2\n        /* \"contracts/KYCManager.sol\":1591:1608  ManagerToUserData */\n      0x03\n        /* \"contracts/KYCManager.sol\":1591:1617  ManagerToUserData[manager] */\n      0x00\n        /* \"contracts/KYCManager.sol\":1609:1616  manager */\n      dup4\n        /* \"contracts/KYCManager.sol\":1591:1617  ManagerToUserData[manager] */\n      0xffffffffffffffffffffffffffffffffffffffff\n      and\n      0xffffffffffffffffffffffffffffffffffffffff\n      and\n      dup2\n      mstore\n      0x20\n      add\n      swap1\n      dup2\n      mstore\n      0x20\n      add\n      0x00\n      keccak256\n        /* \"contracts/KYCManager.sol\":1591:1623  ManagerToUserData[manager].NFTid */\n      0x00\n      add\n        /* \"contracts/KYCManager.sol\":1591:1631  ManagerToUserData[manager].NFTid = NFTid */\n      dup2\n      swap1\n      sstore\n      pop\n        /* \"contracts/KYCManager.sol\":1477:1636  function initManagerAddr(uint NFTid, address manager) public onlyOwner {... */\n      pop\n      pop\n      jump\t// out\n        /* \"contracts/KYCManager.sol\":2556:2689  function managerOfNFTId(uint NFTid) public view returns(address) {... */\n    tag_47:\n        /* \"contracts/KYCManager.sol\":2612:2619  address */\n      0x00\n        /* \"contracts/KYCManager.sol\":2629:2641  address addr */\n      dup1\n        /* \"contracts/KYCManager.sol\":2644:2658  NFTIdToManager */\n      0x02\n        /* \"contracts/KYCManager.sol\":2644:2665  NFTIdToManager[NFTid] */\n      0x00\n        /* \"contracts/KYCManager.sol\":2659:2664  NFTid */\n      dup5\n        /* \"contracts/KYCManager.sol\":2644:2665  NFTIdToManager[NFTid] */\n      dup2\n      mstore\n      0x20\n      add\n      swap1\n      dup2\n      mstore\n      0x20\n      add\n      0x00\n      keccak256\n      0x00\n      swap1\n      sload\n      swap1\n      0x0100\n      exp\n      swap1\n      div\n      0xffffffffffffffffffffffffffffffffffffffff\n      and\n        /* \"contracts/KYCManager.sol\":2629:2665  address addr = NFTIdToManager[NFTid] */\n      swap1\n      pop\n        /* \"contracts/KYCManager.sol\":2680:2684  addr */\n      dup1\n        /* \"contracts/KYCManager.sol\":2673:2684  return addr */\n      swap2\n      pop\n      pop\n        /* \"contracts/KYCManager.sol\":2556:2689  function managerOfNFTId(uint NFTid) public view returns(address) {... */\n      swap2\n      swap1\n      pop\n      jump\t// out\n        /* \"@openzeppelin/contracts/access/Ownable.sol\":1668:1769  function renounceOwnership() public virtual onlyOwner {... */\n    tag_52:\n        /* \"@openzeppelin/contracts/access/Ownable.sol\":1259:1271  _msgSender() */\n      tag_139\n        /* \"@openzeppelin/contracts/access/Ownable.sol\":1259:1269  _msgSender */\n      tag_131\n        /* \"@openzeppelin/contracts/access/Ownable.sol\":1259:1271  _msgSender() */\n      jump\t// in\n    tag_139:\n        /* \"@openzeppelin/contracts/access/Ownable.sol\":1248:1271  owner() == _msgSender() */\n      0xffffffffffffffffffffffffffffffffffffffff\n      and\n        /* \"@openzeppelin/contracts/access/Ownable.sol\":1248:1255  owner() */\n      tag_140\n        /* \"@openzeppelin/contracts/access/Ownable.sol\":1248:1253  owner */\n      tag_60\n        /* \"@openzeppelin/contracts/access/Ownable.sol\":1248:1255  owner() */\n      jump\t// in\n    tag_140:\n        /* \"@openzeppelin/contracts/access/Ownable.sol\":1248:1271  owner() == _msgSender() */\n      0xffffffffffffffffffffffffffffffffffffffff\n      and\n      eq\n        /* \"@openzeppelin/contracts/access/Ownable.sol\":1240:1308  require(owner() == _msgSender(), \"Ownable: caller is not the owner\") */\n      tag_141\n      jumpi\n      mload(0x40)\n      0x08c379a000000000000000000000000000000000000000000000000000000000\n      dup2\n      mstore\n      0x04\n      add\n      tag_142\n      swap1\n      tag_135\n      jump\t// in\n    tag_142:\n      mload(0x40)\n      dup1\n      swap2\n      sub\n      swap1\n      revert\n    tag_141:\n        /* \"@openzeppelin/contracts/access/Ownable.sol\":1732:1762  _transferOwnership(address(0)) */\n      tag_144\n        /* \"@openzeppelin/contracts/access/Ownable.sol\":1759:1760  0 */\n      0x00\n        /* \"@openzeppelin/contracts/access/Ownable.sol\":1732:1750  _transferOwnership */\n      tag_145\n        /* \"@openzeppelin/contracts/access/Ownable.sol\":1732:1762  _transferOwnership(address(0)) */\n      jump\t// in\n    tag_144:\n        /* \"@openzeppelin/contracts/access/Ownable.sol\":1668:1769  function renounceOwnership() public virtual onlyOwner {... */\n      jump\t// out\n        /* \"contracts/KYCManager.sol\":1313:1438  function setNFTAvailableOfNFTId(uint NFTid, bool _available)  public onlyOwner{... */\n    tag_57:\n        /* \"@openzeppelin/contracts/access/Ownable.sol\":1259:1271  _msgSender() */\n      tag_147\n        /* \"@openzeppelin/contracts/access/Ownable.sol\":1259:1269  _msgSender */\n      tag_131\n        /* \"@openzeppelin/contracts/access/Ownable.sol\":1259:1271  _msgSender() */\n      jump\t// in\n    tag_147:\n        /* \"@openzeppelin/contracts/access/Ownable.sol\":1248:1271  owner() == _msgSender() */\n      0xffffffffffffffffffffffffffffffffffffffff\n      and\n        /* \"@openzeppelin/contracts/access/Ownable.sol\":1248:1255  owner() */\n      tag_148\n        /* \"@openzeppelin/contracts/access/Ownable.sol\":1248:1253  owner */\n      tag_60\n        /* \"@openzeppelin/contracts/access/Ownable.sol\":1248:1255  owner() */\n      jump\t// in\n    tag_148:\n        /* \"@openzeppelin/contracts/access/Ownable.sol\":1248:1271  owner() == _msgSender() */\n      0xffffffffffffffffffffffffffffffffffffffff\n      and\n      eq\n        /* \"@openzeppelin/contracts/access/Ownable.sol\":1240:1308  require(owner() == _msgSender(), \"Ownable: caller is not the owner\") */\n      tag_149\n      jumpi\n      mload(0x40)\n      0x08c379a000000000000000000000000000000000000000000000000000000000\n      dup2\n      mstore\n      0x04\n      add\n      tag_150\n      swap1\n      tag_135\n      jump\t// in\n    tag_150:\n      mload(0x40)\n      dup1\n      swap2\n      sub\n      swap1\n      revert\n    tag_149:\n        /* \"contracts/KYCManager.sol\":1423:1433  _available */\n      dup1\n        /* \"contracts/KYCManager.sol\":1397:1413  NFTIdToAvailable */\n      0x04\n        /* \"contracts/KYCManager.sol\":1397:1420  NFTIdToAvailable[NFTid] */\n      0x00\n        /* \"contracts/KYCManager.sol\":1414:1419  NFTid */\n      dup5\n        /* \"contracts/KYCManager.sol\":1397:1420  NFTIdToAvailable[NFTid] */\n      dup2\n      mstore\n      0x20\n      add\n      swap1\n      dup2\n      mstore\n      0x20\n      add\n      0x00\n      keccak256\n      0x00\n        /* \"contracts/KYCManager.sol\":1397:1433  NFTIdToAvailable[NFTid] = _available */\n      0x0100\n      exp\n      dup2\n      sload\n      dup2\n      0xff\n      mul\n      not\n      and\n      swap1\n      dup4\n      iszero\n      iszero\n      mul\n      or\n      swap1\n      sstore\n      pop\n        /* \"contracts/KYCManager.sol\":1313:1438  function setNFTAvailableOfNFTId(uint NFTid, bool _available)  public onlyOwner{... */\n      pop\n      pop\n      jump\t// out\n        /* \"@openzeppelin/contracts/access/Ownable.sol\":1036:1121  function owner() public view virtual returns (address) {... */\n    tag_60:\n        /* \"@openzeppelin/contracts/access/Ownable.sol\":1082:1089  address */\n      0x00\n        /* \"@openzeppelin/contracts/access/Ownable.sol\":1108:1114  _owner */\n      dup1\n      0x00\n      swap1\n      sload\n      swap1\n      0x0100\n      exp\n      swap1\n      div\n      0xffffffffffffffffffffffffffffffffffffffff\n      and\n        /* \"@openzeppelin/contracts/access/Ownable.sol\":1101:1114  return _owner */\n      swap1\n      pop\n        /* \"@openzeppelin/contracts/access/Ownable.sol\":1036:1121  function owner() public view virtual returns (address) {... */\n      swap1\n      jump\t// out\n        /* \"contracts/KYCManager.sol\":2693:2896  function userDataOfNFTId(uint NFTid) public view returns(UserData memory){... */\n    tag_65:\n        /* \"contracts/KYCManager.sol\":2750:2765  UserData memory */\n      tag_153\n      tag_154\n      jump\t// in\n    tag_153:\n        /* \"contracts/KYCManager.sol\":2774:2786  address addr */\n      0x00\n        /* \"contracts/KYCManager.sol\":2789:2803  NFTIdToManager */\n      0x02\n        /* \"contracts/KYCManager.sol\":2789:2810  NFTIdToManager[NFTid] */\n      0x00\n        /* \"contracts/KYCManager.sol\":2804:2809  NFTid */\n      dup5\n        /* \"contracts/KYCManager.sol\":2789:2810  NFTIdToManager[NFTid] */\n      dup2\n      mstore\n      0x20\n      add\n      swap1\n      dup2\n      mstore\n      0x20\n      add\n      0x00\n      keccak256\n      0x00\n      swap1\n      sload\n      swap1\n      0x0100\n      exp\n      swap1\n      div\n      0xffffffffffffffffffffffffffffffffffffffff\n      and\n        /* \"contracts/KYCManager.sol\":2774:2810  address addr = NFTIdToManager[NFTid] */\n      swap1\n      pop\n        /* \"contracts/KYCManager.sol\":2818:2842  UserData memory userdata */\n      0x00\n        /* \"contracts/KYCManager.sol\":2845:2862  ManagerToUserData */\n      0x03\n        /* \"contracts/KYCManager.sol\":2845:2868  ManagerToUserData[addr] */\n      0x00\n        /* \"contracts/KYCManager.sol\":2863:2867  addr */\n      dup4\n        /* \"contracts/KYCManager.sol\":2845:2868  ManagerToUserData[addr] */\n      0xffffffffffffffffffffffffffffffffffffffff\n      and\n      0xffffffffffffffffffffffffffffffffffffffff\n      and\n      dup2\n      mstore\n      0x20\n      add\n      swap1\n      dup2\n      mstore\n      0x20\n      add\n      0x00\n      keccak256\n        /* \"contracts/KYCManager.sol\":2818:2868  UserData memory userdata = ManagerToUserData[addr] */\n      mload(0x40)\n      dup1\n      0x80\n      add\n      0x40\n      mstore\n      swap1\n      dup2\n      0x00\n      dup3\n      add\n      sload\n      dup2\n      mstore\n      0x20\n      add\n      0x01\n      dup3\n      add\n      dup1\n      sload\n      tag_156\n      swap1\n      tag_116\n      jump\t// in\n    tag_156:\n      dup1\n      0x1f\n      add\n      0x20\n      dup1\n      swap2\n      div\n      mul\n      0x20\n      add\n      mload(0x40)\n      swap1\n      dup2\n      add\n      0x40\n      mstore\n      dup1\n      swap3\n      swap2\n      swap1\n      dup2\n      dup2\n      mstore\n      0x20\n      add\n      dup3\n      dup1\n      sload\n      tag_157\n      swap1\n      tag_116\n      jump\t// in\n    tag_157:\n      dup1\n      iszero\n      tag_158\n      jumpi\n      dup1\n      0x1f\n      lt\n      tag_159\n      jumpi\n      0x0100\n      dup1\n      dup4\n      sload\n      div\n      mul\n      dup4\n      mstore\n      swap2\n      0x20\n      add\n      swap2\n      jump(tag_158)\n    tag_159:\n      dup3\n      add\n      swap2\n      swap1\n      0x00\n      mstore\n      keccak256(0x00, 0x20)\n      swap1\n    tag_160:\n      dup2\n      sload\n      dup2\n      mstore\n      swap1\n      0x01\n      add\n      swap1\n      0x20\n      add\n      dup1\n      dup4\n      gt\n      tag_160\n      jumpi\n      dup3\n      swap1\n      sub\n      0x1f\n      and\n      dup3\n      add\n      swap2\n    tag_158:\n      pop\n      pop\n      pop\n      pop\n      pop\n      dup2\n      mstore\n      0x20\n      add\n      0x02\n      dup3\n      add\n      dup1\n      sload\n      tag_161\n      swap1\n      tag_116\n      jump\t// in\n    tag_161:\n      dup1\n      0x1f\n      add\n      0x20\n      dup1\n      swap2\n      div\n      mul\n      0x20\n      add\n      mload(0x40)\n      swap1\n      dup2\n      add\n      0x40\n      mstore\n      dup1\n      swap3\n      swap2\n      swap1\n      dup2\n      dup2\n      mstore\n      0x20\n      add\n      dup3\n      dup1\n      sload\n      tag_162\n      swap1\n      tag_116\n      jump\t// in\n    tag_162:\n      dup1\n      iszero\n      tag_163\n      jumpi\n      dup1\n      0x1f\n      lt\n      tag_164\n      jumpi\n      0x0100\n      dup1\n      dup4\n      sload\n      div\n      mul\n      dup4\n      mstore\n      swap2\n      0x20\n      add\n      swap2\n      jump(tag_163)\n    tag_164:\n      dup3\n      add\n      swap2\n      swap1\n      0x00\n      mstore\n      keccak256(0x00, 0x20)\n      swap1\n    tag_165:\n      dup2\n      sload\n      dup2\n      mstore\n      swap1\n      0x01\n      add\n      swap1\n      0x20\n      add\n      dup1\n      dup4\n      gt\n      tag_165\n      jumpi\n      dup3\n      swap1\n      sub\n      0x1f\n      and\n      dup3\n      add\n      swap2\n    tag_163:\n      pop\n      pop\n      pop\n      pop\n      pop\n      dup2\n      mstore\n      0x20\n      add\n      0x03\n      dup3\n      add\n      sload\n      dup2\n      mstore\n      pop\n      pop\n      swap1\n      pop\n        /* \"contracts/KYCManager.sol\":2883:2891  userdata */\n      dup1\n        /* \"contracts/KYCManager.sol\":2876:2891  return userdata */\n      swap3\n      pop\n      pop\n      pop\n        /* \"contracts/KYCManager.sol\":2693:2896  function userDataOfNFTId(uint NFTid) public view returns(UserData memory){... */\n      swap2\n      swap1\n      pop\n      jump\t// out\n        /* \"contracts/KYCManager.sol\":3396:3939  function verify(... */\n    tag_72:\n        /* \"contracts/KYCManager.sol\":3549:3553  bool */\n      0x00\n        /* \"contracts/KYCManager.sol\":3563:3583  bytes32 computedHash */\n      dup1\n        /* \"contracts/KYCManager.sol\":3586:3590  leaf */\n      dup7\n        /* \"contracts/KYCManager.sol\":3563:3590  bytes32 computedHash = leaf */\n      swap1\n      pop\n        /* \"contracts/KYCManager.sol\":3602:3611  uint256 i */\n      0x00\n        /* \"contracts/KYCManager.sol\":3597:3901  for (uint256 i = 0; i < proof.length; i++) {... */\n    tag_167:\n        /* \"contracts/KYCManager.sol\":3621:3626  proof */\n      dup7\n      dup7\n        /* \"contracts/KYCManager.sol\":3621:3633  proof.length */\n      swap1\n      pop\n        /* \"contracts/KYCManager.sol\":3617:3618  i */\n      dup2\n        /* \"contracts/KYCManager.sol\":3617:3633  i < proof.length */\n      lt\n        /* \"contracts/KYCManager.sol\":3597:3901  for (uint256 i = 0; i < proof.length; i++) {... */\n      iszero\n      tag_168\n      jumpi\n        /* \"contracts/KYCManager.sol\":3648:3668  bytes32 proofElement */\n      0x00\n        /* \"contracts/KYCManager.sol\":3671:3676  proof */\n      dup8\n      dup8\n        /* \"contracts/KYCManager.sol\":3677:3678  i */\n      dup4\n        /* \"contracts/KYCManager.sol\":3671:3679  proof[i] */\n      dup2\n      dup2\n      lt\n      tag_170\n      jumpi\n      tag_171\n      tag_172\n      jump\t// in\n    tag_171:\n    tag_170:\n      swap1\n      pop\n      0x20\n      mul\n      add\n      calldataload\n        /* \"contracts/KYCManager.sol\":3648:3679  bytes32 proofElement = proof[i] */\n      swap1\n      pop\n        /* \"contracts/KYCManager.sol\":3708:3709  1 */\n      0x01\n        /* \"contracts/KYCManager.sol\":3692:3701  positions */\n      dup7\n      dup7\n        /* \"contracts/KYCManager.sol\":3702:3703  i */\n      dup5\n        /* \"contracts/KYCManager.sol\":3692:3704  positions[i] */\n      dup2\n      dup2\n      lt\n      tag_173\n      jumpi\n      tag_174\n      tag_172\n      jump\t// in\n    tag_174:\n    tag_173:\n      swap1\n      pop\n      0x20\n      mul\n      add\n      calldataload\n        /* \"contracts/KYCManager.sol\":3692:3709  positions[i] == 1 */\n      eq\n        /* \"contracts/KYCManager.sol\":3688:3895  if (positions[i] == 1) {... */\n      iszero\n      tag_175\n      jumpi\n        /* \"contracts/KYCManager.sol\":3763:3775  computedHash */\n      dup3\n        /* \"contracts/KYCManager.sol\":3777:3789  proofElement */\n      dup2\n        /* \"contracts/KYCManager.sol\":3746:3790  abi.encodePacked(computedHash, proofElement) */\n      add(0x20, mload(0x40))\n      tag_176\n      swap3\n      swap2\n      swap1\n      tag_177\n      jump\t// in\n    tag_176:\n      mload(0x40)\n      0x20\n      dup2\n      dup4\n      sub\n      sub\n      dup2\n      mstore\n      swap1\n      0x40\n      mstore\n        /* \"contracts/KYCManager.sol\":3736:3791  keccak256(abi.encodePacked(computedHash, proofElement)) */\n      dup1\n      mload\n      swap1\n      0x20\n      add\n      keccak256\n        /* \"contracts/KYCManager.sol\":3721:3791  computedHash = keccak256(abi.encodePacked(computedHash, proofElement)) */\n      swap3\n      pop\n        /* \"contracts/KYCManager.sol\":3688:3895  if (positions[i] == 1) {... */\n      jump(tag_178)\n    tag_175:\n        /* \"contracts/KYCManager.sol\":3858:3870  proofElement */\n      dup1\n        /* \"contracts/KYCManager.sol\":3872:3884  computedHash */\n      dup4\n        /* \"contracts/KYCManager.sol\":3841:3885  abi.encodePacked(proofElement, computedHash) */\n      add(0x20, mload(0x40))\n      tag_179\n      swap3\n      swap2\n      swap1\n      tag_177\n      jump\t// in\n    tag_179:\n      mload(0x40)\n      0x20\n      dup2\n      dup4\n      sub\n      sub\n      dup2\n      mstore\n      swap1\n      0x40\n      mstore\n        /* \"contracts/KYCManager.sol\":3831:3886  keccak256(abi.encodePacked(proofElement, computedHash)) */\n      dup1\n      mload\n      swap1\n      0x20\n      add\n      keccak256\n        /* \"contracts/KYCManager.sol\":3816:3886  computedHash = keccak256(abi.encodePacked(proofElement, computedHash)) */\n      swap3\n      pop\n        /* \"contracts/KYCManager.sol\":3688:3895  if (positions[i] == 1) {... */\n    tag_178:\n        /* \"contracts/KYCManager.sol\":3640:3901  {... */\n      pop\n        /* \"contracts/KYCManager.sol\":3635:3638  i++ */\n      dup1\n      dup1\n      tag_180\n      swap1\n      tag_181\n      jump\t// in\n    tag_180:\n      swap2\n      pop\n      pop\n        /* \"contracts/KYCManager.sol\":3597:3901  for (uint256 i = 0; i < proof.length; i++) {... */\n      jump(tag_167)\n    tag_168:\n      pop\n        /* \"contracts/KYCManager.sol\":3930:3934  root */\n      dup8\n        /* \"contracts/KYCManager.sol\":3914:3926  computedHash */\n      dup2\n        /* \"contracts/KYCManager.sol\":3914:3934  computedHash == root */\n      eq\n        /* \"contracts/KYCManager.sol\":3907:3934  return computedHash == root */\n      swap2\n      pop\n      pop\n        /* \"contracts/KYCManager.sol\":3396:3939  function verify(... */\n      swap7\n      swap6\n      pop\n      pop\n      pop\n      pop\n      pop\n      pop\n      jump\t// out\n        /* \"contracts/KYCManager.sol\":2900:3077  function userDataOfManager(address managerAddr) public view returns(UserData memory){... */\n    tag_77:\n        /* \"contracts/KYCManager.sol\":2968:2983  UserData memory */\n      tag_182\n      tag_154\n      jump\t// in\n    tag_182:\n        /* \"contracts/KYCManager.sol\":2992:3016  UserData memory userdata */\n      0x00\n        /* \"contracts/KYCManager.sol\":3019:3036  ManagerToUserData */\n      0x03\n        /* \"contracts/KYCManager.sol\":3019:3049  ManagerToUserData[managerAddr] */\n      0x00\n        /* \"contracts/KYCManager.sol\":3037:3048  managerAddr */\n      dup5\n        /* \"contracts/KYCManager.sol\":3019:3049  ManagerToUserData[managerAddr] */\n      0xffffffffffffffffffffffffffffffffffffffff\n      and\n      0xffffffffffffffffffffffffffffffffffffffff\n      and\n      dup2\n      mstore\n      0x20\n      add\n      swap1\n      dup2\n      mstore\n      0x20\n      add\n      0x00\n      keccak256\n        /* \"contracts/KYCManager.sol\":2992:3049  UserData memory userdata = ManagerToUserData[managerAddr] */\n      mload(0x40)\n      dup1\n      0x80\n      add\n      0x40\n      mstore\n      swap1\n      dup2\n      0x00\n      dup3\n      add\n      sload\n      dup2\n      mstore\n      0x20\n      add\n      0x01\n      dup3\n      add\n      dup1\n      sload\n      tag_184\n      swap1\n      tag_116\n      jump\t// in\n    tag_184:\n      dup1\n      0x1f\n      add\n      0x20\n      dup1\n      swap2\n      div\n      mul\n      0x20\n      add\n      mload(0x40)\n      swap1\n      dup2\n      add\n      0x40\n      mstore\n      dup1\n      swap3\n      swap2\n      swap1\n      dup2\n      dup2\n      mstore\n      0x20\n      add\n      dup3\n      dup1\n      sload\n      tag_185\n      swap1\n      tag_116\n      jump\t// in\n    tag_185:\n      dup1\n      iszero\n      tag_186\n      jumpi\n      dup1\n      0x1f\n      lt\n      tag_187\n      jumpi\n      0x0100\n      dup1\n      dup4\n      sload\n      div\n      mul\n      dup4\n      mstore\n      swap2\n      0x20\n      add\n      swap2\n      jump(tag_186)\n    tag_187:\n      dup3\n      add\n      swap2\n      swap1\n      0x00\n      mstore\n      keccak256(0x00, 0x20)\n      swap1\n    tag_188:\n      dup2\n      sload\n      dup2\n      mstore\n      swap1\n      0x01\n      add\n      swap1\n      0x20\n      add\n      dup1\n      dup4\n      gt\n      tag_188\n      jumpi\n      dup3\n      swap1\n      sub\n      0x1f\n      and\n      dup3\n      add\n      swap2\n    tag_186:\n      pop\n      pop\n      pop\n      pop\n      pop\n      dup2\n      mstore\n      0x20\n      add\n      0x02\n      dup3\n      add\n      dup1\n      sload\n      tag_189\n      swap1\n      tag_116\n      jump\t// in\n    tag_189:\n      dup1\n      0x1f\n      add\n      0x20\n      dup1\n      swap2\n      div\n      mul\n      0x20\n      add\n      mload(0x40)\n      swap1\n      dup2\n      add\n      0x40\n      mstore\n      dup1\n      swap3\n      swap2\n      swap1\n      dup2\n      dup2\n      mstore\n      0x20\n      add\n      dup3\n      dup1\n      sload\n      tag_190\n      swap1\n      tag_116\n      jump\t// in\n    tag_190:\n      dup1\n      iszero\n      tag_191\n      jumpi\n      dup1\n      0x1f\n      lt\n      tag_192\n      jumpi\n      0x0100\n      dup1\n      dup4\n      sload\n      div\n      mul\n      dup4\n      mstore\n      swap2\n      0x20\n      add\n      swap2\n      jump(tag_191)\n    tag_192:\n      dup3\n      add\n      swap2\n      swap1\n      0x00\n      mstore\n      keccak256(0x00, 0x20)\n      swap1\n    tag_193:\n      dup2\n      sload\n      dup2\n      mstore\n      swap1\n      0x01\n      add\n      swap1\n      0x20\n      add\n      dup1\n      dup4\n      gt\n      tag_193\n      jumpi\n      dup3\n      swap1\n      sub\n      0x1f\n      and\n      dup3\n      add\n      swap2\n    tag_191:\n      pop\n      pop\n      pop\n      pop\n      pop\n      dup2\n      mstore\n      0x20\n      add\n      0x03\n      dup3\n      add\n      sload\n      dup2\n      mstore\n      pop\n      pop\n      swap1\n      pop\n        /* \"contracts/KYCManager.sol\":3064:3072  userdata */\n      dup1\n        /* \"contracts/KYCManager.sol\":3057:3072  return userdata */\n      swap2\n      pop\n      pop\n        /* \"contracts/KYCManager.sol\":2900:3077  function userDataOfManager(address managerAddr) public view returns(UserData memory){... */\n      swap2\n      swap1\n      pop\n      jump\t// out\n        /* \"contracts/KYCManager.sol\":3191:3360  function NFTIdOfManager(address managerAddr) public view returns(uint){... */\n    tag_82:\n        /* \"contracts/KYCManager.sol\":3256:3260  uint */\n      0x00\n        /* \"contracts/KYCManager.sol\":3269:3293  UserData memory userdata */\n      dup1\n        /* \"contracts/KYCManager.sol\":3296:3313  ManagerToUserData */\n      0x03\n        /* \"contracts/KYCManager.sol\":3296:3326  ManagerToUserData[managerAddr] */\n      0x00\n        /* \"contracts/KYCManager.sol\":3314:3325  managerAddr */\n      dup5\n        /* \"contracts/KYCManager.sol\":3296:3326  ManagerToUserData[managerAddr] */\n      0xffffffffffffffffffffffffffffffffffffffff\n      and\n      0xffffffffffffffffffffffffffffffffffffffff\n      and\n      dup2\n      mstore\n      0x20\n      add\n      swap1\n      dup2\n      mstore\n      0x20\n      add\n      0x00\n      keccak256\n        /* \"contracts/KYCManager.sol\":3269:3326  UserData memory userdata = ManagerToUserData[managerAddr] */\n      mload(0x40)\n      dup1\n      0x80\n      add\n      0x40\n      mstore\n      swap1\n      dup2\n      0x00\n      dup3\n      add\n      sload\n      dup2\n      mstore\n      0x20\n      add\n      0x01\n      dup3\n      add\n      dup1\n      sload\n      tag_195\n      swap1\n      tag_116\n      jump\t// in\n    tag_195:\n      dup1\n      0x1f\n      add\n      0x20\n      dup1\n      swap2\n      div\n      mul\n      0x20\n      add\n      mload(0x40)\n      swap1\n      dup2\n      add\n      0x40\n      mstore\n      dup1\n      swap3\n      swap2\n      swap1\n      dup2\n      dup2\n      mstore\n      0x20\n      add\n      dup3\n      dup1\n      sload\n      tag_196\n      swap1\n      tag_116\n      jump\t// in\n    tag_196:\n      dup1\n      iszero\n      tag_197\n      jumpi\n      dup1\n      0x1f\n      lt\n      tag_198\n      jumpi\n      0x0100\n      dup1\n      dup4\n      sload\n      div\n      mul\n      dup4\n      mstore\n      swap2\n      0x20\n      add\n      swap2\n      jump(tag_197)\n    tag_198:\n      dup3\n      add\n      swap2\n      swap1\n      0x00\n      mstore\n      keccak256(0x00, 0x20)\n      swap1\n    tag_199:\n      dup2\n      sload\n      dup2\n      mstore\n      swap1\n      0x01\n      add\n      swap1\n      0x20\n      add\n      dup1\n      dup4\n      gt\n      tag_199\n      jumpi\n      dup3\n      swap1\n      sub\n      0x1f\n      and\n      dup3\n      add\n      swap2\n    tag_197:\n      pop\n      pop\n      pop\n      pop\n      pop\n      dup2\n      mstore\n      0x20\n      add\n      0x02\n      dup3\n      add\n      dup1\n      sload\n      tag_200\n      swap1\n      tag_116\n      jump\t// in\n    tag_200:\n      dup1\n      0x1f\n      add\n      0x20\n      dup1\n      swap2\n      div\n      mul\n      0x20\n      add\n      mload(0x40)\n      swap1\n      dup2\n      add\n      0x40\n      mstore\n      dup1\n      swap3\n      swap2\n      swap1\n      dup2\n      dup2\n      mstore\n      0x20\n      add\n      dup3\n      dup1\n      sload\n      tag_201\n      swap1\n      tag_116\n      jump\t// in\n    tag_201:\n      dup1\n      iszero\n      tag_202\n      jumpi\n      dup1\n      0x1f\n      lt\n      tag_203\n      jumpi\n      0x0100\n      dup1\n      dup4\n      sload\n      div\n      mul\n      dup4\n      mstore\n      swap2\n      0x20\n      add\n      swap2\n      jump(tag_202)\n    tag_203:\n      dup3\n      add\n      swap2\n      swap1\n      0x00\n      mstore\n      keccak256(0x00, 0x20)\n      swap1\n    tag_204:\n      dup2\n      sload\n      dup2\n      mstore\n      swap1\n      0x01\n      add\n      swap1\n      0x20\n      add\n      dup1\n      dup4\n      gt\n      tag_204\n      jumpi\n      dup3\n      swap1\n      sub\n      0x1f\n      and\n      dup3\n      add\n      swap2\n    tag_202:\n      pop\n      pop\n      pop\n      pop\n      pop\n      dup2\n      mstore\n      0x20\n      add\n      0x03\n      dup3\n      add\n      sload\n      dup2\n      mstore\n      pop\n      pop\n      swap1\n      pop\n        /* \"contracts/KYCManager.sol\":3341:3349  userdata */\n      dup1\n        /* \"contracts/KYCManager.sol\":3341:3355  userdata.NFTid */\n      0x00\n      add\n      mload\n        /* \"contracts/KYCManager.sol\":3334:3355  return userdata.NFTid */\n      swap2\n      pop\n      pop\n        /* \"contracts/KYCManager.sol\":3191:3360  function NFTIdOfManager(address managerAddr) public view returns(uint){... */\n      swap2\n      swap1\n      pop\n      jump\t// out\n        /* \"contracts/KYCManager.sol\":1896:2147  function updateAccumulator(string memory _accumulator, string memory _n, uint256 _g) public {... */\n    tag_89:\n        /* \"contracts/KYCManager.sol\":1996:2021  UserData storage userdata */\n      0x00\n        /* \"contracts/KYCManager.sol\":2024:2041  ManagerToUserData */\n      0x03\n        /* \"contracts/KYCManager.sol\":2024:2053  ManagerToUserData[msg.sender] */\n      0x00\n        /* \"contracts/KYCManager.sol\":2042:2052  msg.sender */\n      caller\n        /* \"contracts/KYCManager.sol\":2024:2053  ManagerToUserData[msg.sender] */\n      0xffffffffffffffffffffffffffffffffffffffff\n      and\n      0xffffffffffffffffffffffffffffffffffffffff\n      and\n      dup2\n      mstore\n      0x20\n      add\n      swap1\n      dup2\n      mstore\n      0x20\n      add\n      0x00\n      keccak256\n        /* \"contracts/KYCManager.sol\":1996:2053  UserData storage userdata = ManagerToUserData[msg.sender] */\n      swap1\n      pop\n        /* \"contracts/KYCManager.sol\":2084:2096  _accumulator */\n      dup4\n        /* \"contracts/KYCManager.sol\":2061:2069  userdata */\n      dup2\n        /* \"contracts/KYCManager.sol\":2061:2081  userdata.accumulator */\n      0x01\n      add\n        /* \"contracts/KYCManager.sol\":2061:2096  userdata.accumulator = _accumulator */\n      swap1\n      dup1\n      mload\n      swap1\n      0x20\n      add\n      swap1\n      tag_206\n      swap3\n      swap2\n      swap1\n      tag_127\n      jump\t// in\n    tag_206:\n      pop\n        /* \"contracts/KYCManager.sol\":2117:2119  _n */\n      dup3\n        /* \"contracts/KYCManager.sol\":2104:2112  userdata */\n      dup2\n        /* \"contracts/KYCManager.sol\":2104:2114  userdata.n */\n      0x02\n      add\n        /* \"contracts/KYCManager.sol\":2104:2119  userdata.n = _n */\n      swap1\n      dup1\n      mload\n      swap1\n      0x20\n      add\n      swap1\n      tag_207\n      swap3\n      swap2\n      swap1\n      tag_127\n      jump\t// in\n    tag_207:\n      pop\n        /* \"contracts/KYCManager.sol\":2140:2142  _g */\n      dup2\n        /* \"contracts/KYCManager.sol\":2127:2135  userdata */\n      dup2\n        /* \"contracts/KYCManager.sol\":2127:2137  userdata.g */\n      0x03\n      add\n        /* \"contracts/KYCManager.sol\":2127:2142  userdata.g = _g */\n      dup2\n      swap1\n      sstore\n      pop\n        /* \"contracts/KYCManager.sol\":1988:2147  {... */\n      pop\n        /* \"contracts/KYCManager.sol\":1896:2147  function updateAccumulator(string memory _accumulator, string memory _n, uint256 _g) public {... */\n      pop\n      pop\n      pop\n      jump\t// out\n        /* \"contracts/KYCManager.sol\":902:1307  function createKYCNFT(string memory tokenUrl, address manager, uint expirationTime) public onlyOwner{... */\n    tag_94:\n        /* \"@openzeppelin/contracts/access/Ownable.sol\":1259:1271  _msgSender() */\n      tag_209\n        /* \"@openzeppelin/contracts/access/Ownable.sol\":1259:1269  _msgSender */\n      tag_131\n        /* \"@openzeppelin/contracts/access/Ownable.sol\":1259:1271  _msgSender() */\n      jump\t// in\n    tag_209:\n        /* \"@openzeppelin/contracts/access/Ownable.sol\":1248:1271  owner() == _msgSender() */\n      0xffffffffffffffffffffffffffffffffffffffff\n      and\n        /* \"@openzeppelin/contracts/access/Ownable.sol\":1248:1255  owner() */\n      tag_210\n        /* \"@openzeppelin/contracts/access/Ownable.sol\":1248:1253  owner */\n      tag_60\n        /* \"@openzeppelin/contracts/access/Ownable.sol\":1248:1255  owner() */\n      jump\t// in\n    tag_210:\n        /* \"@openzeppelin/contracts/access/Ownable.sol\":1248:1271  owner() == _msgSender() */\n      0xffffffffffffffffffffffffffffffffffffffff\n      and\n      eq\n        /* \"@openzeppelin/contracts/access/Ownable.sol\":1240:1308  require(owner() == _msgSender(), \"Ownable: caller is not the owner\") */\n      tag_211\n      jumpi\n      mload(0x40)\n      0x08c379a000000000000000000000000000000000000000000000000000000000\n      dup2\n      mstore\n      0x04\n      add\n      tag_212\n      swap1\n      tag_135\n      jump\t// in\n    tag_212:\n      mload(0x40)\n      dup1\n      swap2\n      sub\n      swap1\n      revert\n    tag_211:\n        /* \"contracts/KYCManager.sol\":1050:1071  address kycnftmanager */\n      0x00\n        /* \"contracts/KYCManager.sol\":1084:1088  this */\n      address\n        /* \"contracts/KYCManager.sol\":1050:1089  address kycnftmanager = (address)(this) */\n      swap1\n      pop\n        /* \"contracts/KYCManager.sol\":1095:1108  uint256 NFTid */\n      0x00\n        /* \"contracts/KYCManager.sol\":1111:1125  kycNFTContract */\n      0x01\n      0x00\n      swap1\n      sload\n      swap1\n      0x0100\n      exp\n      swap1\n      div\n      0xffffffffffffffffffffffffffffffffffffffff\n      and\n        /* \"contracts/KYCManager.sol\":1111:1135  kycNFTContract.awardItem */\n      0xffffffffffffffffffffffffffffffffffffffff\n      and\n      0xcf378343\n        /* \"contracts/KYCManager.sol\":1136:1149  kycnftmanager */\n      dup4\n        /* \"contracts/KYCManager.sol\":1151:1159  tokenUrl */\n      dup8\n        /* \"contracts/KYCManager.sol\":1111:1160  kycNFTContract.awardItem(kycnftmanager, tokenUrl) */\n      mload(0x40)\n      dup4\n      0xffffffff\n      and\n      0xe0\n      shl\n      dup2\n      mstore\n      0x04\n      add\n      tag_214\n      swap3\n      swap2\n      swap1\n      tag_215\n      jump\t// in\n    tag_214:\n      0x20\n      mload(0x40)\n      dup1\n      dup4\n      sub\n      dup2\n      0x00\n      dup8\n      dup1\n      extcodesize\n      iszero\n      dup1\n      iszero\n      tag_216\n      jumpi\n      0x00\n      dup1\n      revert\n    tag_216:\n      pop\n      gas\n      call\n      iszero\n      dup1\n      iszero\n      tag_218\n      jumpi\n      returndatasize\n      0x00\n      dup1\n      returndatacopy\n      revert(0x00, returndatasize)\n    tag_218:\n      pop\n      pop\n      pop\n      pop\n      mload(0x40)\n      returndatasize\n      not(0x1f)\n      0x1f\n      dup3\n      add\n      and\n      dup3\n      add\n      dup1\n      0x40\n      mstore\n      pop\n      dup2\n      add\n      swap1\n      tag_219\n      swap2\n      swap1\n      tag_220\n      jump\t// in\n    tag_219:\n        /* \"contracts/KYCManager.sol\":1095:1160  uint256 NFTid = kycNFTContract.awardItem(kycnftmanager, tokenUrl) */\n      swap1\n      pop\n        /* \"contracts/KYCManager.sol\":1166:1180  kycNFTContract */\n      0x01\n      0x00\n      swap1\n      sload\n      swap1\n      0x0100\n      exp\n      swap1\n      div\n      0xffffffffffffffffffffffffffffffffffffffff\n      and\n        /* \"contracts/KYCManager.sol\":1166:1201  kycNFTContract.updateExpirationTime */\n      0xffffffffffffffffffffffffffffffffffffffff\n      and\n      0xe1b2e979\n        /* \"contracts/KYCManager.sol\":1202:1207  NFTid */\n      dup3\n        /* \"contracts/KYCManager.sol\":1209:1223  expirationTime */\n      dup6\n        /* \"contracts/KYCManager.sol\":1166:1224  kycNFTContract.updateExpirationTime(NFTid, expirationTime) */\n      mload(0x40)\n      dup4\n      0xffffffff\n      and\n      0xe0\n      shl\n      dup2\n      mstore\n      0x04\n      add\n      tag_221\n      swap3\n      swap2\n      swap1\n      tag_222\n      jump\t// in\n    tag_221:\n      0x00\n      mload(0x40)\n      dup1\n      dup4\n      sub\n      dup2\n      0x00\n      dup8\n      dup1\n      extcodesize\n      iszero\n      dup1\n      iszero\n      tag_223\n      jumpi\n      0x00\n      dup1\n      revert\n    tag_223:\n      pop\n      gas\n      call\n      iszero\n      dup1\n      iszero\n      tag_225\n      jumpi\n      returndatasize\n      0x00\n      dup1\n      returndatacopy\n      revert(0x00, returndatasize)\n    tag_225:\n      pop\n      pop\n      pop\n      pop\n        /* \"contracts/KYCManager.sol\":1230:1265  setNFTAvailableOfNFTId(NFTid, true) */\n      tag_226\n        /* \"contracts/KYCManager.sol\":1253:1258  NFTid */\n      dup2\n        /* \"contracts/KYCManager.sol\":1260:1264  true */\n      0x01\n        /* \"contracts/KYCManager.sol\":1230:1252  setNFTAvailableOfNFTId */\n      tag_57\n        /* \"contracts/KYCManager.sol\":1230:1265  setNFTAvailableOfNFTId(NFTid, true) */\n      jump\t// in\n    tag_226:\n        /* \"contracts/KYCManager.sol\":1271:1302  initManagerAddr(NFTid, manager) */\n      tag_227\n        /* \"contracts/KYCManager.sol\":1287:1292  NFTid */\n      dup2\n        /* \"contracts/KYCManager.sol\":1294:1301  manager */\n      dup6\n        /* \"contracts/KYCManager.sol\":1271:1286  initManagerAddr */\n      tag_43\n        /* \"contracts/KYCManager.sol\":1271:1302  initManagerAddr(NFTid, manager) */\n      jump\t// in\n    tag_227:\n        /* \"contracts/KYCManager.sol\":1002:1307  {... */\n      pop\n      pop\n        /* \"contracts/KYCManager.sol\":902:1307  function createKYCNFT(string memory tokenUrl, address manager, uint expirationTime) public onlyOwner{... */\n      pop\n      pop\n      pop\n      jump\t// out\n        /* \"contracts/KYCManager.sol\":2341:2521  function updateAccumulatorValue(string memory _accumulator) public {... */\n    tag_99:\n        /* \"contracts/KYCManager.sol\":2416:2441  UserData storage userdata */\n      0x00\n        /* \"contracts/KYCManager.sol\":2444:2461  ManagerToUserData */\n      0x03\n        /* \"contracts/KYCManager.sol\":2444:2473  ManagerToUserData[msg.sender] */\n      0x00\n        /* \"contracts/KYCManager.sol\":2462:2472  msg.sender */\n      caller\n        /* \"contracts/KYCManager.sol\":2444:2473  ManagerToUserData[msg.sender] */\n      0xffffffffffffffffffffffffffffffffffffffff\n      and\n      0xffffffffffffffffffffffffffffffffffffffff\n      and\n      dup2\n      mstore\n      0x20\n      add\n      swap1\n      dup2\n      mstore\n      0x20\n      add\n      0x00\n      keccak256\n        /* \"contracts/KYCManager.sol\":2416:2473  UserData storage userdata = ManagerToUserData[msg.sender] */\n      swap1\n      pop\n        /* \"contracts/KYCManager.sol\":2504:2516  _accumulator */\n      dup2\n        /* \"contracts/KYCManager.sol\":2481:2489  userdata */\n      dup2\n        /* \"contracts/KYCManager.sol\":2481:2501  userdata.accumulator */\n      0x01\n      add\n        /* \"contracts/KYCManager.sol\":2481:2516  userdata.accumulator = _accumulator */\n      swap1\n      dup1\n      mload\n      swap1\n      0x20\n      add\n      swap1\n      tag_229\n      swap3\n      swap2\n      swap1\n      tag_127\n      jump\t// in\n    tag_229:\n      pop\n        /* \"contracts/KYCManager.sol\":2408:2521  {... */\n      pop\n        /* \"contracts/KYCManager.sol\":2341:2521  function updateAccumulatorValue(string memory _accumulator) public {... */\n      pop\n      jump\t// out\n        /* \"@openzeppelin/contracts/access/Ownable.sol\":1918:2116  function transferOwnership(address newOwner) public virtual onlyOwner {... */\n    tag_103:\n        /* \"@openzeppelin/contracts/access/Ownable.sol\":1259:1271  _msgSender() */\n      tag_231\n        /* \"@openzeppelin/contracts/access/Ownable.sol\":1259:1269  _msgSender */\n      tag_131\n        /* \"@openzeppelin/contracts/access/Ownable.sol\":1259:1271  _msgSender() */\n      jump\t// in\n    tag_231:\n        /* \"@openzeppelin/contracts/access/Ownable.sol\":1248:1271  owner() == _msgSender() */\n      0xffffffffffffffffffffffffffffffffffffffff\n      and\n        /* \"@openzeppelin/contracts/access/Ownable.sol\":1248:1255  owner() */\n      tag_232\n        /* \"@openzeppelin/contracts/access/Ownable.sol\":1248:1253  owner */\n      tag_60\n        /* \"@openzeppelin/contracts/access/Ownable.sol\":1248:1255  owner() */\n      jump\t// in\n    tag_232:\n        /* \"@openzeppelin/contracts/access/Ownable.sol\":1248:1271  owner() == _msgSender() */\n      0xffffffffffffffffffffffffffffffffffffffff\n      and\n      eq\n        /* \"@openzeppelin/contracts/access/Ownable.sol\":1240:1308  require(owner() == _msgSender(), \"Ownable: caller is not the owner\") */\n      tag_233\n      jumpi\n      mload(0x40)\n      0x08c379a000000000000000000000000000000000000000000000000000000000\n      dup2\n      mstore\n      0x04\n      add\n      tag_234\n      swap1\n      tag_135\n      jump\t// in\n    tag_234:\n      mload(0x40)\n      dup1\n      swap2\n      sub\n      swap1\n      revert\n    tag_233:\n        /* \"@openzeppelin/contracts/access/Ownable.sol\":2026:2027  0 */\n      0x00\n        /* \"@openzeppelin/contracts/access/Ownable.sol\":2006:2028  newOwner != address(0) */\n      0xffffffffffffffffffffffffffffffffffffffff\n      and\n        /* \"@openzeppelin/contracts/access/Ownable.sol\":2006:2014  newOwner */\n      dup2\n        /* \"@openzeppelin/contracts/access/Ownable.sol\":2006:2028  newOwner != address(0) */\n      0xffffffffffffffffffffffffffffffffffffffff\n      and\n      eq\n      iszero\n        /* \"@openzeppelin/contracts/access/Ownable.sol\":1998:2071  require(newOwner != address(0), \"Ownable: new owner is the zero address\") */\n      tag_236\n      jumpi\n      mload(0x40)\n      0x08c379a000000000000000000000000000000000000000000000000000000000\n      dup2\n      mstore\n      0x04\n      add\n      tag_237\n      swap1\n      tag_238\n      jump\t// in\n    tag_237:\n      mload(0x40)\n      dup1\n      swap2\n      sub\n      swap1\n      revert\n    tag_236:\n        /* \"@openzeppelin/contracts/access/Ownable.sol\":2081:2109  _transferOwnership(newOwner) */\n      tag_239\n        /* \"@openzeppelin/contracts/access/Ownable.sol\":2100:2108  newOwner */\n      dup2\n        /* \"@openzeppelin/contracts/access/Ownable.sol\":2081:2099  _transferOwnership */\n      tag_145\n        /* \"@openzeppelin/contracts/access/Ownable.sol\":2081:2109  _transferOwnership(newOwner) */\n      jump\t// in\n    tag_239:\n        /* \"@openzeppelin/contracts/access/Ownable.sol\":1918:2116  function transferOwnership(address newOwner) public virtual onlyOwner {... */\n      pop\n      jump\t// out\n        /* \"contracts/KYCManager.sol\":2151:2337  function updateAccumulatorPublicKey(string memory _n, uint _g) public {... */\n    tag_108:\n        /* \"contracts/KYCManager.sol\":2229:2254  UserData storage userdata */\n      0x00\n        /* \"contracts/KYCManager.sol\":2257:2274  ManagerToUserData */\n      0x03\n        /* \"contracts/KYCManager.sol\":2257:2286  ManagerToUserData[msg.sender] */\n      0x00\n        /* \"contracts/KYCManager.sol\":2275:2285  msg.sender */\n      caller\n        /* \"contracts/KYCManager.sol\":2257:2286  ManagerToUserData[msg.sender] */\n      0xffffffffffffffffffffffffffffffffffffffff\n      and\n      0xffffffffffffffffffffffffffffffffffffffff\n      and\n      dup2\n      mstore\n      0x20\n      add\n      swap1\n      dup2\n      mstore\n      0x20\n      add\n      0x00\n      keccak256\n        /* \"contracts/KYCManager.sol\":2229:2286  UserData storage userdata = ManagerToUserData[msg.sender] */\n      swap1\n      pop\n        /* \"contracts/KYCManager.sol\":2307:2309  _n */\n      dup3\n        /* \"contracts/KYCManager.sol\":2294:2302  userdata */\n      dup2\n        /* \"contracts/KYCManager.sol\":2294:2304  userdata.n */\n      0x02\n      add\n        /* \"contracts/KYCManager.sol\":2294:2309  userdata.n = _n */\n      swap1\n      dup1\n      mload\n      swap1\n      0x20\n      add\n      swap1\n      tag_241\n      swap3\n      swap2\n      swap1\n      tag_127\n      jump\t// in\n    tag_241:\n      pop\n        /* \"contracts/KYCManager.sol\":2330:2332  _g */\n      dup2\n        /* \"contracts/KYCManager.sol\":2317:2325  userdata */\n      dup2\n        /* \"contracts/KYCManager.sol\":2317:2327  userdata.g */\n      0x03\n      add\n        /* \"contracts/KYCManager.sol\":2317:2332  userdata.g = _g */\n      dup2\n      swap1\n      sstore\n      pop\n        /* \"contracts/KYCManager.sol\":2221:2337  {... */\n      pop\n        /* \"contracts/KYCManager.sol\":2151:2337  function updateAccumulatorPublicKey(string memory _n, uint _g) public {... */\n      pop\n      pop\n      jump\t// out\n        /* \"contracts/KYCManager.sol\":752:896  function setKYCNFTContractAddress(address _kycnftContractAddr) public onlyOwner {... */\n    tag_112:\n        /* \"@openzeppelin/contracts/access/Ownable.sol\":1259:1271  _msgSender() */\n      tag_243\n        /* \"@openzeppelin/contracts/access/Ownable.sol\":1259:1269  _msgSender */\n      tag_131\n        /* \"@openzeppelin/contracts/access/Ownable.sol\":1259:1271  _msgSender() */\n      jump\t// in\n    tag_243:\n        /* \"@openzeppelin/contracts/access/Ownable.sol\":1248:1271  owner() == _msgSender() */\n      0xffffffffffffffffffffffffffffffffffffffff\n      and\n        /* \"@openzeppelin/contracts/access/Ownable.sol\":1248:1255  owner() */\n      tag_244\n        /* \"@openzeppelin/contracts/access/Ownable.sol\":1248:1253  owner */\n      tag_60\n        /* \"@openzeppelin/contracts/access/Ownable.sol\":1248:1255  owner() */\n      jump\t// in\n    tag_244:\n        /* \"@openzeppelin/contracts/access/Ownable.sol\":1248:1271  owner() == _msgSender() */\n      0xffffffffffffffffffffffffffffffffffffffff\n      and\n      eq\n        /* \"@openzeppelin/contracts/access/Ownable.sol\":1240:1308  require(owner() == _msgSender(), \"Ownable: caller is not the owner\") */\n      tag_245\n      jumpi\n      mload(0x40)\n      0x08c379a000000000000000000000000000000000000000000000000000000000\n      dup2\n      mstore\n      0x04\n      add\n      tag_246\n      swap1\n      tag_135\n      jump\t// in\n    tag_246:\n      mload(0x40)\n      dup1\n      swap2\n      sub\n      swap1\n      revert\n    tag_245:\n        /* \"contracts/KYCManager.sol\":871:890  _kycnftContractAddr */\n      dup1\n        /* \"contracts/KYCManager.sol\":838:852  kycNFTContract */\n      0x01\n      0x00\n        /* \"contracts/KYCManager.sol\":838:891  kycNFTContract = KYCNFTInterface(_kycnftContractAddr) */\n      0x0100\n      exp\n      dup2\n      sload\n      dup2\n      0xffffffffffffffffffffffffffffffffffffffff\n      mul\n      not\n      and\n      swap1\n      dup4\n      0xffffffffffffffffffffffffffffffffffffffff\n      and\n      mul\n      or\n      swap1\n      sstore\n      pop\n        /* \"contracts/KYCManager.sol\":752:896  function setKYCNFTContractAddress(address _kycnftContractAddr) public onlyOwner {... */\n      pop\n      jump\t// out\n        /* \"@openzeppelin/contracts/utils/Context.sol\":640:736  function _msgSender() internal view virtual returns (address) {... */\n    tag_131:\n        /* \"@openzeppelin/contracts/utils/Context.sol\":693:700  address */\n      0x00\n        /* \"@openzeppelin/contracts/utils/Context.sol\":719:729  msg.sender */\n      caller\n        /* \"@openzeppelin/contracts/utils/Context.sol\":712:729  return msg.sender */\n      swap1\n      pop\n        /* \"@openzeppelin/contracts/utils/Context.sol\":640:736  function _msgSender() internal view virtual returns (address) {... */\n      swap1\n      jump\t// out\n        /* \"@openzeppelin/contracts/access/Ownable.sol\":2270:2457  function _transferOwnership(address newOwner) internal virtual {... */\n    tag_145:\n        /* \"@openzeppelin/contracts/access/Ownable.sol\":2343:2359  address oldOwner */\n      0x00\n        /* \"@openzeppelin/contracts/access/Ownable.sol\":2362:2368  _owner */\n      dup1\n      0x00\n      swap1\n      sload\n      swap1\n      0x0100\n      exp\n      swap1\n      div\n      0xffffffffffffffffffffffffffffffffffffffff\n      and\n        /* \"@openzeppelin/contracts/access/Ownable.sol\":2343:2368  address oldOwner = _owner */\n      swap1\n      pop\n        /* \"@openzeppelin/contracts/access/Ownable.sol\":2387:2395  newOwner */\n      dup2\n        /* \"@openzeppelin/contracts/access/Ownable.sol\":2378:2384  _owner */\n      0x00\n      dup1\n        /* \"@openzeppelin/contracts/access/Ownable.sol\":2378:2395  _owner = newOwner */\n      0x0100\n      exp\n      dup2\n      sload\n      dup2\n      0xffffffffffffffffffffffffffffffffffffffff\n      mul\n      not\n      and\n      swap1\n      dup4\n      0xffffffffffffffffffffffffffffffffffffffff\n      and\n      mul\n      or\n      swap1\n      sstore\n      pop\n        /* \"@openzeppelin/contracts/access/Ownable.sol\":2441:2449  newOwner */\n      dup2\n        /* \"@openzeppelin/contracts/access/Ownable.sol\":2410:2450  OwnershipTransferred(oldOwner, newOwner) */\n      0xffffffffffffffffffffffffffffffffffffffff\n      and\n        /* \"@openzeppelin/contracts/access/Ownable.sol\":2431:2439  oldOwner */\n      dup2\n        /* \"@openzeppelin/contracts/access/Ownable.sol\":2410:2450  OwnershipTransferred(oldOwner, newOwner) */\n      0xffffffffffffffffffffffffffffffffffffffff\n      and\n      0x8be0079c531659141344cd1fd0a4f28419497f9722a3daafe3b4186f6b6457e0\n      mload(0x40)\n      mload(0x40)\n      dup1\n      swap2\n      sub\n      swap1\n      log3\n        /* \"@openzeppelin/contracts/access/Ownable.sol\":2333:2457  {... */\n      pop\n        /* \"@openzeppelin/contracts/access/Ownable.sol\":2270:2457  function _transferOwnership(address newOwner) internal virtual {... */\n      pop\n      jump\t// out\n    tag_127:\n      dup3\n      dup1\n      sload\n      tag_250\n      swap1\n      tag_116\n      jump\t// in\n    tag_250:\n      swap1\n      0x00\n      mstore\n      keccak256(0x00, 0x20)\n      swap1\n      0x1f\n      add\n      0x20\n      swap1\n      div\n      dup2\n      add\n      swap3\n      dup3\n      tag_252\n      jumpi\n      0x00\n      dup6\n      sstore\n      jump(tag_251)\n    tag_252:\n      dup3\n      0x1f\n      lt\n      tag_253\n      jumpi\n      dup1\n      mload\n      not(0xff)\n      and\n      dup4\n      dup1\n      add\n      or\n      dup6\n      sstore\n      jump(tag_251)\n    tag_253:\n      dup3\n      dup1\n      add\n      0x01\n      add\n      dup6\n      sstore\n      dup3\n      iszero\n      tag_251\n      jumpi\n      swap2\n      dup3\n      add\n    tag_254:\n      dup3\n      dup2\n      gt\n      iszero\n      tag_255\n      jumpi\n      dup3\n      mload\n      dup3\n      sstore\n      swap2\n      0x20\n      add\n      swap2\n      swap1\n      0x01\n      add\n      swap1\n      jump(tag_254)\n    tag_255:\n    tag_251:\n      pop\n      swap1\n      pop\n      tag_256\n      swap2\n      swap1\n      tag_257\n      jump\t// in\n    tag_256:\n      pop\n      swap1\n      jump\t// out\n    tag_154:\n      mload(0x40)\n      dup1\n      0x80\n      add\n      0x40\n      mstore\n      dup1\n      0x00\n      dup2\n      mstore\n      0x20\n      add\n      0x60\n      dup2\n      mstore\n      0x20\n      add\n      0x60\n      dup2\n      mstore\n      0x20\n      add\n      0x00\n      dup2\n      mstore\n      pop\n      swap1\n      jump\t// out\n    tag_257:\n    tag_258:\n      dup1\n      dup3\n      gt\n      iszero\n      tag_259\n      jumpi\n      0x00\n      dup2\n      0x00\n      swap1\n      sstore\n      pop\n      0x01\n      add\n      jump(tag_258)\n    tag_259:\n      pop\n      swap1\n      jump\t// out\n        /* \"#utility.yul\":7:419   */\n    tag_261:\n        /* \"#utility.yul\":85:90   */\n      0x00\n        /* \"#utility.yul\":110:176   */\n      tag_263\n        /* \"#utility.yul\":126:175   */\n      tag_264\n        /* \"#utility.yul\":168:174   */\n      dup5\n        /* \"#utility.yul\":126:175   */\n      tag_265\n      jump\t// in\n    tag_264:\n        /* \"#utility.yul\":110:176   */\n      tag_266\n      jump\t// in\n    tag_263:\n        /* \"#utility.yul\":101:176   */\n      swap1\n      pop\n        /* \"#utility.yul\":199:205   */\n      dup3\n        /* \"#utility.yul\":192:197   */\n      dup2\n        /* \"#utility.yul\":185:206   */\n      mstore\n        /* \"#utility.yul\":237:241   */\n      0x20\n        /* \"#utility.yul\":230:235   */\n      dup2\n        /* \"#utility.yul\":226:242   */\n      add\n        /* \"#utility.yul\":275:278   */\n      dup5\n        /* \"#utility.yul\":266:272   */\n      dup5\n        /* \"#utility.yul\":261:264   */\n      dup5\n        /* \"#utility.yul\":257:273   */\n      add\n        /* \"#utility.yul\":254:279   */\n      gt\n        /* \"#utility.yul\":251:363   */\n      iszero\n      tag_267\n      jumpi\n        /* \"#utility.yul\":282:361   */\n      tag_268\n      tag_269\n      jump\t// in\n    tag_268:\n        /* \"#utility.yul\":251:363   */\n    tag_267:\n        /* \"#utility.yul\":372:413   */\n      tag_270\n        /* \"#utility.yul\":406:412   */\n      dup5\n        /* \"#utility.yul\":401:404   */\n      dup3\n        /* \"#utility.yul\":396:399   */\n      dup6\n        /* \"#utility.yul\":372:413   */\n      tag_271\n      jump\t// in\n    tag_270:\n        /* \"#utility.yul\":91:419   */\n      pop\n        /* \"#utility.yul\":7:419   */\n      swap4\n      swap3\n      pop\n      pop\n      pop\n      jump\t// out\n        /* \"#utility.yul\":425:564   */\n    tag_272:\n        /* \"#utility.yul\":471:476   */\n      0x00\n        /* \"#utility.yul\":509:515   */\n      dup2\n        /* \"#utility.yul\":496:516   */\n      calldataload\n        /* \"#utility.yul\":487:516   */\n      swap1\n      pop\n        /* \"#utility.yul\":525:558   */\n      tag_274\n        /* \"#utility.yul\":552:557   */\n      dup2\n        /* \"#utility.yul\":525:558   */\n      tag_275\n      jump\t// in\n    tag_274:\n        /* \"#utility.yul\":425:564   */\n      swap3\n      swap2\n      pop\n      pop\n      jump\t// out\n        /* \"#utility.yul\":587:1155   */\n    tag_276:\n        /* \"#utility.yul\":660:668   */\n      0x00\n        /* \"#utility.yul\":670:676   */\n      dup1\n        /* \"#utility.yul\":720:723   */\n      dup4\n        /* \"#utility.yul\":713:717   */\n      0x1f\n        /* \"#utility.yul\":705:711   */\n      dup5\n        /* \"#utility.yul\":701:718   */\n      add\n        /* \"#utility.yul\":697:724   */\n      slt\n        /* \"#utility.yul\":687:809   */\n      tag_278\n      jumpi\n        /* \"#utility.yul\":728:807   */\n      tag_279\n      tag_280\n      jump\t// in\n    tag_279:\n        /* \"#utility.yul\":687:809   */\n    tag_278:\n        /* \"#utility.yul\":841:847   */\n      dup3\n        /* \"#utility.yul\":828:848   */\n      calldataload\n        /* \"#utility.yul\":818:848   */\n      swap1\n      pop\n        /* \"#utility.yul\":871:889   */\n      0xffffffffffffffff\n        /* \"#utility.yul\":863:869   */\n      dup2\n        /* \"#utility.yul\":860:890   */\n      gt\n        /* \"#utility.yul\":857:974   */\n      iszero\n      tag_281\n      jumpi\n        /* \"#utility.yul\":893:972   */\n      tag_282\n      tag_283\n      jump\t// in\n    tag_282:\n        /* \"#utility.yul\":857:974   */\n    tag_281:\n        /* \"#utility.yul\":1007:1011   */\n      0x20\n        /* \"#utility.yul\":999:1005   */\n      dup4\n        /* \"#utility.yul\":995:1012   */\n      add\n        /* \"#utility.yul\":983:1012   */\n      swap2\n      pop\n        /* \"#utility.yul\":1061:1064   */\n      dup4\n        /* \"#utility.yul\":1053:1057   */\n      0x20\n        /* \"#utility.yul\":1045:1051   */\n      dup3\n        /* \"#utility.yul\":1041:1058   */\n      mul\n        /* \"#utility.yul\":1031:1039   */\n      dup4\n        /* \"#utility.yul\":1027:1059   */\n      add\n        /* \"#utility.yul\":1024:1065   */\n      gt\n        /* \"#utility.yul\":1021:1149   */\n      iszero\n      tag_284\n      jumpi\n        /* \"#utility.yul\":1068:1147   */\n      tag_285\n      tag_286\n      jump\t// in\n    tag_285:\n        /* \"#utility.yul\":1021:1149   */\n    tag_284:\n        /* \"#utility.yul\":587:1155   */\n      swap3\n      pop\n      swap3\n      swap1\n      pop\n      jump\t// out\n        /* \"#utility.yul\":1178:1746   */\n    tag_287:\n        /* \"#utility.yul\":1251:1259   */\n      0x00\n        /* \"#utility.yul\":1261:1267   */\n      dup1\n        /* \"#utility.yul\":1311:1314   */\n      dup4\n        /* \"#utility.yul\":1304:1308   */\n      0x1f\n        /* \"#utility.yul\":1296:1302   */\n      dup5\n        /* \"#utility.yul\":1292:1309   */\n      add\n        /* \"#utility.yul\":1288:1315   */\n      slt\n        /* \"#utility.yul\":1278:1400   */\n      tag_289\n      jumpi\n        /* \"#utility.yul\":1319:1398   */\n      tag_290\n      tag_280\n      jump\t// in\n    tag_290:\n        /* \"#utility.yul\":1278:1400   */\n    tag_289:\n        /* \"#utility.yul\":1432:1438   */\n      dup3\n        /* \"#utility.yul\":1419:1439   */\n      calldataload\n        /* \"#utility.yul\":1409:1439   */\n      swap1\n      pop\n        /* \"#utility.yul\":1462:1480   */\n      0xffffffffffffffff\n        /* \"#utility.yul\":1454:1460   */\n      dup2\n        /* \"#utility.yul\":1451:1481   */\n      gt\n        /* \"#utility.yul\":1448:1565   */\n      iszero\n      tag_291\n      jumpi\n        /* \"#utility.yul\":1484:1563   */\n      tag_292\n      tag_283\n      jump\t// in\n    tag_292:\n        /* \"#utility.yul\":1448:1565   */\n    tag_291:\n        /* \"#utility.yul\":1598:1602   */\n      0x20\n        /* \"#utility.yul\":1590:1596   */\n      dup4\n        /* \"#utility.yul\":1586:1603   */\n      add\n        /* \"#utility.yul\":1574:1603   */\n      swap2\n      pop\n        /* \"#utility.yul\":1652:1655   */\n      dup4\n        /* \"#utility.yul\":1644:1648   */\n      0x20\n        /* \"#utility.yul\":1636:1642   */\n      dup3\n        /* \"#utility.yul\":1632:1649   */\n      mul\n        /* \"#utility.yul\":1622:1630   */\n      dup4\n        /* \"#utility.yul\":1618:1650   */\n      add\n        /* \"#utility.yul\":1615:1656   */\n      gt\n        /* \"#utility.yul\":1612:1740   */\n      iszero\n      tag_293\n      jumpi\n        /* \"#utility.yul\":1659:1738   */\n      tag_294\n      tag_286\n      jump\t// in\n    tag_294:\n        /* \"#utility.yul\":1612:1740   */\n    tag_293:\n        /* \"#utility.yul\":1178:1746   */\n      swap3\n      pop\n      swap3\n      swap1\n      pop\n      jump\t// out\n        /* \"#utility.yul\":1752:1885   */\n    tag_295:\n        /* \"#utility.yul\":1795:1800   */\n      0x00\n        /* \"#utility.yul\":1833:1839   */\n      dup2\n        /* \"#utility.yul\":1820:1840   */\n      calldataload\n        /* \"#utility.yul\":1811:1840   */\n      swap1\n      pop\n        /* \"#utility.yul\":1849:1879   */\n      tag_297\n        /* \"#utility.yul\":1873:1878   */\n      dup2\n        /* \"#utility.yul\":1849:1879   */\n      tag_298\n      jump\t// in\n    tag_297:\n        /* \"#utility.yul\":1752:1885   */\n      swap3\n      swap2\n      pop\n      pop\n      jump\t// out\n        /* \"#utility.yul\":1891:2030   */\n    tag_299:\n        /* \"#utility.yul\":1937:1942   */\n      0x00\n        /* \"#utility.yul\":1975:1981   */\n      dup2\n        /* \"#utility.yul\":1962:1982   */\n      calldataload\n        /* \"#utility.yul\":1953:1982   */\n      swap1\n      pop\n        /* \"#utility.yul\":1991:2024   */\n      tag_301\n        /* \"#utility.yul\":2018:2023   */\n      dup2\n        /* \"#utility.yul\":1991:2024   */\n      tag_302\n      jump\t// in\n    tag_301:\n        /* \"#utility.yul\":1891:2030   */\n      swap3\n      swap2\n      pop\n      pop\n      jump\t// out\n        /* \"#utility.yul\":2050:2390   */\n    tag_303:\n        /* \"#utility.yul\":2106:2111   */\n      0x00\n        /* \"#utility.yul\":2155:2158   */\n      dup3\n        /* \"#utility.yul\":2148:2152   */\n      0x1f\n        /* \"#utility.yul\":2140:2146   */\n      dup4\n        /* \"#utility.yul\":2136:2153   */\n      add\n        /* \"#utility.yul\":2132:2159   */\n      slt\n        /* \"#utility.yul\":2122:2244   */\n      tag_305\n      jumpi\n        /* \"#utility.yul\":2163:2242   */\n      tag_306\n      tag_280\n      jump\t// in\n    tag_306:\n        /* \"#utility.yul\":2122:2244   */\n    tag_305:\n        /* \"#utility.yul\":2280:2286   */\n      dup2\n        /* \"#utility.yul\":2267:2287   */\n      calldataload\n        /* \"#utility.yul\":2305:2384   */\n      tag_307\n        /* \"#utility.yul\":2380:2383   */\n      dup5\n        /* \"#utility.yul\":2372:2378   */\n      dup3\n        /* \"#utility.yul\":2365:2369   */\n      0x20\n        /* \"#utility.yul\":2357:2363   */\n      dup7\n        /* \"#utility.yul\":2353:2370   */\n      add\n        /* \"#utility.yul\":2305:2384   */\n      tag_261\n      jump\t// in\n    tag_307:\n        /* \"#utility.yul\":2296:2384   */\n      swap2\n      pop\n        /* \"#utility.yul\":2112:2390   */\n      pop\n        /* \"#utility.yul\":2050:2390   */\n      swap3\n      swap2\n      pop\n      pop\n      jump\t// out\n        /* \"#utility.yul\":2396:2535   */\n    tag_308:\n        /* \"#utility.yul\":2442:2447   */\n      0x00\n        /* \"#utility.yul\":2480:2486   */\n      dup2\n        /* \"#utility.yul\":2467:2487   */\n      calldataload\n        /* \"#utility.yul\":2458:2487   */\n      swap1\n      pop\n        /* \"#utility.yul\":2496:2529   */\n      tag_310\n        /* \"#utility.yul\":2523:2528   */\n      dup2\n        /* \"#utility.yul\":2496:2529   */\n      tag_311\n      jump\t// in\n    tag_310:\n        /* \"#utility.yul\":2396:2535   */\n      swap3\n      swap2\n      pop\n      pop\n      jump\t// out\n        /* \"#utility.yul\":2541:2684   */\n    tag_312:\n        /* \"#utility.yul\":2598:2603   */\n      0x00\n        /* \"#utility.yul\":2629:2635   */\n      dup2\n        /* \"#utility.yul\":2623:2636   */\n      mload\n        /* \"#utility.yul\":2614:2636   */\n      swap1\n      pop\n        /* \"#utility.yul\":2645:2678   */\n      tag_314\n        /* \"#utility.yul\":2672:2677   */\n      dup2\n        /* \"#utility.yul\":2645:2678   */\n      tag_311\n      jump\t// in\n    tag_314:\n        /* \"#utility.yul\":2541:2684   */\n      swap3\n      swap2\n      pop\n      pop\n      jump\t// out\n        /* \"#utility.yul\":2690:3019   */\n    tag_37:\n        /* \"#utility.yul\":2749:2755   */\n      0x00\n        /* \"#utility.yul\":2798:2800   */\n      0x20\n        /* \"#utility.yul\":2786:2795   */\n      dup3\n        /* \"#utility.yul\":2777:2784   */\n      dup5\n        /* \"#utility.yul\":2773:2796   */\n      sub\n        /* \"#utility.yul\":2769:2801   */\n      slt\n        /* \"#utility.yul\":2766:2885   */\n      iszero\n      tag_316\n      jumpi\n        /* \"#utility.yul\":2804:2883   */\n      tag_317\n      tag_318\n      jump\t// in\n    tag_317:\n        /* \"#utility.yul\":2766:2885   */\n    tag_316:\n        /* \"#utility.yul\":2924:2925   */\n      0x00\n        /* \"#utility.yul\":2949:3002   */\n      tag_319\n        /* \"#utility.yul\":2994:3001   */\n      dup5\n        /* \"#utility.yul\":2985:2991   */\n      dup3\n        /* \"#utility.yul\":2974:2983   */\n      dup6\n        /* \"#utility.yul\":2970:2992   */\n      add\n        /* \"#utility.yul\":2949:3002   */\n      tag_272\n      jump\t// in\n    tag_319:\n        /* \"#utility.yul\":2939:3002   */\n      swap2\n      pop\n        /* \"#utility.yul\":2895:3012   */\n      pop\n        /* \"#utility.yul\":2690:3019   */\n      swap3\n      swap2\n      pop\n      pop\n      jump\t// out\n        /* \"#utility.yul\":3025:4250   */\n    tag_71:\n        /* \"#utility.yul\":3165:3171   */\n      0x00\n        /* \"#utility.yul\":3173:3179   */\n      dup1\n        /* \"#utility.yul\":3181:3187   */\n      0x00\n        /* \"#utility.yul\":3189:3195   */\n      dup1\n        /* \"#utility.yul\":3197:3203   */\n      0x00\n        /* \"#utility.yul\":3205:3211   */\n      dup1\n        /* \"#utility.yul\":3254:3257   */\n      0x80\n        /* \"#utility.yul\":3242:3251   */\n      dup8\n        /* \"#utility.yul\":3233:3240   */\n      dup10\n        /* \"#utility.yul\":3229:3252   */\n      sub\n        /* \"#utility.yul\":3225:3258   */\n      slt\n        /* \"#utility.yul\":3222:3342   */\n      iszero\n      tag_321\n      jumpi\n        /* \"#utility.yul\":3261:3340   */\n      tag_322\n      tag_318\n      jump\t// in\n    tag_322:\n        /* \"#utility.yul\":3222:3342   */\n    tag_321:\n        /* \"#utility.yul\":3381:3382   */\n      0x00\n        /* \"#utility.yul\":3406:3459   */\n      tag_323\n        /* \"#utility.yul\":3451:3458   */\n      dup10\n        /* \"#utility.yul\":3442:3448   */\n      dup3\n        /* \"#utility.yul\":3431:3440   */\n      dup11\n        /* \"#utility.yul\":3427:3449   */\n      add\n        /* \"#utility.yul\":3406:3459   */\n      tag_299\n      jump\t// in\n    tag_323:\n        /* \"#utility.yul\":3396:3459   */\n      swap7\n      pop\n        /* \"#utility.yul\":3352:3469   */\n      pop\n        /* \"#utility.yul\":3508:3510   */\n      0x20\n        /* \"#utility.yul\":3534:3587   */\n      tag_324\n        /* \"#utility.yul\":3579:3586   */\n      dup10\n        /* \"#utility.yul\":3570:3576   */\n      dup3\n        /* \"#utility.yul\":3559:3568   */\n      dup11\n        /* \"#utility.yul\":3555:3577   */\n      add\n        /* \"#utility.yul\":3534:3587   */\n      tag_299\n      jump\t// in\n    tag_324:\n        /* \"#utility.yul\":3524:3587   */\n      swap6\n      pop\n        /* \"#utility.yul\":3479:3597   */\n      pop\n        /* \"#utility.yul\":3664:3666   */\n      0x40\n        /* \"#utility.yul\":3653:3662   */\n      dup8\n        /* \"#utility.yul\":3649:3667   */\n      add\n        /* \"#utility.yul\":3636:3668   */\n      calldataload\n        /* \"#utility.yul\":3695:3713   */\n      0xffffffffffffffff\n        /* \"#utility.yul\":3687:3693   */\n      dup2\n        /* \"#utility.yul\":3684:3714   */\n      gt\n        /* \"#utility.yul\":3681:3798   */\n      iszero\n      tag_325\n      jumpi\n        /* \"#utility.yul\":3717:3796   */\n      tag_326\n      tag_327\n      jump\t// in\n    tag_326:\n        /* \"#utility.yul\":3681:3798   */\n    tag_325:\n        /* \"#utility.yul\":3830:3910   */\n      tag_328\n        /* \"#utility.yul\":3902:3909   */\n      dup10\n        /* \"#utility.yul\":3893:3899   */\n      dup3\n        /* \"#utility.yul\":3882:3891   */\n      dup11\n        /* \"#utility.yul\":3878:3900   */\n      add\n        /* \"#utility.yul\":3830:3910   */\n      tag_276\n      jump\t// in\n    tag_328:\n        /* \"#utility.yul\":3812:3910   */\n      swap5\n      pop\n      swap5\n      pop\n        /* \"#utility.yul\":3607:3920   */\n      pop\n        /* \"#utility.yul\":3987:3989   */\n      0x60\n        /* \"#utility.yul\":3976:3985   */\n      dup8\n        /* \"#utility.yul\":3972:3990   */\n      add\n        /* \"#utility.yul\":3959:3991   */\n      calldataload\n        /* \"#utility.yul\":4018:4036   */\n      0xffffffffffffffff\n        /* \"#utility.yul\":4010:4016   */\n      dup2\n        /* \"#utility.yul\":4007:4037   */\n      gt\n        /* \"#utility.yul\":4004:4121   */\n      iszero\n      tag_329\n      jumpi\n        /* \"#utility.yul\":4040:4119   */\n      tag_330\n      tag_327\n      jump\t// in\n    tag_330:\n        /* \"#utility.yul\":4004:4121   */\n    tag_329:\n        /* \"#utility.yul\":4153:4233   */\n      tag_331\n        /* \"#utility.yul\":4225:4232   */\n      dup10\n        /* \"#utility.yul\":4216:4222   */\n      dup3\n        /* \"#utility.yul\":4205:4214   */\n      dup11\n        /* \"#utility.yul\":4201:4223   */\n      add\n        /* \"#utility.yul\":4153:4233   */\n      tag_287\n      jump\t// in\n    tag_331:\n        /* \"#utility.yul\":4135:4233   */\n      swap3\n      pop\n      swap3\n      pop\n        /* \"#utility.yul\":3930:4243   */\n      pop\n        /* \"#utility.yul\":3025:4250   */\n      swap3\n      swap6\n      pop\n      swap3\n      swap6\n      pop\n      swap3\n      swap6\n      jump\t// out\n        /* \"#utility.yul\":4256:4765   */\n    tag_98:\n        /* \"#utility.yul\":4325:4331   */\n      0x00\n        /* \"#utility.yul\":4374:4376   */\n      0x20\n        /* \"#utility.yul\":4362:4371   */\n      dup3\n        /* \"#utility.yul\":4353:4360   */\n      dup5\n        /* \"#utility.yul\":4349:4372   */\n      sub\n        /* \"#utility.yul\":4345:4377   */\n      slt\n        /* \"#utility.yul\":4342:4461   */\n      iszero\n      tag_333\n      jumpi\n        /* \"#utility.yul\":4380:4459   */\n      tag_334\n      tag_318\n      jump\t// in\n    tag_334:\n        /* \"#utility.yul\":4342:4461   */\n    tag_333:\n        /* \"#utility.yul\":4528:4529   */\n      0x00\n        /* \"#utility.yul\":4517:4526   */\n      dup3\n        /* \"#utility.yul\":4513:4530   */\n      add\n        /* \"#utility.yul\":4500:4531   */\n      calldataload\n        /* \"#utility.yul\":4558:4576   */\n      0xffffffffffffffff\n        /* \"#utility.yul\":4550:4556   */\n      dup2\n        /* \"#utility.yul\":4547:4577   */\n      gt\n        /* \"#utility.yul\":4544:4661   */\n      iszero\n      tag_335\n      jumpi\n        /* \"#utility.yul\":4580:4659   */\n      tag_336\n      tag_327\n      jump\t// in\n    tag_336:\n        /* \"#utility.yul\":4544:4661   */\n    tag_335:\n        /* \"#utility.yul\":4685:4748   */\n      tag_337\n        /* \"#utility.yul\":4740:4747   */\n      dup5\n        /* \"#utility.yul\":4731:4737   */\n      dup3\n        /* \"#utility.yul\":4720:4729   */\n      dup6\n        /* \"#utility.yul\":4716:4738   */\n      add\n        /* \"#utility.yul\":4685:4748   */\n      tag_303\n      jump\t// in\n    tag_337:\n        /* \"#utility.yul\":4675:4748   */\n      swap2\n      pop\n        /* \"#utility.yul\":4471:4758   */\n      pop\n        /* \"#utility.yul\":4256:4765   */\n      swap3\n      swap2\n      pop\n      pop\n      jump\t// out\n        /* \"#utility.yul\":4771:5570   */\n    tag_93:\n        /* \"#utility.yul\":4858:4864   */\n      0x00\n        /* \"#utility.yul\":4866:4872   */\n      dup1\n        /* \"#utility.yul\":4874:4880   */\n      0x00\n        /* \"#utility.yul\":4923:4925   */\n      0x60\n        /* \"#utility.yul\":4911:4920   */\n      dup5\n        /* \"#utility.yul\":4902:4909   */\n      dup7\n        /* \"#utility.yul\":4898:4921   */\n      sub\n        /* \"#utility.yul\":4894:4926   */\n      slt\n        /* \"#utility.yul\":4891:5010   */\n      iszero\n      tag_339\n      jumpi\n        /* \"#utility.yul\":4929:5008   */\n      tag_340\n      tag_318\n      jump\t// in\n    tag_340:\n        /* \"#utility.yul\":4891:5010   */\n    tag_339:\n        /* \"#utility.yul\":5077:5078   */\n      0x00\n        /* \"#utility.yul\":5066:5075   */\n      dup5\n        /* \"#utility.yul\":5062:5079   */\n      add\n        /* \"#utility.yul\":5049:5080   */\n      calldataload\n        /* \"#utility.yul\":5107:5125   */\n      0xffffffffffffffff\n        /* \"#utility.yul\":5099:5105   */\n      dup2\n        /* \"#utility.yul\":5096:5126   */\n      gt\n        /* \"#utility.yul\":5093:5210   */\n      iszero\n      tag_341\n      jumpi\n        /* \"#utility.yul\":5129:5208   */\n      tag_342\n      tag_327\n      jump\t// in\n    tag_342:\n        /* \"#utility.yul\":5093:5210   */\n    tag_341:\n        /* \"#utility.yul\":5234:5297   */\n      tag_343\n        /* \"#utility.yul\":5289:5296   */\n      dup7\n        /* \"#utility.yul\":5280:5286   */\n      dup3\n        /* \"#utility.yul\":5269:5278   */\n      dup8\n        /* \"#utility.yul\":5265:5287   */\n      add\n        /* \"#utility.yul\":5234:5297   */\n      tag_303\n      jump\t// in\n    tag_343:\n        /* \"#utility.yul\":5224:5297   */\n      swap4\n      pop\n        /* \"#utility.yul\":5020:5307   */\n      pop\n        /* \"#utility.yul\":5346:5348   */\n      0x20\n        /* \"#utility.yul\":5372:5425   */\n      tag_344\n        /* \"#utility.yul\":5417:5424   */\n      dup7\n        /* \"#utility.yul\":5408:5414   */\n      dup3\n        /* \"#utility.yul\":5397:5406   */\n      dup8\n        /* \"#utility.yul\":5393:5415   */\n      add\n        /* \"#utility.yul\":5372:5425   */\n      tag_272\n      jump\t// in\n    tag_344:\n        /* \"#utility.yul\":5362:5425   */\n      swap3\n      pop\n        /* \"#utility.yul\":5317:5435   */\n      pop\n        /* \"#utility.yul\":5474:5476   */\n      0x40\n        /* \"#utility.yul\":5500:5553   */\n      tag_345\n        /* \"#utility.yul\":5545:5552   */\n      dup7\n        /* \"#utility.yul\":5536:5542   */\n      dup3\n        /* \"#utility.yul\":5525:5534   */\n      dup8\n        /* \"#utility.yul\":5521:5543   */\n      add\n        /* \"#utility.yul\":5500:5553   */\n      tag_308\n      jump\t// in\n    tag_345:\n        /* \"#utility.yul\":5490:5553   */\n      swap2\n      pop\n        /* \"#utility.yul\":5445:5563   */\n      pop\n        /* \"#utility.yul\":4771:5570   */\n      swap3\n      pop\n      swap3\n      pop\n      swap3\n      jump\t// out\n        /* \"#utility.yul\":5576:6555   */\n    tag_88:\n        /* \"#utility.yul\":5673:5679   */\n      0x00\n        /* \"#utility.yul\":5681:5687   */\n      dup1\n        /* \"#utility.yul\":5689:5695   */\n      0x00\n        /* \"#utility.yul\":5738:5740   */\n      0x60\n        /* \"#utility.yul\":5726:5735   */\n      dup5\n        /* \"#utility.yul\":5717:5724   */\n      dup7\n        /* \"#utility.yul\":5713:5736   */\n      sub\n        /* \"#utility.yul\":5709:5741   */\n      slt\n        /* \"#utility.yul\":5706:5825   */\n      iszero\n      tag_347\n      jumpi\n        /* \"#utility.yul\":5744:5823   */\n      tag_348\n      tag_318\n      jump\t// in\n    tag_348:\n        /* \"#utility.yul\":5706:5825   */\n    tag_347:\n        /* \"#utility.yul\":5892:5893   */\n      0x00\n        /* \"#utility.yul\":5881:5890   */\n      dup5\n        /* \"#utility.yul\":5877:5894   */\n      add\n        /* \"#utility.yul\":5864:5895   */\n      calldataload\n        /* \"#utility.yul\":5922:5940   */\n      0xffffffffffffffff\n        /* \"#utility.yul\":5914:5920   */\n      dup2\n        /* \"#utility.yul\":5911:5941   */\n      gt\n        /* \"#utility.yul\":5908:6025   */\n      iszero\n      tag_349\n      jumpi\n        /* \"#utility.yul\":5944:6023   */\n      tag_350\n      tag_327\n      jump\t// in\n    tag_350:\n        /* \"#utility.yul\":5908:6025   */\n    tag_349:\n        /* \"#utility.yul\":6049:6112   */\n      tag_351\n        /* \"#utility.yul\":6104:6111   */\n      dup7\n        /* \"#utility.yul\":6095:6101   */\n      dup3\n        /* \"#utility.yul\":6084:6093   */\n      dup8\n        /* \"#utility.yul\":6080:6102   */\n      add\n        /* \"#utility.yul\":6049:6112   */\n      tag_303\n      jump\t// in\n    tag_351:\n        /* \"#utility.yul\":6039:6112   */\n      swap4\n      pop\n        /* \"#utility.yul\":5835:6122   */\n      pop\n        /* \"#utility.yul\":6189:6191   */\n      0x20\n        /* \"#utility.yul\":6178:6187   */\n      dup5\n        /* \"#utility.yul\":6174:6192   */\n      add\n        /* \"#utility.yul\":6161:6193   */\n      calldataload\n        /* \"#utility.yul\":6220:6238   */\n      0xffffffffffffffff\n        /* \"#utility.yul\":6212:6218   */\n      dup2\n        /* \"#utility.yul\":6209:6239   */\n      gt\n        /* \"#utility.yul\":6206:6323   */\n      iszero\n      tag_352\n      jumpi\n        /* \"#utility.yul\":6242:6321   */\n      tag_353\n      tag_327\n      jump\t// in\n    tag_353:\n        /* \"#utility.yul\":6206:6323   */\n    tag_352:\n        /* \"#utility.yul\":6347:6410   */\n      tag_354\n        /* \"#utility.yul\":6402:6409   */\n      dup7\n        /* \"#utility.yul\":6393:6399   */\n      dup3\n        /* \"#utility.yul\":6382:6391   */\n      dup8\n        /* \"#utility.yul\":6378:6400   */\n      add\n        /* \"#utility.yul\":6347:6410   */\n      tag_303\n      jump\t// in\n    tag_354:\n        /* \"#utility.yul\":6337:6410   */\n      swap3\n      pop\n        /* \"#utility.yul\":6132:6420   */\n      pop\n        /* \"#utility.yul\":6459:6461   */\n      0x40\n        /* \"#utility.yul\":6485:6538   */\n      tag_355\n        /* \"#utility.yul\":6530:6537   */\n      dup7\n        /* \"#utility.yul\":6521:6527   */\n      dup3\n        /* \"#utility.yul\":6510:6519   */\n      dup8\n        /* \"#utility.yul\":6506:6528   */\n      add\n        /* \"#utility.yul\":6485:6538   */\n      tag_308\n      jump\t// in\n    tag_355:\n        /* \"#utility.yul\":6475:6538   */\n      swap2\n      pop\n        /* \"#utility.yul\":6430:6548   */\n      pop\n        /* \"#utility.yul\":5576:6555   */\n      swap3\n      pop\n      swap3\n      pop\n      swap3\n      jump\t// out\n        /* \"#utility.yul\":6561:7215   */\n    tag_107:\n        /* \"#utility.yul\":6639:6645   */\n      0x00\n        /* \"#utility.yul\":6647:6653   */\n      dup1\n        /* \"#utility.yul\":6696:6698   */\n      0x40\n        /* \"#utility.yul\":6684:6693   */\n      dup4\n        /* \"#utility.yul\":6675:6682   */\n      dup6\n        /* \"#utility.yul\":6671:6694   */\n      sub\n        /* \"#utility.yul\":6667:6699   */\n      slt\n        /* \"#utility.yul\":6664:6783   */\n      iszero\n      tag_357\n      jumpi\n        /* \"#utility.yul\":6702:6781   */\n      tag_358\n      tag_318\n      jump\t// in\n    tag_358:\n        /* \"#utility.yul\":6664:6783   */\n    tag_357:\n        /* \"#utility.yul\":6850:6851   */\n      0x00\n        /* \"#utility.yul\":6839:6848   */\n      dup4\n        /* \"#utility.yul\":6835:6852   */\n      add\n        /* \"#utility.yul\":6822:6853   */\n      calldataload\n        /* \"#utility.yul\":6880:6898   */\n      0xffffffffffffffff\n        /* \"#utility.yul\":6872:6878   */\n      dup2\n        /* \"#utility.yul\":6869:6899   */\n      gt\n        /* \"#utility.yul\":6866:6983   */\n      iszero\n      tag_359\n      jumpi\n        /* \"#utility.yul\":6902:6981   */\n      tag_360\n      tag_327\n      jump\t// in\n    tag_360:\n        /* \"#utility.yul\":6866:6983   */\n    tag_359:\n        /* \"#utility.yul\":7007:7070   */\n      tag_361\n        /* \"#utility.yul\":7062:7069   */\n      dup6\n        /* \"#utility.yul\":7053:7059   */\n      dup3\n        /* \"#utility.yul\":7042:7051   */\n      dup7\n        /* \"#utility.yul\":7038:7060   */\n      add\n        /* \"#utility.yul\":7007:7070   */\n      tag_303\n      jump\t// in\n    tag_361:\n        /* \"#utility.yul\":6997:7070   */\n      swap3\n      pop\n        /* \"#utility.yul\":6793:7080   */\n      pop\n        /* \"#utility.yul\":7119:7121   */\n      0x20\n        /* \"#utility.yul\":7145:7198   */\n      tag_362\n        /* \"#utility.yul\":7190:7197   */\n      dup6\n        /* \"#utility.yul\":7181:7187   */\n      dup3\n        /* \"#utility.yul\":7170:7179   */\n      dup7\n        /* \"#utility.yul\":7166:7188   */\n      add\n        /* \"#utility.yul\":7145:7198   */\n      tag_308\n      jump\t// in\n    tag_362:\n        /* \"#utility.yul\":7135:7198   */\n      swap2\n      pop\n        /* \"#utility.yul\":7090:7208   */\n      pop\n        /* \"#utility.yul\":6561:7215   */\n      swap3\n      pop\n      swap3\n      swap1\n      pop\n      jump\t// out\n        /* \"#utility.yul\":7221:7550   */\n    tag_30:\n        /* \"#utility.yul\":7280:7286   */\n      0x00\n        /* \"#utility.yul\":7329:7331   */\n      0x20\n        /* \"#utility.yul\":7317:7326   */\n      dup3\n        /* \"#utility.yul\":7308:7315   */\n      dup5\n        /* \"#utility.yul\":7304:7327   */\n      sub\n        /* \"#utility.yul\":7300:7332   */\n      slt\n        /* \"#utility.yul\":7297:7416   */\n      iszero\n      tag_364\n      jumpi\n        /* \"#utility.yul\":7335:7414   */\n      tag_365\n      tag_318\n      jump\t// in\n    tag_365:\n        /* \"#utility.yul\":7297:7416   */\n    tag_364:\n        /* \"#utility.yul\":7455:7456   */\n      0x00\n        /* \"#utility.yul\":7480:7533   */\n      tag_366\n        /* \"#utility.yul\":7525:7532   */\n      dup5\n        /* \"#utility.yul\":7516:7522   */\n      dup3\n        /* \"#utility.yul\":7505:7514   */\n      dup6\n        /* \"#utility.yul\":7501:7523   */\n      add\n        /* \"#utility.yul\":7480:7533   */\n      tag_308\n      jump\t// in\n    tag_366:\n        /* \"#utility.yul\":7470:7533   */\n      swap2\n      pop\n        /* \"#utility.yul\":7426:7543   */\n      pop\n        /* \"#utility.yul\":7221:7550   */\n      swap3\n      swap2\n      pop\n      pop\n      jump\t// out\n        /* \"#utility.yul\":7556:7907   */\n    tag_220:\n        /* \"#utility.yul\":7626:7632   */\n      0x00\n        /* \"#utility.yul\":7675:7677   */\n      0x20\n        /* \"#utility.yul\":7663:7672   */\n      dup3\n        /* \"#utility.yul\":7654:7661   */\n      dup5\n        /* \"#utility.yul\":7650:7673   */\n      sub\n        /* \"#utility.yul\":7646:7678   */\n      slt\n        /* \"#utility.yul\":7643:7762   */\n      iszero\n      tag_368\n      jumpi\n        /* \"#utility.yul\":7681:7760   */\n      tag_369\n      tag_318\n      jump\t// in\n    tag_369:\n        /* \"#utility.yul\":7643:7762   */\n    tag_368:\n        /* \"#utility.yul\":7801:7802   */\n      0x00\n        /* \"#utility.yul\":7826:7890   */\n      tag_370\n        /* \"#utility.yul\":7882:7889   */\n      dup5\n        /* \"#utility.yul\":7873:7879   */\n      dup3\n        /* \"#utility.yul\":7862:7871   */\n      dup6\n        /* \"#utility.yul\":7858:7880   */\n      add\n        /* \"#utility.yul\":7826:7890   */\n      tag_312\n      jump\t// in\n    tag_370:\n        /* \"#utility.yul\":7816:7890   */\n      swap2\n      pop\n        /* \"#utility.yul\":7772:7900   */\n      pop\n        /* \"#utility.yul\":7556:7907   */\n      swap3\n      swap2\n      pop\n      pop\n      jump\t// out\n        /* \"#utility.yul\":7913:8387   */\n    tag_42:\n        /* \"#utility.yul\":7981:7987   */\n      0x00\n        /* \"#utility.yul\":7989:7995   */\n      dup1\n        /* \"#utility.yul\":8038:8040   */\n      0x40\n        /* \"#utility.yul\":8026:8035   */\n      dup4\n        /* \"#utility.yul\":8017:8024   */\n      dup6\n        /* \"#utility.yul\":8013:8036   */\n      sub\n        /* \"#utility.yul\":8009:8041   */\n      slt\n        /* \"#utility.yul\":8006:8125   */\n      iszero\n      tag_372\n      jumpi\n        /* \"#utility.yul\":8044:8123   */\n      tag_373\n      tag_318\n      jump\t// in\n    tag_373:\n        /* \"#utility.yul\":8006:8125   */\n    tag_372:\n        /* \"#utility.yul\":8164:8165   */\n      0x00\n        /* \"#utility.yul\":8189:8242   */\n      tag_374\n        /* \"#utility.yul\":8234:8241   */\n      dup6\n        /* \"#utility.yul\":8225:8231   */\n      dup3\n        /* \"#utility.yul\":8214:8223   */\n      dup7\n        /* \"#utility.yul\":8210:8232   */\n      add\n        /* \"#utility.yul\":8189:8242   */\n      tag_308\n      jump\t// in\n    tag_374:\n        /* \"#utility.yul\":8179:8242   */\n      swap3\n      pop\n        /* \"#utility.yul\":8135:8252   */\n      pop\n        /* \"#utility.yul\":8291:8293   */\n      0x20\n        /* \"#utility.yul\":8317:8370   */\n      tag_375\n        /* \"#utility.yul\":8362:8369   */\n      dup6\n        /* \"#utility.yul\":8353:8359   */\n      dup3\n        /* \"#utility.yul\":8342:8351   */\n      dup7\n        /* \"#utility.yul\":8338:8360   */\n      add\n        /* \"#utility.yul\":8317:8370   */\n      tag_272\n      jump\t// in\n    tag_375:\n        /* \"#utility.yul\":8307:8370   */\n      swap2\n      pop\n        /* \"#utility.yul\":8262:8380   */\n      pop\n        /* \"#utility.yul\":7913:8387   */\n      swap3\n      pop\n      swap3\n      swap1\n      pop\n      jump\t// out\n        /* \"#utility.yul\":8393:8861   */\n    tag_56:\n        /* \"#utility.yul\":8458:8464   */\n      0x00\n        /* \"#utility.yul\":8466:8472   */\n      dup1\n        /* \"#utility.yul\":8515:8517   */\n      0x40\n        /* \"#utility.yul\":8503:8512   */\n      dup4\n        /* \"#utility.yul\":8494:8501   */\n      dup6\n        /* \"#utility.yul\":8490:8513   */\n      sub\n        /* \"#utility.yul\":8486:8518   */\n      slt\n        /* \"#utility.yul\":8483:8602   */\n      iszero\n      tag_377\n      jumpi\n        /* \"#utility.yul\":8521:8600   */\n      tag_378\n      tag_318\n      jump\t// in\n    tag_378:\n        /* \"#utility.yul\":8483:8602   */\n    tag_377:\n        /* \"#utility.yul\":8641:8642   */\n      0x00\n        /* \"#utility.yul\":8666:8719   */\n      tag_379\n        /* \"#utility.yul\":8711:8718   */\n      dup6\n        /* \"#utility.yul\":8702:8708   */\n      dup3\n        /* \"#utility.yul\":8691:8700   */\n      dup7\n        /* \"#utility.yul\":8687:8709   */\n      add\n        /* \"#utility.yul\":8666:8719   */\n      tag_308\n      jump\t// in\n    tag_379:\n        /* \"#utility.yul\":8656:8719   */\n      swap3\n      pop\n        /* \"#utility.yul\":8612:8729   */\n      pop\n        /* \"#utility.yul\":8768:8770   */\n      0x20\n        /* \"#utility.yul\":8794:8844   */\n      tag_380\n        /* \"#utility.yul\":8836:8843   */\n      dup6\n        /* \"#utility.yul\":8827:8833   */\n      dup3\n        /* \"#utility.yul\":8816:8825   */\n      dup7\n        /* \"#utility.yul\":8812:8834   */\n      add\n        /* \"#utility.yul\":8794:8844   */\n      tag_295\n      jump\t// in\n    tag_380:\n        /* \"#utility.yul\":8784:8844   */\n      swap2\n      pop\n        /* \"#utility.yul\":8739:8854   */\n      pop\n        /* \"#utility.yul\":8393:8861   */\n      swap3\n      pop\n      swap3\n      swap1\n      pop\n      jump\t// out\n        /* \"#utility.yul\":8867:8985   */\n    tag_381:\n        /* \"#utility.yul\":8954:8978   */\n      tag_383\n        /* \"#utility.yul\":8972:8977   */\n      dup2\n        /* \"#utility.yul\":8954:8978   */\n      tag_384\n      jump\t// in\n    tag_383:\n        /* \"#utility.yul\":8949:8952   */\n      dup3\n        /* \"#utility.yul\":8942:8979   */\n      mstore\n        /* \"#utility.yul\":8867:8985   */\n      pop\n      pop\n      jump\t// out\n        /* \"#utility.yul\":8991:9100   */\n    tag_385:\n        /* \"#utility.yul\":9072:9093   */\n      tag_387\n        /* \"#utility.yul\":9087:9092   */\n      dup2\n        /* \"#utility.yul\":9072:9093   */\n      tag_388\n      jump\t// in\n    tag_387:\n        /* \"#utility.yul\":9067:9070   */\n      dup3\n        /* \"#utility.yul\":9060:9094   */\n      mstore\n        /* \"#utility.yul\":8991:9100   */\n      pop\n      pop\n      jump\t// out\n        /* \"#utility.yul\":9106:9263   */\n    tag_389:\n        /* \"#utility.yul\":9211:9256   */\n      tag_391\n        /* \"#utility.yul\":9231:9255   */\n      tag_392\n        /* \"#utility.yul\":9249:9254   */\n      dup3\n        /* \"#utility.yul\":9231:9255   */\n      tag_393\n      jump\t// in\n    tag_392:\n        /* \"#utility.yul\":9211:9256   */\n      tag_394\n      jump\t// in\n    tag_391:\n        /* \"#utility.yul\":9206:9209   */\n      dup3\n        /* \"#utility.yul\":9199:9257   */\n      mstore\n        /* \"#utility.yul\":9106:9263   */\n      pop\n      pop\n      jump\t// out\n        /* \"#utility.yul\":9269:9613   */\n    tag_395:\n        /* \"#utility.yul\":9347:9350   */\n      0x00\n        /* \"#utility.yul\":9375:9414   */\n      tag_397\n        /* \"#utility.yul\":9408:9413   */\n      dup3\n        /* \"#utility.yul\":9375:9414   */\n      tag_398\n      jump\t// in\n    tag_397:\n        /* \"#utility.yul\":9430:9491   */\n      tag_399\n        /* \"#utility.yul\":9484:9490   */\n      dup2\n        /* \"#utility.yul\":9479:9482   */\n      dup6\n        /* \"#utility.yul\":9430:9491   */\n      tag_400\n      jump\t// in\n    tag_399:\n        /* \"#utility.yul\":9423:9491   */\n      swap4\n      pop\n        /* \"#utility.yul\":9500:9552   */\n      tag_401\n        /* \"#utility.yul\":9545:9551   */\n      dup2\n        /* \"#utility.yul\":9540:9543   */\n      dup6\n        /* \"#utility.yul\":9533:9537   */\n      0x20\n        /* \"#utility.yul\":9526:9531   */\n      dup7\n        /* \"#utility.yul\":9522:9538   */\n      add\n        /* \"#utility.yul\":9500:9552   */\n      tag_402\n      jump\t// in\n    tag_401:\n        /* \"#utility.yul\":9577:9606   */\n      tag_403\n        /* \"#utility.yul\":9599:9605   */\n      dup2\n        /* \"#utility.yul\":9577:9606   */\n      tag_404\n      jump\t// in\n    tag_403:\n        /* \"#utility.yul\":9572:9575   */\n      dup5\n        /* \"#utility.yul\":9568:9607   */\n      add\n        /* \"#utility.yul\":9561:9607   */\n      swap2\n      pop\n        /* \"#utility.yul\":9351:9613   */\n      pop\n        /* \"#utility.yul\":9269:9613   */\n      swap3\n      swap2\n      pop\n      pop\n      jump\t// out\n        /* \"#utility.yul\":9619:9983   */\n    tag_405:\n        /* \"#utility.yul\":9707:9710   */\n      0x00\n        /* \"#utility.yul\":9735:9774   */\n      tag_407\n        /* \"#utility.yul\":9768:9773   */\n      dup3\n        /* \"#utility.yul\":9735:9774   */\n      tag_398\n      jump\t// in\n    tag_407:\n        /* \"#utility.yul\":9790:9861   */\n      tag_408\n        /* \"#utility.yul\":9854:9860   */\n      dup2\n        /* \"#utility.yul\":9849:9852   */\n      dup6\n        /* \"#utility.yul\":9790:9861   */\n      tag_409\n      jump\t// in\n    tag_408:\n        /* \"#utility.yul\":9783:9861   */\n      swap4\n      pop\n        /* \"#utility.yul\":9870:9922   */\n      tag_410\n        /* \"#utility.yul\":9915:9921   */\n      dup2\n        /* \"#utility.yul\":9910:9913   */\n      dup6\n        /* \"#utility.yul\":9903:9907   */\n      0x20\n        /* \"#utility.yul\":9896:9901   */\n      dup7\n        /* \"#utility.yul\":9892:9908   */\n      add\n        /* \"#utility.yul\":9870:9922   */\n      tag_402\n      jump\t// in\n    tag_410:\n        /* \"#utility.yul\":9947:9976   */\n      tag_411\n        /* \"#utility.yul\":9969:9975   */\n      dup2\n        /* \"#utility.yul\":9947:9976   */\n      tag_404\n      jump\t// in\n    tag_411:\n        /* \"#utility.yul\":9942:9945   */\n      dup5\n        /* \"#utility.yul\":9938:9977   */\n      add\n        /* \"#utility.yul\":9931:9977   */\n      swap2\n      pop\n        /* \"#utility.yul\":9711:9983   */\n      pop\n        /* \"#utility.yul\":9619:9983   */\n      swap3\n      swap2\n      pop\n      pop\n      jump\t// out\n        /* \"#utility.yul\":9989:10355   */\n    tag_412:\n        /* \"#utility.yul\":10131:10134   */\n      0x00\n        /* \"#utility.yul\":10152:10219   */\n      tag_414\n        /* \"#utility.yul\":10216:10218   */\n      0x26\n        /* \"#utility.yul\":10211:10214   */\n      dup4\n        /* \"#utility.yul\":10152:10219   */\n      tag_409\n      jump\t// in\n    tag_414:\n        /* \"#utility.yul\":10145:10219   */\n      swap2\n      pop\n        /* \"#utility.yul\":10228:10321   */\n      tag_415\n        /* \"#utility.yul\":10317:10320   */\n      dup3\n        /* \"#utility.yul\":10228:10321   */\n      tag_416\n      jump\t// in\n    tag_415:\n        /* \"#utility.yul\":10346:10348   */\n      0x40\n        /* \"#utility.yul\":10341:10344   */\n      dup3\n        /* \"#utility.yul\":10337:10349   */\n      add\n        /* \"#utility.yul\":10330:10349   */\n      swap1\n      pop\n        /* \"#utility.yul\":9989:10355   */\n      swap2\n      swap1\n      pop\n      jump\t// out\n        /* \"#utility.yul\":10361:10727   */\n    tag_417:\n        /* \"#utility.yul\":10503:10506   */\n      0x00\n        /* \"#utility.yul\":10524:10591   */\n      tag_419\n        /* \"#utility.yul\":10588:10590   */\n      0x20\n        /* \"#utility.yul\":10583:10586   */\n      dup4\n        /* \"#utility.yul\":10524:10591   */\n      tag_409\n      jump\t// in\n    tag_419:\n        /* \"#utility.yul\":10517:10591   */\n      swap2\n      pop\n        /* \"#utility.yul\":10600:10693   */\n      tag_420\n        /* \"#utility.yul\":10689:10692   */\n      dup3\n        /* \"#utility.yul\":10600:10693   */\n      tag_421\n      jump\t// in\n    tag_420:\n        /* \"#utility.yul\":10718:10720   */\n      0x20\n        /* \"#utility.yul\":10713:10716   */\n      dup3\n        /* \"#utility.yul\":10709:10721   */\n      add\n        /* \"#utility.yul\":10702:10721   */\n      swap1\n      pop\n        /* \"#utility.yul\":10361:10727   */\n      swap2\n      swap1\n      pop\n      jump\t// out\n        /* \"#utility.yul\":10797:11824   */\n    tag_422:\n        /* \"#utility.yul\":10916:10919   */\n      0x00\n        /* \"#utility.yul\":10952:10956   */\n      0x80\n        /* \"#utility.yul\":10947:10950   */\n      dup4\n        /* \"#utility.yul\":10943:10957   */\n      add\n        /* \"#utility.yul\":11040:11044   */\n      0x00\n        /* \"#utility.yul\":11033:11038   */\n      dup4\n        /* \"#utility.yul\":11029:11045   */\n      add\n        /* \"#utility.yul\":11023:11046   */\n      mload\n        /* \"#utility.yul\":11059:11122   */\n      tag_424\n        /* \"#utility.yul\":11116:11120   */\n      0x00\n        /* \"#utility.yul\":11111:11114   */\n      dup7\n        /* \"#utility.yul\":11107:11121   */\n      add\n        /* \"#utility.yul\":11093:11105   */\n      dup3\n        /* \"#utility.yul\":11059:11122   */\n      tag_425\n      jump\t// in\n    tag_424:\n        /* \"#utility.yul\":10967:11132   */\n      pop\n        /* \"#utility.yul\":11221:11225   */\n      0x20\n        /* \"#utility.yul\":11214:11219   */\n      dup4\n        /* \"#utility.yul\":11210:11226   */\n      add\n        /* \"#utility.yul\":11204:11227   */\n      mload\n        /* \"#utility.yul\":11274:11277   */\n      dup5\n        /* \"#utility.yul\":11268:11272   */\n      dup3\n        /* \"#utility.yul\":11264:11278   */\n      sub\n        /* \"#utility.yul\":11257:11261   */\n      0x20\n        /* \"#utility.yul\":11252:11255   */\n      dup7\n        /* \"#utility.yul\":11248:11262   */\n      add\n        /* \"#utility.yul\":11241:11279   */\n      mstore\n        /* \"#utility.yul\":11300:11373   */\n      tag_426\n        /* \"#utility.yul\":11368:11372   */\n      dup3\n        /* \"#utility.yul\":11354:11366   */\n      dup3\n        /* \"#utility.yul\":11300:11373   */\n      tag_395\n      jump\t// in\n    tag_426:\n        /* \"#utility.yul\":11292:11373   */\n      swap2\n      pop\n        /* \"#utility.yul\":11142:11384   */\n      pop\n        /* \"#utility.yul\":11463:11467   */\n      0x40\n        /* \"#utility.yul\":11456:11461   */\n      dup4\n        /* \"#utility.yul\":11452:11468   */\n      add\n        /* \"#utility.yul\":11446:11469   */\n      mload\n        /* \"#utility.yul\":11516:11519   */\n      dup5\n        /* \"#utility.yul\":11510:11514   */\n      dup3\n        /* \"#utility.yul\":11506:11520   */\n      sub\n        /* \"#utility.yul\":11499:11503   */\n      0x40\n        /* \"#utility.yul\":11494:11497   */\n      dup7\n        /* \"#utility.yul\":11490:11504   */\n      add\n        /* \"#utility.yul\":11483:11521   */\n      mstore\n        /* \"#utility.yul\":11542:11615   */\n      tag_427\n        /* \"#utility.yul\":11610:11614   */\n      dup3\n        /* \"#utility.yul\":11596:11608   */\n      dup3\n        /* \"#utility.yul\":11542:11615   */\n      tag_395\n      jump\t// in\n    tag_427:\n        /* \"#utility.yul\":11534:11615   */\n      swap2\n      pop\n        /* \"#utility.yul\":11394:11626   */\n      pop\n        /* \"#utility.yul\":11705:11709   */\n      0x60\n        /* \"#utility.yul\":11698:11703   */\n      dup4\n        /* \"#utility.yul\":11694:11710   */\n      add\n        /* \"#utility.yul\":11688:11711   */\n      mload\n        /* \"#utility.yul\":11724:11787   */\n      tag_428\n        /* \"#utility.yul\":11781:11785   */\n      0x60\n        /* \"#utility.yul\":11776:11779   */\n      dup7\n        /* \"#utility.yul\":11772:11786   */\n      add\n        /* \"#utility.yul\":11758:11770   */\n      dup3\n        /* \"#utility.yul\":11724:11787   */\n      tag_425\n      jump\t// in\n    tag_428:\n        /* \"#utility.yul\":11636:11797   */\n      pop\n        /* \"#utility.yul\":11814:11818   */\n      dup1\n        /* \"#utility.yul\":11807:11818   */\n      swap2\n      pop\n        /* \"#utility.yul\":10921:11824   */\n      pop\n        /* \"#utility.yul\":10797:11824   */\n      swap3\n      swap2\n      pop\n      pop\n      jump\t// out\n        /* \"#utility.yul\":11830:11938   */\n    tag_425:\n        /* \"#utility.yul\":11907:11931   */\n      tag_430\n        /* \"#utility.yul\":11925:11930   */\n      dup2\n        /* \"#utility.yul\":11907:11931   */\n      tag_431\n      jump\t// in\n    tag_430:\n        /* \"#utility.yul\":11902:11905   */\n      dup3\n        /* \"#utility.yul\":11895:11932   */\n      mstore\n        /* \"#utility.yul\":11830:11938   */\n      pop\n      pop\n      jump\t// out\n        /* \"#utility.yul\":11944:12062   */\n    tag_432:\n        /* \"#utility.yul\":12031:12055   */\n      tag_434\n        /* \"#utility.yul\":12049:12054   */\n      dup2\n        /* \"#utility.yul\":12031:12055   */\n      tag_431\n      jump\t// in\n    tag_434:\n        /* \"#utility.yul\":12026:12029   */\n      dup3\n        /* \"#utility.yul\":12019:12056   */\n      mstore\n        /* \"#utility.yul\":11944:12062   */\n      pop\n      pop\n      jump\t// out\n        /* \"#utility.yul\":12068:12465   */\n    tag_177:\n        /* \"#utility.yul\":12208:12211   */\n      0x00\n        /* \"#utility.yul\":12223:12298   */\n      tag_436\n        /* \"#utility.yul\":12294:12297   */\n      dup3\n        /* \"#utility.yul\":12285:12291   */\n      dup6\n        /* \"#utility.yul\":12223:12298   */\n      tag_389\n      jump\t// in\n    tag_436:\n        /* \"#utility.yul\":12323:12325   */\n      0x20\n        /* \"#utility.yul\":12318:12321   */\n      dup3\n        /* \"#utility.yul\":12314:12326   */\n      add\n        /* \"#utility.yul\":12307:12326   */\n      swap2\n      pop\n        /* \"#utility.yul\":12336:12411   */\n      tag_437\n        /* \"#utility.yul\":12407:12410   */\n      dup3\n        /* \"#utility.yul\":12398:12404   */\n      dup5\n        /* \"#utility.yul\":12336:12411   */\n      tag_389\n      jump\t// in\n    tag_437:\n        /* \"#utility.yul\":12436:12438   */\n      0x20\n        /* \"#utility.yul\":12431:12434   */\n      dup3\n        /* \"#utility.yul\":12427:12439   */\n      add\n        /* \"#utility.yul\":12420:12439   */\n      swap2\n      pop\n        /* \"#utility.yul\":12456:12459   */\n      dup2\n        /* \"#utility.yul\":12449:12459   */\n      swap1\n      pop\n        /* \"#utility.yul\":12068:12465   */\n      swap4\n      swap3\n      pop\n      pop\n      pop\n      jump\t// out\n        /* \"#utility.yul\":12471:12693   */\n    tag_49:\n        /* \"#utility.yul\":12564:12568   */\n      0x00\n        /* \"#utility.yul\":12602:12604   */\n      0x20\n        /* \"#utility.yul\":12591:12600   */\n      dup3\n        /* \"#utility.yul\":12587:12605   */\n      add\n        /* \"#utility.yul\":12579:12605   */\n      swap1\n      pop\n        /* \"#utility.yul\":12615:12686   */\n      tag_439\n        /* \"#utility.yul\":12683:12684   */\n      0x00\n        /* \"#utility.yul\":12672:12681   */\n      dup4\n        /* \"#utility.yul\":12668:12685   */\n      add\n        /* \"#utility.yul\":12659:12665   */\n      dup5\n        /* \"#utility.yul\":12615:12686   */\n      tag_381\n      jump\t// in\n    tag_439:\n        /* \"#utility.yul\":12471:12693   */\n      swap3\n      swap2\n      pop\n      pop\n      jump\t// out\n        /* \"#utility.yul\":12699:13122   */\n    tag_215:\n        /* \"#utility.yul\":12840:12844   */\n      0x00\n        /* \"#utility.yul\":12878:12880   */\n      0x40\n        /* \"#utility.yul\":12867:12876   */\n      dup3\n        /* \"#utility.yul\":12863:12881   */\n      add\n        /* \"#utility.yul\":12855:12881   */\n      swap1\n      pop\n        /* \"#utility.yul\":12891:12962   */\n      tag_441\n        /* \"#utility.yul\":12959:12960   */\n      0x00\n        /* \"#utility.yul\":12948:12957   */\n      dup4\n        /* \"#utility.yul\":12944:12961   */\n      add\n        /* \"#utility.yul\":12935:12941   */\n      dup6\n        /* \"#utility.yul\":12891:12962   */\n      tag_381\n      jump\t// in\n    tag_441:\n        /* \"#utility.yul\":13009:13018   */\n      dup2\n        /* \"#utility.yul\":13003:13007   */\n      dup2\n        /* \"#utility.yul\":12999:13019   */\n      sub\n        /* \"#utility.yul\":12994:12996   */\n      0x20\n        /* \"#utility.yul\":12983:12992   */\n      dup4\n        /* \"#utility.yul\":12979:12997   */\n      add\n        /* \"#utility.yul\":12972:13020   */\n      mstore\n        /* \"#utility.yul\":13037:13115   */\n      tag_442\n        /* \"#utility.yul\":13110:13114   */\n      dup2\n        /* \"#utility.yul\":13101:13107   */\n      dup5\n        /* \"#utility.yul\":13037:13115   */\n      tag_405\n      jump\t// in\n    tag_442:\n        /* \"#utility.yul\":13029:13115   */\n      swap1\n      pop\n        /* \"#utility.yul\":12699:13122   */\n      swap4\n      swap3\n      pop\n      pop\n      pop\n      jump\t// out\n        /* \"#utility.yul\":13128:13338   */\n    tag_33:\n        /* \"#utility.yul\":13215:13219   */\n      0x00\n        /* \"#utility.yul\":13253:13255   */\n      0x20\n        /* \"#utility.yul\":13242:13251   */\n      dup3\n        /* \"#utility.yul\":13238:13256   */\n      add\n        /* \"#utility.yul\":13230:13256   */\n      swap1\n      pop\n        /* \"#utility.yul\":13266:13331   */\n      tag_444\n        /* \"#utility.yul\":13328:13329   */\n      0x00\n        /* \"#utility.yul\":13317:13326   */\n      dup4\n        /* \"#utility.yul\":13313:13330   */\n      add\n        /* \"#utility.yul\":13304:13310   */\n      dup5\n        /* \"#utility.yul\":13266:13331   */\n      tag_385\n      jump\t// in\n    tag_444:\n        /* \"#utility.yul\":13128:13338   */\n      swap3\n      swap2\n      pop\n      pop\n      jump\t// out\n        /* \"#utility.yul\":13344:13763   */\n    tag_238:\n        /* \"#utility.yul\":13510:13514   */\n      0x00\n        /* \"#utility.yul\":13548:13550   */\n      0x20\n        /* \"#utility.yul\":13537:13546   */\n      dup3\n        /* \"#utility.yul\":13533:13551   */\n      add\n        /* \"#utility.yul\":13525:13551   */\n      swap1\n      pop\n        /* \"#utility.yul\":13597:13606   */\n      dup2\n        /* \"#utility.yul\":13591:13595   */\n      dup2\n        /* \"#utility.yul\":13587:13607   */\n      sub\n        /* \"#utility.yul\":13583:13584   */\n      0x00\n        /* \"#utility.yul\":13572:13581   */\n      dup4\n        /* \"#utility.yul\":13568:13585   */\n      add\n        /* \"#utility.yul\":13561:13608   */\n      mstore\n        /* \"#utility.yul\":13625:13756   */\n      tag_446\n        /* \"#utility.yul\":13751:13755   */\n      dup2\n        /* \"#utility.yul\":13625:13756   */\n      tag_412\n      jump\t// in\n    tag_446:\n        /* \"#utility.yul\":13617:13756   */\n      swap1\n      pop\n        /* \"#utility.yul\":13344:13763   */\n      swap2\n      swap1\n      pop\n      jump\t// out\n        /* \"#utility.yul\":13769:14188   */\n    tag_135:\n        /* \"#utility.yul\":13935:13939   */\n      0x00\n        /* \"#utility.yul\":13973:13975   */\n      0x20\n        /* \"#utility.yul\":13962:13971   */\n      dup3\n        /* \"#utility.yul\":13958:13976   */\n      add\n        /* \"#utility.yul\":13950:13976   */\n      swap1\n      pop\n        /* \"#utility.yul\":14022:14031   */\n      dup2\n        /* \"#utility.yul\":14016:14020   */\n      dup2\n        /* \"#utility.yul\":14012:14032   */\n      sub\n        /* \"#utility.yul\":14008:14009   */\n      0x00\n        /* \"#utility.yul\":13997:14006   */\n      dup4\n        /* \"#utility.yul\":13993:14010   */\n      add\n        /* \"#utility.yul\":13986:14033   */\n      mstore\n        /* \"#utility.yul\":14050:14181   */\n      tag_448\n        /* \"#utility.yul\":14176:14180   */\n      dup2\n        /* \"#utility.yul\":14050:14181   */\n      tag_417\n      jump\t// in\n    tag_448:\n        /* \"#utility.yul\":14042:14181   */\n      swap1\n      pop\n        /* \"#utility.yul\":13769:14188   */\n      swap2\n      swap1\n      pop\n      jump\t// out\n        /* \"#utility.yul\":14194:14567   */\n    tag_67:\n        /* \"#utility.yul\":14337:14341   */\n      0x00\n        /* \"#utility.yul\":14375:14377   */\n      0x20\n        /* \"#utility.yul\":14364:14373   */\n      dup3\n        /* \"#utility.yul\":14360:14378   */\n      add\n        /* \"#utility.yul\":14352:14378   */\n      swap1\n      pop\n        /* \"#utility.yul\":14424:14433   */\n      dup2\n        /* \"#utility.yul\":14418:14422   */\n      dup2\n        /* \"#utility.yul\":14414:14434   */\n      sub\n        /* \"#utility.yul\":14410:14411   */\n      0x00\n        /* \"#utility.yul\":14399:14408   */\n      dup4\n        /* \"#utility.yul\":14395:14412   */\n      add\n        /* \"#utility.yul\":14388:14435   */\n      mstore\n        /* \"#utility.yul\":14452:14560   */\n      tag_450\n        /* \"#utility.yul\":14555:14559   */\n      dup2\n        /* \"#utility.yul\":14546:14552   */\n      dup5\n        /* \"#utility.yul\":14452:14560   */\n      tag_422\n      jump\t// in\n    tag_450:\n        /* \"#utility.yul\":14444:14560   */\n      swap1\n      pop\n        /* \"#utility.yul\":14194:14567   */\n      swap3\n      swap2\n      pop\n      pop\n      jump\t// out\n        /* \"#utility.yul\":14573:14795   */\n    tag_84:\n        /* \"#utility.yul\":14666:14670   */\n      0x00\n        /* \"#utility.yul\":14704:14706   */\n      0x20\n        /* \"#utility.yul\":14693:14702   */\n      dup3\n        /* \"#utility.yul\":14689:14707   */\n      add\n        /* \"#utility.yul\":14681:14707   */\n      swap1\n      pop\n        /* \"#utility.yul\":14717:14788   */\n      tag_452\n        /* \"#utility.yul\":14785:14786   */\n      0x00\n        /* \"#utility.yul\":14774:14783   */\n      dup4\n        /* \"#utility.yul\":14770:14787   */\n      add\n        /* \"#utility.yul\":14761:14767   */\n      dup5\n        /* \"#utility.yul\":14717:14788   */\n      tag_432\n      jump\t// in\n    tag_452:\n        /* \"#utility.yul\":14573:14795   */\n      swap3\n      swap2\n      pop\n      pop\n      jump\t// out\n        /* \"#utility.yul\":14801:15133   */\n    tag_222:\n        /* \"#utility.yul\":14922:14926   */\n      0x00\n        /* \"#utility.yul\":14960:14962   */\n      0x40\n        /* \"#utility.yul\":14949:14958   */\n      dup3\n        /* \"#utility.yul\":14945:14963   */\n      add\n        /* \"#utility.yul\":14937:14963   */\n      swap1\n      pop\n        /* \"#utility.yul\":14973:15044   */\n      tag_454\n        /* \"#utility.yul\":15041:15042   */\n      0x00\n        /* \"#utility.yul\":15030:15039   */\n      dup4\n        /* \"#utility.yul\":15026:15043   */\n      add\n        /* \"#utility.yul\":15017:15023   */\n      dup6\n        /* \"#utility.yul\":14973:15044   */\n      tag_432\n      jump\t// in\n    tag_454:\n        /* \"#utility.yul\":15054:15126   */\n      tag_455\n        /* \"#utility.yul\":15122:15124   */\n      0x20\n        /* \"#utility.yul\":15111:15120   */\n      dup4\n        /* \"#utility.yul\":15107:15125   */\n      add\n        /* \"#utility.yul\":15098:15104   */\n      dup5\n        /* \"#utility.yul\":15054:15126   */\n      tag_432\n      jump\t// in\n    tag_455:\n        /* \"#utility.yul\":14801:15133   */\n      swap4\n      swap3\n      pop\n      pop\n      pop\n      jump\t// out\n        /* \"#utility.yul\":15139:15268   */\n    tag_266:\n        /* \"#utility.yul\":15173:15179   */\n      0x00\n        /* \"#utility.yul\":15200:15220   */\n      tag_457\n      tag_458\n      jump\t// in\n    tag_457:\n        /* \"#utility.yul\":15190:15220   */\n      swap1\n      pop\n        /* \"#utility.yul\":15229:15262   */\n      tag_459\n        /* \"#utility.yul\":15257:15261   */\n      dup3\n        /* \"#utility.yul\":15249:15255   */\n      dup3\n        /* \"#utility.yul\":15229:15262   */\n      tag_460\n      jump\t// in\n    tag_459:\n        /* \"#utility.yul\":15139:15268   */\n      swap2\n      swap1\n      pop\n      jump\t// out\n        /* \"#utility.yul\":15274:15349   */\n    tag_458:\n        /* \"#utility.yul\":15307:15313   */\n      0x00\n        /* \"#utility.yul\":15340:15342   */\n      0x40\n        /* \"#utility.yul\":15334:15343   */\n      mload\n        /* \"#utility.yul\":15324:15343   */\n      swap1\n      pop\n        /* \"#utility.yul\":15274:15349   */\n      swap1\n      jump\t// out\n        /* \"#utility.yul\":15355:15663   */\n    tag_265:\n        /* \"#utility.yul\":15417:15421   */\n      0x00\n        /* \"#utility.yul\":15507:15525   */\n      0xffffffffffffffff\n        /* \"#utility.yul\":15499:15505   */\n      dup3\n        /* \"#utility.yul\":15496:15526   */\n      gt\n        /* \"#utility.yul\":15493:15549   */\n      iszero\n      tag_463\n      jumpi\n        /* \"#utility.yul\":15529:15547   */\n      tag_464\n      tag_465\n      jump\t// in\n    tag_464:\n        /* \"#utility.yul\":15493:15549   */\n    tag_463:\n        /* \"#utility.yul\":15567:15596   */\n      tag_466\n        /* \"#utility.yul\":15589:15595   */\n      dup3\n        /* \"#utility.yul\":15567:15596   */\n      tag_404\n      jump\t// in\n    tag_466:\n        /* \"#utility.yul\":15559:15596   */\n      swap1\n      pop\n        /* \"#utility.yul\":15651:15655   */\n      0x20\n        /* \"#utility.yul\":15645:15649   */\n      dup2\n        /* \"#utility.yul\":15641:15656   */\n      add\n        /* \"#utility.yul\":15633:15656   */\n      swap1\n      pop\n        /* \"#utility.yul\":15355:15663   */\n      swap2\n      swap1\n      pop\n      jump\t// out\n        /* \"#utility.yul\":15669:15768   */\n    tag_398:\n        /* \"#utility.yul\":15721:15727   */\n      0x00\n        /* \"#utility.yul\":15755:15760   */\n      dup2\n        /* \"#utility.yul\":15749:15761   */\n      mload\n        /* \"#utility.yul\":15739:15761   */\n      swap1\n      pop\n        /* \"#utility.yul\":15669:15768   */\n      swap2\n      swap1\n      pop\n      jump\t// out\n        /* \"#utility.yul\":15774:15933   */\n    tag_400:\n        /* \"#utility.yul\":15848:15859   */\n      0x00\n        /* \"#utility.yul\":15882:15888   */\n      dup3\n        /* \"#utility.yul\":15877:15880   */\n      dup3\n        /* \"#utility.yul\":15870:15889   */\n      mstore\n        /* \"#utility.yul\":15922:15926   */\n      0x20\n        /* \"#utility.yul\":15917:15920   */\n      dup3\n        /* \"#utility.yul\":15913:15927   */\n      add\n        /* \"#utility.yul\":15898:15927   */\n      swap1\n      pop\n        /* \"#utility.yul\":15774:15933   */\n      swap3\n      swap2\n      pop\n      pop\n      jump\t// out\n        /* \"#utility.yul\":15939:16108   */\n    tag_409:\n        /* \"#utility.yul\":16023:16034   */\n      0x00\n        /* \"#utility.yul\":16057:16063   */\n      dup3\n        /* \"#utility.yul\":16052:16055   */\n      dup3\n        /* \"#utility.yul\":16045:16064   */\n      mstore\n        /* \"#utility.yul\":16097:16101   */\n      0x20\n        /* \"#utility.yul\":16092:16095   */\n      dup3\n        /* \"#utility.yul\":16088:16102   */\n      add\n        /* \"#utility.yul\":16073:16102   */\n      swap1\n      pop\n        /* \"#utility.yul\":15939:16108   */\n      swap3\n      swap2\n      pop\n      pop\n      jump\t// out\n        /* \"#utility.yul\":16114:16210   */\n    tag_384:\n        /* \"#utility.yul\":16151:16158   */\n      0x00\n        /* \"#utility.yul\":16180:16204   */\n      tag_471\n        /* \"#utility.yul\":16198:16203   */\n      dup3\n        /* \"#utility.yul\":16180:16204   */\n      tag_472\n      jump\t// in\n    tag_471:\n        /* \"#utility.yul\":16169:16204   */\n      swap1\n      pop\n        /* \"#utility.yul\":16114:16210   */\n      swap2\n      swap1\n      pop\n      jump\t// out\n        /* \"#utility.yul\":16216:16306   */\n    tag_388:\n        /* \"#utility.yul\":16250:16257   */\n      0x00\n        /* \"#utility.yul\":16293:16298   */\n      dup2\n        /* \"#utility.yul\":16286:16299   */\n      iszero\n        /* \"#utility.yul\":16279:16300   */\n      iszero\n        /* \"#utility.yul\":16268:16300   */\n      swap1\n      pop\n        /* \"#utility.yul\":16216:16306   */\n      swap2\n      swap1\n      pop\n      jump\t// out\n        /* \"#utility.yul\":16312:16389   */\n    tag_393:\n        /* \"#utility.yul\":16349:16356   */\n      0x00\n        /* \"#utility.yul\":16378:16383   */\n      dup2\n        /* \"#utility.yul\":16367:16383   */\n      swap1\n      pop\n        /* \"#utility.yul\":16312:16389   */\n      swap2\n      swap1\n      pop\n      jump\t// out\n        /* \"#utility.yul\":16395:16521   */\n    tag_472:\n        /* \"#utility.yul\":16432:16439   */\n      0x00\n        /* \"#utility.yul\":16472:16514   */\n      0xffffffffffffffffffffffffffffffffffffffff\n        /* \"#utility.yul\":16465:16470   */\n      dup3\n        /* \"#utility.yul\":16461:16515   */\n      and\n        /* \"#utility.yul\":16450:16515   */\n      swap1\n      pop\n        /* \"#utility.yul\":16395:16521   */\n      swap2\n      swap1\n      pop\n      jump\t// out\n        /* \"#utility.yul\":16527:16604   */\n    tag_431:\n        /* \"#utility.yul\":16564:16571   */\n      0x00\n        /* \"#utility.yul\":16593:16598   */\n      dup2\n        /* \"#utility.yul\":16582:16598   */\n      swap1\n      pop\n        /* \"#utility.yul\":16527:16604   */\n      swap2\n      swap1\n      pop\n      jump\t// out\n        /* \"#utility.yul\":16610:16764   */\n    tag_271:\n        /* \"#utility.yul\":16694:16700   */\n      dup3\n        /* \"#utility.yul\":16689:16692   */\n      dup2\n        /* \"#utility.yul\":16684:16687   */\n      dup4\n        /* \"#utility.yul\":16671:16701   */\n      calldatacopy\n        /* \"#utility.yul\":16756:16757   */\n      0x00\n        /* \"#utility.yul\":16747:16753   */\n      dup4\n        /* \"#utility.yul\":16742:16745   */\n      dup4\n        /* \"#utility.yul\":16738:16754   */\n      add\n        /* \"#utility.yul\":16731:16758   */\n      mstore\n        /* \"#utility.yul\":16610:16764   */\n      pop\n      pop\n      pop\n      jump\t// out\n        /* \"#utility.yul\":16770:17077   */\n    tag_402:\n        /* \"#utility.yul\":16838:16839   */\n      0x00\n        /* \"#utility.yul\":16848:16961   */\n    tag_479:\n        /* \"#utility.yul\":16862:16868   */\n      dup4\n        /* \"#utility.yul\":16859:16860   */\n      dup2\n        /* \"#utility.yul\":16856:16869   */\n      lt\n        /* \"#utility.yul\":16848:16961   */\n      iszero\n      tag_481\n      jumpi\n        /* \"#utility.yul\":16947:16948   */\n      dup1\n        /* \"#utility.yul\":16942:16945   */\n      dup3\n        /* \"#utility.yul\":16938:16949   */\n      add\n        /* \"#utility.yul\":16932:16950   */\n      mload\n        /* \"#utility.yul\":16928:16929   */\n      dup2\n        /* \"#utility.yul\":16923:16926   */\n      dup5\n        /* \"#utility.yul\":16919:16930   */\n      add\n        /* \"#utility.yul\":16912:16951   */\n      mstore\n        /* \"#utility.yul\":16884:16886   */\n      0x20\n        /* \"#utility.yul\":16881:16882   */\n      dup2\n        /* \"#utility.yul\":16877:16887   */\n      add\n        /* \"#utility.yul\":16872:16887   */\n      swap1\n      pop\n        /* \"#utility.yul\":16848:16961   */\n      jump(tag_479)\n    tag_481:\n        /* \"#utility.yul\":16979:16985   */\n      dup4\n        /* \"#utility.yul\":16976:16977   */\n      dup2\n        /* \"#utility.yul\":16973:16986   */\n      gt\n        /* \"#utility.yul\":16970:17071   */\n      iszero\n      tag_482\n      jumpi\n        /* \"#utility.yul\":17059:17060   */\n      0x00\n        /* \"#utility.yul\":17050:17056   */\n      dup5\n        /* \"#utility.yul\":17045:17048   */\n      dup5\n        /* \"#utility.yul\":17041:17057   */\n      add\n        /* \"#utility.yul\":17034:17061   */\n      mstore\n        /* \"#utility.yul\":16970:17071   */\n    tag_482:\n        /* \"#utility.yul\":16819:17077   */\n      pop\n        /* \"#utility.yul\":16770:17077   */\n      pop\n      pop\n      pop\n      jump\t// out\n        /* \"#utility.yul\":17083:17403   */\n    tag_116:\n        /* \"#utility.yul\":17127:17133   */\n      0x00\n        /* \"#utility.yul\":17164:17165   */\n      0x02\n        /* \"#utility.yul\":17158:17162   */\n      dup3\n        /* \"#utility.yul\":17154:17166   */\n      div\n        /* \"#utility.yul\":17144:17166   */\n      swap1\n      pop\n        /* \"#utility.yul\":17211:17212   */\n      0x01\n        /* \"#utility.yul\":17205:17209   */\n      dup3\n        /* \"#utility.yul\":17201:17213   */\n      and\n        /* \"#utility.yul\":17232:17250   */\n      dup1\n        /* \"#utility.yul\":17222:17303   */\n      tag_484\n      jumpi\n        /* \"#utility.yul\":17288:17292   */\n      0x7f\n        /* \"#utility.yul\":17280:17286   */\n      dup3\n        /* \"#utility.yul\":17276:17293   */\n      and\n        /* \"#utility.yul\":17266:17293   */\n      swap2\n      pop\n        /* \"#utility.yul\":17222:17303   */\n    tag_484:\n        /* \"#utility.yul\":17350:17352   */\n      0x20\n        /* \"#utility.yul\":17342:17348   */\n      dup3\n        /* \"#utility.yul\":17339:17353   */\n      lt\n        /* \"#utility.yul\":17319:17337   */\n      dup2\n        /* \"#utility.yul\":17316:17354   */\n      eq\n        /* \"#utility.yul\":17313:17397   */\n      iszero\n      tag_485\n      jumpi\n        /* \"#utility.yul\":17369:17387   */\n      tag_486\n      tag_487\n      jump\t// in\n    tag_486:\n        /* \"#utility.yul\":17313:17397   */\n    tag_485:\n        /* \"#utility.yul\":17134:17403   */\n      pop\n        /* \"#utility.yul\":17083:17403   */\n      swap2\n      swap1\n      pop\n      jump\t// out\n        /* \"#utility.yul\":17409:17690   */\n    tag_460:\n        /* \"#utility.yul\":17492:17519   */\n      tag_489\n        /* \"#utility.yul\":17514:17518   */\n      dup3\n        /* \"#utility.yul\":17492:17519   */\n      tag_404\n      jump\t// in\n    tag_489:\n        /* \"#utility.yul\":17484:17490   */\n      dup2\n        /* \"#utility.yul\":17480:17520   */\n      add\n        /* \"#utility.yul\":17622:17628   */\n      dup2\n        /* \"#utility.yul\":17610:17620   */\n      dup2\n        /* \"#utility.yul\":17607:17629   */\n      lt\n        /* \"#utility.yul\":17586:17604   */\n      0xffffffffffffffff\n        /* \"#utility.yul\":17574:17584   */\n      dup3\n        /* \"#utility.yul\":17571:17605   */\n      gt\n        /* \"#utility.yul\":17568:17630   */\n      or\n        /* \"#utility.yul\":17565:17653   */\n      iszero\n      tag_490\n      jumpi\n        /* \"#utility.yul\":17633:17651   */\n      tag_491\n      tag_465\n      jump\t// in\n    tag_491:\n        /* \"#utility.yul\":17565:17653   */\n    tag_490:\n        /* \"#utility.yul\":17673:17683   */\n      dup1\n        /* \"#utility.yul\":17669:17671   */\n      0x40\n        /* \"#utility.yul\":17662:17684   */\n      mstore\n        /* \"#utility.yul\":17452:17690   */\n      pop\n        /* \"#utility.yul\":17409:17690   */\n      pop\n      pop\n      jump\t// out\n        /* \"#utility.yul\":17696:17929   */\n    tag_181:\n        /* \"#utility.yul\":17735:17738   */\n      0x00\n        /* \"#utility.yul\":17758:17782   */\n      tag_493\n        /* \"#utility.yul\":17776:17781   */\n      dup3\n        /* \"#utility.yul\":17758:17782   */\n      tag_431\n      jump\t// in\n    tag_493:\n        /* \"#utility.yul\":17749:17782   */\n      swap2\n      pop\n        /* \"#utility.yul\":17804:17870   */\n      0xffffffffffffffffffffffffffffffffffffffffffffffffffffffffffffffff\n        /* \"#utility.yul\":17797:17802   */\n      dup3\n        /* \"#utility.yul\":17794:17871   */\n      eq\n        /* \"#utility.yul\":17791:17894   */\n      iszero\n      tag_494\n      jumpi\n        /* \"#utility.yul\":17874:17892   */\n      tag_495\n      tag_496\n      jump\t// in\n    tag_495:\n        /* \"#utility.yul\":17791:17894   */\n    tag_494:\n        /* \"#utility.yul\":17921:17922   */\n      0x01\n        /* \"#utility.yul\":17914:17919   */\n      dup3\n        /* \"#utility.yul\":17910:17923   */\n      add\n        /* \"#utility.yul\":17903:17923   */\n      swap1\n      pop\n        /* \"#utility.yul\":17696:17929   */\n      swap2\n      swap1\n      pop\n      jump\t// out\n        /* \"#utility.yul\":17935:18014   */\n    tag_394:\n        /* \"#utility.yul\":17974:17981   */\n      0x00\n        /* \"#utility.yul\":18003:18008   */\n      dup2\n        /* \"#utility.yul\":17992:18008   */\n      swap1\n      pop\n        /* \"#utility.yul\":17935:18014   */\n      swap2\n      swap1\n      pop\n      jump\t// out\n        /* \"#utility.yul\":18020:18200   */\n    tag_496:\n        /* \"#utility.yul\":18068:18145   */\n      0x4e487b7100000000000000000000000000000000000000000000000000000000\n        /* \"#utility.yul\":18065:18066   */\n      0x00\n        /* \"#utility.yul\":18058:18146   */\n      mstore\n        /* \"#utility.yul\":18165:18169   */\n      0x11\n        /* \"#utility.yul\":18162:18163   */\n      0x04\n        /* \"#utility.yul\":18155:18170   */\n      mstore\n        /* \"#utility.yul\":18189:18193   */\n      0x24\n        /* \"#utility.yul\":18186:18187   */\n      0x00\n        /* \"#utility.yul\":18179:18194   */\n      revert\n        /* \"#utility.yul\":18206:18386   */\n    tag_487:\n        /* \"#utility.yul\":18254:18331   */\n      0x4e487b7100000000000000000000000000000000000000000000000000000000\n        /* \"#utility.yul\":18251:18252   */\n      0x00\n        /* \"#utility.yul\":18244:18332   */\n      mstore\n        /* \"#utility.yul\":18351:18355   */\n      0x22\n        /* \"#utility.yul\":18348:18349   */\n      0x04\n        /* \"#utility.yul\":18341:18356   */\n      mstore\n        /* \"#utility.yul\":18375:18379   */\n      0x24\n        /* \"#utility.yul\":18372:18373   */\n      0x00\n        /* \"#utility.yul\":18365:18380   */\n      revert\n        /* \"#utility.yul\":18392:18572   */\n    tag_172:\n        /* \"#utility.yul\":18440:18517   */\n      0x4e487b7100000000000000000000000000000000000000000000000000000000\n        /* \"#utility.yul\":18437:18438   */\n      0x00\n        /* \"#utility.yul\":18430:18518   */\n      mstore\n        /* \"#utility.yul\":18537:18541   */\n      0x32\n        /* \"#utility.yul\":18534:18535   */\n      0x04\n        /* \"#utility.yul\":18527:18542   */\n      mstore\n        /* \"#utility.yul\":18561:18565   */\n      0x24\n        /* \"#utility.yul\":18558:18559   */\n      0x00\n        /* \"#utility.yul\":18551:18566   */\n      revert\n        /* \"#utility.yul\":18578:18758   */\n    tag_465:\n        /* \"#utility.yul\":18626:18703   */\n      0x4e487b7100000000000000000000000000000000000000000000000000000000\n        /* \"#utility.yul\":18623:18624   */\n      0x00\n        /* \"#utility.yul\":18616:18704   */\n      mstore\n        /* \"#utility.yul\":18723:18727   */\n      0x41\n        /* \"#utility.yul\":18720:18721   */\n      0x04\n        /* \"#utility.yul\":18713:18728   */\n      mstore\n        /* \"#utility.yul\":18747:18751   */\n      0x24\n        /* \"#utility.yul\":18744:18745   */\n      0x00\n        /* \"#utility.yul\":18737:18752   */\n      revert\n        /* \"#utility.yul\":18764:18881   */\n    tag_283:\n        /* \"#utility.yul\":18873:18874   */\n      0x00\n        /* \"#utility.yul\":18870:18871   */\n      dup1\n        /* \"#utility.yul\":18863:18875   */\n      revert\n        /* \"#utility.yul\":18887:19004   */\n    tag_280:\n        /* \"#utility.yul\":18996:18997   */\n      0x00\n        /* \"#utility.yul\":18993:18994   */\n      dup1\n        /* \"#utility.yul\":18986:18998   */\n      revert\n        /* \"#utility.yul\":19010:19127   */\n    tag_286:\n        /* \"#utility.yul\":19119:19120   */\n      0x00\n        /* \"#utility.yul\":19116:19117   */\n      dup1\n        /* \"#utility.yul\":19109:19121   */\n      revert\n        /* \"#utility.yul\":19133:19250   */\n    tag_269:\n        /* \"#utility.yul\":19242:19243   */\n      0x00\n        /* \"#utility.yul\":19239:19240   */\n      dup1\n        /* \"#utility.yul\":19232:19244   */\n      revert\n        /* \"#utility.yul\":19256:19373   */\n    tag_327:\n        /* \"#utility.yul\":19365:19366   */\n      0x00\n        /* \"#utility.yul\":19362:19363   */\n      dup1\n        /* \"#utility.yul\":19355:19367   */\n      revert\n        /* \"#utility.yul\":19379:19496   */\n    tag_318:\n        /* \"#utility.yul\":19488:19489   */\n      0x00\n        /* \"#utility.yul\":19485:19486   */\n      dup1\n        /* \"#utility.yul\":19478:19490   */\n      revert\n        /* \"#utility.yul\":19502:19604   */\n    tag_404:\n        /* \"#utility.yul\":19543:19549   */\n      0x00\n        /* \"#utility.yul\":19594:19596   */\n      0x1f\n        /* \"#utility.yul\":19590:19597   */\n      not\n        /* \"#utility.yul\":19585:19587   */\n      0x1f\n        /* \"#utility.yul\":19578:19583   */\n      dup4\n        /* \"#utility.yul\":19574:19588   */\n      add\n        /* \"#utility.yul\":19570:19598   */\n      and\n        /* \"#utility.yul\":19560:19598   */\n      swap1\n      pop\n        /* \"#utility.yul\":19502:19604   */\n      swap2\n      swap1\n      pop\n      jump\t// out\n        /* \"#utility.yul\":19610:19835   */\n    tag_416:\n        /* \"#utility.yul\":19750:19784   */\n      0x4f776e61626c653a206e6577206f776e657220697320746865207a65726f2061\n        /* \"#utility.yul\":19746:19747   */\n      0x00\n        /* \"#utility.yul\":19738:19744   */\n      dup3\n        /* \"#utility.yul\":19734:19748   */\n      add\n        /* \"#utility.yul\":19727:19785   */\n      mstore\n        /* \"#utility.yul\":19819:19827   */\n      0x6464726573730000000000000000000000000000000000000000000000000000\n        /* \"#utility.yul\":19814:19816   */\n      0x20\n        /* \"#utility.yul\":19806:19812   */\n      dup3\n        /* \"#utility.yul\":19802:19817   */\n      add\n        /* \"#utility.yul\":19795:19828   */\n      mstore\n        /* \"#utility.yul\":19610:19835   */\n      pop\n      jump\t// out\n        /* \"#utility.yul\":19841:20023   */\n    tag_421:\n        /* \"#utility.yul\":19981:20015   */\n      0x4f776e61626c653a2063616c6c6572206973206e6f7420746865206f776e6572\n        /* \"#utility.yul\":19977:19978   */\n      0x00\n        /* \"#utility.yul\":19969:19975   */\n      dup3\n        /* \"#utility.yul\":19965:19979   */\n      add\n        /* \"#utility.yul\":19958:20016   */\n      mstore\n        /* \"#utility.yul\":19841:20023   */\n      pop\n      jump\t// out\n        /* \"#utility.yul\":20029:20151   */\n    tag_275:\n        /* \"#utility.yul\":20102:20126   */\n      tag_512\n        /* \"#utility.yul\":20120:20125   */\n      dup2\n        /* \"#utility.yul\":20102:20126   */\n      tag_384\n      jump\t// in\n    tag_512:\n        /* \"#utility.yul\":20095:20100   */\n      dup2\n        /* \"#utility.yul\":20092:20127   */\n      eq\n        /* \"#utility.yul\":20082:20145   */\n      tag_513\n      jumpi\n        /* \"#utility.yul\":20141:20142   */\n      0x00\n        /* \"#utility.yul\":20138:20139   */\n      dup1\n        /* \"#utility.yul\":20131:20143   */\n      revert\n        /* \"#utility.yul\":20082:20145   */\n    tag_513:\n        /* \"#utility.yul\":20029:20151   */\n      pop\n      jump\t// out\n        /* \"#utility.yul\":20157:20273   */\n    tag_298:\n        /* \"#utility.yul\":20227:20248   */\n      tag_515\n        /* \"#utility.yul\":20242:20247   */\n      dup2\n        /* \"#utility.yul\":20227:20248   */\n      tag_388\n      jump\t// in\n    tag_515:\n        /* \"#utility.yul\":20220:20225   */\n      dup2\n        /* \"#utility.yul\":20217:20249   */\n      eq\n        /* \"#utility.yul\":20207:20267   */\n      tag_516\n      jumpi\n        /* \"#utility.yul\":20263:20264   */\n      0x00\n        /* \"#utility.yul\":20260:20261   */\n      dup1\n        /* \"#utility.yul\":20253:20265   */\n      revert\n        /* \"#utility.yul\":20207:20267   */\n    tag_516:\n        /* \"#utility.yul\":20157:20273   */\n      pop\n      jump\t// out\n        /* \"#utility.yul\":20279:20401   */\n    tag_302:\n        /* \"#utility.yul\":20352:20376   */\n      tag_518\n        /* \"#utility.yul\":20370:20375   */\n      dup2\n        /* \"#utility.yul\":20352:20376   */\n      tag_393\n      jump\t// in\n    tag_518:\n        /* \"#utility.yul\":20345:20350   */\n      dup2\n        /* \"#utility.yul\":20342:20377   */\n      eq\n        /* \"#utility.yul\":20332:20395   */\n      tag_519\n      jumpi\n        /* \"#utility.yul\":20391:20392   */\n      0x00\n        /* \"#utility.yul\":20388:20389   */\n      dup1\n        /* \"#utility.yul\":20381:20393   */\n      revert\n        /* \"#utility.yul\":20332:20395   */\n    tag_519:\n        /* \"#utility.yul\":20279:20401   */\n      pop\n      jump\t// out\n        /* \"#utility.yul\":20407:20529   */\n    tag_311:\n        /* \"#utility.yul\":20480:20504   */\n      tag_521\n        /* \"#utility.yul\":20498:20503   */\n      dup2\n        /* \"#utility.yul\":20480:20504   */\n      tag_431\n      jump\t// in\n    tag_521:\n        /* \"#utility.yul\":20473:20478   */\n      dup2\n        /* \"#utility.yul\":20470:20505   */\n      eq\n        /* \"#utility.yul\":20460:20523   */\n      tag_522\n      jumpi\n        /* \"#utility.yul\":20519:20520   */\n      0x00\n        /* \"#utility.yul\":20516:20517   */\n      dup1\n        /* \"#utility.yul\":20509:20521   */\n      revert\n        /* \"#utility.yul\":20460:20523   */\n    tag_522:\n        /* \"#utility.yul\":20407:20529   */\n      pop\n      jump\t// out\n\n    auxdata: 0xa26469706673582212209fb928afbf29bb724ddce342cdf59d496c46854a4137f190e3e04ad2ecaff86264736f6c63430008070033\n}\n",
				"bytecode": {
					"linkReferences": {},
					"object": "608060405234801561001057600080fd5b5061002d61002261003260201b60201c565b61003a60201b60201c565b6100fe565b600033905090565b60008060009054906101000a900473ffffffffffffffffffffffffffffffffffffffff169050816000806101000a81548173ffffffffffffffffffffffffffffffffffffffff021916908373ffffffffffffffffffffffffffffffffffffffff1602179055508173ffffffffffffffffffffffffffffffffffffffff168173ffffffffffffffffffffffffffffffffffffffff167f8be0079c531659141344cd1fd0a4f28419497f9722a3daafe3b4186f6b6457e060405160405180910390a35050565b612111806200010e6000396000f3fe6080604052600436106101025760003560e01c80639bb6dcc811610095578063d1933ddd11610064578063d1933ddd14610365578063d6f70eb31461038e578063f2fde38b146103b7578063fa0e9e41146103e0578063fbc2cf13146104095761010c565b80639bb6dcc814610285578063ad575035146102c2578063b2b72bc4146102ff578063bafdee141461033c5761010c565b8063715018a6116100d1578063715018a6146101dd578063717b9b6c146101f45780638da5cb5b1461021d578063917b8fd0146102485761010c565b80630e197dc9146101115780631ff4bdf31461014e5780633960a892146101775780634b3cef44146101a05761010c565b3661010c57600080fd5b600080fd5b34801561011d57600080fd5b50610138600480360381019061013391906119c8565b610432565b6040516101459190611c8e565b60405180910390f35b34801561015a57600080fd5b5061017560048036038101906101709190611755565b61045c565b005b34801561018357600080fd5b5061019e60048036038101906101999190611a22565b6106cd565b005b3480156101ac57600080fd5b506101c760048036038101906101c291906119c8565b6107e6565b6040516101d49190611c43565b60405180910390f35b3480156101e957600080fd5b506101f2610828565b005b34801561020057600080fd5b5061021b60048036038101906102169190611a62565b6108b0565b005b34801561022957600080fd5b5061023261095b565b60405161023f9190611c43565b60405180910390f35b34801561025457600080fd5b5061026f600480360381019061026a91906119c8565b610984565b60405161027c9190611ce9565b60405180910390f35b34801561029157600080fd5b506102ac60048036038101906102a79190611782565b610b54565b6040516102b99190611c8e565b60405180910390f35b3480156102ce57600080fd5b506102e960048036038101906102e49190611755565b610c29565b6040516102f69190611ce9565b60405180910390f35b34801561030b57600080fd5b5061032660048036038101906103219190611755565b610dc0565b6040516103339190611d0b565b60405180910390f35b34801561034857600080fd5b50610363600480360381019061035e91906118e1565b610f54565b005b34801561037157600080fd5b5061038c60048036038101906103879190611872565b610fd8565b005b34801561039a57600080fd5b506103b560048036038101906103b09190611829565b6111b7565b005b3480156103c357600080fd5b506103de60048036038101906103d99190611755565b611217565b005b3480156103ec57600080fd5b506104076004803603810190610402919061196c565b61130f565b005b34801561041557600080fd5b50610430600480360381019061042b9190611755565b611379565b005b60006004600083815260200190815260200160002060009054906101000a900460ff169050919050565b6000600360003373ffffffffffffffffffffffffffffffffffffffff1673ffffffffffffffffffffffffffffffffffffffff168152602001908152602001600020604051806080016040529081600082015481526020016001820180546104c290611e66565b80601f01602080910402602001604051908101604052809291908181526020018280546104ee90611e66565b801561053b5780601f106105105761010080835404028352916020019161053b565b820191906000526020600020905b81548152906001019060200180831161051e57829003601f168201915b5050505050815260200160028201805461055490611e66565b80601f016020809104026020016040519081016040528092919081815260200182805461058090611e66565b80156105cd5780601f106105a2576101008083540402835291602001916105cd565b820191906000526020600020905b8154815290600101906020018083116105b057829003601f168201915b50505050508152602001600382015481525050905080600360008473ffffffffffffffffffffffffffffffffffffffff1673ffffffffffffffffffffffffffffffffffffffff168152602001908152602001600020600082015181600001556020820151816001019080519060200190610648929190611505565b506040820151816002019080519060200190610665929190611505565b506060820151816003015590505081600260008360000151815260200190815260200160002060006101000a81548173ffffffffffffffffffffffffffffffffffffffff021916908373ffffffffffffffffffffffffffffffffffffffff1602179055505050565b6106d5611439565b73ffffffffffffffffffffffffffffffffffffffff166106f361095b565b73ffffffffffffffffffffffffffffffffffffffff1614610749576040517f08c379a000000000000000000000000000000000000000000000000000000000815260040161074090611cc9565b60405180910390fd5b806002600084815260200190815260200160002060006101000a81548173ffffffffffffffffffffffffffffffffffffffff021916908373ffffffffffffffffffffffffffffffffffffffff16021790555081600360008373ffffffffffffffffffffffffffffffffffffffff1673ffffffffffffffffffffffffffffffffffffffff168152602001908152602001600020600001819055505050565b6000806002600084815260200190815260200160002060009054906101000a900473ffffffffffffffffffffffffffffffffffffffff16905080915050919050565b610830611439565b73ffffffffffffffffffffffffffffffffffffffff1661084e61095b565b73ffffffffffffffffffffffffffffffffffffffff16146108a4576040517f08c379a000000000000000000000000000000000000000000000000000000000815260040161089b90611cc9565b60405180910390fd5b6108ae6000611441565b565b6108b8611439565b73ffffffffffffffffffffffffffffffffffffffff166108d661095b565b73ffffffffffffffffffffffffffffffffffffffff161461092c576040517f08c379a000000000000000000000000000000000000000000000000000000000815260040161092390611cc9565b60405180910390fd5b806004600084815260200190815260200160002060006101000a81548160ff0219169083151502179055505050565b60008060009054906101000a900473ffffffffffffffffffffffffffffffffffffffff16905090565b61098c61158b565b60006002600084815260200190815260200160002060009054906101000a900473ffffffffffffffffffffffffffffffffffffffff1690506000600360008373ffffffffffffffffffffffffffffffffffffffff1673ffffffffffffffffffffffffffffffffffffffff16815260200190815260200160002060405180608001604052908160008201548152602001600182018054610a2a90611e66565b80601f0160208091040260200160405190810160405280929190818152602001828054610a5690611e66565b8015610aa35780601f10610a7857610100808354040283529160200191610aa3565b820191906000526020600020905b815481529060010190602001808311610a8657829003601f168201915b50505050508152602001600282018054610abc90611e66565b80601f0160208091040260200160405190810160405280929190818152602001828054610ae890611e66565b8015610b355780601f10610b0a57610100808354040283529160200191610b35565b820191906000526020600020905b815481529060010190602001808311610b1857829003601f168201915b5050505050815260200160038201548152505090508092505050919050565b60008086905060005b86869050811015610c18576000878783818110610b7d57610b7c611f7a565b5b9050602002013590506001868684818110610b9b57610b9a611f7a565b5b905060200201351415610bd8578281604051602001610bbb929190611c17565b604051602081830303815290604052805190602001209250610c04565b8083604051602001610beb929190611c17565b6040516020818303038152906040528051906020012092505b508080610c1090611ec9565b915050610b5d565b508781149150509695505050505050565b610c3161158b565b6000600360008473ffffffffffffffffffffffffffffffffffffffff1673ffffffffffffffffffffffffffffffffffffffff16815260200190815260200160002060405180608001604052908160008201548152602001600182018054610c9790611e66565b80601f0160208091040260200160405190810160405280929190818152602001828054610cc390611e66565b8015610d105780601f10610ce557610100808354040283529160200191610d10565b820191906000526020600020905b815481529060010190602001808311610cf357829003601f168201915b50505050508152602001600282018054610d2990611e66565b80601f0160208091040260200160405190810160405280929190818152602001828054610d5590611e66565b8015610da25780601f10610d7757610100808354040283529160200191610da2565b820191906000526020600020905b815481529060010190602001808311610d8557829003601f168201915b50505050508152602001600382015481525050905080915050919050565b600080600360008473ffffffffffffffffffffffffffffffffffffffff1673ffffffffffffffffffffffffffffffffffffffff16815260200190815260200160002060405180608001604052908160008201548152602001600182018054610e2790611e66565b80601f0160208091040260200160405190810160405280929190818152602001828054610e5390611e66565b8015610ea05780601f10610e7557610100808354040283529160200191610ea0565b820191906000526020600020905b815481529060010190602001808311610e8357829003601f168201915b50505050508152602001600282018054610eb990611e66565b80601f0160208091040260200160405190810160405280929190818152602001828054610ee590611e66565b8015610f325780601f10610f0757610100808354040283529160200191610f32565b820191906000526020600020905b815481529060010190602001808311610f1557829003601f168201915b5050505050815260200160038201548152505090508060000151915050919050565b6000600360003373ffffffffffffffffffffffffffffffffffffffff1673ffffffffffffffffffffffffffffffffffffffff168152602001908152602001600020905083816001019080519060200190610faf929190611505565b5082816002019080519060200190610fc8929190611505565b5081816003018190555050505050565b610fe0611439565b73ffffffffffffffffffffffffffffffffffffffff16610ffe61095b565b73ffffffffffffffffffffffffffffffffffffffff1614611054576040517f08c379a000000000000000000000000000000000000000000000000000000000815260040161104b90611cc9565b60405180910390fd5b60003090506000600160009054906101000a900473ffffffffffffffffffffffffffffffffffffffff1673ffffffffffffffffffffffffffffffffffffffff1663cf37834383876040518363ffffffff1660e01b81526004016110b8929190611c5e565b602060405180830381600087803b1580156110d257600080fd5b505af11580156110e6573d6000803e3d6000fd5b505050506040513d601f19601f8201168201806040525081019061110a91906119f5565b9050600160009054906101000a900473ffffffffffffffffffffffffffffffffffffffff1673ffffffffffffffffffffffffffffffffffffffff1663e1b2e97982856040518363ffffffff1660e01b8152600401611169929190611d26565b600060405180830381600087803b15801561118357600080fd5b505af1158015611197573d6000803e3d6000fd5b505050506111a68160016108b0565b6111b081856106cd565b5050505050565b6000600360003373ffffffffffffffffffffffffffffffffffffffff1673ffffffffffffffffffffffffffffffffffffffff168152602001908152602001600020905081816001019080519060200190611212929190611505565b505050565b61121f611439565b73ffffffffffffffffffffffffffffffffffffffff1661123d61095b565b73ffffffffffffffffffffffffffffffffffffffff1614611293576040517f08c379a000000000000000000000000000000000000000000000000000000000815260040161128a90611cc9565b60405180910390fd5b600073ffffffffffffffffffffffffffffffffffffffff168173ffffffffffffffffffffffffffffffffffffffff161415611303576040517f08c379a00000000000000000000000000000000000000000000000000000000081526004016112fa90611ca9565b60405180910390fd5b61130c81611441565b50565b6000600360003373ffffffffffffffffffffffffffffffffffffffff1673ffffffffffffffffffffffffffffffffffffffff16815260200190815260200160002090508281600201908051906020019061136a929190611505565b50818160030181905550505050565b611381611439565b73ffffffffffffffffffffffffffffffffffffffff1661139f61095b565b73ffffffffffffffffffffffffffffffffffffffff16146113f5576040517f08c379a00000000000000000000000000000000000000000000000000000000081526004016113ec90611cc9565b60405180910390fd5b80600160006101000a81548173ffffffffffffffffffffffffffffffffffffffff021916908373ffffffffffffffffffffffffffffffffffffffff16021790555050565b600033905090565b60008060009054906101000a900473ffffffffffffffffffffffffffffffffffffffff169050816000806101000a81548173ffffffffffffffffffffffffffffffffffffffff021916908373ffffffffffffffffffffffffffffffffffffffff1602179055508173ffffffffffffffffffffffffffffffffffffffff168173ffffffffffffffffffffffffffffffffffffffff167f8be0079c531659141344cd1fd0a4f28419497f9722a3daafe3b4186f6b6457e060405160405180910390a35050565b82805461151190611e66565b90600052602060002090601f016020900481019282611533576000855561157a565b82601f1061154c57805160ff191683800117855561157a565b8280016001018555821561157a579182015b8281111561157957825182559160200191906001019061155e565b5b50905061158791906115b3565b5090565b6040518060800160405280600081526020016060815260200160608152602001600081525090565b5b808211156115cc5760008160009055506001016115b4565b5090565b60006115e36115de84611d74565b611d4f565b9050828152602081018484840111156115ff576115fe611fe7565b5b61160a848285611e24565b509392505050565b6000813590506116218161207f565b92915050565b60008083601f84011261163d5761163c611fdd565b5b8235905067ffffffffffffffff81111561165a57611659611fd8565b5b60208301915083602082028301111561167657611675611fe2565b5b9250929050565b60008083601f84011261169357611692611fdd565b5b8235905067ffffffffffffffff8111156116b0576116af611fd8565b5b6020830191508360208202830111156116cc576116cb611fe2565b5b9250929050565b6000813590506116e281612096565b92915050565b6000813590506116f7816120ad565b92915050565b600082601f83011261171257611711611fdd565b5b81356117228482602086016115d0565b91505092915050565b60008135905061173a816120c4565b92915050565b60008151905061174f816120c4565b92915050565b60006020828403121561176b5761176a611ff1565b5b600061177984828501611612565b91505092915050565b6000806000806000806080878903121561179f5761179e611ff1565b5b60006117ad89828a016116e8565b96505060206117be89828a016116e8565b955050604087013567ffffffffffffffff8111156117df576117de611fec565b5b6117eb89828a01611627565b9450945050606087013567ffffffffffffffff81111561180e5761180d611fec565b5b61181a89828a0161167d565b92509250509295509295509295565b60006020828403121561183f5761183e611ff1565b5b600082013567ffffffffffffffff81111561185d5761185c611fec565b5b611869848285016116fd565b91505092915050565b60008060006060848603121561188b5761188a611ff1565b5b600084013567ffffffffffffffff8111156118a9576118a8611fec565b5b6118b5868287016116fd565b93505060206118c686828701611612565b92505060406118d78682870161172b565b9150509250925092565b6000806000606084860312156118fa576118f9611ff1565b5b600084013567ffffffffffffffff81111561191857611917611fec565b5b611924868287016116fd565b935050602084013567ffffffffffffffff81111561194557611944611fec565b5b611951868287016116fd565b92505060406119628682870161172b565b9150509250925092565b6000806040838503121561198357611982611ff1565b5b600083013567ffffffffffffffff8111156119a1576119a0611fec565b5b6119ad858286016116fd565b92505060206119be8582860161172b565b9150509250929050565b6000602082840312156119de576119dd611ff1565b5b60006119ec8482850161172b565b91505092915050565b600060208284031215611a0b57611a0a611ff1565b5b6000611a1984828501611740565b91505092915050565b60008060408385031215611a3957611a38611ff1565b5b6000611a478582860161172b565b9250506020611a5885828601611612565b9150509250929050565b60008060408385031215611a7957611a78611ff1565b5b6000611a878582860161172b565b9250506020611a98858286016116d3565b9150509250929050565b611aab81611dd2565b82525050565b611aba81611de4565b82525050565b611ad1611acc82611df0565b611f12565b82525050565b6000611ae282611da5565b611aec8185611db0565b9350611afc818560208601611e33565b611b0581611ff6565b840191505092915050565b6000611b1b82611da5565b611b258185611dc1565b9350611b35818560208601611e33565b611b3e81611ff6565b840191505092915050565b6000611b56602683611dc1565b9150611b6182612007565b604082019050919050565b6000611b79602083611dc1565b9150611b8482612056565b602082019050919050565b6000608083016000830151611ba76000860182611bf9565b5060208301518482036020860152611bbf8282611ad7565b91505060408301518482036040860152611bd98282611ad7565b9150506060830151611bee6060860182611bf9565b508091505092915050565b611c0281611e1a565b82525050565b611c1181611e1a565b82525050565b6000611c238285611ac0565b602082019150611c338284611ac0565b6020820191508190509392505050565b6000602082019050611c586000830184611aa2565b92915050565b6000604082019050611c736000830185611aa2565b8181036020830152611c858184611b10565b90509392505050565b6000602082019050611ca36000830184611ab1565b92915050565b60006020820190508181036000830152611cc281611b49565b9050919050565b60006020820190508181036000830152611ce281611b6c565b9050919050565b60006020820190508181036000830152611d038184611b8f565b905092915050565b6000602082019050611d206000830184611c08565b92915050565b6000604082019050611d3b6000830185611c08565b611d486020830184611c08565b9392505050565b6000611d59611d6a565b9050611d658282611e98565b919050565b6000604051905090565b600067ffffffffffffffff821115611d8f57611d8e611fa9565b5b611d9882611ff6565b9050602081019050919050565b600081519050919050565b600082825260208201905092915050565b600082825260208201905092915050565b6000611ddd82611dfa565b9050919050565b60008115159050919050565b6000819050919050565b600073ffffffffffffffffffffffffffffffffffffffff82169050919050565b6000819050919050565b82818337600083830152505050565b60005b83811015611e51578082015181840152602081019050611e36565b83811115611e60576000848401525b50505050565b60006002820490506001821680611e7e57607f821691505b60208210811415611e9257611e91611f4b565b5b50919050565b611ea182611ff6565b810181811067ffffffffffffffff82111715611ec057611ebf611fa9565b5b80604052505050565b6000611ed482611e1a565b91507fffffffffffffffffffffffffffffffffffffffffffffffffffffffffffffffff821415611f0757611f06611f1c565b5b600182019050919050565b6000819050919050565b7f4e487b7100000000000000000000000000000000000000000000000000000000600052601160045260246000fd5b7f4e487b7100000000000000000000000000000000000000000000000000000000600052602260045260246000fd5b7f4e487b7100000000000000000000000000000000000000000000000000000000600052603260045260246000fd5b7f4e487b7100000000000000000000000000000000000000000000000000000000600052604160045260246000fd5b600080fd5b600080fd5b600080fd5b600080fd5b600080fd5b600080fd5b6000601f19601f8301169050919050565b7f4f776e61626c653a206e6577206f776e657220697320746865207a65726f206160008201527f6464726573730000000000000000000000000000000000000000000000000000602082015250565b7f4f776e61626c653a2063616c6c6572206973206e6f7420746865206f776e6572600082015250565b61208881611dd2565b811461209357600080fd5b50565b61209f81611de4565b81146120aa57600080fd5b50565b6120b681611df0565b81146120c157600080fd5b50565b6120cd81611e1a565b81146120d857600080fd5b5056fea26469706673582212209fb928afbf29bb724ddce342cdf59d496c46854a4137f190e3e04ad2ecaff86264736f6c63430008070033",
					"opcodes": "PUSH1 0x80 PUSH1 0x40 MSTORE CALLVALUE DUP1 ISZERO PUSH2 0x10 JUMPI PUSH1 0x0 DUP1 REVERT JUMPDEST POP PUSH2 0x2D PUSH2 0x22 PUSH2 0x32 PUSH1 0x20 SHL PUSH1 0x20 SHR JUMP JUMPDEST PUSH2 0x3A PUSH1 0x20 SHL PUSH1 0x20 SHR JUMP JUMPDEST PUSH2 0xFE JUMP JUMPDEST PUSH1 0x0 CALLER SWAP1 POP SWAP1 JUMP JUMPDEST PUSH1 0x0 DUP1 PUSH1 0x0 SWAP1 SLOAD SWAP1 PUSH2 0x100 EXP SWAP1 DIV PUSH20 0xFFFFFFFFFFFFFFFFFFFFFFFFFFFFFFFFFFFFFFFF AND SWAP1 POP DUP2 PUSH1 0x0 DUP1 PUSH2 0x100 EXP DUP2 SLOAD DUP2 PUSH20 0xFFFFFFFFFFFFFFFFFFFFFFFFFFFFFFFFFFFFFFFF MUL NOT AND SWAP1 DUP4 PUSH20 0xFFFFFFFFFFFFFFFFFFFFFFFFFFFFFFFFFFFFFFFF AND MUL OR SWAP1 SSTORE POP DUP2 PUSH20 0xFFFFFFFFFFFFFFFFFFFFFFFFFFFFFFFFFFFFFFFF AND DUP2 PUSH20 0xFFFFFFFFFFFFFFFFFFFFFFFFFFFFFFFFFFFFFFFF AND PUSH32 0x8BE0079C531659141344CD1FD0A4F28419497F9722A3DAAFE3B4186F6B6457E0 PUSH1 0x40 MLOAD PUSH1 0x40 MLOAD DUP1 SWAP2 SUB SWAP1 LOG3 POP POP JUMP JUMPDEST PUSH2 0x2111 DUP1 PUSH3 0x10E PUSH1 0x0 CODECOPY PUSH1 0x0 RETURN INVALID PUSH1 0x80 PUSH1 0x40 MSTORE PUSH1 0x4 CALLDATASIZE LT PUSH2 0x102 JUMPI PUSH1 0x0 CALLDATALOAD PUSH1 0xE0 SHR DUP1 PUSH4 0x9BB6DCC8 GT PUSH2 0x95 JUMPI DUP1 PUSH4 0xD1933DDD GT PUSH2 0x64 JUMPI DUP1 PUSH4 0xD1933DDD EQ PUSH2 0x365 JUMPI DUP1 PUSH4 0xD6F70EB3 EQ PUSH2 0x38E JUMPI DUP1 PUSH4 0xF2FDE38B EQ PUSH2 0x3B7 JUMPI DUP1 PUSH4 0xFA0E9E41 EQ PUSH2 0x3E0 JUMPI DUP1 PUSH4 0xFBC2CF13 EQ PUSH2 0x409 JUMPI PUSH2 0x10C JUMP JUMPDEST DUP1 PUSH4 0x9BB6DCC8 EQ PUSH2 0x285 JUMPI DUP1 PUSH4 0xAD575035 EQ PUSH2 0x2C2 JUMPI DUP1 PUSH4 0xB2B72BC4 EQ PUSH2 0x2FF JUMPI DUP1 PUSH4 0xBAFDEE14 EQ PUSH2 0x33C JUMPI PUSH2 0x10C JUMP JUMPDEST DUP1 PUSH4 0x715018A6 GT PUSH2 0xD1 JUMPI DUP1 PUSH4 0x715018A6 EQ PUSH2 0x1DD JUMPI DUP1 PUSH4 0x717B9B6C EQ PUSH2 0x1F4 JUMPI DUP1 PUSH4 0x8DA5CB5B EQ PUSH2 0x21D JUMPI DUP1 PUSH4 0x917B8FD0 EQ PUSH2 0x248 JUMPI PUSH2 0x10C JUMP JUMPDEST DUP1 PUSH4 0xE197DC9 EQ PUSH2 0x111 JUMPI DUP1 PUSH4 0x1FF4BDF3 EQ PUSH2 0x14E JUMPI DUP1 PUSH4 0x3960A892 EQ PUSH2 0x177 JUMPI DUP1 PUSH4 0x4B3CEF44 EQ PUSH2 0x1A0 JUMPI PUSH2 0x10C JUMP JUMPDEST CALLDATASIZE PUSH2 0x10C JUMPI PUSH1 0x0 DUP1 REVERT JUMPDEST PUSH1 0x0 DUP1 REVERT JUMPDEST CALLVALUE DUP1 ISZERO PUSH2 0x11D JUMPI PUSH1 0x0 DUP1 REVERT JUMPDEST POP PUSH2 0x138 PUSH1 0x4 DUP1 CALLDATASIZE SUB DUP2 ADD SWAP1 PUSH2 0x133 SWAP2 SWAP1 PUSH2 0x19C8 JUMP JUMPDEST PUSH2 0x432 JUMP JUMPDEST PUSH1 0x40 MLOAD PUSH2 0x145 SWAP2 SWAP1 PUSH2 0x1C8E JUMP JUMPDEST PUSH1 0x40 MLOAD DUP1 SWAP2 SUB SWAP1 RETURN JUMPDEST CALLVALUE DUP1 ISZERO PUSH2 0x15A JUMPI PUSH1 0x0 DUP1 REVERT JUMPDEST POP PUSH2 0x175 PUSH1 0x4 DUP1 CALLDATASIZE SUB DUP2 ADD SWAP1 PUSH2 0x170 SWAP2 SWAP1 PUSH2 0x1755 JUMP JUMPDEST PUSH2 0x45C JUMP JUMPDEST STOP JUMPDEST CALLVALUE DUP1 ISZERO PUSH2 0x183 JUMPI PUSH1 0x0 DUP1 REVERT JUMPDEST POP PUSH2 0x19E PUSH1 0x4 DUP1 CALLDATASIZE SUB DUP2 ADD SWAP1 PUSH2 0x199 SWAP2 SWAP1 PUSH2 0x1A22 JUMP JUMPDEST PUSH2 0x6CD JUMP JUMPDEST STOP JUMPDEST CALLVALUE DUP1 ISZERO PUSH2 0x1AC JUMPI PUSH1 0x0 DUP1 REVERT JUMPDEST POP PUSH2 0x1C7 PUSH1 0x4 DUP1 CALLDATASIZE SUB DUP2 ADD SWAP1 PUSH2 0x1C2 SWAP2 SWAP1 PUSH2 0x19C8 JUMP JUMPDEST PUSH2 0x7E6 JUMP JUMPDEST PUSH1 0x40 MLOAD PUSH2 0x1D4 SWAP2 SWAP1 PUSH2 0x1C43 JUMP JUMPDEST PUSH1 0x40 MLOAD DUP1 SWAP2 SUB SWAP1 RETURN JUMPDEST CALLVALUE DUP1 ISZERO PUSH2 0x1E9 JUMPI PUSH1 0x0 DUP1 REVERT JUMPDEST POP PUSH2 0x1F2 PUSH2 0x828 JUMP JUMPDEST STOP JUMPDEST CALLVALUE DUP1 ISZERO PUSH2 0x200 JUMPI PUSH1 0x0 DUP1 REVERT JUMPDEST POP PUSH2 0x21B PUSH1 0x4 DUP1 CALLDATASIZE SUB DUP2 ADD SWAP1 PUSH2 0x216 SWAP2 SWAP1 PUSH2 0x1A62 JUMP JUMPDEST PUSH2 0x8B0 JUMP JUMPDEST STOP JUMPDEST CALLVALUE DUP1 ISZERO PUSH2 0x229 JUMPI PUSH1 0x0 DUP1 REVERT JUMPDEST POP PUSH2 0x232 PUSH2 0x95B JUMP JUMPDEST PUSH1 0x40 MLOAD PUSH2 0x23F SWAP2 SWAP1 PUSH2 0x1C43 JUMP JUMPDEST PUSH1 0x40 MLOAD DUP1 SWAP2 SUB SWAP1 RETURN JUMPDEST CALLVALUE DUP1 ISZERO PUSH2 0x254 JUMPI PUSH1 0x0 DUP1 REVERT JUMPDEST POP PUSH2 0x26F PUSH1 0x4 DUP1 CALLDATASIZE SUB DUP2 ADD SWAP1 PUSH2 0x26A SWAP2 SWAP1 PUSH2 0x19C8 JUMP JUMPDEST PUSH2 0x984 JUMP JUMPDEST PUSH1 0x40 MLOAD PUSH2 0x27C SWAP2 SWAP1 PUSH2 0x1CE9 JUMP JUMPDEST PUSH1 0x40 MLOAD DUP1 SWAP2 SUB SWAP1 RETURN JUMPDEST CALLVALUE DUP1 ISZERO PUSH2 0x291 JUMPI PUSH1 0x0 DUP1 REVERT JUMPDEST POP PUSH2 0x2AC PUSH1 0x4 DUP1 CALLDATASIZE SUB DUP2 ADD SWAP1 PUSH2 0x2A7 SWAP2 SWAP1 PUSH2 0x1782 JUMP JUMPDEST PUSH2 0xB54 JUMP JUMPDEST PUSH1 0x40 MLOAD PUSH2 0x2B9 SWAP2 SWAP1 PUSH2 0x1C8E JUMP JUMPDEST PUSH1 0x40 MLOAD DUP1 SWAP2 SUB SWAP1 RETURN JUMPDEST CALLVALUE DUP1 ISZERO PUSH2 0x2CE JUMPI PUSH1 0x0 DUP1 REVERT JUMPDEST POP PUSH2 0x2E9 PUSH1 0x4 DUP1 CALLDATASIZE SUB DUP2 ADD SWAP1 PUSH2 0x2E4 SWAP2 SWAP1 PUSH2 0x1755 JUMP JUMPDEST PUSH2 0xC29 JUMP JUMPDEST PUSH1 0x40 MLOAD PUSH2 0x2F6 SWAP2 SWAP1 PUSH2 0x1CE9 JUMP JUMPDEST PUSH1 0x40 MLOAD DUP1 SWAP2 SUB SWAP1 RETURN JUMPDEST CALLVALUE DUP1 ISZERO PUSH2 0x30B JUMPI PUSH1 0x0 DUP1 REVERT JUMPDEST POP PUSH2 0x326 PUSH1 0x4 DUP1 CALLDATASIZE SUB DUP2 ADD SWAP1 PUSH2 0x321 SWAP2 SWAP1 PUSH2 0x1755 JUMP JUMPDEST PUSH2 0xDC0 JUMP JUMPDEST PUSH1 0x40 MLOAD PUSH2 0x333 SWAP2 SWAP1 PUSH2 0x1D0B JUMP JUMPDEST PUSH1 0x40 MLOAD DUP1 SWAP2 SUB SWAP1 RETURN JUMPDEST CALLVALUE DUP1 ISZERO PUSH2 0x348 JUMPI PUSH1 0x0 DUP1 REVERT JUMPDEST POP PUSH2 0x363 PUSH1 0x4 DUP1 CALLDATASIZE SUB DUP2 ADD SWAP1 PUSH2 0x35E SWAP2 SWAP1 PUSH2 0x18E1 JUMP JUMPDEST PUSH2 0xF54 JUMP JUMPDEST STOP JUMPDEST CALLVALUE DUP1 ISZERO PUSH2 0x371 JUMPI PUSH1 0x0 DUP1 REVERT JUMPDEST POP PUSH2 0x38C PUSH1 0x4 DUP1 CALLDATASIZE SUB DUP2 ADD SWAP1 PUSH2 0x387 SWAP2 SWAP1 PUSH2 0x1872 JUMP JUMPDEST PUSH2 0xFD8 JUMP JUMPDEST STOP JUMPDEST CALLVALUE DUP1 ISZERO PUSH2 0x39A JUMPI PUSH1 0x0 DUP1 REVERT JUMPDEST POP PUSH2 0x3B5 PUSH1 0x4 DUP1 CALLDATASIZE SUB DUP2 ADD SWAP1 PUSH2 0x3B0 SWAP2 SWAP1 PUSH2 0x1829 JUMP JUMPDEST PUSH2 0x11B7 JUMP JUMPDEST STOP JUMPDEST CALLVALUE DUP1 ISZERO PUSH2 0x3C3 JUMPI PUSH1 0x0 DUP1 REVERT JUMPDEST POP PUSH2 0x3DE PUSH1 0x4 DUP1 CALLDATASIZE SUB DUP2 ADD SWAP1 PUSH2 0x3D9 SWAP2 SWAP1 PUSH2 0x1755 JUMP JUMPDEST PUSH2 0x1217 JUMP JUMPDEST STOP JUMPDEST CALLVALUE DUP1 ISZERO PUSH2 0x3EC JUMPI PUSH1 0x0 DUP1 REVERT JUMPDEST POP PUSH2 0x407 PUSH1 0x4 DUP1 CALLDATASIZE SUB DUP2 ADD SWAP1 PUSH2 0x402 SWAP2 SWAP1 PUSH2 0x196C JUMP JUMPDEST PUSH2 0x130F JUMP JUMPDEST STOP JUMPDEST CALLVALUE DUP1 ISZERO PUSH2 0x415 JUMPI PUSH1 0x0 DUP1 REVERT JUMPDEST POP PUSH2 0x430 PUSH1 0x4 DUP1 CALLDATASIZE SUB DUP2 ADD SWAP1 PUSH2 0x42B SWAP2 SWAP1 PUSH2 0x1755 JUMP JUMPDEST PUSH2 0x1379 JUMP JUMPDEST STOP JUMPDEST PUSH1 0x0 PUSH1 0x4 PUSH1 0x0 DUP4 DUP2 MSTORE PUSH1 0x20 ADD SWAP1 DUP2 MSTORE PUSH1 0x20 ADD PUSH1 0x0 KECCAK256 PUSH1 0x0 SWAP1 SLOAD SWAP1 PUSH2 0x100 EXP SWAP1 DIV PUSH1 0xFF AND SWAP1 POP SWAP2 SWAP1 POP JUMP JUMPDEST PUSH1 0x0 PUSH1 0x3 PUSH1 0x0 CALLER PUSH20 0xFFFFFFFFFFFFFFFFFFFFFFFFFFFFFFFFFFFFFFFF AND PUSH20 0xFFFFFFFFFFFFFFFFFFFFFFFFFFFFFFFFFFFFFFFF AND DUP2 MSTORE PUSH1 0x20 ADD SWAP1 DUP2 MSTORE PUSH1 0x20 ADD PUSH1 0x0 KECCAK256 PUSH1 0x40 MLOAD DUP1 PUSH1 0x80 ADD PUSH1 0x40 MSTORE SWAP1 DUP2 PUSH1 0x0 DUP3 ADD SLOAD DUP2 MSTORE PUSH1 0x20 ADD PUSH1 0x1 DUP3 ADD DUP1 SLOAD PUSH2 0x4C2 SWAP1 PUSH2 0x1E66 JUMP JUMPDEST DUP1 PUSH1 0x1F ADD PUSH1 0x20 DUP1 SWAP2 DIV MUL PUSH1 0x20 ADD PUSH1 0x40 MLOAD SWAP1 DUP2 ADD PUSH1 0x40 MSTORE DUP1 SWAP3 SWAP2 SWAP1 DUP2 DUP2 MSTORE PUSH1 0x20 ADD DUP3 DUP1 SLOAD PUSH2 0x4EE SWAP1 PUSH2 0x1E66 JUMP JUMPDEST DUP1 ISZERO PUSH2 0x53B JUMPI DUP1 PUSH1 0x1F LT PUSH2 0x510 JUMPI PUSH2 0x100 DUP1 DUP4 SLOAD DIV MUL DUP4 MSTORE SWAP2 PUSH1 0x20 ADD SWAP2 PUSH2 0x53B JUMP JUMPDEST DUP3 ADD SWAP2 SWAP1 PUSH1 0x0 MSTORE PUSH1 0x20 PUSH1 0x0 KECCAK256 SWAP1 JUMPDEST DUP2 SLOAD DUP2 MSTORE SWAP1 PUSH1 0x1 ADD SWAP1 PUSH1 0x20 ADD DUP1 DUP4 GT PUSH2 0x51E JUMPI DUP3 SWAP1 SUB PUSH1 0x1F AND DUP3 ADD SWAP2 JUMPDEST POP POP POP POP POP DUP2 MSTORE PUSH1 0x20 ADD PUSH1 0x2 DUP3 ADD DUP1 SLOAD PUSH2 0x554 SWAP1 PUSH2 0x1E66 JUMP JUMPDEST DUP1 PUSH1 0x1F ADD PUSH1 0x20 DUP1 SWAP2 DIV MUL PUSH1 0x20 ADD PUSH1 0x40 MLOAD SWAP1 DUP2 ADD PUSH1 0x40 MSTORE DUP1 SWAP3 SWAP2 SWAP1 DUP2 DUP2 MSTORE PUSH1 0x20 ADD DUP3 DUP1 SLOAD PUSH2 0x580 SWAP1 PUSH2 0x1E66 JUMP JUMPDEST DUP1 ISZERO PUSH2 0x5CD JUMPI DUP1 PUSH1 0x1F LT PUSH2 0x5A2 JUMPI PUSH2 0x100 DUP1 DUP4 SLOAD DIV MUL DUP4 MSTORE SWAP2 PUSH1 0x20 ADD SWAP2 PUSH2 0x5CD JUMP JUMPDEST DUP3 ADD SWAP2 SWAP1 PUSH1 0x0 MSTORE PUSH1 0x20 PUSH1 0x0 KECCAK256 SWAP1 JUMPDEST DUP2 SLOAD DUP2 MSTORE SWAP1 PUSH1 0x1 ADD SWAP1 PUSH1 0x20 ADD DUP1 DUP4 GT PUSH2 0x5B0 JUMPI DUP3 SWAP1 SUB PUSH1 0x1F AND DUP3 ADD SWAP2 JUMPDEST POP POP POP POP POP DUP2 MSTORE PUSH1 0x20 ADD PUSH1 0x3 DUP3 ADD SLOAD DUP2 MSTORE POP POP SWAP1 POP DUP1 PUSH1 0x3 PUSH1 0x0 DUP5 PUSH20 0xFFFFFFFFFFFFFFFFFFFFFFFFFFFFFFFFFFFFFFFF AND PUSH20 0xFFFFFFFFFFFFFFFFFFFFFFFFFFFFFFFFFFFFFFFF AND DUP2 MSTORE PUSH1 0x20 ADD SWAP1 DUP2 MSTORE PUSH1 0x20 ADD PUSH1 0x0 KECCAK256 PUSH1 0x0 DUP3 ADD MLOAD DUP2 PUSH1 0x0 ADD SSTORE PUSH1 0x20 DUP3 ADD MLOAD DUP2 PUSH1 0x1 ADD SWAP1 DUP1 MLOAD SWAP1 PUSH1 0x20 ADD SWAP1 PUSH2 0x648 SWAP3 SWAP2 SWAP1 PUSH2 0x1505 JUMP JUMPDEST POP PUSH1 0x40 DUP3 ADD MLOAD DUP2 PUSH1 0x2 ADD SWAP1 DUP1 MLOAD SWAP1 PUSH1 0x20 ADD SWAP1 PUSH2 0x665 SWAP3 SWAP2 SWAP1 PUSH2 0x1505 JUMP JUMPDEST POP PUSH1 0x60 DUP3 ADD MLOAD DUP2 PUSH1 0x3 ADD SSTORE SWAP1 POP POP DUP2 PUSH1 0x2 PUSH1 0x0 DUP4 PUSH1 0x0 ADD MLOAD DUP2 MSTORE PUSH1 0x20 ADD SWAP1 DUP2 MSTORE PUSH1 0x20 ADD PUSH1 0x0 KECCAK256 PUSH1 0x0 PUSH2 0x100 EXP DUP2 SLOAD DUP2 PUSH20 0xFFFFFFFFFFFFFFFFFFFFFFFFFFFFFFFFFFFFFFFF MUL NOT AND SWAP1 DUP4 PUSH20 0xFFFFFFFFFFFFFFFFFFFFFFFFFFFFFFFFFFFFFFFF AND MUL OR SWAP1 SSTORE POP POP POP JUMP JUMPDEST PUSH2 0x6D5 PUSH2 0x1439 JUMP JUMPDEST PUSH20 0xFFFFFFFFFFFFFFFFFFFFFFFFFFFFFFFFFFFFFFFF AND PUSH2 0x6F3 PUSH2 0x95B JUMP JUMPDEST PUSH20 0xFFFFFFFFFFFFFFFFFFFFFFFFFFFFFFFFFFFFFFFF AND EQ PUSH2 0x749 JUMPI PUSH1 0x40 MLOAD PUSH32 0x8C379A000000000000000000000000000000000000000000000000000000000 DUP2 MSTORE PUSH1 0x4 ADD PUSH2 0x740 SWAP1 PUSH2 0x1CC9 JUMP JUMPDEST PUSH1 0x40 MLOAD DUP1 SWAP2 SUB SWAP1 REVERT JUMPDEST DUP1 PUSH1 0x2 PUSH1 0x0 DUP5 DUP2 MSTORE PUSH1 0x20 ADD SWAP1 DUP2 MSTORE PUSH1 0x20 ADD PUSH1 0x0 KECCAK256 PUSH1 0x0 PUSH2 0x100 EXP DUP2 SLOAD DUP2 PUSH20 0xFFFFFFFFFFFFFFFFFFFFFFFFFFFFFFFFFFFFFFFF MUL NOT AND SWAP1 DUP4 PUSH20 0xFFFFFFFFFFFFFFFFFFFFFFFFFFFFFFFFFFFFFFFF AND MUL OR SWAP1 SSTORE POP DUP2 PUSH1 0x3 PUSH1 0x0 DUP4 PUSH20 0xFFFFFFFFFFFFFFFFFFFFFFFFFFFFFFFFFFFFFFFF AND PUSH20 0xFFFFFFFFFFFFFFFFFFFFFFFFFFFFFFFFFFFFFFFF AND DUP2 MSTORE PUSH1 0x20 ADD SWAP1 DUP2 MSTORE PUSH1 0x20 ADD PUSH1 0x0 KECCAK256 PUSH1 0x0 ADD DUP2 SWAP1 SSTORE POP POP POP JUMP JUMPDEST PUSH1 0x0 DUP1 PUSH1 0x2 PUSH1 0x0 DUP5 DUP2 MSTORE PUSH1 0x20 ADD SWAP1 DUP2 MSTORE PUSH1 0x20 ADD PUSH1 0x0 KECCAK256 PUSH1 0x0 SWAP1 SLOAD SWAP1 PUSH2 0x100 EXP SWAP1 DIV PUSH20 0xFFFFFFFFFFFFFFFFFFFFFFFFFFFFFFFFFFFFFFFF AND SWAP1 POP DUP1 SWAP2 POP POP SWAP2 SWAP1 POP JUMP JUMPDEST PUSH2 0x830 PUSH2 0x1439 JUMP JUMPDEST PUSH20 0xFFFFFFFFFFFFFFFFFFFFFFFFFFFFFFFFFFFFFFFF AND PUSH2 0x84E PUSH2 0x95B JUMP JUMPDEST PUSH20 0xFFFFFFFFFFFFFFFFFFFFFFFFFFFFFFFFFFFFFFFF AND EQ PUSH2 0x8A4 JUMPI PUSH1 0x40 MLOAD PUSH32 0x8C379A000000000000000000000000000000000000000000000000000000000 DUP2 MSTORE PUSH1 0x4 ADD PUSH2 0x89B SWAP1 PUSH2 0x1CC9 JUMP JUMPDEST PUSH1 0x40 MLOAD DUP1 SWAP2 SUB SWAP1 REVERT JUMPDEST PUSH2 0x8AE PUSH1 0x0 PUSH2 0x1441 JUMP JUMPDEST JUMP JUMPDEST PUSH2 0x8B8 PUSH2 0x1439 JUMP JUMPDEST PUSH20 0xFFFFFFFFFFFFFFFFFFFFFFFFFFFFFFFFFFFFFFFF AND PUSH2 0x8D6 PUSH2 0x95B JUMP JUMPDEST PUSH20 0xFFFFFFFFFFFFFFFFFFFFFFFFFFFFFFFFFFFFFFFF AND EQ PUSH2 0x92C JUMPI PUSH1 0x40 MLOAD PUSH32 0x8C379A000000000000000000000000000000000000000000000000000000000 DUP2 MSTORE PUSH1 0x4 ADD PUSH2 0x923 SWAP1 PUSH2 0x1CC9 JUMP JUMPDEST PUSH1 0x40 MLOAD DUP1 SWAP2 SUB SWAP1 REVERT JUMPDEST DUP1 PUSH1 0x4 PUSH1 0x0 DUP5 DUP2 MSTORE PUSH1 0x20 ADD SWAP1 DUP2 MSTORE PUSH1 0x20 ADD PUSH1 0x0 KECCAK256 PUSH1 0x0 PUSH2 0x100 EXP DUP2 SLOAD DUP2 PUSH1 0xFF MUL NOT AND SWAP1 DUP4 ISZERO ISZERO MUL OR SWAP1 SSTORE POP POP POP JUMP JUMPDEST PUSH1 0x0 DUP1 PUSH1 0x0 SWAP1 SLOAD SWAP1 PUSH2 0x100 EXP SWAP1 DIV PUSH20 0xFFFFFFFFFFFFFFFFFFFFFFFFFFFFFFFFFFFFFFFF AND SWAP1 POP SWAP1 JUMP JUMPDEST PUSH2 0x98C PUSH2 0x158B JUMP JUMPDEST PUSH1 0x0 PUSH1 0x2 PUSH1 0x0 DUP5 DUP2 MSTORE PUSH1 0x20 ADD SWAP1 DUP2 MSTORE PUSH1 0x20 ADD PUSH1 0x0 KECCAK256 PUSH1 0x0 SWAP1 SLOAD SWAP1 PUSH2 0x100 EXP SWAP1 DIV PUSH20 0xFFFFFFFFFFFFFFFFFFFFFFFFFFFFFFFFFFFFFFFF AND SWAP1 POP PUSH1 0x0 PUSH1 0x3 PUSH1 0x0 DUP4 PUSH20 0xFFFFFFFFFFFFFFFFFFFFFFFFFFFFFFFFFFFFFFFF AND PUSH20 0xFFFFFFFFFFFFFFFFFFFFFFFFFFFFFFFFFFFFFFFF AND DUP2 MSTORE PUSH1 0x20 ADD SWAP1 DUP2 MSTORE PUSH1 0x20 ADD PUSH1 0x0 KECCAK256 PUSH1 0x40 MLOAD DUP1 PUSH1 0x80 ADD PUSH1 0x40 MSTORE SWAP1 DUP2 PUSH1 0x0 DUP3 ADD SLOAD DUP2 MSTORE PUSH1 0x20 ADD PUSH1 0x1 DUP3 ADD DUP1 SLOAD PUSH2 0xA2A SWAP1 PUSH2 0x1E66 JUMP JUMPDEST DUP1 PUSH1 0x1F ADD PUSH1 0x20 DUP1 SWAP2 DIV MUL PUSH1 0x20 ADD PUSH1 0x40 MLOAD SWAP1 DUP2 ADD PUSH1 0x40 MSTORE DUP1 SWAP3 SWAP2 SWAP1 DUP2 DUP2 MSTORE PUSH1 0x20 ADD DUP3 DUP1 SLOAD PUSH2 0xA56 SWAP1 PUSH2 0x1E66 JUMP JUMPDEST DUP1 ISZERO PUSH2 0xAA3 JUMPI DUP1 PUSH1 0x1F LT PUSH2 0xA78 JUMPI PUSH2 0x100 DUP1 DUP4 SLOAD DIV MUL DUP4 MSTORE SWAP2 PUSH1 0x20 ADD SWAP2 PUSH2 0xAA3 JUMP JUMPDEST DUP3 ADD SWAP2 SWAP1 PUSH1 0x0 MSTORE PUSH1 0x20 PUSH1 0x0 KECCAK256 SWAP1 JUMPDEST DUP2 SLOAD DUP2 MSTORE SWAP1 PUSH1 0x1 ADD SWAP1 PUSH1 0x20 ADD DUP1 DUP4 GT PUSH2 0xA86 JUMPI DUP3 SWAP1 SUB PUSH1 0x1F AND DUP3 ADD SWAP2 JUMPDEST POP POP POP POP POP DUP2 MSTORE PUSH1 0x20 ADD PUSH1 0x2 DUP3 ADD DUP1 SLOAD PUSH2 0xABC SWAP1 PUSH2 0x1E66 JUMP JUMPDEST DUP1 PUSH1 0x1F ADD PUSH1 0x20 DUP1 SWAP2 DIV MUL PUSH1 0x20 ADD PUSH1 0x40 MLOAD SWAP1 DUP2 ADD PUSH1 0x40 MSTORE DUP1 SWAP3 SWAP2 SWAP1 DUP2 DUP2 MSTORE PUSH1 0x20 ADD DUP3 DUP1 SLOAD PUSH2 0xAE8 SWAP1 PUSH2 0x1E66 JUMP JUMPDEST DUP1 ISZERO PUSH2 0xB35 JUMPI DUP1 PUSH1 0x1F LT PUSH2 0xB0A JUMPI PUSH2 0x100 DUP1 DUP4 SLOAD DIV MUL DUP4 MSTORE SWAP2 PUSH1 0x20 ADD SWAP2 PUSH2 0xB35 JUMP JUMPDEST DUP3 ADD SWAP2 SWAP1 PUSH1 0x0 MSTORE PUSH1 0x20 PUSH1 0x0 KECCAK256 SWAP1 JUMPDEST DUP2 SLOAD DUP2 MSTORE SWAP1 PUSH1 0x1 ADD SWAP1 PUSH1 0x20 ADD DUP1 DUP4 GT PUSH2 0xB18 JUMPI DUP3 SWAP1 SUB PUSH1 0x1F AND DUP3 ADD SWAP2 JUMPDEST POP POP POP POP POP DUP2 MSTORE PUSH1 0x20 ADD PUSH1 0x3 DUP3 ADD SLOAD DUP2 MSTORE POP POP SWAP1 POP DUP1 SWAP3 POP POP POP SWAP2 SWAP1 POP JUMP JUMPDEST PUSH1 0x0 DUP1 DUP7 SWAP1 POP PUSH1 0x0 JUMPDEST DUP7 DUP7 SWAP1 POP DUP2 LT ISZERO PUSH2 0xC18 JUMPI PUSH1 0x0 DUP8 DUP8 DUP4 DUP2 DUP2 LT PUSH2 0xB7D JUMPI PUSH2 0xB7C PUSH2 0x1F7A JUMP JUMPDEST JUMPDEST SWAP1 POP PUSH1 0x20 MUL ADD CALLDATALOAD SWAP1 POP PUSH1 0x1 DUP7 DUP7 DUP5 DUP2 DUP2 LT PUSH2 0xB9B JUMPI PUSH2 0xB9A PUSH2 0x1F7A JUMP JUMPDEST JUMPDEST SWAP1 POP PUSH1 0x20 MUL ADD CALLDATALOAD EQ ISZERO PUSH2 0xBD8 JUMPI DUP3 DUP2 PUSH1 0x40 MLOAD PUSH1 0x20 ADD PUSH2 0xBBB SWAP3 SWAP2 SWAP1 PUSH2 0x1C17 JUMP JUMPDEST PUSH1 0x40 MLOAD PUSH1 0x20 DUP2 DUP4 SUB SUB DUP2 MSTORE SWAP1 PUSH1 0x40 MSTORE DUP1 MLOAD SWAP1 PUSH1 0x20 ADD KECCAK256 SWAP3 POP PUSH2 0xC04 JUMP JUMPDEST DUP1 DUP4 PUSH1 0x40 MLOAD PUSH1 0x20 ADD PUSH2 0xBEB SWAP3 SWAP2 SWAP1 PUSH2 0x1C17 JUMP JUMPDEST PUSH1 0x40 MLOAD PUSH1 0x20 DUP2 DUP4 SUB SUB DUP2 MSTORE SWAP1 PUSH1 0x40 MSTORE DUP1 MLOAD SWAP1 PUSH1 0x20 ADD KECCAK256 SWAP3 POP JUMPDEST POP DUP1 DUP1 PUSH2 0xC10 SWAP1 PUSH2 0x1EC9 JUMP JUMPDEST SWAP2 POP POP PUSH2 0xB5D JUMP JUMPDEST POP DUP8 DUP2 EQ SWAP2 POP POP SWAP7 SWAP6 POP POP POP POP POP POP JUMP JUMPDEST PUSH2 0xC31 PUSH2 0x158B JUMP JUMPDEST PUSH1 0x0 PUSH1 0x3 PUSH1 0x0 DUP5 PUSH20 0xFFFFFFFFFFFFFFFFFFFFFFFFFFFFFFFFFFFFFFFF AND PUSH20 0xFFFFFFFFFFFFFFFFFFFFFFFFFFFFFFFFFFFFFFFF AND DUP2 MSTORE PUSH1 0x20 ADD SWAP1 DUP2 MSTORE PUSH1 0x20 ADD PUSH1 0x0 KECCAK256 PUSH1 0x40 MLOAD DUP1 PUSH1 0x80 ADD PUSH1 0x40 MSTORE SWAP1 DUP2 PUSH1 0x0 DUP3 ADD SLOAD DUP2 MSTORE PUSH1 0x20 ADD PUSH1 0x1 DUP3 ADD DUP1 SLOAD PUSH2 0xC97 SWAP1 PUSH2 0x1E66 JUMP JUMPDEST DUP1 PUSH1 0x1F ADD PUSH1 0x20 DUP1 SWAP2 DIV MUL PUSH1 0x20 ADD PUSH1 0x40 MLOAD SWAP1 DUP2 ADD PUSH1 0x40 MSTORE DUP1 SWAP3 SWAP2 SWAP1 DUP2 DUP2 MSTORE PUSH1 0x20 ADD DUP3 DUP1 SLOAD PUSH2 0xCC3 SWAP1 PUSH2 0x1E66 JUMP JUMPDEST DUP1 ISZERO PUSH2 0xD10 JUMPI DUP1 PUSH1 0x1F LT PUSH2 0xCE5 JUMPI PUSH2 0x100 DUP1 DUP4 SLOAD DIV MUL DUP4 MSTORE SWAP2 PUSH1 0x20 ADD SWAP2 PUSH2 0xD10 JUMP JUMPDEST DUP3 ADD SWAP2 SWAP1 PUSH1 0x0 MSTORE PUSH1 0x20 PUSH1 0x0 KECCAK256 SWAP1 JUMPDEST DUP2 SLOAD DUP2 MSTORE SWAP1 PUSH1 0x1 ADD SWAP1 PUSH1 0x20 ADD DUP1 DUP4 GT PUSH2 0xCF3 JUMPI DUP3 SWAP1 SUB PUSH1 0x1F AND DUP3 ADD SWAP2 JUMPDEST POP POP POP POP POP DUP2 MSTORE PUSH1 0x20 ADD PUSH1 0x2 DUP3 ADD DUP1 SLOAD PUSH2 0xD29 SWAP1 PUSH2 0x1E66 JUMP JUMPDEST DUP1 PUSH1 0x1F ADD PUSH1 0x20 DUP1 SWAP2 DIV MUL PUSH1 0x20 ADD PUSH1 0x40 MLOAD SWAP1 DUP2 ADD PUSH1 0x40 MSTORE DUP1 SWAP3 SWAP2 SWAP1 DUP2 DUP2 MSTORE PUSH1 0x20 ADD DUP3 DUP1 SLOAD PUSH2 0xD55 SWAP1 PUSH2 0x1E66 JUMP JUMPDEST DUP1 ISZERO PUSH2 0xDA2 JUMPI DUP1 PUSH1 0x1F LT PUSH2 0xD77 JUMPI PUSH2 0x100 DUP1 DUP4 SLOAD DIV MUL DUP4 MSTORE SWAP2 PUSH1 0x20 ADD SWAP2 PUSH2 0xDA2 JUMP JUMPDEST DUP3 ADD SWAP2 SWAP1 PUSH1 0x0 MSTORE PUSH1 0x20 PUSH1 0x0 KECCAK256 SWAP1 JUMPDEST DUP2 SLOAD DUP2 MSTORE SWAP1 PUSH1 0x1 ADD SWAP1 PUSH1 0x20 ADD DUP1 DUP4 GT PUSH2 0xD85 JUMPI DUP3 SWAP1 SUB PUSH1 0x1F AND DUP3 ADD SWAP2 JUMPDEST POP POP POP POP POP DUP2 MSTORE PUSH1 0x20 ADD PUSH1 0x3 DUP3 ADD SLOAD DUP2 MSTORE POP POP SWAP1 POP DUP1 SWAP2 POP POP SWAP2 SWAP1 POP JUMP JUMPDEST PUSH1 0x0 DUP1 PUSH1 0x3 PUSH1 0x0 DUP5 PUSH20 0xFFFFFFFFFFFFFFFFFFFFFFFFFFFFFFFFFFFFFFFF AND PUSH20 0xFFFFFFFFFFFFFFFFFFFFFFFFFFFFFFFFFFFFFFFF AND DUP2 MSTORE PUSH1 0x20 ADD SWAP1 DUP2 MSTORE PUSH1 0x20 ADD PUSH1 0x0 KECCAK256 PUSH1 0x40 MLOAD DUP1 PUSH1 0x80 ADD PUSH1 0x40 MSTORE SWAP1 DUP2 PUSH1 0x0 DUP3 ADD SLOAD DUP2 MSTORE PUSH1 0x20 ADD PUSH1 0x1 DUP3 ADD DUP1 SLOAD PUSH2 0xE27 SWAP1 PUSH2 0x1E66 JUMP JUMPDEST DUP1 PUSH1 0x1F ADD PUSH1 0x20 DUP1 SWAP2 DIV MUL PUSH1 0x20 ADD PUSH1 0x40 MLOAD SWAP1 DUP2 ADD PUSH1 0x40 MSTORE DUP1 SWAP3 SWAP2 SWAP1 DUP2 DUP2 MSTORE PUSH1 0x20 ADD DUP3 DUP1 SLOAD PUSH2 0xE53 SWAP1 PUSH2 0x1E66 JUMP JUMPDEST DUP1 ISZERO PUSH2 0xEA0 JUMPI DUP1 PUSH1 0x1F LT PUSH2 0xE75 JUMPI PUSH2 0x100 DUP1 DUP4 SLOAD DIV MUL DUP4 MSTORE SWAP2 PUSH1 0x20 ADD SWAP2 PUSH2 0xEA0 JUMP JUMPDEST DUP3 ADD SWAP2 SWAP1 PUSH1 0x0 MSTORE PUSH1 0x20 PUSH1 0x0 KECCAK256 SWAP1 JUMPDEST DUP2 SLOAD DUP2 MSTORE SWAP1 PUSH1 0x1 ADD SWAP1 PUSH1 0x20 ADD DUP1 DUP4 GT PUSH2 0xE83 JUMPI DUP3 SWAP1 SUB PUSH1 0x1F AND DUP3 ADD SWAP2 JUMPDEST POP POP POP POP POP DUP2 MSTORE PUSH1 0x20 ADD PUSH1 0x2 DUP3 ADD DUP1 SLOAD PUSH2 0xEB9 SWAP1 PUSH2 0x1E66 JUMP JUMPDEST DUP1 PUSH1 0x1F ADD PUSH1 0x20 DUP1 SWAP2 DIV MUL PUSH1 0x20 ADD PUSH1 0x40 MLOAD SWAP1 DUP2 ADD PUSH1 0x40 MSTORE DUP1 SWAP3 SWAP2 SWAP1 DUP2 DUP2 MSTORE PUSH1 0x20 ADD DUP3 DUP1 SLOAD PUSH2 0xEE5 SWAP1 PUSH2 0x1E66 JUMP JUMPDEST DUP1 ISZERO PUSH2 0xF32 JUMPI DUP1 PUSH1 0x1F LT PUSH2 0xF07 JUMPI PUSH2 0x100 DUP1 DUP4 SLOAD DIV MUL DUP4 MSTORE SWAP2 PUSH1 0x20 ADD SWAP2 PUSH2 0xF32 JUMP JUMPDEST DUP3 ADD SWAP2 SWAP1 PUSH1 0x0 MSTORE PUSH1 0x20 PUSH1 0x0 KECCAK256 SWAP1 JUMPDEST DUP2 SLOAD DUP2 MSTORE SWAP1 PUSH1 0x1 ADD SWAP1 PUSH1 0x20 ADD DUP1 DUP4 GT PUSH2 0xF15 JUMPI DUP3 SWAP1 SUB PUSH1 0x1F AND DUP3 ADD SWAP2 JUMPDEST POP POP POP POP POP DUP2 MSTORE PUSH1 0x20 ADD PUSH1 0x3 DUP3 ADD SLOAD DUP2 MSTORE POP POP SWAP1 POP DUP1 PUSH1 0x0 ADD MLOAD SWAP2 POP POP SWAP2 SWAP1 POP JUMP JUMPDEST PUSH1 0x0 PUSH1 0x3 PUSH1 0x0 CALLER PUSH20 0xFFFFFFFFFFFFFFFFFFFFFFFFFFFFFFFFFFFFFFFF AND PUSH20 0xFFFFFFFFFFFFFFFFFFFFFFFFFFFFFFFFFFFFFFFF AND DUP2 MSTORE PUSH1 0x20 ADD SWAP1 DUP2 MSTORE PUSH1 0x20 ADD PUSH1 0x0 KECCAK256 SWAP1 POP DUP4 DUP2 PUSH1 0x1 ADD SWAP1 DUP1 MLOAD SWAP1 PUSH1 0x20 ADD SWAP1 PUSH2 0xFAF SWAP3 SWAP2 SWAP1 PUSH2 0x1505 JUMP JUMPDEST POP DUP3 DUP2 PUSH1 0x2 ADD SWAP1 DUP1 MLOAD SWAP1 PUSH1 0x20 ADD SWAP1 PUSH2 0xFC8 SWAP3 SWAP2 SWAP1 PUSH2 0x1505 JUMP JUMPDEST POP DUP2 DUP2 PUSH1 0x3 ADD DUP2 SWAP1 SSTORE POP POP POP POP POP JUMP JUMPDEST PUSH2 0xFE0 PUSH2 0x1439 JUMP JUMPDEST PUSH20 0xFFFFFFFFFFFFFFFFFFFFFFFFFFFFFFFFFFFFFFFF AND PUSH2 0xFFE PUSH2 0x95B JUMP JUMPDEST PUSH20 0xFFFFFFFFFFFFFFFFFFFFFFFFFFFFFFFFFFFFFFFF AND EQ PUSH2 0x1054 JUMPI PUSH1 0x40 MLOAD PUSH32 0x8C379A000000000000000000000000000000000000000000000000000000000 DUP2 MSTORE PUSH1 0x4 ADD PUSH2 0x104B SWAP1 PUSH2 0x1CC9 JUMP JUMPDEST PUSH1 0x40 MLOAD DUP1 SWAP2 SUB SWAP1 REVERT JUMPDEST PUSH1 0x0 ADDRESS SWAP1 POP PUSH1 0x0 PUSH1 0x1 PUSH1 0x0 SWAP1 SLOAD SWAP1 PUSH2 0x100 EXP SWAP1 DIV PUSH20 0xFFFFFFFFFFFFFFFFFFFFFFFFFFFFFFFFFFFFFFFF AND PUSH20 0xFFFFFFFFFFFFFFFFFFFFFFFFFFFFFFFFFFFFFFFF AND PUSH4 0xCF378343 DUP4 DUP8 PUSH1 0x40 MLOAD DUP4 PUSH4 0xFFFFFFFF AND PUSH1 0xE0 SHL DUP2 MSTORE PUSH1 0x4 ADD PUSH2 0x10B8 SWAP3 SWAP2 SWAP1 PUSH2 0x1C5E JUMP JUMPDEST PUSH1 0x20 PUSH1 0x40 MLOAD DUP1 DUP4 SUB DUP2 PUSH1 0x0 DUP8 DUP1 EXTCODESIZE ISZERO DUP1 ISZERO PUSH2 0x10D2 JUMPI PUSH1 0x0 DUP1 REVERT JUMPDEST POP GAS CALL ISZERO DUP1 ISZERO PUSH2 0x10E6 JUMPI RETURNDATASIZE PUSH1 0x0 DUP1 RETURNDATACOPY RETURNDATASIZE PUSH1 0x0 REVERT JUMPDEST POP POP POP POP PUSH1 0x40 MLOAD RETURNDATASIZE PUSH1 0x1F NOT PUSH1 0x1F DUP3 ADD AND DUP3 ADD DUP1 PUSH1 0x40 MSTORE POP DUP2 ADD SWAP1 PUSH2 0x110A SWAP2 SWAP1 PUSH2 0x19F5 JUMP JUMPDEST SWAP1 POP PUSH1 0x1 PUSH1 0x0 SWAP1 SLOAD SWAP1 PUSH2 0x100 EXP SWAP1 DIV PUSH20 0xFFFFFFFFFFFFFFFFFFFFFFFFFFFFFFFFFFFFFFFF AND PUSH20 0xFFFFFFFFFFFFFFFFFFFFFFFFFFFFFFFFFFFFFFFF AND PUSH4 0xE1B2E979 DUP3 DUP6 PUSH1 0x40 MLOAD DUP4 PUSH4 0xFFFFFFFF AND PUSH1 0xE0 SHL DUP2 MSTORE PUSH1 0x4 ADD PUSH2 0x1169 SWAP3 SWAP2 SWAP1 PUSH2 0x1D26 JUMP JUMPDEST PUSH1 0x0 PUSH1 0x40 MLOAD DUP1 DUP4 SUB DUP2 PUSH1 0x0 DUP8 DUP1 EXTCODESIZE ISZERO DUP1 ISZERO PUSH2 0x1183 JUMPI PUSH1 0x0 DUP1 REVERT JUMPDEST POP GAS CALL ISZERO DUP1 ISZERO PUSH2 0x1197 JUMPI RETURNDATASIZE PUSH1 0x0 DUP1 RETURNDATACOPY RETURNDATASIZE PUSH1 0x0 REVERT JUMPDEST POP POP POP POP PUSH2 0x11A6 DUP2 PUSH1 0x1 PUSH2 0x8B0 JUMP JUMPDEST PUSH2 0x11B0 DUP2 DUP6 PUSH2 0x6CD JUMP JUMPDEST POP POP POP POP POP JUMP JUMPDEST PUSH1 0x0 PUSH1 0x3 PUSH1 0x0 CALLER PUSH20 0xFFFFFFFFFFFFFFFFFFFFFFFFFFFFFFFFFFFFFFFF AND PUSH20 0xFFFFFFFFFFFFFFFFFFFFFFFFFFFFFFFFFFFFFFFF AND DUP2 MSTORE PUSH1 0x20 ADD SWAP1 DUP2 MSTORE PUSH1 0x20 ADD PUSH1 0x0 KECCAK256 SWAP1 POP DUP2 DUP2 PUSH1 0x1 ADD SWAP1 DUP1 MLOAD SWAP1 PUSH1 0x20 ADD SWAP1 PUSH2 0x1212 SWAP3 SWAP2 SWAP1 PUSH2 0x1505 JUMP JUMPDEST POP POP POP JUMP JUMPDEST PUSH2 0x121F PUSH2 0x1439 JUMP JUMPDEST PUSH20 0xFFFFFFFFFFFFFFFFFFFFFFFFFFFFFFFFFFFFFFFF AND PUSH2 0x123D PUSH2 0x95B JUMP JUMPDEST PUSH20 0xFFFFFFFFFFFFFFFFFFFFFFFFFFFFFFFFFFFFFFFF AND EQ PUSH2 0x1293 JUMPI PUSH1 0x40 MLOAD PUSH32 0x8C379A000000000000000000000000000000000000000000000000000000000 DUP2 MSTORE PUSH1 0x4 ADD PUSH2 0x128A SWAP1 PUSH2 0x1CC9 JUMP JUMPDEST PUSH1 0x40 MLOAD DUP1 SWAP2 SUB SWAP1 REVERT JUMPDEST PUSH1 0x0 PUSH20 0xFFFFFFFFFFFFFFFFFFFFFFFFFFFFFFFFFFFFFFFF AND DUP2 PUSH20 0xFFFFFFFFFFFFFFFFFFFFFFFFFFFFFFFFFFFFFFFF AND EQ ISZERO PUSH2 0x1303 JUMPI PUSH1 0x40 MLOAD PUSH32 0x8C379A000000000000000000000000000000000000000000000000000000000 DUP2 MSTORE PUSH1 0x4 ADD PUSH2 0x12FA SWAP1 PUSH2 0x1CA9 JUMP JUMPDEST PUSH1 0x40 MLOAD DUP1 SWAP2 SUB SWAP1 REVERT JUMPDEST PUSH2 0x130C DUP2 PUSH2 0x1441 JUMP JUMPDEST POP JUMP JUMPDEST PUSH1 0x0 PUSH1 0x3 PUSH1 0x0 CALLER PUSH20 0xFFFFFFFFFFFFFFFFFFFFFFFFFFFFFFFFFFFFFFFF AND PUSH20 0xFFFFFFFFFFFFFFFFFFFFFFFFFFFFFFFFFFFFFFFF AND DUP2 MSTORE PUSH1 0x20 ADD SWAP1 DUP2 MSTORE PUSH1 0x20 ADD PUSH1 0x0 KECCAK256 SWAP1 POP DUP3 DUP2 PUSH1 0x2 ADD SWAP1 DUP1 MLOAD SWAP1 PUSH1 0x20 ADD SWAP1 PUSH2 0x136A SWAP3 SWAP2 SWAP1 PUSH2 0x1505 JUMP JUMPDEST POP DUP2 DUP2 PUSH1 0x3 ADD DUP2 SWAP1 SSTORE POP POP POP POP JUMP JUMPDEST PUSH2 0x1381 PUSH2 0x1439 JUMP JUMPDEST PUSH20 0xFFFFFFFFFFFFFFFFFFFFFFFFFFFFFFFFFFFFFFFF AND PUSH2 0x139F PUSH2 0x95B JUMP JUMPDEST PUSH20 0xFFFFFFFFFFFFFFFFFFFFFFFFFFFFFFFFFFFFFFFF AND EQ PUSH2 0x13F5 JUMPI PUSH1 0x40 MLOAD PUSH32 0x8C379A000000000000000000000000000000000000000000000000000000000 DUP2 MSTORE PUSH1 0x4 ADD PUSH2 0x13EC SWAP1 PUSH2 0x1CC9 JUMP JUMPDEST PUSH1 0x40 MLOAD DUP1 SWAP2 SUB SWAP1 REVERT JUMPDEST DUP1 PUSH1 0x1 PUSH1 0x0 PUSH2 0x100 EXP DUP2 SLOAD DUP2 PUSH20 0xFFFFFFFFFFFFFFFFFFFFFFFFFFFFFFFFFFFFFFFF MUL NOT AND SWAP1 DUP4 PUSH20 0xFFFFFFFFFFFFFFFFFFFFFFFFFFFFFFFFFFFFFFFF AND MUL OR SWAP1 SSTORE POP POP JUMP JUMPDEST PUSH1 0x0 CALLER SWAP1 POP SWAP1 JUMP JUMPDEST PUSH1 0x0 DUP1 PUSH1 0x0 SWAP1 SLOAD SWAP1 PUSH2 0x100 EXP SWAP1 DIV PUSH20 0xFFFFFFFFFFFFFFFFFFFFFFFFFFFFFFFFFFFFFFFF AND SWAP1 POP DUP2 PUSH1 0x0 DUP1 PUSH2 0x100 EXP DUP2 SLOAD DUP2 PUSH20 0xFFFFFFFFFFFFFFFFFFFFFFFFFFFFFFFFFFFFFFFF MUL NOT AND SWAP1 DUP4 PUSH20 0xFFFFFFFFFFFFFFFFFFFFFFFFFFFFFFFFFFFFFFFF AND MUL OR SWAP1 SSTORE POP DUP2 PUSH20 0xFFFFFFFFFFFFFFFFFFFFFFFFFFFFFFFFFFFFFFFF AND DUP2 PUSH20 0xFFFFFFFFFFFFFFFFFFFFFFFFFFFFFFFFFFFFFFFF AND PUSH32 0x8BE0079C531659141344CD1FD0A4F28419497F9722A3DAAFE3B4186F6B6457E0 PUSH1 0x40 MLOAD PUSH1 0x40 MLOAD DUP1 SWAP2 SUB SWAP1 LOG3 POP POP JUMP JUMPDEST DUP3 DUP1 SLOAD PUSH2 0x1511 SWAP1 PUSH2 0x1E66 JUMP JUMPDEST SWAP1 PUSH1 0x0 MSTORE PUSH1 0x20 PUSH1 0x0 KECCAK256 SWAP1 PUSH1 0x1F ADD PUSH1 0x20 SWAP1 DIV DUP2 ADD SWAP3 DUP3 PUSH2 0x1533 JUMPI PUSH1 0x0 DUP6 SSTORE PUSH2 0x157A JUMP JUMPDEST DUP3 PUSH1 0x1F LT PUSH2 0x154C JUMPI DUP1 MLOAD PUSH1 0xFF NOT AND DUP4 DUP1 ADD OR DUP6 SSTORE PUSH2 0x157A JUMP JUMPDEST DUP3 DUP1 ADD PUSH1 0x1 ADD DUP6 SSTORE DUP3 ISZERO PUSH2 0x157A JUMPI SWAP2 DUP3 ADD JUMPDEST DUP3 DUP2 GT ISZERO PUSH2 0x1579 JUMPI DUP3 MLOAD DUP3 SSTORE SWAP2 PUSH1 0x20 ADD SWAP2 SWAP1 PUSH1 0x1 ADD SWAP1 PUSH2 0x155E JUMP JUMPDEST JUMPDEST POP SWAP1 POP PUSH2 0x1587 SWAP2 SWAP1 PUSH2 0x15B3 JUMP JUMPDEST POP SWAP1 JUMP JUMPDEST PUSH1 0x40 MLOAD DUP1 PUSH1 0x80 ADD PUSH1 0x40 MSTORE DUP1 PUSH1 0x0 DUP2 MSTORE PUSH1 0x20 ADD PUSH1 0x60 DUP2 MSTORE PUSH1 0x20 ADD PUSH1 0x60 DUP2 MSTORE PUSH1 0x20 ADD PUSH1 0x0 DUP2 MSTORE POP SWAP1 JUMP JUMPDEST JUMPDEST DUP1 DUP3 GT ISZERO PUSH2 0x15CC JUMPI PUSH1 0x0 DUP2 PUSH1 0x0 SWAP1 SSTORE POP PUSH1 0x1 ADD PUSH2 0x15B4 JUMP JUMPDEST POP SWAP1 JUMP JUMPDEST PUSH1 0x0 PUSH2 0x15E3 PUSH2 0x15DE DUP5 PUSH2 0x1D74 JUMP JUMPDEST PUSH2 0x1D4F JUMP JUMPDEST SWAP1 POP DUP3 DUP2 MSTORE PUSH1 0x20 DUP2 ADD DUP5 DUP5 DUP5 ADD GT ISZERO PUSH2 0x15FF JUMPI PUSH2 0x15FE PUSH2 0x1FE7 JUMP JUMPDEST JUMPDEST PUSH2 0x160A DUP5 DUP3 DUP6 PUSH2 0x1E24 JUMP JUMPDEST POP SWAP4 SWAP3 POP POP POP JUMP JUMPDEST PUSH1 0x0 DUP2 CALLDATALOAD SWAP1 POP PUSH2 0x1621 DUP2 PUSH2 0x207F JUMP JUMPDEST SWAP3 SWAP2 POP POP JUMP JUMPDEST PUSH1 0x0 DUP1 DUP4 PUSH1 0x1F DUP5 ADD SLT PUSH2 0x163D JUMPI PUSH2 0x163C PUSH2 0x1FDD JUMP JUMPDEST JUMPDEST DUP3 CALLDATALOAD SWAP1 POP PUSH8 0xFFFFFFFFFFFFFFFF DUP2 GT ISZERO PUSH2 0x165A JUMPI PUSH2 0x1659 PUSH2 0x1FD8 JUMP JUMPDEST JUMPDEST PUSH1 0x20 DUP4 ADD SWAP2 POP DUP4 PUSH1 0x20 DUP3 MUL DUP4 ADD GT ISZERO PUSH2 0x1676 JUMPI PUSH2 0x1675 PUSH2 0x1FE2 JUMP JUMPDEST JUMPDEST SWAP3 POP SWAP3 SWAP1 POP JUMP JUMPDEST PUSH1 0x0 DUP1 DUP4 PUSH1 0x1F DUP5 ADD SLT PUSH2 0x1693 JUMPI PUSH2 0x1692 PUSH2 0x1FDD JUMP JUMPDEST JUMPDEST DUP3 CALLDATALOAD SWAP1 POP PUSH8 0xFFFFFFFFFFFFFFFF DUP2 GT ISZERO PUSH2 0x16B0 JUMPI PUSH2 0x16AF PUSH2 0x1FD8 JUMP JUMPDEST JUMPDEST PUSH1 0x20 DUP4 ADD SWAP2 POP DUP4 PUSH1 0x20 DUP3 MUL DUP4 ADD GT ISZERO PUSH2 0x16CC JUMPI PUSH2 0x16CB PUSH2 0x1FE2 JUMP JUMPDEST JUMPDEST SWAP3 POP SWAP3 SWAP1 POP JUMP JUMPDEST PUSH1 0x0 DUP2 CALLDATALOAD SWAP1 POP PUSH2 0x16E2 DUP2 PUSH2 0x2096 JUMP JUMPDEST SWAP3 SWAP2 POP POP JUMP JUMPDEST PUSH1 0x0 DUP2 CALLDATALOAD SWAP1 POP PUSH2 0x16F7 DUP2 PUSH2 0x20AD JUMP JUMPDEST SWAP3 SWAP2 POP POP JUMP JUMPDEST PUSH1 0x0 DUP3 PUSH1 0x1F DUP4 ADD SLT PUSH2 0x1712 JUMPI PUSH2 0x1711 PUSH2 0x1FDD JUMP JUMPDEST JUMPDEST DUP2 CALLDATALOAD PUSH2 0x1722 DUP5 DUP3 PUSH1 0x20 DUP7 ADD PUSH2 0x15D0 JUMP JUMPDEST SWAP2 POP POP SWAP3 SWAP2 POP POP JUMP JUMPDEST PUSH1 0x0 DUP2 CALLDATALOAD SWAP1 POP PUSH2 0x173A DUP2 PUSH2 0x20C4 JUMP JUMPDEST SWAP3 SWAP2 POP POP JUMP JUMPDEST PUSH1 0x0 DUP2 MLOAD SWAP1 POP PUSH2 0x174F DUP2 PUSH2 0x20C4 JUMP JUMPDEST SWAP3 SWAP2 POP POP JUMP JUMPDEST PUSH1 0x0 PUSH1 0x20 DUP3 DUP5 SUB SLT ISZERO PUSH2 0x176B JUMPI PUSH2 0x176A PUSH2 0x1FF1 JUMP JUMPDEST JUMPDEST PUSH1 0x0 PUSH2 0x1779 DUP5 DUP3 DUP6 ADD PUSH2 0x1612 JUMP JUMPDEST SWAP2 POP POP SWAP3 SWAP2 POP POP JUMP JUMPDEST PUSH1 0x0 DUP1 PUSH1 0x0 DUP1 PUSH1 0x0 DUP1 PUSH1 0x80 DUP8 DUP10 SUB SLT ISZERO PUSH2 0x179F JUMPI PUSH2 0x179E PUSH2 0x1FF1 JUMP JUMPDEST JUMPDEST PUSH1 0x0 PUSH2 0x17AD DUP10 DUP3 DUP11 ADD PUSH2 0x16E8 JUMP JUMPDEST SWAP7 POP POP PUSH1 0x20 PUSH2 0x17BE DUP10 DUP3 DUP11 ADD PUSH2 0x16E8 JUMP JUMPDEST SWAP6 POP POP PUSH1 0x40 DUP8 ADD CALLDATALOAD PUSH8 0xFFFFFFFFFFFFFFFF DUP2 GT ISZERO PUSH2 0x17DF JUMPI PUSH2 0x17DE PUSH2 0x1FEC JUMP JUMPDEST JUMPDEST PUSH2 0x17EB DUP10 DUP3 DUP11 ADD PUSH2 0x1627 JUMP JUMPDEST SWAP5 POP SWAP5 POP POP PUSH1 0x60 DUP8 ADD CALLDATALOAD PUSH8 0xFFFFFFFFFFFFFFFF DUP2 GT ISZERO PUSH2 0x180E JUMPI PUSH2 0x180D PUSH2 0x1FEC JUMP JUMPDEST JUMPDEST PUSH2 0x181A DUP10 DUP3 DUP11 ADD PUSH2 0x167D JUMP JUMPDEST SWAP3 POP SWAP3 POP POP SWAP3 SWAP6 POP SWAP3 SWAP6 POP SWAP3 SWAP6 JUMP JUMPDEST PUSH1 0x0 PUSH1 0x20 DUP3 DUP5 SUB SLT ISZERO PUSH2 0x183F JUMPI PUSH2 0x183E PUSH2 0x1FF1 JUMP JUMPDEST JUMPDEST PUSH1 0x0 DUP3 ADD CALLDATALOAD PUSH8 0xFFFFFFFFFFFFFFFF DUP2 GT ISZERO PUSH2 0x185D JUMPI PUSH2 0x185C PUSH2 0x1FEC JUMP JUMPDEST JUMPDEST PUSH2 0x1869 DUP5 DUP3 DUP6 ADD PUSH2 0x16FD JUMP JUMPDEST SWAP2 POP POP SWAP3 SWAP2 POP POP JUMP JUMPDEST PUSH1 0x0 DUP1 PUSH1 0x0 PUSH1 0x60 DUP5 DUP7 SUB SLT ISZERO PUSH2 0x188B JUMPI PUSH2 0x188A PUSH2 0x1FF1 JUMP JUMPDEST JUMPDEST PUSH1 0x0 DUP5 ADD CALLDATALOAD PUSH8 0xFFFFFFFFFFFFFFFF DUP2 GT ISZERO PUSH2 0x18A9 JUMPI PUSH2 0x18A8 PUSH2 0x1FEC JUMP JUMPDEST JUMPDEST PUSH2 0x18B5 DUP7 DUP3 DUP8 ADD PUSH2 0x16FD JUMP JUMPDEST SWAP4 POP POP PUSH1 0x20 PUSH2 0x18C6 DUP7 DUP3 DUP8 ADD PUSH2 0x1612 JUMP JUMPDEST SWAP3 POP POP PUSH1 0x40 PUSH2 0x18D7 DUP7 DUP3 DUP8 ADD PUSH2 0x172B JUMP JUMPDEST SWAP2 POP POP SWAP3 POP SWAP3 POP SWAP3 JUMP JUMPDEST PUSH1 0x0 DUP1 PUSH1 0x0 PUSH1 0x60 DUP5 DUP7 SUB SLT ISZERO PUSH2 0x18FA JUMPI PUSH2 0x18F9 PUSH2 0x1FF1 JUMP JUMPDEST JUMPDEST PUSH1 0x0 DUP5 ADD CALLDATALOAD PUSH8 0xFFFFFFFFFFFFFFFF DUP2 GT ISZERO PUSH2 0x1918 JUMPI PUSH2 0x1917 PUSH2 0x1FEC JUMP JUMPDEST JUMPDEST PUSH2 0x1924 DUP7 DUP3 DUP8 ADD PUSH2 0x16FD JUMP JUMPDEST SWAP4 POP POP PUSH1 0x20 DUP5 ADD CALLDATALOAD PUSH8 0xFFFFFFFFFFFFFFFF DUP2 GT ISZERO PUSH2 0x1945 JUMPI PUSH2 0x1944 PUSH2 0x1FEC JUMP JUMPDEST JUMPDEST PUSH2 0x1951 DUP7 DUP3 DUP8 ADD PUSH2 0x16FD JUMP JUMPDEST SWAP3 POP POP PUSH1 0x40 PUSH2 0x1962 DUP7 DUP3 DUP8 ADD PUSH2 0x172B JUMP JUMPDEST SWAP2 POP POP SWAP3 POP SWAP3 POP SWAP3 JUMP JUMPDEST PUSH1 0x0 DUP1 PUSH1 0x40 DUP4 DUP6 SUB SLT ISZERO PUSH2 0x1983 JUMPI PUSH2 0x1982 PUSH2 0x1FF1 JUMP JUMPDEST JUMPDEST PUSH1 0x0 DUP4 ADD CALLDATALOAD PUSH8 0xFFFFFFFFFFFFFFFF DUP2 GT ISZERO PUSH2 0x19A1 JUMPI PUSH2 0x19A0 PUSH2 0x1FEC JUMP JUMPDEST JUMPDEST PUSH2 0x19AD DUP6 DUP3 DUP7 ADD PUSH2 0x16FD JUMP JUMPDEST SWAP3 POP POP PUSH1 0x20 PUSH2 0x19BE DUP6 DUP3 DUP7 ADD PUSH2 0x172B JUMP JUMPDEST SWAP2 POP POP SWAP3 POP SWAP3 SWAP1 POP JUMP JUMPDEST PUSH1 0x0 PUSH1 0x20 DUP3 DUP5 SUB SLT ISZERO PUSH2 0x19DE JUMPI PUSH2 0x19DD PUSH2 0x1FF1 JUMP JUMPDEST JUMPDEST PUSH1 0x0 PUSH2 0x19EC DUP5 DUP3 DUP6 ADD PUSH2 0x172B JUMP JUMPDEST SWAP2 POP POP SWAP3 SWAP2 POP POP JUMP JUMPDEST PUSH1 0x0 PUSH1 0x20 DUP3 DUP5 SUB SLT ISZERO PUSH2 0x1A0B JUMPI PUSH2 0x1A0A PUSH2 0x1FF1 JUMP JUMPDEST JUMPDEST PUSH1 0x0 PUSH2 0x1A19 DUP5 DUP3 DUP6 ADD PUSH2 0x1740 JUMP JUMPDEST SWAP2 POP POP SWAP3 SWAP2 POP POP JUMP JUMPDEST PUSH1 0x0 DUP1 PUSH1 0x40 DUP4 DUP6 SUB SLT ISZERO PUSH2 0x1A39 JUMPI PUSH2 0x1A38 PUSH2 0x1FF1 JUMP JUMPDEST JUMPDEST PUSH1 0x0 PUSH2 0x1A47 DUP6 DUP3 DUP7 ADD PUSH2 0x172B JUMP JUMPDEST SWAP3 POP POP PUSH1 0x20 PUSH2 0x1A58 DUP6 DUP3 DUP7 ADD PUSH2 0x1612 JUMP JUMPDEST SWAP2 POP POP SWAP3 POP SWAP3 SWAP1 POP JUMP JUMPDEST PUSH1 0x0 DUP1 PUSH1 0x40 DUP4 DUP6 SUB SLT ISZERO PUSH2 0x1A79 JUMPI PUSH2 0x1A78 PUSH2 0x1FF1 JUMP JUMPDEST JUMPDEST PUSH1 0x0 PUSH2 0x1A87 DUP6 DUP3 DUP7 ADD PUSH2 0x172B JUMP JUMPDEST SWAP3 POP POP PUSH1 0x20 PUSH2 0x1A98 DUP6 DUP3 DUP7 ADD PUSH2 0x16D3 JUMP JUMPDEST SWAP2 POP POP SWAP3 POP SWAP3 SWAP1 POP JUMP JUMPDEST PUSH2 0x1AAB DUP2 PUSH2 0x1DD2 JUMP JUMPDEST DUP3 MSTORE POP POP JUMP JUMPDEST PUSH2 0x1ABA DUP2 PUSH2 0x1DE4 JUMP JUMPDEST DUP3 MSTORE POP POP JUMP JUMPDEST PUSH2 0x1AD1 PUSH2 0x1ACC DUP3 PUSH2 0x1DF0 JUMP JUMPDEST PUSH2 0x1F12 JUMP JUMPDEST DUP3 MSTORE POP POP JUMP JUMPDEST PUSH1 0x0 PUSH2 0x1AE2 DUP3 PUSH2 0x1DA5 JUMP JUMPDEST PUSH2 0x1AEC DUP2 DUP6 PUSH2 0x1DB0 JUMP JUMPDEST SWAP4 POP PUSH2 0x1AFC DUP2 DUP6 PUSH1 0x20 DUP7 ADD PUSH2 0x1E33 JUMP JUMPDEST PUSH2 0x1B05 DUP2 PUSH2 0x1FF6 JUMP JUMPDEST DUP5 ADD SWAP2 POP POP SWAP3 SWAP2 POP POP JUMP JUMPDEST PUSH1 0x0 PUSH2 0x1B1B DUP3 PUSH2 0x1DA5 JUMP JUMPDEST PUSH2 0x1B25 DUP2 DUP6 PUSH2 0x1DC1 JUMP JUMPDEST SWAP4 POP PUSH2 0x1B35 DUP2 DUP6 PUSH1 0x20 DUP7 ADD PUSH2 0x1E33 JUMP JUMPDEST PUSH2 0x1B3E DUP2 PUSH2 0x1FF6 JUMP JUMPDEST DUP5 ADD SWAP2 POP POP SWAP3 SWAP2 POP POP JUMP JUMPDEST PUSH1 0x0 PUSH2 0x1B56 PUSH1 0x26 DUP4 PUSH2 0x1DC1 JUMP JUMPDEST SWAP2 POP PUSH2 0x1B61 DUP3 PUSH2 0x2007 JUMP JUMPDEST PUSH1 0x40 DUP3 ADD SWAP1 POP SWAP2 SWAP1 POP JUMP JUMPDEST PUSH1 0x0 PUSH2 0x1B79 PUSH1 0x20 DUP4 PUSH2 0x1DC1 JUMP JUMPDEST SWAP2 POP PUSH2 0x1B84 DUP3 PUSH2 0x2056 JUMP JUMPDEST PUSH1 0x20 DUP3 ADD SWAP1 POP SWAP2 SWAP1 POP JUMP JUMPDEST PUSH1 0x0 PUSH1 0x80 DUP4 ADD PUSH1 0x0 DUP4 ADD MLOAD PUSH2 0x1BA7 PUSH1 0x0 DUP7 ADD DUP3 PUSH2 0x1BF9 JUMP JUMPDEST POP PUSH1 0x20 DUP4 ADD MLOAD DUP5 DUP3 SUB PUSH1 0x20 DUP7 ADD MSTORE PUSH2 0x1BBF DUP3 DUP3 PUSH2 0x1AD7 JUMP JUMPDEST SWAP2 POP POP PUSH1 0x40 DUP4 ADD MLOAD DUP5 DUP3 SUB PUSH1 0x40 DUP7 ADD MSTORE PUSH2 0x1BD9 DUP3 DUP3 PUSH2 0x1AD7 JUMP JUMPDEST SWAP2 POP POP PUSH1 0x60 DUP4 ADD MLOAD PUSH2 0x1BEE PUSH1 0x60 DUP7 ADD DUP3 PUSH2 0x1BF9 JUMP JUMPDEST POP DUP1 SWAP2 POP POP SWAP3 SWAP2 POP POP JUMP JUMPDEST PUSH2 0x1C02 DUP2 PUSH2 0x1E1A JUMP JUMPDEST DUP3 MSTORE POP POP JUMP JUMPDEST PUSH2 0x1C11 DUP2 PUSH2 0x1E1A JUMP JUMPDEST DUP3 MSTORE POP POP JUMP JUMPDEST PUSH1 0x0 PUSH2 0x1C23 DUP3 DUP6 PUSH2 0x1AC0 JUMP JUMPDEST PUSH1 0x20 DUP3 ADD SWAP2 POP PUSH2 0x1C33 DUP3 DUP5 PUSH2 0x1AC0 JUMP JUMPDEST PUSH1 0x20 DUP3 ADD SWAP2 POP DUP2 SWAP1 POP SWAP4 SWAP3 POP POP POP JUMP JUMPDEST PUSH1 0x0 PUSH1 0x20 DUP3 ADD SWAP1 POP PUSH2 0x1C58 PUSH1 0x0 DUP4 ADD DUP5 PUSH2 0x1AA2 JUMP JUMPDEST SWAP3 SWAP2 POP POP JUMP JUMPDEST PUSH1 0x0 PUSH1 0x40 DUP3 ADD SWAP1 POP PUSH2 0x1C73 PUSH1 0x0 DUP4 ADD DUP6 PUSH2 0x1AA2 JUMP JUMPDEST DUP2 DUP2 SUB PUSH1 0x20 DUP4 ADD MSTORE PUSH2 0x1C85 DUP2 DUP5 PUSH2 0x1B10 JUMP JUMPDEST SWAP1 POP SWAP4 SWAP3 POP POP POP JUMP JUMPDEST PUSH1 0x0 PUSH1 0x20 DUP3 ADD SWAP1 POP PUSH2 0x1CA3 PUSH1 0x0 DUP4 ADD DUP5 PUSH2 0x1AB1 JUMP JUMPDEST SWAP3 SWAP2 POP POP JUMP JUMPDEST PUSH1 0x0 PUSH1 0x20 DUP3 ADD SWAP1 POP DUP2 DUP2 SUB PUSH1 0x0 DUP4 ADD MSTORE PUSH2 0x1CC2 DUP2 PUSH2 0x1B49 JUMP JUMPDEST SWAP1 POP SWAP2 SWAP1 POP JUMP JUMPDEST PUSH1 0x0 PUSH1 0x20 DUP3 ADD SWAP1 POP DUP2 DUP2 SUB PUSH1 0x0 DUP4 ADD MSTORE PUSH2 0x1CE2 DUP2 PUSH2 0x1B6C JUMP JUMPDEST SWAP1 POP SWAP2 SWAP1 POP JUMP JUMPDEST PUSH1 0x0 PUSH1 0x20 DUP3 ADD SWAP1 POP DUP2 DUP2 SUB PUSH1 0x0 DUP4 ADD MSTORE PUSH2 0x1D03 DUP2 DUP5 PUSH2 0x1B8F JUMP JUMPDEST SWAP1 POP SWAP3 SWAP2 POP POP JUMP JUMPDEST PUSH1 0x0 PUSH1 0x20 DUP3 ADD SWAP1 POP PUSH2 0x1D20 PUSH1 0x0 DUP4 ADD DUP5 PUSH2 0x1C08 JUMP JUMPDEST SWAP3 SWAP2 POP POP JUMP JUMPDEST PUSH1 0x0 PUSH1 0x40 DUP3 ADD SWAP1 POP PUSH2 0x1D3B PUSH1 0x0 DUP4 ADD DUP6 PUSH2 0x1C08 JUMP JUMPDEST PUSH2 0x1D48 PUSH1 0x20 DUP4 ADD DUP5 PUSH2 0x1C08 JUMP JUMPDEST SWAP4 SWAP3 POP POP POP JUMP JUMPDEST PUSH1 0x0 PUSH2 0x1D59 PUSH2 0x1D6A JUMP JUMPDEST SWAP1 POP PUSH2 0x1D65 DUP3 DUP3 PUSH2 0x1E98 JUMP JUMPDEST SWAP2 SWAP1 POP JUMP JUMPDEST PUSH1 0x0 PUSH1 0x40 MLOAD SWAP1 POP SWAP1 JUMP JUMPDEST PUSH1 0x0 PUSH8 0xFFFFFFFFFFFFFFFF DUP3 GT ISZERO PUSH2 0x1D8F JUMPI PUSH2 0x1D8E PUSH2 0x1FA9 JUMP JUMPDEST JUMPDEST PUSH2 0x1D98 DUP3 PUSH2 0x1FF6 JUMP JUMPDEST SWAP1 POP PUSH1 0x20 DUP2 ADD SWAP1 POP SWAP2 SWAP1 POP JUMP JUMPDEST PUSH1 0x0 DUP2 MLOAD SWAP1 POP SWAP2 SWAP1 POP JUMP JUMPDEST PUSH1 0x0 DUP3 DUP3 MSTORE PUSH1 0x20 DUP3 ADD SWAP1 POP SWAP3 SWAP2 POP POP JUMP JUMPDEST PUSH1 0x0 DUP3 DUP3 MSTORE PUSH1 0x20 DUP3 ADD SWAP1 POP SWAP3 SWAP2 POP POP JUMP JUMPDEST PUSH1 0x0 PUSH2 0x1DDD DUP3 PUSH2 0x1DFA JUMP JUMPDEST SWAP1 POP SWAP2 SWAP1 POP JUMP JUMPDEST PUSH1 0x0 DUP2 ISZERO ISZERO SWAP1 POP SWAP2 SWAP1 POP JUMP JUMPDEST PUSH1 0x0 DUP2 SWAP1 POP SWAP2 SWAP1 POP JUMP JUMPDEST PUSH1 0x0 PUSH20 0xFFFFFFFFFFFFFFFFFFFFFFFFFFFFFFFFFFFFFFFF DUP3 AND SWAP1 POP SWAP2 SWAP1 POP JUMP JUMPDEST PUSH1 0x0 DUP2 SWAP1 POP SWAP2 SWAP1 POP JUMP JUMPDEST DUP3 DUP2 DUP4 CALLDATACOPY PUSH1 0x0 DUP4 DUP4 ADD MSTORE POP POP POP JUMP JUMPDEST PUSH1 0x0 JUMPDEST DUP4 DUP2 LT ISZERO PUSH2 0x1E51 JUMPI DUP1 DUP3 ADD MLOAD DUP2 DUP5 ADD MSTORE PUSH1 0x20 DUP2 ADD SWAP1 POP PUSH2 0x1E36 JUMP JUMPDEST DUP4 DUP2 GT ISZERO PUSH2 0x1E60 JUMPI PUSH1 0x0 DUP5 DUP5 ADD MSTORE JUMPDEST POP POP POP POP JUMP JUMPDEST PUSH1 0x0 PUSH1 0x2 DUP3 DIV SWAP1 POP PUSH1 0x1 DUP3 AND DUP1 PUSH2 0x1E7E JUMPI PUSH1 0x7F DUP3 AND SWAP2 POP JUMPDEST PUSH1 0x20 DUP3 LT DUP2 EQ ISZERO PUSH2 0x1E92 JUMPI PUSH2 0x1E91 PUSH2 0x1F4B JUMP JUMPDEST JUMPDEST POP SWAP2 SWAP1 POP JUMP JUMPDEST PUSH2 0x1EA1 DUP3 PUSH2 0x1FF6 JUMP JUMPDEST DUP2 ADD DUP2 DUP2 LT PUSH8 0xFFFFFFFFFFFFFFFF DUP3 GT OR ISZERO PUSH2 0x1EC0 JUMPI PUSH2 0x1EBF PUSH2 0x1FA9 JUMP JUMPDEST JUMPDEST DUP1 PUSH1 0x40 MSTORE POP POP POP JUMP JUMPDEST PUSH1 0x0 PUSH2 0x1ED4 DUP3 PUSH2 0x1E1A JUMP JUMPDEST SWAP2 POP PUSH32 0xFFFFFFFFFFFFFFFFFFFFFFFFFFFFFFFFFFFFFFFFFFFFFFFFFFFFFFFFFFFFFFFF DUP3 EQ ISZERO PUSH2 0x1F07 JUMPI PUSH2 0x1F06 PUSH2 0x1F1C JUMP JUMPDEST JUMPDEST PUSH1 0x1 DUP3 ADD SWAP1 POP SWAP2 SWAP1 POP JUMP JUMPDEST PUSH1 0x0 DUP2 SWAP1 POP SWAP2 SWAP1 POP JUMP JUMPDEST PUSH32 0x4E487B7100000000000000000000000000000000000000000000000000000000 PUSH1 0x0 MSTORE PUSH1 0x11 PUSH1 0x4 MSTORE PUSH1 0x24 PUSH1 0x0 REVERT JUMPDEST PUSH32 0x4E487B7100000000000000000000000000000000000000000000000000000000 PUSH1 0x0 MSTORE PUSH1 0x22 PUSH1 0x4 MSTORE PUSH1 0x24 PUSH1 0x0 REVERT JUMPDEST PUSH32 0x4E487B7100000000000000000000000000000000000000000000000000000000 PUSH1 0x0 MSTORE PUSH1 0x32 PUSH1 0x4 MSTORE PUSH1 0x24 PUSH1 0x0 REVERT JUMPDEST PUSH32 0x4E487B7100000000000000000000000000000000000000000000000000000000 PUSH1 0x0 MSTORE PUSH1 0x41 PUSH1 0x4 MSTORE PUSH1 0x24 PUSH1 0x0 REVERT JUMPDEST PUSH1 0x0 DUP1 REVERT JUMPDEST PUSH1 0x0 DUP1 REVERT JUMPDEST PUSH1 0x0 DUP1 REVERT JUMPDEST PUSH1 0x0 DUP1 REVERT JUMPDEST PUSH1 0x0 DUP1 REVERT JUMPDEST PUSH1 0x0 DUP1 REVERT JUMPDEST PUSH1 0x0 PUSH1 0x1F NOT PUSH1 0x1F DUP4 ADD AND SWAP1 POP SWAP2 SWAP1 POP JUMP JUMPDEST PUSH32 0x4F776E61626C653A206E6577206F776E657220697320746865207A65726F2061 PUSH1 0x0 DUP3 ADD MSTORE PUSH32 0x6464726573730000000000000000000000000000000000000000000000000000 PUSH1 0x20 DUP3 ADD MSTORE POP JUMP JUMPDEST PUSH32 0x4F776E61626C653A2063616C6C6572206973206E6F7420746865206F776E6572 PUSH1 0x0 DUP3 ADD MSTORE POP JUMP JUMPDEST PUSH2 0x2088 DUP2 PUSH2 0x1DD2 JUMP JUMPDEST DUP2 EQ PUSH2 0x2093 JUMPI PUSH1 0x0 DUP1 REVERT JUMPDEST POP JUMP JUMPDEST PUSH2 0x209F DUP2 PUSH2 0x1DE4 JUMP JUMPDEST DUP2 EQ PUSH2 0x20AA JUMPI PUSH1 0x0 DUP1 REVERT JUMPDEST POP JUMP JUMPDEST PUSH2 0x20B6 DUP2 PUSH2 0x1DF0 JUMP JUMPDEST DUP2 EQ PUSH2 0x20C1 JUMPI PUSH1 0x0 DUP1 REVERT JUMPDEST POP JUMP JUMPDEST PUSH2 0x20CD DUP2 PUSH2 0x1E1A JUMP JUMPDEST DUP2 EQ PUSH2 0x20D8 JUMPI PUSH1 0x0 DUP1 REVERT JUMPDEST POP JUMP INVALID LOG2 PUSH5 0x6970667358 0x22 SLT KECCAK256 SWAP16 0xB9 0x28 0xAF 0xBF 0x29 0xBB PUSH19 0x4DDCE342CDF59D496C46854A4137F190E3E04A 0xD2 0xEC 0xAF 0xF8 PUSH3 0x64736F PUSH13 0x63430008070033000000000000 "
				},
				"gasEstimates": {
					"creation": {
						"codeDepositCost": "1693000",
						"executionCost": "infinite",
						"totalCost": "infinite"
					},
					"external": {
						"": "203",
						"NFTIdOfManager(address)": "infinite",
						"availableOfNFTId(uint256)": "2846",
						"createKYCNFT(string,address,uint256)": "infinite",
						"initManagerAddr(uint256,address)": "49491",
						"managerOfNFTId(uint256)": "2968",
						"modifyManagerAddr(address)": "infinite",
						"owner()": "2589",
						"renounceOwnership()": "30397",
						"setKYCNFTContractAddress(address)": "27072",
						"setNFTAvailableOfNFTId(uint256,bool)": "27215",
						"transferOwnership(address)": "30789",
						"updateAccumulator(string,string,uint256)": "infinite",
						"updateAccumulatorPublicKey(string,uint256)": "infinite",
						"updateAccumulatorValue(string)": "infinite",
						"userDataOfManager(address)": "infinite",
						"userDataOfNFTId(uint256)": "infinite",
						"verify(bytes32,bytes32,bytes32[],uint256[])": "infinite"
					}
				},
				"methodIdentifiers": {
					"NFTIdOfManager(address)": "b2b72bc4",
					"availableOfNFTId(uint256)": "0e197dc9",
					"createKYCNFT(string,address,uint256)": "d1933ddd",
					"initManagerAddr(uint256,address)": "3960a892",
					"managerOfNFTId(uint256)": "4b3cef44",
					"modifyManagerAddr(address)": "1ff4bdf3",
					"owner()": "8da5cb5b",
					"renounceOwnership()": "715018a6",
					"setKYCNFTContractAddress(address)": "fbc2cf13",
					"setNFTAvailableOfNFTId(uint256,bool)": "717b9b6c",
					"transferOwnership(address)": "f2fde38b",
					"updateAccumulator(string,string,uint256)": "bafdee14",
					"updateAccumulatorPublicKey(string,uint256)": "fa0e9e41",
					"updateAccumulatorValue(string)": "d6f70eb3",
					"userDataOfManager(address)": "ad575035",
					"userDataOfNFTId(uint256)": "917b8fd0",
					"verify(bytes32,bytes32,bytes32[],uint256[])": "9bb6dcc8"
				}
			},
			"storageLayout": {
				"storage": [
					{
						"astId": 7,
						"contract": "contracts/KYCManager.sol:KYCManager",
						"label": "_owner",
						"offset": 0,
						"slot": "0",
						"type": "t_address"
					},
					{
						"astId": 160,
						"contract": "contracts/KYCManager.sol:KYCManager",
						"label": "kycNFTContract",
						"offset": 0,
						"slot": "1",
						"type": "t_contract(KYCNFTInterface)146"
					},
					{
						"astId": 164,
						"contract": "contracts/KYCManager.sol:KYCManager",
						"label": "NFTIdToManager",
						"offset": 0,
						"slot": "2",
						"type": "t_mapping(t_uint256,t_address)"
					},
					{
						"astId": 169,
						"contract": "contracts/KYCManager.sol:KYCManager",
						"label": "ManagerToUserData",
						"offset": 0,
						"slot": "3",
						"type": "t_mapping(t_address,t_struct(UserData)157_storage)"
					},
					{
						"astId": 173,
						"contract": "contracts/KYCManager.sol:KYCManager",
						"label": "NFTIdToAvailable",
						"offset": 0,
						"slot": "4",
						"type": "t_mapping(t_uint256,t_bool)"
					}
				],
				"types": {
					"t_address": {
						"encoding": "inplace",
						"label": "address",
						"numberOfBytes": "20"
					},
					"t_bool": {
						"encoding": "inplace",
						"label": "bool",
						"numberOfBytes": "1"
					},
					"t_contract(KYCNFTInterface)146": {
						"encoding": "inplace",
						"label": "contract KYCNFTInterface",
						"numberOfBytes": "20"
					},
					"t_mapping(t_address,t_struct(UserData)157_storage)": {
						"encoding": "mapping",
						"key": "t_address",
						"label": "mapping(address => struct KYCManager.UserData)",
						"numberOfBytes": "32",
						"value": "t_struct(UserData)157_storage"
					},
					"t_mapping(t_uint256,t_address)": {
						"encoding": "mapping",
						"key": "t_uint256",
						"label": "mapping(uint256 => address)",
						"numberOfBytes": "32",
						"value": "t_address"
					},
					"t_mapping(t_uint256,t_bool)": {
						"encoding": "mapping",
						"key": "t_uint256",
						"label": "mapping(uint256 => bool)",
						"numberOfBytes": "32",
						"value": "t_bool"
					},
					"t_string_storage": {
						"encoding": "bytes",
						"label": "string",
						"numberOfBytes": "32"
					},
					"t_struct(UserData)157_storage": {
						"encoding": "inplace",
						"label": "struct KYCManager.UserData",
						"members": [
							{
								"astId": 150,
								"contract": "contracts/KYCManager.sol:KYCManager",
								"label": "NFTid",
								"offset": 0,
								"slot": "0",
								"type": "t_uint256"
							},
							{
								"astId": 152,
								"contract": "contracts/KYCManager.sol:KYCManager",
								"label": "accumulator",
								"offset": 0,
								"slot": "1",
								"type": "t_string_storage"
							},
							{
								"astId": 154,
								"contract": "contracts/KYCManager.sol:KYCManager",
								"label": "n",
								"offset": 0,
								"slot": "2",
								"type": "t_string_storage"
							},
							{
								"astId": 156,
								"contract": "contracts/KYCManager.sol:KYCManager",
								"label": "g",
								"offset": 0,
								"slot": "3",
								"type": "t_uint256"
							}
						],
						"numberOfBytes": "128"
					},
					"t_uint256": {
						"encoding": "inplace",
						"label": "uint256",
						"numberOfBytes": "32"
					}
				}
			},
			"userdoc": {
				"kind": "user",
				"methods": {},
				"version": 1
			}
		}
	}
}