{
	"contracts/KYCManager.sol": {
		"KYCManagerV1": {
			"abi": [
				{
					"anonymous": false,
					"inputs": [
						{
							"indexed": true,
							"internalType": "address",
							"name": "previousOwner",
							"type": "address"
						},
						{
							"indexed": true,
							"internalType": "address",
							"name": "newOwner",
							"type": "address"
						}
					],
					"name": "OwnershipTransferred",
					"type": "event"
				},
				{
					"stateMutability": "payable",
					"type": "fallback"
				},
				{
					"inputs": [
						{
							"internalType": "address",
							"name": "managerAddr",
							"type": "address"
						}
					],
					"name": "NFTIdOfManager",
					"outputs": [
						{
							"internalType": "uint256",
							"name": "",
							"type": "uint256"
						}
					],
					"stateMutability": "view",
					"type": "function"
				},
				{
					"inputs": [
						{
							"internalType": "uint256",
							"name": "NFTid",
							"type": "uint256"
						}
					],
					"name": "availableOfNFTId",
					"outputs": [
						{
							"internalType": "bool",
							"name": "",
							"type": "bool"
						}
					],
					"stateMutability": "view",
					"type": "function"
				},
				{
					"inputs": [
						{
							"internalType": "string",
							"name": "tokenUrl",
							"type": "string"
						},
						{
							"internalType": "address",
							"name": "manager",
							"type": "address"
						},
						{
							"internalType": "uint256",
							"name": "expirationTime",
							"type": "uint256"
						}
					],
					"name": "createKYCNFT",
					"outputs": [],
					"stateMutability": "nonpayable",
					"type": "function"
				},
				{
					"inputs": [
						{
							"internalType": "uint256",
							"name": "NFTid",
							"type": "uint256"
						},
						{
							"internalType": "address",
							"name": "manager",
							"type": "address"
						}
					],
					"name": "initManagerAddr",
					"outputs": [],
					"stateMutability": "nonpayable",
					"type": "function"
				},
				{
					"inputs": [
						{
							"internalType": "uint256",
							"name": "NFTid",
							"type": "uint256"
						}
					],
					"name": "managerOfNFTId",
					"outputs": [
						{
							"internalType": "address",
							"name": "",
							"type": "address"
						}
					],
					"stateMutability": "view",
					"type": "function"
				},
				{
					"inputs": [
						{
							"internalType": "address",
							"name": "newManager",
							"type": "address"
						}
					],
					"name": "modifyManagerAddr",
					"outputs": [],
					"stateMutability": "nonpayable",
					"type": "function"
				},
				{
					"inputs": [],
					"name": "owner",
					"outputs": [
						{
							"internalType": "address",
							"name": "",
							"type": "address"
						}
					],
					"stateMutability": "view",
					"type": "function"
				},
				{
					"inputs": [],
					"name": "renounceOwnership",
					"outputs": [],
					"stateMutability": "nonpayable",
					"type": "function"
				},
				{
					"inputs": [
						{
							"internalType": "address",
							"name": "_kycnftContractAddr",
							"type": "address"
						}
					],
					"name": "setKYCNFTContractAddress",
					"outputs": [],
					"stateMutability": "nonpayable",
					"type": "function"
				},
				{
					"inputs": [
						{
							"internalType": "uint256",
							"name": "NFTid",
							"type": "uint256"
						},
						{
							"internalType": "bool",
							"name": "_available",
							"type": "bool"
						}
					],
					"name": "setNFTAvailableOfNFTId",
					"outputs": [],
					"stateMutability": "nonpayable",
					"type": "function"
				},
				{
					"inputs": [
						{
							"internalType": "address",
							"name": "newOwner",
							"type": "address"
						}
					],
					"name": "transferOwnership",
					"outputs": [],
					"stateMutability": "nonpayable",
					"type": "function"
				},
				{
					"inputs": [
						{
							"internalType": "bytes",
							"name": "_accumulator",
							"type": "bytes"
						},
						{
							"internalType": "bytes",
							"name": "_n",
							"type": "bytes"
						},
						{
							"internalType": "uint256",
							"name": "_g",
							"type": "uint256"
						}
					],
					"name": "updateAccumulator",
					"outputs": [],
					"stateMutability": "nonpayable",
					"type": "function"
				},
				{
					"inputs": [
						{
							"internalType": "bytes",
							"name": "_n",
							"type": "bytes"
						},
						{
							"internalType": "uint256",
							"name": "_g",
							"type": "uint256"
						}
					],
					"name": "updateAccumulatorPublicKey",
					"outputs": [],
					"stateMutability": "nonpayable",
					"type": "function"
				},
				{
					"inputs": [
						{
							"internalType": "bytes",
							"name": "_accumulator",
							"type": "bytes"
						}
					],
					"name": "updateAccumulatorValue",
					"outputs": [],
					"stateMutability": "nonpayable",
					"type": "function"
				},
				{
					"inputs": [
						{
							"internalType": "address",
							"name": "managerAddr",
							"type": "address"
						}
					],
					"name": "userDataOfManager",
					"outputs": [
						{
							"components": [
								{
									"internalType": "uint256",
									"name": "NFTid",
									"type": "uint256"
								},
								{
									"internalType": "bytes",
									"name": "accumulator",
									"type": "bytes"
								},
								{
									"internalType": "bytes",
									"name": "n",
									"type": "bytes"
								},
								{
									"internalType": "uint256",
									"name": "g",
									"type": "uint256"
								}
							],
							"internalType": "struct KYCManagerV1.UserData",
							"name": "",
							"type": "tuple"
						}
					],
					"stateMutability": "view",
					"type": "function"
				},
				{
					"inputs": [
						{
							"internalType": "uint256",
							"name": "NFTid",
							"type": "uint256"
						}
					],
					"name": "userDataOfNFTId",
					"outputs": [
						{
							"components": [
								{
									"internalType": "uint256",
									"name": "NFTid",
									"type": "uint256"
								},
								{
									"internalType": "bytes",
									"name": "accumulator",
									"type": "bytes"
								},
								{
									"internalType": "bytes",
									"name": "n",
									"type": "bytes"
								},
								{
									"internalType": "uint256",
									"name": "g",
									"type": "uint256"
								}
							],
							"internalType": "struct KYCManagerV1.UserData",
							"name": "",
							"type": "tuple"
						}
					],
					"stateMutability": "view",
					"type": "function"
				},
				{
					"stateMutability": "payable",
					"type": "receive"
				}
			],
			"devdoc": {
				"kind": "dev",
				"methods": {
					"owner()": {
						"details": "Returns the address of the current owner."
					},
					"renounceOwnership()": {
						"details": "Leaves the contract without owner. It will not be possible to call `onlyOwner` functions anymore. Can only be called by the current owner. NOTE: Renouncing ownership will leave the contract without an owner, thereby removing any functionality that is only available to the owner."
					},
					"transferOwnership(address)": {
						"details": "Transfers ownership of the contract to a new account (`newOwner`). Can only be called by the current owner."
					}
				},
				"version": 1
			},
			"evm": {
				"assembly": "    /* \"contracts/KYCManager.sol\":405:3461  contract KYCManagerV1 is Ownable {... */\n  mstore(0x40, 0x80)\n  callvalue\n  dup1\n  iszero\n  tag_1\n  jumpi\n  0x00\n  dup1\n  revert\ntag_1:\n  pop\n    /* \"@openzeppelin/contracts/access/Ownable.sol\":936:968  _transferOwnership(_msgSender()) */\n  tag_4\n    /* \"@openzeppelin/contracts/access/Ownable.sol\":955:967  _msgSender() */\n  tag_5\n    /* \"@openzeppelin/contracts/access/Ownable.sol\":955:965  _msgSender */\n  shl(0x20, tag_6)\n    /* \"@openzeppelin/contracts/access/Ownable.sol\":955:967  _msgSender() */\n  0x20\n  shr\n  jump\t// in\ntag_5:\n    /* \"@openzeppelin/contracts/access/Ownable.sol\":936:954  _transferOwnership */\n  shl(0x20, tag_7)\n    /* \"@openzeppelin/contracts/access/Ownable.sol\":936:968  _transferOwnership(_msgSender()) */\n  0x20\n  shr\n  jump\t// in\ntag_4:\n    /* \"contracts/KYCManager.sol\":405:3461  contract KYCManagerV1 is Ownable {... */\n  jump(tag_8)\n    /* \"@openzeppelin/contracts/utils/Context.sol\":640:736  function _msgSender() internal view virtual returns (address) {... */\ntag_6:\n    /* \"@openzeppelin/contracts/utils/Context.sol\":693:700  address */\n  0x00\n    /* \"@openzeppelin/contracts/utils/Context.sol\":719:729  msg.sender */\n  caller\n    /* \"@openzeppelin/contracts/utils/Context.sol\":712:729  return msg.sender */\n  swap1\n  pop\n    /* \"@openzeppelin/contracts/utils/Context.sol\":640:736  function _msgSender() internal view virtual returns (address) {... */\n  swap1\n  jump\t// out\n    /* \"@openzeppelin/contracts/access/Ownable.sol\":2433:2620  function _transferOwnership(address newOwner) internal virtual {... */\ntag_7:\n    /* \"@openzeppelin/contracts/access/Ownable.sol\":2506:2522  address oldOwner */\n  0x00\n    /* \"@openzeppelin/contracts/access/Ownable.sol\":2525:2531  _owner */\n  dup1\n  0x00\n  swap1\n  sload\n  swap1\n  0x0100\n  exp\n  swap1\n  div\n  0xffffffffffffffffffffffffffffffffffffffff\n  and\n    /* \"@openzeppelin/contracts/access/Ownable.sol\":2506:2531  address oldOwner = _owner */\n  swap1\n  pop\n    /* \"@openzeppelin/contracts/access/Ownable.sol\":2550:2558  newOwner */\n  dup2\n    /* \"@openzeppelin/contracts/access/Ownable.sol\":2541:2547  _owner */\n  0x00\n  dup1\n    /* \"@openzeppelin/contracts/access/Ownable.sol\":2541:2558  _owner = newOwner */\n  0x0100\n  exp\n  dup2\n  sload\n  dup2\n  0xffffffffffffffffffffffffffffffffffffffff\n  mul\n  not\n  and\n  swap1\n  dup4\n  0xffffffffffffffffffffffffffffffffffffffff\n  and\n  mul\n  or\n  swap1\n  sstore\n  pop\n    /* \"@openzeppelin/contracts/access/Ownable.sol\":2604:2612  newOwner */\n  dup2\n    /* \"@openzeppelin/contracts/access/Ownable.sol\":2573:2613  OwnershipTransferred(oldOwner, newOwner) */\n  0xffffffffffffffffffffffffffffffffffffffff\n  and\n    /* \"@openzeppelin/contracts/access/Ownable.sol\":2594:2602  oldOwner */\n  dup2\n    /* \"@openzeppelin/contracts/access/Ownable.sol\":2573:2613  OwnershipTransferred(oldOwner, newOwner) */\n  0xffffffffffffffffffffffffffffffffffffffff\n  and\n  0x8be0079c531659141344cd1fd0a4f28419497f9722a3daafe3b4186f6b6457e0\n  mload(0x40)\n  mload(0x40)\n  dup1\n  swap2\n  sub\n  swap1\n  log3\n    /* \"@openzeppelin/contracts/access/Ownable.sol\":2433:2620  function _transferOwnership(address newOwner) internal virtual {... */\n  pop\n  pop\n  jump\t// out\n    /* \"contracts/KYCManager.sol\":405:3461  contract KYCManagerV1 is Ownable {... */\ntag_8:\n  dataSize(sub_0)\n  dup1\n  dataOffset(sub_0)\n  0x00\n  codecopy\n  0x00\n  return\nstop\n\nsub_0: assembly {\n        /* \"contracts/KYCManager.sol\":405:3461  contract KYCManagerV1 is Ownable {... */\n      mstore(0x40, 0x80)\n      jumpi(tag_1, lt(calldatasize, 0x04))\n      shr(0xe0, calldataload(0x00))\n      dup1\n      0x8da5cb5b\n      gt\n      tag_19\n      jumpi\n      dup1\n      0xb2b72bc4\n      gt\n      tag_20\n      jumpi\n      dup1\n      0xb2b72bc4\n      eq\n      tag_15\n      jumpi\n      dup1\n      0xd1933ddd\n      eq\n      tag_16\n      jumpi\n      dup1\n      0xf2fde38b\n      eq\n      tag_17\n      jumpi\n      dup1\n      0xfbc2cf13\n      eq\n      tag_18\n      jumpi\n      jump(tag_2)\n    tag_20:\n      dup1\n      0x8da5cb5b\n      eq\n      tag_11\n      jumpi\n      dup1\n      0x917b8fd0\n      eq\n      tag_12\n      jumpi\n      dup1\n      0xad575035\n      eq\n      tag_13\n      jumpi\n      dup1\n      0xb16b2506\n      eq\n      tag_14\n      jumpi\n      jump(tag_2)\n    tag_19:\n      dup1\n      0x3960a892\n      gt\n      tag_21\n      jumpi\n      dup1\n      0x3960a892\n      eq\n      tag_7\n      jumpi\n      dup1\n      0x4b3cef44\n      eq\n      tag_8\n      jumpi\n      dup1\n      0x715018a6\n      eq\n      tag_9\n      jumpi\n      dup1\n      0x717b9b6c\n      eq\n      tag_10\n      jumpi\n      jump(tag_2)\n    tag_21:\n      dup1\n      0x07b8dedb\n      eq\n      tag_3\n      jumpi\n      dup1\n      0x0e197dc9\n      eq\n      tag_4\n      jumpi\n      dup1\n      0x1e6dd491\n      eq\n      tag_5\n      jumpi\n      dup1\n      0x1ff4bdf3\n      eq\n      tag_6\n      jumpi\n      jump(tag_2)\n    tag_1:\n      jumpi(tag_2, calldatasize)\n        /* \"contracts/KYCManager.sol\":3446:3454  revert() */\n      0x00\n      dup1\n      revert\n        /* \"contracts/KYCManager.sol\":405:3461  contract KYCManagerV1 is Ownable {... */\n    tag_2:\n        /* \"contracts/KYCManager.sol\":3397:3405  revert() */\n      0x00\n      dup1\n      revert\n        /* \"contracts/KYCManager.sol\":2341:2520  function updateAccumulatorValue(bytes memory _accumulator) public {... */\n    tag_3:\n      callvalue\n      dup1\n      iszero\n      tag_26\n      jumpi\n      0x00\n      dup1\n      revert\n    tag_26:\n      pop\n      tag_27\n      0x04\n      dup1\n      calldatasize\n      sub\n      dup2\n      add\n      swap1\n      tag_28\n      swap2\n      swap1\n      tag_29\n      jump\t// in\n    tag_28:\n      tag_30\n      jump\t// in\n    tag_27:\n      stop\n        /* \"contracts/KYCManager.sol\":3080:3186  function availableOfNFTId(uint NFTid) public view returns(bool){... */\n    tag_4:\n      callvalue\n      dup1\n      iszero\n      tag_31\n      jumpi\n      0x00\n      dup1\n      revert\n    tag_31:\n      pop\n      tag_32\n      0x04\n      dup1\n      calldatasize\n      sub\n      dup2\n      add\n      swap1\n      tag_33\n      swap2\n      swap1\n      tag_34\n      jump\t// in\n    tag_33:\n      tag_35\n      jump\t// in\n    tag_32:\n      mload(0x40)\n      tag_36\n      swap2\n      swap1\n      tag_37\n      jump\t// in\n    tag_36:\n      mload(0x40)\n      dup1\n      swap2\n      sub\n      swap1\n      return\n        /* \"contracts/KYCManager.sol\":2149:2337  function updateAccumulatorPublicKey(bytes memory _n, uint256 _g) public {... */\n    tag_5:\n      callvalue\n      dup1\n      iszero\n      tag_38\n      jumpi\n      0x00\n      dup1\n      revert\n    tag_38:\n      pop\n      tag_39\n      0x04\n      dup1\n      calldatasize\n      sub\n      dup2\n      add\n      swap1\n      tag_40\n      swap2\n      swap1\n      tag_41\n      jump\t// in\n    tag_40:\n      tag_42\n      jump\t// in\n    tag_39:\n      stop\n        /* \"contracts/KYCManager.sol\":1644:1859  function modifyManagerAddr(address newManager) public{... */\n    tag_6:\n      callvalue\n      dup1\n      iszero\n      tag_43\n      jumpi\n      0x00\n      dup1\n      revert\n    tag_43:\n      pop\n      tag_44\n      0x04\n      dup1\n      calldatasize\n      sub\n      dup2\n      add\n      swap1\n      tag_45\n      swap2\n      swap1\n      tag_46\n      jump\t// in\n    tag_45:\n      tag_47\n      jump\t// in\n    tag_44:\n      stop\n        /* \"contracts/KYCManager.sol\":1477:1636  function initManagerAddr(uint NFTid, address manager) public onlyOwner {... */\n    tag_7:\n      callvalue\n      dup1\n      iszero\n      tag_48\n      jumpi\n      0x00\n      dup1\n      revert\n    tag_48:\n      pop\n      tag_49\n      0x04\n      dup1\n      calldatasize\n      sub\n      dup2\n      add\n      swap1\n      tag_50\n      swap2\n      swap1\n      tag_51\n      jump\t// in\n    tag_50:\n      tag_52\n      jump\t// in\n    tag_49:\n      stop\n        /* \"contracts/KYCManager.sol\":2555:2688  function managerOfNFTId(uint NFTid) public view returns(address) {... */\n    tag_8:\n      callvalue\n      dup1\n      iszero\n      tag_53\n      jumpi\n      0x00\n      dup1\n      revert\n    tag_53:\n      pop\n      tag_54\n      0x04\n      dup1\n      calldatasize\n      sub\n      dup2\n      add\n      swap1\n      tag_55\n      swap2\n      swap1\n      tag_34\n      jump\t// in\n    tag_55:\n      tag_56\n      jump\t// in\n    tag_54:\n      mload(0x40)\n      tag_57\n      swap2\n      swap1\n      tag_58\n      jump\t// in\n    tag_57:\n      mload(0x40)\n      dup1\n      swap2\n      sub\n      swap1\n      return\n        /* \"@openzeppelin/contracts/access/Ownable.sol\":1831:1932  function renounceOwnership() public virtual onlyOwner {... */\n    tag_9:\n      callvalue\n      dup1\n      iszero\n      tag_59\n      jumpi\n      0x00\n      dup1\n      revert\n    tag_59:\n      pop\n      tag_60\n      tag_61\n      jump\t// in\n    tag_60:\n      stop\n        /* \"contracts/KYCManager.sol\":1316:1441  function setNFTAvailableOfNFTId(uint NFTid, bool _available)  public onlyOwner{... */\n    tag_10:\n      callvalue\n      dup1\n      iszero\n      tag_62\n      jumpi\n      0x00\n      dup1\n      revert\n    tag_62:\n      pop\n      tag_63\n      0x04\n      dup1\n      calldatasize\n      sub\n      dup2\n      add\n      swap1\n      tag_64\n      swap2\n      swap1\n      tag_65\n      jump\t// in\n    tag_64:\n      tag_66\n      jump\t// in\n    tag_63:\n      stop\n        /* \"@openzeppelin/contracts/access/Ownable.sol\":1201:1286  function owner() public view virtual returns (address) {... */\n    tag_11:\n      callvalue\n      dup1\n      iszero\n      tag_67\n      jumpi\n      0x00\n      dup1\n      revert\n    tag_67:\n      pop\n      tag_68\n      tag_69\n      jump\t// in\n    tag_68:\n      mload(0x40)\n      tag_70\n      swap2\n      swap1\n      tag_58\n      jump\t// in\n    tag_70:\n      mload(0x40)\n      dup1\n      swap2\n      sub\n      swap1\n      return\n        /* \"contracts/KYCManager.sol\":2692:2895  function userDataOfNFTId(uint NFTid) public view returns(UserData memory){... */\n    tag_12:\n      callvalue\n      dup1\n      iszero\n      tag_71\n      jumpi\n      0x00\n      dup1\n      revert\n    tag_71:\n      pop\n      tag_72\n      0x04\n      dup1\n      calldatasize\n      sub\n      dup2\n      add\n      swap1\n      tag_73\n      swap2\n      swap1\n      tag_34\n      jump\t// in\n    tag_73:\n      tag_74\n      jump\t// in\n    tag_72:\n      mload(0x40)\n      tag_75\n      swap2\n      swap1\n      tag_76\n      jump\t// in\n    tag_75:\n      mload(0x40)\n      dup1\n      swap2\n      sub\n      swap1\n      return\n        /* \"contracts/KYCManager.sol\":2899:3076  function userDataOfManager(address managerAddr) public view returns(UserData memory){... */\n    tag_13:\n      callvalue\n      dup1\n      iszero\n      tag_77\n      jumpi\n      0x00\n      dup1\n      revert\n    tag_77:\n      pop\n      tag_78\n      0x04\n      dup1\n      calldatasize\n      sub\n      dup2\n      add\n      swap1\n      tag_79\n      swap2\n      swap1\n      tag_46\n      jump\t// in\n    tag_79:\n      tag_80\n      jump\t// in\n    tag_78:\n      mload(0x40)\n      tag_81\n      swap2\n      swap1\n      tag_76\n      jump\t// in\n    tag_81:\n      mload(0x40)\n      dup1\n      swap2\n      sub\n      swap1\n      return\n        /* \"contracts/KYCManager.sol\":1896:2145  function updateAccumulator(bytes memory _accumulator, bytes memory _n, uint256 _g) public {... */\n    tag_14:\n      callvalue\n      dup1\n      iszero\n      tag_82\n      jumpi\n      0x00\n      dup1\n      revert\n    tag_82:\n      pop\n      tag_83\n      0x04\n      dup1\n      calldatasize\n      sub\n      dup2\n      add\n      swap1\n      tag_84\n      swap2\n      swap1\n      tag_85\n      jump\t// in\n    tag_84:\n      tag_86\n      jump\t// in\n    tag_83:\n      stop\n        /* \"contracts/KYCManager.sol\":3190:3359  function NFTIdOfManager(address managerAddr) public view returns(uint){... */\n    tag_15:\n      callvalue\n      dup1\n      iszero\n      tag_87\n      jumpi\n      0x00\n      dup1\n      revert\n    tag_87:\n      pop\n      tag_88\n      0x04\n      dup1\n      calldatasize\n      sub\n      dup2\n      add\n      swap1\n      tag_89\n      swap2\n      swap1\n      tag_46\n      jump\t// in\n    tag_89:\n      tag_90\n      jump\t// in\n    tag_88:\n      mload(0x40)\n      tag_91\n      swap2\n      swap1\n      tag_92\n      jump\t// in\n    tag_91:\n      mload(0x40)\n      dup1\n      swap2\n      sub\n      swap1\n      return\n        /* \"contracts/KYCManager.sol\":905:1310  function createKYCNFT(string memory tokenUrl, address manager, uint expirationTime) public onlyOwner{... */\n    tag_16:\n      callvalue\n      dup1\n      iszero\n      tag_93\n      jumpi\n      0x00\n      dup1\n      revert\n    tag_93:\n      pop\n      tag_94\n      0x04\n      dup1\n      calldatasize\n      sub\n      dup2\n      add\n      swap1\n      tag_95\n      swap2\n      swap1\n      tag_96\n      jump\t// in\n    tag_95:\n      tag_97\n      jump\t// in\n    tag_94:\n      stop\n        /* \"@openzeppelin/contracts/access/Ownable.sol\":2081:2279  function transferOwnership(address newOwner) public virtual onlyOwner {... */\n    tag_17:\n      callvalue\n      dup1\n      iszero\n      tag_98\n      jumpi\n      0x00\n      dup1\n      revert\n    tag_98:\n      pop\n      tag_99\n      0x04\n      dup1\n      calldatasize\n      sub\n      dup2\n      add\n      swap1\n      tag_100\n      swap2\n      swap1\n      tag_46\n      jump\t// in\n    tag_100:\n      tag_101\n      jump\t// in\n    tag_99:\n      stop\n        /* \"contracts/KYCManager.sol\":755:899  function setKYCNFTContractAddress(address _kycnftContractAddr) public onlyOwner {... */\n    tag_18:\n      callvalue\n      dup1\n      iszero\n      tag_102\n      jumpi\n      0x00\n      dup1\n      revert\n    tag_102:\n      pop\n      tag_103\n      0x04\n      dup1\n      calldatasize\n      sub\n      dup2\n      add\n      swap1\n      tag_104\n      swap2\n      swap1\n      tag_46\n      jump\t// in\n    tag_104:\n      tag_105\n      jump\t// in\n    tag_103:\n      stop\n        /* \"contracts/KYCManager.sol\":2341:2520  function updateAccumulatorValue(bytes memory _accumulator) public {... */\n    tag_30:\n        /* \"contracts/KYCManager.sol\":2415:2440  UserData storage userdata */\n      0x00\n        /* \"contracts/KYCManager.sol\":2443:2460  ManagerToUserData */\n      0x03\n        /* \"contracts/KYCManager.sol\":2443:2472  ManagerToUserData[msg.sender] */\n      0x00\n        /* \"contracts/KYCManager.sol\":2461:2471  msg.sender */\n      caller\n        /* \"contracts/KYCManager.sol\":2443:2472  ManagerToUserData[msg.sender] */\n      0xffffffffffffffffffffffffffffffffffffffff\n      and\n      0xffffffffffffffffffffffffffffffffffffffff\n      and\n      dup2\n      mstore\n      0x20\n      add\n      swap1\n      dup2\n      mstore\n      0x20\n      add\n      0x00\n      keccak256\n        /* \"contracts/KYCManager.sol\":2415:2472  UserData storage userdata = ManagerToUserData[msg.sender] */\n      swap1\n      pop\n        /* \"contracts/KYCManager.sol\":2503:2515  _accumulator */\n      dup2\n        /* \"contracts/KYCManager.sol\":2480:2488  userdata */\n      dup2\n        /* \"contracts/KYCManager.sol\":2480:2500  userdata.accumulator */\n      0x01\n      add\n        /* \"contracts/KYCManager.sol\":2480:2515  userdata.accumulator = _accumulator */\n      swap1\n      dup1\n      mload\n      swap1\n      0x20\n      add\n      swap1\n      tag_107\n      swap3\n      swap2\n      swap1\n      tag_108\n      jump\t// in\n    tag_107:\n      pop\n        /* \"contracts/KYCManager.sol\":2341:2520  function updateAccumulatorValue(bytes memory _accumulator) public {... */\n      pop\n      pop\n      jump\t// out\n        /* \"contracts/KYCManager.sol\":3080:3186  function availableOfNFTId(uint NFTid) public view returns(bool){... */\n    tag_35:\n        /* \"contracts/KYCManager.sol\":3138:3142  bool */\n      0x00\n        /* \"contracts/KYCManager.sol\":3158:3174  NFTIdToAvailable */\n      0x04\n        /* \"contracts/KYCManager.sol\":3158:3181  NFTIdToAvailable[NFTid] */\n      0x00\n        /* \"contracts/KYCManager.sol\":3175:3180  NFTid */\n      dup4\n        /* \"contracts/KYCManager.sol\":3158:3181  NFTIdToAvailable[NFTid] */\n      dup2\n      mstore\n      0x20\n      add\n      swap1\n      dup2\n      mstore\n      0x20\n      add\n      0x00\n      keccak256\n      0x00\n      swap1\n      sload\n      swap1\n      0x0100\n      exp\n      swap1\n      div\n      0xff\n      and\n        /* \"contracts/KYCManager.sol\":3151:3181  return NFTIdToAvailable[NFTid] */\n      swap1\n      pop\n        /* \"contracts/KYCManager.sol\":3080:3186  function availableOfNFTId(uint NFTid) public view returns(bool){... */\n      swap2\n      swap1\n      pop\n      jump\t// out\n        /* \"contracts/KYCManager.sol\":2149:2337  function updateAccumulatorPublicKey(bytes memory _n, uint256 _g) public {... */\n    tag_42:\n        /* \"contracts/KYCManager.sol\":2229:2254  UserData storage userdata */\n      0x00\n        /* \"contracts/KYCManager.sol\":2257:2274  ManagerToUserData */\n      0x03\n        /* \"contracts/KYCManager.sol\":2257:2286  ManagerToUserData[msg.sender] */\n      0x00\n        /* \"contracts/KYCManager.sol\":2275:2285  msg.sender */\n      caller\n        /* \"contracts/KYCManager.sol\":2257:2286  ManagerToUserData[msg.sender] */\n      0xffffffffffffffffffffffffffffffffffffffff\n      and\n      0xffffffffffffffffffffffffffffffffffffffff\n      and\n      dup2\n      mstore\n      0x20\n      add\n      swap1\n      dup2\n      mstore\n      0x20\n      add\n      0x00\n      keccak256\n        /* \"contracts/KYCManager.sol\":2229:2286  UserData storage userdata = ManagerToUserData[msg.sender] */\n      swap1\n      pop\n        /* \"contracts/KYCManager.sol\":2307:2309  _n */\n      dup3\n        /* \"contracts/KYCManager.sol\":2294:2302  userdata */\n      dup2\n        /* \"contracts/KYCManager.sol\":2294:2304  userdata.n */\n      0x02\n      add\n        /* \"contracts/KYCManager.sol\":2294:2309  userdata.n = _n */\n      swap1\n      dup1\n      mload\n      swap1\n      0x20\n      add\n      swap1\n      tag_111\n      swap3\n      swap2\n      swap1\n      tag_108\n      jump\t// in\n    tag_111:\n      pop\n        /* \"contracts/KYCManager.sol\":2330:2332  _g */\n      dup2\n        /* \"contracts/KYCManager.sol\":2317:2325  userdata */\n      dup2\n        /* \"contracts/KYCManager.sol\":2317:2327  userdata.g */\n      0x03\n      add\n        /* \"contracts/KYCManager.sol\":2317:2332  userdata.g = _g */\n      dup2\n      swap1\n      sstore\n      pop\n        /* \"contracts/KYCManager.sol\":2149:2337  function updateAccumulatorPublicKey(bytes memory _n, uint256 _g) public {... */\n      pop\n      pop\n      pop\n      jump\t// out\n        /* \"contracts/KYCManager.sol\":1644:1859  function modifyManagerAddr(address newManager) public{... */\n    tag_47:\n        /* \"contracts/KYCManager.sol\":1703:1727  UserData memory userdata */\n      0x00\n        /* \"contracts/KYCManager.sol\":1730:1747  ManagerToUserData */\n      0x03\n        /* \"contracts/KYCManager.sol\":1730:1759  ManagerToUserData[msg.sender] */\n      0x00\n        /* \"contracts/KYCManager.sol\":1748:1758  msg.sender */\n      caller\n        /* \"contracts/KYCManager.sol\":1730:1759  ManagerToUserData[msg.sender] */\n      0xffffffffffffffffffffffffffffffffffffffff\n      and\n      0xffffffffffffffffffffffffffffffffffffffff\n      and\n      dup2\n      mstore\n      0x20\n      add\n      swap1\n      dup2\n      mstore\n      0x20\n      add\n      0x00\n      keccak256\n        /* \"contracts/KYCManager.sol\":1703:1759  UserData memory userdata = ManagerToUserData[msg.sender] */\n      mload(0x40)\n      dup1\n      0x80\n      add\n      0x40\n      mstore\n      swap1\n      dup2\n      0x00\n      dup3\n      add\n      sload\n      dup2\n      mstore\n      0x20\n      add\n      0x01\n      dup3\n      add\n      dup1\n      sload\n      tag_113\n      swap1\n      tag_114\n      jump\t// in\n    tag_113:\n      dup1\n      0x1f\n      add\n      0x20\n      dup1\n      swap2\n      div\n      mul\n      0x20\n      add\n      mload(0x40)\n      swap1\n      dup2\n      add\n      0x40\n      mstore\n      dup1\n      swap3\n      swap2\n      swap1\n      dup2\n      dup2\n      mstore\n      0x20\n      add\n      dup3\n      dup1\n      sload\n      tag_115\n      swap1\n      tag_114\n      jump\t// in\n    tag_115:\n      dup1\n      iszero\n      tag_116\n      jumpi\n      dup1\n      0x1f\n      lt\n      tag_117\n      jumpi\n      0x0100\n      dup1\n      dup4\n      sload\n      div\n      mul\n      dup4\n      mstore\n      swap2\n      0x20\n      add\n      swap2\n      jump(tag_116)\n    tag_117:\n      dup3\n      add\n      swap2\n      swap1\n      0x00\n      mstore\n      keccak256(0x00, 0x20)\n      swap1\n    tag_118:\n      dup2\n      sload\n      dup2\n      mstore\n      swap1\n      0x01\n      add\n      swap1\n      0x20\n      add\n      dup1\n      dup4\n      gt\n      tag_118\n      jumpi\n      dup3\n      swap1\n      sub\n      0x1f\n      and\n      dup3\n      add\n      swap2\n    tag_116:\n      pop\n      pop\n      pop\n      pop\n      pop\n      dup2\n      mstore\n      0x20\n      add\n      0x02\n      dup3\n      add\n      dup1\n      sload\n      tag_119\n      swap1\n      tag_114\n      jump\t// in\n    tag_119:\n      dup1\n      0x1f\n      add\n      0x20\n      dup1\n      swap2\n      div\n      mul\n      0x20\n      add\n      mload(0x40)\n      swap1\n      dup2\n      add\n      0x40\n      mstore\n      dup1\n      swap3\n      swap2\n      swap1\n      dup2\n      dup2\n      mstore\n      0x20\n      add\n      dup3\n      dup1\n      sload\n      tag_120\n      swap1\n      tag_114\n      jump\t// in\n    tag_120:\n      dup1\n      iszero\n      tag_121\n      jumpi\n      dup1\n      0x1f\n      lt\n      tag_122\n      jumpi\n      0x0100\n      dup1\n      dup4\n      sload\n      div\n      mul\n      dup4\n      mstore\n      swap2\n      0x20\n      add\n      swap2\n      jump(tag_121)\n    tag_122:\n      dup3\n      add\n      swap2\n      swap1\n      0x00\n      mstore\n      keccak256(0x00, 0x20)\n      swap1\n    tag_123:\n      dup2\n      sload\n      dup2\n      mstore\n      swap1\n      0x01\n      add\n      swap1\n      0x20\n      add\n      dup1\n      dup4\n      gt\n      tag_123\n      jumpi\n      dup3\n      swap1\n      sub\n      0x1f\n      and\n      dup3\n      add\n      swap2\n    tag_121:\n      pop\n      pop\n      pop\n      pop\n      pop\n      dup2\n      mstore\n      0x20\n      add\n      0x03\n      dup3\n      add\n      sload\n      dup2\n      mstore\n      pop\n      pop\n      swap1\n      pop\n        /* \"contracts/KYCManager.sol\":1797:1805  userdata */\n      dup1\n        /* \"contracts/KYCManager.sol\":1765:1782  ManagerToUserData */\n      0x03\n        /* \"contracts/KYCManager.sol\":1765:1794  ManagerToUserData[newManager] */\n      0x00\n        /* \"contracts/KYCManager.sol\":1783:1793  newManager */\n      dup5\n        /* \"contracts/KYCManager.sol\":1765:1794  ManagerToUserData[newManager] */\n      0xffffffffffffffffffffffffffffffffffffffff\n      and\n      0xffffffffffffffffffffffffffffffffffffffff\n      and\n      dup2\n      mstore\n      0x20\n      add\n      swap1\n      dup2\n      mstore\n      0x20\n      add\n      0x00\n      keccak256\n        /* \"contracts/KYCManager.sol\":1765:1805  ManagerToUserData[newManager] = userdata */\n      0x00\n      dup3\n      add\n      mload\n      dup2\n      0x00\n      add\n      sstore\n      0x20\n      dup3\n      add\n      mload\n      dup2\n      0x01\n      add\n      swap1\n      dup1\n      mload\n      swap1\n      0x20\n      add\n      swap1\n      tag_124\n      swap3\n      swap2\n      swap1\n      tag_108\n      jump\t// in\n    tag_124:\n      pop\n      0x40\n      dup3\n      add\n      mload\n      dup2\n      0x02\n      add\n      swap1\n      dup1\n      mload\n      swap1\n      0x20\n      add\n      swap1\n      tag_125\n      swap3\n      swap2\n      swap1\n      tag_108\n      jump\t// in\n    tag_125:\n      pop\n      0x60\n      dup3\n      add\n      mload\n      dup2\n      0x03\n      add\n      sstore\n      swap1\n      pop\n      pop\n        /* \"contracts/KYCManager.sol\":1844:1854  newManager */\n      dup2\n        /* \"contracts/KYCManager.sol\":1811:1825  NFTIdToManager */\n      0x02\n        /* \"contracts/KYCManager.sol\":1811:1841  NFTIdToManager[userdata.NFTid] */\n      0x00\n        /* \"contracts/KYCManager.sol\":1826:1834  userdata */\n      dup4\n        /* \"contracts/KYCManager.sol\":1826:1840  userdata.NFTid */\n      0x00\n      add\n      mload\n        /* \"contracts/KYCManager.sol\":1811:1841  NFTIdToManager[userdata.NFTid] */\n      dup2\n      mstore\n      0x20\n      add\n      swap1\n      dup2\n      mstore\n      0x20\n      add\n      0x00\n      keccak256\n      0x00\n        /* \"contracts/KYCManager.sol\":1811:1854  NFTIdToManager[userdata.NFTid] = newManager */\n      0x0100\n      exp\n      dup2\n      sload\n      dup2\n      0xffffffffffffffffffffffffffffffffffffffff\n      mul\n      not\n      and\n      swap1\n      dup4\n      0xffffffffffffffffffffffffffffffffffffffff\n      and\n      mul\n      or\n      swap1\n      sstore\n      pop\n        /* \"contracts/KYCManager.sol\":1644:1859  function modifyManagerAddr(address newManager) public{... */\n      pop\n      pop\n      jump\t// out\n        /* \"contracts/KYCManager.sol\":1477:1636  function initManagerAddr(uint NFTid, address manager) public onlyOwner {... */\n    tag_52:\n        /* \"@openzeppelin/contracts/access/Ownable.sol\":1094:1107  _checkOwner() */\n      tag_127\n        /* \"@openzeppelin/contracts/access/Ownable.sol\":1094:1105  _checkOwner */\n      tag_128\n        /* \"@openzeppelin/contracts/access/Ownable.sol\":1094:1107  _checkOwner() */\n      jump\t// in\n    tag_127:\n        /* \"contracts/KYCManager.sol\":1578:1585  manager */\n      dup1\n        /* \"contracts/KYCManager.sol\":1554:1568  NFTIdToManager */\n      0x02\n        /* \"contracts/KYCManager.sol\":1554:1575  NFTIdToManager[NFTid] */\n      0x00\n        /* \"contracts/KYCManager.sol\":1569:1574  NFTid */\n      dup5\n        /* \"contracts/KYCManager.sol\":1554:1575  NFTIdToManager[NFTid] */\n      dup2\n      mstore\n      0x20\n      add\n      swap1\n      dup2\n      mstore\n      0x20\n      add\n      0x00\n      keccak256\n      0x00\n        /* \"contracts/KYCManager.sol\":1554:1585  NFTIdToManager[NFTid] = manager */\n      0x0100\n      exp\n      dup2\n      sload\n      dup2\n      0xffffffffffffffffffffffffffffffffffffffff\n      mul\n      not\n      and\n      swap1\n      dup4\n      0xffffffffffffffffffffffffffffffffffffffff\n      and\n      mul\n      or\n      swap1\n      sstore\n      pop\n        /* \"contracts/KYCManager.sol\":1626:1631  NFTid */\n      dup2\n        /* \"contracts/KYCManager.sol\":1591:1608  ManagerToUserData */\n      0x03\n        /* \"contracts/KYCManager.sol\":1591:1617  ManagerToUserData[manager] */\n      0x00\n        /* \"contracts/KYCManager.sol\":1609:1616  manager */\n      dup4\n        /* \"contracts/KYCManager.sol\":1591:1617  ManagerToUserData[manager] */\n      0xffffffffffffffffffffffffffffffffffffffff\n      and\n      0xffffffffffffffffffffffffffffffffffffffff\n      and\n      dup2\n      mstore\n      0x20\n      add\n      swap1\n      dup2\n      mstore\n      0x20\n      add\n      0x00\n      keccak256\n        /* \"contracts/KYCManager.sol\":1591:1623  ManagerToUserData[manager].NFTid */\n      0x00\n      add\n        /* \"contracts/KYCManager.sol\":1591:1631  ManagerToUserData[manager].NFTid = NFTid */\n      dup2\n      swap1\n      sstore\n      pop\n        /* \"contracts/KYCManager.sol\":1477:1636  function initManagerAddr(uint NFTid, address manager) public onlyOwner {... */\n      pop\n      pop\n      jump\t// out\n        /* \"contracts/KYCManager.sol\":2555:2688  function managerOfNFTId(uint NFTid) public view returns(address) {... */\n    tag_56:\n        /* \"contracts/KYCManager.sol\":2611:2618  address */\n      0x00\n        /* \"contracts/KYCManager.sol\":2628:2640  address addr */\n      dup1\n        /* \"contracts/KYCManager.sol\":2643:2657  NFTIdToManager */\n      0x02\n        /* \"contracts/KYCManager.sol\":2643:2664  NFTIdToManager[NFTid] */\n      0x00\n        /* \"contracts/KYCManager.sol\":2658:2663  NFTid */\n      dup5\n        /* \"contracts/KYCManager.sol\":2643:2664  NFTIdToManager[NFTid] */\n      dup2\n      mstore\n      0x20\n      add\n      swap1\n      dup2\n      mstore\n      0x20\n      add\n      0x00\n      keccak256\n      0x00\n      swap1\n      sload\n      swap1\n      0x0100\n      exp\n      swap1\n      div\n      0xffffffffffffffffffffffffffffffffffffffff\n      and\n        /* \"contracts/KYCManager.sol\":2628:2664  address addr = NFTIdToManager[NFTid] */\n      swap1\n      pop\n        /* \"contracts/KYCManager.sol\":2679:2683  addr */\n      dup1\n        /* \"contracts/KYCManager.sol\":2672:2683  return addr */\n      swap2\n      pop\n      pop\n        /* \"contracts/KYCManager.sol\":2555:2688  function managerOfNFTId(uint NFTid) public view returns(address) {... */\n      swap2\n      swap1\n      pop\n      jump\t// out\n        /* \"@openzeppelin/contracts/access/Ownable.sol\":1831:1932  function renounceOwnership() public virtual onlyOwner {... */\n    tag_61:\n        /* \"@openzeppelin/contracts/access/Ownable.sol\":1094:1107  _checkOwner() */\n      tag_132\n        /* \"@openzeppelin/contracts/access/Ownable.sol\":1094:1105  _checkOwner */\n      tag_128\n        /* \"@openzeppelin/contracts/access/Ownable.sol\":1094:1107  _checkOwner() */\n      jump\t// in\n    tag_132:\n        /* \"@openzeppelin/contracts/access/Ownable.sol\":1895:1925  _transferOwnership(address(0)) */\n      tag_134\n        /* \"@openzeppelin/contracts/access/Ownable.sol\":1922:1923  0 */\n      0x00\n        /* \"@openzeppelin/contracts/access/Ownable.sol\":1895:1913  _transferOwnership */\n      tag_135\n        /* \"@openzeppelin/contracts/access/Ownable.sol\":1895:1925  _transferOwnership(address(0)) */\n      jump\t// in\n    tag_134:\n        /* \"@openzeppelin/contracts/access/Ownable.sol\":1831:1932  function renounceOwnership() public virtual onlyOwner {... */\n      jump\t// out\n        /* \"contracts/KYCManager.sol\":1316:1441  function setNFTAvailableOfNFTId(uint NFTid, bool _available)  public onlyOwner{... */\n    tag_66:\n        /* \"@openzeppelin/contracts/access/Ownable.sol\":1094:1107  _checkOwner() */\n      tag_137\n        /* \"@openzeppelin/contracts/access/Ownable.sol\":1094:1105  _checkOwner */\n      tag_128\n        /* \"@openzeppelin/contracts/access/Ownable.sol\":1094:1107  _checkOwner() */\n      jump\t// in\n    tag_137:\n        /* \"contracts/KYCManager.sol\":1426:1436  _available */\n      dup1\n        /* \"contracts/KYCManager.sol\":1400:1416  NFTIdToAvailable */\n      0x04\n        /* \"contracts/KYCManager.sol\":1400:1423  NFTIdToAvailable[NFTid] */\n      0x00\n        /* \"contracts/KYCManager.sol\":1417:1422  NFTid */\n      dup5\n        /* \"contracts/KYCManager.sol\":1400:1423  NFTIdToAvailable[NFTid] */\n      dup2\n      mstore\n      0x20\n      add\n      swap1\n      dup2\n      mstore\n      0x20\n      add\n      0x00\n      keccak256\n      0x00\n        /* \"contracts/KYCManager.sol\":1400:1436  NFTIdToAvailable[NFTid] = _available */\n      0x0100\n      exp\n      dup2\n      sload\n      dup2\n      0xff\n      mul\n      not\n      and\n      swap1\n      dup4\n      iszero\n      iszero\n      mul\n      or\n      swap1\n      sstore\n      pop\n        /* \"contracts/KYCManager.sol\":1316:1441  function setNFTAvailableOfNFTId(uint NFTid, bool _available)  public onlyOwner{... */\n      pop\n      pop\n      jump\t// out\n        /* \"@openzeppelin/contracts/access/Ownable.sol\":1201:1286  function owner() public view virtual returns (address) {... */\n    tag_69:\n        /* \"@openzeppelin/contracts/access/Ownable.sol\":1247:1254  address */\n      0x00\n        /* \"@openzeppelin/contracts/access/Ownable.sol\":1273:1279  _owner */\n      dup1\n      0x00\n      swap1\n      sload\n      swap1\n      0x0100\n      exp\n      swap1\n      div\n      0xffffffffffffffffffffffffffffffffffffffff\n      and\n        /* \"@openzeppelin/contracts/access/Ownable.sol\":1266:1279  return _owner */\n      swap1\n      pop\n        /* \"@openzeppelin/contracts/access/Ownable.sol\":1201:1286  function owner() public view virtual returns (address) {... */\n      swap1\n      jump\t// out\n        /* \"contracts/KYCManager.sol\":2692:2895  function userDataOfNFTId(uint NFTid) public view returns(UserData memory){... */\n    tag_74:\n        /* \"contracts/KYCManager.sol\":2749:2764  UserData memory */\n      tag_140\n      tag_141\n      jump\t// in\n    tag_140:\n        /* \"contracts/KYCManager.sol\":2773:2785  address addr */\n      0x00\n        /* \"contracts/KYCManager.sol\":2788:2802  NFTIdToManager */\n      0x02\n        /* \"contracts/KYCManager.sol\":2788:2809  NFTIdToManager[NFTid] */\n      0x00\n        /* \"contracts/KYCManager.sol\":2803:2808  NFTid */\n      dup5\n        /* \"contracts/KYCManager.sol\":2788:2809  NFTIdToManager[NFTid] */\n      dup2\n      mstore\n      0x20\n      add\n      swap1\n      dup2\n      mstore\n      0x20\n      add\n      0x00\n      keccak256\n      0x00\n      swap1\n      sload\n      swap1\n      0x0100\n      exp\n      swap1\n      div\n      0xffffffffffffffffffffffffffffffffffffffff\n      and\n        /* \"contracts/KYCManager.sol\":2773:2809  address addr = NFTIdToManager[NFTid] */\n      swap1\n      pop\n        /* \"contracts/KYCManager.sol\":2817:2841  UserData memory userdata */\n      0x00\n        /* \"contracts/KYCManager.sol\":2844:2861  ManagerToUserData */\n      0x03\n        /* \"contracts/KYCManager.sol\":2844:2867  ManagerToUserData[addr] */\n      0x00\n        /* \"contracts/KYCManager.sol\":2862:2866  addr */\n      dup4\n        /* \"contracts/KYCManager.sol\":2844:2867  ManagerToUserData[addr] */\n      0xffffffffffffffffffffffffffffffffffffffff\n      and\n      0xffffffffffffffffffffffffffffffffffffffff\n      and\n      dup2\n      mstore\n      0x20\n      add\n      swap1\n      dup2\n      mstore\n      0x20\n      add\n      0x00\n      keccak256\n        /* \"contracts/KYCManager.sol\":2817:2867  UserData memory userdata = ManagerToUserData[addr] */\n      mload(0x40)\n      dup1\n      0x80\n      add\n      0x40\n      mstore\n      swap1\n      dup2\n      0x00\n      dup3\n      add\n      sload\n      dup2\n      mstore\n      0x20\n      add\n      0x01\n      dup3\n      add\n      dup1\n      sload\n      tag_143\n      swap1\n      tag_114\n      jump\t// in\n    tag_143:\n      dup1\n      0x1f\n      add\n      0x20\n      dup1\n      swap2\n      div\n      mul\n      0x20\n      add\n      mload(0x40)\n      swap1\n      dup2\n      add\n      0x40\n      mstore\n      dup1\n      swap3\n      swap2\n      swap1\n      dup2\n      dup2\n      mstore\n      0x20\n      add\n      dup3\n      dup1\n      sload\n      tag_144\n      swap1\n      tag_114\n      jump\t// in\n    tag_144:\n      dup1\n      iszero\n      tag_145\n      jumpi\n      dup1\n      0x1f\n      lt\n      tag_146\n      jumpi\n      0x0100\n      dup1\n      dup4\n      sload\n      div\n      mul\n      dup4\n      mstore\n      swap2\n      0x20\n      add\n      swap2\n      jump(tag_145)\n    tag_146:\n      dup3\n      add\n      swap2\n      swap1\n      0x00\n      mstore\n      keccak256(0x00, 0x20)\n      swap1\n    tag_147:\n      dup2\n      sload\n      dup2\n      mstore\n      swap1\n      0x01\n      add\n      swap1\n      0x20\n      add\n      dup1\n      dup4\n      gt\n      tag_147\n      jumpi\n      dup3\n      swap1\n      sub\n      0x1f\n      and\n      dup3\n      add\n      swap2\n    tag_145:\n      pop\n      pop\n      pop\n      pop\n      pop\n      dup2\n      mstore\n      0x20\n      add\n      0x02\n      dup3\n      add\n      dup1\n      sload\n      tag_148\n      swap1\n      tag_114\n      jump\t// in\n    tag_148:\n      dup1\n      0x1f\n      add\n      0x20\n      dup1\n      swap2\n      div\n      mul\n      0x20\n      add\n      mload(0x40)\n      swap1\n      dup2\n      add\n      0x40\n      mstore\n      dup1\n      swap3\n      swap2\n      swap1\n      dup2\n      dup2\n      mstore\n      0x20\n      add\n      dup3\n      dup1\n      sload\n      tag_149\n      swap1\n      tag_114\n      jump\t// in\n    tag_149:\n      dup1\n      iszero\n      tag_150\n      jumpi\n      dup1\n      0x1f\n      lt\n      tag_151\n      jumpi\n      0x0100\n      dup1\n      dup4\n      sload\n      div\n      mul\n      dup4\n      mstore\n      swap2\n      0x20\n      add\n      swap2\n      jump(tag_150)\n    tag_151:\n      dup3\n      add\n      swap2\n      swap1\n      0x00\n      mstore\n      keccak256(0x00, 0x20)\n      swap1\n    tag_152:\n      dup2\n      sload\n      dup2\n      mstore\n      swap1\n      0x01\n      add\n      swap1\n      0x20\n      add\n      dup1\n      dup4\n      gt\n      tag_152\n      jumpi\n      dup3\n      swap1\n      sub\n      0x1f\n      and\n      dup3\n      add\n      swap2\n    tag_150:\n      pop\n      pop\n      pop\n      pop\n      pop\n      dup2\n      mstore\n      0x20\n      add\n      0x03\n      dup3\n      add\n      sload\n      dup2\n      mstore\n      pop\n      pop\n      swap1\n      pop\n        /* \"contracts/KYCManager.sol\":2882:2890  userdata */\n      dup1\n        /* \"contracts/KYCManager.sol\":2875:2890  return userdata */\n      swap3\n      pop\n      pop\n      pop\n        /* \"contracts/KYCManager.sol\":2692:2895  function userDataOfNFTId(uint NFTid) public view returns(UserData memory){... */\n      swap2\n      swap1\n      pop\n      jump\t// out\n        /* \"contracts/KYCManager.sol\":2899:3076  function userDataOfManager(address managerAddr) public view returns(UserData memory){... */\n    tag_80:\n        /* \"contracts/KYCManager.sol\":2967:2982  UserData memory */\n      tag_153\n      tag_141\n      jump\t// in\n    tag_153:\n        /* \"contracts/KYCManager.sol\":2991:3015  UserData memory userdata */\n      0x00\n        /* \"contracts/KYCManager.sol\":3018:3035  ManagerToUserData */\n      0x03\n        /* \"contracts/KYCManager.sol\":3018:3048  ManagerToUserData[managerAddr] */\n      0x00\n        /* \"contracts/KYCManager.sol\":3036:3047  managerAddr */\n      dup5\n        /* \"contracts/KYCManager.sol\":3018:3048  ManagerToUserData[managerAddr] */\n      0xffffffffffffffffffffffffffffffffffffffff\n      and\n      0xffffffffffffffffffffffffffffffffffffffff\n      and\n      dup2\n      mstore\n      0x20\n      add\n      swap1\n      dup2\n      mstore\n      0x20\n      add\n      0x00\n      keccak256\n        /* \"contracts/KYCManager.sol\":2991:3048  UserData memory userdata = ManagerToUserData[managerAddr] */\n      mload(0x40)\n      dup1\n      0x80\n      add\n      0x40\n      mstore\n      swap1\n      dup2\n      0x00\n      dup3\n      add\n      sload\n      dup2\n      mstore\n      0x20\n      add\n      0x01\n      dup3\n      add\n      dup1\n      sload\n      tag_155\n      swap1\n      tag_114\n      jump\t// in\n    tag_155:\n      dup1\n      0x1f\n      add\n      0x20\n      dup1\n      swap2\n      div\n      mul\n      0x20\n      add\n      mload(0x40)\n      swap1\n      dup2\n      add\n      0x40\n      mstore\n      dup1\n      swap3\n      swap2\n      swap1\n      dup2\n      dup2\n      mstore\n      0x20\n      add\n      dup3\n      dup1\n      sload\n      tag_156\n      swap1\n      tag_114\n      jump\t// in\n    tag_156:\n      dup1\n      iszero\n      tag_157\n      jumpi\n      dup1\n      0x1f\n      lt\n      tag_158\n      jumpi\n      0x0100\n      dup1\n      dup4\n      sload\n      div\n      mul\n      dup4\n      mstore\n      swap2\n      0x20\n      add\n      swap2\n      jump(tag_157)\n    tag_158:\n      dup3\n      add\n      swap2\n      swap1\n      0x00\n      mstore\n      keccak256(0x00, 0x20)\n      swap1\n    tag_159:\n      dup2\n      sload\n      dup2\n      mstore\n      swap1\n      0x01\n      add\n      swap1\n      0x20\n      add\n      dup1\n      dup4\n      gt\n      tag_159\n      jumpi\n      dup3\n      swap1\n      sub\n      0x1f\n      and\n      dup3\n      add\n      swap2\n    tag_157:\n      pop\n      pop\n      pop\n      pop\n      pop\n      dup2\n      mstore\n      0x20\n      add\n      0x02\n      dup3\n      add\n      dup1\n      sload\n      tag_160\n      swap1\n      tag_114\n      jump\t// in\n    tag_160:\n      dup1\n      0x1f\n      add\n      0x20\n      dup1\n      swap2\n      div\n      mul\n      0x20\n      add\n      mload(0x40)\n      swap1\n      dup2\n      add\n      0x40\n      mstore\n      dup1\n      swap3\n      swap2\n      swap1\n      dup2\n      dup2\n      mstore\n      0x20\n      add\n      dup3\n      dup1\n      sload\n      tag_161\n      swap1\n      tag_114\n      jump\t// in\n    tag_161:\n      dup1\n      iszero\n      tag_162\n      jumpi\n      dup1\n      0x1f\n      lt\n      tag_163\n      jumpi\n      0x0100\n      dup1\n      dup4\n      sload\n      div\n      mul\n      dup4\n      mstore\n      swap2\n      0x20\n      add\n      swap2\n      jump(tag_162)\n    tag_163:\n      dup3\n      add\n      swap2\n      swap1\n      0x00\n      mstore\n      keccak256(0x00, 0x20)\n      swap1\n    tag_164:\n      dup2\n      sload\n      dup2\n      mstore\n      swap1\n      0x01\n      add\n      swap1\n      0x20\n      add\n      dup1\n      dup4\n      gt\n      tag_164\n      jumpi\n      dup3\n      swap1\n      sub\n      0x1f\n      and\n      dup3\n      add\n      swap2\n    tag_162:\n      pop\n      pop\n      pop\n      pop\n      pop\n      dup2\n      mstore\n      0x20\n      add\n      0x03\n      dup3\n      add\n      sload\n      dup2\n      mstore\n      pop\n      pop\n      swap1\n      pop\n        /* \"contracts/KYCManager.sol\":3063:3071  userdata */\n      dup1\n        /* \"contracts/KYCManager.sol\":3056:3071  return userdata */\n      swap2\n      pop\n      pop\n        /* \"contracts/KYCManager.sol\":2899:3076  function userDataOfManager(address managerAddr) public view returns(UserData memory){... */\n      swap2\n      swap1\n      pop\n      jump\t// out\n        /* \"contracts/KYCManager.sol\":1896:2145  function updateAccumulator(bytes memory _accumulator, bytes memory _n, uint256 _g) public {... */\n    tag_86:\n        /* \"contracts/KYCManager.sol\":1994:2019  UserData storage userdata */\n      0x00\n        /* \"contracts/KYCManager.sol\":2022:2039  ManagerToUserData */\n      0x03\n        /* \"contracts/KYCManager.sol\":2022:2051  ManagerToUserData[msg.sender] */\n      0x00\n        /* \"contracts/KYCManager.sol\":2040:2050  msg.sender */\n      caller\n        /* \"contracts/KYCManager.sol\":2022:2051  ManagerToUserData[msg.sender] */\n      0xffffffffffffffffffffffffffffffffffffffff\n      and\n      0xffffffffffffffffffffffffffffffffffffffff\n      and\n      dup2\n      mstore\n      0x20\n      add\n      swap1\n      dup2\n      mstore\n      0x20\n      add\n      0x00\n      keccak256\n        /* \"contracts/KYCManager.sol\":1994:2051  UserData storage userdata = ManagerToUserData[msg.sender] */\n      swap1\n      pop\n        /* \"contracts/KYCManager.sol\":2082:2094  _accumulator */\n      dup4\n        /* \"contracts/KYCManager.sol\":2059:2067  userdata */\n      dup2\n        /* \"contracts/KYCManager.sol\":2059:2079  userdata.accumulator */\n      0x01\n      add\n        /* \"contracts/KYCManager.sol\":2059:2094  userdata.accumulator = _accumulator */\n      swap1\n      dup1\n      mload\n      swap1\n      0x20\n      add\n      swap1\n      tag_166\n      swap3\n      swap2\n      swap1\n      tag_108\n      jump\t// in\n    tag_166:\n      pop\n        /* \"contracts/KYCManager.sol\":2115:2117  _n */\n      dup3\n        /* \"contracts/KYCManager.sol\":2102:2110  userdata */\n      dup2\n        /* \"contracts/KYCManager.sol\":2102:2112  userdata.n */\n      0x02\n      add\n        /* \"contracts/KYCManager.sol\":2102:2117  userdata.n = _n */\n      swap1\n      dup1\n      mload\n      swap1\n      0x20\n      add\n      swap1\n      tag_167\n      swap3\n      swap2\n      swap1\n      tag_108\n      jump\t// in\n    tag_167:\n      pop\n        /* \"contracts/KYCManager.sol\":2138:2140  _g */\n      dup2\n        /* \"contracts/KYCManager.sol\":2125:2133  userdata */\n      dup2\n        /* \"contracts/KYCManager.sol\":2125:2135  userdata.g */\n      0x03\n      add\n        /* \"contracts/KYCManager.sol\":2125:2140  userdata.g = _g */\n      dup2\n      swap1\n      sstore\n      pop\n        /* \"contracts/KYCManager.sol\":1896:2145  function updateAccumulator(bytes memory _accumulator, bytes memory _n, uint256 _g) public {... */\n      pop\n      pop\n      pop\n      pop\n      jump\t// out\n        /* \"contracts/KYCManager.sol\":3190:3359  function NFTIdOfManager(address managerAddr) public view returns(uint){... */\n    tag_90:\n        /* \"contracts/KYCManager.sol\":3255:3259  uint */\n      0x00\n        /* \"contracts/KYCManager.sol\":3268:3292  UserData memory userdata */\n      dup1\n        /* \"contracts/KYCManager.sol\":3295:3312  ManagerToUserData */\n      0x03\n        /* \"contracts/KYCManager.sol\":3295:3325  ManagerToUserData[managerAddr] */\n      0x00\n        /* \"contracts/KYCManager.sol\":3313:3324  managerAddr */\n      dup5\n        /* \"contracts/KYCManager.sol\":3295:3325  ManagerToUserData[managerAddr] */\n      0xffffffffffffffffffffffffffffffffffffffff\n      and\n      0xffffffffffffffffffffffffffffffffffffffff\n      and\n      dup2\n      mstore\n      0x20\n      add\n      swap1\n      dup2\n      mstore\n      0x20\n      add\n      0x00\n      keccak256\n        /* \"contracts/KYCManager.sol\":3268:3325  UserData memory userdata = ManagerToUserData[managerAddr] */\n      mload(0x40)\n      dup1\n      0x80\n      add\n      0x40\n      mstore\n      swap1\n      dup2\n      0x00\n      dup3\n      add\n      sload\n      dup2\n      mstore\n      0x20\n      add\n      0x01\n      dup3\n      add\n      dup1\n      sload\n      tag_169\n      swap1\n      tag_114\n      jump\t// in\n    tag_169:\n      dup1\n      0x1f\n      add\n      0x20\n      dup1\n      swap2\n      div\n      mul\n      0x20\n      add\n      mload(0x40)\n      swap1\n      dup2\n      add\n      0x40\n      mstore\n      dup1\n      swap3\n      swap2\n      swap1\n      dup2\n      dup2\n      mstore\n      0x20\n      add\n      dup3\n      dup1\n      sload\n      tag_170\n      swap1\n      tag_114\n      jump\t// in\n    tag_170:\n      dup1\n      iszero\n      tag_171\n      jumpi\n      dup1\n      0x1f\n      lt\n      tag_172\n      jumpi\n      0x0100\n      dup1\n      dup4\n      sload\n      div\n      mul\n      dup4\n      mstore\n      swap2\n      0x20\n      add\n      swap2\n      jump(tag_171)\n    tag_172:\n      dup3\n      add\n      swap2\n      swap1\n      0x00\n      mstore\n      keccak256(0x00, 0x20)\n      swap1\n    tag_173:\n      dup2\n      sload\n      dup2\n      mstore\n      swap1\n      0x01\n      add\n      swap1\n      0x20\n      add\n      dup1\n      dup4\n      gt\n      tag_173\n      jumpi\n      dup3\n      swap1\n      sub\n      0x1f\n      and\n      dup3\n      add\n      swap2\n    tag_171:\n      pop\n      pop\n      pop\n      pop\n      pop\n      dup2\n      mstore\n      0x20\n      add\n      0x02\n      dup3\n      add\n      dup1\n      sload\n      tag_174\n      swap1\n      tag_114\n      jump\t// in\n    tag_174:\n      dup1\n      0x1f\n      add\n      0x20\n      dup1\n      swap2\n      div\n      mul\n      0x20\n      add\n      mload(0x40)\n      swap1\n      dup2\n      add\n      0x40\n      mstore\n      dup1\n      swap3\n      swap2\n      swap1\n      dup2\n      dup2\n      mstore\n      0x20\n      add\n      dup3\n      dup1\n      sload\n      tag_175\n      swap1\n      tag_114\n      jump\t// in\n    tag_175:\n      dup1\n      iszero\n      tag_176\n      jumpi\n      dup1\n      0x1f\n      lt\n      tag_177\n      jumpi\n      0x0100\n      dup1\n      dup4\n      sload\n      div\n      mul\n      dup4\n      mstore\n      swap2\n      0x20\n      add\n      swap2\n      jump(tag_176)\n    tag_177:\n      dup3\n      add\n      swap2\n      swap1\n      0x00\n      mstore\n      keccak256(0x00, 0x20)\n      swap1\n    tag_178:\n      dup2\n      sload\n      dup2\n      mstore\n      swap1\n      0x01\n      add\n      swap1\n      0x20\n      add\n      dup1\n      dup4\n      gt\n      tag_178\n      jumpi\n      dup3\n      swap1\n      sub\n      0x1f\n      and\n      dup3\n      add\n      swap2\n    tag_176:\n      pop\n      pop\n      pop\n      pop\n      pop\n      dup2\n      mstore\n      0x20\n      add\n      0x03\n      dup3\n      add\n      sload\n      dup2\n      mstore\n      pop\n      pop\n      swap1\n      pop\n        /* \"contracts/KYCManager.sol\":3340:3348  userdata */\n      dup1\n        /* \"contracts/KYCManager.sol\":3340:3354  userdata.NFTid */\n      0x00\n      add\n      mload\n        /* \"contracts/KYCManager.sol\":3333:3354  return userdata.NFTid */\n      swap2\n      pop\n      pop\n        /* \"contracts/KYCManager.sol\":3190:3359  function NFTIdOfManager(address managerAddr) public view returns(uint){... */\n      swap2\n      swap1\n      pop\n      jump\t// out\n        /* \"contracts/KYCManager.sol\":905:1310  function createKYCNFT(string memory tokenUrl, address manager, uint expirationTime) public onlyOwner{... */\n    tag_97:\n        /* \"@openzeppelin/contracts/access/Ownable.sol\":1094:1107  _checkOwner() */\n      tag_180\n        /* \"@openzeppelin/contracts/access/Ownable.sol\":1094:1105  _checkOwner */\n      tag_128\n        /* \"@openzeppelin/contracts/access/Ownable.sol\":1094:1107  _checkOwner() */\n      jump\t// in\n    tag_180:\n        /* \"contracts/KYCManager.sol\":1053:1074  address kycnftmanager */\n      0x00\n        /* \"contracts/KYCManager.sol\":1087:1091  this */\n      address\n        /* \"contracts/KYCManager.sol\":1053:1092  address kycnftmanager = (address)(this) */\n      swap1\n      pop\n        /* \"contracts/KYCManager.sol\":1098:1111  uint256 NFTid */\n      0x00\n        /* \"contracts/KYCManager.sol\":1114:1128  kycNFTContract */\n      0x01\n      0x00\n      swap1\n      sload\n      swap1\n      0x0100\n      exp\n      swap1\n      div\n      0xffffffffffffffffffffffffffffffffffffffff\n      and\n        /* \"contracts/KYCManager.sol\":1114:1138  kycNFTContract.awardItem */\n      0xffffffffffffffffffffffffffffffffffffffff\n      and\n      0xcf378343\n        /* \"contracts/KYCManager.sol\":1139:1152  kycnftmanager */\n      dup4\n        /* \"contracts/KYCManager.sol\":1154:1162  tokenUrl */\n      dup8\n        /* \"contracts/KYCManager.sol\":1114:1163  kycNFTContract.awardItem(kycnftmanager, tokenUrl) */\n      mload(0x40)\n      dup4\n      0xffffffff\n      and\n      0xe0\n      shl\n      dup2\n      mstore\n      0x04\n      add\n      tag_182\n      swap3\n      swap2\n      swap1\n      tag_183\n      jump\t// in\n    tag_182:\n      0x20\n      mload(0x40)\n      dup1\n      dup4\n      sub\n      dup2\n      0x00\n      dup8\n      dup1\n      extcodesize\n      iszero\n      dup1\n      iszero\n      tag_184\n      jumpi\n      0x00\n      dup1\n      revert\n    tag_184:\n      pop\n      gas\n      call\n      iszero\n      dup1\n      iszero\n      tag_186\n      jumpi\n      returndatasize\n      0x00\n      dup1\n      returndatacopy\n      revert(0x00, returndatasize)\n    tag_186:\n      pop\n      pop\n      pop\n      pop\n      mload(0x40)\n      returndatasize\n      not(0x1f)\n      0x1f\n      dup3\n      add\n      and\n      dup3\n      add\n      dup1\n      0x40\n      mstore\n      pop\n      dup2\n      add\n      swap1\n      tag_187\n      swap2\n      swap1\n      tag_188\n      jump\t// in\n    tag_187:\n        /* \"contracts/KYCManager.sol\":1098:1163  uint256 NFTid = kycNFTContract.awardItem(kycnftmanager, tokenUrl) */\n      swap1\n      pop\n        /* \"contracts/KYCManager.sol\":1169:1183  kycNFTContract */\n      0x01\n      0x00\n      swap1\n      sload\n      swap1\n      0x0100\n      exp\n      swap1\n      div\n      0xffffffffffffffffffffffffffffffffffffffff\n      and\n        /* \"contracts/KYCManager.sol\":1169:1204  kycNFTContract.updateExpirationTime */\n      0xffffffffffffffffffffffffffffffffffffffff\n      and\n      0xe1b2e979\n        /* \"contracts/KYCManager.sol\":1205:1210  NFTid */\n      dup3\n        /* \"contracts/KYCManager.sol\":1212:1226  expirationTime */\n      dup6\n        /* \"contracts/KYCManager.sol\":1169:1227  kycNFTContract.updateExpirationTime(NFTid, expirationTime) */\n      mload(0x40)\n      dup4\n      0xffffffff\n      and\n      0xe0\n      shl\n      dup2\n      mstore\n      0x04\n      add\n      tag_189\n      swap3\n      swap2\n      swap1\n      tag_190\n      jump\t// in\n    tag_189:\n      0x00\n      mload(0x40)\n      dup1\n      dup4\n      sub\n      dup2\n      0x00\n      dup8\n      dup1\n      extcodesize\n      iszero\n      dup1\n      iszero\n      tag_191\n      jumpi\n      0x00\n      dup1\n      revert\n    tag_191:\n      pop\n      gas\n      call\n      iszero\n      dup1\n      iszero\n      tag_193\n      jumpi\n      returndatasize\n      0x00\n      dup1\n      returndatacopy\n      revert(0x00, returndatasize)\n    tag_193:\n      pop\n      pop\n      pop\n      pop\n        /* \"contracts/KYCManager.sol\":1233:1268  setNFTAvailableOfNFTId(NFTid, true) */\n      tag_194\n        /* \"contracts/KYCManager.sol\":1256:1261  NFTid */\n      dup2\n        /* \"contracts/KYCManager.sol\":1263:1267  true */\n      0x01\n        /* \"contracts/KYCManager.sol\":1233:1255  setNFTAvailableOfNFTId */\n      tag_66\n        /* \"contracts/KYCManager.sol\":1233:1268  setNFTAvailableOfNFTId(NFTid, true) */\n      jump\t// in\n    tag_194:\n        /* \"contracts/KYCManager.sol\":1274:1305  initManagerAddr(NFTid, manager) */\n      tag_195\n        /* \"contracts/KYCManager.sol\":1290:1295  NFTid */\n      dup2\n        /* \"contracts/KYCManager.sol\":1297:1304  manager */\n      dup6\n        /* \"contracts/KYCManager.sol\":1274:1289  initManagerAddr */\n      tag_52\n        /* \"contracts/KYCManager.sol\":1274:1305  initManagerAddr(NFTid, manager) */\n      jump\t// in\n    tag_195:\n        /* \"@openzeppelin/contracts/access/Ownable.sol\":1117:1118  _ */\n      pop\n      pop\n        /* \"contracts/KYCManager.sol\":905:1310  function createKYCNFT(string memory tokenUrl, address manager, uint expirationTime) public onlyOwner{... */\n      pop\n      pop\n      pop\n      jump\t// out\n        /* \"@openzeppelin/contracts/access/Ownable.sol\":2081:2279  function transferOwnership(address newOwner) public virtual onlyOwner {... */\n    tag_101:\n        /* \"@openzeppelin/contracts/access/Ownable.sol\":1094:1107  _checkOwner() */\n      tag_197\n        /* \"@openzeppelin/contracts/access/Ownable.sol\":1094:1105  _checkOwner */\n      tag_128\n        /* \"@openzeppelin/contracts/access/Ownable.sol\":1094:1107  _checkOwner() */\n      jump\t// in\n    tag_197:\n        /* \"@openzeppelin/contracts/access/Ownable.sol\":2189:2190  0 */\n      0x00\n        /* \"@openzeppelin/contracts/access/Ownable.sol\":2169:2191  newOwner != address(0) */\n      0xffffffffffffffffffffffffffffffffffffffff\n      and\n        /* \"@openzeppelin/contracts/access/Ownable.sol\":2169:2177  newOwner */\n      dup2\n        /* \"@openzeppelin/contracts/access/Ownable.sol\":2169:2191  newOwner != address(0) */\n      0xffffffffffffffffffffffffffffffffffffffff\n      and\n      eq\n      iszero\n        /* \"@openzeppelin/contracts/access/Ownable.sol\":2161:2234  require(newOwner != address(0), \"Ownable: new owner is the zero address\") */\n      tag_199\n      jumpi\n      mload(0x40)\n      0x08c379a000000000000000000000000000000000000000000000000000000000\n      dup2\n      mstore\n      0x04\n      add\n      tag_200\n      swap1\n      tag_201\n      jump\t// in\n    tag_200:\n      mload(0x40)\n      dup1\n      swap2\n      sub\n      swap1\n      revert\n    tag_199:\n        /* \"@openzeppelin/contracts/access/Ownable.sol\":2244:2272  _transferOwnership(newOwner) */\n      tag_202\n        /* \"@openzeppelin/contracts/access/Ownable.sol\":2263:2271  newOwner */\n      dup2\n        /* \"@openzeppelin/contracts/access/Ownable.sol\":2244:2262  _transferOwnership */\n      tag_135\n        /* \"@openzeppelin/contracts/access/Ownable.sol\":2244:2272  _transferOwnership(newOwner) */\n      jump\t// in\n    tag_202:\n        /* \"@openzeppelin/contracts/access/Ownable.sol\":2081:2279  function transferOwnership(address newOwner) public virtual onlyOwner {... */\n      pop\n      jump\t// out\n        /* \"contracts/KYCManager.sol\":755:899  function setKYCNFTContractAddress(address _kycnftContractAddr) public onlyOwner {... */\n    tag_105:\n        /* \"@openzeppelin/contracts/access/Ownable.sol\":1094:1107  _checkOwner() */\n      tag_204\n        /* \"@openzeppelin/contracts/access/Ownable.sol\":1094:1105  _checkOwner */\n      tag_128\n        /* \"@openzeppelin/contracts/access/Ownable.sol\":1094:1107  _checkOwner() */\n      jump\t// in\n    tag_204:\n        /* \"contracts/KYCManager.sol\":874:893  _kycnftContractAddr */\n      dup1\n        /* \"contracts/KYCManager.sol\":841:855  kycNFTContract */\n      0x01\n      0x00\n        /* \"contracts/KYCManager.sol\":841:894  kycNFTContract = KYCNFTInterface(_kycnftContractAddr) */\n      0x0100\n      exp\n      dup2\n      sload\n      dup2\n      0xffffffffffffffffffffffffffffffffffffffff\n      mul\n      not\n      and\n      swap1\n      dup4\n      0xffffffffffffffffffffffffffffffffffffffff\n      and\n      mul\n      or\n      swap1\n      sstore\n      pop\n        /* \"contracts/KYCManager.sol\":755:899  function setKYCNFTContractAddress(address _kycnftContractAddr) public onlyOwner {... */\n      pop\n      jump\t// out\n        /* \"@openzeppelin/contracts/access/Ownable.sol\":1359:1489  function _checkOwner() internal view virtual {... */\n    tag_128:\n        /* \"@openzeppelin/contracts/access/Ownable.sol\":1433:1445  _msgSender() */\n      tag_207\n        /* \"@openzeppelin/contracts/access/Ownable.sol\":1433:1443  _msgSender */\n      tag_208\n        /* \"@openzeppelin/contracts/access/Ownable.sol\":1433:1445  _msgSender() */\n      jump\t// in\n    tag_207:\n        /* \"@openzeppelin/contracts/access/Ownable.sol\":1422:1445  owner() == _msgSender() */\n      0xffffffffffffffffffffffffffffffffffffffff\n      and\n        /* \"@openzeppelin/contracts/access/Ownable.sol\":1422:1429  owner() */\n      tag_209\n        /* \"@openzeppelin/contracts/access/Ownable.sol\":1422:1427  owner */\n      tag_69\n        /* \"@openzeppelin/contracts/access/Ownable.sol\":1422:1429  owner() */\n      jump\t// in\n    tag_209:\n        /* \"@openzeppelin/contracts/access/Ownable.sol\":1422:1445  owner() == _msgSender() */\n      0xffffffffffffffffffffffffffffffffffffffff\n      and\n      eq\n        /* \"@openzeppelin/contracts/access/Ownable.sol\":1414:1482  require(owner() == _msgSender(), \"Ownable: caller is not the owner\") */\n      tag_210\n      jumpi\n      mload(0x40)\n      0x08c379a000000000000000000000000000000000000000000000000000000000\n      dup2\n      mstore\n      0x04\n      add\n      tag_211\n      swap1\n      tag_212\n      jump\t// in\n    tag_211:\n      mload(0x40)\n      dup1\n      swap2\n      sub\n      swap1\n      revert\n    tag_210:\n        /* \"@openzeppelin/contracts/access/Ownable.sol\":1359:1489  function _checkOwner() internal view virtual {... */\n      jump\t// out\n        /* \"@openzeppelin/contracts/access/Ownable.sol\":2433:2620  function _transferOwnership(address newOwner) internal virtual {... */\n    tag_135:\n        /* \"@openzeppelin/contracts/access/Ownable.sol\":2506:2522  address oldOwner */\n      0x00\n        /* \"@openzeppelin/contracts/access/Ownable.sol\":2525:2531  _owner */\n      dup1\n      0x00\n      swap1\n      sload\n      swap1\n      0x0100\n      exp\n      swap1\n      div\n      0xffffffffffffffffffffffffffffffffffffffff\n      and\n        /* \"@openzeppelin/contracts/access/Ownable.sol\":2506:2531  address oldOwner = _owner */\n      swap1\n      pop\n        /* \"@openzeppelin/contracts/access/Ownable.sol\":2550:2558  newOwner */\n      dup2\n        /* \"@openzeppelin/contracts/access/Ownable.sol\":2541:2547  _owner */\n      0x00\n      dup1\n        /* \"@openzeppelin/contracts/access/Ownable.sol\":2541:2558  _owner = newOwner */\n      0x0100\n      exp\n      dup2\n      sload\n      dup2\n      0xffffffffffffffffffffffffffffffffffffffff\n      mul\n      not\n      and\n      swap1\n      dup4\n      0xffffffffffffffffffffffffffffffffffffffff\n      and\n      mul\n      or\n      swap1\n      sstore\n      pop\n        /* \"@openzeppelin/contracts/access/Ownable.sol\":2604:2612  newOwner */\n      dup2\n        /* \"@openzeppelin/contracts/access/Ownable.sol\":2573:2613  OwnershipTransferred(oldOwner, newOwner) */\n      0xffffffffffffffffffffffffffffffffffffffff\n      and\n        /* \"@openzeppelin/contracts/access/Ownable.sol\":2594:2602  oldOwner */\n      dup2\n        /* \"@openzeppelin/contracts/access/Ownable.sol\":2573:2613  OwnershipTransferred(oldOwner, newOwner) */\n      0xffffffffffffffffffffffffffffffffffffffff\n      and\n      0x8be0079c531659141344cd1fd0a4f28419497f9722a3daafe3b4186f6b6457e0\n      mload(0x40)\n      mload(0x40)\n      dup1\n      swap2\n      sub\n      swap1\n      log3\n        /* \"@openzeppelin/contracts/access/Ownable.sol\":2433:2620  function _transferOwnership(address newOwner) internal virtual {... */\n      pop\n      pop\n      jump\t// out\n        /* \"@openzeppelin/contracts/utils/Context.sol\":640:736  function _msgSender() internal view virtual returns (address) {... */\n    tag_208:\n        /* \"@openzeppelin/contracts/utils/Context.sol\":693:700  address */\n      0x00\n        /* \"@openzeppelin/contracts/utils/Context.sol\":719:729  msg.sender */\n      caller\n        /* \"@openzeppelin/contracts/utils/Context.sol\":712:729  return msg.sender */\n      swap1\n      pop\n        /* \"@openzeppelin/contracts/utils/Context.sol\":640:736  function _msgSender() internal view virtual returns (address) {... */\n      swap1\n      jump\t// out\n    tag_108:\n      dup3\n      dup1\n      sload\n      tag_215\n      swap1\n      tag_114\n      jump\t// in\n    tag_215:\n      swap1\n      0x00\n      mstore\n      keccak256(0x00, 0x20)\n      swap1\n      0x1f\n      add\n      0x20\n      swap1\n      div\n      dup2\n      add\n      swap3\n      dup3\n      tag_217\n      jumpi\n      0x00\n      dup6\n      sstore\n      jump(tag_216)\n    tag_217:\n      dup3\n      0x1f\n      lt\n      tag_218\n      jumpi\n      dup1\n      mload\n      not(0xff)\n      and\n      dup4\n      dup1\n      add\n      or\n      dup6\n      sstore\n      jump(tag_216)\n    tag_218:\n      dup3\n      dup1\n      add\n      0x01\n      add\n      dup6\n      sstore\n      dup3\n      iszero\n      tag_216\n      jumpi\n      swap2\n      dup3\n      add\n    tag_219:\n      dup3\n      dup2\n      gt\n      iszero\n      tag_220\n      jumpi\n      dup3\n      mload\n      dup3\n      sstore\n      swap2\n      0x20\n      add\n      swap2\n      swap1\n      0x01\n      add\n      swap1\n      jump(tag_219)\n    tag_220:\n    tag_216:\n      pop\n      swap1\n      pop\n      tag_221\n      swap2\n      swap1\n      tag_222\n      jump\t// in\n    tag_221:\n      pop\n      swap1\n      jump\t// out\n    tag_141:\n      mload(0x40)\n      dup1\n      0x80\n      add\n      0x40\n      mstore\n      dup1\n      0x00\n      dup2\n      mstore\n      0x20\n      add\n      0x60\n      dup2\n      mstore\n      0x20\n      add\n      0x60\n      dup2\n      mstore\n      0x20\n      add\n      0x00\n      dup2\n      mstore\n      pop\n      swap1\n      jump\t// out\n    tag_222:\n    tag_223:\n      dup1\n      dup3\n      gt\n      iszero\n      tag_224\n      jumpi\n      0x00\n      dup2\n      0x00\n      swap1\n      sstore\n      pop\n      0x01\n      add\n      jump(tag_223)\n    tag_224:\n      pop\n      swap1\n      jump\t// out\n        /* \"#utility.yul\":7:350   */\n    tag_226:\n        /* \"#utility.yul\":84:89   */\n      0x00\n        /* \"#utility.yul\":109:174   */\n      tag_228\n        /* \"#utility.yul\":125:173   */\n      tag_229\n        /* \"#utility.yul\":166:172   */\n      dup5\n        /* \"#utility.yul\":125:173   */\n      tag_230\n      jump\t// in\n    tag_229:\n        /* \"#utility.yul\":109:174   */\n      tag_231\n      jump\t// in\n    tag_228:\n        /* \"#utility.yul\":100:174   */\n      swap1\n      pop\n        /* \"#utility.yul\":197:203   */\n      dup3\n        /* \"#utility.yul\":190:195   */\n      dup2\n        /* \"#utility.yul\":183:204   */\n      mstore\n        /* \"#utility.yul\":235:239   */\n      0x20\n        /* \"#utility.yul\":228:233   */\n      dup2\n        /* \"#utility.yul\":224:240   */\n      add\n        /* \"#utility.yul\":273:276   */\n      dup5\n        /* \"#utility.yul\":264:270   */\n      dup5\n        /* \"#utility.yul\":259:262   */\n      dup5\n        /* \"#utility.yul\":255:271   */\n      add\n        /* \"#utility.yul\":252:277   */\n      gt\n        /* \"#utility.yul\":249:251   */\n      iszero\n      tag_232\n      jumpi\n        /* \"#utility.yul\":290:291   */\n      0x00\n        /* \"#utility.yul\":287:288   */\n      dup1\n        /* \"#utility.yul\":280:292   */\n      revert\n        /* \"#utility.yul\":249:251   */\n    tag_232:\n        /* \"#utility.yul\":303:344   */\n      tag_233\n        /* \"#utility.yul\":337:343   */\n      dup5\n        /* \"#utility.yul\":332:335   */\n      dup3\n        /* \"#utility.yul\":327:330   */\n      dup6\n        /* \"#utility.yul\":303:344   */\n      tag_234\n      jump\t// in\n    tag_233:\n        /* \"#utility.yul\":90:350   */\n      pop\n      swap4\n      swap3\n      pop\n      pop\n      pop\n      jump\t// out\n        /* \"#utility.yul\":356:701   */\n    tag_235:\n        /* \"#utility.yul\":434:439   */\n      0x00\n        /* \"#utility.yul\":459:525   */\n      tag_237\n        /* \"#utility.yul\":475:524   */\n      tag_238\n        /* \"#utility.yul\":517:523   */\n      dup5\n        /* \"#utility.yul\":475:524   */\n      tag_239\n      jump\t// in\n    tag_238:\n        /* \"#utility.yul\":459:525   */\n      tag_231\n      jump\t// in\n    tag_237:\n        /* \"#utility.yul\":450:525   */\n      swap1\n      pop\n        /* \"#utility.yul\":548:554   */\n      dup3\n        /* \"#utility.yul\":541:546   */\n      dup2\n        /* \"#utility.yul\":534:555   */\n      mstore\n        /* \"#utility.yul\":586:590   */\n      0x20\n        /* \"#utility.yul\":579:584   */\n      dup2\n        /* \"#utility.yul\":575:591   */\n      add\n        /* \"#utility.yul\":624:627   */\n      dup5\n        /* \"#utility.yul\":615:621   */\n      dup5\n        /* \"#utility.yul\":610:613   */\n      dup5\n        /* \"#utility.yul\":606:622   */\n      add\n        /* \"#utility.yul\":603:628   */\n      gt\n        /* \"#utility.yul\":600:602   */\n      iszero\n      tag_240\n      jumpi\n        /* \"#utility.yul\":641:642   */\n      0x00\n        /* \"#utility.yul\":638:639   */\n      dup1\n        /* \"#utility.yul\":631:643   */\n      revert\n        /* \"#utility.yul\":600:602   */\n    tag_240:\n        /* \"#utility.yul\":654:695   */\n      tag_241\n        /* \"#utility.yul\":688:694   */\n      dup5\n        /* \"#utility.yul\":683:686   */\n      dup3\n        /* \"#utility.yul\":678:681   */\n      dup6\n        /* \"#utility.yul\":654:695   */\n      tag_234\n      jump\t// in\n    tag_241:\n        /* \"#utility.yul\":440:701   */\n      pop\n      swap4\n      swap3\n      pop\n      pop\n      pop\n      jump\t// out\n        /* \"#utility.yul\":707:846   */\n    tag_242:\n        /* \"#utility.yul\":753:758   */\n      0x00\n        /* \"#utility.yul\":791:797   */\n      dup2\n        /* \"#utility.yul\":778:798   */\n      calldataload\n        /* \"#utility.yul\":769:798   */\n      swap1\n      pop\n        /* \"#utility.yul\":807:840   */\n      tag_244\n        /* \"#utility.yul\":834:839   */\n      dup2\n        /* \"#utility.yul\":807:840   */\n      tag_245\n      jump\t// in\n    tag_244:\n        /* \"#utility.yul\":759:846   */\n      swap3\n      swap2\n      pop\n      pop\n      jump\t// out\n        /* \"#utility.yul\":852:985   */\n    tag_246:\n        /* \"#utility.yul\":895:900   */\n      0x00\n        /* \"#utility.yul\":933:939   */\n      dup2\n        /* \"#utility.yul\":920:940   */\n      calldataload\n        /* \"#utility.yul\":911:940   */\n      swap1\n      pop\n        /* \"#utility.yul\":949:979   */\n      tag_248\n        /* \"#utility.yul\":973:978   */\n      dup2\n        /* \"#utility.yul\":949:979   */\n      tag_249\n      jump\t// in\n    tag_248:\n        /* \"#utility.yul\":901:985   */\n      swap3\n      swap2\n      pop\n      pop\n      jump\t// out\n        /* \"#utility.yul\":1004:1275   */\n    tag_250:\n        /* \"#utility.yul\":1059:1064   */\n      0x00\n        /* \"#utility.yul\":1108:1111   */\n      dup3\n        /* \"#utility.yul\":1101:1105   */\n      0x1f\n        /* \"#utility.yul\":1093:1099   */\n      dup4\n        /* \"#utility.yul\":1089:1106   */\n      add\n        /* \"#utility.yul\":1085:1112   */\n      slt\n        /* \"#utility.yul\":1075:1077   */\n      tag_252\n      jumpi\n        /* \"#utility.yul\":1126:1127   */\n      0x00\n        /* \"#utility.yul\":1123:1124   */\n      dup1\n        /* \"#utility.yul\":1116:1128   */\n      revert\n        /* \"#utility.yul\":1075:1077   */\n    tag_252:\n        /* \"#utility.yul\":1166:1172   */\n      dup2\n        /* \"#utility.yul\":1153:1173   */\n      calldataload\n        /* \"#utility.yul\":1191:1269   */\n      tag_253\n        /* \"#utility.yul\":1265:1268   */\n      dup5\n        /* \"#utility.yul\":1257:1263   */\n      dup3\n        /* \"#utility.yul\":1250:1254   */\n      0x20\n        /* \"#utility.yul\":1242:1248   */\n      dup7\n        /* \"#utility.yul\":1238:1255   */\n      add\n        /* \"#utility.yul\":1191:1269   */\n      tag_226\n      jump\t// in\n    tag_253:\n        /* \"#utility.yul\":1182:1269   */\n      swap2\n      pop\n        /* \"#utility.yul\":1065:1275   */\n      pop\n      swap3\n      swap2\n      pop\n      pop\n      jump\t// out\n        /* \"#utility.yul\":1295:1568   */\n    tag_254:\n        /* \"#utility.yul\":1351:1356   */\n      0x00\n        /* \"#utility.yul\":1400:1403   */\n      dup3\n        /* \"#utility.yul\":1393:1397   */\n      0x1f\n        /* \"#utility.yul\":1385:1391   */\n      dup4\n        /* \"#utility.yul\":1381:1398   */\n      add\n        /* \"#utility.yul\":1377:1404   */\n      slt\n        /* \"#utility.yul\":1367:1369   */\n      tag_256\n      jumpi\n        /* \"#utility.yul\":1418:1419   */\n      0x00\n        /* \"#utility.yul\":1415:1416   */\n      dup1\n        /* \"#utility.yul\":1408:1420   */\n      revert\n        /* \"#utility.yul\":1367:1369   */\n    tag_256:\n        /* \"#utility.yul\":1458:1464   */\n      dup2\n        /* \"#utility.yul\":1445:1465   */\n      calldataload\n        /* \"#utility.yul\":1483:1562   */\n      tag_257\n        /* \"#utility.yul\":1558:1561   */\n      dup5\n        /* \"#utility.yul\":1550:1556   */\n      dup3\n        /* \"#utility.yul\":1543:1547   */\n      0x20\n        /* \"#utility.yul\":1535:1541   */\n      dup7\n        /* \"#utility.yul\":1531:1548   */\n      add\n        /* \"#utility.yul\":1483:1562   */\n      tag_235\n      jump\t// in\n    tag_257:\n        /* \"#utility.yul\":1474:1562   */\n      swap2\n      pop\n        /* \"#utility.yul\":1357:1568   */\n      pop\n      swap3\n      swap2\n      pop\n      pop\n      jump\t// out\n        /* \"#utility.yul\":1574:1713   */\n    tag_258:\n        /* \"#utility.yul\":1620:1625   */\n      0x00\n        /* \"#utility.yul\":1658:1664   */\n      dup2\n        /* \"#utility.yul\":1645:1665   */\n      calldataload\n        /* \"#utility.yul\":1636:1665   */\n      swap1\n      pop\n        /* \"#utility.yul\":1674:1707   */\n      tag_260\n        /* \"#utility.yul\":1701:1706   */\n      dup2\n        /* \"#utility.yul\":1674:1707   */\n      tag_261\n      jump\t// in\n    tag_260:\n        /* \"#utility.yul\":1626:1713   */\n      swap3\n      swap2\n      pop\n      pop\n      jump\t// out\n        /* \"#utility.yul\":1719:1862   */\n    tag_262:\n        /* \"#utility.yul\":1776:1781   */\n      0x00\n        /* \"#utility.yul\":1807:1813   */\n      dup2\n        /* \"#utility.yul\":1801:1814   */\n      mload\n        /* \"#utility.yul\":1792:1814   */\n      swap1\n      pop\n        /* \"#utility.yul\":1823:1856   */\n      tag_264\n        /* \"#utility.yul\":1850:1855   */\n      dup2\n        /* \"#utility.yul\":1823:1856   */\n      tag_261\n      jump\t// in\n    tag_264:\n        /* \"#utility.yul\":1782:1862   */\n      swap3\n      swap2\n      pop\n      pop\n      jump\t// out\n        /* \"#utility.yul\":1868:2130   */\n    tag_46:\n        /* \"#utility.yul\":1927:1933   */\n      0x00\n        /* \"#utility.yul\":1976:1978   */\n      0x20\n        /* \"#utility.yul\":1964:1973   */\n      dup3\n        /* \"#utility.yul\":1955:1962   */\n      dup5\n        /* \"#utility.yul\":1951:1974   */\n      sub\n        /* \"#utility.yul\":1947:1979   */\n      slt\n        /* \"#utility.yul\":1944:1946   */\n      iszero\n      tag_266\n      jumpi\n        /* \"#utility.yul\":1992:1993   */\n      0x00\n        /* \"#utility.yul\":1989:1990   */\n      dup1\n        /* \"#utility.yul\":1982:1994   */\n      revert\n        /* \"#utility.yul\":1944:1946   */\n    tag_266:\n        /* \"#utility.yul\":2035:2036   */\n      0x00\n        /* \"#utility.yul\":2060:2113   */\n      tag_267\n        /* \"#utility.yul\":2105:2112   */\n      dup5\n        /* \"#utility.yul\":2096:2102   */\n      dup3\n        /* \"#utility.yul\":2085:2094   */\n      dup6\n        /* \"#utility.yul\":2081:2103   */\n      add\n        /* \"#utility.yul\":2060:2113   */\n      tag_242\n      jump\t// in\n    tag_267:\n        /* \"#utility.yul\":2050:2113   */\n      swap2\n      pop\n        /* \"#utility.yul\":2006:2123   */\n      pop\n        /* \"#utility.yul\":1934:2130   */\n      swap3\n      swap2\n      pop\n      pop\n      jump\t// out\n        /* \"#utility.yul\":2136:2509   */\n    tag_29:\n        /* \"#utility.yul\":2204:2210   */\n      0x00\n        /* \"#utility.yul\":2253:2255   */\n      0x20\n        /* \"#utility.yul\":2241:2250   */\n      dup3\n        /* \"#utility.yul\":2232:2239   */\n      dup5\n        /* \"#utility.yul\":2228:2251   */\n      sub\n        /* \"#utility.yul\":2224:2256   */\n      slt\n        /* \"#utility.yul\":2221:2223   */\n      iszero\n      tag_269\n      jumpi\n        /* \"#utility.yul\":2269:2270   */\n      0x00\n        /* \"#utility.yul\":2266:2267   */\n      dup1\n        /* \"#utility.yul\":2259:2271   */\n      revert\n        /* \"#utility.yul\":2221:2223   */\n    tag_269:\n        /* \"#utility.yul\":2340:2341   */\n      0x00\n        /* \"#utility.yul\":2329:2338   */\n      dup3\n        /* \"#utility.yul\":2325:2342   */\n      add\n        /* \"#utility.yul\":2312:2343   */\n      calldataload\n        /* \"#utility.yul\":2370:2388   */\n      0xffffffffffffffff\n        /* \"#utility.yul\":2362:2368   */\n      dup2\n        /* \"#utility.yul\":2359:2389   */\n      gt\n        /* \"#utility.yul\":2356:2358   */\n      iszero\n      tag_270\n      jumpi\n        /* \"#utility.yul\":2402:2403   */\n      0x00\n        /* \"#utility.yul\":2399:2400   */\n      dup1\n        /* \"#utility.yul\":2392:2404   */\n      revert\n        /* \"#utility.yul\":2356:2358   */\n    tag_270:\n        /* \"#utility.yul\":2430:2492   */\n      tag_271\n        /* \"#utility.yul\":2484:2491   */\n      dup5\n        /* \"#utility.yul\":2475:2481   */\n      dup3\n        /* \"#utility.yul\":2464:2473   */\n      dup6\n        /* \"#utility.yul\":2460:2482   */\n      add\n        /* \"#utility.yul\":2430:2492   */\n      tag_250\n      jump\t// in\n    tag_271:\n        /* \"#utility.yul\":2420:2492   */\n      swap2\n      pop\n        /* \"#utility.yul\":2283:2502   */\n      pop\n        /* \"#utility.yul\":2211:2509   */\n      swap3\n      swap2\n      pop\n      pop\n      jump\t// out\n        /* \"#utility.yul\":2515:3289   */\n    tag_85:\n        /* \"#utility.yul\":2610:2616   */\n      0x00\n        /* \"#utility.yul\":2618:2624   */\n      dup1\n        /* \"#utility.yul\":2626:2632   */\n      0x00\n        /* \"#utility.yul\":2675:2677   */\n      0x60\n        /* \"#utility.yul\":2663:2672   */\n      dup5\n        /* \"#utility.yul\":2654:2661   */\n      dup7\n        /* \"#utility.yul\":2650:2673   */\n      sub\n        /* \"#utility.yul\":2646:2678   */\n      slt\n        /* \"#utility.yul\":2643:2645   */\n      iszero\n      tag_273\n      jumpi\n        /* \"#utility.yul\":2691:2692   */\n      0x00\n        /* \"#utility.yul\":2688:2689   */\n      dup1\n        /* \"#utility.yul\":2681:2693   */\n      revert\n        /* \"#utility.yul\":2643:2645   */\n    tag_273:\n        /* \"#utility.yul\":2762:2763   */\n      0x00\n        /* \"#utility.yul\":2751:2760   */\n      dup5\n        /* \"#utility.yul\":2747:2764   */\n      add\n        /* \"#utility.yul\":2734:2765   */\n      calldataload\n        /* \"#utility.yul\":2792:2810   */\n      0xffffffffffffffff\n        /* \"#utility.yul\":2784:2790   */\n      dup2\n        /* \"#utility.yul\":2781:2811   */\n      gt\n        /* \"#utility.yul\":2778:2780   */\n      iszero\n      tag_274\n      jumpi\n        /* \"#utility.yul\":2824:2825   */\n      0x00\n        /* \"#utility.yul\":2821:2822   */\n      dup1\n        /* \"#utility.yul\":2814:2826   */\n      revert\n        /* \"#utility.yul\":2778:2780   */\n    tag_274:\n        /* \"#utility.yul\":2852:2914   */\n      tag_275\n        /* \"#utility.yul\":2906:2913   */\n      dup7\n        /* \"#utility.yul\":2897:2903   */\n      dup3\n        /* \"#utility.yul\":2886:2895   */\n      dup8\n        /* \"#utility.yul\":2882:2904   */\n      add\n        /* \"#utility.yul\":2852:2914   */\n      tag_250\n      jump\t// in\n    tag_275:\n        /* \"#utility.yul\":2842:2914   */\n      swap4\n      pop\n        /* \"#utility.yul\":2705:2924   */\n      pop\n        /* \"#utility.yul\":2991:2993   */\n      0x20\n        /* \"#utility.yul\":2980:2989   */\n      dup5\n        /* \"#utility.yul\":2976:2994   */\n      add\n        /* \"#utility.yul\":2963:2995   */\n      calldataload\n        /* \"#utility.yul\":3022:3040   */\n      0xffffffffffffffff\n        /* \"#utility.yul\":3014:3020   */\n      dup2\n        /* \"#utility.yul\":3011:3041   */\n      gt\n        /* \"#utility.yul\":3008:3010   */\n      iszero\n      tag_276\n      jumpi\n        /* \"#utility.yul\":3054:3055   */\n      0x00\n        /* \"#utility.yul\":3051:3052   */\n      dup1\n        /* \"#utility.yul\":3044:3056   */\n      revert\n        /* \"#utility.yul\":3008:3010   */\n    tag_276:\n        /* \"#utility.yul\":3082:3144   */\n      tag_277\n        /* \"#utility.yul\":3136:3143   */\n      dup7\n        /* \"#utility.yul\":3127:3133   */\n      dup3\n        /* \"#utility.yul\":3116:3125   */\n      dup8\n        /* \"#utility.yul\":3112:3134   */\n      add\n        /* \"#utility.yul\":3082:3144   */\n      tag_250\n      jump\t// in\n    tag_277:\n        /* \"#utility.yul\":3072:3144   */\n      swap3\n      pop\n        /* \"#utility.yul\":2934:3154   */\n      pop\n        /* \"#utility.yul\":3193:3195   */\n      0x40\n        /* \"#utility.yul\":3219:3272   */\n      tag_278\n        /* \"#utility.yul\":3264:3271   */\n      dup7\n        /* \"#utility.yul\":3255:3261   */\n      dup3\n        /* \"#utility.yul\":3244:3253   */\n      dup8\n        /* \"#utility.yul\":3240:3262   */\n      add\n        /* \"#utility.yul\":3219:3272   */\n      tag_258\n      jump\t// in\n    tag_278:\n        /* \"#utility.yul\":3209:3272   */\n      swap2\n      pop\n        /* \"#utility.yul\":3164:3282   */\n      pop\n        /* \"#utility.yul\":2633:3289   */\n      swap3\n      pop\n      swap3\n      pop\n      swap3\n      jump\t// out\n        /* \"#utility.yul\":3295:3813   */\n    tag_41:\n        /* \"#utility.yul\":3372:3378   */\n      0x00\n        /* \"#utility.yul\":3380:3386   */\n      dup1\n        /* \"#utility.yul\":3429:3431   */\n      0x40\n        /* \"#utility.yul\":3417:3426   */\n      dup4\n        /* \"#utility.yul\":3408:3415   */\n      dup6\n        /* \"#utility.yul\":3404:3427   */\n      sub\n        /* \"#utility.yul\":3400:3432   */\n      slt\n        /* \"#utility.yul\":3397:3399   */\n      iszero\n      tag_280\n      jumpi\n        /* \"#utility.yul\":3445:3446   */\n      0x00\n        /* \"#utility.yul\":3442:3443   */\n      dup1\n        /* \"#utility.yul\":3435:3447   */\n      revert\n        /* \"#utility.yul\":3397:3399   */\n    tag_280:\n        /* \"#utility.yul\":3516:3517   */\n      0x00\n        /* \"#utility.yul\":3505:3514   */\n      dup4\n        /* \"#utility.yul\":3501:3518   */\n      add\n        /* \"#utility.yul\":3488:3519   */\n      calldataload\n        /* \"#utility.yul\":3546:3564   */\n      0xffffffffffffffff\n        /* \"#utility.yul\":3538:3544   */\n      dup2\n        /* \"#utility.yul\":3535:3565   */\n      gt\n        /* \"#utility.yul\":3532:3534   */\n      iszero\n      tag_281\n      jumpi\n        /* \"#utility.yul\":3578:3579   */\n      0x00\n        /* \"#utility.yul\":3575:3576   */\n      dup1\n        /* \"#utility.yul\":3568:3580   */\n      revert\n        /* \"#utility.yul\":3532:3534   */\n    tag_281:\n        /* \"#utility.yul\":3606:3668   */\n      tag_282\n        /* \"#utility.yul\":3660:3667   */\n      dup6\n        /* \"#utility.yul\":3651:3657   */\n      dup3\n        /* \"#utility.yul\":3640:3649   */\n      dup7\n        /* \"#utility.yul\":3636:3658   */\n      add\n        /* \"#utility.yul\":3606:3668   */\n      tag_250\n      jump\t// in\n    tag_282:\n        /* \"#utility.yul\":3596:3668   */\n      swap3\n      pop\n        /* \"#utility.yul\":3459:3678   */\n      pop\n        /* \"#utility.yul\":3717:3719   */\n      0x20\n        /* \"#utility.yul\":3743:3796   */\n      tag_283\n        /* \"#utility.yul\":3788:3795   */\n      dup6\n        /* \"#utility.yul\":3779:3785   */\n      dup3\n        /* \"#utility.yul\":3768:3777   */\n      dup7\n        /* \"#utility.yul\":3764:3786   */\n      add\n        /* \"#utility.yul\":3743:3796   */\n      tag_258\n      jump\t// in\n    tag_283:\n        /* \"#utility.yul\":3733:3796   */\n      swap2\n      pop\n        /* \"#utility.yul\":3688:3806   */\n      pop\n        /* \"#utility.yul\":3387:3813   */\n      swap3\n      pop\n      swap3\n      swap1\n      pop\n      jump\t// out\n        /* \"#utility.yul\":3819:4484   */\n    tag_96:\n        /* \"#utility.yul\":3906:3912   */\n      0x00\n        /* \"#utility.yul\":3914:3920   */\n      dup1\n        /* \"#utility.yul\":3922:3928   */\n      0x00\n        /* \"#utility.yul\":3971:3973   */\n      0x60\n        /* \"#utility.yul\":3959:3968   */\n      dup5\n        /* \"#utility.yul\":3950:3957   */\n      dup7\n        /* \"#utility.yul\":3946:3969   */\n      sub\n        /* \"#utility.yul\":3942:3974   */\n      slt\n        /* \"#utility.yul\":3939:3941   */\n      iszero\n      tag_285\n      jumpi\n        /* \"#utility.yul\":3987:3988   */\n      0x00\n        /* \"#utility.yul\":3984:3985   */\n      dup1\n        /* \"#utility.yul\":3977:3989   */\n      revert\n        /* \"#utility.yul\":3939:3941   */\n    tag_285:\n        /* \"#utility.yul\":4058:4059   */\n      0x00\n        /* \"#utility.yul\":4047:4056   */\n      dup5\n        /* \"#utility.yul\":4043:4060   */\n      add\n        /* \"#utility.yul\":4030:4061   */\n      calldataload\n        /* \"#utility.yul\":4088:4106   */\n      0xffffffffffffffff\n        /* \"#utility.yul\":4080:4086   */\n      dup2\n        /* \"#utility.yul\":4077:4107   */\n      gt\n        /* \"#utility.yul\":4074:4076   */\n      iszero\n      tag_286\n      jumpi\n        /* \"#utility.yul\":4120:4121   */\n      0x00\n        /* \"#utility.yul\":4117:4118   */\n      dup1\n        /* \"#utility.yul\":4110:4122   */\n      revert\n        /* \"#utility.yul\":4074:4076   */\n    tag_286:\n        /* \"#utility.yul\":4148:4211   */\n      tag_287\n        /* \"#utility.yul\":4203:4210   */\n      dup7\n        /* \"#utility.yul\":4194:4200   */\n      dup3\n        /* \"#utility.yul\":4183:4192   */\n      dup8\n        /* \"#utility.yul\":4179:4201   */\n      add\n        /* \"#utility.yul\":4148:4211   */\n      tag_254\n      jump\t// in\n    tag_287:\n        /* \"#utility.yul\":4138:4211   */\n      swap4\n      pop\n        /* \"#utility.yul\":4001:4221   */\n      pop\n        /* \"#utility.yul\":4260:4262   */\n      0x20\n        /* \"#utility.yul\":4286:4339   */\n      tag_288\n        /* \"#utility.yul\":4331:4338   */\n      dup7\n        /* \"#utility.yul\":4322:4328   */\n      dup3\n        /* \"#utility.yul\":4311:4320   */\n      dup8\n        /* \"#utility.yul\":4307:4329   */\n      add\n        /* \"#utility.yul\":4286:4339   */\n      tag_242\n      jump\t// in\n    tag_288:\n        /* \"#utility.yul\":4276:4339   */\n      swap3\n      pop\n        /* \"#utility.yul\":4231:4349   */\n      pop\n        /* \"#utility.yul\":4388:4390   */\n      0x40\n        /* \"#utility.yul\":4414:4467   */\n      tag_289\n        /* \"#utility.yul\":4459:4466   */\n      dup7\n        /* \"#utility.yul\":4450:4456   */\n      dup3\n        /* \"#utility.yul\":4439:4448   */\n      dup8\n        /* \"#utility.yul\":4435:4457   */\n      add\n        /* \"#utility.yul\":4414:4467   */\n      tag_258\n      jump\t// in\n    tag_289:\n        /* \"#utility.yul\":4404:4467   */\n      swap2\n      pop\n        /* \"#utility.yul\":4359:4477   */\n      pop\n        /* \"#utility.yul\":3929:4484   */\n      swap3\n      pop\n      swap3\n      pop\n      swap3\n      jump\t// out\n        /* \"#utility.yul\":4490:4752   */\n    tag_34:\n        /* \"#utility.yul\":4549:4555   */\n      0x00\n        /* \"#utility.yul\":4598:4600   */\n      0x20\n        /* \"#utility.yul\":4586:4595   */\n      dup3\n        /* \"#utility.yul\":4577:4584   */\n      dup5\n        /* \"#utility.yul\":4573:4596   */\n      sub\n        /* \"#utility.yul\":4569:4601   */\n      slt\n        /* \"#utility.yul\":4566:4568   */\n      iszero\n      tag_291\n      jumpi\n        /* \"#utility.yul\":4614:4615   */\n      0x00\n        /* \"#utility.yul\":4611:4612   */\n      dup1\n        /* \"#utility.yul\":4604:4616   */\n      revert\n        /* \"#utility.yul\":4566:4568   */\n    tag_291:\n        /* \"#utility.yul\":4657:4658   */\n      0x00\n        /* \"#utility.yul\":4682:4735   */\n      tag_292\n        /* \"#utility.yul\":4727:4734   */\n      dup5\n        /* \"#utility.yul\":4718:4724   */\n      dup3\n        /* \"#utility.yul\":4707:4716   */\n      dup6\n        /* \"#utility.yul\":4703:4725   */\n      add\n        /* \"#utility.yul\":4682:4735   */\n      tag_258\n      jump\t// in\n    tag_292:\n        /* \"#utility.yul\":4672:4735   */\n      swap2\n      pop\n        /* \"#utility.yul\":4628:4745   */\n      pop\n        /* \"#utility.yul\":4556:4752   */\n      swap3\n      swap2\n      pop\n      pop\n      jump\t// out\n        /* \"#utility.yul\":4758:5042   */\n    tag_188:\n        /* \"#utility.yul\":4828:4834   */\n      0x00\n        /* \"#utility.yul\":4877:4879   */\n      0x20\n        /* \"#utility.yul\":4865:4874   */\n      dup3\n        /* \"#utility.yul\":4856:4863   */\n      dup5\n        /* \"#utility.yul\":4852:4875   */\n      sub\n        /* \"#utility.yul\":4848:4880   */\n      slt\n        /* \"#utility.yul\":4845:4847   */\n      iszero\n      tag_294\n      jumpi\n        /* \"#utility.yul\":4893:4894   */\n      0x00\n        /* \"#utility.yul\":4890:4891   */\n      dup1\n        /* \"#utility.yul\":4883:4895   */\n      revert\n        /* \"#utility.yul\":4845:4847   */\n    tag_294:\n        /* \"#utility.yul\":4936:4937   */\n      0x00\n        /* \"#utility.yul\":4961:5025   */\n      tag_295\n        /* \"#utility.yul\":5017:5024   */\n      dup5\n        /* \"#utility.yul\":5008:5014   */\n      dup3\n        /* \"#utility.yul\":4997:5006   */\n      dup6\n        /* \"#utility.yul\":4993:5015   */\n      add\n        /* \"#utility.yul\":4961:5025   */\n      tag_262\n      jump\t// in\n    tag_295:\n        /* \"#utility.yul\":4951:5025   */\n      swap2\n      pop\n        /* \"#utility.yul\":4907:5035   */\n      pop\n        /* \"#utility.yul\":4835:5042   */\n      swap3\n      swap2\n      pop\n      pop\n      jump\t// out\n        /* \"#utility.yul\":5048:5455   */\n    tag_51:\n        /* \"#utility.yul\":5116:5122   */\n      0x00\n        /* \"#utility.yul\":5124:5130   */\n      dup1\n        /* \"#utility.yul\":5173:5175   */\n      0x40\n        /* \"#utility.yul\":5161:5170   */\n      dup4\n        /* \"#utility.yul\":5152:5159   */\n      dup6\n        /* \"#utility.yul\":5148:5171   */\n      sub\n        /* \"#utility.yul\":5144:5176   */\n      slt\n        /* \"#utility.yul\":5141:5143   */\n      iszero\n      tag_297\n      jumpi\n        /* \"#utility.yul\":5189:5190   */\n      0x00\n        /* \"#utility.yul\":5186:5187   */\n      dup1\n        /* \"#utility.yul\":5179:5191   */\n      revert\n        /* \"#utility.yul\":5141:5143   */\n    tag_297:\n        /* \"#utility.yul\":5232:5233   */\n      0x00\n        /* \"#utility.yul\":5257:5310   */\n      tag_298\n        /* \"#utility.yul\":5302:5309   */\n      dup6\n        /* \"#utility.yul\":5293:5299   */\n      dup3\n        /* \"#utility.yul\":5282:5291   */\n      dup7\n        /* \"#utility.yul\":5278:5300   */\n      add\n        /* \"#utility.yul\":5257:5310   */\n      tag_258\n      jump\t// in\n    tag_298:\n        /* \"#utility.yul\":5247:5310   */\n      swap3\n      pop\n        /* \"#utility.yul\":5203:5320   */\n      pop\n        /* \"#utility.yul\":5359:5361   */\n      0x20\n        /* \"#utility.yul\":5385:5438   */\n      tag_299\n        /* \"#utility.yul\":5430:5437   */\n      dup6\n        /* \"#utility.yul\":5421:5427   */\n      dup3\n        /* \"#utility.yul\":5410:5419   */\n      dup7\n        /* \"#utility.yul\":5406:5428   */\n      add\n        /* \"#utility.yul\":5385:5438   */\n      tag_242\n      jump\t// in\n    tag_299:\n        /* \"#utility.yul\":5375:5438   */\n      swap2\n      pop\n        /* \"#utility.yul\":5330:5448   */\n      pop\n        /* \"#utility.yul\":5131:5455   */\n      swap3\n      pop\n      swap3\n      swap1\n      pop\n      jump\t// out\n        /* \"#utility.yul\":5461:5862   */\n    tag_65:\n        /* \"#utility.yul\":5526:5532   */\n      0x00\n        /* \"#utility.yul\":5534:5540   */\n      dup1\n        /* \"#utility.yul\":5583:5585   */\n      0x40\n        /* \"#utility.yul\":5571:5580   */\n      dup4\n        /* \"#utility.yul\":5562:5569   */\n      dup6\n        /* \"#utility.yul\":5558:5581   */\n      sub\n        /* \"#utility.yul\":5554:5586   */\n      slt\n        /* \"#utility.yul\":5551:5553   */\n      iszero\n      tag_301\n      jumpi\n        /* \"#utility.yul\":5599:5600   */\n      0x00\n        /* \"#utility.yul\":5596:5597   */\n      dup1\n        /* \"#utility.yul\":5589:5601   */\n      revert\n        /* \"#utility.yul\":5551:5553   */\n    tag_301:\n        /* \"#utility.yul\":5642:5643   */\n      0x00\n        /* \"#utility.yul\":5667:5720   */\n      tag_302\n        /* \"#utility.yul\":5712:5719   */\n      dup6\n        /* \"#utility.yul\":5703:5709   */\n      dup3\n        /* \"#utility.yul\":5692:5701   */\n      dup7\n        /* \"#utility.yul\":5688:5710   */\n      add\n        /* \"#utility.yul\":5667:5720   */\n      tag_258\n      jump\t// in\n    tag_302:\n        /* \"#utility.yul\":5657:5720   */\n      swap3\n      pop\n        /* \"#utility.yul\":5613:5730   */\n      pop\n        /* \"#utility.yul\":5769:5771   */\n      0x20\n        /* \"#utility.yul\":5795:5845   */\n      tag_303\n        /* \"#utility.yul\":5837:5844   */\n      dup6\n        /* \"#utility.yul\":5828:5834   */\n      dup3\n        /* \"#utility.yul\":5817:5826   */\n      dup7\n        /* \"#utility.yul\":5813:5835   */\n      add\n        /* \"#utility.yul\":5795:5845   */\n      tag_246\n      jump\t// in\n    tag_303:\n        /* \"#utility.yul\":5785:5845   */\n      swap2\n      pop\n        /* \"#utility.yul\":5740:5855   */\n      pop\n        /* \"#utility.yul\":5541:5862   */\n      swap3\n      pop\n      swap3\n      swap1\n      pop\n      jump\t// out\n        /* \"#utility.yul\":5868:5986   */\n    tag_304:\n        /* \"#utility.yul\":5955:5979   */\n      tag_306\n        /* \"#utility.yul\":5973:5978   */\n      dup2\n        /* \"#utility.yul\":5955:5979   */\n      tag_307\n      jump\t// in\n    tag_306:\n        /* \"#utility.yul\":5950:5953   */\n      dup3\n        /* \"#utility.yul\":5943:5980   */\n      mstore\n        /* \"#utility.yul\":5933:5986   */\n      pop\n      pop\n      jump\t// out\n        /* \"#utility.yul\":5992:6101   */\n    tag_308:\n        /* \"#utility.yul\":6073:6094   */\n      tag_310\n        /* \"#utility.yul\":6088:6093   */\n      dup2\n        /* \"#utility.yul\":6073:6094   */\n      tag_311\n      jump\t// in\n    tag_310:\n        /* \"#utility.yul\":6068:6071   */\n      dup3\n        /* \"#utility.yul\":6061:6095   */\n      mstore\n        /* \"#utility.yul\":6051:6101   */\n      pop\n      pop\n      jump\t// out\n        /* \"#utility.yul\":6107:6447   */\n    tag_312:\n        /* \"#utility.yul\":6183:6186   */\n      0x00\n        /* \"#utility.yul\":6211:6249   */\n      tag_314\n        /* \"#utility.yul\":6243:6248   */\n      dup3\n        /* \"#utility.yul\":6211:6249   */\n      tag_315\n      jump\t// in\n    tag_314:\n        /* \"#utility.yul\":6265:6325   */\n      tag_316\n        /* \"#utility.yul\":6318:6324   */\n      dup2\n        /* \"#utility.yul\":6313:6316   */\n      dup6\n        /* \"#utility.yul\":6265:6325   */\n      tag_317\n      jump\t// in\n    tag_316:\n        /* \"#utility.yul\":6258:6325   */\n      swap4\n      pop\n        /* \"#utility.yul\":6334:6386   */\n      tag_318\n        /* \"#utility.yul\":6379:6385   */\n      dup2\n        /* \"#utility.yul\":6374:6377   */\n      dup6\n        /* \"#utility.yul\":6367:6371   */\n      0x20\n        /* \"#utility.yul\":6360:6365   */\n      dup7\n        /* \"#utility.yul\":6356:6372   */\n      add\n        /* \"#utility.yul\":6334:6386   */\n      tag_319\n      jump\t// in\n    tag_318:\n        /* \"#utility.yul\":6411:6440   */\n      tag_320\n        /* \"#utility.yul\":6433:6439   */\n      dup2\n        /* \"#utility.yul\":6411:6440   */\n      tag_321\n      jump\t// in\n    tag_320:\n        /* \"#utility.yul\":6406:6409   */\n      dup5\n        /* \"#utility.yul\":6402:6441   */\n      add\n        /* \"#utility.yul\":6395:6441   */\n      swap2\n      pop\n        /* \"#utility.yul\":6187:6447   */\n      pop\n      swap3\n      swap2\n      pop\n      pop\n      jump\t// out\n        /* \"#utility.yul\":6453:6817   */\n    tag_322:\n        /* \"#utility.yul\":6541:6544   */\n      0x00\n        /* \"#utility.yul\":6569:6608   */\n      tag_324\n        /* \"#utility.yul\":6602:6607   */\n      dup3\n        /* \"#utility.yul\":6569:6608   */\n      tag_325\n      jump\t// in\n    tag_324:\n        /* \"#utility.yul\":6624:6695   */\n      tag_326\n        /* \"#utility.yul\":6688:6694   */\n      dup2\n        /* \"#utility.yul\":6683:6686   */\n      dup6\n        /* \"#utility.yul\":6624:6695   */\n      tag_327\n      jump\t// in\n    tag_326:\n        /* \"#utility.yul\":6617:6695   */\n      swap4\n      pop\n        /* \"#utility.yul\":6704:6756   */\n      tag_328\n        /* \"#utility.yul\":6749:6755   */\n      dup2\n        /* \"#utility.yul\":6744:6747   */\n      dup6\n        /* \"#utility.yul\":6737:6741   */\n      0x20\n        /* \"#utility.yul\":6730:6735   */\n      dup7\n        /* \"#utility.yul\":6726:6742   */\n      add\n        /* \"#utility.yul\":6704:6756   */\n      tag_319\n      jump\t// in\n    tag_328:\n        /* \"#utility.yul\":6781:6810   */\n      tag_329\n        /* \"#utility.yul\":6803:6809   */\n      dup2\n        /* \"#utility.yul\":6781:6810   */\n      tag_321\n      jump\t// in\n    tag_329:\n        /* \"#utility.yul\":6776:6779   */\n      dup5\n        /* \"#utility.yul\":6772:6811   */\n      add\n        /* \"#utility.yul\":6765:6811   */\n      swap2\n      pop\n        /* \"#utility.yul\":6545:6817   */\n      pop\n      swap3\n      swap2\n      pop\n      pop\n      jump\t// out\n        /* \"#utility.yul\":6823:7189   */\n    tag_330:\n        /* \"#utility.yul\":6965:6968   */\n      0x00\n        /* \"#utility.yul\":6986:7053   */\n      tag_332\n        /* \"#utility.yul\":7050:7052   */\n      0x26\n        /* \"#utility.yul\":7045:7048   */\n      dup4\n        /* \"#utility.yul\":6986:7053   */\n      tag_327\n      jump\t// in\n    tag_332:\n        /* \"#utility.yul\":6979:7053   */\n      swap2\n      pop\n        /* \"#utility.yul\":7062:7155   */\n      tag_333\n        /* \"#utility.yul\":7151:7154   */\n      dup3\n        /* \"#utility.yul\":7062:7155   */\n      tag_334\n      jump\t// in\n    tag_333:\n        /* \"#utility.yul\":7180:7182   */\n      0x40\n        /* \"#utility.yul\":7175:7178   */\n      dup3\n        /* \"#utility.yul\":7171:7183   */\n      add\n        /* \"#utility.yul\":7164:7183   */\n      swap1\n      pop\n        /* \"#utility.yul\":6969:7189   */\n      swap2\n      swap1\n      pop\n      jump\t// out\n        /* \"#utility.yul\":7195:7561   */\n    tag_335:\n        /* \"#utility.yul\":7337:7340   */\n      0x00\n        /* \"#utility.yul\":7358:7425   */\n      tag_337\n        /* \"#utility.yul\":7422:7424   */\n      0x20\n        /* \"#utility.yul\":7417:7420   */\n      dup4\n        /* \"#utility.yul\":7358:7425   */\n      tag_327\n      jump\t// in\n    tag_337:\n        /* \"#utility.yul\":7351:7425   */\n      swap2\n      pop\n        /* \"#utility.yul\":7434:7527   */\n      tag_338\n        /* \"#utility.yul\":7523:7526   */\n      dup3\n        /* \"#utility.yul\":7434:7527   */\n      tag_339\n      jump\t// in\n    tag_338:\n        /* \"#utility.yul\":7552:7554   */\n      0x20\n        /* \"#utility.yul\":7547:7550   */\n      dup3\n        /* \"#utility.yul\":7543:7555   */\n      add\n        /* \"#utility.yul\":7536:7555   */\n      swap1\n      pop\n        /* \"#utility.yul\":7341:7561   */\n      swap2\n      swap1\n      pop\n      jump\t// out\n        /* \"#utility.yul\":7635:8658   */\n    tag_340:\n        /* \"#utility.yul\":7754:7757   */\n      0x00\n        /* \"#utility.yul\":7790:7794   */\n      0x80\n        /* \"#utility.yul\":7785:7788   */\n      dup4\n        /* \"#utility.yul\":7781:7795   */\n      add\n        /* \"#utility.yul\":7878:7882   */\n      0x00\n        /* \"#utility.yul\":7871:7876   */\n      dup4\n        /* \"#utility.yul\":7867:7883   */\n      add\n        /* \"#utility.yul\":7861:7884   */\n      mload\n        /* \"#utility.yul\":7897:7960   */\n      tag_342\n        /* \"#utility.yul\":7954:7958   */\n      0x00\n        /* \"#utility.yul\":7949:7952   */\n      dup7\n        /* \"#utility.yul\":7945:7959   */\n      add\n        /* \"#utility.yul\":7931:7943   */\n      dup3\n        /* \"#utility.yul\":7897:7960   */\n      tag_343\n      jump\t// in\n    tag_342:\n        /* \"#utility.yul\":7805:7970   */\n      pop\n        /* \"#utility.yul\":8059:8063   */\n      0x20\n        /* \"#utility.yul\":8052:8057   */\n      dup4\n        /* \"#utility.yul\":8048:8064   */\n      add\n        /* \"#utility.yul\":8042:8065   */\n      mload\n        /* \"#utility.yul\":8112:8115   */\n      dup5\n        /* \"#utility.yul\":8106:8110   */\n      dup3\n        /* \"#utility.yul\":8102:8116   */\n      sub\n        /* \"#utility.yul\":8095:8099   */\n      0x20\n        /* \"#utility.yul\":8090:8093   */\n      dup7\n        /* \"#utility.yul\":8086:8100   */\n      add\n        /* \"#utility.yul\":8079:8117   */\n      mstore\n        /* \"#utility.yul\":8138:8209   */\n      tag_344\n        /* \"#utility.yul\":8204:8208   */\n      dup3\n        /* \"#utility.yul\":8190:8202   */\n      dup3\n        /* \"#utility.yul\":8138:8209   */\n      tag_312\n      jump\t// in\n    tag_344:\n        /* \"#utility.yul\":8130:8209   */\n      swap2\n      pop\n        /* \"#utility.yul\":7980:8220   */\n      pop\n        /* \"#utility.yul\":8299:8303   */\n      0x40\n        /* \"#utility.yul\":8292:8297   */\n      dup4\n        /* \"#utility.yul\":8288:8304   */\n      add\n        /* \"#utility.yul\":8282:8305   */\n      mload\n        /* \"#utility.yul\":8352:8355   */\n      dup5\n        /* \"#utility.yul\":8346:8350   */\n      dup3\n        /* \"#utility.yul\":8342:8356   */\n      sub\n        /* \"#utility.yul\":8335:8339   */\n      0x40\n        /* \"#utility.yul\":8330:8333   */\n      dup7\n        /* \"#utility.yul\":8326:8340   */\n      add\n        /* \"#utility.yul\":8319:8357   */\n      mstore\n        /* \"#utility.yul\":8378:8449   */\n      tag_345\n        /* \"#utility.yul\":8444:8448   */\n      dup3\n        /* \"#utility.yul\":8430:8442   */\n      dup3\n        /* \"#utility.yul\":8378:8449   */\n      tag_312\n      jump\t// in\n    tag_345:\n        /* \"#utility.yul\":8370:8449   */\n      swap2\n      pop\n        /* \"#utility.yul\":8230:8460   */\n      pop\n        /* \"#utility.yul\":8539:8543   */\n      0x60\n        /* \"#utility.yul\":8532:8537   */\n      dup4\n        /* \"#utility.yul\":8528:8544   */\n      add\n        /* \"#utility.yul\":8522:8545   */\n      mload\n        /* \"#utility.yul\":8558:8621   */\n      tag_346\n        /* \"#utility.yul\":8615:8619   */\n      0x60\n        /* \"#utility.yul\":8610:8613   */\n      dup7\n        /* \"#utility.yul\":8606:8620   */\n      add\n        /* \"#utility.yul\":8592:8604   */\n      dup3\n        /* \"#utility.yul\":8558:8621   */\n      tag_343\n      jump\t// in\n    tag_346:\n        /* \"#utility.yul\":8470:8631   */\n      pop\n        /* \"#utility.yul\":8648:8652   */\n      dup1\n        /* \"#utility.yul\":8641:8652   */\n      swap2\n      pop\n        /* \"#utility.yul\":7759:8658   */\n      pop\n      swap3\n      swap2\n      pop\n      pop\n      jump\t// out\n        /* \"#utility.yul\":8664:8772   */\n    tag_343:\n        /* \"#utility.yul\":8741:8765   */\n      tag_348\n        /* \"#utility.yul\":8759:8764   */\n      dup2\n        /* \"#utility.yul\":8741:8765   */\n      tag_349\n      jump\t// in\n    tag_348:\n        /* \"#utility.yul\":8736:8739   */\n      dup3\n        /* \"#utility.yul\":8729:8766   */\n      mstore\n        /* \"#utility.yul\":8719:8772   */\n      pop\n      pop\n      jump\t// out\n        /* \"#utility.yul\":8778:8896   */\n    tag_350:\n        /* \"#utility.yul\":8865:8889   */\n      tag_352\n        /* \"#utility.yul\":8883:8888   */\n      dup2\n        /* \"#utility.yul\":8865:8889   */\n      tag_349\n      jump\t// in\n    tag_352:\n        /* \"#utility.yul\":8860:8863   */\n      dup3\n        /* \"#utility.yul\":8853:8890   */\n      mstore\n        /* \"#utility.yul\":8843:8896   */\n      pop\n      pop\n      jump\t// out\n        /* \"#utility.yul\":8902:9124   */\n    tag_58:\n        /* \"#utility.yul\":8995:8999   */\n      0x00\n        /* \"#utility.yul\":9033:9035   */\n      0x20\n        /* \"#utility.yul\":9022:9031   */\n      dup3\n        /* \"#utility.yul\":9018:9036   */\n      add\n        /* \"#utility.yul\":9010:9036   */\n      swap1\n      pop\n        /* \"#utility.yul\":9046:9117   */\n      tag_354\n        /* \"#utility.yul\":9114:9115   */\n      0x00\n        /* \"#utility.yul\":9103:9112   */\n      dup4\n        /* \"#utility.yul\":9099:9116   */\n      add\n        /* \"#utility.yul\":9090:9096   */\n      dup5\n        /* \"#utility.yul\":9046:9117   */\n      tag_304\n      jump\t// in\n    tag_354:\n        /* \"#utility.yul\":9000:9124   */\n      swap3\n      swap2\n      pop\n      pop\n      jump\t// out\n        /* \"#utility.yul\":9130:9553   */\n    tag_183:\n        /* \"#utility.yul\":9271:9275   */\n      0x00\n        /* \"#utility.yul\":9309:9311   */\n      0x40\n        /* \"#utility.yul\":9298:9307   */\n      dup3\n        /* \"#utility.yul\":9294:9312   */\n      add\n        /* \"#utility.yul\":9286:9312   */\n      swap1\n      pop\n        /* \"#utility.yul\":9322:9393   */\n      tag_356\n        /* \"#utility.yul\":9390:9391   */\n      0x00\n        /* \"#utility.yul\":9379:9388   */\n      dup4\n        /* \"#utility.yul\":9375:9392   */\n      add\n        /* \"#utility.yul\":9366:9372   */\n      dup6\n        /* \"#utility.yul\":9322:9393   */\n      tag_304\n      jump\t// in\n    tag_356:\n        /* \"#utility.yul\":9440:9449   */\n      dup2\n        /* \"#utility.yul\":9434:9438   */\n      dup2\n        /* \"#utility.yul\":9430:9450   */\n      sub\n        /* \"#utility.yul\":9425:9427   */\n      0x20\n        /* \"#utility.yul\":9414:9423   */\n      dup4\n        /* \"#utility.yul\":9410:9428   */\n      add\n        /* \"#utility.yul\":9403:9451   */\n      mstore\n        /* \"#utility.yul\":9468:9546   */\n      tag_357\n        /* \"#utility.yul\":9541:9545   */\n      dup2\n        /* \"#utility.yul\":9532:9538   */\n      dup5\n        /* \"#utility.yul\":9468:9546   */\n      tag_322\n      jump\t// in\n    tag_357:\n        /* \"#utility.yul\":9460:9546   */\n      swap1\n      pop\n        /* \"#utility.yul\":9276:9553   */\n      swap4\n      swap3\n      pop\n      pop\n      pop\n      jump\t// out\n        /* \"#utility.yul\":9559:9769   */\n    tag_37:\n        /* \"#utility.yul\":9646:9650   */\n      0x00\n        /* \"#utility.yul\":9684:9686   */\n      0x20\n        /* \"#utility.yul\":9673:9682   */\n      dup3\n        /* \"#utility.yul\":9669:9687   */\n      add\n        /* \"#utility.yul\":9661:9687   */\n      swap1\n      pop\n        /* \"#utility.yul\":9697:9762   */\n      tag_359\n        /* \"#utility.yul\":9759:9760   */\n      0x00\n        /* \"#utility.yul\":9748:9757   */\n      dup4\n        /* \"#utility.yul\":9744:9761   */\n      add\n        /* \"#utility.yul\":9735:9741   */\n      dup5\n        /* \"#utility.yul\":9697:9762   */\n      tag_308\n      jump\t// in\n    tag_359:\n        /* \"#utility.yul\":9651:9769   */\n      swap3\n      swap2\n      pop\n      pop\n      jump\t// out\n        /* \"#utility.yul\":9775:10194   */\n    tag_201:\n        /* \"#utility.yul\":9941:9945   */\n      0x00\n        /* \"#utility.yul\":9979:9981   */\n      0x20\n        /* \"#utility.yul\":9968:9977   */\n      dup3\n        /* \"#utility.yul\":9964:9982   */\n      add\n        /* \"#utility.yul\":9956:9982   */\n      swap1\n      pop\n        /* \"#utility.yul\":10028:10037   */\n      dup2\n        /* \"#utility.yul\":10022:10026   */\n      dup2\n        /* \"#utility.yul\":10018:10038   */\n      sub\n        /* \"#utility.yul\":10014:10015   */\n      0x00\n        /* \"#utility.yul\":10003:10012   */\n      dup4\n        /* \"#utility.yul\":9999:10016   */\n      add\n        /* \"#utility.yul\":9992:10039   */\n      mstore\n        /* \"#utility.yul\":10056:10187   */\n      tag_361\n        /* \"#utility.yul\":10182:10186   */\n      dup2\n        /* \"#utility.yul\":10056:10187   */\n      tag_330\n      jump\t// in\n    tag_361:\n        /* \"#utility.yul\":10048:10187   */\n      swap1\n      pop\n        /* \"#utility.yul\":9946:10194   */\n      swap2\n      swap1\n      pop\n      jump\t// out\n        /* \"#utility.yul\":10200:10619   */\n    tag_212:\n        /* \"#utility.yul\":10366:10370   */\n      0x00\n        /* \"#utility.yul\":10404:10406   */\n      0x20\n        /* \"#utility.yul\":10393:10402   */\n      dup3\n        /* \"#utility.yul\":10389:10407   */\n      add\n        /* \"#utility.yul\":10381:10407   */\n      swap1\n      pop\n        /* \"#utility.yul\":10453:10462   */\n      dup2\n        /* \"#utility.yul\":10447:10451   */\n      dup2\n        /* \"#utility.yul\":10443:10463   */\n      sub\n        /* \"#utility.yul\":10439:10440   */\n      0x00\n        /* \"#utility.yul\":10428:10437   */\n      dup4\n        /* \"#utility.yul\":10424:10441   */\n      add\n        /* \"#utility.yul\":10417:10464   */\n      mstore\n        /* \"#utility.yul\":10481:10612   */\n      tag_363\n        /* \"#utility.yul\":10607:10611   */\n      dup2\n        /* \"#utility.yul\":10481:10612   */\n      tag_335\n      jump\t// in\n    tag_363:\n        /* \"#utility.yul\":10473:10612   */\n      swap1\n      pop\n        /* \"#utility.yul\":10371:10619   */\n      swap2\n      swap1\n      pop\n      jump\t// out\n        /* \"#utility.yul\":10625:10998   */\n    tag_76:\n        /* \"#utility.yul\":10768:10772   */\n      0x00\n        /* \"#utility.yul\":10806:10808   */\n      0x20\n        /* \"#utility.yul\":10795:10804   */\n      dup3\n        /* \"#utility.yul\":10791:10809   */\n      add\n        /* \"#utility.yul\":10783:10809   */\n      swap1\n      pop\n        /* \"#utility.yul\":10855:10864   */\n      dup2\n        /* \"#utility.yul\":10849:10853   */\n      dup2\n        /* \"#utility.yul\":10845:10865   */\n      sub\n        /* \"#utility.yul\":10841:10842   */\n      0x00\n        /* \"#utility.yul\":10830:10839   */\n      dup4\n        /* \"#utility.yul\":10826:10843   */\n      add\n        /* \"#utility.yul\":10819:10866   */\n      mstore\n        /* \"#utility.yul\":10883:10991   */\n      tag_365\n        /* \"#utility.yul\":10986:10990   */\n      dup2\n        /* \"#utility.yul\":10977:10983   */\n      dup5\n        /* \"#utility.yul\":10883:10991   */\n      tag_340\n      jump\t// in\n    tag_365:\n        /* \"#utility.yul\":10875:10991   */\n      swap1\n      pop\n        /* \"#utility.yul\":10773:10998   */\n      swap3\n      swap2\n      pop\n      pop\n      jump\t// out\n        /* \"#utility.yul\":11004:11226   */\n    tag_92:\n        /* \"#utility.yul\":11097:11101   */\n      0x00\n        /* \"#utility.yul\":11135:11137   */\n      0x20\n        /* \"#utility.yul\":11124:11133   */\n      dup3\n        /* \"#utility.yul\":11120:11138   */\n      add\n        /* \"#utility.yul\":11112:11138   */\n      swap1\n      pop\n        /* \"#utility.yul\":11148:11219   */\n      tag_367\n        /* \"#utility.yul\":11216:11217   */\n      0x00\n        /* \"#utility.yul\":11205:11214   */\n      dup4\n        /* \"#utility.yul\":11201:11218   */\n      add\n        /* \"#utility.yul\":11192:11198   */\n      dup5\n        /* \"#utility.yul\":11148:11219   */\n      tag_350\n      jump\t// in\n    tag_367:\n        /* \"#utility.yul\":11102:11226   */\n      swap3\n      swap2\n      pop\n      pop\n      jump\t// out\n        /* \"#utility.yul\":11232:11564   */\n    tag_190:\n        /* \"#utility.yul\":11353:11357   */\n      0x00\n        /* \"#utility.yul\":11391:11393   */\n      0x40\n        /* \"#utility.yul\":11380:11389   */\n      dup3\n        /* \"#utility.yul\":11376:11394   */\n      add\n        /* \"#utility.yul\":11368:11394   */\n      swap1\n      pop\n        /* \"#utility.yul\":11404:11475   */\n      tag_369\n        /* \"#utility.yul\":11472:11473   */\n      0x00\n        /* \"#utility.yul\":11461:11470   */\n      dup4\n        /* \"#utility.yul\":11457:11474   */\n      add\n        /* \"#utility.yul\":11448:11454   */\n      dup6\n        /* \"#utility.yul\":11404:11475   */\n      tag_350\n      jump\t// in\n    tag_369:\n        /* \"#utility.yul\":11485:11557   */\n      tag_370\n        /* \"#utility.yul\":11553:11555   */\n      0x20\n        /* \"#utility.yul\":11542:11551   */\n      dup4\n        /* \"#utility.yul\":11538:11556   */\n      add\n        /* \"#utility.yul\":11529:11535   */\n      dup5\n        /* \"#utility.yul\":11485:11557   */\n      tag_350\n      jump\t// in\n    tag_370:\n        /* \"#utility.yul\":11358:11564   */\n      swap4\n      swap3\n      pop\n      pop\n      pop\n      jump\t// out\n        /* \"#utility.yul\":11570:11699   */\n    tag_231:\n        /* \"#utility.yul\":11604:11610   */\n      0x00\n        /* \"#utility.yul\":11631:11651   */\n      tag_372\n      tag_373\n      jump\t// in\n    tag_372:\n        /* \"#utility.yul\":11621:11651   */\n      swap1\n      pop\n        /* \"#utility.yul\":11660:11693   */\n      tag_374\n        /* \"#utility.yul\":11688:11692   */\n      dup3\n        /* \"#utility.yul\":11680:11686   */\n      dup3\n        /* \"#utility.yul\":11660:11693   */\n      tag_375\n      jump\t// in\n    tag_374:\n        /* \"#utility.yul\":11611:11699   */\n      swap2\n      swap1\n      pop\n      jump\t// out\n        /* \"#utility.yul\":11705:11780   */\n    tag_373:\n        /* \"#utility.yul\":11738:11744   */\n      0x00\n        /* \"#utility.yul\":11771:11773   */\n      0x40\n        /* \"#utility.yul\":11765:11774   */\n      mload\n        /* \"#utility.yul\":11755:11774   */\n      swap1\n      pop\n        /* \"#utility.yul\":11745:11780   */\n      swap1\n      jump\t// out\n        /* \"#utility.yul\":11786:12093   */\n    tag_230:\n        /* \"#utility.yul\":11847:11851   */\n      0x00\n        /* \"#utility.yul\":11937:11955   */\n      0xffffffffffffffff\n        /* \"#utility.yul\":11929:11935   */\n      dup3\n        /* \"#utility.yul\":11926:11956   */\n      gt\n        /* \"#utility.yul\":11923:11925   */\n      iszero\n      tag_378\n      jumpi\n        /* \"#utility.yul\":11959:11977   */\n      tag_379\n      tag_380\n      jump\t// in\n    tag_379:\n        /* \"#utility.yul\":11923:11925   */\n    tag_378:\n        /* \"#utility.yul\":11997:12026   */\n      tag_381\n        /* \"#utility.yul\":12019:12025   */\n      dup3\n        /* \"#utility.yul\":11997:12026   */\n      tag_321\n      jump\t// in\n    tag_381:\n        /* \"#utility.yul\":11989:12026   */\n      swap1\n      pop\n        /* \"#utility.yul\":12081:12085   */\n      0x20\n        /* \"#utility.yul\":12075:12079   */\n      dup2\n        /* \"#utility.yul\":12071:12086   */\n      add\n        /* \"#utility.yul\":12063:12086   */\n      swap1\n      pop\n        /* \"#utility.yul\":11852:12093   */\n      swap2\n      swap1\n      pop\n      jump\t// out\n        /* \"#utility.yul\":12099:12407   */\n    tag_239:\n        /* \"#utility.yul\":12161:12165   */\n      0x00\n        /* \"#utility.yul\":12251:12269   */\n      0xffffffffffffffff\n        /* \"#utility.yul\":12243:12249   */\n      dup3\n        /* \"#utility.yul\":12240:12270   */\n      gt\n        /* \"#utility.yul\":12237:12239   */\n      iszero\n      tag_383\n      jumpi\n        /* \"#utility.yul\":12273:12291   */\n      tag_384\n      tag_380\n      jump\t// in\n    tag_384:\n        /* \"#utility.yul\":12237:12239   */\n    tag_383:\n        /* \"#utility.yul\":12311:12340   */\n      tag_385\n        /* \"#utility.yul\":12333:12339   */\n      dup3\n        /* \"#utility.yul\":12311:12340   */\n      tag_321\n      jump\t// in\n    tag_385:\n        /* \"#utility.yul\":12303:12340   */\n      swap1\n      pop\n        /* \"#utility.yul\":12395:12399   */\n      0x20\n        /* \"#utility.yul\":12389:12393   */\n      dup2\n        /* \"#utility.yul\":12385:12400   */\n      add\n        /* \"#utility.yul\":12377:12400   */\n      swap1\n      pop\n        /* \"#utility.yul\":12166:12407   */\n      swap2\n      swap1\n      pop\n      jump\t// out\n        /* \"#utility.yul\":12413:12511   */\n    tag_315:\n        /* \"#utility.yul\":12464:12470   */\n      0x00\n        /* \"#utility.yul\":12498:12503   */\n      dup2\n        /* \"#utility.yul\":12492:12504   */\n      mload\n        /* \"#utility.yul\":12482:12504   */\n      swap1\n      pop\n        /* \"#utility.yul\":12471:12511   */\n      swap2\n      swap1\n      pop\n      jump\t// out\n        /* \"#utility.yul\":12517:12616   */\n    tag_325:\n        /* \"#utility.yul\":12569:12575   */\n      0x00\n        /* \"#utility.yul\":12603:12608   */\n      dup2\n        /* \"#utility.yul\":12597:12609   */\n      mload\n        /* \"#utility.yul\":12587:12609   */\n      swap1\n      pop\n        /* \"#utility.yul\":12576:12616   */\n      swap2\n      swap1\n      pop\n      jump\t// out\n        /* \"#utility.yul\":12622:12780   */\n    tag_317:\n        /* \"#utility.yul\":12695:12706   */\n      0x00\n        /* \"#utility.yul\":12729:12735   */\n      dup3\n        /* \"#utility.yul\":12724:12727   */\n      dup3\n        /* \"#utility.yul\":12717:12736   */\n      mstore\n        /* \"#utility.yul\":12769:12773   */\n      0x20\n        /* \"#utility.yul\":12764:12767   */\n      dup3\n        /* \"#utility.yul\":12760:12774   */\n      add\n        /* \"#utility.yul\":12745:12774   */\n      swap1\n      pop\n        /* \"#utility.yul\":12707:12780   */\n      swap3\n      swap2\n      pop\n      pop\n      jump\t// out\n        /* \"#utility.yul\":12786:12955   */\n    tag_327:\n        /* \"#utility.yul\":12870:12881   */\n      0x00\n        /* \"#utility.yul\":12904:12910   */\n      dup3\n        /* \"#utility.yul\":12899:12902   */\n      dup3\n        /* \"#utility.yul\":12892:12911   */\n      mstore\n        /* \"#utility.yul\":12944:12948   */\n      0x20\n        /* \"#utility.yul\":12939:12942   */\n      dup3\n        /* \"#utility.yul\":12935:12949   */\n      add\n        /* \"#utility.yul\":12920:12949   */\n      swap1\n      pop\n        /* \"#utility.yul\":12882:12955   */\n      swap3\n      swap2\n      pop\n      pop\n      jump\t// out\n        /* \"#utility.yul\":12961:13057   */\n    tag_307:\n        /* \"#utility.yul\":12998:13005   */\n      0x00\n        /* \"#utility.yul\":13027:13051   */\n      tag_391\n        /* \"#utility.yul\":13045:13050   */\n      dup3\n        /* \"#utility.yul\":13027:13051   */\n      tag_392\n      jump\t// in\n    tag_391:\n        /* \"#utility.yul\":13016:13051   */\n      swap1\n      pop\n        /* \"#utility.yul\":13006:13057   */\n      swap2\n      swap1\n      pop\n      jump\t// out\n        /* \"#utility.yul\":13063:13153   */\n    tag_311:\n        /* \"#utility.yul\":13097:13104   */\n      0x00\n        /* \"#utility.yul\":13140:13145   */\n      dup2\n        /* \"#utility.yul\":13133:13146   */\n      iszero\n        /* \"#utility.yul\":13126:13147   */\n      iszero\n        /* \"#utility.yul\":13115:13147   */\n      swap1\n      pop\n        /* \"#utility.yul\":13105:13153   */\n      swap2\n      swap1\n      pop\n      jump\t// out\n        /* \"#utility.yul\":13159:13285   */\n    tag_392:\n        /* \"#utility.yul\":13196:13203   */\n      0x00\n        /* \"#utility.yul\":13236:13278   */\n      0xffffffffffffffffffffffffffffffffffffffff\n        /* \"#utility.yul\":13229:13234   */\n      dup3\n        /* \"#utility.yul\":13225:13279   */\n      and\n        /* \"#utility.yul\":13214:13279   */\n      swap1\n      pop\n        /* \"#utility.yul\":13204:13285   */\n      swap2\n      swap1\n      pop\n      jump\t// out\n        /* \"#utility.yul\":13291:13368   */\n    tag_349:\n        /* \"#utility.yul\":13328:13335   */\n      0x00\n        /* \"#utility.yul\":13357:13362   */\n      dup2\n        /* \"#utility.yul\":13346:13362   */\n      swap1\n      pop\n        /* \"#utility.yul\":13336:13368   */\n      swap2\n      swap1\n      pop\n      jump\t// out\n        /* \"#utility.yul\":13374:13528   */\n    tag_234:\n        /* \"#utility.yul\":13458:13464   */\n      dup3\n        /* \"#utility.yul\":13453:13456   */\n      dup2\n        /* \"#utility.yul\":13448:13451   */\n      dup4\n        /* \"#utility.yul\":13435:13465   */\n      calldatacopy\n        /* \"#utility.yul\":13520:13521   */\n      0x00\n        /* \"#utility.yul\":13511:13517   */\n      dup4\n        /* \"#utility.yul\":13506:13509   */\n      dup4\n        /* \"#utility.yul\":13502:13518   */\n      add\n        /* \"#utility.yul\":13495:13522   */\n      mstore\n        /* \"#utility.yul\":13425:13528   */\n      pop\n      pop\n      pop\n      jump\t// out\n        /* \"#utility.yul\":13534:13841   */\n    tag_319:\n        /* \"#utility.yul\":13602:13603   */\n      0x00\n        /* \"#utility.yul\":13612:13725   */\n    tag_398:\n        /* \"#utility.yul\":13626:13632   */\n      dup4\n        /* \"#utility.yul\":13623:13624   */\n      dup2\n        /* \"#utility.yul\":13620:13633   */\n      lt\n        /* \"#utility.yul\":13612:13725   */\n      iszero\n      tag_400\n      jumpi\n        /* \"#utility.yul\":13711:13712   */\n      dup1\n        /* \"#utility.yul\":13706:13709   */\n      dup3\n        /* \"#utility.yul\":13702:13713   */\n      add\n        /* \"#utility.yul\":13696:13714   */\n      mload\n        /* \"#utility.yul\":13692:13693   */\n      dup2\n        /* \"#utility.yul\":13687:13690   */\n      dup5\n        /* \"#utility.yul\":13683:13694   */\n      add\n        /* \"#utility.yul\":13676:13715   */\n      mstore\n        /* \"#utility.yul\":13648:13650   */\n      0x20\n        /* \"#utility.yul\":13645:13646   */\n      dup2\n        /* \"#utility.yul\":13641:13651   */\n      add\n        /* \"#utility.yul\":13636:13651   */\n      swap1\n      pop\n        /* \"#utility.yul\":13612:13725   */\n      jump(tag_398)\n    tag_400:\n        /* \"#utility.yul\":13743:13749   */\n      dup4\n        /* \"#utility.yul\":13740:13741   */\n      dup2\n        /* \"#utility.yul\":13737:13750   */\n      gt\n        /* \"#utility.yul\":13734:13736   */\n      iszero\n      tag_401\n      jumpi\n        /* \"#utility.yul\":13823:13824   */\n      0x00\n        /* \"#utility.yul\":13814:13820   */\n      dup5\n        /* \"#utility.yul\":13809:13812   */\n      dup5\n        /* \"#utility.yul\":13805:13821   */\n      add\n        /* \"#utility.yul\":13798:13825   */\n      mstore\n        /* \"#utility.yul\":13734:13736   */\n    tag_401:\n        /* \"#utility.yul\":13583:13841   */\n      pop\n      pop\n      pop\n      pop\n      jump\t// out\n        /* \"#utility.yul\":13847:14167   */\n    tag_114:\n        /* \"#utility.yul\":13891:13897   */\n      0x00\n        /* \"#utility.yul\":13928:13929   */\n      0x02\n        /* \"#utility.yul\":13922:13926   */\n      dup3\n        /* \"#utility.yul\":13918:13930   */\n      div\n        /* \"#utility.yul\":13908:13930   */\n      swap1\n      pop\n        /* \"#utility.yul\":13975:13976   */\n      0x01\n        /* \"#utility.yul\":13969:13973   */\n      dup3\n        /* \"#utility.yul\":13965:13977   */\n      and\n        /* \"#utility.yul\":13996:14014   */\n      dup1\n        /* \"#utility.yul\":13986:13988   */\n      tag_403\n      jumpi\n        /* \"#utility.yul\":14052:14056   */\n      0x7f\n        /* \"#utility.yul\":14044:14050   */\n      dup3\n        /* \"#utility.yul\":14040:14057   */\n      and\n        /* \"#utility.yul\":14030:14057   */\n      swap2\n      pop\n        /* \"#utility.yul\":13986:13988   */\n    tag_403:\n        /* \"#utility.yul\":14114:14116   */\n      0x20\n        /* \"#utility.yul\":14106:14112   */\n      dup3\n        /* \"#utility.yul\":14103:14117   */\n      lt\n        /* \"#utility.yul\":14083:14101   */\n      dup2\n        /* \"#utility.yul\":14080:14118   */\n      eq\n        /* \"#utility.yul\":14077:14079   */\n      iszero\n      tag_404\n      jumpi\n        /* \"#utility.yul\":14133:14151   */\n      tag_405\n      tag_406\n      jump\t// in\n    tag_405:\n        /* \"#utility.yul\":14077:14079   */\n    tag_404:\n        /* \"#utility.yul\":13898:14167   */\n      pop\n      swap2\n      swap1\n      pop\n      jump\t// out\n        /* \"#utility.yul\":14173:14454   */\n    tag_375:\n        /* \"#utility.yul\":14256:14283   */\n      tag_408\n        /* \"#utility.yul\":14278:14282   */\n      dup3\n        /* \"#utility.yul\":14256:14283   */\n      tag_321\n      jump\t// in\n    tag_408:\n        /* \"#utility.yul\":14248:14254   */\n      dup2\n        /* \"#utility.yul\":14244:14284   */\n      add\n        /* \"#utility.yul\":14386:14392   */\n      dup2\n        /* \"#utility.yul\":14374:14384   */\n      dup2\n        /* \"#utility.yul\":14371:14393   */\n      lt\n        /* \"#utility.yul\":14350:14368   */\n      0xffffffffffffffff\n        /* \"#utility.yul\":14338:14348   */\n      dup3\n        /* \"#utility.yul\":14335:14369   */\n      gt\n        /* \"#utility.yul\":14332:14394   */\n      or\n        /* \"#utility.yul\":14329:14331   */\n      iszero\n      tag_409\n      jumpi\n        /* \"#utility.yul\":14397:14415   */\n      tag_410\n      tag_380\n      jump\t// in\n    tag_410:\n        /* \"#utility.yul\":14329:14331   */\n    tag_409:\n        /* \"#utility.yul\":14437:14447   */\n      dup1\n        /* \"#utility.yul\":14433:14435   */\n      0x40\n        /* \"#utility.yul\":14426:14448   */\n      mstore\n        /* \"#utility.yul\":14216:14454   */\n      pop\n      pop\n      pop\n      jump\t// out\n        /* \"#utility.yul\":14460:14640   */\n    tag_406:\n        /* \"#utility.yul\":14508:14585   */\n      0x4e487b7100000000000000000000000000000000000000000000000000000000\n        /* \"#utility.yul\":14505:14506   */\n      0x00\n        /* \"#utility.yul\":14498:14586   */\n      mstore\n        /* \"#utility.yul\":14605:14609   */\n      0x22\n        /* \"#utility.yul\":14602:14603   */\n      0x04\n        /* \"#utility.yul\":14595:14610   */\n      mstore\n        /* \"#utility.yul\":14629:14633   */\n      0x24\n        /* \"#utility.yul\":14626:14627   */\n      0x00\n        /* \"#utility.yul\":14619:14634   */\n      revert\n        /* \"#utility.yul\":14646:14826   */\n    tag_380:\n        /* \"#utility.yul\":14694:14771   */\n      0x4e487b7100000000000000000000000000000000000000000000000000000000\n        /* \"#utility.yul\":14691:14692   */\n      0x00\n        /* \"#utility.yul\":14684:14772   */\n      mstore\n        /* \"#utility.yul\":14791:14795   */\n      0x41\n        /* \"#utility.yul\":14788:14789   */\n      0x04\n        /* \"#utility.yul\":14781:14796   */\n      mstore\n        /* \"#utility.yul\":14815:14819   */\n      0x24\n        /* \"#utility.yul\":14812:14813   */\n      0x00\n        /* \"#utility.yul\":14805:14820   */\n      revert\n        /* \"#utility.yul\":14832:14934   */\n    tag_321:\n        /* \"#utility.yul\":14873:14879   */\n      0x00\n        /* \"#utility.yul\":14924:14926   */\n      0x1f\n        /* \"#utility.yul\":14920:14927   */\n      not\n        /* \"#utility.yul\":14915:14917   */\n      0x1f\n        /* \"#utility.yul\":14908:14913   */\n      dup4\n        /* \"#utility.yul\":14904:14918   */\n      add\n        /* \"#utility.yul\":14900:14928   */\n      and\n        /* \"#utility.yul\":14890:14928   */\n      swap1\n      pop\n        /* \"#utility.yul\":14880:14934   */\n      swap2\n      swap1\n      pop\n      jump\t// out\n        /* \"#utility.yul\":14940:15165   */\n    tag_334:\n        /* \"#utility.yul\":15080:15114   */\n      0x4f776e61626c653a206e6577206f776e657220697320746865207a65726f2061\n        /* \"#utility.yul\":15076:15077   */\n      0x00\n        /* \"#utility.yul\":15068:15074   */\n      dup3\n        /* \"#utility.yul\":15064:15078   */\n      add\n        /* \"#utility.yul\":15057:15115   */\n      mstore\n        /* \"#utility.yul\":15149:15157   */\n      0x6464726573730000000000000000000000000000000000000000000000000000\n        /* \"#utility.yul\":15144:15146   */\n      0x20\n        /* \"#utility.yul\":15136:15142   */\n      dup3\n        /* \"#utility.yul\":15132:15147   */\n      add\n        /* \"#utility.yul\":15125:15158   */\n      mstore\n        /* \"#utility.yul\":15046:15165   */\n      pop\n      jump\t// out\n        /* \"#utility.yul\":15171:15353   */\n    tag_339:\n        /* \"#utility.yul\":15311:15345   */\n      0x4f776e61626c653a2063616c6c6572206973206e6f7420746865206f776e6572\n        /* \"#utility.yul\":15307:15308   */\n      0x00\n        /* \"#utility.yul\":15299:15305   */\n      dup3\n        /* \"#utility.yul\":15295:15309   */\n      add\n        /* \"#utility.yul\":15288:15346   */\n      mstore\n        /* \"#utility.yul\":15277:15353   */\n      pop\n      jump\t// out\n        /* \"#utility.yul\":15359:15481   */\n    tag_245:\n        /* \"#utility.yul\":15432:15456   */\n      tag_417\n        /* \"#utility.yul\":15450:15455   */\n      dup2\n        /* \"#utility.yul\":15432:15456   */\n      tag_307\n      jump\t// in\n    tag_417:\n        /* \"#utility.yul\":15425:15430   */\n      dup2\n        /* \"#utility.yul\":15422:15457   */\n      eq\n        /* \"#utility.yul\":15412:15414   */\n      tag_418\n      jumpi\n        /* \"#utility.yul\":15471:15472   */\n      0x00\n        /* \"#utility.yul\":15468:15469   */\n      dup1\n        /* \"#utility.yul\":15461:15473   */\n      revert\n        /* \"#utility.yul\":15412:15414   */\n    tag_418:\n        /* \"#utility.yul\":15402:15481   */\n      pop\n      jump\t// out\n        /* \"#utility.yul\":15487:15603   */\n    tag_249:\n        /* \"#utility.yul\":15557:15578   */\n      tag_420\n        /* \"#utility.yul\":15572:15577   */\n      dup2\n        /* \"#utility.yul\":15557:15578   */\n      tag_311\n      jump\t// in\n    tag_420:\n        /* \"#utility.yul\":15550:15555   */\n      dup2\n        /* \"#utility.yul\":15547:15579   */\n      eq\n        /* \"#utility.yul\":15537:15539   */\n      tag_421\n      jumpi\n        /* \"#utility.yul\":15593:15594   */\n      0x00\n        /* \"#utility.yul\":15590:15591   */\n      dup1\n        /* \"#utility.yul\":15583:15595   */\n      revert\n        /* \"#utility.yul\":15537:15539   */\n    tag_421:\n        /* \"#utility.yul\":15527:15603   */\n      pop\n      jump\t// out\n        /* \"#utility.yul\":15609:15731   */\n    tag_261:\n        /* \"#utility.yul\":15682:15706   */\n      tag_423\n        /* \"#utility.yul\":15700:15705   */\n      dup2\n        /* \"#utility.yul\":15682:15706   */\n      tag_349\n      jump\t// in\n    tag_423:\n        /* \"#utility.yul\":15675:15680   */\n      dup2\n        /* \"#utility.yul\":15672:15707   */\n      eq\n        /* \"#utility.yul\":15662:15664   */\n      tag_424\n      jumpi\n        /* \"#utility.yul\":15721:15722   */\n      0x00\n        /* \"#utility.yul\":15718:15719   */\n      dup1\n        /* \"#utility.yul\":15711:15723   */\n      revert\n        /* \"#utility.yul\":15662:15664   */\n    tag_424:\n        /* \"#utility.yul\":15652:15731   */\n      pop\n      jump\t// out\n\n    auxdata: 0xa2646970667358221220ff7b03b453f1b89f6131d77d1c45fb4ec26e04cc2a37e7b59eea43601702eefd64736f6c63430008040033\n}\n",
				"bytecode": {
					"linkReferences": {},
					"object": "608060405234801561001057600080fd5b5061002d61002261003260201b60201c565b61003a60201b60201c565b6100fe565b600033905090565b60008060009054906101000a900473ffffffffffffffffffffffffffffffffffffffff169050816000806101000a81548173ffffffffffffffffffffffffffffffffffffffff021916908373ffffffffffffffffffffffffffffffffffffffff1602179055508173ffffffffffffffffffffffffffffffffffffffff168173ffffffffffffffffffffffffffffffffffffffff167f8be0079c531659141344cd1fd0a4f28419497f9722a3daafe3b4186f6b6457e060405160405180910390a35050565b611b838061010d6000396000f3fe6080604052600436106100f75760003560e01c80638da5cb5b1161008a578063b2b72bc411610059578063b2b72bc414610332578063d1933ddd1461036f578063f2fde38b14610398578063fbc2cf13146103c157610101565b80638da5cb5b14610264578063917b8fd01461028f578063ad575035146102cc578063b16b25061461030957610101565b80633960a892116100c65780633960a892146101be5780634b3cef44146101e7578063715018a614610224578063717b9b6c1461023b57610101565b806307b8dedb146101065780630e197dc91461012f5780631e6dd4911461016c5780631ff4bdf31461019557610101565b3661010157600080fd5b600080fd5b34801561011257600080fd5b5061012d600480360381019061012891906113c6565b6103ea565b005b34801561013b57600080fd5b5061015660048036038101906101519190611541565b61044a565b60405161016391906117b4565b60405180910390f35b34801561017857600080fd5b50610193600480360381019061018e9190611486565b610474565b005b3480156101a157600080fd5b506101bc60048036038101906101b7919061139d565b6104de565b005b3480156101ca57600080fd5b506101e560048036038101906101e09190611593565b61074f565b005b3480156101f357600080fd5b5061020e60048036038101906102099190611541565b6107f4565b60405161021b9190611769565b60405180910390f35b34801561023057600080fd5b50610239610836565b005b34801561024757600080fd5b50610262600480360381019061025d91906115cf565b61084a565b005b34801561027057600080fd5b50610279610881565b6040516102869190611769565b60405180910390f35b34801561029b57600080fd5b506102b660048036038101906102b19190611541565b6108aa565b6040516102c3919061180f565b60405180910390f35b3480156102d857600080fd5b506102f360048036038101906102ee919061139d565b610a7a565b604051610300919061180f565b60405180910390f35b34801561031557600080fd5b50610330600480360381019061032b9190611407565b610c11565b005b34801561033e57600080fd5b506103596004803603810190610354919061139d565b610c95565b6040516103669190611831565b60405180910390f35b34801561037b57600080fd5b50610396600480360381019061039191906114da565b610e29565b005b3480156103a457600080fd5b506103bf60048036038101906103ba919061139d565b610f94565b005b3480156103cd57600080fd5b506103e860048036038101906103e3919061139d565b611018565b005b6000600360003373ffffffffffffffffffffffffffffffffffffffff1673ffffffffffffffffffffffffffffffffffffffff1681526020019081526020016000209050818160010190805190602001906104459291906111ae565b505050565b60006004600083815260200190815260200160002060009054906101000a900460ff169050919050565b6000600360003373ffffffffffffffffffffffffffffffffffffffff1673ffffffffffffffffffffffffffffffffffffffff1681526020019081526020016000209050828160020190805190602001906104cf9291906111ae565b50818160030181905550505050565b6000600360003373ffffffffffffffffffffffffffffffffffffffff1673ffffffffffffffffffffffffffffffffffffffff16815260200190815260200160002060405180608001604052908160008201548152602001600182018054610544906119be565b80601f0160208091040260200160405190810160405280929190818152602001828054610570906119be565b80156105bd5780601f10610592576101008083540402835291602001916105bd565b820191906000526020600020905b8154815290600101906020018083116105a057829003601f168201915b505050505081526020016002820180546105d6906119be565b80601f0160208091040260200160405190810160405280929190818152602001828054610602906119be565b801561064f5780601f106106245761010080835404028352916020019161064f565b820191906000526020600020905b81548152906001019060200180831161063257829003601f168201915b50505050508152602001600382015481525050905080600360008473ffffffffffffffffffffffffffffffffffffffff1673ffffffffffffffffffffffffffffffffffffffff1681526020019081526020016000206000820151816000015560208201518160010190805190602001906106ca9291906111ae565b5060408201518160020190805190602001906106e79291906111ae565b506060820151816003015590505081600260008360000151815260200190815260200160002060006101000a81548173ffffffffffffffffffffffffffffffffffffffff021916908373ffffffffffffffffffffffffffffffffffffffff1602179055505050565b610757611064565b806002600084815260200190815260200160002060006101000a81548173ffffffffffffffffffffffffffffffffffffffff021916908373ffffffffffffffffffffffffffffffffffffffff16021790555081600360008373ffffffffffffffffffffffffffffffffffffffff1673ffffffffffffffffffffffffffffffffffffffff168152602001908152602001600020600001819055505050565b6000806002600084815260200190815260200160002060009054906101000a900473ffffffffffffffffffffffffffffffffffffffff16905080915050919050565b61083e611064565b61084860006110e2565b565b610852611064565b806004600084815260200190815260200160002060006101000a81548160ff0219169083151502179055505050565b60008060009054906101000a900473ffffffffffffffffffffffffffffffffffffffff16905090565b6108b2611234565b60006002600084815260200190815260200160002060009054906101000a900473ffffffffffffffffffffffffffffffffffffffff1690506000600360008373ffffffffffffffffffffffffffffffffffffffff1673ffffffffffffffffffffffffffffffffffffffff16815260200190815260200160002060405180608001604052908160008201548152602001600182018054610950906119be565b80601f016020809104026020016040519081016040528092919081815260200182805461097c906119be565b80156109c95780601f1061099e576101008083540402835291602001916109c9565b820191906000526020600020905b8154815290600101906020018083116109ac57829003601f168201915b505050505081526020016002820180546109e2906119be565b80601f0160208091040260200160405190810160405280929190818152602001828054610a0e906119be565b8015610a5b5780601f10610a3057610100808354040283529160200191610a5b565b820191906000526020600020905b815481529060010190602001808311610a3e57829003601f168201915b5050505050815260200160038201548152505090508092505050919050565b610a82611234565b6000600360008473ffffffffffffffffffffffffffffffffffffffff1673ffffffffffffffffffffffffffffffffffffffff16815260200190815260200160002060405180608001604052908160008201548152602001600182018054610ae8906119be565b80601f0160208091040260200160405190810160405280929190818152602001828054610b14906119be565b8015610b615780601f10610b3657610100808354040283529160200191610b61565b820191906000526020600020905b815481529060010190602001808311610b4457829003601f168201915b50505050508152602001600282018054610b7a906119be565b80601f0160208091040260200160405190810160405280929190818152602001828054610ba6906119be565b8015610bf35780601f10610bc857610100808354040283529160200191610bf3565b820191906000526020600020905b815481529060010190602001808311610bd657829003601f168201915b50505050508152602001600382015481525050905080915050919050565b6000600360003373ffffffffffffffffffffffffffffffffffffffff1673ffffffffffffffffffffffffffffffffffffffff168152602001908152602001600020905083816001019080519060200190610c6c9291906111ae565b5082816002019080519060200190610c859291906111ae565b5081816003018190555050505050565b600080600360008473ffffffffffffffffffffffffffffffffffffffff1673ffffffffffffffffffffffffffffffffffffffff16815260200190815260200160002060405180608001604052908160008201548152602001600182018054610cfc906119be565b80601f0160208091040260200160405190810160405280929190818152602001828054610d28906119be565b8015610d755780601f10610d4a57610100808354040283529160200191610d75565b820191906000526020600020905b815481529060010190602001808311610d5857829003601f168201915b50505050508152602001600282018054610d8e906119be565b80601f0160208091040260200160405190810160405280929190818152602001828054610dba906119be565b8015610e075780601f10610ddc57610100808354040283529160200191610e07565b820191906000526020600020905b815481529060010190602001808311610dea57829003601f168201915b5050505050815260200160038201548152505090508060000151915050919050565b610e31611064565b60003090506000600160009054906101000a900473ffffffffffffffffffffffffffffffffffffffff1673ffffffffffffffffffffffffffffffffffffffff1663cf37834383876040518363ffffffff1660e01b8152600401610e95929190611784565b602060405180830381600087803b158015610eaf57600080fd5b505af1158015610ec3573d6000803e3d6000fd5b505050506040513d601f19601f82011682018060405250810190610ee7919061156a565b9050600160009054906101000a900473ffffffffffffffffffffffffffffffffffffffff1673ffffffffffffffffffffffffffffffffffffffff1663e1b2e97982856040518363ffffffff1660e01b8152600401610f4692919061184c565b600060405180830381600087803b158015610f6057600080fd5b505af1158015610f74573d6000803e3d6000fd5b50505050610f8381600161084a565b610f8d818561074f565b5050505050565b610f9c611064565b600073ffffffffffffffffffffffffffffffffffffffff168173ffffffffffffffffffffffffffffffffffffffff16141561100c576040517f08c379a0000000000000000000000000000000000000000000000000000000008152600401611003906117cf565b60405180910390fd5b611015816110e2565b50565b611020611064565b80600160006101000a81548173ffffffffffffffffffffffffffffffffffffffff021916908373ffffffffffffffffffffffffffffffffffffffff16021790555050565b61106c6111a6565b73ffffffffffffffffffffffffffffffffffffffff1661108a610881565b73ffffffffffffffffffffffffffffffffffffffff16146110e0576040517f08c379a00000000000000000000000000000000000000000000000000000000081526004016110d7906117ef565b60405180910390fd5b565b60008060009054906101000a900473ffffffffffffffffffffffffffffffffffffffff169050816000806101000a81548173ffffffffffffffffffffffffffffffffffffffff021916908373ffffffffffffffffffffffffffffffffffffffff1602179055508173ffffffffffffffffffffffffffffffffffffffff168173ffffffffffffffffffffffffffffffffffffffff167f8be0079c531659141344cd1fd0a4f28419497f9722a3daafe3b4186f6b6457e060405160405180910390a35050565b600033905090565b8280546111ba906119be565b90600052602060002090601f0160209004810192826111dc5760008555611223565b82601f106111f557805160ff1916838001178555611223565b82800160010185558215611223579182015b82811115611222578251825591602001919060010190611207565b5b509050611230919061125c565b5090565b6040518060800160405280600081526020016060815260200160608152602001600081525090565b5b8082111561127557600081600090555060010161125d565b5090565b600061128c6112878461189a565b611875565b9050828152602081018484840111156112a457600080fd5b6112af84828561197c565b509392505050565b60006112ca6112c5846118cb565b611875565b9050828152602081018484840111156112e257600080fd5b6112ed84828561197c565b509392505050565b60008135905061130481611b08565b92915050565b60008135905061131981611b1f565b92915050565b600082601f83011261133057600080fd5b8135611340848260208601611279565b91505092915050565b600082601f83011261135a57600080fd5b813561136a8482602086016112b7565b91505092915050565b60008135905061138281611b36565b92915050565b60008151905061139781611b36565b92915050565b6000602082840312156113af57600080fd5b60006113bd848285016112f5565b91505092915050565b6000602082840312156113d857600080fd5b600082013567ffffffffffffffff8111156113f257600080fd5b6113fe8482850161131f565b91505092915050565b60008060006060848603121561141c57600080fd5b600084013567ffffffffffffffff81111561143657600080fd5b6114428682870161131f565b935050602084013567ffffffffffffffff81111561145f57600080fd5b61146b8682870161131f565b925050604061147c86828701611373565b9150509250925092565b6000806040838503121561149957600080fd5b600083013567ffffffffffffffff8111156114b357600080fd5b6114bf8582860161131f565b92505060206114d085828601611373565b9150509250929050565b6000806000606084860312156114ef57600080fd5b600084013567ffffffffffffffff81111561150957600080fd5b61151586828701611349565b9350506020611526868287016112f5565b925050604061153786828701611373565b9150509250925092565b60006020828403121561155357600080fd5b600061156184828501611373565b91505092915050565b60006020828403121561157c57600080fd5b600061158a84828501611388565b91505092915050565b600080604083850312156115a657600080fd5b60006115b485828601611373565b92505060206115c5858286016112f5565b9150509250929050565b600080604083850312156115e257600080fd5b60006115f085828601611373565b92505060206116018582860161130a565b9150509250929050565b61161481611934565b82525050565b61162381611946565b82525050565b6000611634826118fc565b61163e8185611912565b935061164e81856020860161198b565b61165781611a7f565b840191505092915050565b600061166d82611907565b6116778185611923565b935061168781856020860161198b565b61169081611a7f565b840191505092915050565b60006116a8602683611923565b91506116b382611a90565b604082019050919050565b60006116cb602083611923565b91506116d682611adf565b602082019050919050565b60006080830160008301516116f9600086018261174b565b50602083015184820360208601526117118282611629565b9150506040830151848203604086015261172b8282611629565b9150506060830151611740606086018261174b565b508091505092915050565b61175481611972565b82525050565b61176381611972565b82525050565b600060208201905061177e600083018461160b565b92915050565b6000604082019050611799600083018561160b565b81810360208301526117ab8184611662565b90509392505050565b60006020820190506117c9600083018461161a565b92915050565b600060208201905081810360008301526117e88161169b565b9050919050565b60006020820190508181036000830152611808816116be565b9050919050565b6000602082019050818103600083015261182981846116e1565b905092915050565b6000602082019050611846600083018461175a565b92915050565b6000604082019050611861600083018561175a565b61186e602083018461175a565b9392505050565b600061187f611890565b905061188b82826119f0565b919050565b6000604051905090565b600067ffffffffffffffff8211156118b5576118b4611a50565b5b6118be82611a7f565b9050602081019050919050565b600067ffffffffffffffff8211156118e6576118e5611a50565b5b6118ef82611a7f565b9050602081019050919050565b600081519050919050565b600081519050919050565b600082825260208201905092915050565b600082825260208201905092915050565b600061193f82611952565b9050919050565b60008115159050919050565b600073ffffffffffffffffffffffffffffffffffffffff82169050919050565b6000819050919050565b82818337600083830152505050565b60005b838110156119a957808201518184015260208101905061198e565b838111156119b8576000848401525b50505050565b600060028204905060018216806119d657607f821691505b602082108114156119ea576119e9611a21565b5b50919050565b6119f982611a7f565b810181811067ffffffffffffffff82111715611a1857611a17611a50565b5b80604052505050565b7f4e487b7100000000000000000000000000000000000000000000000000000000600052602260045260246000fd5b7f4e487b7100000000000000000000000000000000000000000000000000000000600052604160045260246000fd5b6000601f19601f8301169050919050565b7f4f776e61626c653a206e6577206f776e657220697320746865207a65726f206160008201527f6464726573730000000000000000000000000000000000000000000000000000602082015250565b7f4f776e61626c653a2063616c6c6572206973206e6f7420746865206f776e6572600082015250565b611b1181611934565b8114611b1c57600080fd5b50565b611b2881611946565b8114611b3357600080fd5b50565b611b3f81611972565b8114611b4a57600080fd5b5056fea2646970667358221220ff7b03b453f1b89f6131d77d1c45fb4ec26e04cc2a37e7b59eea43601702eefd64736f6c63430008040033",
					"opcodes": "PUSH1 0x80 PUSH1 0x40 MSTORE CALLVALUE DUP1 ISZERO PUSH2 0x10 JUMPI PUSH1 0x0 DUP1 REVERT JUMPDEST POP PUSH2 0x2D PUSH2 0x22 PUSH2 0x32 PUSH1 0x20 SHL PUSH1 0x20 SHR JUMP JUMPDEST PUSH2 0x3A PUSH1 0x20 SHL PUSH1 0x20 SHR JUMP JUMPDEST PUSH2 0xFE JUMP JUMPDEST PUSH1 0x0 CALLER SWAP1 POP SWAP1 JUMP JUMPDEST PUSH1 0x0 DUP1 PUSH1 0x0 SWAP1 SLOAD SWAP1 PUSH2 0x100 EXP SWAP1 DIV PUSH20 0xFFFFFFFFFFFFFFFFFFFFFFFFFFFFFFFFFFFFFFFF AND SWAP1 POP DUP2 PUSH1 0x0 DUP1 PUSH2 0x100 EXP DUP2 SLOAD DUP2 PUSH20 0xFFFFFFFFFFFFFFFFFFFFFFFFFFFFFFFFFFFFFFFF MUL NOT AND SWAP1 DUP4 PUSH20 0xFFFFFFFFFFFFFFFFFFFFFFFFFFFFFFFFFFFFFFFF AND MUL OR SWAP1 SSTORE POP DUP2 PUSH20 0xFFFFFFFFFFFFFFFFFFFFFFFFFFFFFFFFFFFFFFFF AND DUP2 PUSH20 0xFFFFFFFFFFFFFFFFFFFFFFFFFFFFFFFFFFFFFFFF AND PUSH32 0x8BE0079C531659141344CD1FD0A4F28419497F9722A3DAAFE3B4186F6B6457E0 PUSH1 0x40 MLOAD PUSH1 0x40 MLOAD DUP1 SWAP2 SUB SWAP1 LOG3 POP POP JUMP JUMPDEST PUSH2 0x1B83 DUP1 PUSH2 0x10D PUSH1 0x0 CODECOPY PUSH1 0x0 RETURN INVALID PUSH1 0x80 PUSH1 0x40 MSTORE PUSH1 0x4 CALLDATASIZE LT PUSH2 0xF7 JUMPI PUSH1 0x0 CALLDATALOAD PUSH1 0xE0 SHR DUP1 PUSH4 0x8DA5CB5B GT PUSH2 0x8A JUMPI DUP1 PUSH4 0xB2B72BC4 GT PUSH2 0x59 JUMPI DUP1 PUSH4 0xB2B72BC4 EQ PUSH2 0x332 JUMPI DUP1 PUSH4 0xD1933DDD EQ PUSH2 0x36F JUMPI DUP1 PUSH4 0xF2FDE38B EQ PUSH2 0x398 JUMPI DUP1 PUSH4 0xFBC2CF13 EQ PUSH2 0x3C1 JUMPI PUSH2 0x101 JUMP JUMPDEST DUP1 PUSH4 0x8DA5CB5B EQ PUSH2 0x264 JUMPI DUP1 PUSH4 0x917B8FD0 EQ PUSH2 0x28F JUMPI DUP1 PUSH4 0xAD575035 EQ PUSH2 0x2CC JUMPI DUP1 PUSH4 0xB16B2506 EQ PUSH2 0x309 JUMPI PUSH2 0x101 JUMP JUMPDEST DUP1 PUSH4 0x3960A892 GT PUSH2 0xC6 JUMPI DUP1 PUSH4 0x3960A892 EQ PUSH2 0x1BE JUMPI DUP1 PUSH4 0x4B3CEF44 EQ PUSH2 0x1E7 JUMPI DUP1 PUSH4 0x715018A6 EQ PUSH2 0x224 JUMPI DUP1 PUSH4 0x717B9B6C EQ PUSH2 0x23B JUMPI PUSH2 0x101 JUMP JUMPDEST DUP1 PUSH4 0x7B8DEDB EQ PUSH2 0x106 JUMPI DUP1 PUSH4 0xE197DC9 EQ PUSH2 0x12F JUMPI DUP1 PUSH4 0x1E6DD491 EQ PUSH2 0x16C JUMPI DUP1 PUSH4 0x1FF4BDF3 EQ PUSH2 0x195 JUMPI PUSH2 0x101 JUMP JUMPDEST CALLDATASIZE PUSH2 0x101 JUMPI PUSH1 0x0 DUP1 REVERT JUMPDEST PUSH1 0x0 DUP1 REVERT JUMPDEST CALLVALUE DUP1 ISZERO PUSH2 0x112 JUMPI PUSH1 0x0 DUP1 REVERT JUMPDEST POP PUSH2 0x12D PUSH1 0x4 DUP1 CALLDATASIZE SUB DUP2 ADD SWAP1 PUSH2 0x128 SWAP2 SWAP1 PUSH2 0x13C6 JUMP JUMPDEST PUSH2 0x3EA JUMP JUMPDEST STOP JUMPDEST CALLVALUE DUP1 ISZERO PUSH2 0x13B JUMPI PUSH1 0x0 DUP1 REVERT JUMPDEST POP PUSH2 0x156 PUSH1 0x4 DUP1 CALLDATASIZE SUB DUP2 ADD SWAP1 PUSH2 0x151 SWAP2 SWAP1 PUSH2 0x1541 JUMP JUMPDEST PUSH2 0x44A JUMP JUMPDEST PUSH1 0x40 MLOAD PUSH2 0x163 SWAP2 SWAP1 PUSH2 0x17B4 JUMP JUMPDEST PUSH1 0x40 MLOAD DUP1 SWAP2 SUB SWAP1 RETURN JUMPDEST CALLVALUE DUP1 ISZERO PUSH2 0x178 JUMPI PUSH1 0x0 DUP1 REVERT JUMPDEST POP PUSH2 0x193 PUSH1 0x4 DUP1 CALLDATASIZE SUB DUP2 ADD SWAP1 PUSH2 0x18E SWAP2 SWAP1 PUSH2 0x1486 JUMP JUMPDEST PUSH2 0x474 JUMP JUMPDEST STOP JUMPDEST CALLVALUE DUP1 ISZERO PUSH2 0x1A1 JUMPI PUSH1 0x0 DUP1 REVERT JUMPDEST POP PUSH2 0x1BC PUSH1 0x4 DUP1 CALLDATASIZE SUB DUP2 ADD SWAP1 PUSH2 0x1B7 SWAP2 SWAP1 PUSH2 0x139D JUMP JUMPDEST PUSH2 0x4DE JUMP JUMPDEST STOP JUMPDEST CALLVALUE DUP1 ISZERO PUSH2 0x1CA JUMPI PUSH1 0x0 DUP1 REVERT JUMPDEST POP PUSH2 0x1E5 PUSH1 0x4 DUP1 CALLDATASIZE SUB DUP2 ADD SWAP1 PUSH2 0x1E0 SWAP2 SWAP1 PUSH2 0x1593 JUMP JUMPDEST PUSH2 0x74F JUMP JUMPDEST STOP JUMPDEST CALLVALUE DUP1 ISZERO PUSH2 0x1F3 JUMPI PUSH1 0x0 DUP1 REVERT JUMPDEST POP PUSH2 0x20E PUSH1 0x4 DUP1 CALLDATASIZE SUB DUP2 ADD SWAP1 PUSH2 0x209 SWAP2 SWAP1 PUSH2 0x1541 JUMP JUMPDEST PUSH2 0x7F4 JUMP JUMPDEST PUSH1 0x40 MLOAD PUSH2 0x21B SWAP2 SWAP1 PUSH2 0x1769 JUMP JUMPDEST PUSH1 0x40 MLOAD DUP1 SWAP2 SUB SWAP1 RETURN JUMPDEST CALLVALUE DUP1 ISZERO PUSH2 0x230 JUMPI PUSH1 0x0 DUP1 REVERT JUMPDEST POP PUSH2 0x239 PUSH2 0x836 JUMP JUMPDEST STOP JUMPDEST CALLVALUE DUP1 ISZERO PUSH2 0x247 JUMPI PUSH1 0x0 DUP1 REVERT JUMPDEST POP PUSH2 0x262 PUSH1 0x4 DUP1 CALLDATASIZE SUB DUP2 ADD SWAP1 PUSH2 0x25D SWAP2 SWAP1 PUSH2 0x15CF JUMP JUMPDEST PUSH2 0x84A JUMP JUMPDEST STOP JUMPDEST CALLVALUE DUP1 ISZERO PUSH2 0x270 JUMPI PUSH1 0x0 DUP1 REVERT JUMPDEST POP PUSH2 0x279 PUSH2 0x881 JUMP JUMPDEST PUSH1 0x40 MLOAD PUSH2 0x286 SWAP2 SWAP1 PUSH2 0x1769 JUMP JUMPDEST PUSH1 0x40 MLOAD DUP1 SWAP2 SUB SWAP1 RETURN JUMPDEST CALLVALUE DUP1 ISZERO PUSH2 0x29B JUMPI PUSH1 0x0 DUP1 REVERT JUMPDEST POP PUSH2 0x2B6 PUSH1 0x4 DUP1 CALLDATASIZE SUB DUP2 ADD SWAP1 PUSH2 0x2B1 SWAP2 SWAP1 PUSH2 0x1541 JUMP JUMPDEST PUSH2 0x8AA JUMP JUMPDEST PUSH1 0x40 MLOAD PUSH2 0x2C3 SWAP2 SWAP1 PUSH2 0x180F JUMP JUMPDEST PUSH1 0x40 MLOAD DUP1 SWAP2 SUB SWAP1 RETURN JUMPDEST CALLVALUE DUP1 ISZERO PUSH2 0x2D8 JUMPI PUSH1 0x0 DUP1 REVERT JUMPDEST POP PUSH2 0x2F3 PUSH1 0x4 DUP1 CALLDATASIZE SUB DUP2 ADD SWAP1 PUSH2 0x2EE SWAP2 SWAP1 PUSH2 0x139D JUMP JUMPDEST PUSH2 0xA7A JUMP JUMPDEST PUSH1 0x40 MLOAD PUSH2 0x300 SWAP2 SWAP1 PUSH2 0x180F JUMP JUMPDEST PUSH1 0x40 MLOAD DUP1 SWAP2 SUB SWAP1 RETURN JUMPDEST CALLVALUE DUP1 ISZERO PUSH2 0x315 JUMPI PUSH1 0x0 DUP1 REVERT JUMPDEST POP PUSH2 0x330 PUSH1 0x4 DUP1 CALLDATASIZE SUB DUP2 ADD SWAP1 PUSH2 0x32B SWAP2 SWAP1 PUSH2 0x1407 JUMP JUMPDEST PUSH2 0xC11 JUMP JUMPDEST STOP JUMPDEST CALLVALUE DUP1 ISZERO PUSH2 0x33E JUMPI PUSH1 0x0 DUP1 REVERT JUMPDEST POP PUSH2 0x359 PUSH1 0x4 DUP1 CALLDATASIZE SUB DUP2 ADD SWAP1 PUSH2 0x354 SWAP2 SWAP1 PUSH2 0x139D JUMP JUMPDEST PUSH2 0xC95 JUMP JUMPDEST PUSH1 0x40 MLOAD PUSH2 0x366 SWAP2 SWAP1 PUSH2 0x1831 JUMP JUMPDEST PUSH1 0x40 MLOAD DUP1 SWAP2 SUB SWAP1 RETURN JUMPDEST CALLVALUE DUP1 ISZERO PUSH2 0x37B JUMPI PUSH1 0x0 DUP1 REVERT JUMPDEST POP PUSH2 0x396 PUSH1 0x4 DUP1 CALLDATASIZE SUB DUP2 ADD SWAP1 PUSH2 0x391 SWAP2 SWAP1 PUSH2 0x14DA JUMP JUMPDEST PUSH2 0xE29 JUMP JUMPDEST STOP JUMPDEST CALLVALUE DUP1 ISZERO PUSH2 0x3A4 JUMPI PUSH1 0x0 DUP1 REVERT JUMPDEST POP PUSH2 0x3BF PUSH1 0x4 DUP1 CALLDATASIZE SUB DUP2 ADD SWAP1 PUSH2 0x3BA SWAP2 SWAP1 PUSH2 0x139D JUMP JUMPDEST PUSH2 0xF94 JUMP JUMPDEST STOP JUMPDEST CALLVALUE DUP1 ISZERO PUSH2 0x3CD JUMPI PUSH1 0x0 DUP1 REVERT JUMPDEST POP PUSH2 0x3E8 PUSH1 0x4 DUP1 CALLDATASIZE SUB DUP2 ADD SWAP1 PUSH2 0x3E3 SWAP2 SWAP1 PUSH2 0x139D JUMP JUMPDEST PUSH2 0x1018 JUMP JUMPDEST STOP JUMPDEST PUSH1 0x0 PUSH1 0x3 PUSH1 0x0 CALLER PUSH20 0xFFFFFFFFFFFFFFFFFFFFFFFFFFFFFFFFFFFFFFFF AND PUSH20 0xFFFFFFFFFFFFFFFFFFFFFFFFFFFFFFFFFFFFFFFF AND DUP2 MSTORE PUSH1 0x20 ADD SWAP1 DUP2 MSTORE PUSH1 0x20 ADD PUSH1 0x0 KECCAK256 SWAP1 POP DUP2 DUP2 PUSH1 0x1 ADD SWAP1 DUP1 MLOAD SWAP1 PUSH1 0x20 ADD SWAP1 PUSH2 0x445 SWAP3 SWAP2 SWAP1 PUSH2 0x11AE JUMP JUMPDEST POP POP POP JUMP JUMPDEST PUSH1 0x0 PUSH1 0x4 PUSH1 0x0 DUP4 DUP2 MSTORE PUSH1 0x20 ADD SWAP1 DUP2 MSTORE PUSH1 0x20 ADD PUSH1 0x0 KECCAK256 PUSH1 0x0 SWAP1 SLOAD SWAP1 PUSH2 0x100 EXP SWAP1 DIV PUSH1 0xFF AND SWAP1 POP SWAP2 SWAP1 POP JUMP JUMPDEST PUSH1 0x0 PUSH1 0x3 PUSH1 0x0 CALLER PUSH20 0xFFFFFFFFFFFFFFFFFFFFFFFFFFFFFFFFFFFFFFFF AND PUSH20 0xFFFFFFFFFFFFFFFFFFFFFFFFFFFFFFFFFFFFFFFF AND DUP2 MSTORE PUSH1 0x20 ADD SWAP1 DUP2 MSTORE PUSH1 0x20 ADD PUSH1 0x0 KECCAK256 SWAP1 POP DUP3 DUP2 PUSH1 0x2 ADD SWAP1 DUP1 MLOAD SWAP1 PUSH1 0x20 ADD SWAP1 PUSH2 0x4CF SWAP3 SWAP2 SWAP1 PUSH2 0x11AE JUMP JUMPDEST POP DUP2 DUP2 PUSH1 0x3 ADD DUP2 SWAP1 SSTORE POP POP POP POP JUMP JUMPDEST PUSH1 0x0 PUSH1 0x3 PUSH1 0x0 CALLER PUSH20 0xFFFFFFFFFFFFFFFFFFFFFFFFFFFFFFFFFFFFFFFF AND PUSH20 0xFFFFFFFFFFFFFFFFFFFFFFFFFFFFFFFFFFFFFFFF AND DUP2 MSTORE PUSH1 0x20 ADD SWAP1 DUP2 MSTORE PUSH1 0x20 ADD PUSH1 0x0 KECCAK256 PUSH1 0x40 MLOAD DUP1 PUSH1 0x80 ADD PUSH1 0x40 MSTORE SWAP1 DUP2 PUSH1 0x0 DUP3 ADD SLOAD DUP2 MSTORE PUSH1 0x20 ADD PUSH1 0x1 DUP3 ADD DUP1 SLOAD PUSH2 0x544 SWAP1 PUSH2 0x19BE JUMP JUMPDEST DUP1 PUSH1 0x1F ADD PUSH1 0x20 DUP1 SWAP2 DIV MUL PUSH1 0x20 ADD PUSH1 0x40 MLOAD SWAP1 DUP2 ADD PUSH1 0x40 MSTORE DUP1 SWAP3 SWAP2 SWAP1 DUP2 DUP2 MSTORE PUSH1 0x20 ADD DUP3 DUP1 SLOAD PUSH2 0x570 SWAP1 PUSH2 0x19BE JUMP JUMPDEST DUP1 ISZERO PUSH2 0x5BD JUMPI DUP1 PUSH1 0x1F LT PUSH2 0x592 JUMPI PUSH2 0x100 DUP1 DUP4 SLOAD DIV MUL DUP4 MSTORE SWAP2 PUSH1 0x20 ADD SWAP2 PUSH2 0x5BD JUMP JUMPDEST DUP3 ADD SWAP2 SWAP1 PUSH1 0x0 MSTORE PUSH1 0x20 PUSH1 0x0 KECCAK256 SWAP1 JUMPDEST DUP2 SLOAD DUP2 MSTORE SWAP1 PUSH1 0x1 ADD SWAP1 PUSH1 0x20 ADD DUP1 DUP4 GT PUSH2 0x5A0 JUMPI DUP3 SWAP1 SUB PUSH1 0x1F AND DUP3 ADD SWAP2 JUMPDEST POP POP POP POP POP DUP2 MSTORE PUSH1 0x20 ADD PUSH1 0x2 DUP3 ADD DUP1 SLOAD PUSH2 0x5D6 SWAP1 PUSH2 0x19BE JUMP JUMPDEST DUP1 PUSH1 0x1F ADD PUSH1 0x20 DUP1 SWAP2 DIV MUL PUSH1 0x20 ADD PUSH1 0x40 MLOAD SWAP1 DUP2 ADD PUSH1 0x40 MSTORE DUP1 SWAP3 SWAP2 SWAP1 DUP2 DUP2 MSTORE PUSH1 0x20 ADD DUP3 DUP1 SLOAD PUSH2 0x602 SWAP1 PUSH2 0x19BE JUMP JUMPDEST DUP1 ISZERO PUSH2 0x64F JUMPI DUP1 PUSH1 0x1F LT PUSH2 0x624 JUMPI PUSH2 0x100 DUP1 DUP4 SLOAD DIV MUL DUP4 MSTORE SWAP2 PUSH1 0x20 ADD SWAP2 PUSH2 0x64F JUMP JUMPDEST DUP3 ADD SWAP2 SWAP1 PUSH1 0x0 MSTORE PUSH1 0x20 PUSH1 0x0 KECCAK256 SWAP1 JUMPDEST DUP2 SLOAD DUP2 MSTORE SWAP1 PUSH1 0x1 ADD SWAP1 PUSH1 0x20 ADD DUP1 DUP4 GT PUSH2 0x632 JUMPI DUP3 SWAP1 SUB PUSH1 0x1F AND DUP3 ADD SWAP2 JUMPDEST POP POP POP POP POP DUP2 MSTORE PUSH1 0x20 ADD PUSH1 0x3 DUP3 ADD SLOAD DUP2 MSTORE POP POP SWAP1 POP DUP1 PUSH1 0x3 PUSH1 0x0 DUP5 PUSH20 0xFFFFFFFFFFFFFFFFFFFFFFFFFFFFFFFFFFFFFFFF AND PUSH20 0xFFFFFFFFFFFFFFFFFFFFFFFFFFFFFFFFFFFFFFFF AND DUP2 MSTORE PUSH1 0x20 ADD SWAP1 DUP2 MSTORE PUSH1 0x20 ADD PUSH1 0x0 KECCAK256 PUSH1 0x0 DUP3 ADD MLOAD DUP2 PUSH1 0x0 ADD SSTORE PUSH1 0x20 DUP3 ADD MLOAD DUP2 PUSH1 0x1 ADD SWAP1 DUP1 MLOAD SWAP1 PUSH1 0x20 ADD SWAP1 PUSH2 0x6CA SWAP3 SWAP2 SWAP1 PUSH2 0x11AE JUMP JUMPDEST POP PUSH1 0x40 DUP3 ADD MLOAD DUP2 PUSH1 0x2 ADD SWAP1 DUP1 MLOAD SWAP1 PUSH1 0x20 ADD SWAP1 PUSH2 0x6E7 SWAP3 SWAP2 SWAP1 PUSH2 0x11AE JUMP JUMPDEST POP PUSH1 0x60 DUP3 ADD MLOAD DUP2 PUSH1 0x3 ADD SSTORE SWAP1 POP POP DUP2 PUSH1 0x2 PUSH1 0x0 DUP4 PUSH1 0x0 ADD MLOAD DUP2 MSTORE PUSH1 0x20 ADD SWAP1 DUP2 MSTORE PUSH1 0x20 ADD PUSH1 0x0 KECCAK256 PUSH1 0x0 PUSH2 0x100 EXP DUP2 SLOAD DUP2 PUSH20 0xFFFFFFFFFFFFFFFFFFFFFFFFFFFFFFFFFFFFFFFF MUL NOT AND SWAP1 DUP4 PUSH20 0xFFFFFFFFFFFFFFFFFFFFFFFFFFFFFFFFFFFFFFFF AND MUL OR SWAP1 SSTORE POP POP POP JUMP JUMPDEST PUSH2 0x757 PUSH2 0x1064 JUMP JUMPDEST DUP1 PUSH1 0x2 PUSH1 0x0 DUP5 DUP2 MSTORE PUSH1 0x20 ADD SWAP1 DUP2 MSTORE PUSH1 0x20 ADD PUSH1 0x0 KECCAK256 PUSH1 0x0 PUSH2 0x100 EXP DUP2 SLOAD DUP2 PUSH20 0xFFFFFFFFFFFFFFFFFFFFFFFFFFFFFFFFFFFFFFFF MUL NOT AND SWAP1 DUP4 PUSH20 0xFFFFFFFFFFFFFFFFFFFFFFFFFFFFFFFFFFFFFFFF AND MUL OR SWAP1 SSTORE POP DUP2 PUSH1 0x3 PUSH1 0x0 DUP4 PUSH20 0xFFFFFFFFFFFFFFFFFFFFFFFFFFFFFFFFFFFFFFFF AND PUSH20 0xFFFFFFFFFFFFFFFFFFFFFFFFFFFFFFFFFFFFFFFF AND DUP2 MSTORE PUSH1 0x20 ADD SWAP1 DUP2 MSTORE PUSH1 0x20 ADD PUSH1 0x0 KECCAK256 PUSH1 0x0 ADD DUP2 SWAP1 SSTORE POP POP POP JUMP JUMPDEST PUSH1 0x0 DUP1 PUSH1 0x2 PUSH1 0x0 DUP5 DUP2 MSTORE PUSH1 0x20 ADD SWAP1 DUP2 MSTORE PUSH1 0x20 ADD PUSH1 0x0 KECCAK256 PUSH1 0x0 SWAP1 SLOAD SWAP1 PUSH2 0x100 EXP SWAP1 DIV PUSH20 0xFFFFFFFFFFFFFFFFFFFFFFFFFFFFFFFFFFFFFFFF AND SWAP1 POP DUP1 SWAP2 POP POP SWAP2 SWAP1 POP JUMP JUMPDEST PUSH2 0x83E PUSH2 0x1064 JUMP JUMPDEST PUSH2 0x848 PUSH1 0x0 PUSH2 0x10E2 JUMP JUMPDEST JUMP JUMPDEST PUSH2 0x852 PUSH2 0x1064 JUMP JUMPDEST DUP1 PUSH1 0x4 PUSH1 0x0 DUP5 DUP2 MSTORE PUSH1 0x20 ADD SWAP1 DUP2 MSTORE PUSH1 0x20 ADD PUSH1 0x0 KECCAK256 PUSH1 0x0 PUSH2 0x100 EXP DUP2 SLOAD DUP2 PUSH1 0xFF MUL NOT AND SWAP1 DUP4 ISZERO ISZERO MUL OR SWAP1 SSTORE POP POP POP JUMP JUMPDEST PUSH1 0x0 DUP1 PUSH1 0x0 SWAP1 SLOAD SWAP1 PUSH2 0x100 EXP SWAP1 DIV PUSH20 0xFFFFFFFFFFFFFFFFFFFFFFFFFFFFFFFFFFFFFFFF AND SWAP1 POP SWAP1 JUMP JUMPDEST PUSH2 0x8B2 PUSH2 0x1234 JUMP JUMPDEST PUSH1 0x0 PUSH1 0x2 PUSH1 0x0 DUP5 DUP2 MSTORE PUSH1 0x20 ADD SWAP1 DUP2 MSTORE PUSH1 0x20 ADD PUSH1 0x0 KECCAK256 PUSH1 0x0 SWAP1 SLOAD SWAP1 PUSH2 0x100 EXP SWAP1 DIV PUSH20 0xFFFFFFFFFFFFFFFFFFFFFFFFFFFFFFFFFFFFFFFF AND SWAP1 POP PUSH1 0x0 PUSH1 0x3 PUSH1 0x0 DUP4 PUSH20 0xFFFFFFFFFFFFFFFFFFFFFFFFFFFFFFFFFFFFFFFF AND PUSH20 0xFFFFFFFFFFFFFFFFFFFFFFFFFFFFFFFFFFFFFFFF AND DUP2 MSTORE PUSH1 0x20 ADD SWAP1 DUP2 MSTORE PUSH1 0x20 ADD PUSH1 0x0 KECCAK256 PUSH1 0x40 MLOAD DUP1 PUSH1 0x80 ADD PUSH1 0x40 MSTORE SWAP1 DUP2 PUSH1 0x0 DUP3 ADD SLOAD DUP2 MSTORE PUSH1 0x20 ADD PUSH1 0x1 DUP3 ADD DUP1 SLOAD PUSH2 0x950 SWAP1 PUSH2 0x19BE JUMP JUMPDEST DUP1 PUSH1 0x1F ADD PUSH1 0x20 DUP1 SWAP2 DIV MUL PUSH1 0x20 ADD PUSH1 0x40 MLOAD SWAP1 DUP2 ADD PUSH1 0x40 MSTORE DUP1 SWAP3 SWAP2 SWAP1 DUP2 DUP2 MSTORE PUSH1 0x20 ADD DUP3 DUP1 SLOAD PUSH2 0x97C SWAP1 PUSH2 0x19BE JUMP JUMPDEST DUP1 ISZERO PUSH2 0x9C9 JUMPI DUP1 PUSH1 0x1F LT PUSH2 0x99E JUMPI PUSH2 0x100 DUP1 DUP4 SLOAD DIV MUL DUP4 MSTORE SWAP2 PUSH1 0x20 ADD SWAP2 PUSH2 0x9C9 JUMP JUMPDEST DUP3 ADD SWAP2 SWAP1 PUSH1 0x0 MSTORE PUSH1 0x20 PUSH1 0x0 KECCAK256 SWAP1 JUMPDEST DUP2 SLOAD DUP2 MSTORE SWAP1 PUSH1 0x1 ADD SWAP1 PUSH1 0x20 ADD DUP1 DUP4 GT PUSH2 0x9AC JUMPI DUP3 SWAP1 SUB PUSH1 0x1F AND DUP3 ADD SWAP2 JUMPDEST POP POP POP POP POP DUP2 MSTORE PUSH1 0x20 ADD PUSH1 0x2 DUP3 ADD DUP1 SLOAD PUSH2 0x9E2 SWAP1 PUSH2 0x19BE JUMP JUMPDEST DUP1 PUSH1 0x1F ADD PUSH1 0x20 DUP1 SWAP2 DIV MUL PUSH1 0x20 ADD PUSH1 0x40 MLOAD SWAP1 DUP2 ADD PUSH1 0x40 MSTORE DUP1 SWAP3 SWAP2 SWAP1 DUP2 DUP2 MSTORE PUSH1 0x20 ADD DUP3 DUP1 SLOAD PUSH2 0xA0E SWAP1 PUSH2 0x19BE JUMP JUMPDEST DUP1 ISZERO PUSH2 0xA5B JUMPI DUP1 PUSH1 0x1F LT PUSH2 0xA30 JUMPI PUSH2 0x100 DUP1 DUP4 SLOAD DIV MUL DUP4 MSTORE SWAP2 PUSH1 0x20 ADD SWAP2 PUSH2 0xA5B JUMP JUMPDEST DUP3 ADD SWAP2 SWAP1 PUSH1 0x0 MSTORE PUSH1 0x20 PUSH1 0x0 KECCAK256 SWAP1 JUMPDEST DUP2 SLOAD DUP2 MSTORE SWAP1 PUSH1 0x1 ADD SWAP1 PUSH1 0x20 ADD DUP1 DUP4 GT PUSH2 0xA3E JUMPI DUP3 SWAP1 SUB PUSH1 0x1F AND DUP3 ADD SWAP2 JUMPDEST POP POP POP POP POP DUP2 MSTORE PUSH1 0x20 ADD PUSH1 0x3 DUP3 ADD SLOAD DUP2 MSTORE POP POP SWAP1 POP DUP1 SWAP3 POP POP POP SWAP2 SWAP1 POP JUMP JUMPDEST PUSH2 0xA82 PUSH2 0x1234 JUMP JUMPDEST PUSH1 0x0 PUSH1 0x3 PUSH1 0x0 DUP5 PUSH20 0xFFFFFFFFFFFFFFFFFFFFFFFFFFFFFFFFFFFFFFFF AND PUSH20 0xFFFFFFFFFFFFFFFFFFFFFFFFFFFFFFFFFFFFFFFF AND DUP2 MSTORE PUSH1 0x20 ADD SWAP1 DUP2 MSTORE PUSH1 0x20 ADD PUSH1 0x0 KECCAK256 PUSH1 0x40 MLOAD DUP1 PUSH1 0x80 ADD PUSH1 0x40 MSTORE SWAP1 DUP2 PUSH1 0x0 DUP3 ADD SLOAD DUP2 MSTORE PUSH1 0x20 ADD PUSH1 0x1 DUP3 ADD DUP1 SLOAD PUSH2 0xAE8 SWAP1 PUSH2 0x19BE JUMP JUMPDEST DUP1 PUSH1 0x1F ADD PUSH1 0x20 DUP1 SWAP2 DIV MUL PUSH1 0x20 ADD PUSH1 0x40 MLOAD SWAP1 DUP2 ADD PUSH1 0x40 MSTORE DUP1 SWAP3 SWAP2 SWAP1 DUP2 DUP2 MSTORE PUSH1 0x20 ADD DUP3 DUP1 SLOAD PUSH2 0xB14 SWAP1 PUSH2 0x19BE JUMP JUMPDEST DUP1 ISZERO PUSH2 0xB61 JUMPI DUP1 PUSH1 0x1F LT PUSH2 0xB36 JUMPI PUSH2 0x100 DUP1 DUP4 SLOAD DIV MUL DUP4 MSTORE SWAP2 PUSH1 0x20 ADD SWAP2 PUSH2 0xB61 JUMP JUMPDEST DUP3 ADD SWAP2 SWAP1 PUSH1 0x0 MSTORE PUSH1 0x20 PUSH1 0x0 KECCAK256 SWAP1 JUMPDEST DUP2 SLOAD DUP2 MSTORE SWAP1 PUSH1 0x1 ADD SWAP1 PUSH1 0x20 ADD DUP1 DUP4 GT PUSH2 0xB44 JUMPI DUP3 SWAP1 SUB PUSH1 0x1F AND DUP3 ADD SWAP2 JUMPDEST POP POP POP POP POP DUP2 MSTORE PUSH1 0x20 ADD PUSH1 0x2 DUP3 ADD DUP1 SLOAD PUSH2 0xB7A SWAP1 PUSH2 0x19BE JUMP JUMPDEST DUP1 PUSH1 0x1F ADD PUSH1 0x20 DUP1 SWAP2 DIV MUL PUSH1 0x20 ADD PUSH1 0x40 MLOAD SWAP1 DUP2 ADD PUSH1 0x40 MSTORE DUP1 SWAP3 SWAP2 SWAP1 DUP2 DUP2 MSTORE PUSH1 0x20 ADD DUP3 DUP1 SLOAD PUSH2 0xBA6 SWAP1 PUSH2 0x19BE JUMP JUMPDEST DUP1 ISZERO PUSH2 0xBF3 JUMPI DUP1 PUSH1 0x1F LT PUSH2 0xBC8 JUMPI PUSH2 0x100 DUP1 DUP4 SLOAD DIV MUL DUP4 MSTORE SWAP2 PUSH1 0x20 ADD SWAP2 PUSH2 0xBF3 JUMP JUMPDEST DUP3 ADD SWAP2 SWAP1 PUSH1 0x0 MSTORE PUSH1 0x20 PUSH1 0x0 KECCAK256 SWAP1 JUMPDEST DUP2 SLOAD DUP2 MSTORE SWAP1 PUSH1 0x1 ADD SWAP1 PUSH1 0x20 ADD DUP1 DUP4 GT PUSH2 0xBD6 JUMPI DUP3 SWAP1 SUB PUSH1 0x1F AND DUP3 ADD SWAP2 JUMPDEST POP POP POP POP POP DUP2 MSTORE PUSH1 0x20 ADD PUSH1 0x3 DUP3 ADD SLOAD DUP2 MSTORE POP POP SWAP1 POP DUP1 SWAP2 POP POP SWAP2 SWAP1 POP JUMP JUMPDEST PUSH1 0x0 PUSH1 0x3 PUSH1 0x0 CALLER PUSH20 0xFFFFFFFFFFFFFFFFFFFFFFFFFFFFFFFFFFFFFFFF AND PUSH20 0xFFFFFFFFFFFFFFFFFFFFFFFFFFFFFFFFFFFFFFFF AND DUP2 MSTORE PUSH1 0x20 ADD SWAP1 DUP2 MSTORE PUSH1 0x20 ADD PUSH1 0x0 KECCAK256 SWAP1 POP DUP4 DUP2 PUSH1 0x1 ADD SWAP1 DUP1 MLOAD SWAP1 PUSH1 0x20 ADD SWAP1 PUSH2 0xC6C SWAP3 SWAP2 SWAP1 PUSH2 0x11AE JUMP JUMPDEST POP DUP3 DUP2 PUSH1 0x2 ADD SWAP1 DUP1 MLOAD SWAP1 PUSH1 0x20 ADD SWAP1 PUSH2 0xC85 SWAP3 SWAP2 SWAP1 PUSH2 0x11AE JUMP JUMPDEST POP DUP2 DUP2 PUSH1 0x3 ADD DUP2 SWAP1 SSTORE POP POP POP POP POP JUMP JUMPDEST PUSH1 0x0 DUP1 PUSH1 0x3 PUSH1 0x0 DUP5 PUSH20 0xFFFFFFFFFFFFFFFFFFFFFFFFFFFFFFFFFFFFFFFF AND PUSH20 0xFFFFFFFFFFFFFFFFFFFFFFFFFFFFFFFFFFFFFFFF AND DUP2 MSTORE PUSH1 0x20 ADD SWAP1 DUP2 MSTORE PUSH1 0x20 ADD PUSH1 0x0 KECCAK256 PUSH1 0x40 MLOAD DUP1 PUSH1 0x80 ADD PUSH1 0x40 MSTORE SWAP1 DUP2 PUSH1 0x0 DUP3 ADD SLOAD DUP2 MSTORE PUSH1 0x20 ADD PUSH1 0x1 DUP3 ADD DUP1 SLOAD PUSH2 0xCFC SWAP1 PUSH2 0x19BE JUMP JUMPDEST DUP1 PUSH1 0x1F ADD PUSH1 0x20 DUP1 SWAP2 DIV MUL PUSH1 0x20 ADD PUSH1 0x40 MLOAD SWAP1 DUP2 ADD PUSH1 0x40 MSTORE DUP1 SWAP3 SWAP2 SWAP1 DUP2 DUP2 MSTORE PUSH1 0x20 ADD DUP3 DUP1 SLOAD PUSH2 0xD28 SWAP1 PUSH2 0x19BE JUMP JUMPDEST DUP1 ISZERO PUSH2 0xD75 JUMPI DUP1 PUSH1 0x1F LT PUSH2 0xD4A JUMPI PUSH2 0x100 DUP1 DUP4 SLOAD DIV MUL DUP4 MSTORE SWAP2 PUSH1 0x20 ADD SWAP2 PUSH2 0xD75 JUMP JUMPDEST DUP3 ADD SWAP2 SWAP1 PUSH1 0x0 MSTORE PUSH1 0x20 PUSH1 0x0 KECCAK256 SWAP1 JUMPDEST DUP2 SLOAD DUP2 MSTORE SWAP1 PUSH1 0x1 ADD SWAP1 PUSH1 0x20 ADD DUP1 DUP4 GT PUSH2 0xD58 JUMPI DUP3 SWAP1 SUB PUSH1 0x1F AND DUP3 ADD SWAP2 JUMPDEST POP POP POP POP POP DUP2 MSTORE PUSH1 0x20 ADD PUSH1 0x2 DUP3 ADD DUP1 SLOAD PUSH2 0xD8E SWAP1 PUSH2 0x19BE JUMP JUMPDEST DUP1 PUSH1 0x1F ADD PUSH1 0x20 DUP1 SWAP2 DIV MUL PUSH1 0x20 ADD PUSH1 0x40 MLOAD SWAP1 DUP2 ADD PUSH1 0x40 MSTORE DUP1 SWAP3 SWAP2 SWAP1 DUP2 DUP2 MSTORE PUSH1 0x20 ADD DUP3 DUP1 SLOAD PUSH2 0xDBA SWAP1 PUSH2 0x19BE JUMP JUMPDEST DUP1 ISZERO PUSH2 0xE07 JUMPI DUP1 PUSH1 0x1F LT PUSH2 0xDDC JUMPI PUSH2 0x100 DUP1 DUP4 SLOAD DIV MUL DUP4 MSTORE SWAP2 PUSH1 0x20 ADD SWAP2 PUSH2 0xE07 JUMP JUMPDEST DUP3 ADD SWAP2 SWAP1 PUSH1 0x0 MSTORE PUSH1 0x20 PUSH1 0x0 KECCAK256 SWAP1 JUMPDEST DUP2 SLOAD DUP2 MSTORE SWAP1 PUSH1 0x1 ADD SWAP1 PUSH1 0x20 ADD DUP1 DUP4 GT PUSH2 0xDEA JUMPI DUP3 SWAP1 SUB PUSH1 0x1F AND DUP3 ADD SWAP2 JUMPDEST POP POP POP POP POP DUP2 MSTORE PUSH1 0x20 ADD PUSH1 0x3 DUP3 ADD SLOAD DUP2 MSTORE POP POP SWAP1 POP DUP1 PUSH1 0x0 ADD MLOAD SWAP2 POP POP SWAP2 SWAP1 POP JUMP JUMPDEST PUSH2 0xE31 PUSH2 0x1064 JUMP JUMPDEST PUSH1 0x0 ADDRESS SWAP1 POP PUSH1 0x0 PUSH1 0x1 PUSH1 0x0 SWAP1 SLOAD SWAP1 PUSH2 0x100 EXP SWAP1 DIV PUSH20 0xFFFFFFFFFFFFFFFFFFFFFFFFFFFFFFFFFFFFFFFF AND PUSH20 0xFFFFFFFFFFFFFFFFFFFFFFFFFFFFFFFFFFFFFFFF AND PUSH4 0xCF378343 DUP4 DUP8 PUSH1 0x40 MLOAD DUP4 PUSH4 0xFFFFFFFF AND PUSH1 0xE0 SHL DUP2 MSTORE PUSH1 0x4 ADD PUSH2 0xE95 SWAP3 SWAP2 SWAP1 PUSH2 0x1784 JUMP JUMPDEST PUSH1 0x20 PUSH1 0x40 MLOAD DUP1 DUP4 SUB DUP2 PUSH1 0x0 DUP8 DUP1 EXTCODESIZE ISZERO DUP1 ISZERO PUSH2 0xEAF JUMPI PUSH1 0x0 DUP1 REVERT JUMPDEST POP GAS CALL ISZERO DUP1 ISZERO PUSH2 0xEC3 JUMPI RETURNDATASIZE PUSH1 0x0 DUP1 RETURNDATACOPY RETURNDATASIZE PUSH1 0x0 REVERT JUMPDEST POP POP POP POP PUSH1 0x40 MLOAD RETURNDATASIZE PUSH1 0x1F NOT PUSH1 0x1F DUP3 ADD AND DUP3 ADD DUP1 PUSH1 0x40 MSTORE POP DUP2 ADD SWAP1 PUSH2 0xEE7 SWAP2 SWAP1 PUSH2 0x156A JUMP JUMPDEST SWAP1 POP PUSH1 0x1 PUSH1 0x0 SWAP1 SLOAD SWAP1 PUSH2 0x100 EXP SWAP1 DIV PUSH20 0xFFFFFFFFFFFFFFFFFFFFFFFFFFFFFFFFFFFFFFFF AND PUSH20 0xFFFFFFFFFFFFFFFFFFFFFFFFFFFFFFFFFFFFFFFF AND PUSH4 0xE1B2E979 DUP3 DUP6 PUSH1 0x40 MLOAD DUP4 PUSH4 0xFFFFFFFF AND PUSH1 0xE0 SHL DUP2 MSTORE PUSH1 0x4 ADD PUSH2 0xF46 SWAP3 SWAP2 SWAP1 PUSH2 0x184C JUMP JUMPDEST PUSH1 0x0 PUSH1 0x40 MLOAD DUP1 DUP4 SUB DUP2 PUSH1 0x0 DUP8 DUP1 EXTCODESIZE ISZERO DUP1 ISZERO PUSH2 0xF60 JUMPI PUSH1 0x0 DUP1 REVERT JUMPDEST POP GAS CALL ISZERO DUP1 ISZERO PUSH2 0xF74 JUMPI RETURNDATASIZE PUSH1 0x0 DUP1 RETURNDATACOPY RETURNDATASIZE PUSH1 0x0 REVERT JUMPDEST POP POP POP POP PUSH2 0xF83 DUP2 PUSH1 0x1 PUSH2 0x84A JUMP JUMPDEST PUSH2 0xF8D DUP2 DUP6 PUSH2 0x74F JUMP JUMPDEST POP POP POP POP POP JUMP JUMPDEST PUSH2 0xF9C PUSH2 0x1064 JUMP JUMPDEST PUSH1 0x0 PUSH20 0xFFFFFFFFFFFFFFFFFFFFFFFFFFFFFFFFFFFFFFFF AND DUP2 PUSH20 0xFFFFFFFFFFFFFFFFFFFFFFFFFFFFFFFFFFFFFFFF AND EQ ISZERO PUSH2 0x100C JUMPI PUSH1 0x40 MLOAD PUSH32 0x8C379A000000000000000000000000000000000000000000000000000000000 DUP2 MSTORE PUSH1 0x4 ADD PUSH2 0x1003 SWAP1 PUSH2 0x17CF JUMP JUMPDEST PUSH1 0x40 MLOAD DUP1 SWAP2 SUB SWAP1 REVERT JUMPDEST PUSH2 0x1015 DUP2 PUSH2 0x10E2 JUMP JUMPDEST POP JUMP JUMPDEST PUSH2 0x1020 PUSH2 0x1064 JUMP JUMPDEST DUP1 PUSH1 0x1 PUSH1 0x0 PUSH2 0x100 EXP DUP2 SLOAD DUP2 PUSH20 0xFFFFFFFFFFFFFFFFFFFFFFFFFFFFFFFFFFFFFFFF MUL NOT AND SWAP1 DUP4 PUSH20 0xFFFFFFFFFFFFFFFFFFFFFFFFFFFFFFFFFFFFFFFF AND MUL OR SWAP1 SSTORE POP POP JUMP JUMPDEST PUSH2 0x106C PUSH2 0x11A6 JUMP JUMPDEST PUSH20 0xFFFFFFFFFFFFFFFFFFFFFFFFFFFFFFFFFFFFFFFF AND PUSH2 0x108A PUSH2 0x881 JUMP JUMPDEST PUSH20 0xFFFFFFFFFFFFFFFFFFFFFFFFFFFFFFFFFFFFFFFF AND EQ PUSH2 0x10E0 JUMPI PUSH1 0x40 MLOAD PUSH32 0x8C379A000000000000000000000000000000000000000000000000000000000 DUP2 MSTORE PUSH1 0x4 ADD PUSH2 0x10D7 SWAP1 PUSH2 0x17EF JUMP JUMPDEST PUSH1 0x40 MLOAD DUP1 SWAP2 SUB SWAP1 REVERT JUMPDEST JUMP JUMPDEST PUSH1 0x0 DUP1 PUSH1 0x0 SWAP1 SLOAD SWAP1 PUSH2 0x100 EXP SWAP1 DIV PUSH20 0xFFFFFFFFFFFFFFFFFFFFFFFFFFFFFFFFFFFFFFFF AND SWAP1 POP DUP2 PUSH1 0x0 DUP1 PUSH2 0x100 EXP DUP2 SLOAD DUP2 PUSH20 0xFFFFFFFFFFFFFFFFFFFFFFFFFFFFFFFFFFFFFFFF MUL NOT AND SWAP1 DUP4 PUSH20 0xFFFFFFFFFFFFFFFFFFFFFFFFFFFFFFFFFFFFFFFF AND MUL OR SWAP1 SSTORE POP DUP2 PUSH20 0xFFFFFFFFFFFFFFFFFFFFFFFFFFFFFFFFFFFFFFFF AND DUP2 PUSH20 0xFFFFFFFFFFFFFFFFFFFFFFFFFFFFFFFFFFFFFFFF AND PUSH32 0x8BE0079C531659141344CD1FD0A4F28419497F9722A3DAAFE3B4186F6B6457E0 PUSH1 0x40 MLOAD PUSH1 0x40 MLOAD DUP1 SWAP2 SUB SWAP1 LOG3 POP POP JUMP JUMPDEST PUSH1 0x0 CALLER SWAP1 POP SWAP1 JUMP JUMPDEST DUP3 DUP1 SLOAD PUSH2 0x11BA SWAP1 PUSH2 0x19BE JUMP JUMPDEST SWAP1 PUSH1 0x0 MSTORE PUSH1 0x20 PUSH1 0x0 KECCAK256 SWAP1 PUSH1 0x1F ADD PUSH1 0x20 SWAP1 DIV DUP2 ADD SWAP3 DUP3 PUSH2 0x11DC JUMPI PUSH1 0x0 DUP6 SSTORE PUSH2 0x1223 JUMP JUMPDEST DUP3 PUSH1 0x1F LT PUSH2 0x11F5 JUMPI DUP1 MLOAD PUSH1 0xFF NOT AND DUP4 DUP1 ADD OR DUP6 SSTORE PUSH2 0x1223 JUMP JUMPDEST DUP3 DUP1 ADD PUSH1 0x1 ADD DUP6 SSTORE DUP3 ISZERO PUSH2 0x1223 JUMPI SWAP2 DUP3 ADD JUMPDEST DUP3 DUP2 GT ISZERO PUSH2 0x1222 JUMPI DUP3 MLOAD DUP3 SSTORE SWAP2 PUSH1 0x20 ADD SWAP2 SWAP1 PUSH1 0x1 ADD SWAP1 PUSH2 0x1207 JUMP JUMPDEST JUMPDEST POP SWAP1 POP PUSH2 0x1230 SWAP2 SWAP1 PUSH2 0x125C JUMP JUMPDEST POP SWAP1 JUMP JUMPDEST PUSH1 0x40 MLOAD DUP1 PUSH1 0x80 ADD PUSH1 0x40 MSTORE DUP1 PUSH1 0x0 DUP2 MSTORE PUSH1 0x20 ADD PUSH1 0x60 DUP2 MSTORE PUSH1 0x20 ADD PUSH1 0x60 DUP2 MSTORE PUSH1 0x20 ADD PUSH1 0x0 DUP2 MSTORE POP SWAP1 JUMP JUMPDEST JUMPDEST DUP1 DUP3 GT ISZERO PUSH2 0x1275 JUMPI PUSH1 0x0 DUP2 PUSH1 0x0 SWAP1 SSTORE POP PUSH1 0x1 ADD PUSH2 0x125D JUMP JUMPDEST POP SWAP1 JUMP JUMPDEST PUSH1 0x0 PUSH2 0x128C PUSH2 0x1287 DUP5 PUSH2 0x189A JUMP JUMPDEST PUSH2 0x1875 JUMP JUMPDEST SWAP1 POP DUP3 DUP2 MSTORE PUSH1 0x20 DUP2 ADD DUP5 DUP5 DUP5 ADD GT ISZERO PUSH2 0x12A4 JUMPI PUSH1 0x0 DUP1 REVERT JUMPDEST PUSH2 0x12AF DUP5 DUP3 DUP6 PUSH2 0x197C JUMP JUMPDEST POP SWAP4 SWAP3 POP POP POP JUMP JUMPDEST PUSH1 0x0 PUSH2 0x12CA PUSH2 0x12C5 DUP5 PUSH2 0x18CB JUMP JUMPDEST PUSH2 0x1875 JUMP JUMPDEST SWAP1 POP DUP3 DUP2 MSTORE PUSH1 0x20 DUP2 ADD DUP5 DUP5 DUP5 ADD GT ISZERO PUSH2 0x12E2 JUMPI PUSH1 0x0 DUP1 REVERT JUMPDEST PUSH2 0x12ED DUP5 DUP3 DUP6 PUSH2 0x197C JUMP JUMPDEST POP SWAP4 SWAP3 POP POP POP JUMP JUMPDEST PUSH1 0x0 DUP2 CALLDATALOAD SWAP1 POP PUSH2 0x1304 DUP2 PUSH2 0x1B08 JUMP JUMPDEST SWAP3 SWAP2 POP POP JUMP JUMPDEST PUSH1 0x0 DUP2 CALLDATALOAD SWAP1 POP PUSH2 0x1319 DUP2 PUSH2 0x1B1F JUMP JUMPDEST SWAP3 SWAP2 POP POP JUMP JUMPDEST PUSH1 0x0 DUP3 PUSH1 0x1F DUP4 ADD SLT PUSH2 0x1330 JUMPI PUSH1 0x0 DUP1 REVERT JUMPDEST DUP2 CALLDATALOAD PUSH2 0x1340 DUP5 DUP3 PUSH1 0x20 DUP7 ADD PUSH2 0x1279 JUMP JUMPDEST SWAP2 POP POP SWAP3 SWAP2 POP POP JUMP JUMPDEST PUSH1 0x0 DUP3 PUSH1 0x1F DUP4 ADD SLT PUSH2 0x135A JUMPI PUSH1 0x0 DUP1 REVERT JUMPDEST DUP2 CALLDATALOAD PUSH2 0x136A DUP5 DUP3 PUSH1 0x20 DUP7 ADD PUSH2 0x12B7 JUMP JUMPDEST SWAP2 POP POP SWAP3 SWAP2 POP POP JUMP JUMPDEST PUSH1 0x0 DUP2 CALLDATALOAD SWAP1 POP PUSH2 0x1382 DUP2 PUSH2 0x1B36 JUMP JUMPDEST SWAP3 SWAP2 POP POP JUMP JUMPDEST PUSH1 0x0 DUP2 MLOAD SWAP1 POP PUSH2 0x1397 DUP2 PUSH2 0x1B36 JUMP JUMPDEST SWAP3 SWAP2 POP POP JUMP JUMPDEST PUSH1 0x0 PUSH1 0x20 DUP3 DUP5 SUB SLT ISZERO PUSH2 0x13AF JUMPI PUSH1 0x0 DUP1 REVERT JUMPDEST PUSH1 0x0 PUSH2 0x13BD DUP5 DUP3 DUP6 ADD PUSH2 0x12F5 JUMP JUMPDEST SWAP2 POP POP SWAP3 SWAP2 POP POP JUMP JUMPDEST PUSH1 0x0 PUSH1 0x20 DUP3 DUP5 SUB SLT ISZERO PUSH2 0x13D8 JUMPI PUSH1 0x0 DUP1 REVERT JUMPDEST PUSH1 0x0 DUP3 ADD CALLDATALOAD PUSH8 0xFFFFFFFFFFFFFFFF DUP2 GT ISZERO PUSH2 0x13F2 JUMPI PUSH1 0x0 DUP1 REVERT JUMPDEST PUSH2 0x13FE DUP5 DUP3 DUP6 ADD PUSH2 0x131F JUMP JUMPDEST SWAP2 POP POP SWAP3 SWAP2 POP POP JUMP JUMPDEST PUSH1 0x0 DUP1 PUSH1 0x0 PUSH1 0x60 DUP5 DUP7 SUB SLT ISZERO PUSH2 0x141C JUMPI PUSH1 0x0 DUP1 REVERT JUMPDEST PUSH1 0x0 DUP5 ADD CALLDATALOAD PUSH8 0xFFFFFFFFFFFFFFFF DUP2 GT ISZERO PUSH2 0x1436 JUMPI PUSH1 0x0 DUP1 REVERT JUMPDEST PUSH2 0x1442 DUP7 DUP3 DUP8 ADD PUSH2 0x131F JUMP JUMPDEST SWAP4 POP POP PUSH1 0x20 DUP5 ADD CALLDATALOAD PUSH8 0xFFFFFFFFFFFFFFFF DUP2 GT ISZERO PUSH2 0x145F JUMPI PUSH1 0x0 DUP1 REVERT JUMPDEST PUSH2 0x146B DUP7 DUP3 DUP8 ADD PUSH2 0x131F JUMP JUMPDEST SWAP3 POP POP PUSH1 0x40 PUSH2 0x147C DUP7 DUP3 DUP8 ADD PUSH2 0x1373 JUMP JUMPDEST SWAP2 POP POP SWAP3 POP SWAP3 POP SWAP3 JUMP JUMPDEST PUSH1 0x0 DUP1 PUSH1 0x40 DUP4 DUP6 SUB SLT ISZERO PUSH2 0x1499 JUMPI PUSH1 0x0 DUP1 REVERT JUMPDEST PUSH1 0x0 DUP4 ADD CALLDATALOAD PUSH8 0xFFFFFFFFFFFFFFFF DUP2 GT ISZERO PUSH2 0x14B3 JUMPI PUSH1 0x0 DUP1 REVERT JUMPDEST PUSH2 0x14BF DUP6 DUP3 DUP7 ADD PUSH2 0x131F JUMP JUMPDEST SWAP3 POP POP PUSH1 0x20 PUSH2 0x14D0 DUP6 DUP3 DUP7 ADD PUSH2 0x1373 JUMP JUMPDEST SWAP2 POP POP SWAP3 POP SWAP3 SWAP1 POP JUMP JUMPDEST PUSH1 0x0 DUP1 PUSH1 0x0 PUSH1 0x60 DUP5 DUP7 SUB SLT ISZERO PUSH2 0x14EF JUMPI PUSH1 0x0 DUP1 REVERT JUMPDEST PUSH1 0x0 DUP5 ADD CALLDATALOAD PUSH8 0xFFFFFFFFFFFFFFFF DUP2 GT ISZERO PUSH2 0x1509 JUMPI PUSH1 0x0 DUP1 REVERT JUMPDEST PUSH2 0x1515 DUP7 DUP3 DUP8 ADD PUSH2 0x1349 JUMP JUMPDEST SWAP4 POP POP PUSH1 0x20 PUSH2 0x1526 DUP7 DUP3 DUP8 ADD PUSH2 0x12F5 JUMP JUMPDEST SWAP3 POP POP PUSH1 0x40 PUSH2 0x1537 DUP7 DUP3 DUP8 ADD PUSH2 0x1373 JUMP JUMPDEST SWAP2 POP POP SWAP3 POP SWAP3 POP SWAP3 JUMP JUMPDEST PUSH1 0x0 PUSH1 0x20 DUP3 DUP5 SUB SLT ISZERO PUSH2 0x1553 JUMPI PUSH1 0x0 DUP1 REVERT JUMPDEST PUSH1 0x0 PUSH2 0x1561 DUP5 DUP3 DUP6 ADD PUSH2 0x1373 JUMP JUMPDEST SWAP2 POP POP SWAP3 SWAP2 POP POP JUMP JUMPDEST PUSH1 0x0 PUSH1 0x20 DUP3 DUP5 SUB SLT ISZERO PUSH2 0x157C JUMPI PUSH1 0x0 DUP1 REVERT JUMPDEST PUSH1 0x0 PUSH2 0x158A DUP5 DUP3 DUP6 ADD PUSH2 0x1388 JUMP JUMPDEST SWAP2 POP POP SWAP3 SWAP2 POP POP JUMP JUMPDEST PUSH1 0x0 DUP1 PUSH1 0x40 DUP4 DUP6 SUB SLT ISZERO PUSH2 0x15A6 JUMPI PUSH1 0x0 DUP1 REVERT JUMPDEST PUSH1 0x0 PUSH2 0x15B4 DUP6 DUP3 DUP7 ADD PUSH2 0x1373 JUMP JUMPDEST SWAP3 POP POP PUSH1 0x20 PUSH2 0x15C5 DUP6 DUP3 DUP7 ADD PUSH2 0x12F5 JUMP JUMPDEST SWAP2 POP POP SWAP3 POP SWAP3 SWAP1 POP JUMP JUMPDEST PUSH1 0x0 DUP1 PUSH1 0x40 DUP4 DUP6 SUB SLT ISZERO PUSH2 0x15E2 JUMPI PUSH1 0x0 DUP1 REVERT JUMPDEST PUSH1 0x0 PUSH2 0x15F0 DUP6 DUP3 DUP7 ADD PUSH2 0x1373 JUMP JUMPDEST SWAP3 POP POP PUSH1 0x20 PUSH2 0x1601 DUP6 DUP3 DUP7 ADD PUSH2 0x130A JUMP JUMPDEST SWAP2 POP POP SWAP3 POP SWAP3 SWAP1 POP JUMP JUMPDEST PUSH2 0x1614 DUP2 PUSH2 0x1934 JUMP JUMPDEST DUP3 MSTORE POP POP JUMP JUMPDEST PUSH2 0x1623 DUP2 PUSH2 0x1946 JUMP JUMPDEST DUP3 MSTORE POP POP JUMP JUMPDEST PUSH1 0x0 PUSH2 0x1634 DUP3 PUSH2 0x18FC JUMP JUMPDEST PUSH2 0x163E DUP2 DUP6 PUSH2 0x1912 JUMP JUMPDEST SWAP4 POP PUSH2 0x164E DUP2 DUP6 PUSH1 0x20 DUP7 ADD PUSH2 0x198B JUMP JUMPDEST PUSH2 0x1657 DUP2 PUSH2 0x1A7F JUMP JUMPDEST DUP5 ADD SWAP2 POP POP SWAP3 SWAP2 POP POP JUMP JUMPDEST PUSH1 0x0 PUSH2 0x166D DUP3 PUSH2 0x1907 JUMP JUMPDEST PUSH2 0x1677 DUP2 DUP6 PUSH2 0x1923 JUMP JUMPDEST SWAP4 POP PUSH2 0x1687 DUP2 DUP6 PUSH1 0x20 DUP7 ADD PUSH2 0x198B JUMP JUMPDEST PUSH2 0x1690 DUP2 PUSH2 0x1A7F JUMP JUMPDEST DUP5 ADD SWAP2 POP POP SWAP3 SWAP2 POP POP JUMP JUMPDEST PUSH1 0x0 PUSH2 0x16A8 PUSH1 0x26 DUP4 PUSH2 0x1923 JUMP JUMPDEST SWAP2 POP PUSH2 0x16B3 DUP3 PUSH2 0x1A90 JUMP JUMPDEST PUSH1 0x40 DUP3 ADD SWAP1 POP SWAP2 SWAP1 POP JUMP JUMPDEST PUSH1 0x0 PUSH2 0x16CB PUSH1 0x20 DUP4 PUSH2 0x1923 JUMP JUMPDEST SWAP2 POP PUSH2 0x16D6 DUP3 PUSH2 0x1ADF JUMP JUMPDEST PUSH1 0x20 DUP3 ADD SWAP1 POP SWAP2 SWAP1 POP JUMP JUMPDEST PUSH1 0x0 PUSH1 0x80 DUP4 ADD PUSH1 0x0 DUP4 ADD MLOAD PUSH2 0x16F9 PUSH1 0x0 DUP7 ADD DUP3 PUSH2 0x174B JUMP JUMPDEST POP PUSH1 0x20 DUP4 ADD MLOAD DUP5 DUP3 SUB PUSH1 0x20 DUP7 ADD MSTORE PUSH2 0x1711 DUP3 DUP3 PUSH2 0x1629 JUMP JUMPDEST SWAP2 POP POP PUSH1 0x40 DUP4 ADD MLOAD DUP5 DUP3 SUB PUSH1 0x40 DUP7 ADD MSTORE PUSH2 0x172B DUP3 DUP3 PUSH2 0x1629 JUMP JUMPDEST SWAP2 POP POP PUSH1 0x60 DUP4 ADD MLOAD PUSH2 0x1740 PUSH1 0x60 DUP7 ADD DUP3 PUSH2 0x174B JUMP JUMPDEST POP DUP1 SWAP2 POP POP SWAP3 SWAP2 POP POP JUMP JUMPDEST PUSH2 0x1754 DUP2 PUSH2 0x1972 JUMP JUMPDEST DUP3 MSTORE POP POP JUMP JUMPDEST PUSH2 0x1763 DUP2 PUSH2 0x1972 JUMP JUMPDEST DUP3 MSTORE POP POP JUMP JUMPDEST PUSH1 0x0 PUSH1 0x20 DUP3 ADD SWAP1 POP PUSH2 0x177E PUSH1 0x0 DUP4 ADD DUP5 PUSH2 0x160B JUMP JUMPDEST SWAP3 SWAP2 POP POP JUMP JUMPDEST PUSH1 0x0 PUSH1 0x40 DUP3 ADD SWAP1 POP PUSH2 0x1799 PUSH1 0x0 DUP4 ADD DUP6 PUSH2 0x160B JUMP JUMPDEST DUP2 DUP2 SUB PUSH1 0x20 DUP4 ADD MSTORE PUSH2 0x17AB DUP2 DUP5 PUSH2 0x1662 JUMP JUMPDEST SWAP1 POP SWAP4 SWAP3 POP POP POP JUMP JUMPDEST PUSH1 0x0 PUSH1 0x20 DUP3 ADD SWAP1 POP PUSH2 0x17C9 PUSH1 0x0 DUP4 ADD DUP5 PUSH2 0x161A JUMP JUMPDEST SWAP3 SWAP2 POP POP JUMP JUMPDEST PUSH1 0x0 PUSH1 0x20 DUP3 ADD SWAP1 POP DUP2 DUP2 SUB PUSH1 0x0 DUP4 ADD MSTORE PUSH2 0x17E8 DUP2 PUSH2 0x169B JUMP JUMPDEST SWAP1 POP SWAP2 SWAP1 POP JUMP JUMPDEST PUSH1 0x0 PUSH1 0x20 DUP3 ADD SWAP1 POP DUP2 DUP2 SUB PUSH1 0x0 DUP4 ADD MSTORE PUSH2 0x1808 DUP2 PUSH2 0x16BE JUMP JUMPDEST SWAP1 POP SWAP2 SWAP1 POP JUMP JUMPDEST PUSH1 0x0 PUSH1 0x20 DUP3 ADD SWAP1 POP DUP2 DUP2 SUB PUSH1 0x0 DUP4 ADD MSTORE PUSH2 0x1829 DUP2 DUP5 PUSH2 0x16E1 JUMP JUMPDEST SWAP1 POP SWAP3 SWAP2 POP POP JUMP JUMPDEST PUSH1 0x0 PUSH1 0x20 DUP3 ADD SWAP1 POP PUSH2 0x1846 PUSH1 0x0 DUP4 ADD DUP5 PUSH2 0x175A JUMP JUMPDEST SWAP3 SWAP2 POP POP JUMP JUMPDEST PUSH1 0x0 PUSH1 0x40 DUP3 ADD SWAP1 POP PUSH2 0x1861 PUSH1 0x0 DUP4 ADD DUP6 PUSH2 0x175A JUMP JUMPDEST PUSH2 0x186E PUSH1 0x20 DUP4 ADD DUP5 PUSH2 0x175A JUMP JUMPDEST SWAP4 SWAP3 POP POP POP JUMP JUMPDEST PUSH1 0x0 PUSH2 0x187F PUSH2 0x1890 JUMP JUMPDEST SWAP1 POP PUSH2 0x188B DUP3 DUP3 PUSH2 0x19F0 JUMP JUMPDEST SWAP2 SWAP1 POP JUMP JUMPDEST PUSH1 0x0 PUSH1 0x40 MLOAD SWAP1 POP SWAP1 JUMP JUMPDEST PUSH1 0x0 PUSH8 0xFFFFFFFFFFFFFFFF DUP3 GT ISZERO PUSH2 0x18B5 JUMPI PUSH2 0x18B4 PUSH2 0x1A50 JUMP JUMPDEST JUMPDEST PUSH2 0x18BE DUP3 PUSH2 0x1A7F JUMP JUMPDEST SWAP1 POP PUSH1 0x20 DUP2 ADD SWAP1 POP SWAP2 SWAP1 POP JUMP JUMPDEST PUSH1 0x0 PUSH8 0xFFFFFFFFFFFFFFFF DUP3 GT ISZERO PUSH2 0x18E6 JUMPI PUSH2 0x18E5 PUSH2 0x1A50 JUMP JUMPDEST JUMPDEST PUSH2 0x18EF DUP3 PUSH2 0x1A7F JUMP JUMPDEST SWAP1 POP PUSH1 0x20 DUP2 ADD SWAP1 POP SWAP2 SWAP1 POP JUMP JUMPDEST PUSH1 0x0 DUP2 MLOAD SWAP1 POP SWAP2 SWAP1 POP JUMP JUMPDEST PUSH1 0x0 DUP2 MLOAD SWAP1 POP SWAP2 SWAP1 POP JUMP JUMPDEST PUSH1 0x0 DUP3 DUP3 MSTORE PUSH1 0x20 DUP3 ADD SWAP1 POP SWAP3 SWAP2 POP POP JUMP JUMPDEST PUSH1 0x0 DUP3 DUP3 MSTORE PUSH1 0x20 DUP3 ADD SWAP1 POP SWAP3 SWAP2 POP POP JUMP JUMPDEST PUSH1 0x0 PUSH2 0x193F DUP3 PUSH2 0x1952 JUMP JUMPDEST SWAP1 POP SWAP2 SWAP1 POP JUMP JUMPDEST PUSH1 0x0 DUP2 ISZERO ISZERO SWAP1 POP SWAP2 SWAP1 POP JUMP JUMPDEST PUSH1 0x0 PUSH20 0xFFFFFFFFFFFFFFFFFFFFFFFFFFFFFFFFFFFFFFFF DUP3 AND SWAP1 POP SWAP2 SWAP1 POP JUMP JUMPDEST PUSH1 0x0 DUP2 SWAP1 POP SWAP2 SWAP1 POP JUMP JUMPDEST DUP3 DUP2 DUP4 CALLDATACOPY PUSH1 0x0 DUP4 DUP4 ADD MSTORE POP POP POP JUMP JUMPDEST PUSH1 0x0 JUMPDEST DUP4 DUP2 LT ISZERO PUSH2 0x19A9 JUMPI DUP1 DUP3 ADD MLOAD DUP2 DUP5 ADD MSTORE PUSH1 0x20 DUP2 ADD SWAP1 POP PUSH2 0x198E JUMP JUMPDEST DUP4 DUP2 GT ISZERO PUSH2 0x19B8 JUMPI PUSH1 0x0 DUP5 DUP5 ADD MSTORE JUMPDEST POP POP POP POP JUMP JUMPDEST PUSH1 0x0 PUSH1 0x2 DUP3 DIV SWAP1 POP PUSH1 0x1 DUP3 AND DUP1 PUSH2 0x19D6 JUMPI PUSH1 0x7F DUP3 AND SWAP2 POP JUMPDEST PUSH1 0x20 DUP3 LT DUP2 EQ ISZERO PUSH2 0x19EA JUMPI PUSH2 0x19E9 PUSH2 0x1A21 JUMP JUMPDEST JUMPDEST POP SWAP2 SWAP1 POP JUMP JUMPDEST PUSH2 0x19F9 DUP3 PUSH2 0x1A7F JUMP JUMPDEST DUP2 ADD DUP2 DUP2 LT PUSH8 0xFFFFFFFFFFFFFFFF DUP3 GT OR ISZERO PUSH2 0x1A18 JUMPI PUSH2 0x1A17 PUSH2 0x1A50 JUMP JUMPDEST JUMPDEST DUP1 PUSH1 0x40 MSTORE POP POP POP JUMP JUMPDEST PUSH32 0x4E487B7100000000000000000000000000000000000000000000000000000000 PUSH1 0x0 MSTORE PUSH1 0x22 PUSH1 0x4 MSTORE PUSH1 0x24 PUSH1 0x0 REVERT JUMPDEST PUSH32 0x4E487B7100000000000000000000000000000000000000000000000000000000 PUSH1 0x0 MSTORE PUSH1 0x41 PUSH1 0x4 MSTORE PUSH1 0x24 PUSH1 0x0 REVERT JUMPDEST PUSH1 0x0 PUSH1 0x1F NOT PUSH1 0x1F DUP4 ADD AND SWAP1 POP SWAP2 SWAP1 POP JUMP JUMPDEST PUSH32 0x4F776E61626C653A206E6577206F776E657220697320746865207A65726F2061 PUSH1 0x0 DUP3 ADD MSTORE PUSH32 0x6464726573730000000000000000000000000000000000000000000000000000 PUSH1 0x20 DUP3 ADD MSTORE POP JUMP JUMPDEST PUSH32 0x4F776E61626C653A2063616C6C6572206973206E6F7420746865206F776E6572 PUSH1 0x0 DUP3 ADD MSTORE POP JUMP JUMPDEST PUSH2 0x1B11 DUP2 PUSH2 0x1934 JUMP JUMPDEST DUP2 EQ PUSH2 0x1B1C JUMPI PUSH1 0x0 DUP1 REVERT JUMPDEST POP JUMP JUMPDEST PUSH2 0x1B28 DUP2 PUSH2 0x1946 JUMP JUMPDEST DUP2 EQ PUSH2 0x1B33 JUMPI PUSH1 0x0 DUP1 REVERT JUMPDEST POP JUMP JUMPDEST PUSH2 0x1B3F DUP2 PUSH2 0x1972 JUMP JUMPDEST DUP2 EQ PUSH2 0x1B4A JUMPI PUSH1 0x0 DUP1 REVERT JUMPDEST POP JUMP INVALID LOG2 PUSH5 0x6970667358 0x22 SLT KECCAK256 SELFDESTRUCT PUSH28 0x3B453F1B89F6131D77D1C45FB4EC26E04CC2A37E7B59EEA43601702 0xEE REVERT PUSH5 0x736F6C6343 STOP ADDMOD DIV STOP CALLER "
				},
				"gasEstimates": {
					"creation": {
						"codeDepositCost": "1408600",
						"executionCost": "infinite",
						"totalCost": "infinite"
					},
					"external": {
						"": "203",
						"NFTIdOfManager(address)": "infinite",
						"availableOfNFTId(uint256)": "1568",
						"createKYCNFT(string,address,uint256)": "infinite",
						"initManagerAddr(uint256,address)": "42670",
						"managerOfNFTId(uint256)": "1623",
						"modifyManagerAddr(address)": "infinite",
						"owner()": "1245",
						"renounceOwnership()": "24465",
						"setKYCNFTContractAddress(address)": "22374",
						"setNFTAvailableOfNFTId(uint256,bool)": "22583",
						"transferOwnership(address)": "24813",
						"updateAccumulator(bytes,bytes,uint256)": "infinite",
						"updateAccumulatorPublicKey(bytes,uint256)": "infinite",
						"updateAccumulatorValue(bytes)": "infinite",
						"userDataOfManager(address)": "infinite",
						"userDataOfNFTId(uint256)": "infinite"
					}
				},
				"methodIdentifiers": {
					"NFTIdOfManager(address)": "b2b72bc4",
					"availableOfNFTId(uint256)": "0e197dc9",
					"createKYCNFT(string,address,uint256)": "d1933ddd",
					"initManagerAddr(uint256,address)": "3960a892",
					"managerOfNFTId(uint256)": "4b3cef44",
					"modifyManagerAddr(address)": "1ff4bdf3",
					"owner()": "8da5cb5b",
					"renounceOwnership()": "715018a6",
					"setKYCNFTContractAddress(address)": "fbc2cf13",
					"setNFTAvailableOfNFTId(uint256,bool)": "717b9b6c",
					"transferOwnership(address)": "f2fde38b",
					"updateAccumulator(bytes,bytes,uint256)": "b16b2506",
					"updateAccumulatorPublicKey(bytes,uint256)": "1e6dd491",
					"updateAccumulatorValue(bytes)": "07b8dedb",
					"userDataOfManager(address)": "ad575035",
					"userDataOfNFTId(uint256)": "917b8fd0"
				}
			},
			"storageLayout": {
				"storage": [
					{
						"astId": 7,
						"contract": "contracts/KYCManager.sol:KYCManagerV1",
						"label": "_owner",
						"offset": 0,
						"slot": "0",
						"type": "t_address"
					},
					{
						"astId": 168,
						"contract": "contracts/KYCManager.sol:KYCManagerV1",
						"label": "kycNFTContract",
						"offset": 0,
						"slot": "1",
						"type": "t_contract(KYCNFTInterface)154"
					},
					{
						"astId": 172,
						"contract": "contracts/KYCManager.sol:KYCManagerV1",
						"label": "NFTIdToManager",
						"offset": 0,
						"slot": "2",
						"type": "t_mapping(t_uint256,t_address)"
					},
					{
						"astId": 177,
						"contract": "contracts/KYCManager.sol:KYCManagerV1",
						"label": "ManagerToUserData",
						"offset": 0,
						"slot": "3",
						"type": "t_mapping(t_address,t_struct(UserData)165_storage)"
					},
					{
						"astId": 181,
						"contract": "contracts/KYCManager.sol:KYCManagerV1",
						"label": "NFTIdToAvailable",
						"offset": 0,
						"slot": "4",
						"type": "t_mapping(t_uint256,t_bool)"
					}
				],
				"types": {
					"t_address": {
						"encoding": "inplace",
						"label": "address",
						"numberOfBytes": "20"
					},
					"t_bool": {
						"encoding": "inplace",
						"label": "bool",
						"numberOfBytes": "1"
					},
					"t_bytes_storage": {
						"encoding": "bytes",
						"label": "bytes",
						"numberOfBytes": "32"
					},
					"t_contract(KYCNFTInterface)154": {
						"encoding": "inplace",
						"label": "contract KYCNFTInterface",
						"numberOfBytes": "20"
					},
					"t_mapping(t_address,t_struct(UserData)165_storage)": {
						"encoding": "mapping",
						"key": "t_address",
						"label": "mapping(address => struct KYCManagerV1.UserData)",
						"numberOfBytes": "32",
						"value": "t_struct(UserData)165_storage"
					},
					"t_mapping(t_uint256,t_address)": {
						"encoding": "mapping",
						"key": "t_uint256",
						"label": "mapping(uint256 => address)",
						"numberOfBytes": "32",
						"value": "t_address"
					},
					"t_mapping(t_uint256,t_bool)": {
						"encoding": "mapping",
						"key": "t_uint256",
						"label": "mapping(uint256 => bool)",
						"numberOfBytes": "32",
						"value": "t_bool"
					},
					"t_struct(UserData)165_storage": {
						"encoding": "inplace",
						"label": "struct KYCManagerV1.UserData",
						"members": [
							{
								"astId": 158,
								"contract": "contracts/KYCManager.sol:KYCManagerV1",
								"label": "NFTid",
								"offset": 0,
								"slot": "0",
								"type": "t_uint256"
							},
							{
								"astId": 160,
								"contract": "contracts/KYCManager.sol:KYCManagerV1",
								"label": "accumulator",
								"offset": 0,
								"slot": "1",
								"type": "t_bytes_storage"
							},
							{
								"astId": 162,
								"contract": "contracts/KYCManager.sol:KYCManagerV1",
								"label": "n",
								"offset": 0,
								"slot": "2",
								"type": "t_bytes_storage"
							},
							{
								"astId": 164,
								"contract": "contracts/KYCManager.sol:KYCManagerV1",
								"label": "g",
								"offset": 0,
								"slot": "3",
								"type": "t_uint256"
							}
						],
						"numberOfBytes": "128"
					},
					"t_uint256": {
						"encoding": "inplace",
						"label": "uint256",
						"numberOfBytes": "32"
					}
				}
			},
			"userdoc": {
				"kind": "user",
				"methods": {},
				"version": 1
			}
		}
	}
}