{
  "_format": "hh-sol-artifact-1",
  "contractName": "KYCManager",
  "sourceName": "contracts/KYCManager.sol",
  "abi": [
    {
      "anonymous": false,
      "inputs": [
        {
          "indexed": true,
          "internalType": "address",
          "name": "previousOwner",
          "type": "address"
        },
        {
          "indexed": true,
          "internalType": "address",
          "name": "newOwner",
          "type": "address"
        }
      ],
      "name": "OwnershipTransferred",
      "type": "event"
    },
    {
      "stateMutability": "payable",
      "type": "fallback"
    },
    {
      "inputs": [
        {
          "internalType": "address",
          "name": "managerAddr",
          "type": "address"
        }
      ],
      "name": "NFTIdOfManager",
      "outputs": [
        {
          "internalType": "uint256",
          "name": "",
          "type": "uint256"
        }
      ],
      "stateMutability": "view",
      "type": "function"
    },
    {
      "inputs": [
        {
          "internalType": "uint256",
          "name": "NFTid",
          "type": "uint256"
        }
      ],
      "name": "availableOfNFTId",
      "outputs": [
        {
          "internalType": "bool",
          "name": "",
          "type": "bool"
        }
      ],
      "stateMutability": "view",
      "type": "function"
    },
    {
      "inputs": [
        {
          "internalType": "string",
          "name": "tokenUrl",
          "type": "string"
        },
        {
          "internalType": "address",
          "name": "manager",
          "type": "address"
        },
        {
          "internalType": "uint256",
          "name": "expirationTime",
          "type": "uint256"
        }
      ],
      "name": "createKYCNFT",
      "outputs": [],
      "stateMutability": "nonpayable",
      "type": "function"
    },
    {
      "inputs": [
        {
          "internalType": "uint256",
          "name": "NFTid",
          "type": "uint256"
        },
        {
          "internalType": "address",
          "name": "manager",
          "type": "address"
        }
      ],
      "name": "initManagerAddr",
      "outputs": [],
      "stateMutability": "nonpayable",
      "type": "function"
    },
    {
      "inputs": [
        {
          "internalType": "uint256",
          "name": "NFTid",
          "type": "uint256"
        }
      ],
      "name": "managerOfNFTId",
      "outputs": [
        {
          "internalType": "address",
          "name": "",
          "type": "address"
        }
      ],
      "stateMutability": "view",
      "type": "function"
    },
    {
      "inputs": [
        {
          "internalType": "address",
          "name": "newManager",
          "type": "address"
        }
      ],
      "name": "modifyManagerAddr",
      "outputs": [],
      "stateMutability": "nonpayable",
      "type": "function"
    },
    {
      "inputs": [],
      "name": "owner",
      "outputs": [
        {
          "internalType": "address",
          "name": "",
          "type": "address"
        }
      ],
      "stateMutability": "view",
      "type": "function"
    },
    {
      "inputs": [],
      "name": "renounceOwnership",
      "outputs": [],
      "stateMutability": "nonpayable",
      "type": "function"
    },
    {
      "inputs": [
        {
          "internalType": "address",
          "name": "_kycnftContractAddr",
          "type": "address"
        }
      ],
      "name": "setKYCNFTContractAddress",
      "outputs": [],
      "stateMutability": "nonpayable",
      "type": "function"
    },
    {
      "inputs": [
        {
          "internalType": "uint256",
          "name": "NFTid",
          "type": "uint256"
        },
        {
          "internalType": "bool",
          "name": "_available",
          "type": "bool"
        }
      ],
      "name": "setNFTAvailableOfNFTId",
      "outputs": [],
      "stateMutability": "nonpayable",
      "type": "function"
    },
    {
      "inputs": [
        {
          "internalType": "address",
          "name": "newOwner",
          "type": "address"
        }
      ],
      "name": "transferOwnership",
      "outputs": [],
      "stateMutability": "nonpayable",
      "type": "function"
    },
    {
      "inputs": [
        {
          "internalType": "string",
          "name": "_accumulator",
          "type": "string"
        },
        {
          "internalType": "string",
          "name": "_n",
          "type": "string"
        },
        {
          "internalType": "uint256",
          "name": "_g",
          "type": "uint256"
        }
      ],
      "name": "updateAccumulator",
      "outputs": [],
      "stateMutability": "nonpayable",
      "type": "function"
    },
    {
      "inputs": [
        {
          "internalType": "string",
          "name": "_n",
          "type": "string"
        },
        {
          "internalType": "uint256",
          "name": "_g",
          "type": "uint256"
        }
      ],
      "name": "updateAccumulatorPublicKey",
      "outputs": [],
      "stateMutability": "nonpayable",
      "type": "function"
    },
    {
      "inputs": [
        {
          "internalType": "string",
          "name": "_accumulator",
          "type": "string"
        }
      ],
      "name": "updateAccumulatorValue",
      "outputs": [],
      "stateMutability": "nonpayable",
      "type": "function"
    },
    {
      "inputs": [
        {
          "internalType": "address",
          "name": "managerAddr",
          "type": "address"
        }
      ],
      "name": "userDataOfManager",
      "outputs": [
        {
          "components": [
            {
              "internalType": "uint256",
              "name": "NFTid",
              "type": "uint256"
            },
            {
              "internalType": "string",
              "name": "accumulator",
              "type": "string"
            },
            {
              "internalType": "string",
              "name": "n",
              "type": "string"
            },
            {
              "internalType": "uint256",
              "name": "g",
              "type": "uint256"
            }
          ],
          "internalType": "struct KYCManager.UserData",
          "name": "",
          "type": "tuple"
        }
      ],
      "stateMutability": "view",
      "type": "function"
    },
    {
      "inputs": [
        {
          "internalType": "uint256",
          "name": "NFTid",
          "type": "uint256"
        }
      ],
      "name": "userDataOfNFTId",
      "outputs": [
        {
          "components": [
            {
              "internalType": "uint256",
              "name": "NFTid",
              "type": "uint256"
            },
            {
              "internalType": "string",
              "name": "accumulator",
              "type": "string"
            },
            {
              "internalType": "string",
              "name": "n",
              "type": "string"
            },
            {
              "internalType": "uint256",
              "name": "g",
              "type": "uint256"
            }
          ],
          "internalType": "struct KYCManager.UserData",
          "name": "",
          "type": "tuple"
        }
      ],
      "stateMutability": "view",
      "type": "function"
    },
    {
      "inputs": [
        {
          "internalType": "bytes32",
          "name": "root",
          "type": "bytes32"
        },
        {
          "internalType": "bytes32",
          "name": "leaf",
          "type": "bytes32"
        },
        {
          "internalType": "bytes32[]",
          "name": "proof",
          "type": "bytes32[]"
        },
        {
          "internalType": "uint256[]",
          "name": "positions",
          "type": "uint256[]"
        }
      ],
      "name": "verify",
      "outputs": [
        {
          "internalType": "bool",
          "name": "",
          "type": "bool"
        }
      ],
      "stateMutability": "pure",
      "type": "function"
    },
    {
      "inputs": [
        {
          "internalType": "bytes32",
          "name": "root",
          "type": "bytes32"
        },
        {
          "internalType": "bytes32",
          "name": "leaf",
          "type": "bytes32"
        },
        {
          "internalType": "bytes32[]",
          "name": "proof",
          "type": "bytes32[]"
        },
        {
          "internalType": "uint256[]",
          "name": "positions",
          "type": "uint256[]"
        }
      ],
      "name": "verifyTest",
      "outputs": [
        {
          "internalType": "bytes32[]",
          "name": "",
          "type": "bytes32[]"
        }
      ],
      "stateMutability": "pure",
      "type": "function"
    },
    {
      "stateMutability": "payable",
      "type": "receive"
    }
  ],
  "bytecode": "0x608060405234801561001057600080fd5b5061002d61002261003260201b60201c565b61003a60201b60201c565b6100fe565b600033905090565b60008060009054906101000a900473ffffffffffffffffffffffffffffffffffffffff169050816000806101000a81548173ffffffffffffffffffffffffffffffffffffffff021916908373ffffffffffffffffffffffffffffffffffffffff1602179055508173ffffffffffffffffffffffffffffffffffffffff168173ffffffffffffffffffffffffffffffffffffffff167f8be0079c531659141344cd1fd0a4f28419497f9722a3daafe3b4186f6b6457e060405160405180910390a35050565b61249c806200010e6000396000f3fe60806040526004361061010d5760003560e01c80639bb6dcc811610095578063d1933ddd11610064578063d1933ddd146103ad578063d6f70eb3146103d6578063f2fde38b146103ff578063fa0e9e4114610428578063fbc2cf131461045157610117565b80639bb6dcc8146102cd578063ad5750351461030a578063b2b72bc414610347578063bafdee141461038457610117565b8063715018a6116100dc578063715018a6146101e8578063717b9b6c146101ff5780638da5cb5b14610228578063917b8fd0146102535780639382b5ec1461029057610117565b80630e197dc91461011c5780631ff4bdf3146101595780633960a892146101825780634b3cef44146101ab57610117565b3661011757600080fd5b600080fd5b34801561012857600080fd5b50610143600480360381019061013e9190611c7a565b61047a565b6040516101509190611fd7565b60405180910390f35b34801561016557600080fd5b50610180600480360381019061017b9190611a3b565b6104a4565b005b34801561018e57600080fd5b506101a960048036038101906101a49190611ccc565b610715565b005b3480156101b757600080fd5b506101d260048036038101906101cd9190611c7a565b61082e565b6040516101df9190611f6a565b60405180910390f35b3480156101f457600080fd5b506101fd610870565b005b34801561020b57600080fd5b5061022660048036038101906102219190611d08565b6108f8565b005b34801561023457600080fd5b5061023d6109a3565b60405161024a9190611f6a565b60405180910390f35b34801561025f57600080fd5b5061027a60048036038101906102759190611c7a565b6109cc565b6040516102879190612032565b60405180910390f35b34801561029c57600080fd5b506102b760048036038101906102b29190611a64565b610b9c565b6040516102c49190611fb5565b60405180910390f35b3480156102d957600080fd5b506102f460048036038101906102ef9190611a64565b610e0e565b6040516103019190611fd7565b60405180910390f35b34801561031657600080fd5b50610331600480360381019061032c9190611a3b565b610f2f565b60405161033e9190612032565b60405180910390f35b34801561035357600080fd5b5061036e60048036038101906103699190611a3b565b6110c6565b60405161037b9190612054565b60405180910390f35b34801561039057600080fd5b506103ab60048036038101906103a69190611ba7565b61125a565b005b3480156103b957600080fd5b506103d460048036038101906103cf9190611b40565b6112de565b005b3480156103e257600080fd5b506103fd60048036038101906103f89190611aff565b6114bd565b005b34801561040b57600080fd5b5061042660048036038101906104219190611a3b565b61151d565b005b34801561043457600080fd5b5061044f600480360381019061044a9190611c26565b611615565b005b34801561045d57600080fd5b5061047860048036038101906104739190611a3b565b61167f565b005b60006004600083815260200190815260200160002060009054906101000a900460ff169050919050565b6000600360003373ffffffffffffffffffffffffffffffffffffffff1673ffffffffffffffffffffffffffffffffffffffff1681526020019081526020016000206040518060800160405290816000820154815260200160018201805461050a9061223e565b80601f01602080910402602001604051908101604052809291908181526020018280546105369061223e565b80156105835780601f1061055857610100808354040283529160200191610583565b820191906000526020600020905b81548152906001019060200180831161056657829003601f168201915b5050505050815260200160028201805461059c9061223e565b80601f01602080910402602001604051908101604052809291908181526020018280546105c89061223e565b80156106155780601f106105ea57610100808354040283529160200191610615565b820191906000526020600020905b8154815290600101906020018083116105f857829003601f168201915b50505050508152602001600382015481525050905080600360008473ffffffffffffffffffffffffffffffffffffffff1673ffffffffffffffffffffffffffffffffffffffff16815260200190815260200160002060008201518160000155602082015181600101908051906020019061069092919061180b565b5060408201518160020190805190602001906106ad92919061180b565b506060820151816003015590505081600260008360000151815260200190815260200160002060006101000a81548173ffffffffffffffffffffffffffffffffffffffff021916908373ffffffffffffffffffffffffffffffffffffffff1602179055505050565b61071d61173f565b73ffffffffffffffffffffffffffffffffffffffff1661073b6109a3565b73ffffffffffffffffffffffffffffffffffffffff1614610791576040517f08c379a000000000000000000000000000000000000000000000000000000000815260040161078890612012565b60405180910390fd5b806002600084815260200190815260200160002060006101000a81548173ffffffffffffffffffffffffffffffffffffffff021916908373ffffffffffffffffffffffffffffffffffffffff16021790555081600360008373ffffffffffffffffffffffffffffffffffffffff1673ffffffffffffffffffffffffffffffffffffffff168152602001908152602001600020600001819055505050565b6000806002600084815260200190815260200160002060009054906101000a900473ffffffffffffffffffffffffffffffffffffffff16905080915050919050565b61087861173f565b73ffffffffffffffffffffffffffffffffffffffff166108966109a3565b73ffffffffffffffffffffffffffffffffffffffff16146108ec576040517f08c379a00000000000000000000000000000000000000000000000000000000081526004016108e390612012565b60405180910390fd5b6108f66000611747565b565b61090061173f565b73ffffffffffffffffffffffffffffffffffffffff1661091e6109a3565b73ffffffffffffffffffffffffffffffffffffffff1614610974576040517f08c379a000000000000000000000000000000000000000000000000000000000815260040161096b90612012565b60405180910390fd5b806004600084815260200190815260200160002060006101000a81548160ff0219169083151502179055505050565b60008060009054906101000a900473ffffffffffffffffffffffffffffffffffffffff16905090565b6109d4611891565b60006002600084815260200190815260200160002060009054906101000a900473ffffffffffffffffffffffffffffffffffffffff1690506000600360008373ffffffffffffffffffffffffffffffffffffffff1673ffffffffffffffffffffffffffffffffffffffff16815260200190815260200160002060405180608001604052908160008201548152602001600182018054610a729061223e565b80601f0160208091040260200160405190810160405280929190818152602001828054610a9e9061223e565b8015610aeb5780601f10610ac057610100808354040283529160200191610aeb565b820191906000526020600020905b815481529060010190602001808311610ace57829003601f168201915b50505050508152602001600282018054610b049061223e565b80601f0160208091040260200160405190810160405280929190818152602001828054610b309061223e565b8015610b7d5780601f10610b5257610100808354040283529160200191610b7d565b820191906000526020600020905b815481529060010190602001808311610b6057829003601f168201915b5050505050815260200160038201548152505090508092505050919050565b606060008690506000600187879050610bb59190612154565b67ffffffffffffffff811115610bf4577f4e487b7100000000000000000000000000000000000000000000000000000000600052604160045260246000fd5b604051908082528060200260200182016040528015610c225781602001602082028036833780820191505090505b50905080600081518110610c5f577f4e487b7100000000000000000000000000000000000000000000000000000000600052603260045260246000fd5b60200260200101515060005b87879050811015610dfe576000888883818110610cb1577f4e487b7100000000000000000000000000000000000000000000000000000000600052603260045260246000fd5b9050602002013590506001878784818110610cf5577f4e487b7100000000000000000000000000000000000000000000000000000000600052603260045260246000fd5b905060200201351415610d78578381604051602001610d15929190611f3e565b60405160208183030381529060405280519060200120935083838381518110610d67577f4e487b7100000000000000000000000000000000000000000000000000000000600052603260045260246000fd5b602002602001018181525050610dea565b8084604051602001610d8b929190611f3e565b60405160208183030381529060405280519060200120935083838381518110610ddd577f4e487b7100000000000000000000000000000000000000000000000000000000600052603260045260246000fd5b6020026020010181815250505b508080610df6906122a1565b915050610c6b565b5080925050509695505050505050565b60008086905060005b86869050811015610f1e576000878783818110610e5d577f4e487b7100000000000000000000000000000000000000000000000000000000600052603260045260246000fd5b9050602002013590506001868684818110610ea1577f4e487b7100000000000000000000000000000000000000000000000000000000600052603260045260246000fd5b905060200201351415610ede578281604051602001610ec1929190611f3e565b604051602081830303815290604052805190602001209250610f0a565b8083604051602001610ef1929190611f3e565b6040516020818303038152906040528051906020012092505b508080610f16906122a1565b915050610e17565b508781149150509695505050505050565b610f37611891565b6000600360008473ffffffffffffffffffffffffffffffffffffffff1673ffffffffffffffffffffffffffffffffffffffff16815260200190815260200160002060405180608001604052908160008201548152602001600182018054610f9d9061223e565b80601f0160208091040260200160405190810160405280929190818152602001828054610fc99061223e565b80156110165780601f10610feb57610100808354040283529160200191611016565b820191906000526020600020905b815481529060010190602001808311610ff957829003601f168201915b5050505050815260200160028201805461102f9061223e565b80601f016020809104026020016040519081016040528092919081815260200182805461105b9061223e565b80156110a85780601f1061107d576101008083540402835291602001916110a8565b820191906000526020600020905b81548152906001019060200180831161108b57829003601f168201915b50505050508152602001600382015481525050905080915050919050565b600080600360008473ffffffffffffffffffffffffffffffffffffffff1673ffffffffffffffffffffffffffffffffffffffff1681526020019081526020016000206040518060800160405290816000820154815260200160018201805461112d9061223e565b80601f01602080910402602001604051908101604052809291908181526020018280546111599061223e565b80156111a65780601f1061117b576101008083540402835291602001916111a6565b820191906000526020600020905b81548152906001019060200180831161118957829003601f168201915b505050505081526020016002820180546111bf9061223e565b80601f01602080910402602001604051908101604052809291908181526020018280546111eb9061223e565b80156112385780601f1061120d57610100808354040283529160200191611238565b820191906000526020600020905b81548152906001019060200180831161121b57829003601f168201915b5050505050815260200160038201548152505090508060000151915050919050565b6000600360003373ffffffffffffffffffffffffffffffffffffffff1673ffffffffffffffffffffffffffffffffffffffff1681526020019081526020016000209050838160010190805190602001906112b592919061180b565b50828160020190805190602001906112ce92919061180b565b5081816003018190555050505050565b6112e661173f565b73ffffffffffffffffffffffffffffffffffffffff166113046109a3565b73ffffffffffffffffffffffffffffffffffffffff161461135a576040517f08c379a000000000000000000000000000000000000000000000000000000000815260040161135190612012565b60405180910390fd5b60003090506000600160009054906101000a900473ffffffffffffffffffffffffffffffffffffffff1673ffffffffffffffffffffffffffffffffffffffff1663cf37834383876040518363ffffffff1660e01b81526004016113be929190611f85565b602060405180830381600087803b1580156113d857600080fd5b505af11580156113ec573d6000803e3d6000fd5b505050506040513d601f19601f820116820180604052508101906114109190611ca3565b9050600160009054906101000a900473ffffffffffffffffffffffffffffffffffffffff1673ffffffffffffffffffffffffffffffffffffffff1663e1b2e97982856040518363ffffffff1660e01b815260040161146f92919061206f565b600060405180830381600087803b15801561148957600080fd5b505af115801561149d573d6000803e3d6000fd5b505050506114ac8160016108f8565b6114b68185610715565b5050505050565b6000600360003373ffffffffffffffffffffffffffffffffffffffff1673ffffffffffffffffffffffffffffffffffffffff16815260200190815260200160002090508181600101908051906020019061151892919061180b565b505050565b61152561173f565b73ffffffffffffffffffffffffffffffffffffffff166115436109a3565b73ffffffffffffffffffffffffffffffffffffffff1614611599576040517f08c379a000000000000000000000000000000000000000000000000000000000815260040161159090612012565b60405180910390fd5b600073ffffffffffffffffffffffffffffffffffffffff168173ffffffffffffffffffffffffffffffffffffffff161415611609576040517f08c379a000000000000000000000000000000000000000000000000000000000815260040161160090611ff2565b60405180910390fd5b61161281611747565b50565b6000600360003373ffffffffffffffffffffffffffffffffffffffff1673ffffffffffffffffffffffffffffffffffffffff16815260200190815260200160002090508281600201908051906020019061167092919061180b565b50818160030181905550505050565b61168761173f565b73ffffffffffffffffffffffffffffffffffffffff166116a56109a3565b73ffffffffffffffffffffffffffffffffffffffff16146116fb576040517f08c379a00000000000000000000000000000000000000000000000000000000081526004016116f290612012565b60405180910390fd5b80600160006101000a81548173ffffffffffffffffffffffffffffffffffffffff021916908373ffffffffffffffffffffffffffffffffffffffff16021790555050565b600033905090565b60008060009054906101000a900473ffffffffffffffffffffffffffffffffffffffff169050816000806101000a81548173ffffffffffffffffffffffffffffffffffffffff021916908373ffffffffffffffffffffffffffffffffffffffff1602179055508173ffffffffffffffffffffffffffffffffffffffff168173ffffffffffffffffffffffffffffffffffffffff167f8be0079c531659141344cd1fd0a4f28419497f9722a3daafe3b4186f6b6457e060405160405180910390a35050565b8280546118179061223e565b90600052602060002090601f0160209004810192826118395760008555611880565b82601f1061185257805160ff1916838001178555611880565b82800160010185558215611880579182015b8281111561187f578251825591602001919060010190611864565b5b50905061188d91906118b9565b5090565b6040518060800160405280600081526020016060815260200160608152602001600081525090565b5b808211156118d25760008160009055506001016118ba565b5090565b60006118e96118e4846120bd565b612098565b90508281526020810184848401111561190157600080fd5b61190c8482856121fc565b509392505050565b6000813590506119238161240a565b92915050565b60008083601f84011261193b57600080fd5b8235905067ffffffffffffffff81111561195457600080fd5b60208301915083602082028301111561196c57600080fd5b9250929050565b60008083601f84011261198557600080fd5b8235905067ffffffffffffffff81111561199e57600080fd5b6020830191508360208202830111156119b657600080fd5b9250929050565b6000813590506119cc81612421565b92915050565b6000813590506119e181612438565b92915050565b600082601f8301126119f857600080fd5b8135611a088482602086016118d6565b91505092915050565b600081359050611a208161244f565b92915050565b600081519050611a358161244f565b92915050565b600060208284031215611a4d57600080fd5b6000611a5b84828501611914565b91505092915050565b60008060008060008060808789031215611a7d57600080fd5b6000611a8b89828a016119d2565b9650506020611a9c89828a016119d2565b955050604087013567ffffffffffffffff811115611ab957600080fd5b611ac589828a01611929565b9450945050606087013567ffffffffffffffff811115611ae457600080fd5b611af089828a01611973565b92509250509295509295509295565b600060208284031215611b1157600080fd5b600082013567ffffffffffffffff811115611b2b57600080fd5b611b37848285016119e7565b91505092915050565b600080600060608486031215611b5557600080fd5b600084013567ffffffffffffffff811115611b6f57600080fd5b611b7b868287016119e7565b9350506020611b8c86828701611914565b9250506040611b9d86828701611a11565b9150509250925092565b600080600060608486031215611bbc57600080fd5b600084013567ffffffffffffffff811115611bd657600080fd5b611be2868287016119e7565b935050602084013567ffffffffffffffff811115611bff57600080fd5b611c0b868287016119e7565b9250506040611c1c86828701611a11565b9150509250925092565b60008060408385031215611c3957600080fd5b600083013567ffffffffffffffff811115611c5357600080fd5b611c5f858286016119e7565b9250506020611c7085828601611a11565b9150509250929050565b600060208284031215611c8c57600080fd5b6000611c9a84828501611a11565b91505092915050565b600060208284031215611cb557600080fd5b6000611cc384828501611a26565b91505092915050565b60008060408385031215611cdf57600080fd5b6000611ced85828601611a11565b9250506020611cfe85828601611914565b9150509250929050565b60008060408385031215611d1b57600080fd5b6000611d2985828601611a11565b9250506020611d3a858286016119bd565b9150509250929050565b6000611d508383611dd8565b60208301905092915050565b611d65816121aa565b82525050565b6000611d76826120fe565b611d808185612121565b9350611d8b836120ee565b8060005b83811015611dbc578151611da38882611d44565b9750611dae83612114565b925050600181019050611d8f565b5085935050505092915050565b611dd2816121bc565b82525050565b611de1816121c8565b82525050565b611df8611df3826121c8565b6122ea565b82525050565b6000611e0982612109565b611e138185612132565b9350611e2381856020860161220b565b611e2c81612381565b840191505092915050565b6000611e4282612109565b611e4c8185612143565b9350611e5c81856020860161220b565b611e6581612381565b840191505092915050565b6000611e7d602683612143565b9150611e8882612392565b604082019050919050565b6000611ea0602083612143565b9150611eab826123e1565b602082019050919050565b6000608083016000830151611ece6000860182611f20565b5060208301518482036020860152611ee68282611dfe565b91505060408301518482036040860152611f008282611dfe565b9150506060830151611f156060860182611f20565b508091505092915050565b611f29816121f2565b82525050565b611f38816121f2565b82525050565b6000611f4a8285611de7565b602082019150611f5a8284611de7565b6020820191508190509392505050565b6000602082019050611f7f6000830184611d5c565b92915050565b6000604082019050611f9a6000830185611d5c565b8181036020830152611fac8184611e37565b90509392505050565b60006020820190508181036000830152611fcf8184611d6b565b905092915050565b6000602082019050611fec6000830184611dc9565b92915050565b6000602082019050818103600083015261200b81611e70565b9050919050565b6000602082019050818103600083015261202b81611e93565b9050919050565b6000602082019050818103600083015261204c8184611eb6565b905092915050565b60006020820190506120696000830184611f2f565b92915050565b60006040820190506120846000830185611f2f565b6120916020830184611f2f565b9392505050565b60006120a26120b3565b90506120ae8282612270565b919050565b6000604051905090565b600067ffffffffffffffff8211156120d8576120d7612352565b5b6120e182612381565b9050602081019050919050565b6000819050602082019050919050565b600081519050919050565b600081519050919050565b6000602082019050919050565b600082825260208201905092915050565b600082825260208201905092915050565b600082825260208201905092915050565b600061215f826121f2565b915061216a836121f2565b9250827fffffffffffffffffffffffffffffffffffffffffffffffffffffffffffffffff0382111561219f5761219e6122f4565b5b828201905092915050565b60006121b5826121d2565b9050919050565b60008115159050919050565b6000819050919050565b600073ffffffffffffffffffffffffffffffffffffffff82169050919050565b6000819050919050565b82818337600083830152505050565b60005b8381101561222957808201518184015260208101905061220e565b83811115612238576000848401525b50505050565b6000600282049050600182168061225657607f821691505b6020821081141561226a57612269612323565b5b50919050565b61227982612381565b810181811067ffffffffffffffff8211171561229857612297612352565b5b80604052505050565b60006122ac826121f2565b91507fffffffffffffffffffffffffffffffffffffffffffffffffffffffffffffffff8214156122df576122de6122f4565b5b600182019050919050565b6000819050919050565b7f4e487b7100000000000000000000000000000000000000000000000000000000600052601160045260246000fd5b7f4e487b7100000000000000000000000000000000000000000000000000000000600052602260045260246000fd5b7f4e487b7100000000000000000000000000000000000000000000000000000000600052604160045260246000fd5b6000601f19601f8301169050919050565b7f4f776e61626c653a206e6577206f776e657220697320746865207a65726f206160008201527f6464726573730000000000000000000000000000000000000000000000000000602082015250565b7f4f776e61626c653a2063616c6c6572206973206e6f7420746865206f776e6572600082015250565b612413816121aa565b811461241e57600080fd5b50565b61242a816121bc565b811461243557600080fd5b50565b612441816121c8565b811461244c57600080fd5b50565b612458816121f2565b811461246357600080fd5b5056fea2646970667358221220060dfba2d2186f8039780e815f3973ad25c758dc1c59c6f1d5a6ce641dade07664736f6c63430008030033",
  "linkReferences": {},
  "deployedLinkReferences": {}
}